{
	"contracts/optimism/L2OptimismBridge.sol": {
		"L2OptimisimBridge": {
			"abi": [
				{
					"anonymous": false,
					"inputs": [
						{
							"indexed": true,
							"internalType": "bytes32",
							"name": "msgHash",
							"type": "bytes32"
						}
					],
					"name": "FailedRelayedMessage",
					"type": "event"
				},
				{
					"anonymous": false,
					"inputs": [
						{
							"indexed": true,
							"internalType": "bytes32",
							"name": "msgHash",
							"type": "bytes32"
						}
					],
					"name": "RelayedMessage",
					"type": "event"
				},
				{
					"anonymous": false,
					"inputs": [
						{
							"indexed": true,
							"internalType": "address",
							"name": "target",
							"type": "address"
						},
						{
							"indexed": false,
							"internalType": "address",
							"name": "sender",
							"type": "address"
						},
						{
							"indexed": false,
							"internalType": "bytes",
							"name": "message",
							"type": "bytes"
						},
						{
							"indexed": false,
							"internalType": "uint256",
							"name": "messageNonce",
							"type": "uint256"
						},
						{
							"indexed": false,
							"internalType": "uint256",
							"name": "gasLimit",
							"type": "uint256"
						}
					],
					"name": "SentMessage",
					"type": "event"
				},
				{
					"inputs": [
						{
							"internalType": "address",
							"name": "from",
							"type": "address"
						},
						{
							"internalType": "address",
							"name": "to",
							"type": "address"
						},
						{
							"internalType": "bytes",
							"name": "data",
							"type": "bytes"
						}
					],
					"name": "relay",
					"outputs": [],
					"stateMutability": "nonpayable",
					"type": "function"
				},
				{
					"inputs": [
						{
							"internalType": "address",
							"name": "_target",
							"type": "address"
						},
						{
							"internalType": "bytes",
							"name": "_message",
							"type": "bytes"
						},
						{
							"internalType": "uint32",
							"name": "_gasLimit",
							"type": "uint32"
						}
					],
					"name": "sendMessage",
					"outputs": [],
					"stateMutability": "nonpayable",
					"type": "function"
				},
				{
					"inputs": [],
					"name": "xDomainMessageSender",
					"outputs": [
						{
							"internalType": "address",
							"name": "",
							"type": "address"
						}
					],
					"stateMutability": "view",
					"type": "function"
				}
			],
			"devdoc": {
				"kind": "dev",
				"methods": {
					"sendMessage(address,bytes,uint32)": {
						"params": {
							"_gasLimit": "Gas limit for the provided message.",
							"_message": "Message to send to the target.",
							"_target": "Target contract address."
						}
					}
				},
				"version": 1
			},
			"evm": {
				"assembly": "    /* \"contracts/optimism/L2OptimismBridge.sol\":175:608  contract L2OptimisimBridge is ICrossDomainMessenger, ZkEvmMagicNumbers, OptimismWrapper {... */\n  mstore(0x40, 0x80)\n  callvalue\n  dup1\n  iszero\n  tag_1\n  jumpi\n  0x00\n  dup1\n  revert\ntag_1:\n  pop\n  dataSize(sub_0)\n  dup1\n  dataOffset(sub_0)\n  0x00\n  codecopy\n  0x00\n  return\nstop\n\nsub_0: assembly {\n        /* \"contracts/optimism/L2OptimismBridge.sol\":175:608  contract L2OptimisimBridge is ICrossDomainMessenger, ZkEvmMagicNumbers, OptimismWrapper {... */\n      mstore(0x40, 0x80)\n      callvalue\n      dup1\n      iszero\n      tag_1\n      jumpi\n      0x00\n      dup1\n      revert\n    tag_1:\n      pop\n      jumpi(tag_2, lt(calldatasize, 0x04))\n      shr(0xe0, calldataload(0x00))\n      dup1\n      0x3dbb202b\n      eq\n      tag_3\n      jumpi\n      dup1\n      0x6e296e45\n      eq\n      tag_4\n      jumpi\n      dup1\n      0xb29e0acf\n      eq\n      tag_5\n      jumpi\n    tag_2:\n      0x00\n      dup1\n      revert\n        /* \"contracts/optimism/L2OptimismBridge.sol\":267:462  function sendMessage(... */\n    tag_3:\n      tag_6\n      0x04\n      dup1\n      calldatasize\n      sub\n      dup2\n      add\n      swap1\n      tag_7\n      swap2\n      swap1\n      tag_8\n      jump\t// in\n    tag_7:\n      tag_9\n      jump\t// in\n    tag_6:\n      stop\n        /* \"contracts/optimism/OptimismWrapper.sol\":450:659  function xDomainMessageSender () external view returns (address) {... */\n    tag_4:\n      tag_10\n      tag_11\n      jump\t// in\n    tag_10:\n      mload(0x40)\n      tag_12\n      swap2\n      swap1\n      tag_13\n      jump\t// in\n    tag_12:\n      mload(0x40)\n      dup1\n      swap2\n      sub\n      swap1\n      return\n        /* \"contracts/optimism/L2OptimismBridge.sol\":466:606  function relay (address from, address to, bytes calldata data) external {... */\n    tag_5:\n      tag_14\n      0x04\n      dup1\n      calldatasize\n      sub\n      dup2\n      add\n      swap1\n      tag_15\n      swap2\n      swap1\n      tag_16\n      jump\t// in\n    tag_15:\n      tag_17\n      jump\t// in\n    tag_14:\n      stop\n        /* \"contracts/optimism/L2OptimismBridge.sol\":267:462  function sendMessage(... */\n    tag_9:\n        /* \"contracts/optimism/L2OptimismBridge.sol\":379:457  _wrapMessage(L2_DISPATCHER, L1_OPTIMISM_WRAPPER, _target, _message, _gasLimit) */\n      tag_19\n        /* \"contracts/ZkEvmMagicNumbers.sol\":251:293  0x0000000000000000000000000000000000020000 */\n      0x020000\n        /* \"contracts/ZkEvmMagicNumbers.sol\":412:454  0x936A70C0b28532aa22240dce21F89a8399d6aC61 */\n      0x936a70c0b28532aa22240dce21f89a8399d6ac61\n        /* \"contracts/optimism/L2OptimismBridge.sol\":428:435  _target */\n      dup7\n        /* \"contracts/optimism/L2OptimismBridge.sol\":437:445  _message */\n      dup7\n      dup7\n        /* \"contracts/optimism/L2OptimismBridge.sol\":447:456  _gasLimit */\n      dup7\n        /* \"contracts/optimism/L2OptimismBridge.sol\":379:391  _wrapMessage */\n      tag_20\n        /* \"contracts/optimism/L2OptimismBridge.sol\":379:457  _wrapMessage(L2_DISPATCHER, L1_OPTIMISM_WRAPPER, _target, _message, _gasLimit) */\n      jump\t// in\n    tag_19:\n        /* \"contracts/optimism/L2OptimismBridge.sol\":267:462  function sendMessage(... */\n      pop\n      pop\n      pop\n      pop\n      jump\t// out\n        /* \"contracts/optimism/OptimismWrapper.sol\":450:659  function xDomainMessageSender () external view returns (address) {... */\n    tag_11:\n        /* \"contracts/optimism/OptimismWrapper.sol\":506:513  address */\n      0x00\n        /* \"contracts/optimism/OptimismWrapper.sol\":374:416  0x000000000000000000000000000000000000dEaD */\n      0xdead\n        /* \"contracts/optimism/OptimismWrapper.sol\":536:578  xDomainMsgSender != DEFAULT_XDOMAIN_SENDER */\n      0xffffffffffffffffffffffffffffffffffffffff\n      and\n        /* \"contracts/optimism/OptimismWrapper.sol\":536:552  xDomainMsgSender */\n      0x00\n      dup1\n      sload\n      swap1\n      0x0100\n      exp\n      swap1\n      div\n      0xffffffffffffffffffffffffffffffffffffffff\n      and\n        /* \"contracts/optimism/OptimismWrapper.sol\":536:578  xDomainMsgSender != DEFAULT_XDOMAIN_SENDER */\n      0xffffffffffffffffffffffffffffffffffffffff\n      and\n      sub\n        /* \"contracts/optimism/OptimismWrapper.sol\":521:625  require(... */\n      tag_22\n      jumpi\n      mload(0x40)\n      0x08c379a000000000000000000000000000000000000000000000000000000000\n      dup2\n      mstore\n      0x04\n      add\n      tag_23\n      swap1\n      tag_24\n      jump\t// in\n    tag_23:\n      mload(0x40)\n      dup1\n      swap2\n      sub\n      swap1\n      revert\n    tag_22:\n        /* \"contracts/optimism/OptimismWrapper.sol\":638:654  xDomainMsgSender */\n      0x00\n      dup1\n      sload\n      swap1\n      0x0100\n      exp\n      swap1\n      div\n      0xffffffffffffffffffffffffffffffffffffffff\n      and\n        /* \"contracts/optimism/OptimismWrapper.sol\":631:654  return xDomainMsgSender */\n      swap1\n      pop\n        /* \"contracts/optimism/OptimismWrapper.sol\":450:659  function xDomainMessageSender () external view returns (address) {... */\n      swap1\n      jump\t// out\n        /* \"contracts/optimism/L2OptimismBridge.sol\":466:606  function relay (address from, address to, bytes calldata data) external {... */\n    tag_17:\n        /* \"contracts/optimism/L2OptimismBridge.sol\":544:601  _relay(L2_DELIVERER, L1_OPTIMISM_WRAPPER, from, to, data) */\n      tag_26\n        /* \"contracts/ZkEvmMagicNumbers.sol\":172:214  0x0000000000000000000000000000000000010000 */\n      0x010000\n        /* \"contracts/ZkEvmMagicNumbers.sol\":412:454  0x936A70C0b28532aa22240dce21F89a8399d6aC61 */\n      0x936a70c0b28532aa22240dce21f89a8399d6ac61\n        /* \"contracts/optimism/L2OptimismBridge.sol\":586:590  from */\n      dup7\n        /* \"contracts/optimism/L2OptimismBridge.sol\":592:594  to */\n      dup7\n        /* \"contracts/optimism/L2OptimismBridge.sol\":596:600  data */\n      dup7\n      dup7\n        /* \"contracts/optimism/L2OptimismBridge.sol\":544:550  _relay */\n      tag_27\n        /* \"contracts/optimism/L2OptimismBridge.sol\":544:601  _relay(L2_DELIVERER, L1_OPTIMISM_WRAPPER, from, to, data) */\n      jump\t// in\n    tag_26:\n        /* \"contracts/optimism/L2OptimismBridge.sol\":466:606  function relay (address from, address to, bytes calldata data) external {... */\n      pop\n      pop\n      pop\n      pop\n      jump\t// out\n        /* \"contracts/optimism/OptimismWrapper.sol\":663:1270  function _wrapMessage (... */\n    tag_20:\n        /* \"contracts/optimism/OptimismWrapper.sol\":823:834  uint256 fee */\n      0x00\n        /* \"contracts/optimism/OptimismWrapper.sol\":844:860  uint256 deadline */\n      dup1\n        /* \"contracts/optimism/OptimismWrapper.sol\":881:887  1 days */\n      0x015180\n        /* \"contracts/optimism/OptimismWrapper.sol\":863:878  block.timestamp */\n      timestamp\n        /* \"contracts/optimism/OptimismWrapper.sol\":863:887  block.timestamp + 1 days */\n      tag_29\n      swap2\n      swap1\n      tag_30\n      jump\t// in\n    tag_29:\n        /* \"contracts/optimism/OptimismWrapper.sol\":844:887  uint256 deadline = block.timestamp + 1 days */\n      swap1\n      pop\n        /* \"contracts/optimism/OptimismWrapper.sol\":893:906  uint256 nonce */\n      0x00\n        /* \"contracts/optimism/OptimismWrapper.sol\":967:978  timestamp() */\n      timestamp\n        /* \"contracts/optimism/OptimismWrapper.sol\":953:965  difficulty() */\n      difficulty\n        /* \"contracts/optimism/OptimismWrapper.sol\":949:979  add(difficulty(), timestamp()) */\n      add\n        /* \"contracts/optimism/OptimismWrapper.sol\":942:947  gas() */\n      gas\n        /* \"contracts/optimism/OptimismWrapper.sol\":938:980  add(gas(), add(difficulty(), timestamp())) */\n      add\n        /* \"contracts/optimism/OptimismWrapper.sol\":929:980  nonce := add(gas(), add(difficulty(), timestamp())) */\n      swap1\n      pop\n        /* \"contracts/optimism/OptimismWrapper.sol\":992:1009  bytes memory data */\n      0x00\n        /* \"contracts/optimism/OptimismWrapper.sol\":1068:1078  msg.sender */\n      caller\n        /* \"contracts/optimism/OptimismWrapper.sol\":1080:1087  _target */\n      dup9\n        /* \"contracts/optimism/OptimismWrapper.sol\":1089:1097  _message */\n      dup9\n      dup9\n        /* \"contracts/optimism/OptimismWrapper.sol\":1012:1098  abi.encodeWithSignature('relay(address,address,bytes)', msg.sender, _target, _message) */\n      add(0x24, mload(0x40))\n      tag_31\n      swap5\n      swap4\n      swap3\n      swap2\n      swap1\n      tag_32\n      jump\t// in\n    tag_31:\n      mload(0x40)\n      0x20\n      dup2\n      dup4\n      sub\n      sub\n      dup2\n      mstore\n      swap1\n      0x40\n      mstore\n      and(not(0xffffffffffffffffffffffffffffffffffffffffffffffffffffffff), 0xb29e0acf00000000000000000000000000000000000000000000000000000000)\n      0x20\n      dup3\n      add\n      dup1\n      mload\n      0xffffffffffffffffffffffffffffffffffffffffffffffffffffffff\n      dup4\n      dup2\n      dup4\n      and\n      or\n      dup4\n      mstore\n      pop\n      pop\n      pop\n      pop\n        /* \"contracts/optimism/OptimismWrapper.sol\":992:1098  bytes memory data = abi.encodeWithSignature('relay(address,address,bytes)', msg.sender, _target, _message) */\n      swap1\n      pop\n        /* \"contracts/optimism/OptimismWrapper.sol\":1128:1138  fromBridge */\n      dup10\n        /* \"contracts/optimism/OptimismWrapper.sol\":1104:1155  IZkEvmMessageDispatcher(fromBridge).dispatchMessage */\n      0xffffffffffffffffffffffffffffffffffffffff\n      and\n      0x5d4d3bcd\n        /* \"contracts/optimism/OptimismWrapper.sol\":1156:1164  toBridge */\n      dup11\n        /* \"contracts/optimism/OptimismWrapper.sol\":1166:1169  fee */\n      dup7\n        /* \"contracts/optimism/OptimismWrapper.sol\":1171:1179  deadline */\n      dup7\n        /* \"contracts/optimism/OptimismWrapper.sol\":1181:1186  nonce */\n      dup7\n        /* \"contracts/optimism/OptimismWrapper.sol\":1188:1192  data */\n      dup7\n        /* \"contracts/optimism/OptimismWrapper.sol\":1104:1193  IZkEvmMessageDispatcher(fromBridge).dispatchMessage(toBridge, fee, deadline, nonce, data) */\n      mload(0x40)\n      dup7\n      0xffffffff\n      and\n      0xe0\n      shl\n      dup2\n      mstore\n      0x04\n      add\n      tag_33\n      swap6\n      swap5\n      swap4\n      swap3\n      swap2\n      swap1\n      tag_34\n      jump\t// in\n    tag_33:\n      0x20\n      mload(0x40)\n      dup1\n      dup4\n      sub\n      dup2\n      0x00\n      dup8\n      gas\n      call\n      iszero\n      dup1\n      iszero\n      tag_36\n      jumpi\n      returndatasize\n      0x00\n      dup1\n      returndatacopy\n      revert(0x00, returndatasize)\n    tag_36:\n      pop\n      pop\n      pop\n      pop\n      mload(0x40)\n      returndatasize\n      not(0x1f)\n      0x1f\n      dup3\n      add\n      and\n      dup3\n      add\n      dup1\n      0x40\n      mstore\n      pop\n      dup2\n      add\n      swap1\n      tag_37\n      swap2\n      swap1\n      tag_38\n      jump\t// in\n    tag_37:\n      pop\n        /* \"contracts/optimism/OptimismWrapper.sol\":1217:1224  _target */\n      dup8\n        /* \"contracts/optimism/OptimismWrapper.sol\":1205:1265  SentMessage(_target, msg.sender, _message, nonce, _gasLimit) */\n      0xffffffffffffffffffffffffffffffffffffffff\n      and\n      0xcb0f7ffd78f9aee47a248fae8db181db6eee833039123e026dcbff529522e52a\n        /* \"contracts/optimism/OptimismWrapper.sol\":1226:1236  msg.sender */\n      caller\n        /* \"contracts/optimism/OptimismWrapper.sol\":1238:1246  _message */\n      dup10\n      dup10\n        /* \"contracts/optimism/OptimismWrapper.sol\":1248:1253  nonce */\n      dup7\n        /* \"contracts/optimism/OptimismWrapper.sol\":1255:1264  _gasLimit */\n      dup11\n        /* \"contracts/optimism/OptimismWrapper.sol\":1205:1265  SentMessage(_target, msg.sender, _message, nonce, _gasLimit) */\n      mload(0x40)\n      tag_39\n      swap6\n      swap5\n      swap4\n      swap3\n      swap2\n      swap1\n      tag_40\n      jump\t// in\n    tag_39:\n      mload(0x40)\n      dup1\n      swap2\n      sub\n      swap1\n      log2\n        /* \"contracts/optimism/OptimismWrapper.sol\":817:1270  {... */\n      pop\n      pop\n      pop\n      pop\n        /* \"contracts/optimism/OptimismWrapper.sol\":663:1270  function _wrapMessage (... */\n      pop\n      pop\n      pop\n      pop\n      pop\n      pop\n      jump\t// out\n        /* \"contracts/optimism/OptimismWrapper.sol\":1274:1633  function _relay (address bridge, address fromWrapper, address from, address to, bytes calldata data) internal {... */\n    tag_27:\n        /* \"contracts/optimism/OptimismWrapper.sol\":1412:1418  bridge */\n      dup6\n        /* \"contracts/optimism/OptimismWrapper.sol\":1398:1418  msg.sender == bridge */\n      0xffffffffffffffffffffffffffffffffffffffff\n      and\n        /* \"contracts/optimism/OptimismWrapper.sol\":1398:1408  msg.sender */\n      caller\n        /* \"contracts/optimism/OptimismWrapper.sol\":1398:1418  msg.sender == bridge */\n      0xffffffffffffffffffffffffffffffffffffffff\n      and\n      eq\n        /* \"contracts/optimism/OptimismWrapper.sol\":1390:1429  require(msg.sender == bridge, 'sender') */\n      tag_42\n      jumpi\n      mload(0x40)\n      0x08c379a000000000000000000000000000000000000000000000000000000000\n      dup2\n      mstore\n      0x04\n      add\n      tag_43\n      swap1\n      tag_44\n      jump\t// in\n    tag_43:\n      mload(0x40)\n      dup1\n      swap2\n      sub\n      swap1\n      revert\n    tag_42:\n        /* \"contracts/optimism/OptimismWrapper.sol\":1502:1513  fromWrapper */\n      dup5\n        /* \"contracts/optimism/OptimismWrapper.sol\":1443:1513  IZkEvmMessageDelivererWithProof(bridge).messageOrigin() == fromWrapper */\n      0xffffffffffffffffffffffffffffffffffffffff\n      and\n        /* \"contracts/optimism/OptimismWrapper.sol\":1475:1481  bridge */\n      dup7\n        /* \"contracts/optimism/OptimismWrapper.sol\":1443:1496  IZkEvmMessageDelivererWithProof(bridge).messageOrigin */\n      0xffffffffffffffffffffffffffffffffffffffff\n      and\n      0x3b1623fe\n        /* \"contracts/optimism/OptimismWrapper.sol\":1443:1498  IZkEvmMessageDelivererWithProof(bridge).messageOrigin() */\n      mload(0x40)\n      dup2\n      0xffffffff\n      and\n      0xe0\n      shl\n      dup2\n      mstore\n      0x04\n      add\n      0x20\n      mload(0x40)\n      dup1\n      dup4\n      sub\n      dup2\n      dup7\n      gas\n      staticcall\n      iszero\n      dup1\n      iszero\n      tag_46\n      jumpi\n      returndatasize\n      0x00\n      dup1\n      returndatacopy\n      revert(0x00, returndatasize)\n    tag_46:\n      pop\n      pop\n      pop\n      pop\n      mload(0x40)\n      returndatasize\n      not(0x1f)\n      0x1f\n      dup3\n      add\n      and\n      dup3\n      add\n      dup1\n      0x40\n      mstore\n      pop\n      dup2\n      add\n      swap1\n      tag_47\n      swap2\n      swap1\n      tag_48\n      jump\t// in\n    tag_47:\n        /* \"contracts/optimism/OptimismWrapper.sol\":1443:1513  IZkEvmMessageDelivererWithProof(bridge).messageOrigin() == fromWrapper */\n      0xffffffffffffffffffffffffffffffffffffffff\n      and\n      eq\n        /* \"contracts/optimism/OptimismWrapper.sol\":1435:1532  require(IZkEvmMessageDelivererWithProof(bridge).messageOrigin() == fromWrapper, 'message origin') */\n      tag_49\n      jumpi\n      mload(0x40)\n      0x08c379a000000000000000000000000000000000000000000000000000000000\n      dup2\n      mstore\n      0x04\n      add\n      tag_50\n      swap1\n      tag_51\n      jump\t// in\n    tag_50:\n      mload(0x40)\n      dup1\n      swap2\n      sub\n      swap1\n      revert\n    tag_49:\n        /* \"contracts/optimism/OptimismWrapper.sol\":1558:1562  from */\n      dup4\n        /* \"contracts/optimism/OptimismWrapper.sol\":1539:1555  xDomainMsgSender */\n      0x00\n      dup1\n        /* \"contracts/optimism/OptimismWrapper.sol\":1539:1562  xDomainMsgSender = from */\n      0x0100\n      exp\n      dup2\n      sload\n      dup2\n      0xffffffffffffffffffffffffffffffffffffffff\n      mul\n      not\n      and\n      swap1\n      dup4\n      0xffffffffffffffffffffffffffffffffffffffff\n      and\n      mul\n      or\n      swap1\n      sstore\n      pop\n        /* \"contracts/optimism/OptimismWrapper.sol\":1568:1593  _callAccount(to, 0, data) */\n      tag_52\n        /* \"contracts/optimism/OptimismWrapper.sol\":1581:1583  to */\n      dup4\n        /* \"contracts/optimism/OptimismWrapper.sol\":1585:1586  0 */\n      0x00\n        /* \"contracts/optimism/OptimismWrapper.sol\":1588:1592  data */\n      dup5\n      dup5\n        /* \"contracts/optimism/OptimismWrapper.sol\":1568:1580  _callAccount */\n      tag_53\n        /* \"contracts/optimism/OptimismWrapper.sol\":1568:1593  _callAccount(to, 0, data) */\n      jump\t// in\n    tag_52:\n        /* \"contracts/optimism/OptimismWrapper.sol\":1626:1627  0 */\n      0x00\n        /* \"contracts/optimism/OptimismWrapper.sol\":1599:1615  xDomainMsgSender */\n      dup1\n      0x00\n        /* \"contracts/optimism/OptimismWrapper.sol\":1599:1628  xDomainMsgSender = address(0) */\n      0x0100\n      exp\n      dup2\n      sload\n      dup2\n      0xffffffffffffffffffffffffffffffffffffffff\n      mul\n      not\n      and\n      swap1\n      dup4\n      0xffffffffffffffffffffffffffffffffffffffff\n      and\n      mul\n      or\n      swap1\n      sstore\n      pop\n        /* \"contracts/optimism/OptimismWrapper.sol\":1274:1633  function _relay (address bridge, address fromWrapper, address from, address to, bytes calldata data) internal {... */\n      pop\n      pop\n      pop\n      pop\n      pop\n      pop\n      jump\t// out\n        /* \"contracts/ZkEvmUtils.sol\":379:713  function _callAccount (address to, uint256 value, bytes calldata data) internal {... */\n    tag_53:\n        /* \"contracts/ZkEvmUtils.sol\":493:496  128 */\n      0x80\n        /* \"contracts/ZkEvmUtils.sol\":534:545  data.length */\n      dup2\n        /* \"contracts/ZkEvmUtils.sol\":521:532  data.offset */\n      dup4\n        /* \"contracts/ZkEvmUtils.sol\":516:519  ptr */\n      dup3\n        /* \"contracts/ZkEvmUtils.sol\":503:546  calldatacopy(ptr, data.offset, data.length) */\n      calldatacopy\n        /* \"contracts/ZkEvmUtils.sol\":607:608  0 */\n      0x00\n        /* \"contracts/ZkEvmUtils.sol\":604:605  0 */\n      dup1\n        /* \"contracts/ZkEvmUtils.sol\":591:602  data.length */\n      dup4\n        /* \"contracts/ZkEvmUtils.sol\":586:589  ptr */\n      dup4\n        /* \"contracts/ZkEvmUtils.sol\":579:584  value */\n      dup8\n        /* \"contracts/ZkEvmUtils.sol\":575:577  to */\n      dup10\n        /* \"contracts/ZkEvmUtils.sol\":568:573  gas() */\n      gas\n        /* \"contracts/ZkEvmUtils.sol\":563:609  call(gas(), to, value, ptr, data.length, 0, 0) */\n      call\n        /* \"contracts/ZkEvmUtils.sol\":553:703  if iszero(call(gas(), to, value, ptr, data.length, 0, 0)) {... */\n      tag_55\n      jumpi\n        /* \"contracts/ZkEvmUtils.sol\":642:658  returndatasize() */\n      returndatasize\n        /* \"contracts/ZkEvmUtils.sol\":639:640  0 */\n      0x00\n        /* \"contracts/ZkEvmUtils.sol\":636:637  0 */\n      dup1\n        /* \"contracts/ZkEvmUtils.sol\":621:659  returndatacopy(0, 0, returndatasize()) */\n      returndatacopy\n        /* \"contracts/ZkEvmUtils.sol\":678:694  returndatasize() */\n      returndatasize\n        /* \"contracts/ZkEvmUtils.sol\":675:676  0 */\n      0x00\n        /* \"contracts/ZkEvmUtils.sol\":668:695  revert(0, returndatasize()) */\n      revert\n        /* \"contracts/ZkEvmUtils.sol\":553:703  if iszero(call(gas(), to, value, ptr, data.length, 0, 0)) {... */\n    tag_55:\n        /* \"contracts/ZkEvmUtils.sol\":474:709  {... */\n      pop\n        /* \"contracts/ZkEvmUtils.sol\":379:713  function _callAccount (address to, uint256 value, bytes calldata data) internal {... */\n      pop\n      pop\n      pop\n      pop\n      jump\t// out\n        /* \"#utility.yul\":88:205   */\n    tag_57:\n        /* \"#utility.yul\":197:198   */\n      0x00\n        /* \"#utility.yul\":194:195   */\n      dup1\n        /* \"#utility.yul\":187:199   */\n      revert\n        /* \"#utility.yul\":211:328   */\n    tag_58:\n        /* \"#utility.yul\":320:321   */\n      0x00\n        /* \"#utility.yul\":317:318   */\n      dup1\n        /* \"#utility.yul\":310:322   */\n      revert\n        /* \"#utility.yul\":334:460   */\n    tag_59:\n        /* \"#utility.yul\":371:378   */\n      0x00\n        /* \"#utility.yul\":411:453   */\n      0xffffffffffffffffffffffffffffffffffffffff\n        /* \"#utility.yul\":404:409   */\n      dup3\n        /* \"#utility.yul\":400:454   */\n      and\n        /* \"#utility.yul\":389:454   */\n      swap1\n      pop\n        /* \"#utility.yul\":334:460   */\n      swap2\n      swap1\n      pop\n      jump\t// out\n        /* \"#utility.yul\":466:562   */\n    tag_60:\n        /* \"#utility.yul\":503:510   */\n      0x00\n        /* \"#utility.yul\":532:556   */\n      tag_101\n        /* \"#utility.yul\":550:555   */\n      dup3\n        /* \"#utility.yul\":532:556   */\n      tag_59\n      jump\t// in\n    tag_101:\n        /* \"#utility.yul\":521:556   */\n      swap1\n      pop\n        /* \"#utility.yul\":466:562   */\n      swap2\n      swap1\n      pop\n      jump\t// out\n        /* \"#utility.yul\":568:690   */\n    tag_61:\n        /* \"#utility.yul\":641:665   */\n      tag_103\n        /* \"#utility.yul\":659:664   */\n      dup2\n        /* \"#utility.yul\":641:665   */\n      tag_60\n      jump\t// in\n    tag_103:\n        /* \"#utility.yul\":634:639   */\n      dup2\n        /* \"#utility.yul\":631:666   */\n      eq\n        /* \"#utility.yul\":621:684   */\n      tag_104\n      jumpi\n        /* \"#utility.yul\":680:681   */\n      0x00\n        /* \"#utility.yul\":677:678   */\n      dup1\n        /* \"#utility.yul\":670:682   */\n      revert\n        /* \"#utility.yul\":621:684   */\n    tag_104:\n        /* \"#utility.yul\":568:690   */\n      pop\n      jump\t// out\n        /* \"#utility.yul\":696:835   */\n    tag_62:\n        /* \"#utility.yul\":742:747   */\n      0x00\n        /* \"#utility.yul\":780:786   */\n      dup2\n        /* \"#utility.yul\":767:787   */\n      calldataload\n        /* \"#utility.yul\":758:787   */\n      swap1\n      pop\n        /* \"#utility.yul\":796:829   */\n      tag_106\n        /* \"#utility.yul\":823:828   */\n      dup2\n        /* \"#utility.yul\":796:829   */\n      tag_61\n      jump\t// in\n    tag_106:\n        /* \"#utility.yul\":696:835   */\n      swap3\n      swap2\n      pop\n      pop\n      jump\t// out\n        /* \"#utility.yul\":841:958   */\n    tag_63:\n        /* \"#utility.yul\":950:951   */\n      0x00\n        /* \"#utility.yul\":947:948   */\n      dup1\n        /* \"#utility.yul\":940:952   */\n      revert\n        /* \"#utility.yul\":964:1081   */\n    tag_64:\n        /* \"#utility.yul\":1073:1074   */\n      0x00\n        /* \"#utility.yul\":1070:1071   */\n      dup1\n        /* \"#utility.yul\":1063:1075   */\n      revert\n        /* \"#utility.yul\":1087:1204   */\n    tag_65:\n        /* \"#utility.yul\":1196:1197   */\n      0x00\n        /* \"#utility.yul\":1193:1194   */\n      dup1\n        /* \"#utility.yul\":1186:1198   */\n      revert\n        /* \"#utility.yul\":1223:1775   */\n    tag_66:\n        /* \"#utility.yul\":1280:1288   */\n      0x00\n        /* \"#utility.yul\":1290:1296   */\n      dup1\n        /* \"#utility.yul\":1340:1343   */\n      dup4\n        /* \"#utility.yul\":1333:1337   */\n      0x1f\n        /* \"#utility.yul\":1325:1331   */\n      dup5\n        /* \"#utility.yul\":1321:1338   */\n      add\n        /* \"#utility.yul\":1317:1344   */\n      slt\n        /* \"#utility.yul\":1307:1429   */\n      tag_111\n      jumpi\n        /* \"#utility.yul\":1348:1427   */\n      tag_112\n      tag_63\n      jump\t// in\n    tag_112:\n        /* \"#utility.yul\":1307:1429   */\n    tag_111:\n        /* \"#utility.yul\":1461:1467   */\n      dup3\n        /* \"#utility.yul\":1448:1468   */\n      calldataload\n        /* \"#utility.yul\":1438:1468   */\n      swap1\n      pop\n        /* \"#utility.yul\":1491:1509   */\n      0xffffffffffffffff\n        /* \"#utility.yul\":1483:1489   */\n      dup2\n        /* \"#utility.yul\":1480:1510   */\n      gt\n        /* \"#utility.yul\":1477:1594   */\n      iszero\n      tag_113\n      jumpi\n        /* \"#utility.yul\":1513:1592   */\n      tag_114\n      tag_64\n      jump\t// in\n    tag_114:\n        /* \"#utility.yul\":1477:1594   */\n    tag_113:\n        /* \"#utility.yul\":1627:1631   */\n      0x20\n        /* \"#utility.yul\":1619:1625   */\n      dup4\n        /* \"#utility.yul\":1615:1632   */\n      add\n        /* \"#utility.yul\":1603:1632   */\n      swap2\n      pop\n        /* \"#utility.yul\":1681:1684   */\n      dup4\n        /* \"#utility.yul\":1673:1677   */\n      0x01\n        /* \"#utility.yul\":1665:1671   */\n      dup3\n        /* \"#utility.yul\":1661:1678   */\n      mul\n        /* \"#utility.yul\":1651:1659   */\n      dup4\n        /* \"#utility.yul\":1647:1679   */\n      add\n        /* \"#utility.yul\":1644:1685   */\n      gt\n        /* \"#utility.yul\":1641:1769   */\n      iszero\n      tag_115\n      jumpi\n        /* \"#utility.yul\":1688:1767   */\n      tag_116\n      tag_65\n      jump\t// in\n    tag_116:\n        /* \"#utility.yul\":1641:1769   */\n    tag_115:\n        /* \"#utility.yul\":1223:1775   */\n      swap3\n      pop\n      swap3\n      swap1\n      pop\n      jump\t// out\n        /* \"#utility.yul\":1781:1874   */\n    tag_67:\n        /* \"#utility.yul\":1817:1824   */\n      0x00\n        /* \"#utility.yul\":1857:1867   */\n      0xffffffff\n        /* \"#utility.yul\":1850:1855   */\n      dup3\n        /* \"#utility.yul\":1846:1868   */\n      and\n        /* \"#utility.yul\":1835:1868   */\n      swap1\n      pop\n        /* \"#utility.yul\":1781:1874   */\n      swap2\n      swap1\n      pop\n      jump\t// out\n        /* \"#utility.yul\":1880:2000   */\n    tag_68:\n        /* \"#utility.yul\":1952:1975   */\n      tag_119\n        /* \"#utility.yul\":1969:1974   */\n      dup2\n        /* \"#utility.yul\":1952:1975   */\n      tag_67\n      jump\t// in\n    tag_119:\n        /* \"#utility.yul\":1945:1950   */\n      dup2\n        /* \"#utility.yul\":1942:1976   */\n      eq\n        /* \"#utility.yul\":1932:1994   */\n      tag_120\n      jumpi\n        /* \"#utility.yul\":1990:1991   */\n      0x00\n        /* \"#utility.yul\":1987:1988   */\n      dup1\n        /* \"#utility.yul\":1980:1992   */\n      revert\n        /* \"#utility.yul\":1932:1994   */\n    tag_120:\n        /* \"#utility.yul\":1880:2000   */\n      pop\n      jump\t// out\n        /* \"#utility.yul\":2006:2143   */\n    tag_69:\n        /* \"#utility.yul\":2051:2056   */\n      0x00\n        /* \"#utility.yul\":2089:2095   */\n      dup2\n        /* \"#utility.yul\":2076:2096   */\n      calldataload\n        /* \"#utility.yul\":2067:2096   */\n      swap1\n      pop\n        /* \"#utility.yul\":2105:2137   */\n      tag_122\n        /* \"#utility.yul\":2131:2136   */\n      dup2\n        /* \"#utility.yul\":2105:2137   */\n      tag_68\n      jump\t// in\n    tag_122:\n        /* \"#utility.yul\":2006:2143   */\n      swap3\n      swap2\n      pop\n      pop\n      jump\t// out\n        /* \"#utility.yul\":2149:2964   */\n    tag_8:\n        /* \"#utility.yul\":2236:2242   */\n      0x00\n        /* \"#utility.yul\":2244:2250   */\n      dup1\n        /* \"#utility.yul\":2252:2258   */\n      0x00\n        /* \"#utility.yul\":2260:2266   */\n      dup1\n        /* \"#utility.yul\":2309:2311   */\n      0x60\n        /* \"#utility.yul\":2297:2306   */\n      dup6\n        /* \"#utility.yul\":2288:2295   */\n      dup8\n        /* \"#utility.yul\":2284:2307   */\n      sub\n        /* \"#utility.yul\":2280:2312   */\n      slt\n        /* \"#utility.yul\":2277:2396   */\n      iszero\n      tag_124\n      jumpi\n        /* \"#utility.yul\":2315:2394   */\n      tag_125\n      tag_57\n      jump\t// in\n    tag_125:\n        /* \"#utility.yul\":2277:2396   */\n    tag_124:\n        /* \"#utility.yul\":2435:2436   */\n      0x00\n        /* \"#utility.yul\":2460:2513   */\n      tag_126\n        /* \"#utility.yul\":2505:2512   */\n      dup8\n        /* \"#utility.yul\":2496:2502   */\n      dup3\n        /* \"#utility.yul\":2485:2494   */\n      dup9\n        /* \"#utility.yul\":2481:2503   */\n      add\n        /* \"#utility.yul\":2460:2513   */\n      tag_62\n      jump\t// in\n    tag_126:\n        /* \"#utility.yul\":2450:2513   */\n      swap5\n      pop\n        /* \"#utility.yul\":2406:2523   */\n      pop\n        /* \"#utility.yul\":2590:2592   */\n      0x20\n        /* \"#utility.yul\":2579:2588   */\n      dup6\n        /* \"#utility.yul\":2575:2593   */\n      add\n        /* \"#utility.yul\":2562:2594   */\n      calldataload\n        /* \"#utility.yul\":2621:2639   */\n      0xffffffffffffffff\n        /* \"#utility.yul\":2613:2619   */\n      dup2\n        /* \"#utility.yul\":2610:2640   */\n      gt\n        /* \"#utility.yul\":2607:2724   */\n      iszero\n      tag_127\n      jumpi\n        /* \"#utility.yul\":2643:2722   */\n      tag_128\n      tag_58\n      jump\t// in\n    tag_128:\n        /* \"#utility.yul\":2607:2724   */\n    tag_127:\n        /* \"#utility.yul\":2756:2820   */\n      tag_129\n        /* \"#utility.yul\":2812:2819   */\n      dup8\n        /* \"#utility.yul\":2803:2809   */\n      dup3\n        /* \"#utility.yul\":2792:2801   */\n      dup9\n        /* \"#utility.yul\":2788:2810   */\n      add\n        /* \"#utility.yul\":2756:2820   */\n      tag_66\n      jump\t// in\n    tag_129:\n        /* \"#utility.yul\":2738:2820   */\n      swap4\n      pop\n      swap4\n      pop\n        /* \"#utility.yul\":2533:2830   */\n      pop\n        /* \"#utility.yul\":2869:2871   */\n      0x40\n        /* \"#utility.yul\":2895:2947   */\n      tag_130\n        /* \"#utility.yul\":2939:2946   */\n      dup8\n        /* \"#utility.yul\":2930:2936   */\n      dup3\n        /* \"#utility.yul\":2919:2928   */\n      dup9\n        /* \"#utility.yul\":2915:2937   */\n      add\n        /* \"#utility.yul\":2895:2947   */\n      tag_69\n      jump\t// in\n    tag_130:\n        /* \"#utility.yul\":2885:2947   */\n      swap2\n      pop\n        /* \"#utility.yul\":2840:2957   */\n      pop\n        /* \"#utility.yul\":2149:2964   */\n      swap3\n      swap6\n      swap2\n      swap5\n      pop\n      swap3\n      pop\n      jump\t// out\n        /* \"#utility.yul\":2970:3088   */\n    tag_70:\n        /* \"#utility.yul\":3057:3081   */\n      tag_132\n        /* \"#utility.yul\":3075:3080   */\n      dup2\n        /* \"#utility.yul\":3057:3081   */\n      tag_60\n      jump\t// in\n    tag_132:\n        /* \"#utility.yul\":3052:3055   */\n      dup3\n        /* \"#utility.yul\":3045:3082   */\n      mstore\n        /* \"#utility.yul\":2970:3088   */\n      pop\n      pop\n      jump\t// out\n        /* \"#utility.yul\":3094:3316   */\n    tag_13:\n        /* \"#utility.yul\":3187:3191   */\n      0x00\n        /* \"#utility.yul\":3225:3227   */\n      0x20\n        /* \"#utility.yul\":3214:3223   */\n      dup3\n        /* \"#utility.yul\":3210:3228   */\n      add\n        /* \"#utility.yul\":3202:3228   */\n      swap1\n      pop\n        /* \"#utility.yul\":3238:3309   */\n      tag_134\n        /* \"#utility.yul\":3306:3307   */\n      0x00\n        /* \"#utility.yul\":3295:3304   */\n      dup4\n        /* \"#utility.yul\":3291:3308   */\n      add\n        /* \"#utility.yul\":3282:3288   */\n      dup5\n        /* \"#utility.yul\":3238:3309   */\n      tag_70\n      jump\t// in\n    tag_134:\n        /* \"#utility.yul\":3094:3316   */\n      swap3\n      swap2\n      pop\n      pop\n      jump\t// out\n        /* \"#utility.yul\":3322:4139   */\n    tag_16:\n        /* \"#utility.yul\":3410:3416   */\n      0x00\n        /* \"#utility.yul\":3418:3424   */\n      dup1\n        /* \"#utility.yul\":3426:3432   */\n      0x00\n        /* \"#utility.yul\":3434:3440   */\n      dup1\n        /* \"#utility.yul\":3483:3485   */\n      0x60\n        /* \"#utility.yul\":3471:3480   */\n      dup6\n        /* \"#utility.yul\":3462:3469   */\n      dup8\n        /* \"#utility.yul\":3458:3481   */\n      sub\n        /* \"#utility.yul\":3454:3486   */\n      slt\n        /* \"#utility.yul\":3451:3570   */\n      iszero\n      tag_136\n      jumpi\n        /* \"#utility.yul\":3489:3568   */\n      tag_137\n      tag_57\n      jump\t// in\n    tag_137:\n        /* \"#utility.yul\":3451:3570   */\n    tag_136:\n        /* \"#utility.yul\":3609:3610   */\n      0x00\n        /* \"#utility.yul\":3634:3687   */\n      tag_138\n        /* \"#utility.yul\":3679:3686   */\n      dup8\n        /* \"#utility.yul\":3670:3676   */\n      dup3\n        /* \"#utility.yul\":3659:3668   */\n      dup9\n        /* \"#utility.yul\":3655:3677   */\n      add\n        /* \"#utility.yul\":3634:3687   */\n      tag_62\n      jump\t// in\n    tag_138:\n        /* \"#utility.yul\":3624:3687   */\n      swap5\n      pop\n        /* \"#utility.yul\":3580:3697   */\n      pop\n        /* \"#utility.yul\":3736:3738   */\n      0x20\n        /* \"#utility.yul\":3762:3815   */\n      tag_139\n        /* \"#utility.yul\":3807:3814   */\n      dup8\n        /* \"#utility.yul\":3798:3804   */\n      dup3\n        /* \"#utility.yul\":3787:3796   */\n      dup9\n        /* \"#utility.yul\":3783:3805   */\n      add\n        /* \"#utility.yul\":3762:3815   */\n      tag_62\n      jump\t// in\n    tag_139:\n        /* \"#utility.yul\":3752:3815   */\n      swap4\n      pop\n        /* \"#utility.yul\":3707:3825   */\n      pop\n        /* \"#utility.yul\":3892:3894   */\n      0x40\n        /* \"#utility.yul\":3881:3890   */\n      dup6\n        /* \"#utility.yul\":3877:3895   */\n      add\n        /* \"#utility.yul\":3864:3896   */\n      calldataload\n        /* \"#utility.yul\":3923:3941   */\n      0xffffffffffffffff\n        /* \"#utility.yul\":3915:3921   */\n      dup2\n        /* \"#utility.yul\":3912:3942   */\n      gt\n        /* \"#utility.yul\":3909:4026   */\n      iszero\n      tag_140\n      jumpi\n        /* \"#utility.yul\":3945:4024   */\n      tag_141\n      tag_58\n      jump\t// in\n    tag_141:\n        /* \"#utility.yul\":3909:4026   */\n    tag_140:\n        /* \"#utility.yul\":4058:4122   */\n      tag_142\n        /* \"#utility.yul\":4114:4121   */\n      dup8\n        /* \"#utility.yul\":4105:4111   */\n      dup3\n        /* \"#utility.yul\":4094:4103   */\n      dup9\n        /* \"#utility.yul\":4090:4112   */\n      add\n        /* \"#utility.yul\":4058:4122   */\n      tag_66\n      jump\t// in\n    tag_142:\n        /* \"#utility.yul\":4040:4122   */\n      swap3\n      pop\n      swap3\n      pop\n        /* \"#utility.yul\":3835:4132   */\n      pop\n        /* \"#utility.yul\":3322:4139   */\n      swap3\n      swap6\n      swap2\n      swap5\n      pop\n      swap3\n      pop\n      jump\t// out\n        /* \"#utility.yul\":4145:4314   */\n    tag_71:\n        /* \"#utility.yul\":4229:4240   */\n      0x00\n        /* \"#utility.yul\":4263:4269   */\n      dup3\n        /* \"#utility.yul\":4258:4261   */\n      dup3\n        /* \"#utility.yul\":4251:4270   */\n      mstore\n        /* \"#utility.yul\":4303:4307   */\n      0x20\n        /* \"#utility.yul\":4298:4301   */\n      dup3\n        /* \"#utility.yul\":4294:4308   */\n      add\n        /* \"#utility.yul\":4279:4308   */\n      swap1\n      pop\n        /* \"#utility.yul\":4145:4314   */\n      swap3\n      swap2\n      pop\n      pop\n      jump\t// out\n        /* \"#utility.yul\":4320:4501   */\n    tag_72:\n        /* \"#utility.yul\":4460:4493   */\n      0x78446f6d61696e4d65737361676553656e646572206973206e6f742073657400\n        /* \"#utility.yul\":4456:4457   */\n      0x00\n        /* \"#utility.yul\":4448:4454   */\n      dup3\n        /* \"#utility.yul\":4444:4458   */\n      add\n        /* \"#utility.yul\":4437:4494   */\n      mstore\n        /* \"#utility.yul\":4320:4501   */\n      pop\n      jump\t// out\n        /* \"#utility.yul\":4507:4873   */\n    tag_73:\n        /* \"#utility.yul\":4649:4652   */\n      0x00\n        /* \"#utility.yul\":4670:4737   */\n      tag_146\n        /* \"#utility.yul\":4734:4736   */\n      0x1f\n        /* \"#utility.yul\":4729:4732   */\n      dup4\n        /* \"#utility.yul\":4670:4737   */\n      tag_71\n      jump\t// in\n    tag_146:\n        /* \"#utility.yul\":4663:4737   */\n      swap2\n      pop\n        /* \"#utility.yul\":4746:4839   */\n      tag_147\n        /* \"#utility.yul\":4835:4838   */\n      dup3\n        /* \"#utility.yul\":4746:4839   */\n      tag_72\n      jump\t// in\n    tag_147:\n        /* \"#utility.yul\":4864:4866   */\n      0x20\n        /* \"#utility.yul\":4859:4862   */\n      dup3\n        /* \"#utility.yul\":4855:4867   */\n      add\n        /* \"#utility.yul\":4848:4867   */\n      swap1\n      pop\n        /* \"#utility.yul\":4507:4873   */\n      swap2\n      swap1\n      pop\n      jump\t// out\n        /* \"#utility.yul\":4879:5298   */\n    tag_24:\n        /* \"#utility.yul\":5045:5049   */\n      0x00\n        /* \"#utility.yul\":5083:5085   */\n      0x20\n        /* \"#utility.yul\":5072:5081   */\n      dup3\n        /* \"#utility.yul\":5068:5086   */\n      add\n        /* \"#utility.yul\":5060:5086   */\n      swap1\n      pop\n        /* \"#utility.yul\":5132:5141   */\n      dup2\n        /* \"#utility.yul\":5126:5130   */\n      dup2\n        /* \"#utility.yul\":5122:5142   */\n      sub\n        /* \"#utility.yul\":5118:5119   */\n      0x00\n        /* \"#utility.yul\":5107:5116   */\n      dup4\n        /* \"#utility.yul\":5103:5120   */\n      add\n        /* \"#utility.yul\":5096:5143   */\n      mstore\n        /* \"#utility.yul\":5160:5291   */\n      tag_149\n        /* \"#utility.yul\":5286:5290   */\n      dup2\n        /* \"#utility.yul\":5160:5291   */\n      tag_73\n      jump\t// in\n    tag_149:\n        /* \"#utility.yul\":5152:5291   */\n      swap1\n      pop\n        /* \"#utility.yul\":4879:5298   */\n      swap2\n      swap1\n      pop\n      jump\t// out\n        /* \"#utility.yul\":5304:5381   */\n    tag_74:\n        /* \"#utility.yul\":5341:5348   */\n      0x00\n        /* \"#utility.yul\":5370:5375   */\n      dup2\n        /* \"#utility.yul\":5359:5375   */\n      swap1\n      pop\n        /* \"#utility.yul\":5304:5381   */\n      swap2\n      swap1\n      pop\n      jump\t// out\n        /* \"#utility.yul\":5387:5567   */\n    tag_75:\n        /* \"#utility.yul\":5435:5512   */\n      0x4e487b7100000000000000000000000000000000000000000000000000000000\n        /* \"#utility.yul\":5432:5433   */\n      0x00\n        /* \"#utility.yul\":5425:5513   */\n      mstore\n        /* \"#utility.yul\":5532:5536   */\n      0x11\n        /* \"#utility.yul\":5529:5530   */\n      0x04\n        /* \"#utility.yul\":5522:5537   */\n      mstore\n        /* \"#utility.yul\":5556:5560   */\n      0x24\n        /* \"#utility.yul\":5553:5554   */\n      0x00\n        /* \"#utility.yul\":5546:5561   */\n      revert\n        /* \"#utility.yul\":5573:5764   */\n    tag_30:\n        /* \"#utility.yul\":5613:5616   */\n      0x00\n        /* \"#utility.yul\":5632:5652   */\n      tag_153\n        /* \"#utility.yul\":5650:5651   */\n      dup3\n        /* \"#utility.yul\":5632:5652   */\n      tag_74\n      jump\t// in\n    tag_153:\n        /* \"#utility.yul\":5627:5652   */\n      swap2\n      pop\n        /* \"#utility.yul\":5666:5686   */\n      tag_154\n        /* \"#utility.yul\":5684:5685   */\n      dup4\n        /* \"#utility.yul\":5666:5686   */\n      tag_74\n      jump\t// in\n    tag_154:\n        /* \"#utility.yul\":5661:5686   */\n      swap3\n      pop\n        /* \"#utility.yul\":5709:5710   */\n      dup3\n        /* \"#utility.yul\":5706:5707   */\n      dup3\n        /* \"#utility.yul\":5702:5711   */\n      add\n        /* \"#utility.yul\":5695:5711   */\n      swap1\n      pop\n        /* \"#utility.yul\":5730:5733   */\n      dup1\n        /* \"#utility.yul\":5727:5728   */\n      dup3\n        /* \"#utility.yul\":5724:5734   */\n      gt\n        /* \"#utility.yul\":5721:5757   */\n      iszero\n      tag_155\n      jumpi\n        /* \"#utility.yul\":5737:5755   */\n      tag_156\n      tag_75\n      jump\t// in\n    tag_156:\n        /* \"#utility.yul\":5721:5757   */\n    tag_155:\n        /* \"#utility.yul\":5573:5764   */\n      swap3\n      swap2\n      pop\n      pop\n      jump\t// out\n        /* \"#utility.yul\":5770:5938   */\n    tag_76:\n        /* \"#utility.yul\":5853:5864   */\n      0x00\n        /* \"#utility.yul\":5887:5893   */\n      dup3\n        /* \"#utility.yul\":5882:5885   */\n      dup3\n        /* \"#utility.yul\":5875:5894   */\n      mstore\n        /* \"#utility.yul\":5927:5931   */\n      0x20\n        /* \"#utility.yul\":5922:5925   */\n      dup3\n        /* \"#utility.yul\":5918:5932   */\n      add\n        /* \"#utility.yul\":5903:5932   */\n      swap1\n      pop\n        /* \"#utility.yul\":5770:5938   */\n      swap3\n      swap2\n      pop\n      pop\n      jump\t// out\n        /* \"#utility.yul\":5944:6090   */\n    tag_77:\n        /* \"#utility.yul\":6041:6047   */\n      dup3\n        /* \"#utility.yul\":6036:6039   */\n      dup2\n        /* \"#utility.yul\":6031:6034   */\n      dup4\n        /* \"#utility.yul\":6018:6048   */\n      calldatacopy\n        /* \"#utility.yul\":6082:6083   */\n      0x00\n        /* \"#utility.yul\":6073:6079   */\n      dup4\n        /* \"#utility.yul\":6068:6071   */\n      dup4\n        /* \"#utility.yul\":6064:6080   */\n      add\n        /* \"#utility.yul\":6057:6084   */\n      mstore\n        /* \"#utility.yul\":5944:6090   */\n      pop\n      pop\n      pop\n      jump\t// out\n        /* \"#utility.yul\":6096:6198   */\n    tag_78:\n        /* \"#utility.yul\":6137:6143   */\n      0x00\n        /* \"#utility.yul\":6188:6190   */\n      0x1f\n        /* \"#utility.yul\":6184:6191   */\n      not\n        /* \"#utility.yul\":6179:6181   */\n      0x1f\n        /* \"#utility.yul\":6172:6177   */\n      dup4\n        /* \"#utility.yul\":6168:6182   */\n      add\n        /* \"#utility.yul\":6164:6192   */\n      and\n        /* \"#utility.yul\":6154:6192   */\n      swap1\n      pop\n        /* \"#utility.yul\":6096:6198   */\n      swap2\n      swap1\n      pop\n      jump\t// out\n        /* \"#utility.yul\":6226:6540   */\n    tag_79:\n        /* \"#utility.yul\":6322:6325   */\n      0x00\n        /* \"#utility.yul\":6343:6413   */\n      tag_161\n        /* \"#utility.yul\":6406:6412   */\n      dup4\n        /* \"#utility.yul\":6401:6404   */\n      dup6\n        /* \"#utility.yul\":6343:6413   */\n      tag_76\n      jump\t// in\n    tag_161:\n        /* \"#utility.yul\":6336:6413   */\n      swap4\n      pop\n        /* \"#utility.yul\":6423:6479   */\n      tag_162\n        /* \"#utility.yul\":6472:6478   */\n      dup4\n        /* \"#utility.yul\":6467:6470   */\n      dup6\n        /* \"#utility.yul\":6460:6465   */\n      dup5\n        /* \"#utility.yul\":6423:6479   */\n      tag_77\n      jump\t// in\n    tag_162:\n        /* \"#utility.yul\":6504:6533   */\n      tag_163\n        /* \"#utility.yul\":6526:6532   */\n      dup4\n        /* \"#utility.yul\":6504:6533   */\n      tag_78\n      jump\t// in\n    tag_163:\n        /* \"#utility.yul\":6499:6502   */\n      dup5\n        /* \"#utility.yul\":6495:6534   */\n      add\n        /* \"#utility.yul\":6488:6534   */\n      swap1\n      pop\n        /* \"#utility.yul\":6226:6540   */\n      swap4\n      swap3\n      pop\n      pop\n      pop\n      jump\t// out\n        /* \"#utility.yul\":6546:7095   */\n    tag_32:\n        /* \"#utility.yul\":6723:6727   */\n      0x00\n        /* \"#utility.yul\":6761:6763   */\n      0x60\n        /* \"#utility.yul\":6750:6759   */\n      dup3\n        /* \"#utility.yul\":6746:6764   */\n      add\n        /* \"#utility.yul\":6738:6764   */\n      swap1\n      pop\n        /* \"#utility.yul\":6774:6845   */\n      tag_165\n        /* \"#utility.yul\":6842:6843   */\n      0x00\n        /* \"#utility.yul\":6831:6840   */\n      dup4\n        /* \"#utility.yul\":6827:6844   */\n      add\n        /* \"#utility.yul\":6818:6824   */\n      dup8\n        /* \"#utility.yul\":6774:6845   */\n      tag_70\n      jump\t// in\n    tag_165:\n        /* \"#utility.yul\":6855:6927   */\n      tag_166\n        /* \"#utility.yul\":6923:6925   */\n      0x20\n        /* \"#utility.yul\":6912:6921   */\n      dup4\n        /* \"#utility.yul\":6908:6926   */\n      add\n        /* \"#utility.yul\":6899:6905   */\n      dup7\n        /* \"#utility.yul\":6855:6927   */\n      tag_70\n      jump\t// in\n    tag_166:\n        /* \"#utility.yul\":6974:6983   */\n      dup2\n        /* \"#utility.yul\":6968:6972   */\n      dup2\n        /* \"#utility.yul\":6964:6984   */\n      sub\n        /* \"#utility.yul\":6959:6961   */\n      0x40\n        /* \"#utility.yul\":6948:6957   */\n      dup4\n        /* \"#utility.yul\":6944:6962   */\n      add\n        /* \"#utility.yul\":6937:6985   */\n      mstore\n        /* \"#utility.yul\":7002:7088   */\n      tag_167\n        /* \"#utility.yul\":7083:7087   */\n      dup2\n        /* \"#utility.yul\":7074:7080   */\n      dup5\n        /* \"#utility.yul\":7066:7072   */\n      dup7\n        /* \"#utility.yul\":7002:7088   */\n      tag_79\n      jump\t// in\n    tag_167:\n        /* \"#utility.yul\":6994:7088   */\n      swap1\n      pop\n        /* \"#utility.yul\":6546:7095   */\n      swap6\n      swap5\n      pop\n      pop\n      pop\n      pop\n      pop\n      jump\t// out\n        /* \"#utility.yul\":7101:7219   */\n    tag_80:\n        /* \"#utility.yul\":7188:7212   */\n      tag_169\n        /* \"#utility.yul\":7206:7211   */\n      dup2\n        /* \"#utility.yul\":7188:7212   */\n      tag_74\n      jump\t// in\n    tag_169:\n        /* \"#utility.yul\":7183:7186   */\n      dup3\n        /* \"#utility.yul\":7176:7213   */\n      mstore\n        /* \"#utility.yul\":7101:7219   */\n      pop\n      pop\n      jump\t// out\n        /* \"#utility.yul\":7225:7323   */\n    tag_81:\n        /* \"#utility.yul\":7276:7282   */\n      0x00\n        /* \"#utility.yul\":7310:7315   */\n      dup2\n        /* \"#utility.yul\":7304:7316   */\n      mload\n        /* \"#utility.yul\":7294:7316   */\n      swap1\n      pop\n        /* \"#utility.yul\":7225:7323   */\n      swap2\n      swap1\n      pop\n      jump\t// out\n        /* \"#utility.yul\":7329:7575   */\n    tag_82:\n        /* \"#utility.yul\":7410:7411   */\n      0x00\n        /* \"#utility.yul\":7420:7533   */\n    tag_172:\n        /* \"#utility.yul\":7434:7440   */\n      dup4\n        /* \"#utility.yul\":7431:7432   */\n      dup2\n        /* \"#utility.yul\":7428:7441   */\n      lt\n        /* \"#utility.yul\":7420:7533   */\n      iszero\n      tag_174\n      jumpi\n        /* \"#utility.yul\":7519:7520   */\n      dup1\n        /* \"#utility.yul\":7514:7517   */\n      dup3\n        /* \"#utility.yul\":7510:7521   */\n      add\n        /* \"#utility.yul\":7504:7522   */\n      mload\n        /* \"#utility.yul\":7500:7501   */\n      dup2\n        /* \"#utility.yul\":7495:7498   */\n      dup5\n        /* \"#utility.yul\":7491:7502   */\n      add\n        /* \"#utility.yul\":7484:7523   */\n      mstore\n        /* \"#utility.yul\":7456:7458   */\n      0x20\n        /* \"#utility.yul\":7453:7454   */\n      dup2\n        /* \"#utility.yul\":7449:7459   */\n      add\n        /* \"#utility.yul\":7444:7459   */\n      swap1\n      pop\n        /* \"#utility.yul\":7420:7533   */\n      jump(tag_172)\n    tag_174:\n        /* \"#utility.yul\":7567:7568   */\n      0x00\n        /* \"#utility.yul\":7558:7564   */\n      dup5\n        /* \"#utility.yul\":7553:7556   */\n      dup5\n        /* \"#utility.yul\":7549:7565   */\n      add\n        /* \"#utility.yul\":7542:7569   */\n      mstore\n        /* \"#utility.yul\":7391:7575   */\n      pop\n        /* \"#utility.yul\":7329:7575   */\n      pop\n      pop\n      pop\n      jump\t// out\n        /* \"#utility.yul\":7581:7954   */\n    tag_83:\n        /* \"#utility.yul\":7667:7670   */\n      0x00\n        /* \"#utility.yul\":7695:7733   */\n      tag_176\n        /* \"#utility.yul\":7727:7732   */\n      dup3\n        /* \"#utility.yul\":7695:7733   */\n      tag_81\n      jump\t// in\n    tag_176:\n        /* \"#utility.yul\":7749:7819   */\n      tag_177\n        /* \"#utility.yul\":7812:7818   */\n      dup2\n        /* \"#utility.yul\":7807:7810   */\n      dup6\n        /* \"#utility.yul\":7749:7819   */\n      tag_76\n      jump\t// in\n    tag_177:\n        /* \"#utility.yul\":7742:7819   */\n      swap4\n      pop\n        /* \"#utility.yul\":7828:7893   */\n      tag_178\n        /* \"#utility.yul\":7886:7892   */\n      dup2\n        /* \"#utility.yul\":7881:7884   */\n      dup6\n        /* \"#utility.yul\":7874:7878   */\n      0x20\n        /* \"#utility.yul\":7867:7872   */\n      dup7\n        /* \"#utility.yul\":7863:7879   */\n      add\n        /* \"#utility.yul\":7828:7893   */\n      tag_82\n      jump\t// in\n    tag_178:\n        /* \"#utility.yul\":7918:7947   */\n      tag_179\n        /* \"#utility.yul\":7940:7946   */\n      dup2\n        /* \"#utility.yul\":7918:7947   */\n      tag_78\n      jump\t// in\n    tag_179:\n        /* \"#utility.yul\":7913:7916   */\n      dup5\n        /* \"#utility.yul\":7909:7948   */\n      add\n        /* \"#utility.yul\":7902:7948   */\n      swap2\n      pop\n        /* \"#utility.yul\":7671:7954   */\n      pop\n        /* \"#utility.yul\":7581:7954   */\n      swap3\n      swap2\n      pop\n      pop\n      jump\t// out\n        /* \"#utility.yul\":7960:8711   */\n    tag_34:\n        /* \"#utility.yul\":8183:8187   */\n      0x00\n        /* \"#utility.yul\":8221:8224   */\n      0xa0\n        /* \"#utility.yul\":8210:8219   */\n      dup3\n        /* \"#utility.yul\":8206:8225   */\n      add\n        /* \"#utility.yul\":8198:8225   */\n      swap1\n      pop\n        /* \"#utility.yul\":8235:8306   */\n      tag_181\n        /* \"#utility.yul\":8303:8304   */\n      0x00\n        /* \"#utility.yul\":8292:8301   */\n      dup4\n        /* \"#utility.yul\":8288:8305   */\n      add\n        /* \"#utility.yul\":8279:8285   */\n      dup9\n        /* \"#utility.yul\":8235:8306   */\n      tag_70\n      jump\t// in\n    tag_181:\n        /* \"#utility.yul\":8316:8388   */\n      tag_182\n        /* \"#utility.yul\":8384:8386   */\n      0x20\n        /* \"#utility.yul\":8373:8382   */\n      dup4\n        /* \"#utility.yul\":8369:8387   */\n      add\n        /* \"#utility.yul\":8360:8366   */\n      dup8\n        /* \"#utility.yul\":8316:8388   */\n      tag_80\n      jump\t// in\n    tag_182:\n        /* \"#utility.yul\":8398:8470   */\n      tag_183\n        /* \"#utility.yul\":8466:8468   */\n      0x40\n        /* \"#utility.yul\":8455:8464   */\n      dup4\n        /* \"#utility.yul\":8451:8469   */\n      add\n        /* \"#utility.yul\":8442:8448   */\n      dup7\n        /* \"#utility.yul\":8398:8470   */\n      tag_80\n      jump\t// in\n    tag_183:\n        /* \"#utility.yul\":8480:8552   */\n      tag_184\n        /* \"#utility.yul\":8548:8550   */\n      0x60\n        /* \"#utility.yul\":8537:8546   */\n      dup4\n        /* \"#utility.yul\":8533:8551   */\n      add\n        /* \"#utility.yul\":8524:8530   */\n      dup6\n        /* \"#utility.yul\":8480:8552   */\n      tag_80\n      jump\t// in\n    tag_184:\n        /* \"#utility.yul\":8600:8609   */\n      dup2\n        /* \"#utility.yul\":8594:8598   */\n      dup2\n        /* \"#utility.yul\":8590:8610   */\n      sub\n        /* \"#utility.yul\":8584:8587   */\n      0x80\n        /* \"#utility.yul\":8573:8582   */\n      dup4\n        /* \"#utility.yul\":8569:8588   */\n      add\n        /* \"#utility.yul\":8562:8611   */\n      mstore\n        /* \"#utility.yul\":8628:8704   */\n      tag_185\n        /* \"#utility.yul\":8699:8703   */\n      dup2\n        /* \"#utility.yul\":8690:8696   */\n      dup5\n        /* \"#utility.yul\":8628:8704   */\n      tag_83\n      jump\t// in\n    tag_185:\n        /* \"#utility.yul\":8620:8704   */\n      swap1\n      pop\n        /* \"#utility.yul\":7960:8711   */\n      swap7\n      swap6\n      pop\n      pop\n      pop\n      pop\n      pop\n      pop\n      jump\t// out\n        /* \"#utility.yul\":8717:8794   */\n    tag_84:\n        /* \"#utility.yul\":8754:8761   */\n      0x00\n        /* \"#utility.yul\":8783:8788   */\n      dup2\n        /* \"#utility.yul\":8772:8788   */\n      swap1\n      pop\n        /* \"#utility.yul\":8717:8794   */\n      swap2\n      swap1\n      pop\n      jump\t// out\n        /* \"#utility.yul\":8800:8922   */\n    tag_85:\n        /* \"#utility.yul\":8873:8897   */\n      tag_188\n        /* \"#utility.yul\":8891:8896   */\n      dup2\n        /* \"#utility.yul\":8873:8897   */\n      tag_84\n      jump\t// in\n    tag_188:\n        /* \"#utility.yul\":8866:8871   */\n      dup2\n        /* \"#utility.yul\":8863:8898   */\n      eq\n        /* \"#utility.yul\":8853:8916   */\n      tag_189\n      jumpi\n        /* \"#utility.yul\":8912:8913   */\n      0x00\n        /* \"#utility.yul\":8909:8910   */\n      dup1\n        /* \"#utility.yul\":8902:8914   */\n      revert\n        /* \"#utility.yul\":8853:8916   */\n    tag_189:\n        /* \"#utility.yul\":8800:8922   */\n      pop\n      jump\t// out\n        /* \"#utility.yul\":8928:9071   */\n    tag_86:\n        /* \"#utility.yul\":8985:8990   */\n      0x00\n        /* \"#utility.yul\":9016:9022   */\n      dup2\n        /* \"#utility.yul\":9010:9023   */\n      mload\n        /* \"#utility.yul\":9001:9023   */\n      swap1\n      pop\n        /* \"#utility.yul\":9032:9065   */\n      tag_191\n        /* \"#utility.yul\":9059:9064   */\n      dup2\n        /* \"#utility.yul\":9032:9065   */\n      tag_85\n      jump\t// in\n    tag_191:\n        /* \"#utility.yul\":8928:9071   */\n      swap3\n      swap2\n      pop\n      pop\n      jump\t// out\n        /* \"#utility.yul\":9077:9428   */\n    tag_38:\n        /* \"#utility.yul\":9147:9153   */\n      0x00\n        /* \"#utility.yul\":9196:9198   */\n      0x20\n        /* \"#utility.yul\":9184:9193   */\n      dup3\n        /* \"#utility.yul\":9175:9182   */\n      dup5\n        /* \"#utility.yul\":9171:9194   */\n      sub\n        /* \"#utility.yul\":9167:9199   */\n      slt\n        /* \"#utility.yul\":9164:9283   */\n      iszero\n      tag_193\n      jumpi\n        /* \"#utility.yul\":9202:9281   */\n      tag_194\n      tag_57\n      jump\t// in\n    tag_194:\n        /* \"#utility.yul\":9164:9283   */\n    tag_193:\n        /* \"#utility.yul\":9322:9323   */\n      0x00\n        /* \"#utility.yul\":9347:9411   */\n      tag_195\n        /* \"#utility.yul\":9403:9410   */\n      dup5\n        /* \"#utility.yul\":9394:9400   */\n      dup3\n        /* \"#utility.yul\":9383:9392   */\n      dup6\n        /* \"#utility.yul\":9379:9401   */\n      add\n        /* \"#utility.yul\":9347:9411   */\n      tag_86\n      jump\t// in\n    tag_195:\n        /* \"#utility.yul\":9337:9411   */\n      swap2\n      pop\n        /* \"#utility.yul\":9293:9421   */\n      pop\n        /* \"#utility.yul\":9077:9428   */\n      swap3\n      swap2\n      pop\n      pop\n      jump\t// out\n        /* \"#utility.yul\":9434:9494   */\n    tag_87:\n        /* \"#utility.yul\":9462:9465   */\n      0x00\n        /* \"#utility.yul\":9483:9488   */\n      dup2\n        /* \"#utility.yul\":9476:9488   */\n      swap1\n      pop\n        /* \"#utility.yul\":9434:9494   */\n      swap2\n      swap1\n      pop\n      jump\t// out\n        /* \"#utility.yul\":9500:9640   */\n    tag_88:\n        /* \"#utility.yul\":9549:9558   */\n      0x00\n        /* \"#utility.yul\":9582:9634   */\n      tag_198\n        /* \"#utility.yul\":9600:9633   */\n      tag_199\n        /* \"#utility.yul\":9609:9632   */\n      tag_200\n        /* \"#utility.yul\":9626:9631   */\n      dup5\n        /* \"#utility.yul\":9609:9632   */\n      tag_67\n      jump\t// in\n    tag_200:\n        /* \"#utility.yul\":9600:9633   */\n      tag_87\n      jump\t// in\n    tag_199:\n        /* \"#utility.yul\":9582:9634   */\n      tag_74\n      jump\t// in\n    tag_198:\n        /* \"#utility.yul\":9569:9634   */\n      swap1\n      pop\n        /* \"#utility.yul\":9500:9640   */\n      swap2\n      swap1\n      pop\n      jump\t// out\n        /* \"#utility.yul\":9646:9775   */\n    tag_89:\n        /* \"#utility.yul\":9732:9768   */\n      tag_202\n        /* \"#utility.yul\":9762:9767   */\n      dup2\n        /* \"#utility.yul\":9732:9768   */\n      tag_88\n      jump\t// in\n    tag_202:\n        /* \"#utility.yul\":9727:9730   */\n      dup3\n        /* \"#utility.yul\":9720:9769   */\n      mstore\n        /* \"#utility.yul\":9646:9775   */\n      pop\n      pop\n      jump\t// out\n        /* \"#utility.yul\":9781:10439   */\n    tag_40:\n        /* \"#utility.yul\":9985:9989   */\n      0x00\n        /* \"#utility.yul\":10023:10026   */\n      0x80\n        /* \"#utility.yul\":10012:10021   */\n      dup3\n        /* \"#utility.yul\":10008:10027   */\n      add\n        /* \"#utility.yul\":10000:10027   */\n      swap1\n      pop\n        /* \"#utility.yul\":10037:10108   */\n      tag_204\n        /* \"#utility.yul\":10105:10106   */\n      0x00\n        /* \"#utility.yul\":10094:10103   */\n      dup4\n        /* \"#utility.yul\":10090:10107   */\n      add\n        /* \"#utility.yul\":10081:10087   */\n      dup9\n        /* \"#utility.yul\":10037:10108   */\n      tag_70\n      jump\t// in\n    tag_204:\n        /* \"#utility.yul\":10155:10164   */\n      dup2\n        /* \"#utility.yul\":10149:10153   */\n      dup2\n        /* \"#utility.yul\":10145:10165   */\n      sub\n        /* \"#utility.yul\":10140:10142   */\n      0x20\n        /* \"#utility.yul\":10129:10138   */\n      dup4\n        /* \"#utility.yul\":10125:10143   */\n      add\n        /* \"#utility.yul\":10118:10166   */\n      mstore\n        /* \"#utility.yul\":10183:10269   */\n      tag_205\n        /* \"#utility.yul\":10264:10268   */\n      dup2\n        /* \"#utility.yul\":10255:10261   */\n      dup7\n        /* \"#utility.yul\":10247:10253   */\n      dup9\n        /* \"#utility.yul\":10183:10269   */\n      tag_79\n      jump\t// in\n    tag_205:\n        /* \"#utility.yul\":10175:10269   */\n      swap1\n      pop\n        /* \"#utility.yul\":10279:10351   */\n      tag_206\n        /* \"#utility.yul\":10347:10349   */\n      0x40\n        /* \"#utility.yul\":10336:10345   */\n      dup4\n        /* \"#utility.yul\":10332:10350   */\n      add\n        /* \"#utility.yul\":10323:10329   */\n      dup6\n        /* \"#utility.yul\":10279:10351   */\n      tag_80\n      jump\t// in\n    tag_206:\n        /* \"#utility.yul\":10361:10432   */\n      tag_207\n        /* \"#utility.yul\":10428:10430   */\n      0x60\n        /* \"#utility.yul\":10417:10426   */\n      dup4\n        /* \"#utility.yul\":10413:10431   */\n      add\n        /* \"#utility.yul\":10404:10410   */\n      dup5\n        /* \"#utility.yul\":10361:10432   */\n      tag_89\n      jump\t// in\n    tag_207:\n        /* \"#utility.yul\":9781:10439   */\n      swap7\n      swap6\n      pop\n      pop\n      pop\n      pop\n      pop\n      pop\n      jump\t// out\n        /* \"#utility.yul\":10445:10601   */\n    tag_90:\n        /* \"#utility.yul\":10585:10593   */\n      0x73656e6465720000000000000000000000000000000000000000000000000000\n        /* \"#utility.yul\":10581:10582   */\n      0x00\n        /* \"#utility.yul\":10573:10579   */\n      dup3\n        /* \"#utility.yul\":10569:10583   */\n      add\n        /* \"#utility.yul\":10562:10594   */\n      mstore\n        /* \"#utility.yul\":10445:10601   */\n      pop\n      jump\t// out\n        /* \"#utility.yul\":10607:10972   */\n    tag_91:\n        /* \"#utility.yul\":10749:10752   */\n      0x00\n        /* \"#utility.yul\":10770:10836   */\n      tag_210\n        /* \"#utility.yul\":10834:10835   */\n      0x06\n        /* \"#utility.yul\":10829:10832   */\n      dup4\n        /* \"#utility.yul\":10770:10836   */\n      tag_71\n      jump\t// in\n    tag_210:\n        /* \"#utility.yul\":10763:10836   */\n      swap2\n      pop\n        /* \"#utility.yul\":10845:10938   */\n      tag_211\n        /* \"#utility.yul\":10934:10937   */\n      dup3\n        /* \"#utility.yul\":10845:10938   */\n      tag_90\n      jump\t// in\n    tag_211:\n        /* \"#utility.yul\":10963:10965   */\n      0x20\n        /* \"#utility.yul\":10958:10961   */\n      dup3\n        /* \"#utility.yul\":10954:10966   */\n      add\n        /* \"#utility.yul\":10947:10966   */\n      swap1\n      pop\n        /* \"#utility.yul\":10607:10972   */\n      swap2\n      swap1\n      pop\n      jump\t// out\n        /* \"#utility.yul\":10978:11397   */\n    tag_44:\n        /* \"#utility.yul\":11144:11148   */\n      0x00\n        /* \"#utility.yul\":11182:11184   */\n      0x20\n        /* \"#utility.yul\":11171:11180   */\n      dup3\n        /* \"#utility.yul\":11167:11185   */\n      add\n        /* \"#utility.yul\":11159:11185   */\n      swap1\n      pop\n        /* \"#utility.yul\":11231:11240   */\n      dup2\n        /* \"#utility.yul\":11225:11229   */\n      dup2\n        /* \"#utility.yul\":11221:11241   */\n      sub\n        /* \"#utility.yul\":11217:11218   */\n      0x00\n        /* \"#utility.yul\":11206:11215   */\n      dup4\n        /* \"#utility.yul\":11202:11219   */\n      add\n        /* \"#utility.yul\":11195:11242   */\n      mstore\n        /* \"#utility.yul\":11259:11390   */\n      tag_213\n        /* \"#utility.yul\":11385:11389   */\n      dup2\n        /* \"#utility.yul\":11259:11390   */\n      tag_91\n      jump\t// in\n    tag_213:\n        /* \"#utility.yul\":11251:11390   */\n      swap1\n      pop\n        /* \"#utility.yul\":10978:11397   */\n      swap2\n      swap1\n      pop\n      jump\t// out\n        /* \"#utility.yul\":11403:11546   */\n    tag_92:\n        /* \"#utility.yul\":11460:11465   */\n      0x00\n        /* \"#utility.yul\":11491:11497   */\n      dup2\n        /* \"#utility.yul\":11485:11498   */\n      mload\n        /* \"#utility.yul\":11476:11498   */\n      swap1\n      pop\n        /* \"#utility.yul\":11507:11540   */\n      tag_215\n        /* \"#utility.yul\":11534:11539   */\n      dup2\n        /* \"#utility.yul\":11507:11540   */\n      tag_61\n      jump\t// in\n    tag_215:\n        /* \"#utility.yul\":11403:11546   */\n      swap3\n      swap2\n      pop\n      pop\n      jump\t// out\n        /* \"#utility.yul\":11552:11903   */\n    tag_48:\n        /* \"#utility.yul\":11622:11628   */\n      0x00\n        /* \"#utility.yul\":11671:11673   */\n      0x20\n        /* \"#utility.yul\":11659:11668   */\n      dup3\n        /* \"#utility.yul\":11650:11657   */\n      dup5\n        /* \"#utility.yul\":11646:11669   */\n      sub\n        /* \"#utility.yul\":11642:11674   */\n      slt\n        /* \"#utility.yul\":11639:11758   */\n      iszero\n      tag_217\n      jumpi\n        /* \"#utility.yul\":11677:11756   */\n      tag_218\n      tag_57\n      jump\t// in\n    tag_218:\n        /* \"#utility.yul\":11639:11758   */\n    tag_217:\n        /* \"#utility.yul\":11797:11798   */\n      0x00\n        /* \"#utility.yul\":11822:11886   */\n      tag_219\n        /* \"#utility.yul\":11878:11885   */\n      dup5\n        /* \"#utility.yul\":11869:11875   */\n      dup3\n        /* \"#utility.yul\":11858:11867   */\n      dup6\n        /* \"#utility.yul\":11854:11876   */\n      add\n        /* \"#utility.yul\":11822:11886   */\n      tag_92\n      jump\t// in\n    tag_219:\n        /* \"#utility.yul\":11812:11886   */\n      swap2\n      pop\n        /* \"#utility.yul\":11768:11896   */\n      pop\n        /* \"#utility.yul\":11552:11903   */\n      swap3\n      swap2\n      pop\n      pop\n      jump\t// out\n        /* \"#utility.yul\":11909:12073   */\n    tag_93:\n        /* \"#utility.yul\":12049:12065   */\n      0x6d657373616765206f726967696e000000000000000000000000000000000000\n        /* \"#utility.yul\":12045:12046   */\n      0x00\n        /* \"#utility.yul\":12037:12043   */\n      dup3\n        /* \"#utility.yul\":12033:12047   */\n      add\n        /* \"#utility.yul\":12026:12066   */\n      mstore\n        /* \"#utility.yul\":11909:12073   */\n      pop\n      jump\t// out\n        /* \"#utility.yul\":12079:12445   */\n    tag_94:\n        /* \"#utility.yul\":12221:12224   */\n      0x00\n        /* \"#utility.yul\":12242:12309   */\n      tag_222\n        /* \"#utility.yul\":12306:12308   */\n      0x0e\n        /* \"#utility.yul\":12301:12304   */\n      dup4\n        /* \"#utility.yul\":12242:12309   */\n      tag_71\n      jump\t// in\n    tag_222:\n        /* \"#utility.yul\":12235:12309   */\n      swap2\n      pop\n        /* \"#utility.yul\":12318:12411   */\n      tag_223\n        /* \"#utility.yul\":12407:12410   */\n      dup3\n        /* \"#utility.yul\":12318:12411   */\n      tag_93\n      jump\t// in\n    tag_223:\n        /* \"#utility.yul\":12436:12438   */\n      0x20\n        /* \"#utility.yul\":12431:12434   */\n      dup3\n        /* \"#utility.yul\":12427:12439   */\n      add\n        /* \"#utility.yul\":12420:12439   */\n      swap1\n      pop\n        /* \"#utility.yul\":12079:12445   */\n      swap2\n      swap1\n      pop\n      jump\t// out\n        /* \"#utility.yul\":12451:12870   */\n    tag_51:\n        /* \"#utility.yul\":12617:12621   */\n      0x00\n        /* \"#utility.yul\":12655:12657   */\n      0x20\n        /* \"#utility.yul\":12644:12653   */\n      dup3\n        /* \"#utility.yul\":12640:12658   */\n      add\n        /* \"#utility.yul\":12632:12658   */\n      swap1\n      pop\n        /* \"#utility.yul\":12704:12713   */\n      dup2\n        /* \"#utility.yul\":12698:12702   */\n      dup2\n        /* \"#utility.yul\":12694:12714   */\n      sub\n        /* \"#utility.yul\":12690:12691   */\n      0x00\n        /* \"#utility.yul\":12679:12688   */\n      dup4\n        /* \"#utility.yul\":12675:12692   */\n      add\n        /* \"#utility.yul\":12668:12715   */\n      mstore\n        /* \"#utility.yul\":12732:12863   */\n      tag_225\n        /* \"#utility.yul\":12858:12862   */\n      dup2\n        /* \"#utility.yul\":12732:12863   */\n      tag_94\n      jump\t// in\n    tag_225:\n        /* \"#utility.yul\":12724:12863   */\n      swap1\n      pop\n        /* \"#utility.yul\":12451:12870   */\n      swap2\n      swap1\n      pop\n      jump\t// out\n\n    auxdata: 0xa264697066735822122000b70b5e9734d96e8b3dc66e6993d443ad855c73329546f17fb1b7b6d6cadfeb64736f6c63430008100033\n}\n",
				"bytecode": {
					"linkReferences": {},
					"object": "608060405234801561001057600080fd5b50610c00806100206000396000f3fe608060405234801561001057600080fd5b50600436106100415760003560e01c80633dbb202b146100465780636e296e4514610062578063b29e0acf14610080575b600080fd5b610060600480360381019061005b9190610653565b61009c565b005b61006a6100c7565b60405161007791906106d6565b60405180910390f35b61009a600480360381019061009591906106f1565b61017f565b005b6100c16202000073936a70c0b28532aa22240dce21f89a8399d6ac61868686866101aa565b50505050565b600061dead73ffffffffffffffffffffffffffffffffffffffff1660008054906101000a900473ffffffffffffffffffffffffffffffffffffffff1673ffffffffffffffffffffffffffffffffffffffff1603610159576040517f08c379a0000000000000000000000000000000000000000000000000000000008152600401610150906107c2565b60405180910390fd5b60008054906101000a900473ffffffffffffffffffffffffffffffffffffffff16905090565b6101a46201000073936a70c0b28532aa22240dce21f89a8399d6ac6186868686610346565b50505050565b60008062015180426101bc919061081b565b905060004244015a0190506000338888886040516024016101e094939291906108ad565b6040516020818303038152906040527fb29e0acf000000000000000000000000000000000000000000000000000000007bffffffffffffffffffffffffffffffffffffffffffffffffffffffff19166020820180517bffffffffffffffffffffffffffffffffffffffffffffffffffffffff838183161783525050505090508973ffffffffffffffffffffffffffffffffffffffff16635d4d3bcd8a868686866040518663ffffffff1660e01b81526004016102a095949392919061096a565b6020604051808303816000875af11580156102bf573d6000803e3d6000fd5b505050506040513d601f19601f820116820180604052508101906102e391906109fa565b508773ffffffffffffffffffffffffffffffffffffffff167fcb0f7ffd78f9aee47a248fae8db181db6eee833039123e026dcbff529522e52a338989868a604051610332959493929190610a62565b60405180910390a250505050505050505050565b8573ffffffffffffffffffffffffffffffffffffffff163373ffffffffffffffffffffffffffffffffffffffff16146103b4576040517f08c379a00000000000000000000000000000000000000000000000000000000081526004016103ab90610afc565b60405180910390fd5b8473ffffffffffffffffffffffffffffffffffffffff168673ffffffffffffffffffffffffffffffffffffffff16633b1623fe6040518163ffffffff1660e01b8152600401602060405180830381865afa158015610416573d6000803e3d6000fd5b505050506040513d601f19601f8201168201806040525081019061043a9190610b31565b73ffffffffffffffffffffffffffffffffffffffff1614610490576040517f08c379a000000000000000000000000000000000000000000000000000000000815260040161048790610baa565b60405180910390fd5b836000806101000a81548173ffffffffffffffffffffffffffffffffffffffff021916908373ffffffffffffffffffffffffffffffffffffffff1602179055506104dd8360008484610526565b60008060006101000a81548173ffffffffffffffffffffffffffffffffffffffff021916908373ffffffffffffffffffffffffffffffffffffffff160217905550505050505050565b608081838237600080838387895af1610543573d6000803e3d6000fd5b5050505050565b600080fd5b600080fd5b600073ffffffffffffffffffffffffffffffffffffffff82169050919050565b600061057f82610554565b9050919050565b61058f81610574565b811461059a57600080fd5b50565b6000813590506105ac81610586565b92915050565b600080fd5b600080fd5b600080fd5b60008083601f8401126105d7576105d66105b2565b5b8235905067ffffffffffffffff8111156105f4576105f36105b7565b5b6020830191508360018202830111156106105761060f6105bc565b5b9250929050565b600063ffffffff82169050919050565b61063081610617565b811461063b57600080fd5b50565b60008135905061064d81610627565b92915050565b6000806000806060858703121561066d5761066c61054a565b5b600061067b8782880161059d565b945050602085013567ffffffffffffffff81111561069c5761069b61054f565b5b6106a8878288016105c1565b935093505060406106bb8782880161063e565b91505092959194509250565b6106d081610574565b82525050565b60006020820190506106eb60008301846106c7565b92915050565b6000806000806060858703121561070b5761070a61054a565b5b60006107198782880161059d565b945050602061072a8782880161059d565b935050604085013567ffffffffffffffff81111561074b5761074a61054f565b5b610757878288016105c1565b925092505092959194509250565b600082825260208201905092915050565b7f78446f6d61696e4d65737361676553656e646572206973206e6f742073657400600082015250565b60006107ac601f83610765565b91506107b782610776565b602082019050919050565b600060208201905081810360008301526107db8161079f565b9050919050565b6000819050919050565b7f4e487b7100000000000000000000000000000000000000000000000000000000600052601160045260246000fd5b6000610826826107e2565b9150610831836107e2565b9250828201905080821115610849576108486107ec565b5b92915050565b600082825260208201905092915050565b82818337600083830152505050565b6000601f19601f8301169050919050565b600061088c838561084f565b9350610899838584610860565b6108a28361086f565b840190509392505050565b60006060820190506108c260008301876106c7565b6108cf60208301866106c7565b81810360408301526108e2818486610880565b905095945050505050565b6108f6816107e2565b82525050565b600081519050919050565b60005b8381101561092557808201518184015260208101905061090a565b60008484015250505050565b600061093c826108fc565b610946818561084f565b9350610956818560208601610907565b61095f8161086f565b840191505092915050565b600060a08201905061097f60008301886106c7565b61098c60208301876108ed565b61099960408301866108ed565b6109a660608301856108ed565b81810360808301526109b88184610931565b90509695505050505050565b6000819050919050565b6109d7816109c4565b81146109e257600080fd5b50565b6000815190506109f4816109ce565b92915050565b600060208284031215610a1057610a0f61054a565b5b6000610a1e848285016109e5565b91505092915050565b6000819050919050565b6000610a4c610a47610a4284610617565b610a27565b6107e2565b9050919050565b610a5c81610a31565b82525050565b6000608082019050610a7760008301886106c7565b8181036020830152610a8a818688610880565b9050610a9960408301856108ed565b610aa66060830184610a53565b9695505050505050565b7f73656e6465720000000000000000000000000000000000000000000000000000600082015250565b6000610ae6600683610765565b9150610af182610ab0565b602082019050919050565b60006020820190508181036000830152610b1581610ad9565b9050919050565b600081519050610b2b81610586565b92915050565b600060208284031215610b4757610b4661054a565b5b6000610b5584828501610b1c565b91505092915050565b7f6d657373616765206f726967696e000000000000000000000000000000000000600082015250565b6000610b94600e83610765565b9150610b9f82610b5e565b602082019050919050565b60006020820190508181036000830152610bc381610b87565b905091905056fea264697066735822122000b70b5e9734d96e8b3dc66e6993d443ad855c73329546f17fb1b7b6d6cadfeb64736f6c63430008100033",
					"opcodes": "PUSH1 0x80 PUSH1 0x40 MSTORE CALLVALUE DUP1 ISZERO PUSH2 0x10 JUMPI PUSH1 0x0 DUP1 REVERT JUMPDEST POP PUSH2 0xC00 DUP1 PUSH2 0x20 PUSH1 0x0 CODECOPY PUSH1 0x0 RETURN INVALID PUSH1 0x80 PUSH1 0x40 MSTORE CALLVALUE DUP1 ISZERO PUSH2 0x10 JUMPI PUSH1 0x0 DUP1 REVERT JUMPDEST POP PUSH1 0x4 CALLDATASIZE LT PUSH2 0x41 JUMPI PUSH1 0x0 CALLDATALOAD PUSH1 0xE0 SHR DUP1 PUSH4 0x3DBB202B EQ PUSH2 0x46 JUMPI DUP1 PUSH4 0x6E296E45 EQ PUSH2 0x62 JUMPI DUP1 PUSH4 0xB29E0ACF EQ PUSH2 0x80 JUMPI JUMPDEST PUSH1 0x0 DUP1 REVERT JUMPDEST PUSH2 0x60 PUSH1 0x4 DUP1 CALLDATASIZE SUB DUP2 ADD SWAP1 PUSH2 0x5B SWAP2 SWAP1 PUSH2 0x653 JUMP JUMPDEST PUSH2 0x9C JUMP JUMPDEST STOP JUMPDEST PUSH2 0x6A PUSH2 0xC7 JUMP JUMPDEST PUSH1 0x40 MLOAD PUSH2 0x77 SWAP2 SWAP1 PUSH2 0x6D6 JUMP JUMPDEST PUSH1 0x40 MLOAD DUP1 SWAP2 SUB SWAP1 RETURN JUMPDEST PUSH2 0x9A PUSH1 0x4 DUP1 CALLDATASIZE SUB DUP2 ADD SWAP1 PUSH2 0x95 SWAP2 SWAP1 PUSH2 0x6F1 JUMP JUMPDEST PUSH2 0x17F JUMP JUMPDEST STOP JUMPDEST PUSH2 0xC1 PUSH3 0x20000 PUSH20 0x936A70C0B28532AA22240DCE21F89A8399D6AC61 DUP7 DUP7 DUP7 DUP7 PUSH2 0x1AA JUMP JUMPDEST POP POP POP POP JUMP JUMPDEST PUSH1 0x0 PUSH2 0xDEAD PUSH20 0xFFFFFFFFFFFFFFFFFFFFFFFFFFFFFFFFFFFFFFFF AND PUSH1 0x0 DUP1 SLOAD SWAP1 PUSH2 0x100 EXP SWAP1 DIV PUSH20 0xFFFFFFFFFFFFFFFFFFFFFFFFFFFFFFFFFFFFFFFF AND PUSH20 0xFFFFFFFFFFFFFFFFFFFFFFFFFFFFFFFFFFFFFFFF AND SUB PUSH2 0x159 JUMPI PUSH1 0x40 MLOAD PUSH32 0x8C379A000000000000000000000000000000000000000000000000000000000 DUP2 MSTORE PUSH1 0x4 ADD PUSH2 0x150 SWAP1 PUSH2 0x7C2 JUMP JUMPDEST PUSH1 0x40 MLOAD DUP1 SWAP2 SUB SWAP1 REVERT JUMPDEST PUSH1 0x0 DUP1 SLOAD SWAP1 PUSH2 0x100 EXP SWAP1 DIV PUSH20 0xFFFFFFFFFFFFFFFFFFFFFFFFFFFFFFFFFFFFFFFF AND SWAP1 POP SWAP1 JUMP JUMPDEST PUSH2 0x1A4 PUSH3 0x10000 PUSH20 0x936A70C0B28532AA22240DCE21F89A8399D6AC61 DUP7 DUP7 DUP7 DUP7 PUSH2 0x346 JUMP JUMPDEST POP POP POP POP JUMP JUMPDEST PUSH1 0x0 DUP1 PUSH3 0x15180 TIMESTAMP PUSH2 0x1BC SWAP2 SWAP1 PUSH2 0x81B JUMP JUMPDEST SWAP1 POP PUSH1 0x0 TIMESTAMP DIFFICULTY ADD GAS ADD SWAP1 POP PUSH1 0x0 CALLER DUP9 DUP9 DUP9 PUSH1 0x40 MLOAD PUSH1 0x24 ADD PUSH2 0x1E0 SWAP5 SWAP4 SWAP3 SWAP2 SWAP1 PUSH2 0x8AD JUMP JUMPDEST PUSH1 0x40 MLOAD PUSH1 0x20 DUP2 DUP4 SUB SUB DUP2 MSTORE SWAP1 PUSH1 0x40 MSTORE PUSH32 0xB29E0ACF00000000000000000000000000000000000000000000000000000000 PUSH28 0xFFFFFFFFFFFFFFFFFFFFFFFFFFFFFFFFFFFFFFFFFFFFFFFFFFFFFFFF NOT AND PUSH1 0x20 DUP3 ADD DUP1 MLOAD PUSH28 0xFFFFFFFFFFFFFFFFFFFFFFFFFFFFFFFFFFFFFFFFFFFFFFFFFFFFFFFF DUP4 DUP2 DUP4 AND OR DUP4 MSTORE POP POP POP POP SWAP1 POP DUP10 PUSH20 0xFFFFFFFFFFFFFFFFFFFFFFFFFFFFFFFFFFFFFFFF AND PUSH4 0x5D4D3BCD DUP11 DUP7 DUP7 DUP7 DUP7 PUSH1 0x40 MLOAD DUP7 PUSH4 0xFFFFFFFF AND PUSH1 0xE0 SHL DUP2 MSTORE PUSH1 0x4 ADD PUSH2 0x2A0 SWAP6 SWAP5 SWAP4 SWAP3 SWAP2 SWAP1 PUSH2 0x96A JUMP JUMPDEST PUSH1 0x20 PUSH1 0x40 MLOAD DUP1 DUP4 SUB DUP2 PUSH1 0x0 DUP8 GAS CALL ISZERO DUP1 ISZERO PUSH2 0x2BF JUMPI RETURNDATASIZE PUSH1 0x0 DUP1 RETURNDATACOPY RETURNDATASIZE PUSH1 0x0 REVERT JUMPDEST POP POP POP POP PUSH1 0x40 MLOAD RETURNDATASIZE PUSH1 0x1F NOT PUSH1 0x1F DUP3 ADD AND DUP3 ADD DUP1 PUSH1 0x40 MSTORE POP DUP2 ADD SWAP1 PUSH2 0x2E3 SWAP2 SWAP1 PUSH2 0x9FA JUMP JUMPDEST POP DUP8 PUSH20 0xFFFFFFFFFFFFFFFFFFFFFFFFFFFFFFFFFFFFFFFF AND PUSH32 0xCB0F7FFD78F9AEE47A248FAE8DB181DB6EEE833039123E026DCBFF529522E52A CALLER DUP10 DUP10 DUP7 DUP11 PUSH1 0x40 MLOAD PUSH2 0x332 SWAP6 SWAP5 SWAP4 SWAP3 SWAP2 SWAP1 PUSH2 0xA62 JUMP JUMPDEST PUSH1 0x40 MLOAD DUP1 SWAP2 SUB SWAP1 LOG2 POP POP POP POP POP POP POP POP POP POP JUMP JUMPDEST DUP6 PUSH20 0xFFFFFFFFFFFFFFFFFFFFFFFFFFFFFFFFFFFFFFFF AND CALLER PUSH20 0xFFFFFFFFFFFFFFFFFFFFFFFFFFFFFFFFFFFFFFFF AND EQ PUSH2 0x3B4 JUMPI PUSH1 0x40 MLOAD PUSH32 0x8C379A000000000000000000000000000000000000000000000000000000000 DUP2 MSTORE PUSH1 0x4 ADD PUSH2 0x3AB SWAP1 PUSH2 0xAFC JUMP JUMPDEST PUSH1 0x40 MLOAD DUP1 SWAP2 SUB SWAP1 REVERT JUMPDEST DUP5 PUSH20 0xFFFFFFFFFFFFFFFFFFFFFFFFFFFFFFFFFFFFFFFF AND DUP7 PUSH20 0xFFFFFFFFFFFFFFFFFFFFFFFFFFFFFFFFFFFFFFFF AND PUSH4 0x3B1623FE PUSH1 0x40 MLOAD DUP2 PUSH4 0xFFFFFFFF AND PUSH1 0xE0 SHL DUP2 MSTORE PUSH1 0x4 ADD PUSH1 0x20 PUSH1 0x40 MLOAD DUP1 DUP4 SUB DUP2 DUP7 GAS STATICCALL ISZERO DUP1 ISZERO PUSH2 0x416 JUMPI RETURNDATASIZE PUSH1 0x0 DUP1 RETURNDATACOPY RETURNDATASIZE PUSH1 0x0 REVERT JUMPDEST POP POP POP POP PUSH1 0x40 MLOAD RETURNDATASIZE PUSH1 0x1F NOT PUSH1 0x1F DUP3 ADD AND DUP3 ADD DUP1 PUSH1 0x40 MSTORE POP DUP2 ADD SWAP1 PUSH2 0x43A SWAP2 SWAP1 PUSH2 0xB31 JUMP JUMPDEST PUSH20 0xFFFFFFFFFFFFFFFFFFFFFFFFFFFFFFFFFFFFFFFF AND EQ PUSH2 0x490 JUMPI PUSH1 0x40 MLOAD PUSH32 0x8C379A000000000000000000000000000000000000000000000000000000000 DUP2 MSTORE PUSH1 0x4 ADD PUSH2 0x487 SWAP1 PUSH2 0xBAA JUMP JUMPDEST PUSH1 0x40 MLOAD DUP1 SWAP2 SUB SWAP1 REVERT JUMPDEST DUP4 PUSH1 0x0 DUP1 PUSH2 0x100 EXP DUP2 SLOAD DUP2 PUSH20 0xFFFFFFFFFFFFFFFFFFFFFFFFFFFFFFFFFFFFFFFF MUL NOT AND SWAP1 DUP4 PUSH20 0xFFFFFFFFFFFFFFFFFFFFFFFFFFFFFFFFFFFFFFFF AND MUL OR SWAP1 SSTORE POP PUSH2 0x4DD DUP4 PUSH1 0x0 DUP5 DUP5 PUSH2 0x526 JUMP JUMPDEST PUSH1 0x0 DUP1 PUSH1 0x0 PUSH2 0x100 EXP DUP2 SLOAD DUP2 PUSH20 0xFFFFFFFFFFFFFFFFFFFFFFFFFFFFFFFFFFFFFFFF MUL NOT AND SWAP1 DUP4 PUSH20 0xFFFFFFFFFFFFFFFFFFFFFFFFFFFFFFFFFFFFFFFF AND MUL OR SWAP1 SSTORE POP POP POP POP POP POP POP JUMP JUMPDEST PUSH1 0x80 DUP2 DUP4 DUP3 CALLDATACOPY PUSH1 0x0 DUP1 DUP4 DUP4 DUP8 DUP10 GAS CALL PUSH2 0x543 JUMPI RETURNDATASIZE PUSH1 0x0 DUP1 RETURNDATACOPY RETURNDATASIZE PUSH1 0x0 REVERT JUMPDEST POP POP POP POP POP JUMP JUMPDEST PUSH1 0x0 DUP1 REVERT JUMPDEST PUSH1 0x0 DUP1 REVERT JUMPDEST PUSH1 0x0 PUSH20 0xFFFFFFFFFFFFFFFFFFFFFFFFFFFFFFFFFFFFFFFF DUP3 AND SWAP1 POP SWAP2 SWAP1 POP JUMP JUMPDEST PUSH1 0x0 PUSH2 0x57F DUP3 PUSH2 0x554 JUMP JUMPDEST SWAP1 POP SWAP2 SWAP1 POP JUMP JUMPDEST PUSH2 0x58F DUP2 PUSH2 0x574 JUMP JUMPDEST DUP2 EQ PUSH2 0x59A JUMPI PUSH1 0x0 DUP1 REVERT JUMPDEST POP JUMP JUMPDEST PUSH1 0x0 DUP2 CALLDATALOAD SWAP1 POP PUSH2 0x5AC DUP2 PUSH2 0x586 JUMP JUMPDEST SWAP3 SWAP2 POP POP JUMP JUMPDEST PUSH1 0x0 DUP1 REVERT JUMPDEST PUSH1 0x0 DUP1 REVERT JUMPDEST PUSH1 0x0 DUP1 REVERT JUMPDEST PUSH1 0x0 DUP1 DUP4 PUSH1 0x1F DUP5 ADD SLT PUSH2 0x5D7 JUMPI PUSH2 0x5D6 PUSH2 0x5B2 JUMP JUMPDEST JUMPDEST DUP3 CALLDATALOAD SWAP1 POP PUSH8 0xFFFFFFFFFFFFFFFF DUP2 GT ISZERO PUSH2 0x5F4 JUMPI PUSH2 0x5F3 PUSH2 0x5B7 JUMP JUMPDEST JUMPDEST PUSH1 0x20 DUP4 ADD SWAP2 POP DUP4 PUSH1 0x1 DUP3 MUL DUP4 ADD GT ISZERO PUSH2 0x610 JUMPI PUSH2 0x60F PUSH2 0x5BC JUMP JUMPDEST JUMPDEST SWAP3 POP SWAP3 SWAP1 POP JUMP JUMPDEST PUSH1 0x0 PUSH4 0xFFFFFFFF DUP3 AND SWAP1 POP SWAP2 SWAP1 POP JUMP JUMPDEST PUSH2 0x630 DUP2 PUSH2 0x617 JUMP JUMPDEST DUP2 EQ PUSH2 0x63B JUMPI PUSH1 0x0 DUP1 REVERT JUMPDEST POP JUMP JUMPDEST PUSH1 0x0 DUP2 CALLDATALOAD SWAP1 POP PUSH2 0x64D DUP2 PUSH2 0x627 JUMP JUMPDEST SWAP3 SWAP2 POP POP JUMP JUMPDEST PUSH1 0x0 DUP1 PUSH1 0x0 DUP1 PUSH1 0x60 DUP6 DUP8 SUB SLT ISZERO PUSH2 0x66D JUMPI PUSH2 0x66C PUSH2 0x54A JUMP JUMPDEST JUMPDEST PUSH1 0x0 PUSH2 0x67B DUP8 DUP3 DUP9 ADD PUSH2 0x59D JUMP JUMPDEST SWAP5 POP POP PUSH1 0x20 DUP6 ADD CALLDATALOAD PUSH8 0xFFFFFFFFFFFFFFFF DUP2 GT ISZERO PUSH2 0x69C JUMPI PUSH2 0x69B PUSH2 0x54F JUMP JUMPDEST JUMPDEST PUSH2 0x6A8 DUP8 DUP3 DUP9 ADD PUSH2 0x5C1 JUMP JUMPDEST SWAP4 POP SWAP4 POP POP PUSH1 0x40 PUSH2 0x6BB DUP8 DUP3 DUP9 ADD PUSH2 0x63E JUMP JUMPDEST SWAP2 POP POP SWAP3 SWAP6 SWAP2 SWAP5 POP SWAP3 POP JUMP JUMPDEST PUSH2 0x6D0 DUP2 PUSH2 0x574 JUMP JUMPDEST DUP3 MSTORE POP POP JUMP JUMPDEST PUSH1 0x0 PUSH1 0x20 DUP3 ADD SWAP1 POP PUSH2 0x6EB PUSH1 0x0 DUP4 ADD DUP5 PUSH2 0x6C7 JUMP JUMPDEST SWAP3 SWAP2 POP POP JUMP JUMPDEST PUSH1 0x0 DUP1 PUSH1 0x0 DUP1 PUSH1 0x60 DUP6 DUP8 SUB SLT ISZERO PUSH2 0x70B JUMPI PUSH2 0x70A PUSH2 0x54A JUMP JUMPDEST JUMPDEST PUSH1 0x0 PUSH2 0x719 DUP8 DUP3 DUP9 ADD PUSH2 0x59D JUMP JUMPDEST SWAP5 POP POP PUSH1 0x20 PUSH2 0x72A DUP8 DUP3 DUP9 ADD PUSH2 0x59D JUMP JUMPDEST SWAP4 POP POP PUSH1 0x40 DUP6 ADD CALLDATALOAD PUSH8 0xFFFFFFFFFFFFFFFF DUP2 GT ISZERO PUSH2 0x74B JUMPI PUSH2 0x74A PUSH2 0x54F JUMP JUMPDEST JUMPDEST PUSH2 0x757 DUP8 DUP3 DUP9 ADD PUSH2 0x5C1 JUMP JUMPDEST SWAP3 POP SWAP3 POP POP SWAP3 SWAP6 SWAP2 SWAP5 POP SWAP3 POP JUMP JUMPDEST PUSH1 0x0 DUP3 DUP3 MSTORE PUSH1 0x20 DUP3 ADD SWAP1 POP SWAP3 SWAP2 POP POP JUMP JUMPDEST PUSH32 0x78446F6D61696E4D65737361676553656E646572206973206E6F742073657400 PUSH1 0x0 DUP3 ADD MSTORE POP JUMP JUMPDEST PUSH1 0x0 PUSH2 0x7AC PUSH1 0x1F DUP4 PUSH2 0x765 JUMP JUMPDEST SWAP2 POP PUSH2 0x7B7 DUP3 PUSH2 0x776 JUMP JUMPDEST PUSH1 0x20 DUP3 ADD SWAP1 POP SWAP2 SWAP1 POP JUMP JUMPDEST PUSH1 0x0 PUSH1 0x20 DUP3 ADD SWAP1 POP DUP2 DUP2 SUB PUSH1 0x0 DUP4 ADD MSTORE PUSH2 0x7DB DUP2 PUSH2 0x79F JUMP JUMPDEST SWAP1 POP SWAP2 SWAP1 POP JUMP JUMPDEST PUSH1 0x0 DUP2 SWAP1 POP SWAP2 SWAP1 POP JUMP JUMPDEST PUSH32 0x4E487B7100000000000000000000000000000000000000000000000000000000 PUSH1 0x0 MSTORE PUSH1 0x11 PUSH1 0x4 MSTORE PUSH1 0x24 PUSH1 0x0 REVERT JUMPDEST PUSH1 0x0 PUSH2 0x826 DUP3 PUSH2 0x7E2 JUMP JUMPDEST SWAP2 POP PUSH2 0x831 DUP4 PUSH2 0x7E2 JUMP JUMPDEST SWAP3 POP DUP3 DUP3 ADD SWAP1 POP DUP1 DUP3 GT ISZERO PUSH2 0x849 JUMPI PUSH2 0x848 PUSH2 0x7EC JUMP JUMPDEST JUMPDEST SWAP3 SWAP2 POP POP JUMP JUMPDEST PUSH1 0x0 DUP3 DUP3 MSTORE PUSH1 0x20 DUP3 ADD SWAP1 POP SWAP3 SWAP2 POP POP JUMP JUMPDEST DUP3 DUP2 DUP4 CALLDATACOPY PUSH1 0x0 DUP4 DUP4 ADD MSTORE POP POP POP JUMP JUMPDEST PUSH1 0x0 PUSH1 0x1F NOT PUSH1 0x1F DUP4 ADD AND SWAP1 POP SWAP2 SWAP1 POP JUMP JUMPDEST PUSH1 0x0 PUSH2 0x88C DUP4 DUP6 PUSH2 0x84F JUMP JUMPDEST SWAP4 POP PUSH2 0x899 DUP4 DUP6 DUP5 PUSH2 0x860 JUMP JUMPDEST PUSH2 0x8A2 DUP4 PUSH2 0x86F JUMP JUMPDEST DUP5 ADD SWAP1 POP SWAP4 SWAP3 POP POP POP JUMP JUMPDEST PUSH1 0x0 PUSH1 0x60 DUP3 ADD SWAP1 POP PUSH2 0x8C2 PUSH1 0x0 DUP4 ADD DUP8 PUSH2 0x6C7 JUMP JUMPDEST PUSH2 0x8CF PUSH1 0x20 DUP4 ADD DUP7 PUSH2 0x6C7 JUMP JUMPDEST DUP2 DUP2 SUB PUSH1 0x40 DUP4 ADD MSTORE PUSH2 0x8E2 DUP2 DUP5 DUP7 PUSH2 0x880 JUMP JUMPDEST SWAP1 POP SWAP6 SWAP5 POP POP POP POP POP JUMP JUMPDEST PUSH2 0x8F6 DUP2 PUSH2 0x7E2 JUMP JUMPDEST DUP3 MSTORE POP POP JUMP JUMPDEST PUSH1 0x0 DUP2 MLOAD SWAP1 POP SWAP2 SWAP1 POP JUMP JUMPDEST PUSH1 0x0 JUMPDEST DUP4 DUP2 LT ISZERO PUSH2 0x925 JUMPI DUP1 DUP3 ADD MLOAD DUP2 DUP5 ADD MSTORE PUSH1 0x20 DUP2 ADD SWAP1 POP PUSH2 0x90A JUMP JUMPDEST PUSH1 0x0 DUP5 DUP5 ADD MSTORE POP POP POP POP JUMP JUMPDEST PUSH1 0x0 PUSH2 0x93C DUP3 PUSH2 0x8FC JUMP JUMPDEST PUSH2 0x946 DUP2 DUP6 PUSH2 0x84F JUMP JUMPDEST SWAP4 POP PUSH2 0x956 DUP2 DUP6 PUSH1 0x20 DUP7 ADD PUSH2 0x907 JUMP JUMPDEST PUSH2 0x95F DUP2 PUSH2 0x86F JUMP JUMPDEST DUP5 ADD SWAP2 POP POP SWAP3 SWAP2 POP POP JUMP JUMPDEST PUSH1 0x0 PUSH1 0xA0 DUP3 ADD SWAP1 POP PUSH2 0x97F PUSH1 0x0 DUP4 ADD DUP9 PUSH2 0x6C7 JUMP JUMPDEST PUSH2 0x98C PUSH1 0x20 DUP4 ADD DUP8 PUSH2 0x8ED JUMP JUMPDEST PUSH2 0x999 PUSH1 0x40 DUP4 ADD DUP7 PUSH2 0x8ED JUMP JUMPDEST PUSH2 0x9A6 PUSH1 0x60 DUP4 ADD DUP6 PUSH2 0x8ED JUMP JUMPDEST DUP2 DUP2 SUB PUSH1 0x80 DUP4 ADD MSTORE PUSH2 0x9B8 DUP2 DUP5 PUSH2 0x931 JUMP JUMPDEST SWAP1 POP SWAP7 SWAP6 POP POP POP POP POP POP JUMP JUMPDEST PUSH1 0x0 DUP2 SWAP1 POP SWAP2 SWAP1 POP JUMP JUMPDEST PUSH2 0x9D7 DUP2 PUSH2 0x9C4 JUMP JUMPDEST DUP2 EQ PUSH2 0x9E2 JUMPI PUSH1 0x0 DUP1 REVERT JUMPDEST POP JUMP JUMPDEST PUSH1 0x0 DUP2 MLOAD SWAP1 POP PUSH2 0x9F4 DUP2 PUSH2 0x9CE JUMP JUMPDEST SWAP3 SWAP2 POP POP JUMP JUMPDEST PUSH1 0x0 PUSH1 0x20 DUP3 DUP5 SUB SLT ISZERO PUSH2 0xA10 JUMPI PUSH2 0xA0F PUSH2 0x54A JUMP JUMPDEST JUMPDEST PUSH1 0x0 PUSH2 0xA1E DUP5 DUP3 DUP6 ADD PUSH2 0x9E5 JUMP JUMPDEST SWAP2 POP POP SWAP3 SWAP2 POP POP JUMP JUMPDEST PUSH1 0x0 DUP2 SWAP1 POP SWAP2 SWAP1 POP JUMP JUMPDEST PUSH1 0x0 PUSH2 0xA4C PUSH2 0xA47 PUSH2 0xA42 DUP5 PUSH2 0x617 JUMP JUMPDEST PUSH2 0xA27 JUMP JUMPDEST PUSH2 0x7E2 JUMP JUMPDEST SWAP1 POP SWAP2 SWAP1 POP JUMP JUMPDEST PUSH2 0xA5C DUP2 PUSH2 0xA31 JUMP JUMPDEST DUP3 MSTORE POP POP JUMP JUMPDEST PUSH1 0x0 PUSH1 0x80 DUP3 ADD SWAP1 POP PUSH2 0xA77 PUSH1 0x0 DUP4 ADD DUP9 PUSH2 0x6C7 JUMP JUMPDEST DUP2 DUP2 SUB PUSH1 0x20 DUP4 ADD MSTORE PUSH2 0xA8A DUP2 DUP7 DUP9 PUSH2 0x880 JUMP JUMPDEST SWAP1 POP PUSH2 0xA99 PUSH1 0x40 DUP4 ADD DUP6 PUSH2 0x8ED JUMP JUMPDEST PUSH2 0xAA6 PUSH1 0x60 DUP4 ADD DUP5 PUSH2 0xA53 JUMP JUMPDEST SWAP7 SWAP6 POP POP POP POP POP POP JUMP JUMPDEST PUSH32 0x73656E6465720000000000000000000000000000000000000000000000000000 PUSH1 0x0 DUP3 ADD MSTORE POP JUMP JUMPDEST PUSH1 0x0 PUSH2 0xAE6 PUSH1 0x6 DUP4 PUSH2 0x765 JUMP JUMPDEST SWAP2 POP PUSH2 0xAF1 DUP3 PUSH2 0xAB0 JUMP JUMPDEST PUSH1 0x20 DUP3 ADD SWAP1 POP SWAP2 SWAP1 POP JUMP JUMPDEST PUSH1 0x0 PUSH1 0x20 DUP3 ADD SWAP1 POP DUP2 DUP2 SUB PUSH1 0x0 DUP4 ADD MSTORE PUSH2 0xB15 DUP2 PUSH2 0xAD9 JUMP JUMPDEST SWAP1 POP SWAP2 SWAP1 POP JUMP JUMPDEST PUSH1 0x0 DUP2 MLOAD SWAP1 POP PUSH2 0xB2B DUP2 PUSH2 0x586 JUMP JUMPDEST SWAP3 SWAP2 POP POP JUMP JUMPDEST PUSH1 0x0 PUSH1 0x20 DUP3 DUP5 SUB SLT ISZERO PUSH2 0xB47 JUMPI PUSH2 0xB46 PUSH2 0x54A JUMP JUMPDEST JUMPDEST PUSH1 0x0 PUSH2 0xB55 DUP5 DUP3 DUP6 ADD PUSH2 0xB1C JUMP JUMPDEST SWAP2 POP POP SWAP3 SWAP2 POP POP JUMP JUMPDEST PUSH32 0x6D657373616765206F726967696E000000000000000000000000000000000000 PUSH1 0x0 DUP3 ADD MSTORE POP JUMP JUMPDEST PUSH1 0x0 PUSH2 0xB94 PUSH1 0xE DUP4 PUSH2 0x765 JUMP JUMPDEST SWAP2 POP PUSH2 0xB9F DUP3 PUSH2 0xB5E JUMP JUMPDEST PUSH1 0x20 DUP3 ADD SWAP1 POP SWAP2 SWAP1 POP JUMP JUMPDEST PUSH1 0x0 PUSH1 0x20 DUP3 ADD SWAP1 POP DUP2 DUP2 SUB PUSH1 0x0 DUP4 ADD MSTORE PUSH2 0xBC3 DUP2 PUSH2 0xB87 JUMP JUMPDEST SWAP1 POP SWAP2 SWAP1 POP JUMP INVALID LOG2 PUSH5 0x6970667358 0x22 SLT KECCAK256 STOP 0xB7 SIGNEXTEND 0x5E SWAP8 CALLVALUE 0xD9 PUSH15 0x8B3DC66E6993D443AD855C73329546 CALL PUSH32 0xB1B7B6D6CADFEB64736F6C634300081000330000000000000000000000000000 "
				},
				"gasEstimates": {
					"creation": {
						"codeDepositCost": "614400",
						"executionCost": "645",
						"totalCost": "615045"
					},
					"external": {
						"relay(address,address,bytes)": "infinite",
						"sendMessage(address,bytes,uint32)": "infinite",
						"xDomainMessageSender()": "4687"
					}
				},
				"methodIdentifiers": {
					"relay(address,address,bytes)": "b29e0acf",
					"sendMessage(address,bytes,uint32)": "3dbb202b",
					"xDomainMessageSender()": "6e296e45"
				}
			},
			"storageLayout": {
				"storage": [
					{
						"astId": 268,
						"contract": "contracts/optimism/L2OptimismBridge.sol:L2OptimisimBridge",
						"label": "xDomainMsgSender",
						"offset": 0,
						"slot": "0",
						"type": "t_address"
					}
				],
				"types": {
					"t_address": {
						"encoding": "inplace",
						"label": "address",
						"numberOfBytes": "20"
					}
				}
			},
			"userdoc": {
				"kind": "user",
				"methods": {
					"sendMessage(address,bytes,uint32)": {
						"notice": "Sends a cross domain message to the target messenger."
					}
				},
				"version": 1
			}
		}
	}
}