{
	"contracts/optimism/L1OptimismBridge.sol": {
		"L1OptimismBridge": {
			"abi": [
				{
					"anonymous": false,
					"inputs": [
						{
							"indexed": true,
							"internalType": "bytes32",
							"name": "msgHash",
							"type": "bytes32"
						}
					],
					"name": "FailedRelayedMessage",
					"type": "event"
				},
				{
					"anonymous": false,
					"inputs": [
						{
							"indexed": true,
							"internalType": "bytes32",
							"name": "msgHash",
							"type": "bytes32"
						}
					],
					"name": "RelayedMessage",
					"type": "event"
				},
				{
					"anonymous": false,
					"inputs": [
						{
							"indexed": true,
							"internalType": "address",
							"name": "target",
							"type": "address"
						},
						{
							"indexed": false,
							"internalType": "address",
							"name": "sender",
							"type": "address"
						},
						{
							"indexed": false,
							"internalType": "bytes",
							"name": "message",
							"type": "bytes"
						},
						{
							"indexed": false,
							"internalType": "uint256",
							"name": "messageNonce",
							"type": "uint256"
						},
						{
							"indexed": false,
							"internalType": "uint256",
							"name": "gasLimit",
							"type": "uint256"
						}
					],
					"name": "SentMessage",
					"type": "event"
				},
				{
					"inputs": [
						{
							"internalType": "address",
							"name": "from",
							"type": "address"
						},
						{
							"internalType": "address",
							"name": "to",
							"type": "address"
						},
						{
							"internalType": "bytes",
							"name": "data",
							"type": "bytes"
						}
					],
					"name": "relay",
					"outputs": [],
					"stateMutability": "nonpayable",
					"type": "function"
				},
				{
					"inputs": [
						{
							"internalType": "address",
							"name": "_target",
							"type": "address"
						},
						{
							"internalType": "bytes",
							"name": "_message",
							"type": "bytes"
						},
						{
							"internalType": "uint32",
							"name": "_gasLimit",
							"type": "uint32"
						}
					],
					"name": "sendMessage",
					"outputs": [],
					"stateMutability": "nonpayable",
					"type": "function"
				},
				{
					"inputs": [],
					"name": "xDomainMessageSender",
					"outputs": [
						{
							"internalType": "address",
							"name": "",
							"type": "address"
						}
					],
					"stateMutability": "view",
					"type": "function"
				}
			],
			"devdoc": {
				"kind": "dev",
				"methods": {
					"sendMessage(address,bytes,uint32)": {
						"params": {
							"_gasLimit": "Gas limit for the provided message.",
							"_message": "Message to send to the target.",
							"_target": "Target contract address."
						}
					}
				},
				"version": 1
			},
			"evm": {
				"assembly": "    /* \"contracts/optimism/L1OptimismBridge.sol\":175:600  contract L1OptimismBridge is ICrossDomainMessenger, ZkEvmMagicNumbers, OptimismWrapper {... */\n  mstore(0x40, 0x80)\n  callvalue\n  dup1\n  iszero\n  tag_1\n  jumpi\n  0x00\n  dup1\n  revert\ntag_1:\n  pop\n  dataSize(sub_0)\n  dup1\n  dataOffset(sub_0)\n  0x00\n  codecopy\n  0x00\n  return\nstop\n\nsub_0: assembly {\n        /* \"contracts/optimism/L1OptimismBridge.sol\":175:600  contract L1OptimismBridge is ICrossDomainMessenger, ZkEvmMagicNumbers, OptimismWrapper {... */\n      mstore(0x40, 0x80)\n      callvalue\n      dup1\n      iszero\n      tag_1\n      jumpi\n      0x00\n      dup1\n      revert\n    tag_1:\n      pop\n      jumpi(tag_2, lt(calldatasize, 0x04))\n      shr(0xe0, calldataload(0x00))\n      dup1\n      0x3dbb202b\n      eq\n      tag_3\n      jumpi\n      dup1\n      0x6e296e45\n      eq\n      tag_4\n      jumpi\n      dup1\n      0xb29e0acf\n      eq\n      tag_5\n      jumpi\n    tag_2:\n      0x00\n      dup1\n      revert\n        /* \"contracts/optimism/L1OptimismBridge.sol\":266:457  function sendMessage(... */\n    tag_3:\n      tag_6\n      tag_7\n      calldatasize\n      0x04\n      tag_8\n      jump\t// in\n    tag_7:\n      tag_9\n      jump\t// in\n    tag_6:\n      stop\n        /* \"contracts/optimism/OptimismWrapper.sol\":450:659  function xDomainMessageSender () external view returns (address) {... */\n    tag_4:\n      tag_10\n      tag_11\n      jump\t// in\n    tag_10:\n      mload(0x40)\n      sub(shl(0xa0, 0x01), 0x01)\n        /* \"#utility.yul\":1387:1419   */\n      swap1\n      swap2\n      and\n        /* \"#utility.yul\":1369:1420   */\n      dup2\n      mstore\n        /* \"#utility.yul\":1357:1359   */\n      0x20\n        /* \"#utility.yul\":1342:1360   */\n      add\n        /* \"contracts/optimism/OptimismWrapper.sol\":450:659  function xDomainMessageSender () external view returns (address) {... */\n      mload(0x40)\n      dup1\n      swap2\n      sub\n      swap1\n      return\n        /* \"contracts/optimism/L1OptimismBridge.sol\":461:598  function relay (address from, address to, bytes calldata data) external {... */\n    tag_5:\n      tag_6\n      tag_15\n      calldatasize\n      0x04\n      tag_16\n      jump\t// in\n    tag_15:\n      tag_17\n      jump\t// in\n        /* \"contracts/optimism/L1OptimismBridge.sol\":266:457  function sendMessage(... */\n    tag_9:\n        /* \"contracts/optimism/L1OptimismBridge.sol\":378:452  _wrapMessage(L1_BRIDGE, L2_OPTIMISM_WRAPPER, _target, _message, _gasLimit) */\n      tag_19\n        /* \"contracts/ZkEvmMagicNumbers.sol\":326:368  0x936a70C0b28532AA22240dce21f89a8399d6ac60 */\n      0x936a70c0b28532aa22240dce21f89a8399d6ac60\n      add(shl(0x99, 0x21), 0x07)\n        /* \"contracts/optimism/L1OptimismBridge.sol\":423:430  _target */\n      dup7\n        /* \"contracts/optimism/L1OptimismBridge.sol\":432:440  _message */\n      dup7\n      dup7\n        /* \"contracts/optimism/L1OptimismBridge.sol\":442:451  _gasLimit */\n      dup7\n        /* \"contracts/optimism/L1OptimismBridge.sol\":378:390  _wrapMessage */\n      tag_20\n        /* \"contracts/optimism/L1OptimismBridge.sol\":378:452  _wrapMessage(L1_BRIDGE, L2_OPTIMISM_WRAPPER, _target, _message, _gasLimit) */\n      jump\t// in\n    tag_19:\n        /* \"contracts/optimism/L1OptimismBridge.sol\":266:457  function sendMessage(... */\n      pop\n      pop\n      pop\n      pop\n      jump\t// out\n        /* \"contracts/optimism/OptimismWrapper.sol\":450:659  function xDomainMessageSender () external view returns (address) {... */\n    tag_11:\n        /* \"contracts/optimism/OptimismWrapper.sol\":506:513  address */\n      0x00\n        /* \"contracts/optimism/OptimismWrapper.sol\":536:552  xDomainMsgSender */\n      dup1\n      sload\n      sub(shl(0xa0, 0x01), 0x01)\n      and\n      not(0xdeac)\n        /* \"contracts/optimism/OptimismWrapper.sol\":536:578  xDomainMsgSender != DEFAULT_XDOMAIN_SENDER */\n      add\n        /* \"contracts/optimism/OptimismWrapper.sol\":521:625  require(... */\n      tag_22\n      jumpi\n      mload(0x40)\n      shl(0xe5, 0x461bcd)\n      dup2\n      mstore\n        /* \"#utility.yul\":2323:2325   */\n      0x20\n        /* \"contracts/optimism/OptimismWrapper.sol\":521:625  require(... */\n      0x04\n      dup3\n      add\n        /* \"#utility.yul\":2305:2326   */\n      mstore\n        /* \"#utility.yul\":2362:2364   */\n      0x1f\n        /* \"#utility.yul\":2342:2360   */\n      0x24\n      dup3\n      add\n        /* \"#utility.yul\":2335:2365   */\n      mstore\n        /* \"#utility.yul\":2401:2434   */\n      0x78446f6d61696e4d65737361676553656e646572206973206e6f742073657400\n        /* \"#utility.yul\":2381:2399   */\n      0x44\n      dup3\n      add\n        /* \"#utility.yul\":2374:2435   */\n      mstore\n        /* \"#utility.yul\":2452:2470   */\n      0x64\n      add\n        /* \"contracts/optimism/OptimismWrapper.sol\":521:625  require(... */\n    tag_23:\n      mload(0x40)\n      dup1\n      swap2\n      sub\n      swap1\n      revert\n    tag_22:\n      pop\n        /* \"contracts/optimism/OptimismWrapper.sol\":638:654  xDomainMsgSender */\n      and(sub(shl(0xa0, 0x01), 0x01), sload(0x00))\n      swap1\n        /* \"contracts/optimism/OptimismWrapper.sol\":450:659  function xDomainMessageSender () external view returns (address) {... */\n      jump\t// out\n        /* \"contracts/optimism/L1OptimismBridge.sol\":461:598  function relay (address from, address to, bytes calldata data) external {... */\n    tag_17:\n        /* \"contracts/optimism/L1OptimismBridge.sol\":539:593  _relay(L1_BRIDGE, L2_OPTIMISM_WRAPPER, from, to, data) */\n      tag_19\n        /* \"contracts/ZkEvmMagicNumbers.sol\":326:368  0x936a70C0b28532AA22240dce21f89a8399d6ac60 */\n      0x936a70c0b28532aa22240dce21f89a8399d6ac60\n      add(shl(0x99, 0x21), 0x07)\n        /* \"contracts/optimism/L1OptimismBridge.sol\":578:582  from */\n      dup7\n        /* \"contracts/optimism/L1OptimismBridge.sol\":584:586  to */\n      dup7\n        /* \"contracts/optimism/L1OptimismBridge.sol\":588:592  data */\n      dup7\n      dup7\n        /* \"contracts/optimism/L1OptimismBridge.sol\":539:545  _relay */\n      tag_27\n        /* \"contracts/optimism/L1OptimismBridge.sol\":539:593  _relay(L1_BRIDGE, L2_OPTIMISM_WRAPPER, from, to, data) */\n      jump\t// in\n        /* \"contracts/optimism/OptimismWrapper.sol\":663:1270  function _wrapMessage (... */\n    tag_20:\n        /* \"contracts/optimism/OptimismWrapper.sol\":823:834  uint256 fee */\n      0x00\n      dup1\n        /* \"contracts/optimism/OptimismWrapper.sol\":863:887  block.timestamp + 1 days */\n      tag_29\n        /* \"contracts/optimism/OptimismWrapper.sol\":863:878  block.timestamp */\n      timestamp\n        /* \"contracts/optimism/OptimismWrapper.sol\":881:887  1 days */\n      0x015180\n        /* \"contracts/optimism/OptimismWrapper.sol\":863:887  block.timestamp + 1 days */\n      tag_30\n      jump\t// in\n    tag_29:\n        /* \"contracts/optimism/OptimismWrapper.sol\":844:887  uint256 deadline = block.timestamp + 1 days */\n      swap1\n      pop\n        /* \"contracts/optimism/OptimismWrapper.sol\":893:906  uint256 nonce */\n      0x00\n        /* \"contracts/optimism/OptimismWrapper.sol\":967:978  timestamp() */\n      timestamp\n        /* \"contracts/optimism/OptimismWrapper.sol\":953:965  difficulty() */\n      difficulty\n        /* \"contracts/optimism/OptimismWrapper.sol\":949:979  add(difficulty(), timestamp()) */\n      add\n        /* \"contracts/optimism/OptimismWrapper.sol\":942:947  gas() */\n      gas\n        /* \"contracts/optimism/OptimismWrapper.sol\":938:980  add(gas(), add(difficulty(), timestamp())) */\n      add\n        /* \"contracts/optimism/OptimismWrapper.sol\":929:980  nonce := add(gas(), add(difficulty(), timestamp())) */\n      swap1\n      pop\n        /* \"contracts/optimism/OptimismWrapper.sol\":992:1009  bytes memory data */\n      0x00\n        /* \"contracts/optimism/OptimismWrapper.sol\":1068:1078  msg.sender */\n      caller\n        /* \"contracts/optimism/OptimismWrapper.sol\":1080:1087  _target */\n      dup9\n        /* \"contracts/optimism/OptimismWrapper.sol\":1089:1097  _message */\n      dup9\n      dup9\n        /* \"contracts/optimism/OptimismWrapper.sol\":1012:1098  abi.encodeWithSignature('relay(address,address,bytes)', msg.sender, _target, _message) */\n      add(0x24, mload(0x40))\n      tag_31\n      swap5\n      swap4\n      swap3\n      swap2\n      swap1\n      tag_32\n      jump\t// in\n    tag_31:\n      0x40\n      dup1\n      mload\n      not(0x1f)\n      dup2\n      dup5\n      sub\n      add\n      dup2\n      mstore\n      swap2\n      dup2\n      mstore\n      0x20\n      dup3\n      add\n      dup1\n      mload\n      sub(shl(0xe0, 0x01), 0x01)\n      and\n      shl(0xe0, 0xb29e0acf)\n      or\n      swap1\n      mstore\n        /* \"contracts/optimism/OptimismWrapper.sol\":1104:1193  IZkEvmMessageDispatcher(fromBridge).dispatchMessage(toBridge, fee, deadline, nonce, data) */\n      mload\n      shl(0xe0, 0x5d4d3bcd)\n      dup2\n      mstore\n        /* \"contracts/optimism/OptimismWrapper.sol\":1012:1098  abi.encodeWithSignature('relay(address,address,bytes)', msg.sender, _target, _message) */\n      swap1\n      swap2\n      pop\n      sub(shl(0xa0, 0x01), 0x01)\n        /* \"contracts/optimism/OptimismWrapper.sol\":1104:1155  IZkEvmMessageDispatcher(fromBridge).dispatchMessage */\n      dup12\n      and\n      swap1\n      0x5d4d3bcd\n      swap1\n        /* \"contracts/optimism/OptimismWrapper.sol\":1104:1193  IZkEvmMessageDispatcher(fromBridge).dispatchMessage(toBridge, fee, deadline, nonce, data) */\n      tag_33\n      swap1\n        /* \"contracts/optimism/OptimismWrapper.sol\":1156:1164  toBridge */\n      dup13\n      swap1\n        /* \"contracts/optimism/OptimismWrapper.sol\":1166:1169  fee */\n      dup9\n      swap1\n        /* \"contracts/optimism/OptimismWrapper.sol\":1171:1179  deadline */\n      dup9\n      swap1\n        /* \"contracts/optimism/OptimismWrapper.sol\":1181:1186  nonce */\n      dup9\n      swap1\n        /* \"contracts/optimism/OptimismWrapper.sol\":1012:1098  abi.encodeWithSignature('relay(address,address,bytes)', msg.sender, _target, _message) */\n      dup9\n      swap1\n        /* \"contracts/optimism/OptimismWrapper.sol\":1104:1193  IZkEvmMessageDispatcher(fromBridge).dispatchMessage(toBridge, fee, deadline, nonce, data) */\n      0x04\n      add\n      tag_34\n      jump\t// in\n    tag_33:\n      0x20\n      mload(0x40)\n      dup1\n      dup4\n      sub\n      dup2\n      0x00\n      dup8\n      gas\n      call\n      iszero\n      dup1\n      iszero\n      tag_36\n      jumpi\n      returndatasize\n      0x00\n      dup1\n      returndatacopy\n      revert(0x00, returndatasize)\n    tag_36:\n      pop\n      pop\n      pop\n      pop\n      mload(0x40)\n      returndatasize\n      not(0x1f)\n      0x1f\n      dup3\n      add\n      and\n      dup3\n      add\n      dup1\n      0x40\n      mstore\n      pop\n      dup2\n      add\n      swap1\n      tag_37\n      swap2\n      swap1\n      tag_38\n      jump\t// in\n    tag_37:\n      pop\n        /* \"contracts/optimism/OptimismWrapper.sol\":1217:1224  _target */\n      dup8\n      sub(shl(0xa0, 0x01), 0x01)\n        /* \"contracts/optimism/OptimismWrapper.sol\":1205:1265  SentMessage(_target, msg.sender, _message, nonce, _gasLimit) */\n      and\n      0xcb0f7ffd78f9aee47a248fae8db181db6eee833039123e026dcbff529522e52a\n        /* \"contracts/optimism/OptimismWrapper.sol\":1226:1236  msg.sender */\n      caller\n        /* \"contracts/optimism/OptimismWrapper.sol\":1238:1246  _message */\n      dup10\n      dup10\n        /* \"contracts/optimism/OptimismWrapper.sol\":1248:1253  nonce */\n      dup7\n        /* \"contracts/optimism/OptimismWrapper.sol\":1255:1264  _gasLimit */\n      dup11\n        /* \"contracts/optimism/OptimismWrapper.sol\":1205:1265  SentMessage(_target, msg.sender, _message, nonce, _gasLimit) */\n      mload(0x40)\n      tag_39\n      swap6\n      swap5\n      swap4\n      swap3\n      swap2\n      swap1\n      tag_40\n      jump\t// in\n    tag_39:\n      mload(0x40)\n      dup1\n      swap2\n      sub\n      swap1\n      log2\n        /* \"contracts/optimism/OptimismWrapper.sol\":817:1270  {... */\n      pop\n      pop\n      pop\n      pop\n        /* \"contracts/optimism/OptimismWrapper.sol\":663:1270  function _wrapMessage (... */\n      pop\n      pop\n      pop\n      pop\n      pop\n      pop\n      jump\t// out\n        /* \"contracts/optimism/OptimismWrapper.sol\":1274:1633  function _relay (address bridge, address fromWrapper, address from, address to, bytes calldata data) internal {... */\n    tag_27:\n        /* \"contracts/optimism/OptimismWrapper.sol\":1398:1408  msg.sender */\n      caller\n      sub(shl(0xa0, 0x01), 0x01)\n        /* \"contracts/optimism/OptimismWrapper.sol\":1398:1418  msg.sender == bridge */\n      dup8\n      and\n      eq\n        /* \"contracts/optimism/OptimismWrapper.sol\":1390:1429  require(msg.sender == bridge, 'sender') */\n      tag_42\n      jumpi\n      mload(0x40)\n      shl(0xe5, 0x461bcd)\n      dup2\n      mstore\n        /* \"#utility.yul\":5190:5192   */\n      0x20\n        /* \"contracts/optimism/OptimismWrapper.sol\":1390:1429  require(msg.sender == bridge, 'sender') */\n      0x04\n      dup3\n      add\n        /* \"#utility.yul\":5172:5193   */\n      mstore\n        /* \"#utility.yul\":5229:5230   */\n      0x06\n        /* \"#utility.yul\":5209:5227   */\n      0x24\n      dup3\n      add\n        /* \"#utility.yul\":5202:5231   */\n      mstore\n      shl(0xd1, 0x39b2b73232b9)\n        /* \"#utility.yul\":5247:5265   */\n      0x44\n      dup3\n      add\n        /* \"#utility.yul\":5240:5276   */\n      mstore\n        /* \"#utility.yul\":5293:5311   */\n      0x64\n      add\n        /* \"contracts/optimism/OptimismWrapper.sol\":1390:1429  require(msg.sender == bridge, 'sender') */\n      tag_23\n        /* \"#utility.yul\":4988:5317   */\n      jump\n        /* \"contracts/optimism/OptimismWrapper.sol\":1390:1429  require(msg.sender == bridge, 'sender') */\n    tag_42:\n        /* \"contracts/optimism/OptimismWrapper.sol\":1502:1513  fromWrapper */\n      dup5\n      sub(shl(0xa0, 0x01), 0x01)\n        /* \"contracts/optimism/OptimismWrapper.sol\":1443:1513  IZkEvmMessageDelivererWithProof(bridge).messageOrigin() == fromWrapper */\n      and\n        /* \"contracts/optimism/OptimismWrapper.sol\":1475:1481  bridge */\n      dup7\n      sub(shl(0xa0, 0x01), 0x01)\n        /* \"contracts/optimism/OptimismWrapper.sol\":1443:1496  IZkEvmMessageDelivererWithProof(bridge).messageOrigin */\n      and\n      0x3b1623fe\n        /* \"contracts/optimism/OptimismWrapper.sol\":1443:1498  IZkEvmMessageDelivererWithProof(bridge).messageOrigin() */\n      mload(0x40)\n      dup2\n      0xffffffff\n      and\n      0xe0\n      shl\n      dup2\n      mstore\n      0x04\n      add\n      0x20\n      mload(0x40)\n      dup1\n      dup4\n      sub\n      dup2\n      dup7\n      gas\n      staticcall\n      iszero\n      dup1\n      iszero\n      tag_46\n      jumpi\n      returndatasize\n      0x00\n      dup1\n      returndatacopy\n      revert(0x00, returndatasize)\n    tag_46:\n      pop\n      pop\n      pop\n      pop\n      mload(0x40)\n      returndatasize\n      not(0x1f)\n      0x1f\n      dup3\n      add\n      and\n      dup3\n      add\n      dup1\n      0x40\n      mstore\n      pop\n      dup2\n      add\n      swap1\n      tag_47\n      swap2\n      swap1\n      tag_48\n      jump\t// in\n    tag_47:\n      sub(shl(0xa0, 0x01), 0x01)\n        /* \"contracts/optimism/OptimismWrapper.sol\":1443:1513  IZkEvmMessageDelivererWithProof(bridge).messageOrigin() == fromWrapper */\n      and\n      eq\n        /* \"contracts/optimism/OptimismWrapper.sol\":1435:1532  require(IZkEvmMessageDelivererWithProof(bridge).messageOrigin() == fromWrapper, 'message origin') */\n      tag_49\n      jumpi\n      mload(0x40)\n      shl(0xe5, 0x461bcd)\n      dup2\n      mstore\n        /* \"#utility.yul\":5780:5782   */\n      0x20\n        /* \"contracts/optimism/OptimismWrapper.sol\":1435:1532  require(IZkEvmMessageDelivererWithProof(bridge).messageOrigin() == fromWrapper, 'message origin') */\n      0x04\n      dup3\n      add\n        /* \"#utility.yul\":5762:5783   */\n      mstore\n        /* \"#utility.yul\":5819:5821   */\n      0x0e\n        /* \"#utility.yul\":5799:5817   */\n      0x24\n      dup3\n      add\n        /* \"#utility.yul\":5792:5822   */\n      mstore\n      shl(0x91, 0x36b2b9b9b0b3b29037b934b3b4b7)\n        /* \"#utility.yul\":5838:5856   */\n      0x44\n      dup3\n      add\n        /* \"#utility.yul\":5831:5875   */\n      mstore\n        /* \"#utility.yul\":5892:5910   */\n      0x64\n      add\n        /* \"contracts/optimism/OptimismWrapper.sol\":1435:1532  require(IZkEvmMessageDelivererWithProof(bridge).messageOrigin() == fromWrapper, 'message origin') */\n      tag_23\n        /* \"#utility.yul\":5578:5916   */\n      jump\n        /* \"contracts/optimism/OptimismWrapper.sol\":1435:1532  require(IZkEvmMessageDelivererWithProof(bridge).messageOrigin() == fromWrapper, 'message origin') */\n    tag_49:\n        /* \"contracts/optimism/OptimismWrapper.sol\":1539:1555  xDomainMsgSender */\n      0x00\n        /* \"contracts/optimism/OptimismWrapper.sol\":1539:1562  xDomainMsgSender = from */\n      dup1\n      sload\n      not(sub(shl(0xa0, 0x01), 0x01))\n      and\n      sub(shl(0xa0, 0x01), 0x01)\n      dup7\n      and\n      or\n      dup2\n      sstore\n        /* \"contracts/optimism/OptimismWrapper.sol\":1568:1593  _callAccount(to, 0, data) */\n      tag_52\n      swap1\n        /* \"contracts/optimism/OptimismWrapper.sol\":1581:1583  to */\n      dup5\n      swap1\n        /* \"contracts/optimism/OptimismWrapper.sol\":1588:1592  data */\n      dup5\n      dup5\n        /* \"contracts/optimism/OptimismWrapper.sol\":1568:1580  _callAccount */\n      tag_53\n        /* \"contracts/optimism/OptimismWrapper.sol\":1568:1593  _callAccount(to, 0, data) */\n      jump\t// in\n    tag_52:\n      pop\n      pop\n        /* \"contracts/optimism/OptimismWrapper.sol\":1626:1627  0 */\n      0x00\n        /* \"contracts/optimism/OptimismWrapper.sol\":1599:1628  xDomainMsgSender = address(0) */\n      dup1\n      sload\n      not(sub(shl(0xa0, 0x01), 0x01))\n      and\n      swap1\n      sstore\n      pop\n      pop\n      pop\n      pop\n        /* \"contracts/optimism/OptimismWrapper.sol\":1274:1633  function _relay (address bridge, address fromWrapper, address from, address to, bytes calldata data) internal {... */\n      jump\t// out\n        /* \"contracts/ZkEvmUtils.sol\":379:713  function _callAccount (address to, uint256 value, bytes calldata data) internal {... */\n    tag_53:\n        /* \"contracts/ZkEvmUtils.sol\":493:496  128 */\n      0x80\n        /* \"contracts/ZkEvmUtils.sol\":534:545  data.length */\n      dup2\n        /* \"contracts/ZkEvmUtils.sol\":521:532  data.offset */\n      dup4\n        /* \"contracts/ZkEvmUtils.sol\":516:519  ptr */\n      dup3\n        /* \"contracts/ZkEvmUtils.sol\":503:546  calldatacopy(ptr, data.offset, data.length) */\n      calldatacopy\n        /* \"contracts/ZkEvmUtils.sol\":607:608  0 */\n      0x00\n        /* \"contracts/ZkEvmUtils.sol\":604:605  0 */\n      dup1\n        /* \"contracts/ZkEvmUtils.sol\":591:602  data.length */\n      dup4\n        /* \"contracts/ZkEvmUtils.sol\":586:589  ptr */\n      dup4\n        /* \"contracts/ZkEvmUtils.sol\":579:584  value */\n      dup8\n        /* \"contracts/ZkEvmUtils.sol\":575:577  to */\n      dup10\n        /* \"contracts/ZkEvmUtils.sol\":568:573  gas() */\n      gas\n        /* \"contracts/ZkEvmUtils.sol\":563:609  call(gas(), to, value, ptr, data.length, 0, 0) */\n      call\n        /* \"contracts/ZkEvmUtils.sol\":553:703  if iszero(call(gas(), to, value, ptr, data.length, 0, 0)) {... */\n      tag_55\n      jumpi\n        /* \"contracts/ZkEvmUtils.sol\":642:658  returndatasize() */\n      returndatasize\n        /* \"contracts/ZkEvmUtils.sol\":639:640  0 */\n      0x00\n        /* \"contracts/ZkEvmUtils.sol\":636:637  0 */\n      dup1\n        /* \"contracts/ZkEvmUtils.sol\":621:659  returndatacopy(0, 0, returndatasize()) */\n      returndatacopy\n        /* \"contracts/ZkEvmUtils.sol\":678:694  returndatasize() */\n      returndatasize\n        /* \"contracts/ZkEvmUtils.sol\":675:676  0 */\n      0x00\n        /* \"contracts/ZkEvmUtils.sol\":668:695  revert(0, returndatasize()) */\n      revert\n        /* \"contracts/ZkEvmUtils.sol\":553:703  if iszero(call(gas(), to, value, ptr, data.length, 0, 0)) {... */\n    tag_55:\n      pop\n        /* \"contracts/ZkEvmUtils.sol\":379:713  function _callAccount (address to, uint256 value, bytes calldata data) internal {... */\n      pop\n      pop\n      pop\n      pop\n      jump\t// out\n        /* \"#utility.yul\":14:145   */\n    tag_56:\n      sub(shl(0xa0, 0x01), 0x01)\n        /* \"#utility.yul\":89:120   */\n      dup2\n      and\n        /* \"#utility.yul\":79:121   */\n      dup2\n      eq\n        /* \"#utility.yul\":69:139   */\n      tag_61\n      jumpi\n        /* \"#utility.yul\":135:136   */\n      0x00\n        /* \"#utility.yul\":132:133   */\n      dup1\n        /* \"#utility.yul\":125:137   */\n      revert\n        /* \"#utility.yul\":69:139   */\n    tag_61:\n        /* \"#utility.yul\":14:145   */\n      pop\n      jump\t// out\n        /* \"#utility.yul\":150:497   */\n    tag_57:\n        /* \"#utility.yul\":201:209   */\n      0x00\n        /* \"#utility.yul\":211:217   */\n      dup1\n        /* \"#utility.yul\":265:268   */\n      dup4\n        /* \"#utility.yul\":258:262   */\n      0x1f\n        /* \"#utility.yul\":250:256   */\n      dup5\n        /* \"#utility.yul\":246:263   */\n      add\n        /* \"#utility.yul\":242:269   */\n      slt\n        /* \"#utility.yul\":232:287   */\n      tag_63\n      jumpi\n        /* \"#utility.yul\":283:284   */\n      0x00\n        /* \"#utility.yul\":280:281   */\n      dup1\n        /* \"#utility.yul\":273:285   */\n      revert\n        /* \"#utility.yul\":232:287   */\n    tag_63:\n      pop\n        /* \"#utility.yul\":306:326   */\n      dup2\n      calldataload\n        /* \"#utility.yul\":349:367   */\n      0xffffffffffffffff\n        /* \"#utility.yul\":338:368   */\n      dup2\n      gt\n        /* \"#utility.yul\":335:385   */\n      iszero\n      tag_64\n      jumpi\n        /* \"#utility.yul\":381:382   */\n      0x00\n        /* \"#utility.yul\":378:379   */\n      dup1\n        /* \"#utility.yul\":371:383   */\n      revert\n        /* \"#utility.yul\":335:385   */\n    tag_64:\n        /* \"#utility.yul\":418:422   */\n      0x20\n        /* \"#utility.yul\":410:416   */\n      dup4\n        /* \"#utility.yul\":406:423   */\n      add\n        /* \"#utility.yul\":394:423   */\n      swap2\n      pop\n        /* \"#utility.yul\":470:473   */\n      dup4\n        /* \"#utility.yul\":463:467   */\n      0x20\n        /* \"#utility.yul\":454:460   */\n      dup3\n        /* \"#utility.yul\":446:452   */\n      dup6\n        /* \"#utility.yul\":442:461   */\n      add\n        /* \"#utility.yul\":438:468   */\n      add\n        /* \"#utility.yul\":435:474   */\n      gt\n        /* \"#utility.yul\":432:491   */\n      iszero\n      tag_65\n      jumpi\n        /* \"#utility.yul\":487:488   */\n      0x00\n        /* \"#utility.yul\":484:485   */\n      dup1\n        /* \"#utility.yul\":477:489   */\n      revert\n        /* \"#utility.yul\":432:491   */\n    tag_65:\n        /* \"#utility.yul\":150:497   */\n      swap3\n      pop\n      swap3\n      swap1\n      pop\n      jump\t// out\n        /* \"#utility.yul\":502:1218   */\n    tag_8:\n        /* \"#utility.yul\":589:595   */\n      0x00\n        /* \"#utility.yul\":597:603   */\n      dup1\n        /* \"#utility.yul\":605:611   */\n      0x00\n        /* \"#utility.yul\":613:619   */\n      dup1\n        /* \"#utility.yul\":666:668   */\n      0x60\n        /* \"#utility.yul\":654:663   */\n      dup6\n        /* \"#utility.yul\":645:652   */\n      dup8\n        /* \"#utility.yul\":641:664   */\n      sub\n        /* \"#utility.yul\":637:669   */\n      slt\n        /* \"#utility.yul\":634:686   */\n      iszero\n      tag_67\n      jumpi\n        /* \"#utility.yul\":682:683   */\n      0x00\n        /* \"#utility.yul\":679:680   */\n      dup1\n        /* \"#utility.yul\":672:684   */\n      revert\n        /* \"#utility.yul\":634:686   */\n    tag_67:\n        /* \"#utility.yul\":721:730   */\n      dup5\n        /* \"#utility.yul\":708:731   */\n      calldataload\n        /* \"#utility.yul\":740:771   */\n      tag_68\n        /* \"#utility.yul\":765:770   */\n      dup2\n        /* \"#utility.yul\":740:771   */\n      tag_56\n      jump\t// in\n    tag_68:\n        /* \"#utility.yul\":790:795   */\n      swap4\n      pop\n        /* \"#utility.yul\":846:848   */\n      0x20\n        /* \"#utility.yul\":831:849   */\n      dup6\n      add\n        /* \"#utility.yul\":818:850   */\n      calldataload\n        /* \"#utility.yul\":873:891   */\n      0xffffffffffffffff\n        /* \"#utility.yul\":862:892   */\n      dup2\n      gt\n        /* \"#utility.yul\":859:909   */\n      iszero\n      tag_69\n      jumpi\n        /* \"#utility.yul\":905:906   */\n      0x00\n        /* \"#utility.yul\":902:903   */\n      dup1\n        /* \"#utility.yul\":895:907   */\n      revert\n        /* \"#utility.yul\":859:909   */\n    tag_69:\n        /* \"#utility.yul\":944:1002   */\n      tag_70\n        /* \"#utility.yul\":994:1001   */\n      dup8\n        /* \"#utility.yul\":985:991   */\n      dup3\n        /* \"#utility.yul\":974:983   */\n      dup9\n        /* \"#utility.yul\":970:992   */\n      add\n        /* \"#utility.yul\":944:1002   */\n      tag_57\n      jump\t// in\n    tag_70:\n        /* \"#utility.yul\":1021:1029   */\n      swap1\n      swap5\n      pop\n        /* \"#utility.yul\":918:1002   */\n      swap3\n      pop\n      pop\n        /* \"#utility.yul\":1108:1110   */\n      0x40\n        /* \"#utility.yul\":1093:1111   */\n      dup6\n      add\n        /* \"#utility.yul\":1080:1112   */\n      calldataload\n        /* \"#utility.yul\":1156:1166   */\n      0xffffffff\n        /* \"#utility.yul\":1143:1167   */\n      dup2\n      and\n        /* \"#utility.yul\":1131:1168   */\n      dup2\n      eq\n        /* \"#utility.yul\":1121:1186   */\n      tag_71\n      jumpi\n        /* \"#utility.yul\":1182:1183   */\n      0x00\n        /* \"#utility.yul\":1179:1180   */\n      dup1\n        /* \"#utility.yul\":1172:1184   */\n      revert\n        /* \"#utility.yul\":1121:1186   */\n    tag_71:\n        /* \"#utility.yul\":502:1218   */\n      swap4\n      swap7\n      swap3\n      swap6\n      pop\n      swap1\n      swap4\n      pop\n      pop\n      jump\t// out\n        /* \"#utility.yul\":1431:2116   */\n    tag_16:\n        /* \"#utility.yul\":1519:1525   */\n      0x00\n        /* \"#utility.yul\":1527:1533   */\n      dup1\n        /* \"#utility.yul\":1535:1541   */\n      0x00\n        /* \"#utility.yul\":1543:1549   */\n      dup1\n        /* \"#utility.yul\":1596:1598   */\n      0x60\n        /* \"#utility.yul\":1584:1593   */\n      dup6\n        /* \"#utility.yul\":1575:1582   */\n      dup8\n        /* \"#utility.yul\":1571:1594   */\n      sub\n        /* \"#utility.yul\":1567:1599   */\n      slt\n        /* \"#utility.yul\":1564:1616   */\n      iszero\n      tag_74\n      jumpi\n        /* \"#utility.yul\":1612:1613   */\n      0x00\n        /* \"#utility.yul\":1609:1610   */\n      dup1\n        /* \"#utility.yul\":1602:1614   */\n      revert\n        /* \"#utility.yul\":1564:1616   */\n    tag_74:\n        /* \"#utility.yul\":1651:1660   */\n      dup5\n        /* \"#utility.yul\":1638:1661   */\n      calldataload\n        /* \"#utility.yul\":1670:1701   */\n      tag_75\n        /* \"#utility.yul\":1695:1700   */\n      dup2\n        /* \"#utility.yul\":1670:1701   */\n      tag_56\n      jump\t// in\n    tag_75:\n        /* \"#utility.yul\":1720:1725   */\n      swap4\n      pop\n        /* \"#utility.yul\":1777:1779   */\n      0x20\n        /* \"#utility.yul\":1762:1780   */\n      dup6\n      add\n        /* \"#utility.yul\":1749:1781   */\n      calldataload\n        /* \"#utility.yul\":1790:1823   */\n      tag_76\n        /* \"#utility.yul\":1749:1781   */\n      dup2\n        /* \"#utility.yul\":1790:1823   */\n      tag_56\n      jump\t// in\n    tag_76:\n        /* \"#utility.yul\":1842:1849   */\n      swap3\n      pop\n        /* \"#utility.yul\":1900:1902   */\n      0x40\n        /* \"#utility.yul\":1885:1903   */\n      dup6\n      add\n        /* \"#utility.yul\":1872:1904   */\n      calldataload\n        /* \"#utility.yul\":1927:1945   */\n      0xffffffffffffffff\n        /* \"#utility.yul\":1916:1946   */\n      dup2\n      gt\n        /* \"#utility.yul\":1913:1963   */\n      iszero\n      tag_77\n      jumpi\n        /* \"#utility.yul\":1959:1960   */\n      0x00\n        /* \"#utility.yul\":1956:1957   */\n      dup1\n        /* \"#utility.yul\":1949:1961   */\n      revert\n        /* \"#utility.yul\":1913:1963   */\n    tag_77:\n        /* \"#utility.yul\":1998:2056   */\n      tag_78\n        /* \"#utility.yul\":2048:2055   */\n      dup8\n        /* \"#utility.yul\":2039:2045   */\n      dup3\n        /* \"#utility.yul\":2028:2037   */\n      dup9\n        /* \"#utility.yul\":2024:2046   */\n      add\n        /* \"#utility.yul\":1998:2056   */\n      tag_57\n      jump\t// in\n    tag_78:\n        /* \"#utility.yul\":1431:2116   */\n      swap6\n      swap9\n      swap5\n      swap8\n      pop\n        /* \"#utility.yul\":2075:2083   */\n      swap6\n      pop\n      pop\n      pop\n      pop\n        /* \"#utility.yul\":1431:2116   */\n      jump\t// out\n        /* \"#utility.yul\":2481:2703   */\n    tag_30:\n        /* \"#utility.yul\":2546:2555   */\n      dup1\n      dup3\n      add\n        /* \"#utility.yul\":2567:2577   */\n      dup1\n      dup3\n      gt\n        /* \"#utility.yul\":2564:2697   */\n      iszero\n      tag_81\n      jumpi\n        /* \"#utility.yul\":2619:2629   */\n      0x4e487b71\n        /* \"#utility.yul\":2614:2617   */\n      0xe0\n        /* \"#utility.yul\":2610:2630   */\n      shl\n        /* \"#utility.yul\":2607:2608   */\n      0x00\n        /* \"#utility.yul\":2600:2631   */\n      mstore\n        /* \"#utility.yul\":2654:2658   */\n      0x11\n        /* \"#utility.yul\":2651:2652   */\n      0x04\n        /* \"#utility.yul\":2644:2659   */\n      mstore\n        /* \"#utility.yul\":2682:2686   */\n      0x24\n        /* \"#utility.yul\":2679:2680   */\n      0x00\n        /* \"#utility.yul\":2672:2687   */\n      revert\n        /* \"#utility.yul\":2564:2697   */\n    tag_81:\n        /* \"#utility.yul\":2481:2703   */\n      swap3\n      swap2\n      pop\n      pop\n      jump\t// out\n        /* \"#utility.yul\":2708:2974   */\n    tag_58:\n        /* \"#utility.yul\":2796:2802   */\n      dup2\n        /* \"#utility.yul\":2791:2794   */\n      dup4\n        /* \"#utility.yul\":2784:2803   */\n      mstore\n        /* \"#utility.yul\":2848:2854   */\n      dup2\n        /* \"#utility.yul\":2841:2846   */\n      dup2\n        /* \"#utility.yul\":2834:2838   */\n      0x20\n        /* \"#utility.yul\":2829:2832   */\n      dup6\n        /* \"#utility.yul\":2825:2839   */\n      add\n        /* \"#utility.yul\":2812:2855   */\n      calldatacopy\n      pop\n        /* \"#utility.yul\":2900:2901   */\n      0x00\n        /* \"#utility.yul\":2875:2891   */\n      dup3\n      dup3\n      add\n        /* \"#utility.yul\":2893:2897   */\n      0x20\n        /* \"#utility.yul\":2871:2898   */\n      swap1\n      dup2\n      add\n        /* \"#utility.yul\":2864:2902   */\n      swap2\n      swap1\n      swap2\n      mstore\n        /* \"#utility.yul\":2956:2958   */\n      0x1f\n        /* \"#utility.yul\":2935:2950   */\n      swap1\n      swap2\n      add\n      not(0x1f)\n        /* \"#utility.yul\":2931:2960   */\n      and\n        /* \"#utility.yul\":2922:2961   */\n      swap1\n      swap2\n      add\n        /* \"#utility.yul\":2918:2968   */\n      add\n      swap1\n        /* \"#utility.yul\":2708:2974   */\n      jump\t// out\n        /* \"#utility.yul\":2979:3421   */\n    tag_32:\n      sub(shl(0xa0, 0x01), 0x01)\n        /* \"#utility.yul\":3230:3245   */\n      dup6\n      dup2\n      and\n        /* \"#utility.yul\":3212:3246   */\n      dup3\n      mstore\n        /* \"#utility.yul\":3282:3297   */\n      dup5\n      and\n        /* \"#utility.yul\":3277:3279   */\n      0x20\n        /* \"#utility.yul\":3262:3280   */\n      dup3\n      add\n        /* \"#utility.yul\":3255:3298   */\n      mstore\n        /* \"#utility.yul\":3334:3336   */\n      0x60\n        /* \"#utility.yul\":3329:3331   */\n      0x40\n        /* \"#utility.yul\":3314:3332   */\n      dup3\n      add\n        /* \"#utility.yul\":3307:3337   */\n      dup2\n      swap1\n      mstore\n        /* \"#utility.yul\":3155:3159   */\n      0x00\n      swap1\n        /* \"#utility.yul\":3354:3415   */\n      tag_84\n      swap1\n        /* \"#utility.yul\":3396:3414   */\n      dup4\n      add\n        /* \"#utility.yul\":3388:3394   */\n      dup5\n        /* \"#utility.yul\":3380:3386   */\n      dup7\n        /* \"#utility.yul\":3354:3415   */\n      tag_58\n      jump\t// in\n    tag_84:\n        /* \"#utility.yul\":3346:3415   */\n      swap7\n        /* \"#utility.yul\":2979:3421   */\n      swap6\n      pop\n      pop\n      pop\n      pop\n      pop\n      pop\n      jump\t// out\n        /* \"#utility.yul\":3426:4288   */\n    tag_34:\n        /* \"#utility.yul\":3714:3715   */\n      0x01\n        /* \"#utility.yul\":3710:3711   */\n      dup1\n        /* \"#utility.yul\":3705:3708   */\n      0xa0\n        /* \"#utility.yul\":3701:3712   */\n      shl\n        /* \"#utility.yul\":3697:3716   */\n      sub\n        /* \"#utility.yul\":3689:3695   */\n      dup7\n        /* \"#utility.yul\":3685:3717   */\n      and\n        /* \"#utility.yul\":3674:3683   */\n      dup2\n        /* \"#utility.yul\":3667:3718   */\n      mstore\n        /* \"#utility.yul\":3648:3652   */\n      0x00\n        /* \"#utility.yul\":3737:3739   */\n      0x20\n        /* \"#utility.yul\":3775:3781   */\n      dup7\n        /* \"#utility.yul\":3770:3772   */\n      dup2\n        /* \"#utility.yul\":3759:3768   */\n      dup5\n        /* \"#utility.yul\":3755:3773   */\n      add\n        /* \"#utility.yul\":3748:3782   */\n      mstore\n        /* \"#utility.yul\":3818:3824   */\n      dup6\n        /* \"#utility.yul\":3813:3815   */\n      0x40\n        /* \"#utility.yul\":3802:3811   */\n      dup5\n        /* \"#utility.yul\":3798:3816   */\n      add\n        /* \"#utility.yul\":3791:3825   */\n      mstore\n        /* \"#utility.yul\":3861:3867   */\n      dup5\n        /* \"#utility.yul\":3856:3858   */\n      0x60\n        /* \"#utility.yul\":3845:3854   */\n      dup5\n        /* \"#utility.yul\":3841:3859   */\n      add\n        /* \"#utility.yul\":3834:3868   */\n      mstore\n        /* \"#utility.yul\":3905:3908   */\n      0xa0\n        /* \"#utility.yul\":3899:3902   */\n      0x80\n        /* \"#utility.yul\":3888:3897   */\n      dup5\n        /* \"#utility.yul\":3884:3903   */\n      add\n        /* \"#utility.yul\":3877:3909   */\n      mstore\n        /* \"#utility.yul\":3938:3944   */\n      dup4\n        /* \"#utility.yul\":3932:3945   */\n      mload\n        /* \"#utility.yul\":3982:3988   */\n      dup1\n        /* \"#utility.yul\":3976:3979   */\n      0xa0\n        /* \"#utility.yul\":3965:3974   */\n      dup6\n        /* \"#utility.yul\":3961:3980   */\n      add\n        /* \"#utility.yul\":3954:3989   */\n      mstore\n        /* \"#utility.yul\":4007:4008   */\n      0x00\n        /* \"#utility.yul\":4017:4158   */\n    tag_86:\n        /* \"#utility.yul\":4031:4037   */\n      dup2\n        /* \"#utility.yul\":4028:4029   */\n      dup2\n        /* \"#utility.yul\":4025:4038   */\n      lt\n        /* \"#utility.yul\":4017:4158   */\n      iszero\n      tag_88\n      jumpi\n        /* \"#utility.yul\":4127:4141   */\n      dup6\n      dup2\n      add\n        /* \"#utility.yul\":4123:4146   */\n      dup4\n      add\n        /* \"#utility.yul\":4117:4147   */\n      mload\n        /* \"#utility.yul\":4092:4109   */\n      dup6\n      dup3\n      add\n        /* \"#utility.yul\":4111:4114   */\n      0xc0\n        /* \"#utility.yul\":4088:4115   */\n      add\n        /* \"#utility.yul\":4081:4148   */\n      mstore\n        /* \"#utility.yul\":4046:4056   */\n      dup3\n      add\n        /* \"#utility.yul\":4017:4158   */\n      jump(tag_86)\n    tag_88:\n        /* \"#utility.yul\":4021:4024   */\n      pop\n        /* \"#utility.yul\":4208:4209   */\n      0x00\n        /* \"#utility.yul\":4202:4205   */\n      0xc0\n        /* \"#utility.yul\":4193:4199   */\n      dup3\n        /* \"#utility.yul\":4182:4191   */\n      dup7\n        /* \"#utility.yul\":4178:4200   */\n      add\n        /* \"#utility.yul\":4174:4206   */\n      add\n        /* \"#utility.yul\":4167:4210   */\n      mstore\n        /* \"#utility.yul\":4278:4281   */\n      0xc0\n        /* \"#utility.yul\":4271:4273   */\n      0x1f\n        /* \"#utility.yul\":4267:4274   */\n      not\n        /* \"#utility.yul\":4262:4264   */\n      0x1f\n        /* \"#utility.yul\":4254:4260   */\n      dup4\n        /* \"#utility.yul\":4250:4265   */\n      add\n        /* \"#utility.yul\":4246:4275   */\n      and\n        /* \"#utility.yul\":4235:4244   */\n      dup6\n        /* \"#utility.yul\":4231:4276   */\n      add\n        /* \"#utility.yul\":4227:4282   */\n      add\n        /* \"#utility.yul\":4219:4282   */\n      swap3\n      pop\n      pop\n      pop\n        /* \"#utility.yul\":3426:4288   */\n      swap7\n      swap6\n      pop\n      pop\n      pop\n      pop\n      pop\n      pop\n      jump\t// out\n        /* \"#utility.yul\":4293:4477   */\n    tag_38:\n        /* \"#utility.yul\":4363:4369   */\n      0x00\n        /* \"#utility.yul\":4416:4418   */\n      0x20\n        /* \"#utility.yul\":4404:4413   */\n      dup3\n        /* \"#utility.yul\":4395:4402   */\n      dup5\n        /* \"#utility.yul\":4391:4414   */\n      sub\n        /* \"#utility.yul\":4387:4419   */\n      slt\n        /* \"#utility.yul\":4384:4436   */\n      iszero\n      tag_90\n      jumpi\n        /* \"#utility.yul\":4432:4433   */\n      0x00\n        /* \"#utility.yul\":4429:4430   */\n      dup1\n        /* \"#utility.yul\":4422:4434   */\n      revert\n        /* \"#utility.yul\":4384:4436   */\n    tag_90:\n      pop\n        /* \"#utility.yul\":4455:4471   */\n      mload\n      swap2\n        /* \"#utility.yul\":4293:4477   */\n      swap1\n      pop\n      jump\t// out\n        /* \"#utility.yul\":4482:4983   */\n    tag_40:\n      sub(shl(0xa0, 0x01), 0x01)\n        /* \"#utility.yul\":4722:4754   */\n      dup7\n      and\n        /* \"#utility.yul\":4704:4755   */\n      dup2\n      mstore\n        /* \"#utility.yul\":4791:4794   */\n      0x80\n        /* \"#utility.yul\":4786:4788   */\n      0x20\n        /* \"#utility.yul\":4771:4789   */\n      dup3\n      add\n        /* \"#utility.yul\":4764:4795   */\n      dup2\n      swap1\n      mstore\n      0x00\n      swap1\n        /* \"#utility.yul\":4812:4874   */\n      tag_92\n      swap1\n        /* \"#utility.yul\":4854:4873   */\n      dup4\n      add\n        /* \"#utility.yul\":4846:4852   */\n      dup7\n        /* \"#utility.yul\":4838:4844   */\n      dup9\n        /* \"#utility.yul\":4812:4874   */\n      tag_58\n      jump\t// in\n    tag_92:\n        /* \"#utility.yul\":4804:4874   */\n      swap1\n      pop\n        /* \"#utility.yul\":4910:4916   */\n      dup4\n        /* \"#utility.yul\":4905:4907   */\n      0x40\n        /* \"#utility.yul\":4894:4903   */\n      dup4\n        /* \"#utility.yul\":4890:4908   */\n      add\n        /* \"#utility.yul\":4883:4917   */\n      mstore\n        /* \"#utility.yul\":4965:4975   */\n      0xffffffff\n        /* \"#utility.yul\":4957:4963   */\n      dup4\n        /* \"#utility.yul\":4953:4976   */\n      and\n        /* \"#utility.yul\":4948:4950   */\n      0x60\n        /* \"#utility.yul\":4937:4946   */\n      dup4\n        /* \"#utility.yul\":4933:4951   */\n      add\n        /* \"#utility.yul\":4926:4977   */\n      mstore\n        /* \"#utility.yul\":4482:4983   */\n      swap7\n      swap6\n      pop\n      pop\n      pop\n      pop\n      pop\n      pop\n      jump\t// out\n        /* \"#utility.yul\":5322:5573   */\n    tag_48:\n        /* \"#utility.yul\":5392:5398   */\n      0x00\n        /* \"#utility.yul\":5445:5447   */\n      0x20\n        /* \"#utility.yul\":5433:5442   */\n      dup3\n        /* \"#utility.yul\":5424:5431   */\n      dup5\n        /* \"#utility.yul\":5420:5443   */\n      sub\n        /* \"#utility.yul\":5416:5448   */\n      slt\n        /* \"#utility.yul\":5413:5465   */\n      iszero\n      tag_95\n      jumpi\n        /* \"#utility.yul\":5461:5462   */\n      0x00\n        /* \"#utility.yul\":5458:5459   */\n      dup1\n        /* \"#utility.yul\":5451:5463   */\n      revert\n        /* \"#utility.yul\":5413:5465   */\n    tag_95:\n        /* \"#utility.yul\":5493:5502   */\n      dup2\n        /* \"#utility.yul\":5487:5503   */\n      mload\n        /* \"#utility.yul\":5512:5543   */\n      tag_96\n        /* \"#utility.yul\":5537:5542   */\n      dup2\n        /* \"#utility.yul\":5512:5543   */\n      tag_56\n      jump\t// in\n    tag_96:\n        /* \"#utility.yul\":5562:5567   */\n      swap4\n        /* \"#utility.yul\":5322:5573   */\n      swap3\n      pop\n      pop\n      pop\n      jump\t// out\n\n    auxdata: 0xa2646970667358221220b0caaa003647970bb3d89d63ffa9e3abfab617dc000e8a909f1130116928f31b64736f6c63430008100033\n}\n",
				"bytecode": {
					"linkReferences": {},
					"object": "608060405234801561001057600080fd5b506106c8806100206000396000f3fe608060405234801561001057600080fd5b50600436106100415760003560e01c80633dbb202b146100465780636e296e451461005b578063b29e0acf1461007f575b600080fd5b610059610054366004610442565b610092565b005b6100636100c1565b6040516001600160a01b03909116815260200160405180910390f35b61005961008d3660046104b3565b610134565b6100bb73936a70c0b28532aa22240dce21f89a8399d6ac606007602160991b018686868661015d565b50505050565b600080546001600160a01b031661deac19016101245760405162461bcd60e51b815260206004820152601f60248201527f78446f6d61696e4d65737361676553656e646572206973206e6f74207365740060448201526064015b60405180910390fd5b506000546001600160a01b031690565b6100bb73936a70c0b28532aa22240dce21f89a8399d6ac606007602160991b0186868686610289565b60008061016d4262015180610518565b905060004244015a0190506000338888886040516024016101919493929190610568565b60408051601f198184030181529181526020820180516001600160e01b031663b29e0acf60e01b17905251635d4d3bcd60e01b81529091506001600160a01b038b1690635d4d3bcd906101f0908c90889088908890889060040161059f565b6020604051808303816000875af115801561020f573d6000803e3d6000fd5b505050506040513d601f19601f820116820180604052508101906102339190610612565b50876001600160a01b03167fcb0f7ffd78f9aee47a248fae8db181db6eee833039123e026dcbff529522e52a338989868a60405161027595949392919061062b565b60405180910390a250505050505050505050565b336001600160a01b038716146102ca5760405162461bcd60e51b815260206004820152600660248201526539b2b73232b960d11b604482015260640161011b565b846001600160a01b0316866001600160a01b0316633b1623fe6040518163ffffffff1660e01b8152600401602060405180830381865afa158015610312573d6000803e3d6000fd5b505050506040513d601f19601f82011682018060405250810190610336919061066e565b6001600160a01b03161461037d5760405162461bcd60e51b815260206004820152600e60248201526d36b2b9b9b0b3b29037b934b3b4b760911b604482015260640161011b565b600080546001600160a01b0319166001600160a01b0386161781556103a590849084846103bd565b5050600080546001600160a01b031916905550505050565b608081838237600080838387895af16103da573d6000803e3d6000fd5b5050505050565b6001600160a01b03811681146103f657600080fd5b50565b60008083601f84011261040b57600080fd5b50813567ffffffffffffffff81111561042357600080fd5b60208301915083602082850101111561043b57600080fd5b9250929050565b6000806000806060858703121561045857600080fd5b8435610463816103e1565b9350602085013567ffffffffffffffff81111561047f57600080fd5b61048b878288016103f9565b909450925050604085013563ffffffff811681146104a857600080fd5b939692955090935050565b600080600080606085870312156104c957600080fd5b84356104d4816103e1565b935060208501356104e4816103e1565b9250604085013567ffffffffffffffff81111561050057600080fd5b61050c878288016103f9565b95989497509550505050565b8082018082111561053957634e487b7160e01b600052601160045260246000fd5b92915050565b81835281816020850137506000828201602090810191909152601f909101601f19169091010190565b6001600160a01b03858116825284166020820152606060408201819052600090610595908301848661053f565b9695505050505050565b60018060a01b038616815260006020868184015285604084015284606084015260a0608084015283518060a085015260005b818110156105ed5785810183015185820160c0015282016105d1565b50600060c0828601015260c0601f19601f830116850101925050509695505050505050565b60006020828403121561062457600080fd5b5051919050565b6001600160a01b0386168152608060208201819052600090610650908301868861053f565b905083604083015263ffffffff831660608301529695505050505050565b60006020828403121561068057600080fd5b815161068b816103e1565b939250505056fea2646970667358221220b0caaa003647970bb3d89d63ffa9e3abfab617dc000e8a909f1130116928f31b64736f6c63430008100033",
					"opcodes": "PUSH1 0x80 PUSH1 0x40 MSTORE CALLVALUE DUP1 ISZERO PUSH2 0x10 JUMPI PUSH1 0x0 DUP1 REVERT JUMPDEST POP PUSH2 0x6C8 DUP1 PUSH2 0x20 PUSH1 0x0 CODECOPY PUSH1 0x0 RETURN INVALID PUSH1 0x80 PUSH1 0x40 MSTORE CALLVALUE DUP1 ISZERO PUSH2 0x10 JUMPI PUSH1 0x0 DUP1 REVERT JUMPDEST POP PUSH1 0x4 CALLDATASIZE LT PUSH2 0x41 JUMPI PUSH1 0x0 CALLDATALOAD PUSH1 0xE0 SHR DUP1 PUSH4 0x3DBB202B EQ PUSH2 0x46 JUMPI DUP1 PUSH4 0x6E296E45 EQ PUSH2 0x5B JUMPI DUP1 PUSH4 0xB29E0ACF EQ PUSH2 0x7F JUMPI JUMPDEST PUSH1 0x0 DUP1 REVERT JUMPDEST PUSH2 0x59 PUSH2 0x54 CALLDATASIZE PUSH1 0x4 PUSH2 0x442 JUMP JUMPDEST PUSH2 0x92 JUMP JUMPDEST STOP JUMPDEST PUSH2 0x63 PUSH2 0xC1 JUMP JUMPDEST PUSH1 0x40 MLOAD PUSH1 0x1 PUSH1 0x1 PUSH1 0xA0 SHL SUB SWAP1 SWAP2 AND DUP2 MSTORE PUSH1 0x20 ADD PUSH1 0x40 MLOAD DUP1 SWAP2 SUB SWAP1 RETURN JUMPDEST PUSH2 0x59 PUSH2 0x8D CALLDATASIZE PUSH1 0x4 PUSH2 0x4B3 JUMP JUMPDEST PUSH2 0x134 JUMP JUMPDEST PUSH2 0xBB PUSH20 0x936A70C0B28532AA22240DCE21F89A8399D6AC60 PUSH1 0x7 PUSH1 0x21 PUSH1 0x99 SHL ADD DUP7 DUP7 DUP7 DUP7 PUSH2 0x15D JUMP JUMPDEST POP POP POP POP JUMP JUMPDEST PUSH1 0x0 DUP1 SLOAD PUSH1 0x1 PUSH1 0x1 PUSH1 0xA0 SHL SUB AND PUSH2 0xDEAC NOT ADD PUSH2 0x124 JUMPI PUSH1 0x40 MLOAD PUSH3 0x461BCD PUSH1 0xE5 SHL DUP2 MSTORE PUSH1 0x20 PUSH1 0x4 DUP3 ADD MSTORE PUSH1 0x1F PUSH1 0x24 DUP3 ADD MSTORE PUSH32 0x78446F6D61696E4D65737361676553656E646572206973206E6F742073657400 PUSH1 0x44 DUP3 ADD MSTORE PUSH1 0x64 ADD JUMPDEST PUSH1 0x40 MLOAD DUP1 SWAP2 SUB SWAP1 REVERT JUMPDEST POP PUSH1 0x0 SLOAD PUSH1 0x1 PUSH1 0x1 PUSH1 0xA0 SHL SUB AND SWAP1 JUMP JUMPDEST PUSH2 0xBB PUSH20 0x936A70C0B28532AA22240DCE21F89A8399D6AC60 PUSH1 0x7 PUSH1 0x21 PUSH1 0x99 SHL ADD DUP7 DUP7 DUP7 DUP7 PUSH2 0x289 JUMP JUMPDEST PUSH1 0x0 DUP1 PUSH2 0x16D TIMESTAMP PUSH3 0x15180 PUSH2 0x518 JUMP JUMPDEST SWAP1 POP PUSH1 0x0 TIMESTAMP DIFFICULTY ADD GAS ADD SWAP1 POP PUSH1 0x0 CALLER DUP9 DUP9 DUP9 PUSH1 0x40 MLOAD PUSH1 0x24 ADD PUSH2 0x191 SWAP5 SWAP4 SWAP3 SWAP2 SWAP1 PUSH2 0x568 JUMP JUMPDEST PUSH1 0x40 DUP1 MLOAD PUSH1 0x1F NOT DUP2 DUP5 SUB ADD DUP2 MSTORE SWAP2 DUP2 MSTORE PUSH1 0x20 DUP3 ADD DUP1 MLOAD PUSH1 0x1 PUSH1 0x1 PUSH1 0xE0 SHL SUB AND PUSH4 0xB29E0ACF PUSH1 0xE0 SHL OR SWAP1 MSTORE MLOAD PUSH4 0x5D4D3BCD PUSH1 0xE0 SHL DUP2 MSTORE SWAP1 SWAP2 POP PUSH1 0x1 PUSH1 0x1 PUSH1 0xA0 SHL SUB DUP12 AND SWAP1 PUSH4 0x5D4D3BCD SWAP1 PUSH2 0x1F0 SWAP1 DUP13 SWAP1 DUP9 SWAP1 DUP9 SWAP1 DUP9 SWAP1 DUP9 SWAP1 PUSH1 0x4 ADD PUSH2 0x59F JUMP JUMPDEST PUSH1 0x20 PUSH1 0x40 MLOAD DUP1 DUP4 SUB DUP2 PUSH1 0x0 DUP8 GAS CALL ISZERO DUP1 ISZERO PUSH2 0x20F JUMPI RETURNDATASIZE PUSH1 0x0 DUP1 RETURNDATACOPY RETURNDATASIZE PUSH1 0x0 REVERT JUMPDEST POP POP POP POP PUSH1 0x40 MLOAD RETURNDATASIZE PUSH1 0x1F NOT PUSH1 0x1F DUP3 ADD AND DUP3 ADD DUP1 PUSH1 0x40 MSTORE POP DUP2 ADD SWAP1 PUSH2 0x233 SWAP2 SWAP1 PUSH2 0x612 JUMP JUMPDEST POP DUP8 PUSH1 0x1 PUSH1 0x1 PUSH1 0xA0 SHL SUB AND PUSH32 0xCB0F7FFD78F9AEE47A248FAE8DB181DB6EEE833039123E026DCBFF529522E52A CALLER DUP10 DUP10 DUP7 DUP11 PUSH1 0x40 MLOAD PUSH2 0x275 SWAP6 SWAP5 SWAP4 SWAP3 SWAP2 SWAP1 PUSH2 0x62B JUMP JUMPDEST PUSH1 0x40 MLOAD DUP1 SWAP2 SUB SWAP1 LOG2 POP POP POP POP POP POP POP POP POP POP JUMP JUMPDEST CALLER PUSH1 0x1 PUSH1 0x1 PUSH1 0xA0 SHL SUB DUP8 AND EQ PUSH2 0x2CA JUMPI PUSH1 0x40 MLOAD PUSH3 0x461BCD PUSH1 0xE5 SHL DUP2 MSTORE PUSH1 0x20 PUSH1 0x4 DUP3 ADD MSTORE PUSH1 0x6 PUSH1 0x24 DUP3 ADD MSTORE PUSH6 0x39B2B73232B9 PUSH1 0xD1 SHL PUSH1 0x44 DUP3 ADD MSTORE PUSH1 0x64 ADD PUSH2 0x11B JUMP JUMPDEST DUP5 PUSH1 0x1 PUSH1 0x1 PUSH1 0xA0 SHL SUB AND DUP7 PUSH1 0x1 PUSH1 0x1 PUSH1 0xA0 SHL SUB AND PUSH4 0x3B1623FE PUSH1 0x40 MLOAD DUP2 PUSH4 0xFFFFFFFF AND PUSH1 0xE0 SHL DUP2 MSTORE PUSH1 0x4 ADD PUSH1 0x20 PUSH1 0x40 MLOAD DUP1 DUP4 SUB DUP2 DUP7 GAS STATICCALL ISZERO DUP1 ISZERO PUSH2 0x312 JUMPI RETURNDATASIZE PUSH1 0x0 DUP1 RETURNDATACOPY RETURNDATASIZE PUSH1 0x0 REVERT JUMPDEST POP POP POP POP PUSH1 0x40 MLOAD RETURNDATASIZE PUSH1 0x1F NOT PUSH1 0x1F DUP3 ADD AND DUP3 ADD DUP1 PUSH1 0x40 MSTORE POP DUP2 ADD SWAP1 PUSH2 0x336 SWAP2 SWAP1 PUSH2 0x66E JUMP JUMPDEST PUSH1 0x1 PUSH1 0x1 PUSH1 0xA0 SHL SUB AND EQ PUSH2 0x37D JUMPI PUSH1 0x40 MLOAD PUSH3 0x461BCD PUSH1 0xE5 SHL DUP2 MSTORE PUSH1 0x20 PUSH1 0x4 DUP3 ADD MSTORE PUSH1 0xE PUSH1 0x24 DUP3 ADD MSTORE PUSH14 0x36B2B9B9B0B3B29037B934B3B4B7 PUSH1 0x91 SHL PUSH1 0x44 DUP3 ADD MSTORE PUSH1 0x64 ADD PUSH2 0x11B JUMP JUMPDEST PUSH1 0x0 DUP1 SLOAD PUSH1 0x1 PUSH1 0x1 PUSH1 0xA0 SHL SUB NOT AND PUSH1 0x1 PUSH1 0x1 PUSH1 0xA0 SHL SUB DUP7 AND OR DUP2 SSTORE PUSH2 0x3A5 SWAP1 DUP5 SWAP1 DUP5 DUP5 PUSH2 0x3BD JUMP JUMPDEST POP POP PUSH1 0x0 DUP1 SLOAD PUSH1 0x1 PUSH1 0x1 PUSH1 0xA0 SHL SUB NOT AND SWAP1 SSTORE POP POP POP POP JUMP JUMPDEST PUSH1 0x80 DUP2 DUP4 DUP3 CALLDATACOPY PUSH1 0x0 DUP1 DUP4 DUP4 DUP8 DUP10 GAS CALL PUSH2 0x3DA JUMPI RETURNDATASIZE PUSH1 0x0 DUP1 RETURNDATACOPY RETURNDATASIZE PUSH1 0x0 REVERT JUMPDEST POP POP POP POP POP JUMP JUMPDEST PUSH1 0x1 PUSH1 0x1 PUSH1 0xA0 SHL SUB DUP2 AND DUP2 EQ PUSH2 0x3F6 JUMPI PUSH1 0x0 DUP1 REVERT JUMPDEST POP JUMP JUMPDEST PUSH1 0x0 DUP1 DUP4 PUSH1 0x1F DUP5 ADD SLT PUSH2 0x40B JUMPI PUSH1 0x0 DUP1 REVERT JUMPDEST POP DUP2 CALLDATALOAD PUSH8 0xFFFFFFFFFFFFFFFF DUP2 GT ISZERO PUSH2 0x423 JUMPI PUSH1 0x0 DUP1 REVERT JUMPDEST PUSH1 0x20 DUP4 ADD SWAP2 POP DUP4 PUSH1 0x20 DUP3 DUP6 ADD ADD GT ISZERO PUSH2 0x43B JUMPI PUSH1 0x0 DUP1 REVERT JUMPDEST SWAP3 POP SWAP3 SWAP1 POP JUMP JUMPDEST PUSH1 0x0 DUP1 PUSH1 0x0 DUP1 PUSH1 0x60 DUP6 DUP8 SUB SLT ISZERO PUSH2 0x458 JUMPI PUSH1 0x0 DUP1 REVERT JUMPDEST DUP5 CALLDATALOAD PUSH2 0x463 DUP2 PUSH2 0x3E1 JUMP JUMPDEST SWAP4 POP PUSH1 0x20 DUP6 ADD CALLDATALOAD PUSH8 0xFFFFFFFFFFFFFFFF DUP2 GT ISZERO PUSH2 0x47F JUMPI PUSH1 0x0 DUP1 REVERT JUMPDEST PUSH2 0x48B DUP8 DUP3 DUP9 ADD PUSH2 0x3F9 JUMP JUMPDEST SWAP1 SWAP5 POP SWAP3 POP POP PUSH1 0x40 DUP6 ADD CALLDATALOAD PUSH4 0xFFFFFFFF DUP2 AND DUP2 EQ PUSH2 0x4A8 JUMPI PUSH1 0x0 DUP1 REVERT JUMPDEST SWAP4 SWAP7 SWAP3 SWAP6 POP SWAP1 SWAP4 POP POP JUMP JUMPDEST PUSH1 0x0 DUP1 PUSH1 0x0 DUP1 PUSH1 0x60 DUP6 DUP8 SUB SLT ISZERO PUSH2 0x4C9 JUMPI PUSH1 0x0 DUP1 REVERT JUMPDEST DUP5 CALLDATALOAD PUSH2 0x4D4 DUP2 PUSH2 0x3E1 JUMP JUMPDEST SWAP4 POP PUSH1 0x20 DUP6 ADD CALLDATALOAD PUSH2 0x4E4 DUP2 PUSH2 0x3E1 JUMP JUMPDEST SWAP3 POP PUSH1 0x40 DUP6 ADD CALLDATALOAD PUSH8 0xFFFFFFFFFFFFFFFF DUP2 GT ISZERO PUSH2 0x500 JUMPI PUSH1 0x0 DUP1 REVERT JUMPDEST PUSH2 0x50C DUP8 DUP3 DUP9 ADD PUSH2 0x3F9 JUMP JUMPDEST SWAP6 SWAP9 SWAP5 SWAP8 POP SWAP6 POP POP POP POP JUMP JUMPDEST DUP1 DUP3 ADD DUP1 DUP3 GT ISZERO PUSH2 0x539 JUMPI PUSH4 0x4E487B71 PUSH1 0xE0 SHL PUSH1 0x0 MSTORE PUSH1 0x11 PUSH1 0x4 MSTORE PUSH1 0x24 PUSH1 0x0 REVERT JUMPDEST SWAP3 SWAP2 POP POP JUMP JUMPDEST DUP2 DUP4 MSTORE DUP2 DUP2 PUSH1 0x20 DUP6 ADD CALLDATACOPY POP PUSH1 0x0 DUP3 DUP3 ADD PUSH1 0x20 SWAP1 DUP2 ADD SWAP2 SWAP1 SWAP2 MSTORE PUSH1 0x1F SWAP1 SWAP2 ADD PUSH1 0x1F NOT AND SWAP1 SWAP2 ADD ADD SWAP1 JUMP JUMPDEST PUSH1 0x1 PUSH1 0x1 PUSH1 0xA0 SHL SUB DUP6 DUP2 AND DUP3 MSTORE DUP5 AND PUSH1 0x20 DUP3 ADD MSTORE PUSH1 0x60 PUSH1 0x40 DUP3 ADD DUP2 SWAP1 MSTORE PUSH1 0x0 SWAP1 PUSH2 0x595 SWAP1 DUP4 ADD DUP5 DUP7 PUSH2 0x53F JUMP JUMPDEST SWAP7 SWAP6 POP POP POP POP POP POP JUMP JUMPDEST PUSH1 0x1 DUP1 PUSH1 0xA0 SHL SUB DUP7 AND DUP2 MSTORE PUSH1 0x0 PUSH1 0x20 DUP7 DUP2 DUP5 ADD MSTORE DUP6 PUSH1 0x40 DUP5 ADD MSTORE DUP5 PUSH1 0x60 DUP5 ADD MSTORE PUSH1 0xA0 PUSH1 0x80 DUP5 ADD MSTORE DUP4 MLOAD DUP1 PUSH1 0xA0 DUP6 ADD MSTORE PUSH1 0x0 JUMPDEST DUP2 DUP2 LT ISZERO PUSH2 0x5ED JUMPI DUP6 DUP2 ADD DUP4 ADD MLOAD DUP6 DUP3 ADD PUSH1 0xC0 ADD MSTORE DUP3 ADD PUSH2 0x5D1 JUMP JUMPDEST POP PUSH1 0x0 PUSH1 0xC0 DUP3 DUP7 ADD ADD MSTORE PUSH1 0xC0 PUSH1 0x1F NOT PUSH1 0x1F DUP4 ADD AND DUP6 ADD ADD SWAP3 POP POP POP SWAP7 SWAP6 POP POP POP POP POP POP JUMP JUMPDEST PUSH1 0x0 PUSH1 0x20 DUP3 DUP5 SUB SLT ISZERO PUSH2 0x624 JUMPI PUSH1 0x0 DUP1 REVERT JUMPDEST POP MLOAD SWAP2 SWAP1 POP JUMP JUMPDEST PUSH1 0x1 PUSH1 0x1 PUSH1 0xA0 SHL SUB DUP7 AND DUP2 MSTORE PUSH1 0x80 PUSH1 0x20 DUP3 ADD DUP2 SWAP1 MSTORE PUSH1 0x0 SWAP1 PUSH2 0x650 SWAP1 DUP4 ADD DUP7 DUP9 PUSH2 0x53F JUMP JUMPDEST SWAP1 POP DUP4 PUSH1 0x40 DUP4 ADD MSTORE PUSH4 0xFFFFFFFF DUP4 AND PUSH1 0x60 DUP4 ADD MSTORE SWAP7 SWAP6 POP POP POP POP POP POP JUMP JUMPDEST PUSH1 0x0 PUSH1 0x20 DUP3 DUP5 SUB SLT ISZERO PUSH2 0x680 JUMPI PUSH1 0x0 DUP1 REVERT JUMPDEST DUP2 MLOAD PUSH2 0x68B DUP2 PUSH2 0x3E1 JUMP JUMPDEST SWAP4 SWAP3 POP POP POP JUMP INVALID LOG2 PUSH5 0x6970667358 0x22 SLT KECCAK256 0xB0 0xCA 0xAA STOP CALLDATASIZE SELFBALANCE SWAP8 SIGNEXTEND 0xB3 0xD8 SWAP14 PUSH4 0xFFA9E3AB STATICCALL 0xB6 OR 0xDC STOP 0xE DUP11 SWAP1 SWAP16 GT ADDRESS GT PUSH10 0x28F31B64736F6C634300 ADDMOD LT STOP CALLER "
				},
				"gasEstimates": {
					"creation": {
						"codeDepositCost": "347200",
						"executionCost": "386",
						"totalCost": "347586"
					},
					"external": {
						"relay(address,address,bytes)": "infinite",
						"sendMessage(address,bytes,uint32)": "infinite",
						"xDomainMessageSender()": "4483"
					}
				},
				"methodIdentifiers": {
					"relay(address,address,bytes)": "b29e0acf",
					"sendMessage(address,bytes,uint32)": "3dbb202b",
					"xDomainMessageSender()": "6e296e45"
				}
			},
			"storageLayout": {
				"storage": [
					{
						"astId": 268,
						"contract": "contracts/optimism/L1OptimismBridge.sol:L1OptimismBridge",
						"label": "xDomainMsgSender",
						"offset": 0,
						"slot": "0",
						"type": "t_address"
					}
				],
				"types": {
					"t_address": {
						"encoding": "inplace",
						"label": "address",
						"numberOfBytes": "20"
					}
				}
			},
			"userdoc": {
				"kind": "user",
				"methods": {
					"sendMessage(address,bytes,uint32)": {
						"notice": "Sends a cross domain message to the target messenger."
					}
				},
				"version": 1
			}
		}
	}
}