{
	"contracts/ZkEvmL2MessageDeliverer.sol": {
		"ZkEvmL2MessageDeliverer": {
			"abi": [
				{
					"anonymous": false,
					"inputs": [
						{
							"indexed": false,
							"internalType": "bytes32",
							"name": "blockHash",
							"type": "bytes32"
						}
					],
					"name": "BlockFinalized",
					"type": "event"
				},
				{
					"anonymous": false,
					"inputs": [],
					"name": "BlockSubmitted",
					"type": "event"
				},
				{
					"anonymous": false,
					"inputs": [
						{
							"indexed": true,
							"internalType": "bytes32",
							"name": "blockHash",
							"type": "bytes32"
						},
						{
							"indexed": true,
							"internalType": "bytes32",
							"name": "stateRoot",
							"type": "bytes32"
						},
						{
							"indexed": false,
							"internalType": "uint256",
							"name": "timestamp",
							"type": "uint256"
						}
					],
					"name": "ForeignBridgeStateImported",
					"type": "event"
				},
				{
					"anonymous": false,
					"inputs": [
						{
							"indexed": false,
							"internalType": "bytes32",
							"name": "id",
							"type": "bytes32"
						}
					],
					"name": "MessageDelivered",
					"type": "event"
				},
				{
					"anonymous": false,
					"inputs": [
						{
							"indexed": false,
							"internalType": "address",
							"name": "from",
							"type": "address"
						},
						{
							"indexed": false,
							"internalType": "address",
							"name": "to",
							"type": "address"
						},
						{
							"indexed": false,
							"internalType": "uint256",
							"name": "value",
							"type": "uint256"
						},
						{
							"indexed": false,
							"internalType": "uint256",
							"name": "fee",
							"type": "uint256"
						},
						{
							"indexed": false,
							"internalType": "uint256",
							"name": "deadline",
							"type": "uint256"
						},
						{
							"indexed": false,
							"internalType": "uint256",
							"name": "nonce",
							"type": "uint256"
						},
						{
							"indexed": false,
							"internalType": "bytes",
							"name": "data",
							"type": "bytes"
						}
					],
					"name": "MessageDispatched",
					"type": "event"
				},
				{
					"anonymous": false,
					"inputs": [
						{
							"indexed": false,
							"internalType": "bytes32",
							"name": "id",
							"type": "bytes32"
						}
					],
					"name": "MessageDropped",
					"type": "event"
				},
				{
					"inputs": [
						{
							"internalType": "address",
							"name": "from",
							"type": "address"
						},
						{
							"internalType": "address",
							"name": "to",
							"type": "address"
						},
						{
							"internalType": "uint256",
							"name": "value",
							"type": "uint256"
						},
						{
							"internalType": "uint256",
							"name": "fee",
							"type": "uint256"
						},
						{
							"internalType": "uint256",
							"name": "deadline",
							"type": "uint256"
						},
						{
							"internalType": "uint256",
							"name": "nonce",
							"type": "uint256"
						},
						{
							"internalType": "bytes",
							"name": "data",
							"type": "bytes"
						},
						{
							"internalType": "bytes",
							"name": "storageProof",
							"type": "bytes"
						}
					],
					"name": "deliverMessageWithProof",
					"outputs": [],
					"stateMutability": "nonpayable",
					"type": "function"
				},
				{
					"inputs": [
						{
							"internalType": "bytes32",
							"name": "val",
							"type": "bytes32"
						}
					],
					"name": "getTimestampForStorageRoot",
					"outputs": [
						{
							"internalType": "uint256",
							"name": "",
							"type": "uint256"
						}
					],
					"stateMutability": "view",
					"type": "function"
				},
				{
					"inputs": [
						{
							"internalType": "uint256",
							"name": "",
							"type": "uint256"
						},
						{
							"internalType": "bytes32",
							"name": "blockHash",
							"type": "bytes32"
						}
					],
					"name": "importForeignBlock",
					"outputs": [],
					"stateMutability": "nonpayable",
					"type": "function"
				},
				{
					"inputs": [
						{
							"internalType": "bytes",
							"name": "blockHeader",
							"type": "bytes"
						},
						{
							"internalType": "bytes",
							"name": "accountProof",
							"type": "bytes"
						}
					],
					"name": "importForeignBridgeState",
					"outputs": [],
					"stateMutability": "nonpayable",
					"type": "function"
				},
				{
					"inputs": [],
					"name": "messageOrigin",
					"outputs": [
						{
							"internalType": "address",
							"name": "",
							"type": "address"
						}
					],
					"stateMutability": "view",
					"type": "function"
				},
				{
					"inputs": [
						{
							"internalType": "uint256",
							"name": "amount",
							"type": "uint256"
						}
					],
					"name": "requestETH",
					"outputs": [],
					"stateMutability": "nonpayable",
					"type": "function"
				},
				{
					"stateMutability": "payable",
					"type": "receive"
				}
			],
			"devdoc": {
				"kind": "dev",
				"methods": {
					"importForeignBlock(uint256,bytes32)": {
						"details": "`blockNumber` & `blockHash` must be checked by the L1 verification step(s)."
					}
				},
				"version": 1
			},
			"evm": {
				"assembly": "    /* \"contracts/ZkEvmL2MessageDeliverer.sol\":338:3095  contract ZkEvmL2MessageDeliverer is... */\n  mstore(0x40, 0x80)\n  callvalue\n  dup1\n  iszero\n  tag_1\n  jumpi\n  0x00\n  dup1\n  revert\ntag_1:\n  pop\n  dataSize(sub_0)\n  dup1\n  dataOffset(sub_0)\n  0x00\n  codecopy\n  0x00\n  return\nstop\n\nsub_0: assembly {\n        /* \"contracts/ZkEvmL2MessageDeliverer.sol\":338:3095  contract ZkEvmL2MessageDeliverer is... */\n      mstore(0x40, 0x80)\n      jumpi(tag_1, lt(calldatasize, 0x04))\n      shr(0xe0, calldataload(0x00))\n      dup1\n      0x312faf74\n      eq\n      tag_3\n      jumpi\n      dup1\n      0x3b1623fe\n      eq\n      tag_4\n      jumpi\n      dup1\n      0x49a435e2\n      eq\n      tag_5\n      jumpi\n      dup1\n      0x6e94aac5\n      eq\n      tag_6\n      jumpi\n      dup1\n      0x8dfbfead\n      eq\n      tag_7\n      jumpi\n      dup1\n      0xfcd5e7b3\n      eq\n      tag_8\n      jumpi\n      jump(tag_2)\n    tag_1:\n      jumpi(tag_2, calldatasize)\n        /* \"contracts/ZkEvmMagicNumbers.sol\":251:293  0x0000000000000000000000000000000000020000 */\n      0x020000\n        /* \"contracts/ZkEvmL2MessageDeliverer.sol\":3051:3078  msg.sender == L2_DISPATCHER */\n      0xffffffffffffffffffffffffffffffffffffffff\n      and\n        /* \"contracts/ZkEvmL2MessageDeliverer.sol\":3051:3061  msg.sender */\n      caller\n        /* \"contracts/ZkEvmL2MessageDeliverer.sol\":3051:3078  msg.sender == L2_DISPATCHER */\n      0xffffffffffffffffffffffffffffffffffffffff\n      and\n      eq\n        /* \"contracts/ZkEvmL2MessageDeliverer.sol\":3043:3088  require(msg.sender == L2_DISPATCHER, 'MSEDS') */\n      tag_11\n      jumpi\n      mload(0x40)\n      0x08c379a000000000000000000000000000000000000000000000000000000000\n      dup2\n      mstore\n      0x04\n      add\n      tag_12\n      swap1\n      tag_13\n      jump\t// in\n    tag_12:\n      mload(0x40)\n      dup1\n      swap2\n      sub\n      swap1\n      revert\n    tag_11:\n        /* \"contracts/ZkEvmL2MessageDeliverer.sol\":338:3095  contract ZkEvmL2MessageDeliverer is... */\n      stop\n    tag_2:\n      0x00\n      dup1\n      revert\n        /* \"contracts/ZkEvmL2MessageDeliverer.sol\":836:961  function getTimestampForStorageRoot (bytes32 val) public view returns (uint256) {... */\n    tag_3:\n      callvalue\n      dup1\n      iszero\n      tag_14\n      jumpi\n      0x00\n      dup1\n      revert\n    tag_14:\n      pop\n      tag_15\n      0x04\n      dup1\n      calldatasize\n      sub\n      dup2\n      add\n      swap1\n      tag_16\n      swap2\n      swap1\n      tag_17\n      jump\t// in\n    tag_16:\n      tag_18\n      jump\t// in\n    tag_15:\n      mload(0x40)\n      tag_19\n      swap2\n      swap1\n      tag_20\n      jump\t// in\n    tag_19:\n      mload(0x40)\n      dup1\n      swap2\n      sub\n      swap1\n      return\n        /* \"contracts/ZkEvmMessageDelivererBase.sol\":406:496  function messageOrigin () external view returns (address) {... */\n    tag_4:\n      callvalue\n      dup1\n      iszero\n      tag_21\n      jumpi\n      0x00\n      dup1\n      revert\n    tag_21:\n      pop\n      tag_22\n      tag_23\n      jump\t// in\n    tag_22:\n      mload(0x40)\n      tag_24\n      swap2\n      swap1\n      tag_25\n      jump\t// in\n    tag_24:\n      mload(0x40)\n      dup1\n      swap2\n      sub\n      swap1\n      return\n        /* \"contracts/ZkEvmL2MessageDeliverer.sol\":1052:1308  function importForeignBlock (... */\n    tag_5:\n      callvalue\n      dup1\n      iszero\n      tag_26\n      jumpi\n      0x00\n      dup1\n      revert\n    tag_26:\n      pop\n      tag_27\n      0x04\n      dup1\n      calldatasize\n      sub\n      dup2\n      add\n      swap1\n      tag_28\n      swap2\n      swap1\n      tag_29\n      jump\t// in\n    tag_28:\n      tag_30\n      jump\t// in\n    tag_27:\n      stop\n        /* \"contracts/ZkEvmL2MessageDeliverer.sol\":1362:1917  function importForeignBridgeState (bytes calldata blockHeader, bytes calldata accountProof) external {... */\n    tag_6:\n      callvalue\n      dup1\n      iszero\n      tag_31\n      jumpi\n      0x00\n      dup1\n      revert\n    tag_31:\n      pop\n      tag_32\n      0x04\n      dup1\n      calldatasize\n      sub\n      dup2\n      add\n      swap1\n      tag_33\n      swap2\n      swap1\n      tag_34\n      jump\t// in\n    tag_33:\n      tag_35\n      jump\t// in\n    tag_32:\n      stop\n        /* \"contracts/ZkEvmL2MessageDeliverer.sol\":1971:2860  function deliverMessageWithProof (... */\n    tag_7:\n      callvalue\n      dup1\n      iszero\n      tag_36\n      jumpi\n      0x00\n      dup1\n      revert\n    tag_36:\n      pop\n      tag_37\n      0x04\n      dup1\n      calldatasize\n      sub\n      dup2\n      add\n      swap1\n      tag_38\n      swap2\n      swap1\n      tag_39\n      jump\t// in\n    tag_38:\n      tag_40\n      jump\t// in\n    tag_37:\n      stop\n        /* \"contracts/ZkEvmL2MessageDeliverer.sol\":2864:3005  function requestETH (uint256 amount) external {... */\n    tag_8:\n      callvalue\n      dup1\n      iszero\n      tag_41\n      jumpi\n      0x00\n      dup1\n      revert\n    tag_41:\n      pop\n      tag_42\n      0x04\n      dup1\n      calldatasize\n      sub\n      dup2\n      add\n      swap1\n      tag_43\n      swap2\n      swap1\n      tag_44\n      jump\t// in\n    tag_43:\n      tag_45\n      jump\t// in\n    tag_42:\n      stop\n        /* \"contracts/ZkEvmL2MessageDeliverer.sol\":836:961  function getTimestampForStorageRoot (bytes32 val) public view returns (uint256) {... */\n    tag_18:\n        /* \"contracts/ZkEvmL2MessageDeliverer.sol\":907:914  uint256 */\n      0x00\n        /* \"contracts/ZkEvmL2MessageDeliverer.sol\":929:951  storageRootToTimestamp */\n      0x02\n        /* \"contracts/ZkEvmL2MessageDeliverer.sol\":929:956  storageRootToTimestamp[val] */\n      0x00\n        /* \"contracts/ZkEvmL2MessageDeliverer.sol\":952:955  val */\n      dup4\n        /* \"contracts/ZkEvmL2MessageDeliverer.sol\":929:956  storageRootToTimestamp[val] */\n      dup2\n      mstore\n      0x20\n      add\n      swap1\n      dup2\n      mstore\n      0x20\n      add\n      0x00\n      keccak256\n      sload\n        /* \"contracts/ZkEvmL2MessageDeliverer.sol\":922:956  return storageRootToTimestamp[val] */\n      swap1\n      pop\n        /* \"contracts/ZkEvmL2MessageDeliverer.sol\":836:961  function getTimestampForStorageRoot (bytes32 val) public view returns (uint256) {... */\n      swap2\n      swap1\n      pop\n      jump\t// out\n        /* \"contracts/ZkEvmMessageDelivererBase.sol\":406:496  function messageOrigin () external view returns (address) {... */\n    tag_23:\n        /* \"contracts/ZkEvmMessageDelivererBase.sol\":455:462  address */\n      0x00\n        /* \"contracts/ZkEvmMessageDelivererBase.sol\":477:491  _messageOrigin */\n      dup1\n      0x00\n      swap1\n      sload\n      swap1\n      0x0100\n      exp\n      swap1\n      div\n      0xffffffffffffffffffffffffffffffffffffffff\n      and\n        /* \"contracts/ZkEvmMessageDelivererBase.sol\":470:491  return _messageOrigin */\n      swap1\n      pop\n        /* \"contracts/ZkEvmMessageDelivererBase.sol\":406:496  function messageOrigin () external view returns (address) {... */\n      swap1\n      jump\t// out\n        /* \"contracts/ZkEvmL2MessageDeliverer.sol\":1052:1308  function importForeignBlock (... */\n    tag_30:\n        /* \"contracts/ZkEvmL2MessageDeliverer.sol\":1152:1162  _onlyEOA() */\n      tag_49\n        /* \"contracts/ZkEvmL2MessageDeliverer.sol\":1152:1160  _onlyEOA */\n      tag_50\n        /* \"contracts/ZkEvmL2MessageDeliverer.sol\":1152:1162  _onlyEOA() */\n      jump\t// in\n    tag_49:\n        /* \"contracts/ZkEvmL2MessageDeliverer.sol\":1294:1303  blockHash */\n      dup1\n        /* \"contracts/ZkEvmL2MessageDeliverer.sol\":1271:1291  lastKnownL1BlockHash */\n      0x01\n        /* \"contracts/ZkEvmL2MessageDeliverer.sol\":1271:1303  lastKnownL1BlockHash = blockHash */\n      dup2\n      swap1\n      sstore\n      pop\n        /* \"contracts/ZkEvmL2MessageDeliverer.sol\":1052:1308  function importForeignBlock (... */\n      pop\n      pop\n      jump\t// out\n        /* \"contracts/ZkEvmL2MessageDeliverer.sol\":1362:1917  function importForeignBridgeState (bytes calldata blockHeader, bytes calldata accountProof) external {... */\n    tag_35:\n        /* \"contracts/ZkEvmL2MessageDeliverer.sol\":1470:1482  bytes32 hash */\n      0x00\n        /* \"contracts/ZkEvmL2MessageDeliverer.sol\":1484:1501  bytes32 stateRoot */\n      dup1\n        /* \"contracts/ZkEvmL2MessageDeliverer.sol\":1503:1520  uint256 timestamp */\n      0x00\n        /* \"contracts/ZkEvmL2MessageDeliverer.sol\":1524:1553  _readBlockHeader(blockHeader) */\n      tag_52\n        /* \"contracts/ZkEvmL2MessageDeliverer.sol\":1541:1552  blockHeader */\n      dup8\n      dup8\n        /* \"contracts/ZkEvmL2MessageDeliverer.sol\":1524:1540  _readBlockHeader */\n      tag_53\n        /* \"contracts/ZkEvmL2MessageDeliverer.sol\":1524:1553  _readBlockHeader(blockHeader) */\n      jump\t// in\n    tag_52:\n        /* \"contracts/ZkEvmL2MessageDeliverer.sol\":1469:1553  (bytes32 hash, bytes32 stateRoot, uint256 timestamp) = _readBlockHeader(blockHeader) */\n      swap3\n      pop\n      swap3\n      pop\n      swap3\n      pop\n        /* \"contracts/ZkEvmL2MessageDeliverer.sol\":1575:1595  lastKnownL1BlockHash */\n      sload(0x01)\n        /* \"contracts/ZkEvmL2MessageDeliverer.sol\":1567:1571  hash */\n      dup4\n        /* \"contracts/ZkEvmL2MessageDeliverer.sol\":1567:1595  hash == lastKnownL1BlockHash */\n      eq\n        /* \"contracts/ZkEvmL2MessageDeliverer.sol\":1559:1604  require(hash == lastKnownL1BlockHash, 'HASH') */\n      tag_54\n      jumpi\n      mload(0x40)\n      0x08c379a000000000000000000000000000000000000000000000000000000000\n      dup2\n      mstore\n      0x04\n      add\n      tag_55\n      swap1\n      tag_56\n      jump\t// in\n    tag_55:\n      mload(0x40)\n      dup1\n      swap2\n      sub\n      swap1\n      revert\n    tag_54:\n        /* \"contracts/ZkEvmL2MessageDeliverer.sol\":1612:1634  bytes32 proofStateRoot */\n      0x00\n        /* \"contracts/ZkEvmL2MessageDeliverer.sol\":1636:1660  bytes32 proofStorageRoot */\n      dup1\n        /* \"contracts/ZkEvmL2MessageDeliverer.sol\":1664:1736  _validatePatriciaAccountProof(... */\n      tag_57\n        /* \"contracts/ZkEvmMagicNumbers.sol\":326:368  0x936a70C0b28532AA22240dce21f89a8399d6ac60 */\n      0x936a70c0b28532aa22240dce21f89a8399d6ac60\n        /* \"contracts/ZkEvmL2MessageDeliverer.sol\":1718:1730  accountProof */\n      dup9\n      dup9\n        /* \"contracts/ZkEvmL2MessageDeliverer.sol\":1664:1693  _validatePatriciaAccountProof */\n      tag_58\n        /* \"contracts/ZkEvmL2MessageDeliverer.sol\":1664:1736  _validatePatriciaAccountProof(... */\n      jump\t// in\n    tag_57:\n        /* \"contracts/ZkEvmL2MessageDeliverer.sol\":1611:1736  (bytes32 proofStateRoot, bytes32 proofStorageRoot) = _validatePatriciaAccountProof(... */\n      swap2\n      pop\n      swap2\n      pop\n        /* \"contracts/ZkEvmL2MessageDeliverer.sol\":1768:1777  stateRoot */\n      dup4\n        /* \"contracts/ZkEvmL2MessageDeliverer.sol\":1750:1764  proofStateRoot */\n      dup3\n        /* \"contracts/ZkEvmL2MessageDeliverer.sol\":1750:1777  proofStateRoot == stateRoot */\n      eq\n        /* \"contracts/ZkEvmL2MessageDeliverer.sol\":1742:1788  require(proofStateRoot == stateRoot, 'DMROOT') */\n      tag_59\n      jumpi\n      mload(0x40)\n      0x08c379a000000000000000000000000000000000000000000000000000000000\n      dup2\n      mstore\n      0x04\n      add\n      tag_60\n      swap1\n      tag_61\n      jump\t// in\n    tag_60:\n      mload(0x40)\n      dup1\n      swap2\n      sub\n      swap1\n      revert\n    tag_59:\n        /* \"contracts/ZkEvmL2MessageDeliverer.sol\":1837:1846  timestamp */\n      dup3\n        /* \"contracts/ZkEvmL2MessageDeliverer.sol\":1794:1816  storageRootToTimestamp */\n      0x02\n        /* \"contracts/ZkEvmL2MessageDeliverer.sol\":1794:1834  storageRootToTimestamp[proofStorageRoot] */\n      0x00\n        /* \"contracts/ZkEvmL2MessageDeliverer.sol\":1817:1833  proofStorageRoot */\n      dup4\n        /* \"contracts/ZkEvmL2MessageDeliverer.sol\":1794:1834  storageRootToTimestamp[proofStorageRoot] */\n      dup2\n      mstore\n      0x20\n      add\n      swap1\n      dup2\n      mstore\n      0x20\n      add\n      0x00\n      keccak256\n        /* \"contracts/ZkEvmL2MessageDeliverer.sol\":1794:1846  storageRootToTimestamp[proofStorageRoot] = timestamp */\n      dup2\n      swap1\n      sstore\n      pop\n        /* \"contracts/ZkEvmL2MessageDeliverer.sol\":1891:1900  stateRoot */\n      dup4\n        /* \"contracts/ZkEvmL2MessageDeliverer.sol\":1885:1889  hash */\n      dup6\n        /* \"contracts/ZkEvmL2MessageDeliverer.sol\":1858:1912  ForeignBridgeStateImported(hash, stateRoot, timestamp) */\n      0x9d70f54d5d379e4b92c497936411380303c56bfb08caed66b62c94380ad153db\n        /* \"contracts/ZkEvmL2MessageDeliverer.sol\":1902:1911  timestamp */\n      dup6\n        /* \"contracts/ZkEvmL2MessageDeliverer.sol\":1858:1912  ForeignBridgeStateImported(hash, stateRoot, timestamp) */\n      mload(0x40)\n      tag_62\n      swap2\n      swap1\n      tag_20\n      jump\t// in\n    tag_62:\n      mload(0x40)\n      dup1\n      swap2\n      sub\n      swap1\n      log3\n        /* \"contracts/ZkEvmL2MessageDeliverer.sol\":1463:1917  {... */\n      pop\n      pop\n      pop\n      pop\n      pop\n        /* \"contracts/ZkEvmL2MessageDeliverer.sol\":1362:1917  function importForeignBridgeState (bytes calldata blockHeader, bytes calldata accountProof) external {... */\n      pop\n      pop\n      pop\n      pop\n      jump\t// out\n        /* \"contracts/ZkEvmL2MessageDeliverer.sol\":1971:2860  function deliverMessageWithProof (... */\n    tag_40:\n        /* \"contracts/ZkEvmMagicNumbers.sol\":251:293  0x0000000000000000000000000000000000020000 */\n      0x020000\n        /* \"contracts/ZkEvmL2MessageDeliverer.sol\":2297:2316  to != L2_DISPATCHER */\n      0xffffffffffffffffffffffffffffffffffffffff\n      and\n        /* \"contracts/ZkEvmL2MessageDeliverer.sol\":2297:2299  to */\n      dup10\n        /* \"contracts/ZkEvmL2MessageDeliverer.sol\":2297:2316  to != L2_DISPATCHER */\n      0xffffffffffffffffffffffffffffffffffffffff\n      and\n      sub\n        /* \"contracts/ZkEvmL2MessageDeliverer.sol\":2289:2325  require(to != L2_DISPATCHER, 'TNED') */\n      tag_64\n      jumpi\n      mload(0x40)\n      0x08c379a000000000000000000000000000000000000000000000000000000000\n      dup2\n      mstore\n      0x04\n      add\n      tag_65\n      swap1\n      tag_66\n      jump\t// in\n    tag_65:\n      mload(0x40)\n      dup1\n      swap2\n      sub\n      swap1\n      revert\n    tag_64:\n        /* \"contracts/ZkEvmL2MessageDeliverer.sol\":2332:2351  bytes32 messageHash */\n      0x00\n        /* \"contracts/ZkEvmL2MessageDeliverer.sol\":2375:2379  from */\n      dup11\n        /* \"contracts/ZkEvmL2MessageDeliverer.sol\":2381:2383  to */\n      dup11\n        /* \"contracts/ZkEvmL2MessageDeliverer.sol\":2385:2390  value */\n      dup11\n        /* \"contracts/ZkEvmL2MessageDeliverer.sol\":2392:2395  fee */\n      dup11\n        /* \"contracts/ZkEvmL2MessageDeliverer.sol\":2397:2405  deadline */\n      dup11\n        /* \"contracts/ZkEvmL2MessageDeliverer.sol\":2407:2412  nonce */\n      dup11\n        /* \"contracts/ZkEvmL2MessageDeliverer.sol\":2414:2418  data */\n      dup11\n      dup11\n        /* \"contracts/ZkEvmL2MessageDeliverer.sol\":2364:2419  abi.encode(from, to, value, fee, deadline, nonce, data) */\n      add(0x20, mload(0x40))\n      tag_67\n      swap9\n      swap8\n      swap7\n      swap6\n      swap5\n      swap4\n      swap3\n      swap2\n      swap1\n      tag_68\n      jump\t// in\n    tag_67:\n      mload(0x40)\n      0x20\n      dup2\n      dup4\n      sub\n      sub\n      dup2\n      mstore\n      swap1\n      0x40\n      mstore\n        /* \"contracts/ZkEvmL2MessageDeliverer.sol\":2354:2420  keccak256(abi.encode(from, to, value, fee, deadline, nonce, data)) */\n      dup1\n      mload\n      swap1\n      0x20\n      add\n      keccak256\n        /* \"contracts/ZkEvmL2MessageDeliverer.sol\":2332:2420  bytes32 messageHash = keccak256(abi.encode(from, to, value, fee, deadline, nonce, data)) */\n      swap1\n      pop\n        /* \"contracts/ZkEvmL2MessageDeliverer.sol\":2427:2446  bytes32 storageRoot */\n      0x00\n        /* \"contracts/ZkEvmL2MessageDeliverer.sol\":2448:2468  bytes32 storageValue */\n      dup1\n        /* \"contracts/ZkEvmL2MessageDeliverer.sol\":2472:2568  _validatePatriciaStorageProof(... */\n      tag_69\n        /* \"contracts/ZkEvmL2MessageDeliverer.sol\":2509:2542  _PENDING_MESSAGE_KEY(messageHash) */\n      tag_70\n        /* \"contracts/ZkEvmL2MessageDeliverer.sol\":2530:2541  messageHash */\n      dup5\n        /* \"contracts/ZkEvmL2MessageDeliverer.sol\":2509:2529  _PENDING_MESSAGE_KEY */\n      tag_71\n        /* \"contracts/ZkEvmL2MessageDeliverer.sol\":2509:2542  _PENDING_MESSAGE_KEY(messageHash) */\n      jump\t// in\n    tag_70:\n        /* \"contracts/ZkEvmL2MessageDeliverer.sol\":2550:2562  storageProof */\n      dup7\n      dup7\n        /* \"contracts/ZkEvmL2MessageDeliverer.sol\":2472:2501  _validatePatriciaStorageProof */\n      tag_72\n        /* \"contracts/ZkEvmL2MessageDeliverer.sol\":2472:2568  _validatePatriciaStorageProof(... */\n      jump\t// in\n    tag_69:\n        /* \"contracts/ZkEvmL2MessageDeliverer.sol\":2426:2568  (bytes32 storageRoot, bytes32 storageValue) = _validatePatriciaStorageProof(... */\n      swap2\n      pop\n      swap2\n      pop\n        /* \"contracts/ZkEvmL2MessageDeliverer.sol\":2574:2597  uint256 originTimestamp */\n      0x00\n        /* \"contracts/ZkEvmL2MessageDeliverer.sol\":2600:2622  storageRootToTimestamp */\n      0x02\n        /* \"contracts/ZkEvmL2MessageDeliverer.sol\":2600:2635  storageRootToTimestamp[storageRoot] */\n      0x00\n        /* \"contracts/ZkEvmL2MessageDeliverer.sol\":2623:2634  storageRoot */\n      dup5\n        /* \"contracts/ZkEvmL2MessageDeliverer.sol\":2600:2635  storageRootToTimestamp[storageRoot] */\n      dup2\n      mstore\n      0x20\n      add\n      swap1\n      dup2\n      mstore\n      0x20\n      add\n      0x00\n      keccak256\n      sload\n        /* \"contracts/ZkEvmL2MessageDeliverer.sol\":2574:2635  uint256 originTimestamp = storageRootToTimestamp[storageRoot] */\n      swap1\n      pop\n        /* \"contracts/ZkEvmL2MessageDeliverer.sol\":2668:2669  0 */\n      0x00\n        /* \"contracts/ZkEvmL2MessageDeliverer.sol\":2649:2664  originTimestamp */\n      dup2\n        /* \"contracts/ZkEvmL2MessageDeliverer.sol\":2649:2669  originTimestamp != 0 */\n      sub\n        /* \"contracts/ZkEvmL2MessageDeliverer.sol\":2641:2680  require(originTimestamp != 0, 'STROOT') */\n      tag_73\n      jumpi\n      mload(0x40)\n      0x08c379a000000000000000000000000000000000000000000000000000000000\n      dup2\n      mstore\n      0x04\n      add\n      tag_74\n      swap1\n      tag_75\n      jump\t// in\n    tag_74:\n      mload(0x40)\n      dup1\n      swap2\n      sub\n      swap1\n      revert\n    tag_73:\n        /* \"contracts/ZkEvmL2MessageDeliverer.sol\":2712:2720  deadline */\n      dup10\n        /* \"contracts/ZkEvmL2MessageDeliverer.sol\":2694:2709  originTimestamp */\n      dup2\n        /* \"contracts/ZkEvmL2MessageDeliverer.sol\":2694:2720  originTimestamp < deadline */\n      lt\n        /* \"contracts/ZkEvmL2MessageDeliverer.sol\":2686:2729  require(originTimestamp < deadline, 'DMTS') */\n      tag_76\n      jumpi\n      mload(0x40)\n      0x08c379a000000000000000000000000000000000000000000000000000000000\n      dup2\n      mstore\n      0x04\n      add\n      tag_77\n      swap1\n      tag_78\n      jump\t// in\n    tag_77:\n      mload(0x40)\n      dup1\n      swap2\n      sub\n      swap1\n      revert\n    tag_76:\n        /* \"contracts/ZkEvmL2MessageDeliverer.sol\":2775:2776  1 */\n      0x01\n        /* \"contracts/ZkEvmL2MessageDeliverer.sol\":2759:2778  bytes32(uint256(1)) */\n      0x00\n      shl\n        /* \"contracts/ZkEvmL2MessageDeliverer.sol\":2743:2755  storageValue */\n      dup3\n        /* \"contracts/ZkEvmL2MessageDeliverer.sol\":2743:2778  storageValue == bytes32(uint256(1)) */\n      eq\n        /* \"contracts/ZkEvmL2MessageDeliverer.sol\":2735:2788  require(storageValue == bytes32(uint256(1)), 'DMVAL') */\n      tag_79\n      jumpi\n      mload(0x40)\n      0x08c379a000000000000000000000000000000000000000000000000000000000\n      dup2\n      mstore\n      0x04\n      add\n      tag_80\n      swap1\n      tag_81\n      jump\t// in\n    tag_80:\n      mload(0x40)\n      dup1\n      swap2\n      sub\n      swap1\n      revert\n    tag_79:\n        /* \"contracts/ZkEvmL2MessageDeliverer.sol\":2795:2855  _deliverMessage(from, to, value, fee, deadline, nonce, data) */\n      tag_82\n        /* \"contracts/ZkEvmL2MessageDeliverer.sol\":2811:2815  from */\n      dup15\n        /* \"contracts/ZkEvmL2MessageDeliverer.sol\":2817:2819  to */\n      dup15\n        /* \"contracts/ZkEvmL2MessageDeliverer.sol\":2821:2826  value */\n      dup15\n        /* \"contracts/ZkEvmL2MessageDeliverer.sol\":2828:2831  fee */\n      dup15\n        /* \"contracts/ZkEvmL2MessageDeliverer.sol\":2833:2841  deadline */\n      dup15\n        /* \"contracts/ZkEvmL2MessageDeliverer.sol\":2843:2848  nonce */\n      dup15\n        /* \"contracts/ZkEvmL2MessageDeliverer.sol\":2850:2854  data */\n      dup15\n      dup15\n        /* \"contracts/ZkEvmL2MessageDeliverer.sol\":2795:2810  _deliverMessage */\n      tag_83\n        /* \"contracts/ZkEvmL2MessageDeliverer.sol\":2795:2855  _deliverMessage(from, to, value, fee, deadline, nonce, data) */\n      jump\t// in\n    tag_82:\n        /* \"contracts/ZkEvmL2MessageDeliverer.sol\":2187:2860  {... */\n      pop\n      pop\n      pop\n      pop\n        /* \"contracts/ZkEvmL2MessageDeliverer.sol\":1971:2860  function deliverMessageWithProof (... */\n      pop\n      pop\n      pop\n      pop\n      pop\n      pop\n      pop\n      pop\n      pop\n      pop\n      jump\t// out\n        /* \"contracts/ZkEvmL2MessageDeliverer.sol\":2864:3005  function requestETH (uint256 amount) external {... */\n    tag_45:\n        /* \"contracts/ZkEvmMagicNumbers.sol\":251:293  0x0000000000000000000000000000000000020000 */\n      0x020000\n        /* \"contracts/ZkEvmL2MessageDeliverer.sol\":2924:2951  msg.sender == L2_DISPATCHER */\n      0xffffffffffffffffffffffffffffffffffffffff\n      and\n        /* \"contracts/ZkEvmL2MessageDeliverer.sol\":2924:2934  msg.sender */\n      caller\n        /* \"contracts/ZkEvmL2MessageDeliverer.sol\":2924:2951  msg.sender == L2_DISPATCHER */\n      0xffffffffffffffffffffffffffffffffffffffff\n      and\n      eq\n        /* \"contracts/ZkEvmL2MessageDeliverer.sol\":2916:2961  require(msg.sender == L2_DISPATCHER, 'MSEDS') */\n      tag_85\n      jumpi\n      mload(0x40)\n      0x08c379a000000000000000000000000000000000000000000000000000000000\n      dup2\n      mstore\n      0x04\n      add\n      tag_86\n      swap1\n      tag_13\n      jump\t// in\n    tag_86:\n      mload(0x40)\n      dup1\n      swap2\n      sub\n      swap1\n      revert\n    tag_85:\n        /* \"contracts/ZkEvmL2MessageDeliverer.sol\":2968:3000  _transferETH(msg.sender, amount) */\n      tag_87\n        /* \"contracts/ZkEvmL2MessageDeliverer.sol\":2981:2991  msg.sender */\n      caller\n        /* \"contracts/ZkEvmL2MessageDeliverer.sol\":2993:2999  amount */\n      dup3\n        /* \"contracts/ZkEvmL2MessageDeliverer.sol\":2968:2980  _transferETH */\n      tag_88\n        /* \"contracts/ZkEvmL2MessageDeliverer.sol\":2968:3000  _transferETH(msg.sender, amount) */\n      jump\t// in\n    tag_87:\n        /* \"contracts/ZkEvmL2MessageDeliverer.sol\":2864:3005  function requestETH (uint256 amount) external {... */\n      pop\n      jump\t// out\n        /* \"contracts/ZkEvmUtils.sol\":127:212  function _onlyEOA () internal view {... */\n    tag_50:\n        /* \"contracts/ZkEvmUtils.sol\":189:199  msg.sender */\n      caller\n        /* \"contracts/ZkEvmUtils.sol\":176:199  tx.origin == msg.sender */\n      0xffffffffffffffffffffffffffffffffffffffff\n      and\n        /* \"contracts/ZkEvmUtils.sol\":176:185  tx.origin */\n      origin\n        /* \"contracts/ZkEvmUtils.sol\":176:199  tx.origin == msg.sender */\n      0xffffffffffffffffffffffffffffffffffffffff\n      and\n      eq\n        /* \"contracts/ZkEvmUtils.sol\":168:207  require(tx.origin == msg.sender, 'EOA') */\n      tag_90\n      jumpi\n      mload(0x40)\n      0x08c379a000000000000000000000000000000000000000000000000000000000\n      dup2\n      mstore\n      0x04\n      add\n      tag_91\n      swap1\n      tag_92\n      jump\t// in\n    tag_91:\n      mload(0x40)\n      dup1\n      swap2\n      sub\n      swap1\n      revert\n    tag_90:\n        /* \"contracts/ZkEvmUtils.sol\":127:212  function _onlyEOA () internal view {... */\n      jump\t// out\n        /* \"contracts/generated/CommonBlockOperations.sol\":92:7881  function _readBlockHeader (... */\n    tag_53:\n        /* \"contracts/generated/CommonBlockOperations.sol\":178:195  bytes32 blockHash */\n      0x00\n        /* \"contracts/generated/CommonBlockOperations.sol\":197:214  bytes32 stateRoot */\n      dup1\n        /* \"contracts/generated/CommonBlockOperations.sol\":216:234  uint256 _timestamp */\n      0x00\n        /* \"contracts/generated/CommonBlockOperations.sol\":306:528  function revertWith (msg) {... */\n      jump(tag_107)\n    tag_94:\n        /* \"contracts/generated/CommonBlockOperations.sol\":355:365  0x08c379a0 */\n      0x08c379a0\n        /* \"contracts/generated/CommonBlockOperations.sol\":350:353  224 */\n      0xe0\n        /* \"contracts/generated/CommonBlockOperations.sol\":346:366  shl(224, 0x08c379a0) */\n      shl\n        /* \"contracts/generated/CommonBlockOperations.sol\":343:344  0 */\n      0x00\n        /* \"contracts/generated/CommonBlockOperations.sol\":336:367  mstore(0, shl(224, 0x08c379a0)) */\n      mstore\n        /* \"contracts/generated/CommonBlockOperations.sol\":380:382  32 */\n      0x20\n        /* \"contracts/generated/CommonBlockOperations.sol\":377:378  4 */\n      0x04\n        /* \"contracts/generated/CommonBlockOperations.sol\":370:383  mstore(4, 32) */\n      mstore\n        /* \"contracts/generated/CommonBlockOperations.sol\":397:400  msg */\n      dup1\n        /* \"contracts/generated/CommonBlockOperations.sol\":393:395  68 */\n      0x44\n        /* \"contracts/generated/CommonBlockOperations.sol\":386:401  mstore(68, msg) */\n      mstore\n        /* \"contracts/generated/CommonBlockOperations.sol\":404:414  let msgLen */\n      0x00\n        /* \"contracts/generated/CommonBlockOperations.sol\":417:488  for {} msg {} {... */\n    tag_109:\n        /* \"contracts/generated/CommonBlockOperations.sol\":424:427  msg */\n      dup2\n        /* \"contracts/generated/CommonBlockOperations.sol\":417:488  for {} msg {} {... */\n      iszero\n      tag_111\n      jumpi\n        /* \"contracts/generated/CommonBlockOperations.sol\":451:454  msg */\n      dup2\n        /* \"contracts/generated/CommonBlockOperations.sol\":448:449  8 */\n      0x08\n        /* \"contracts/generated/CommonBlockOperations.sol\":444:455  shl(8, msg) */\n      shl\n        /* \"contracts/generated/CommonBlockOperations.sol\":437:455  msg := shl(8, msg) */\n      swap2\n      pop\n        /* \"contracts/generated/CommonBlockOperations.sol\":482:483  1 */\n      0x01\n        /* \"contracts/generated/CommonBlockOperations.sol\":474:480  msgLen */\n      dup2\n        /* \"contracts/generated/CommonBlockOperations.sol\":470:484  add(msgLen, 1) */\n      add\n        /* \"contracts/generated/CommonBlockOperations.sol\":460:484  msgLen := add(msgLen, 1) */\n      swap1\n      pop\n        /* \"contracts/generated/CommonBlockOperations.sol\":417:488  for {} msg {} {... */\n      jump(tag_109)\n    tag_111:\n        /* \"contracts/generated/CommonBlockOperations.sol\":502:508  msgLen */\n      dup1\n        /* \"contracts/generated/CommonBlockOperations.sol\":498:500  36 */\n      0x24\n        /* \"contracts/generated/CommonBlockOperations.sol\":491:509  mstore(36, msgLen) */\n      mstore\n        /* \"contracts/generated/CommonBlockOperations.sol\":522:525  100 */\n      0x64\n        /* \"contracts/generated/CommonBlockOperations.sol\":519:520  0 */\n      0x00\n        /* \"contracts/generated/CommonBlockOperations.sol\":512:526  revert(0, 100) */\n      revert\n        /* \"contracts/generated/CommonBlockOperations.sol\":1511:2214  function decodeListLength (ptr) -> len, startOffset {... */\n    tag_98:\n        /* \"contracts/generated/CommonBlockOperations.sol\":1546:1549  len */\n      0x00\n        /* \"contracts/generated/CommonBlockOperations.sol\":1551:1562  startOffset */\n      dup1\n        /* \"contracts/generated/CommonBlockOperations.sol\":1605:1608  ptr */\n      dup3\n        /* \"contracts/generated/CommonBlockOperations.sol\":1592:1609  calldataload(ptr) */\n      calldataload\n        /* \"contracts/generated/CommonBlockOperations.sol\":1589:1590  0 */\n      0x00\n        /* \"contracts/generated/CommonBlockOperations.sol\":1584:1610  byte(0, calldataload(ptr)) */\n      byte\n        /* \"contracts/generated/CommonBlockOperations.sol\":1682:1686  0xf8 */\n      0xf8\n        /* \"contracts/generated/CommonBlockOperations.sol\":1671:1680  firstByte */\n      dup2\n        /* \"contracts/generated/CommonBlockOperations.sol\":1668:1687  lt(firstByte, 0xf8) */\n      lt\n        /* \"contracts/generated/CommonBlockOperations.sol\":1665:1766  if lt(firstByte, 0xf8) {... */\n      iszero\n      tag_124\n      jumpi\n        /* \"contracts/generated/CommonBlockOperations.sol\":1716:1720  0xbf */\n      0xbf\n        /* \"contracts/generated/CommonBlockOperations.sol\":1705:1714  firstByte */\n      dup2\n        /* \"contracts/generated/CommonBlockOperations.sol\":1701:1721  sub(firstByte, 0xbf) */\n      sub\n        /* \"contracts/generated/CommonBlockOperations.sol\":1694:1721  len := sub(firstByte, 0xbf) */\n      swap3\n      pop\n        /* \"contracts/generated/CommonBlockOperations.sol\":1750:1751  1 */\n      0x01\n        /* \"contracts/generated/CommonBlockOperations.sol\":1745:1748  ptr */\n      dup5\n        /* \"contracts/generated/CommonBlockOperations.sol\":1741:1752  add(ptr, 1) */\n      add\n        /* \"contracts/generated/CommonBlockOperations.sol\":1726:1752  startOffset := add(ptr, 1) */\n      swap2\n      pop\n        /* \"contracts/generated/CommonBlockOperations.sol\":1757:1762  leave */\n      pop\n      jump(tag_123)\n        /* \"contracts/generated/CommonBlockOperations.sol\":1665:1766  if lt(firstByte, 0xf8) {... */\n    tag_124:\n        /* \"contracts/generated/CommonBlockOperations.sol\":1852:1856  0xf7 */\n      0xf7\n        /* \"contracts/generated/CommonBlockOperations.sol\":1841:1850  firstByte */\n      dup2\n        /* \"contracts/generated/CommonBlockOperations.sol\":1837:1857  sub(firstByte, 0xf7) */\n      sub\n        /* \"contracts/generated/CommonBlockOperations.sol\":1875:1876  4 */\n      0x04\n        /* \"contracts/generated/CommonBlockOperations.sol\":1868:1873  lenOf */\n      dup2\n        /* \"contracts/generated/CommonBlockOperations.sol\":1865:1877  gt(lenOf, 4) */\n      gt\n        /* \"contracts/generated/CommonBlockOperations.sol\":1862:1901  if gt(lenOf, 4) {... */\n      iszero\n      tag_125\n      jumpi\n        /* \"contracts/generated/CommonBlockOperations.sol\":1886:1895  invalid() */\n      invalid\n        /* \"contracts/generated/CommonBlockOperations.sol\":1862:1901  if gt(lenOf, 4) {... */\n    tag_125:\n        /* \"contracts/generated/CommonBlockOperations.sol\":1963:1964  1 */\n      0x01\n        /* \"contracts/generated/CommonBlockOperations.sol\":1958:1961  ptr */\n      dup6\n        /* \"contracts/generated/CommonBlockOperations.sol\":1954:1965  add(ptr, 1) */\n      add\n        /* \"contracts/generated/CommonBlockOperations.sol\":1939:1965  startOffset := add(ptr, 1) */\n      swap3\n      pop\n        /* \"contracts/generated/CommonBlockOperations.sol\":2002:2013  startOffset */\n      dup3\n        /* \"contracts/generated/CommonBlockOperations.sol\":1989:2014  calldataload(startOffset) */\n      calldataload\n        /* \"contracts/generated/CommonBlockOperations.sol\":2051:2052  8 */\n      0x08\n        /* \"contracts/generated/CommonBlockOperations.sol\":2044:2049  lenOf */\n      dup3\n        /* \"contracts/generated/CommonBlockOperations.sol\":2040:2053  mul(lenOf, 8) */\n      mul\n        /* \"contracts/generated/CommonBlockOperations.sol\":2035:2038  256 */\n      0x0100\n        /* \"contracts/generated/CommonBlockOperations.sol\":2031:2054  sub(256, mul(lenOf, 8)) */\n      sub\n        /* \"contracts/generated/CommonBlockOperations.sol\":2084:2095  extendedLen */\n      dup2\n        /* \"contracts/generated/CommonBlockOperations.sol\":2078:2082  bits */\n      dup2\n        /* \"contracts/generated/CommonBlockOperations.sol\":2074:2096  shr(bits, extendedLen) */\n      shr\n        /* \"contracts/generated/CommonBlockOperations.sol\":2059:2096  extendedLen := shr(bits, extendedLen) */\n      swap2\n      pop\n        /* \"contracts/generated/CommonBlockOperations.sol\":2126:2131  lenOf */\n      dup3\n        /* \"contracts/generated/CommonBlockOperations.sol\":2113:2124  extendedLen */\n      dup3\n        /* \"contracts/generated/CommonBlockOperations.sol\":2109:2132  add(extendedLen, lenOf) */\n      add\n        /* \"contracts/generated/CommonBlockOperations.sol\":2102:2132  len := add(extendedLen, lenOf) */\n      swap6\n      pop\n        /* \"contracts/generated/CommonBlockOperations.sol\":2153:2154  1 */\n      0x01\n        /* \"contracts/generated/CommonBlockOperations.sol\":2148:2151  len */\n      dup7\n        /* \"contracts/generated/CommonBlockOperations.sol\":2144:2155  add(len, 1) */\n      add\n        /* \"contracts/generated/CommonBlockOperations.sol\":2137:2155  len := add(len, 1) */\n      swap6\n      pop\n        /* \"contracts/generated/CommonBlockOperations.sol\":2192:2197  lenOf */\n      dup3\n        /* \"contracts/generated/CommonBlockOperations.sol\":2179:2190  startOffset */\n      dup6\n        /* \"contracts/generated/CommonBlockOperations.sol\":2175:2198  add(startOffset, lenOf) */\n      add\n        /* \"contracts/generated/CommonBlockOperations.sol\":2160:2198  startOffset := add(startOffset, lenOf) */\n      swap5\n      pop\n        /* \"contracts/generated/CommonBlockOperations.sol\":2203:2208  leave */\n      pop\n      pop\n      pop\n      pop\n        /* \"contracts/generated/CommonBlockOperations.sol\":1511:2214  function decodeListLength (ptr) -> len, startOffset {... */\n    tag_123:\n      swap2\n      pop\n      swap2\n      jump\t// out\n        /* \"contracts/generated/CommonBlockOperations.sol\":2351:3594  function decodeValue (ptr) -> dataLen, valueOffset, isData {... */\n    tag_99:\n        /* \"contracts/generated/CommonBlockOperations.sol\":2381:2388  dataLen */\n      0x00\n        /* \"contracts/generated/CommonBlockOperations.sol\":2390:2401  valueOffset */\n      dup1\n        /* \"contracts/generated/CommonBlockOperations.sol\":2403:2409  isData */\n      0x00\n        /* \"contracts/generated/CommonBlockOperations.sol\":2452:2455  ptr */\n      dup4\n        /* \"contracts/generated/CommonBlockOperations.sol\":2439:2456  calldataload(ptr) */\n      calldataload\n        /* \"contracts/generated/CommonBlockOperations.sol\":2436:2437  0 */\n      0x00\n        /* \"contracts/generated/CommonBlockOperations.sol\":2431:2457  byte(0, calldataload(ptr)) */\n      byte\n        /* \"contracts/generated/CommonBlockOperations.sol\":2512:2516  0x80 */\n      0x80\n        /* \"contracts/generated/CommonBlockOperations.sol\":2501:2510  firstByte */\n      dup2\n        /* \"contracts/generated/CommonBlockOperations.sol\":2498:2517  lt(firstByte, 0x80) */\n      lt\n        /* \"contracts/generated/CommonBlockOperations.sol\":2495:2589  if lt(firstByte, 0x80) {... */\n      iszero\n      tag_127\n      jumpi\n        /* \"contracts/generated/CommonBlockOperations.sol\":2535:2536  1 */\n      0x01\n        /* \"contracts/generated/CommonBlockOperations.sol\":2524:2536  dataLen := 1 */\n      swap4\n      pop\n        /* \"contracts/generated/CommonBlockOperations.sol\":2556:2559  ptr */\n      dup5\n        /* \"contracts/generated/CommonBlockOperations.sol\":2541:2559  valueOffset := ptr */\n      swap3\n      pop\n        /* \"contracts/generated/CommonBlockOperations.sol\":2574:2575  1 */\n      0x01\n        /* \"contracts/generated/CommonBlockOperations.sol\":2564:2575  isData := 1 */\n      swap2\n      pop\n        /* \"contracts/generated/CommonBlockOperations.sol\":2580:2585  leave */\n      pop\n      jump(tag_126)\n        /* \"contracts/generated/CommonBlockOperations.sol\":2495:2589  if lt(firstByte, 0x80) {... */\n    tag_127:\n        /* \"contracts/generated/CommonBlockOperations.sol\":2665:2669  0xb8 */\n      0xb8\n        /* \"contracts/generated/CommonBlockOperations.sol\":2654:2663  firstByte */\n      dup2\n        /* \"contracts/generated/CommonBlockOperations.sol\":2651:2670  lt(firstByte, 0xb8) */\n      lt\n        /* \"contracts/generated/CommonBlockOperations.sol\":2648:2769  if lt(firstByte, 0xb8) {... */\n      iszero\n      tag_128\n      jumpi\n        /* \"contracts/generated/CommonBlockOperations.sol\":2703:2707  0x80 */\n      0x80\n        /* \"contracts/generated/CommonBlockOperations.sol\":2692:2701  firstByte */\n      dup2\n        /* \"contracts/generated/CommonBlockOperations.sol\":2688:2708  sub(firstByte, 0x80) */\n      sub\n        /* \"contracts/generated/CommonBlockOperations.sol\":2677:2708  dataLen := sub(firstByte, 0x80) */\n      swap4\n      pop\n        /* \"contracts/generated/CommonBlockOperations.sol\":2737:2738  1 */\n      0x01\n        /* \"contracts/generated/CommonBlockOperations.sol\":2732:2735  ptr */\n      dup6\n        /* \"contracts/generated/CommonBlockOperations.sol\":2728:2739  add(ptr, 1) */\n      add\n        /* \"contracts/generated/CommonBlockOperations.sol\":2713:2739  valueOffset := add(ptr, 1) */\n      swap3\n      pop\n        /* \"contracts/generated/CommonBlockOperations.sol\":2754:2755  1 */\n      0x01\n        /* \"contracts/generated/CommonBlockOperations.sol\":2744:2755  isData := 1 */\n      swap2\n      pop\n        /* \"contracts/generated/CommonBlockOperations.sol\":2760:2765  leave */\n      pop\n      jump(tag_126)\n        /* \"contracts/generated/CommonBlockOperations.sol\":2648:2769  if lt(firstByte, 0xb8) {... */\n    tag_128:\n        /* \"contracts/generated/CommonBlockOperations.sol\":2843:2847  0xc0 */\n      0xc0\n        /* \"contracts/generated/CommonBlockOperations.sol\":2832:2841  firstByte */\n      dup2\n        /* \"contracts/generated/CommonBlockOperations.sol\":2829:2848  lt(firstByte, 0xc0) */\n      lt\n        /* \"contracts/generated/CommonBlockOperations.sol\":2826:3228  if lt(firstByte, 0xc0) {... */\n      iszero\n      tag_129\n      jumpi\n        /* \"contracts/generated/CommonBlockOperations.sol\":2883:2887  0xb7 */\n      0xb7\n        /* \"contracts/generated/CommonBlockOperations.sol\":2872:2881  firstByte */\n      dup2\n        /* \"contracts/generated/CommonBlockOperations.sol\":2868:2888  sub(firstByte, 0xb7) */\n      sub\n        /* \"contracts/generated/CommonBlockOperations.sol\":2906:2907  4 */\n      0x04\n        /* \"contracts/generated/CommonBlockOperations.sol\":2899:2904  lenOf */\n      dup2\n        /* \"contracts/generated/CommonBlockOperations.sol\":2896:2908  gt(lenOf, 4) */\n      gt\n        /* \"contracts/generated/CommonBlockOperations.sol\":2893:2932  if gt(lenOf, 4) {... */\n      iszero\n      tag_130\n      jumpi\n        /* \"contracts/generated/CommonBlockOperations.sol\":2917:2926  invalid() */\n      invalid\n        /* \"contracts/generated/CommonBlockOperations.sol\":2893:2932  if gt(lenOf, 4) {... */\n    tag_130:\n        /* \"contracts/generated/CommonBlockOperations.sol\":2994:2995  1 */\n      0x01\n        /* \"contracts/generated/CommonBlockOperations.sol\":2989:2992  ptr */\n      dup7\n        /* \"contracts/generated/CommonBlockOperations.sol\":2985:2996  add(ptr, 1) */\n      add\n        /* \"contracts/generated/CommonBlockOperations.sol\":2970:2996  valueOffset := add(ptr, 1) */\n      swap4\n      pop\n        /* \"contracts/generated/CommonBlockOperations.sol\":3033:3044  valueOffset */\n      dup4\n        /* \"contracts/generated/CommonBlockOperations.sol\":3020:3045  calldataload(valueOffset) */\n      calldataload\n        /* \"contracts/generated/CommonBlockOperations.sol\":3082:3083  8 */\n      0x08\n        /* \"contracts/generated/CommonBlockOperations.sol\":3075:3080  lenOf */\n      dup3\n        /* \"contracts/generated/CommonBlockOperations.sol\":3071:3084  mul(lenOf, 8) */\n      mul\n        /* \"contracts/generated/CommonBlockOperations.sol\":3066:3069  256 */\n      0x0100\n        /* \"contracts/generated/CommonBlockOperations.sol\":3062:3085  sub(256, mul(lenOf, 8)) */\n      sub\n        /* \"contracts/generated/CommonBlockOperations.sol\":3115:3126  extendedLen */\n      dup2\n        /* \"contracts/generated/CommonBlockOperations.sol\":3109:3113  bits */\n      dup2\n        /* \"contracts/generated/CommonBlockOperations.sol\":3105:3127  shr(bits, extendedLen) */\n      shr\n        /* \"contracts/generated/CommonBlockOperations.sol\":3090:3127  extendedLen := shr(bits, extendedLen) */\n      swap2\n      pop\n        /* \"contracts/generated/CommonBlockOperations.sol\":3144:3155  extendedLen */\n      dup2\n        /* \"contracts/generated/CommonBlockOperations.sol\":3133:3155  dataLen := extendedLen */\n      swap7\n      pop\n        /* \"contracts/generated/CommonBlockOperations.sol\":3192:3197  lenOf */\n      dup3\n        /* \"contracts/generated/CommonBlockOperations.sol\":3179:3190  valueOffset */\n      dup7\n        /* \"contracts/generated/CommonBlockOperations.sol\":3175:3198  add(valueOffset, lenOf) */\n      add\n        /* \"contracts/generated/CommonBlockOperations.sol\":3160:3198  valueOffset := add(valueOffset, lenOf) */\n      swap6\n      pop\n        /* \"contracts/generated/CommonBlockOperations.sol\":3213:3214  1 */\n      0x01\n        /* \"contracts/generated/CommonBlockOperations.sol\":3203:3214  isData := 1 */\n      swap5\n      pop\n        /* \"contracts/generated/CommonBlockOperations.sol\":3219:3224  leave */\n      pop\n      pop\n      pop\n      pop\n      jump(tag_126)\n        /* \"contracts/generated/CommonBlockOperations.sol\":2826:3228  if lt(firstByte, 0xc0) {... */\n    tag_129:\n        /* \"contracts/generated/CommonBlockOperations.sol\":3300:3304  0xf8 */\n      0xf8\n        /* \"contracts/generated/CommonBlockOperations.sol\":3289:3298  firstByte */\n      dup2\n        /* \"contracts/generated/CommonBlockOperations.sol\":3286:3305  lt(firstByte, 0xf8) */\n      lt\n        /* \"contracts/generated/CommonBlockOperations.sol\":3283:3420  if lt(firstByte, 0xf8) {... */\n      iszero\n      tag_131\n      jumpi\n        /* \"contracts/generated/CommonBlockOperations.sol\":3404:3405  1 */\n      0x01\n        /* \"contracts/generated/CommonBlockOperations.sol\":3399:3402  ptr */\n      dup6\n        /* \"contracts/generated/CommonBlockOperations.sol\":3395:3406  add(ptr, 1) */\n      add\n        /* \"contracts/generated/CommonBlockOperations.sol\":3380:3406  valueOffset := add(ptr, 1) */\n      swap3\n      pop\n        /* \"contracts/generated/CommonBlockOperations.sol\":3411:3416  leave */\n      pop\n      jump(tag_126)\n        /* \"contracts/generated/CommonBlockOperations.sol\":3283:3420  if lt(firstByte, 0xf8) {... */\n    tag_131:\n        /* \"contracts/generated/CommonBlockOperations.sol\":3542:3546  0xf7 */\n      0xf7\n        /* \"contracts/generated/CommonBlockOperations.sol\":3531:3540  firstByte */\n      dup2\n        /* \"contracts/generated/CommonBlockOperations.sol\":3527:3547  sub(firstByte, 0xf7) */\n      sub\n        /* \"contracts/generated/CommonBlockOperations.sol\":3516:3547  dataLen := sub(firstByte, 0xf7) */\n      swap4\n      pop\n        /* \"contracts/generated/CommonBlockOperations.sol\":3576:3577  1 */\n      0x01\n        /* \"contracts/generated/CommonBlockOperations.sol\":3571:3574  ptr */\n      dup6\n        /* \"contracts/generated/CommonBlockOperations.sol\":3567:3578  add(ptr, 1) */\n      add\n        /* \"contracts/generated/CommonBlockOperations.sol\":3552:3578  valueOffset := add(ptr, 1) */\n      swap3\n      pop\n        /* \"contracts/generated/CommonBlockOperations.sol\":3583:3588  leave */\n      pop\n        /* \"contracts/generated/CommonBlockOperations.sol\":2351:3594  function decodeValue (ptr) -> dataLen, valueOffset, isData {... */\n    tag_126:\n      swap2\n      swap4\n      swap1\n      swap3\n      pop\n      jump\t// out\n        /* \"contracts/generated/CommonBlockOperations.sol\":3833:4722  function decodeFlat (_ptr) -> ptr, memStart, nItems, hash {... */\n    tag_100:\n        /* \"contracts/generated/CommonBlockOperations.sol\":3863:3866  ptr */\n      0x00\n        /* \"contracts/generated/CommonBlockOperations.sol\":3868:3876  memStart */\n      dup1\n        /* \"contracts/generated/CommonBlockOperations.sol\":3878:3884  nItems */\n      0x00\n        /* \"contracts/generated/CommonBlockOperations.sol\":3886:3890  hash */\n      dup1\n        /* \"contracts/generated/CommonBlockOperations.sol\":3902:3906  _ptr */\n      dup5\n        /* \"contracts/generated/CommonBlockOperations.sol\":3895:3906  ptr := _ptr */\n      swap4\n      pop\n        /* \"contracts/generated/CommonBlockOperations.sol\":4017:4019  64 */\n      0x40\n        /* \"contracts/generated/CommonBlockOperations.sol\":4011:4020  mload(64) */\n      mload\n        /* \"contracts/generated/CommonBlockOperations.sol\":3999:4020  memStart := mload(64) */\n      swap3\n      pop\n        /* \"contracts/generated/CommonBlockOperations.sol\":4055:4076  decodeListLength(ptr) */\n      tag_133\n        /* \"contracts/generated/CommonBlockOperations.sol\":4072:4075  ptr */\n      dup5\n        /* \"contracts/generated/CommonBlockOperations.sol\":4055:4076  decodeListLength(ptr) */\n      tag_98\n      jump\t// in\n    tag_133:\n        /* \"contracts/generated/CommonBlockOperations.sol\":4143:4153  payloadLen */\n      dup2\n        /* \"contracts/generated/CommonBlockOperations.sol\":4138:4141  ptr */\n      dup7\n        /* \"contracts/generated/CommonBlockOperations.sol\":4128:4136  memStart */\n      dup7\n        /* \"contracts/generated/CommonBlockOperations.sol\":4115:4154  calldatacopy(memStart, ptr, payloadLen) */\n      calldatacopy\n        /* \"contracts/generated/CommonBlockOperations.sol\":4185:4195  payloadLen */\n      dup2\n        /* \"contracts/generated/CommonBlockOperations.sol\":4175:4183  memStart */\n      dup6\n        /* \"contracts/generated/CommonBlockOperations.sol\":4165:4196  keccak256(memStart, payloadLen) */\n      keccak256\n        /* \"contracts/generated/CommonBlockOperations.sol\":4157:4196  hash := keccak256(memStart, payloadLen) */\n      swap3\n      pop\n        /* \"contracts/generated/CommonBlockOperations.sol\":4214:4222  memStart */\n      dup5\n        /* \"contracts/generated/CommonBlockOperations.sol\":4249:4259  payloadLen */\n      dup3\n        /* \"contracts/generated/CommonBlockOperations.sol\":4244:4247  ptr */\n      dup8\n        /* \"contracts/generated/CommonBlockOperations.sol\":4240:4260  add(ptr, payloadLen) */\n      add\n        /* \"contracts/generated/CommonBlockOperations.sol\":4270:4281  startOffset */\n      dup3\n        /* \"contracts/generated/CommonBlockOperations.sol\":4263:4281  ptr := startOffset */\n      swap8\n      pop\n        /* \"contracts/generated/CommonBlockOperations.sol\":4323:4623  for {} lt(ptr, ptrStop) {} {... */\n    tag_134:\n        /* \"contracts/generated/CommonBlockOperations.sol\":4338:4345  ptrStop */\n      dup1\n        /* \"contracts/generated/CommonBlockOperations.sol\":4333:4336  ptr */\n      dup9\n        /* \"contracts/generated/CommonBlockOperations.sol\":4330:4346  lt(ptr, ptrStop) */\n      lt\n        /* \"contracts/generated/CommonBlockOperations.sol\":4323:4623  for {} lt(ptr, ptrStop) {} {... */\n      iszero\n      tag_136\n      jumpi\n        /* \"contracts/generated/CommonBlockOperations.sol\":4385:4401  decodeValue(ptr) */\n      tag_137\n        /* \"contracts/generated/CommonBlockOperations.sol\":4397:4400  ptr */\n      dup9\n        /* \"contracts/generated/CommonBlockOperations.sol\":4385:4401  decodeValue(ptr) */\n      tag_99\n      jump\t// in\n    tag_137:\n        /* \"contracts/generated/CommonBlockOperations.sol\":4422:4430  valuePtr */\n      dup2\n        /* \"contracts/generated/CommonBlockOperations.sol\":4417:4420  len */\n      dup4\n        /* \"contracts/generated/CommonBlockOperations.sol\":4413:4431  add(len, valuePtr) */\n      add\n        /* \"contracts/generated/CommonBlockOperations.sol\":4406:4431  ptr := add(len, valuePtr) */\n      swap11\n      pop\n        /* \"contracts/generated/CommonBlockOperations.sol\":4440:4446  isData */\n      dup1\n        /* \"contracts/generated/CommonBlockOperations.sol\":4437:4619  if isData {... */\n      iszero\n      tag_138\n      jumpi\n        /* \"contracts/generated/CommonBlockOperations.sol\":4546:4554  valuePtr */\n      dup2\n        /* \"contracts/generated/CommonBlockOperations.sol\":4540:4543  len */\n      dup4\n        /* \"contracts/generated/CommonBlockOperations.sol\":4535:4538  128 */\n      0x80\n        /* \"contracts/generated/CommonBlockOperations.sol\":4531:4544  shl(128, len) */\n      shl\n        /* \"contracts/generated/CommonBlockOperations.sol\":4528:4555  or(shl(128, len), valuePtr) */\n      or\n        /* \"contracts/generated/CommonBlockOperations.sol\":4577:4580  tmp */\n      dup1\n        /* \"contracts/generated/CommonBlockOperations.sol\":4569:4575  memPtr */\n      dup7\n        /* \"contracts/generated/CommonBlockOperations.sol\":4562:4581  mstore(memPtr, tmp) */\n      mstore\n        /* \"contracts/generated/CommonBlockOperations.sol\":4610:4612  32 */\n      0x20\n        /* \"contracts/generated/CommonBlockOperations.sol\":4602:4608  memPtr */\n      dup7\n        /* \"contracts/generated/CommonBlockOperations.sol\":4598:4613  add(memPtr, 32) */\n      add\n        /* \"contracts/generated/CommonBlockOperations.sol\":4588:4613  memPtr := add(memPtr, 32) */\n      swap6\n      pop\n        /* \"contracts/generated/CommonBlockOperations.sol\":4447:4619  {... */\n      pop\n        /* \"contracts/generated/CommonBlockOperations.sol\":4437:4619  if isData {... */\n    tag_138:\n        /* \"contracts/generated/CommonBlockOperations.sol\":4350:4623  {... */\n      pop\n      pop\n      pop\n        /* \"contracts/generated/CommonBlockOperations.sol\":4323:4623  for {} lt(ptr, ptrStop) {} {... */\n      jump(tag_134)\n    tag_136:\n        /* \"contracts/generated/CommonBlockOperations.sol\":4645:4652  ptrStop */\n      dup1\n        /* \"contracts/generated/CommonBlockOperations.sol\":4640:4643  ptr */\n      dup9\n        /* \"contracts/generated/CommonBlockOperations.sol\":4637:4653  eq(ptr, ptrStop) */\n      eq\n        /* \"contracts/generated/CommonBlockOperations.sol\":4627:4674  if iszero(eq(ptr, ptrStop)) {... */\n      tag_139\n      jumpi\n        /* \"contracts/generated/CommonBlockOperations.sol\":4661:4670  invalid() */\n      invalid\n        /* \"contracts/generated/CommonBlockOperations.sol\":4627:4674  if iszero(eq(ptr, ptrStop)) {... */\n    tag_139:\n        /* \"contracts/generated/CommonBlockOperations.sol\":4716:4718  32 */\n      0x20\n        /* \"contracts/generated/CommonBlockOperations.sol\":4705:4713  memStart */\n      dup8\n        /* \"contracts/generated/CommonBlockOperations.sol\":4697:4703  memPtr */\n      dup4\n        /* \"contracts/generated/CommonBlockOperations.sol\":4693:4714  sub(memPtr, memStart) */\n      sub\n        /* \"contracts/generated/CommonBlockOperations.sol\":4688:4720  div( sub(memPtr, memStart), 32 ) */\n      div\n        /* \"contracts/generated/CommonBlockOperations.sol\":4678:4720  nItems := div( sub(memPtr, memStart), 32 ) */\n      swap6\n      pop\n        /* \"contracts/generated/CommonBlockOperations.sol\":3891:4722  {... */\n      pop\n      pop\n      pop\n      pop\n        /* \"contracts/generated/CommonBlockOperations.sol\":3833:4722  function decodeFlat (_ptr) -> ptr, memStart, nItems, hash {... */\n      swap2\n      swap4\n      pop\n      swap2\n      swap4\n      jump\t// out\n        /* \"contracts/generated/CommonBlockOperations.sol\":5695:6309  function loadValue (memPtr, idx) -> value {... */\n    tag_104:\n        /* \"contracts/generated/CommonBlockOperations.sol\":5731:5736  value */\n      0x00\n        /* \"contracts/generated/CommonBlockOperations.sol\":5778:5781  idx */\n      dup3\n        /* \"contracts/generated/CommonBlockOperations.sol\":5774:5776  32 */\n      0x20\n        /* \"contracts/generated/CommonBlockOperations.sol\":5770:5782  mul(32, idx) */\n      mul\n        /* \"contracts/generated/CommonBlockOperations.sol\":5762:5768  memPtr */\n      dup3\n        /* \"contracts/generated/CommonBlockOperations.sol\":5758:5783  add(memPtr, mul(32, idx)) */\n      add\n        /* \"contracts/generated/CommonBlockOperations.sol\":5752:5784  mload(add(memPtr, mul(32, idx))) */\n      mload\n        /* \"contracts/generated/CommonBlockOperations.sol\":5875:5883  0xffffff */\n      0xffffff\n        /* \"contracts/generated/CommonBlockOperations.sol\":5870:5873  tmp */\n      dup2\n        /* \"contracts/generated/CommonBlockOperations.sol\":5866:5884  and(tmp, 0xffffff) */\n      and\n        /* \"contracts/generated/CommonBlockOperations.sol\":5907:5910  tmp */\n      dup2\n        /* \"contracts/generated/CommonBlockOperations.sol\":5902:5905  128 */\n      0x80\n        /* \"contracts/generated/CommonBlockOperations.sol\":5898:5911  shr(128, tmp) */\n      shr\n        /* \"contracts/generated/CommonBlockOperations.sol\":5926:5928  31 */\n      0x1f\n        /* \"contracts/generated/CommonBlockOperations.sol\":5921:5924  len */\n      dup2\n        /* \"contracts/generated/CommonBlockOperations.sol\":5918:5929  gt(len, 31) */\n      gt\n        /* \"contracts/generated/CommonBlockOperations.sol\":5915:6152  if gt(len, 31) {... */\n      iszero\n      tag_145\n      jumpi\n        /* \"contracts/generated/CommonBlockOperations.sol\":6100:6102  32 */\n      0x20\n        /* \"contracts/generated/CommonBlockOperations.sol\":6095:6098  len */\n      dup2\n        /* \"contracts/generated/CommonBlockOperations.sol\":6091:6103  sub(len, 32) */\n      sub\n        /* \"contracts/generated/CommonBlockOperations.sol\":6083:6089  offset */\n      dup3\n        /* \"contracts/generated/CommonBlockOperations.sol\":6079:6104  add(offset, sub(len, 32)) */\n      add\n        /* \"contracts/generated/CommonBlockOperations.sol\":6069:6104  offset := add(offset, sub(len, 32)) */\n      swap2\n      pop\n        /* \"contracts/generated/CommonBlockOperations.sol\":6131:6137  offset */\n      dup2\n        /* \"contracts/generated/CommonBlockOperations.sol\":6118:6138  calldataload(offset) */\n      calldataload\n        /* \"contracts/generated/CommonBlockOperations.sol\":6109:6138  value := calldataload(offset) */\n      swap4\n      pop\n        /* \"contracts/generated/CommonBlockOperations.sol\":6143:6148  leave */\n      pop\n      pop\n      pop\n      jump(tag_144)\n        /* \"contracts/generated/CommonBlockOperations.sol\":5915:6152  if gt(len, 31) {... */\n    tag_145:\n        /* \"contracts/generated/CommonBlockOperations.sol\":6245:6246  8 */\n      0x08\n        /* \"contracts/generated/CommonBlockOperations.sol\":6239:6242  len */\n      dup2\n        /* \"contracts/generated/CommonBlockOperations.sol\":6235:6237  32 */\n      0x20\n        /* \"contracts/generated/CommonBlockOperations.sol\":6231:6243  sub(32, len) */\n      sub\n        /* \"contracts/generated/CommonBlockOperations.sol\":6226:6247  mul( sub(32, len), 8) */\n      mul\n        /* \"contracts/generated/CommonBlockOperations.sol\":6272:6278  offset */\n      dup3\n        /* \"contracts/generated/CommonBlockOperations.sol\":6259:6279  calldataload(offset) */\n      calldataload\n        /* \"contracts/generated/CommonBlockOperations.sol\":6250:6279  value := calldataload(offset) */\n      swap5\n      pop\n        /* \"contracts/generated/CommonBlockOperations.sol\":6301:6306  value */\n      dup5\n        /* \"contracts/generated/CommonBlockOperations.sol\":6295:6299  bits */\n      dup2\n        /* \"contracts/generated/CommonBlockOperations.sol\":6291:6307  shr(bits, value) */\n      shr\n        /* \"contracts/generated/CommonBlockOperations.sol\":6282:6307  value := shr(bits, value) */\n      swap5\n      pop\n        /* \"contracts/generated/CommonBlockOperations.sol\":5737:6309  {... */\n      pop\n      pop\n      pop\n      pop\n        /* \"contracts/generated/CommonBlockOperations.sol\":5695:6309  function loadValue (memPtr, idx) -> value {... */\n    tag_144:\n      swap3\n      swap2\n      pop\n      pop\n      jump\t// out\n        /* \"contracts/generated/CommonBlockOperations.sol\":7090:7305  function loadPair (memPtr, idx) -> offset, len {... */\n    tag_107:\n        /* \"contracts/generated/CommonBlockOperations.sol\":7417:7447  decodeFlat(blockHeader.offset) */\n      tag_149\n        /* \"contracts/generated/CommonBlockOperations.sol\":7428:7446  blockHeader.offset */\n      dup6\n        /* \"contracts/generated/CommonBlockOperations.sol\":7417:7447  decodeFlat(blockHeader.offset) */\n      tag_100\n      jump\t// in\n    tag_149:\n        /* \"contracts/generated/CommonBlockOperations.sol\":7530:7548  blockHeader.length */\n      dup8\n        /* \"contracts/generated/CommonBlockOperations.sol\":7510:7528  blockHeader.offset */\n      dup10\n        /* \"contracts/generated/CommonBlockOperations.sol\":7506:7549  add(blockHeader.offset, blockHeader.length) */\n      add\n        /* \"contracts/generated/CommonBlockOperations.sol\":7493:7504  calldataPtr */\n      dup5\n        /* \"contracts/generated/CommonBlockOperations.sol\":7490:7550  eq(calldataPtr, add(blockHeader.offset, blockHeader.length)) */\n      eq\n        /* \"contracts/generated/CommonBlockOperations.sol\":7479:7591  if iszero( eq(calldataPtr, add(blockHeader.offset, blockHeader.length)) ) {... */\n      tag_150\n      jumpi\n        /* \"contracts/generated/CommonBlockOperations.sol\":7563:7583  revertWith('BOUNDS') */\n      tag_151\n        /* \"contracts/generated/CommonBlockOperations.sol\":7574:7582  'BOUNDS' */\n      0x424f554e44530000000000000000000000000000000000000000000000000000\n        /* \"contracts/generated/CommonBlockOperations.sol\":7563:7583  revertWith('BOUNDS') */\n      tag_94\n      jump\t// in\n    tag_151:\n        /* \"contracts/generated/CommonBlockOperations.sol\":7479:7591  if iszero( eq(calldataPtr, add(blockHeader.offset, blockHeader.length)) ) {... */\n    tag_150:\n        /* \"contracts/generated/CommonBlockOperations.sol\":7620:7622  16 */\n      0x10\n        /* \"contracts/generated/CommonBlockOperations.sol\":7612:7618  nItems */\n      dup3\n        /* \"contracts/generated/CommonBlockOperations.sol\":7609:7623  eq(nItems, 16) */\n      eq\n        /* \"contracts/generated/CommonBlockOperations.sol\":7598:7663  if iszero( eq(nItems, 16) ) {... */\n      tag_152\n      jumpi\n        /* \"contracts/generated/CommonBlockOperations.sol\":7636:7655  revertWith('ITEMS') */\n      tag_153\n        /* \"contracts/generated/CommonBlockOperations.sol\":7647:7654  'ITEMS' */\n      0x4954454d53000000000000000000000000000000000000000000000000000000\n        /* \"contracts/generated/CommonBlockOperations.sol\":7636:7655  revertWith('ITEMS') */\n      tag_94\n      jump\t// in\n    tag_153:\n        /* \"contracts/generated/CommonBlockOperations.sol\":7598:7663  if iszero( eq(nItems, 16) ) {... */\n    tag_152:\n        /* \"contracts/generated/CommonBlockOperations.sol\":7684:7688  hash */\n      dup1\n        /* \"contracts/generated/CommonBlockOperations.sol\":7671:7688  blockHash := hash */\n      swap7\n      pop\n        /* \"contracts/generated/CommonBlockOperations.sol\":7756:7778  loadValue(memStart, 3) */\n      tag_154\n        /* \"contracts/generated/CommonBlockOperations.sol\":7776:7777  3 */\n      0x03\n        /* \"contracts/generated/CommonBlockOperations.sol\":7766:7774  memStart */\n      dup5\n        /* \"contracts/generated/CommonBlockOperations.sol\":7756:7778  loadValue(memStart, 3) */\n      tag_104\n      jump\t// in\n    tag_154:\n        /* \"contracts/generated/CommonBlockOperations.sol\":7743:7778  stateRoot := loadValue(memStart, 3) */\n      swap6\n      pop\n        /* \"contracts/generated/CommonBlockOperations.sol\":7848:7871  loadValue(memStart, 11) */\n      tag_155\n        /* \"contracts/generated/CommonBlockOperations.sol\":7868:7870  11 */\n      0x0b\n        /* \"contracts/generated/CommonBlockOperations.sol\":7858:7866  memStart */\n      dup5\n        /* \"contracts/generated/CommonBlockOperations.sol\":7848:7871  loadValue(memStart, 11) */\n      tag_104\n      jump\t// in\n    tag_155:\n        /* \"contracts/generated/CommonBlockOperations.sol\":7834:7871  _timestamp := loadValue(memStart, 11) */\n      swap5\n      pop\n        /* \"contracts/generated/CommonBlockOperations.sol\":251:7877  {... */\n      pop\n      pop\n      pop\n      pop\n        /* \"contracts/generated/CommonBlockOperations.sol\":92:7881  function _readBlockHeader (... */\n      swap3\n      pop\n      swap3\n      pop\n      swap3\n      jump\t// out\n        /* \"contracts/generated/PatriciaAccountValidator.sol\":95:11842  function _validatePatriciaAccountProof (... */\n    tag_58:\n        /* \"contracts/generated/PatriciaAccountValidator.sol\":213:230  bytes32 stateRoot */\n      0x00\n        /* \"contracts/generated/PatriciaAccountValidator.sol\":232:251  bytes32 storageHash */\n      dup1\n        /* \"contracts/generated/PatriciaAccountValidator.sol\":421:942  function decodeItem (word, len) -> ret {... */\n      jump(tag_173)\n        /* \"contracts/generated/PatriciaAccountValidator.sol\":1051:1754  function decodeListLength (ptr) -> len, startOffset {... */\n    tag_158:\n        /* \"contracts/generated/PatriciaAccountValidator.sol\":1086:1089  len */\n      0x00\n        /* \"contracts/generated/PatriciaAccountValidator.sol\":1091:1102  startOffset */\n      dup1\n        /* \"contracts/generated/PatriciaAccountValidator.sol\":1145:1148  ptr */\n      dup3\n        /* \"contracts/generated/PatriciaAccountValidator.sol\":1132:1149  calldataload(ptr) */\n      calldataload\n        /* \"contracts/generated/PatriciaAccountValidator.sol\":1129:1130  0 */\n      0x00\n        /* \"contracts/generated/PatriciaAccountValidator.sol\":1124:1150  byte(0, calldataload(ptr)) */\n      byte\n        /* \"contracts/generated/PatriciaAccountValidator.sol\":1222:1226  0xf8 */\n      0xf8\n        /* \"contracts/generated/PatriciaAccountValidator.sol\":1211:1220  firstByte */\n      dup2\n        /* \"contracts/generated/PatriciaAccountValidator.sol\":1208:1227  lt(firstByte, 0xf8) */\n      lt\n        /* \"contracts/generated/PatriciaAccountValidator.sol\":1205:1306  if lt(firstByte, 0xf8) {... */\n      iszero\n      tag_178\n      jumpi\n        /* \"contracts/generated/PatriciaAccountValidator.sol\":1256:1260  0xbf */\n      0xbf\n        /* \"contracts/generated/PatriciaAccountValidator.sol\":1245:1254  firstByte */\n      dup2\n        /* \"contracts/generated/PatriciaAccountValidator.sol\":1241:1261  sub(firstByte, 0xbf) */\n      sub\n        /* \"contracts/generated/PatriciaAccountValidator.sol\":1234:1261  len := sub(firstByte, 0xbf) */\n      swap3\n      pop\n        /* \"contracts/generated/PatriciaAccountValidator.sol\":1290:1291  1 */\n      0x01\n        /* \"contracts/generated/PatriciaAccountValidator.sol\":1285:1288  ptr */\n      dup5\n        /* \"contracts/generated/PatriciaAccountValidator.sol\":1281:1292  add(ptr, 1) */\n      add\n        /* \"contracts/generated/PatriciaAccountValidator.sol\":1266:1292  startOffset := add(ptr, 1) */\n      swap2\n      pop\n        /* \"contracts/generated/PatriciaAccountValidator.sol\":1297:1302  leave */\n      pop\n      jump(tag_177)\n        /* \"contracts/generated/PatriciaAccountValidator.sol\":1205:1306  if lt(firstByte, 0xf8) {... */\n    tag_178:\n        /* \"contracts/generated/PatriciaAccountValidator.sol\":1392:1396  0xf7 */\n      0xf7\n        /* \"contracts/generated/PatriciaAccountValidator.sol\":1381:1390  firstByte */\n      dup2\n        /* \"contracts/generated/PatriciaAccountValidator.sol\":1377:1397  sub(firstByte, 0xf7) */\n      sub\n        /* \"contracts/generated/PatriciaAccountValidator.sol\":1415:1416  4 */\n      0x04\n        /* \"contracts/generated/PatriciaAccountValidator.sol\":1408:1413  lenOf */\n      dup2\n        /* \"contracts/generated/PatriciaAccountValidator.sol\":1405:1417  gt(lenOf, 4) */\n      gt\n        /* \"contracts/generated/PatriciaAccountValidator.sol\":1402:1441  if gt(lenOf, 4) {... */\n      iszero\n      tag_179\n      jumpi\n        /* \"contracts/generated/PatriciaAccountValidator.sol\":1426:1435  invalid() */\n      invalid\n        /* \"contracts/generated/PatriciaAccountValidator.sol\":1402:1441  if gt(lenOf, 4) {... */\n    tag_179:\n        /* \"contracts/generated/PatriciaAccountValidator.sol\":1503:1504  1 */\n      0x01\n        /* \"contracts/generated/PatriciaAccountValidator.sol\":1498:1501  ptr */\n      dup6\n        /* \"contracts/generated/PatriciaAccountValidator.sol\":1494:1505  add(ptr, 1) */\n      add\n        /* \"contracts/generated/PatriciaAccountValidator.sol\":1479:1505  startOffset := add(ptr, 1) */\n      swap3\n      pop\n        /* \"contracts/generated/PatriciaAccountValidator.sol\":1542:1553  startOffset */\n      dup3\n        /* \"contracts/generated/PatriciaAccountValidator.sol\":1529:1554  calldataload(startOffset) */\n      calldataload\n        /* \"contracts/generated/PatriciaAccountValidator.sol\":1591:1592  8 */\n      0x08\n        /* \"contracts/generated/PatriciaAccountValidator.sol\":1584:1589  lenOf */\n      dup3\n        /* \"contracts/generated/PatriciaAccountValidator.sol\":1580:1593  mul(lenOf, 8) */\n      mul\n        /* \"contracts/generated/PatriciaAccountValidator.sol\":1575:1578  256 */\n      0x0100\n        /* \"contracts/generated/PatriciaAccountValidator.sol\":1571:1594  sub(256, mul(lenOf, 8)) */\n      sub\n        /* \"contracts/generated/PatriciaAccountValidator.sol\":1624:1635  extendedLen */\n      dup2\n        /* \"contracts/generated/PatriciaAccountValidator.sol\":1618:1622  bits */\n      dup2\n        /* \"contracts/generated/PatriciaAccountValidator.sol\":1614:1636  shr(bits, extendedLen) */\n      shr\n        /* \"contracts/generated/PatriciaAccountValidator.sol\":1599:1636  extendedLen := shr(bits, extendedLen) */\n      swap2\n      pop\n        /* \"contracts/generated/PatriciaAccountValidator.sol\":1666:1671  lenOf */\n      dup3\n        /* \"contracts/generated/PatriciaAccountValidator.sol\":1653:1664  extendedLen */\n      dup3\n        /* \"contracts/generated/PatriciaAccountValidator.sol\":1649:1672  add(extendedLen, lenOf) */\n      add\n        /* \"contracts/generated/PatriciaAccountValidator.sol\":1642:1672  len := add(extendedLen, lenOf) */\n      swap6\n      pop\n        /* \"contracts/generated/PatriciaAccountValidator.sol\":1693:1694  1 */\n      0x01\n        /* \"contracts/generated/PatriciaAccountValidator.sol\":1688:1691  len */\n      dup7\n        /* \"contracts/generated/PatriciaAccountValidator.sol\":1684:1695  add(len, 1) */\n      add\n        /* \"contracts/generated/PatriciaAccountValidator.sol\":1677:1695  len := add(len, 1) */\n      swap6\n      pop\n        /* \"contracts/generated/PatriciaAccountValidator.sol\":1732:1737  lenOf */\n      dup3\n        /* \"contracts/generated/PatriciaAccountValidator.sol\":1719:1730  startOffset */\n      dup6\n        /* \"contracts/generated/PatriciaAccountValidator.sol\":1715:1738  add(startOffset, lenOf) */\n      add\n        /* \"contracts/generated/PatriciaAccountValidator.sol\":1700:1738  startOffset := add(startOffset, lenOf) */\n      swap5\n      pop\n        /* \"contracts/generated/PatriciaAccountValidator.sol\":1743:1748  leave */\n      pop\n      pop\n      pop\n      pop\n        /* \"contracts/generated/PatriciaAccountValidator.sol\":1051:1754  function decodeListLength (ptr) -> len, startOffset {... */\n    tag_177:\n      swap2\n      pop\n      swap2\n      jump\t// out\n        /* \"contracts/generated/PatriciaAccountValidator.sol\":1891:3134  function decodeValue (ptr) -> dataLen, valueOffset, isData {... */\n    tag_159:\n        /* \"contracts/generated/PatriciaAccountValidator.sol\":1921:1928  dataLen */\n      0x00\n        /* \"contracts/generated/PatriciaAccountValidator.sol\":1930:1941  valueOffset */\n      dup1\n        /* \"contracts/generated/PatriciaAccountValidator.sol\":1943:1949  isData */\n      0x00\n        /* \"contracts/generated/PatriciaAccountValidator.sol\":1992:1995  ptr */\n      dup4\n        /* \"contracts/generated/PatriciaAccountValidator.sol\":1979:1996  calldataload(ptr) */\n      calldataload\n        /* \"contracts/generated/PatriciaAccountValidator.sol\":1976:1977  0 */\n      0x00\n        /* \"contracts/generated/PatriciaAccountValidator.sol\":1971:1997  byte(0, calldataload(ptr)) */\n      byte\n        /* \"contracts/generated/PatriciaAccountValidator.sol\":2052:2056  0x80 */\n      0x80\n        /* \"contracts/generated/PatriciaAccountValidator.sol\":2041:2050  firstByte */\n      dup2\n        /* \"contracts/generated/PatriciaAccountValidator.sol\":2038:2057  lt(firstByte, 0x80) */\n      lt\n        /* \"contracts/generated/PatriciaAccountValidator.sol\":2035:2129  if lt(firstByte, 0x80) {... */\n      iszero\n      tag_181\n      jumpi\n        /* \"contracts/generated/PatriciaAccountValidator.sol\":2075:2076  1 */\n      0x01\n        /* \"contracts/generated/PatriciaAccountValidator.sol\":2064:2076  dataLen := 1 */\n      swap4\n      pop\n        /* \"contracts/generated/PatriciaAccountValidator.sol\":2096:2099  ptr */\n      dup5\n        /* \"contracts/generated/PatriciaAccountValidator.sol\":2081:2099  valueOffset := ptr */\n      swap3\n      pop\n        /* \"contracts/generated/PatriciaAccountValidator.sol\":2114:2115  1 */\n      0x01\n        /* \"contracts/generated/PatriciaAccountValidator.sol\":2104:2115  isData := 1 */\n      swap2\n      pop\n        /* \"contracts/generated/PatriciaAccountValidator.sol\":2120:2125  leave */\n      pop\n      jump(tag_180)\n        /* \"contracts/generated/PatriciaAccountValidator.sol\":2035:2129  if lt(firstByte, 0x80) {... */\n    tag_181:\n        /* \"contracts/generated/PatriciaAccountValidator.sol\":2205:2209  0xb8 */\n      0xb8\n        /* \"contracts/generated/PatriciaAccountValidator.sol\":2194:2203  firstByte */\n      dup2\n        /* \"contracts/generated/PatriciaAccountValidator.sol\":2191:2210  lt(firstByte, 0xb8) */\n      lt\n        /* \"contracts/generated/PatriciaAccountValidator.sol\":2188:2309  if lt(firstByte, 0xb8) {... */\n      iszero\n      tag_182\n      jumpi\n        /* \"contracts/generated/PatriciaAccountValidator.sol\":2243:2247  0x80 */\n      0x80\n        /* \"contracts/generated/PatriciaAccountValidator.sol\":2232:2241  firstByte */\n      dup2\n        /* \"contracts/generated/PatriciaAccountValidator.sol\":2228:2248  sub(firstByte, 0x80) */\n      sub\n        /* \"contracts/generated/PatriciaAccountValidator.sol\":2217:2248  dataLen := sub(firstByte, 0x80) */\n      swap4\n      pop\n        /* \"contracts/generated/PatriciaAccountValidator.sol\":2277:2278  1 */\n      0x01\n        /* \"contracts/generated/PatriciaAccountValidator.sol\":2272:2275  ptr */\n      dup6\n        /* \"contracts/generated/PatriciaAccountValidator.sol\":2268:2279  add(ptr, 1) */\n      add\n        /* \"contracts/generated/PatriciaAccountValidator.sol\":2253:2279  valueOffset := add(ptr, 1) */\n      swap3\n      pop\n        /* \"contracts/generated/PatriciaAccountValidator.sol\":2294:2295  1 */\n      0x01\n        /* \"contracts/generated/PatriciaAccountValidator.sol\":2284:2295  isData := 1 */\n      swap2\n      pop\n        /* \"contracts/generated/PatriciaAccountValidator.sol\":2300:2305  leave */\n      pop\n      jump(tag_180)\n        /* \"contracts/generated/PatriciaAccountValidator.sol\":2188:2309  if lt(firstByte, 0xb8) {... */\n    tag_182:\n        /* \"contracts/generated/PatriciaAccountValidator.sol\":2383:2387  0xc0 */\n      0xc0\n        /* \"contracts/generated/PatriciaAccountValidator.sol\":2372:2381  firstByte */\n      dup2\n        /* \"contracts/generated/PatriciaAccountValidator.sol\":2369:2388  lt(firstByte, 0xc0) */\n      lt\n        /* \"contracts/generated/PatriciaAccountValidator.sol\":2366:2768  if lt(firstByte, 0xc0) {... */\n      iszero\n      tag_183\n      jumpi\n        /* \"contracts/generated/PatriciaAccountValidator.sol\":2423:2427  0xb7 */\n      0xb7\n        /* \"contracts/generated/PatriciaAccountValidator.sol\":2412:2421  firstByte */\n      dup2\n        /* \"contracts/generated/PatriciaAccountValidator.sol\":2408:2428  sub(firstByte, 0xb7) */\n      sub\n        /* \"contracts/generated/PatriciaAccountValidator.sol\":2446:2447  4 */\n      0x04\n        /* \"contracts/generated/PatriciaAccountValidator.sol\":2439:2444  lenOf */\n      dup2\n        /* \"contracts/generated/PatriciaAccountValidator.sol\":2436:2448  gt(lenOf, 4) */\n      gt\n        /* \"contracts/generated/PatriciaAccountValidator.sol\":2433:2472  if gt(lenOf, 4) {... */\n      iszero\n      tag_184\n      jumpi\n        /* \"contracts/generated/PatriciaAccountValidator.sol\":2457:2466  invalid() */\n      invalid\n        /* \"contracts/generated/PatriciaAccountValidator.sol\":2433:2472  if gt(lenOf, 4) {... */\n    tag_184:\n        /* \"contracts/generated/PatriciaAccountValidator.sol\":2534:2535  1 */\n      0x01\n        /* \"contracts/generated/PatriciaAccountValidator.sol\":2529:2532  ptr */\n      dup7\n        /* \"contracts/generated/PatriciaAccountValidator.sol\":2525:2536  add(ptr, 1) */\n      add\n        /* \"contracts/generated/PatriciaAccountValidator.sol\":2510:2536  valueOffset := add(ptr, 1) */\n      swap4\n      pop\n        /* \"contracts/generated/PatriciaAccountValidator.sol\":2573:2584  valueOffset */\n      dup4\n        /* \"contracts/generated/PatriciaAccountValidator.sol\":2560:2585  calldataload(valueOffset) */\n      calldataload\n        /* \"contracts/generated/PatriciaAccountValidator.sol\":2622:2623  8 */\n      0x08\n        /* \"contracts/generated/PatriciaAccountValidator.sol\":2615:2620  lenOf */\n      dup3\n        /* \"contracts/generated/PatriciaAccountValidator.sol\":2611:2624  mul(lenOf, 8) */\n      mul\n        /* \"contracts/generated/PatriciaAccountValidator.sol\":2606:2609  256 */\n      0x0100\n        /* \"contracts/generated/PatriciaAccountValidator.sol\":2602:2625  sub(256, mul(lenOf, 8)) */\n      sub\n        /* \"contracts/generated/PatriciaAccountValidator.sol\":2655:2666  extendedLen */\n      dup2\n        /* \"contracts/generated/PatriciaAccountValidator.sol\":2649:2653  bits */\n      dup2\n        /* \"contracts/generated/PatriciaAccountValidator.sol\":2645:2667  shr(bits, extendedLen) */\n      shr\n        /* \"contracts/generated/PatriciaAccountValidator.sol\":2630:2667  extendedLen := shr(bits, extendedLen) */\n      swap2\n      pop\n        /* \"contracts/generated/PatriciaAccountValidator.sol\":2684:2695  extendedLen */\n      dup2\n        /* \"contracts/generated/PatriciaAccountValidator.sol\":2673:2695  dataLen := extendedLen */\n      swap7\n      pop\n        /* \"contracts/generated/PatriciaAccountValidator.sol\":2732:2737  lenOf */\n      dup3\n        /* \"contracts/generated/PatriciaAccountValidator.sol\":2719:2730  valueOffset */\n      dup7\n        /* \"contracts/generated/PatriciaAccountValidator.sol\":2715:2738  add(valueOffset, lenOf) */\n      add\n        /* \"contracts/generated/PatriciaAccountValidator.sol\":2700:2738  valueOffset := add(valueOffset, lenOf) */\n      swap6\n      pop\n        /* \"contracts/generated/PatriciaAccountValidator.sol\":2753:2754  1 */\n      0x01\n        /* \"contracts/generated/PatriciaAccountValidator.sol\":2743:2754  isData := 1 */\n      swap5\n      pop\n        /* \"contracts/generated/PatriciaAccountValidator.sol\":2759:2764  leave */\n      pop\n      pop\n      pop\n      pop\n      jump(tag_180)\n        /* \"contracts/generated/PatriciaAccountValidator.sol\":2366:2768  if lt(firstByte, 0xc0) {... */\n    tag_183:\n        /* \"contracts/generated/PatriciaAccountValidator.sol\":2840:2844  0xf8 */\n      0xf8\n        /* \"contracts/generated/PatriciaAccountValidator.sol\":2829:2838  firstByte */\n      dup2\n        /* \"contracts/generated/PatriciaAccountValidator.sol\":2826:2845  lt(firstByte, 0xf8) */\n      lt\n        /* \"contracts/generated/PatriciaAccountValidator.sol\":2823:2960  if lt(firstByte, 0xf8) {... */\n      iszero\n      tag_185\n      jumpi\n        /* \"contracts/generated/PatriciaAccountValidator.sol\":2944:2945  1 */\n      0x01\n        /* \"contracts/generated/PatriciaAccountValidator.sol\":2939:2942  ptr */\n      dup6\n        /* \"contracts/generated/PatriciaAccountValidator.sol\":2935:2946  add(ptr, 1) */\n      add\n        /* \"contracts/generated/PatriciaAccountValidator.sol\":2920:2946  valueOffset := add(ptr, 1) */\n      swap3\n      pop\n        /* \"contracts/generated/PatriciaAccountValidator.sol\":2951:2956  leave */\n      pop\n      jump(tag_180)\n        /* \"contracts/generated/PatriciaAccountValidator.sol\":2823:2960  if lt(firstByte, 0xf8) {... */\n    tag_185:\n        /* \"contracts/generated/PatriciaAccountValidator.sol\":3082:3086  0xf7 */\n      0xf7\n        /* \"contracts/generated/PatriciaAccountValidator.sol\":3071:3080  firstByte */\n      dup2\n        /* \"contracts/generated/PatriciaAccountValidator.sol\":3067:3087  sub(firstByte, 0xf7) */\n      sub\n        /* \"contracts/generated/PatriciaAccountValidator.sol\":3056:3087  dataLen := sub(firstByte, 0xf7) */\n      swap4\n      pop\n        /* \"contracts/generated/PatriciaAccountValidator.sol\":3116:3117  1 */\n      0x01\n        /* \"contracts/generated/PatriciaAccountValidator.sol\":3111:3114  ptr */\n      dup6\n        /* \"contracts/generated/PatriciaAccountValidator.sol\":3107:3118  add(ptr, 1) */\n      add\n        /* \"contracts/generated/PatriciaAccountValidator.sol\":3092:3118  valueOffset := add(ptr, 1) */\n      swap3\n      pop\n        /* \"contracts/generated/PatriciaAccountValidator.sol\":3123:3128  leave */\n      pop\n        /* \"contracts/generated/PatriciaAccountValidator.sol\":1891:3134  function decodeValue (ptr) -> dataLen, valueOffset, isData {... */\n    tag_180:\n      swap2\n      swap4\n      swap1\n      swap3\n      pop\n      jump\t// out\n        /* \"contracts/generated/PatriciaAccountValidator.sol\":3373:4262  function decodeFlat (_ptr) -> ptr, memStart, nItems, hash {... */\n    tag_160:\n        /* \"contracts/generated/PatriciaAccountValidator.sol\":3403:3406  ptr */\n      0x00\n        /* \"contracts/generated/PatriciaAccountValidator.sol\":3408:3416  memStart */\n      dup1\n        /* \"contracts/generated/PatriciaAccountValidator.sol\":3418:3424  nItems */\n      0x00\n        /* \"contracts/generated/PatriciaAccountValidator.sol\":3426:3430  hash */\n      dup1\n        /* \"contracts/generated/PatriciaAccountValidator.sol\":3442:3446  _ptr */\n      dup5\n        /* \"contracts/generated/PatriciaAccountValidator.sol\":3435:3446  ptr := _ptr */\n      swap4\n      pop\n        /* \"contracts/generated/PatriciaAccountValidator.sol\":3557:3559  64 */\n      0x40\n        /* \"contracts/generated/PatriciaAccountValidator.sol\":3551:3560  mload(64) */\n      mload\n        /* \"contracts/generated/PatriciaAccountValidator.sol\":3539:3560  memStart := mload(64) */\n      swap3\n      pop\n        /* \"contracts/generated/PatriciaAccountValidator.sol\":3595:3616  decodeListLength(ptr) */\n      tag_187\n        /* \"contracts/generated/PatriciaAccountValidator.sol\":3612:3615  ptr */\n      dup5\n        /* \"contracts/generated/PatriciaAccountValidator.sol\":3595:3616  decodeListLength(ptr) */\n      tag_158\n      jump\t// in\n    tag_187:\n        /* \"contracts/generated/PatriciaAccountValidator.sol\":3683:3693  payloadLen */\n      dup2\n        /* \"contracts/generated/PatriciaAccountValidator.sol\":3678:3681  ptr */\n      dup7\n        /* \"contracts/generated/PatriciaAccountValidator.sol\":3668:3676  memStart */\n      dup7\n        /* \"contracts/generated/PatriciaAccountValidator.sol\":3655:3694  calldatacopy(memStart, ptr, payloadLen) */\n      calldatacopy\n        /* \"contracts/generated/PatriciaAccountValidator.sol\":3725:3735  payloadLen */\n      dup2\n        /* \"contracts/generated/PatriciaAccountValidator.sol\":3715:3723  memStart */\n      dup6\n        /* \"contracts/generated/PatriciaAccountValidator.sol\":3705:3736  keccak256(memStart, payloadLen) */\n      keccak256\n        /* \"contracts/generated/PatriciaAccountValidator.sol\":3697:3736  hash := keccak256(memStart, payloadLen) */\n      swap3\n      pop\n        /* \"contracts/generated/PatriciaAccountValidator.sol\":3754:3762  memStart */\n      dup5\n        /* \"contracts/generated/PatriciaAccountValidator.sol\":3789:3799  payloadLen */\n      dup3\n        /* \"contracts/generated/PatriciaAccountValidator.sol\":3784:3787  ptr */\n      dup8\n        /* \"contracts/generated/PatriciaAccountValidator.sol\":3780:3800  add(ptr, payloadLen) */\n      add\n        /* \"contracts/generated/PatriciaAccountValidator.sol\":3810:3821  startOffset */\n      dup3\n        /* \"contracts/generated/PatriciaAccountValidator.sol\":3803:3821  ptr := startOffset */\n      swap8\n      pop\n        /* \"contracts/generated/PatriciaAccountValidator.sol\":3863:4163  for {} lt(ptr, ptrStop) {} {... */\n    tag_188:\n        /* \"contracts/generated/PatriciaAccountValidator.sol\":3878:3885  ptrStop */\n      dup1\n        /* \"contracts/generated/PatriciaAccountValidator.sol\":3873:3876  ptr */\n      dup9\n        /* \"contracts/generated/PatriciaAccountValidator.sol\":3870:3886  lt(ptr, ptrStop) */\n      lt\n        /* \"contracts/generated/PatriciaAccountValidator.sol\":3863:4163  for {} lt(ptr, ptrStop) {} {... */\n      iszero\n      tag_190\n      jumpi\n        /* \"contracts/generated/PatriciaAccountValidator.sol\":3925:3941  decodeValue(ptr) */\n      tag_191\n        /* \"contracts/generated/PatriciaAccountValidator.sol\":3937:3940  ptr */\n      dup9\n        /* \"contracts/generated/PatriciaAccountValidator.sol\":3925:3941  decodeValue(ptr) */\n      tag_159\n      jump\t// in\n    tag_191:\n        /* \"contracts/generated/PatriciaAccountValidator.sol\":3962:3970  valuePtr */\n      dup2\n        /* \"contracts/generated/PatriciaAccountValidator.sol\":3957:3960  len */\n      dup4\n        /* \"contracts/generated/PatriciaAccountValidator.sol\":3953:3971  add(len, valuePtr) */\n      add\n        /* \"contracts/generated/PatriciaAccountValidator.sol\":3946:3971  ptr := add(len, valuePtr) */\n      swap11\n      pop\n        /* \"contracts/generated/PatriciaAccountValidator.sol\":3980:3986  isData */\n      dup1\n        /* \"contracts/generated/PatriciaAccountValidator.sol\":3977:4159  if isData {... */\n      iszero\n      tag_192\n      jumpi\n        /* \"contracts/generated/PatriciaAccountValidator.sol\":4086:4094  valuePtr */\n      dup2\n        /* \"contracts/generated/PatriciaAccountValidator.sol\":4080:4083  len */\n      dup4\n        /* \"contracts/generated/PatriciaAccountValidator.sol\":4075:4078  128 */\n      0x80\n        /* \"contracts/generated/PatriciaAccountValidator.sol\":4071:4084  shl(128, len) */\n      shl\n        /* \"contracts/generated/PatriciaAccountValidator.sol\":4068:4095  or(shl(128, len), valuePtr) */\n      or\n        /* \"contracts/generated/PatriciaAccountValidator.sol\":4117:4120  tmp */\n      dup1\n        /* \"contracts/generated/PatriciaAccountValidator.sol\":4109:4115  memPtr */\n      dup7\n        /* \"contracts/generated/PatriciaAccountValidator.sol\":4102:4121  mstore(memPtr, tmp) */\n      mstore\n        /* \"contracts/generated/PatriciaAccountValidator.sol\":4150:4152  32 */\n      0x20\n        /* \"contracts/generated/PatriciaAccountValidator.sol\":4142:4148  memPtr */\n      dup7\n        /* \"contracts/generated/PatriciaAccountValidator.sol\":4138:4153  add(memPtr, 32) */\n      add\n        /* \"contracts/generated/PatriciaAccountValidator.sol\":4128:4153  memPtr := add(memPtr, 32) */\n      swap6\n      pop\n        /* \"contracts/generated/PatriciaAccountValidator.sol\":3987:4159  {... */\n      pop\n        /* \"contracts/generated/PatriciaAccountValidator.sol\":3977:4159  if isData {... */\n    tag_192:\n        /* \"contracts/generated/PatriciaAccountValidator.sol\":3890:4163  {... */\n      pop\n      pop\n      pop\n        /* \"contracts/generated/PatriciaAccountValidator.sol\":3863:4163  for {} lt(ptr, ptrStop) {} {... */\n      jump(tag_188)\n    tag_190:\n        /* \"contracts/generated/PatriciaAccountValidator.sol\":4185:4192  ptrStop */\n      dup1\n        /* \"contracts/generated/PatriciaAccountValidator.sol\":4180:4183  ptr */\n      dup9\n        /* \"contracts/generated/PatriciaAccountValidator.sol\":4177:4193  eq(ptr, ptrStop) */\n      eq\n        /* \"contracts/generated/PatriciaAccountValidator.sol\":4167:4214  if iszero(eq(ptr, ptrStop)) {... */\n      tag_193\n      jumpi\n        /* \"contracts/generated/PatriciaAccountValidator.sol\":4201:4210  invalid() */\n      invalid\n        /* \"contracts/generated/PatriciaAccountValidator.sol\":4167:4214  if iszero(eq(ptr, ptrStop)) {... */\n    tag_193:\n        /* \"contracts/generated/PatriciaAccountValidator.sol\":4256:4258  32 */\n      0x20\n        /* \"contracts/generated/PatriciaAccountValidator.sol\":4245:4253  memStart */\n      dup8\n        /* \"contracts/generated/PatriciaAccountValidator.sol\":4237:4243  memPtr */\n      dup4\n        /* \"contracts/generated/PatriciaAccountValidator.sol\":4233:4254  sub(memPtr, memStart) */\n      sub\n        /* \"contracts/generated/PatriciaAccountValidator.sol\":4228:4260  div( sub(memPtr, memStart), 32 ) */\n      div\n        /* \"contracts/generated/PatriciaAccountValidator.sol\":4218:4260  nItems := div( sub(memPtr, memStart), 32 ) */\n      swap6\n      pop\n        /* \"contracts/generated/PatriciaAccountValidator.sol\":3431:4262  {... */\n      pop\n      pop\n      pop\n      pop\n        /* \"contracts/generated/PatriciaAccountValidator.sol\":3373:4262  function decodeFlat (_ptr) -> ptr, memStart, nItems, hash {... */\n      swap2\n      swap4\n      pop\n      swap2\n      swap4\n      jump\t// out\n        /* \"contracts/generated/PatriciaAccountValidator.sol\":4397:4468  function keccak_20 (v) -> r {... */\n    tag_162:\n        /* \"contracts/generated/PatriciaAccountValidator.sol\":4423:4424  r */\n      0x00\n        /* \"contracts/generated/PatriciaAccountValidator.sol\":4439:4440  v */\n      dup2\n        /* \"contracts/generated/PatriciaAccountValidator.sol\":4436:4437  0 */\n      0x00\n        /* \"contracts/generated/PatriciaAccountValidator.sol\":4429:4441  mstore(0, v) */\n      mstore\n        /* \"contracts/generated/PatriciaAccountValidator.sol\":4463:4465  20 */\n      0x14\n        /* \"contracts/generated/PatriciaAccountValidator.sol\":4459:4461  12 */\n      0x0c\n        /* \"contracts/generated/PatriciaAccountValidator.sol\":4449:4466  keccak256(12, 20) */\n      keccak256\n        /* \"contracts/generated/PatriciaAccountValidator.sol\":4444:4466  r := keccak256(12, 20) */\n      swap1\n      pop\n        /* \"contracts/generated/PatriciaAccountValidator.sol\":4397:4468  function keccak_20 (v) -> r {... */\n      swap2\n      swap1\n      pop\n      jump\t// out\n        /* \"contracts/generated/PatriciaAccountValidator.sol\":4711:5146  function derivePath (key, depth) -> path {... */\n    tag_163:\n        /* \"contracts/generated/PatriciaAccountValidator.sol\":4747:4751  path */\n      0x00\n        /* \"contracts/generated/PatriciaAccountValidator.sol\":4764:4767  key */\n      dup2\n        /* \"contracts/generated/PatriciaAccountValidator.sol\":4756:4767  path := key */\n      swap1\n      pop\n        /* \"contracts/generated/PatriciaAccountValidator.sol\":4794:4795  4 */\n      0x04\n        /* \"contracts/generated/PatriciaAccountValidator.sol\":4787:4792  depth */\n      dup4\n        /* \"contracts/generated/PatriciaAccountValidator.sol\":4783:4796  mul(depth, 4) */\n      mul\n        /* \"contracts/generated/PatriciaAccountValidator.sol\":4821:4822  0 */\n      0x00\n        /* \"contracts/generated/PatriciaAccountValidator.sol\":4817:4823  not(0) */\n      not\n        /* \"contracts/generated/PatriciaAccountValidator.sol\":4846:4850  mask */\n      dup1\n        /* \"contracts/generated/PatriciaAccountValidator.sol\":4840:4844  bits */\n      dup3\n        /* \"contracts/generated/PatriciaAccountValidator.sol\":4836:4851  shr(bits, mask) */\n      shr\n        /* \"contracts/generated/PatriciaAccountValidator.sol\":4828:4851  mask := shr(bits, mask) */\n      swap1\n      pop\n        /* \"contracts/generated/PatriciaAccountValidator.sol\":4874:4878  mask */\n      dup1\n        /* \"contracts/generated/PatriciaAccountValidator.sol\":4868:4872  path */\n      dup4\n        /* \"contracts/generated/PatriciaAccountValidator.sol\":4864:4879  and(path, mask) */\n      and\n        /* \"contracts/generated/PatriciaAccountValidator.sol\":4856:4879  path := and(path, mask) */\n      swap3\n      pop\n        /* \"contracts/generated/PatriciaAccountValidator.sol\":4799:4883  {... */\n      pop\n        /* \"contracts/generated/PatriciaAccountValidator.sol\":4918:4922  0x20 */\n      0x20\n        /* \"contracts/generated/PatriciaAccountValidator.sol\":4939:4940  2 */\n      0x02\n        /* \"contracts/generated/PatriciaAccountValidator.sol\":4932:4937  depth */\n      dup6\n        /* \"contracts/generated/PatriciaAccountValidator.sol\":4928:4941  mod(depth, 2) */\n      mod\n        /* \"contracts/generated/PatriciaAccountValidator.sol\":4925:4976  if mod(depth, 2) {... */\n      iszero\n      tag_197\n      jumpi\n        /* \"contracts/generated/PatriciaAccountValidator.sol\":4969:4972  0x3 */\n      0x03\n        /* \"contracts/generated/PatriciaAccountValidator.sol\":4959:4972  prefix := 0x3 */\n      swap1\n      pop\n        /* \"contracts/generated/PatriciaAccountValidator.sol\":4925:4976  if mod(depth, 2) {... */\n    tag_197:\n        /* \"contracts/generated/PatriciaAccountValidator.sol\":5082:5086  bits */\n      dup2\n        /* \"contracts/generated/PatriciaAccountValidator.sol\":5077:5080  256 */\n      0x0100\n        /* \"contracts/generated/PatriciaAccountValidator.sol\":5073:5087  sub(256, bits) */\n      sub\n        /* \"contracts/generated/PatriciaAccountValidator.sol\":5065:5087  bits := sub(256, bits) */\n      swap2\n      pop\n        /* \"contracts/generated/PatriciaAccountValidator.sol\":5110:5116  prefix */\n      dup1\n        /* \"contracts/generated/PatriciaAccountValidator.sol\":5104:5108  bits */\n      dup3\n        /* \"contracts/generated/PatriciaAccountValidator.sol\":5100:5117  shl(bits, prefix) */\n      shl\n        /* \"contracts/generated/PatriciaAccountValidator.sol\":5090:5117  prefix := shl(bits, prefix) */\n      swap1\n      pop\n        /* \"contracts/generated/PatriciaAccountValidator.sol\":5139:5143  path */\n      dup3\n        /* \"contracts/generated/PatriciaAccountValidator.sol\":5131:5137  prefix */\n      dup2\n        /* \"contracts/generated/PatriciaAccountValidator.sol\":5128:5144  or(prefix, path) */\n      or\n        /* \"contracts/generated/PatriciaAccountValidator.sol\":5120:5144  path := or(prefix, path) */\n      swap3\n      pop\n        /* \"contracts/generated/PatriciaAccountValidator.sol\":4752:5146  {... */\n      pop\n      pop\n        /* \"contracts/generated/PatriciaAccountValidator.sol\":4711:5146  function derivePath (key, depth) -> path {... */\n      swap3\n      swap2\n      pop\n      pop\n      jump\t// out\n        /* \"contracts/generated/PatriciaAccountValidator.sol\":5235:5849  function loadValue (memPtr, idx) -> value {... */\n    tag_164:\n        /* \"contracts/generated/PatriciaAccountValidator.sol\":5271:5276  value */\n      0x00\n        /* \"contracts/generated/PatriciaAccountValidator.sol\":5318:5321  idx */\n      dup3\n        /* \"contracts/generated/PatriciaAccountValidator.sol\":5314:5316  32 */\n      0x20\n        /* \"contracts/generated/PatriciaAccountValidator.sol\":5310:5322  mul(32, idx) */\n      mul\n        /* \"contracts/generated/PatriciaAccountValidator.sol\":5302:5308  memPtr */\n      dup3\n        /* \"contracts/generated/PatriciaAccountValidator.sol\":5298:5323  add(memPtr, mul(32, idx)) */\n      add\n        /* \"contracts/generated/PatriciaAccountValidator.sol\":5292:5324  mload(add(memPtr, mul(32, idx))) */\n      mload\n        /* \"contracts/generated/PatriciaAccountValidator.sol\":5415:5423  0xffffff */\n      0xffffff\n        /* \"contracts/generated/PatriciaAccountValidator.sol\":5410:5413  tmp */\n      dup2\n        /* \"contracts/generated/PatriciaAccountValidator.sol\":5406:5424  and(tmp, 0xffffff) */\n      and\n        /* \"contracts/generated/PatriciaAccountValidator.sol\":5447:5450  tmp */\n      dup2\n        /* \"contracts/generated/PatriciaAccountValidator.sol\":5442:5445  128 */\n      0x80\n        /* \"contracts/generated/PatriciaAccountValidator.sol\":5438:5451  shr(128, tmp) */\n      shr\n        /* \"contracts/generated/PatriciaAccountValidator.sol\":5466:5468  31 */\n      0x1f\n        /* \"contracts/generated/PatriciaAccountValidator.sol\":5461:5464  len */\n      dup2\n        /* \"contracts/generated/PatriciaAccountValidator.sol\":5458:5469  gt(len, 31) */\n      gt\n        /* \"contracts/generated/PatriciaAccountValidator.sol\":5455:5692  if gt(len, 31) {... */\n      iszero\n      tag_199\n      jumpi\n        /* \"contracts/generated/PatriciaAccountValidator.sol\":5640:5642  32 */\n      0x20\n        /* \"contracts/generated/PatriciaAccountValidator.sol\":5635:5638  len */\n      dup2\n        /* \"contracts/generated/PatriciaAccountValidator.sol\":5631:5643  sub(len, 32) */\n      sub\n        /* \"contracts/generated/PatriciaAccountValidator.sol\":5623:5629  offset */\n      dup3\n        /* \"contracts/generated/PatriciaAccountValidator.sol\":5619:5644  add(offset, sub(len, 32)) */\n      add\n        /* \"contracts/generated/PatriciaAccountValidator.sol\":5609:5644  offset := add(offset, sub(len, 32)) */\n      swap2\n      pop\n        /* \"contracts/generated/PatriciaAccountValidator.sol\":5671:5677  offset */\n      dup2\n        /* \"contracts/generated/PatriciaAccountValidator.sol\":5658:5678  calldataload(offset) */\n      calldataload\n        /* \"contracts/generated/PatriciaAccountValidator.sol\":5649:5678  value := calldataload(offset) */\n      swap4\n      pop\n        /* \"contracts/generated/PatriciaAccountValidator.sol\":5683:5688  leave */\n      pop\n      pop\n      pop\n      jump(tag_198)\n        /* \"contracts/generated/PatriciaAccountValidator.sol\":5455:5692  if gt(len, 31) {... */\n    tag_199:\n        /* \"contracts/generated/PatriciaAccountValidator.sol\":5785:5786  8 */\n      0x08\n        /* \"contracts/generated/PatriciaAccountValidator.sol\":5779:5782  len */\n      dup2\n        /* \"contracts/generated/PatriciaAccountValidator.sol\":5775:5777  32 */\n      0x20\n        /* \"contracts/generated/PatriciaAccountValidator.sol\":5771:5783  sub(32, len) */\n      sub\n        /* \"contracts/generated/PatriciaAccountValidator.sol\":5766:5787  mul( sub(32, len), 8) */\n      mul\n        /* \"contracts/generated/PatriciaAccountValidator.sol\":5812:5818  offset */\n      dup3\n        /* \"contracts/generated/PatriciaAccountValidator.sol\":5799:5819  calldataload(offset) */\n      calldataload\n        /* \"contracts/generated/PatriciaAccountValidator.sol\":5790:5819  value := calldataload(offset) */\n      swap5\n      pop\n        /* \"contracts/generated/PatriciaAccountValidator.sol\":5841:5846  value */\n      dup5\n        /* \"contracts/generated/PatriciaAccountValidator.sol\":5835:5839  bits */\n      dup2\n        /* \"contracts/generated/PatriciaAccountValidator.sol\":5831:5847  shr(bits, value) */\n      shr\n        /* \"contracts/generated/PatriciaAccountValidator.sol\":5822:5847  value := shr(bits, value) */\n      swap5\n      pop\n        /* \"contracts/generated/PatriciaAccountValidator.sol\":5277:5849  {... */\n      pop\n      pop\n      pop\n      pop\n        /* \"contracts/generated/PatriciaAccountValidator.sol\":5235:5849  function loadValue (memPtr, idx) -> value {... */\n    tag_198:\n      swap3\n      swap2\n      pop\n      pop\n      jump\t// out\n        /* \"contracts/generated/PatriciaAccountValidator.sol\":6010:6628  function loadValueLen (memPtr, idx) -> value, len {... */\n    tag_165:\n        /* \"contracts/generated/PatriciaAccountValidator.sol\":6049:6054  value */\n      0x00\n        /* \"contracts/generated/PatriciaAccountValidator.sol\":6056:6059  len */\n      dup1\n        /* \"contracts/generated/PatriciaAccountValidator.sol\":6101:6104  idx */\n      dup4\n        /* \"contracts/generated/PatriciaAccountValidator.sol\":6097:6099  32 */\n      0x20\n        /* \"contracts/generated/PatriciaAccountValidator.sol\":6093:6105  mul(32, idx) */\n      mul\n        /* \"contracts/generated/PatriciaAccountValidator.sol\":6085:6091  memPtr */\n      dup4\n        /* \"contracts/generated/PatriciaAccountValidator.sol\":6081:6106  add(memPtr, mul(32, idx)) */\n      add\n        /* \"contracts/generated/PatriciaAccountValidator.sol\":6075:6107  mload(add(memPtr, mul(32, idx))) */\n      mload\n        /* \"contracts/generated/PatriciaAccountValidator.sol\":6198:6206  0xffffff */\n      0xffffff\n        /* \"contracts/generated/PatriciaAccountValidator.sol\":6193:6196  tmp */\n      dup2\n        /* \"contracts/generated/PatriciaAccountValidator.sol\":6189:6207  and(tmp, 0xffffff) */\n      and\n        /* \"contracts/generated/PatriciaAccountValidator.sol\":6226:6229  tmp */\n      dup2\n        /* \"contracts/generated/PatriciaAccountValidator.sol\":6221:6224  128 */\n      0x80\n        /* \"contracts/generated/PatriciaAccountValidator.sol\":6217:6230  shr(128, tmp) */\n      shr\n        /* \"contracts/generated/PatriciaAccountValidator.sol\":6210:6230  len := shr(128, tmp) */\n      swap3\n      pop\n        /* \"contracts/generated/PatriciaAccountValidator.sol\":6245:6247  31 */\n      0x1f\n        /* \"contracts/generated/PatriciaAccountValidator.sol\":6240:6243  len */\n      dup4\n        /* \"contracts/generated/PatriciaAccountValidator.sol\":6237:6248  gt(len, 31) */\n      gt\n        /* \"contracts/generated/PatriciaAccountValidator.sol\":6234:6471  if gt(len, 31) {... */\n      iszero\n      tag_201\n      jumpi\n        /* \"contracts/generated/PatriciaAccountValidator.sol\":6419:6421  32 */\n      0x20\n        /* \"contracts/generated/PatriciaAccountValidator.sol\":6414:6417  len */\n      dup4\n        /* \"contracts/generated/PatriciaAccountValidator.sol\":6410:6422  sub(len, 32) */\n      sub\n        /* \"contracts/generated/PatriciaAccountValidator.sol\":6402:6408  offset */\n      dup2\n        /* \"contracts/generated/PatriciaAccountValidator.sol\":6398:6423  add(offset, sub(len, 32)) */\n      add\n        /* \"contracts/generated/PatriciaAccountValidator.sol\":6388:6423  offset := add(offset, sub(len, 32)) */\n      swap1\n      pop\n        /* \"contracts/generated/PatriciaAccountValidator.sol\":6450:6456  offset */\n      dup1\n        /* \"contracts/generated/PatriciaAccountValidator.sol\":6437:6457  calldataload(offset) */\n      calldataload\n        /* \"contracts/generated/PatriciaAccountValidator.sol\":6428:6457  value := calldataload(offset) */\n      swap4\n      pop\n        /* \"contracts/generated/PatriciaAccountValidator.sol\":6462:6467  leave */\n      pop\n      pop\n      jump(tag_200)\n        /* \"contracts/generated/PatriciaAccountValidator.sol\":6234:6471  if gt(len, 31) {... */\n    tag_201:\n        /* \"contracts/generated/PatriciaAccountValidator.sol\":6564:6565  8 */\n      0x08\n        /* \"contracts/generated/PatriciaAccountValidator.sol\":6558:6561  len */\n      dup4\n        /* \"contracts/generated/PatriciaAccountValidator.sol\":6554:6556  32 */\n      0x20\n        /* \"contracts/generated/PatriciaAccountValidator.sol\":6550:6562  sub(32, len) */\n      sub\n        /* \"contracts/generated/PatriciaAccountValidator.sol\":6545:6566  mul( sub(32, len), 8) */\n      mul\n        /* \"contracts/generated/PatriciaAccountValidator.sol\":6591:6597  offset */\n      dup2\n        /* \"contracts/generated/PatriciaAccountValidator.sol\":6578:6598  calldataload(offset) */\n      calldataload\n        /* \"contracts/generated/PatriciaAccountValidator.sol\":6569:6598  value := calldataload(offset) */\n      swap5\n      pop\n        /* \"contracts/generated/PatriciaAccountValidator.sol\":6620:6625  value */\n      dup5\n        /* \"contracts/generated/PatriciaAccountValidator.sol\":6614:6618  bits */\n      dup2\n        /* \"contracts/generated/PatriciaAccountValidator.sol\":6610:6626  shr(bits, value) */\n      shr\n        /* \"contracts/generated/PatriciaAccountValidator.sol\":6601:6626  value := shr(bits, value) */\n      swap5\n      pop\n        /* \"contracts/generated/PatriciaAccountValidator.sol\":6060:6628  {... */\n      pop\n      pop\n      pop\n        /* \"contracts/generated/PatriciaAccountValidator.sol\":6010:6628  function loadValueLen (memPtr, idx) -> value, len {... */\n    tag_200:\n      swap3\n      pop\n      swap3\n      swap1\n      pop\n      jump\t// out\n        /* \"contracts/generated/PatriciaAccountValidator.sol\":6630:6845  function loadPair (memPtr, idx) -> offset, len {... */\n    tag_166:\n        /* \"contracts/generated/PatriciaAccountValidator.sol\":6665:6671  offset */\n      0x00\n        /* \"contracts/generated/PatriciaAccountValidator.sol\":6673:6676  len */\n      dup1\n        /* \"contracts/generated/PatriciaAccountValidator.sol\":6718:6721  idx */\n      dup4\n        /* \"contracts/generated/PatriciaAccountValidator.sol\":6714:6716  32 */\n      0x20\n        /* \"contracts/generated/PatriciaAccountValidator.sol\":6710:6722  mul(32, idx) */\n      mul\n        /* \"contracts/generated/PatriciaAccountValidator.sol\":6702:6708  memPtr */\n      dup4\n        /* \"contracts/generated/PatriciaAccountValidator.sol\":6698:6723  add(memPtr, mul(32, idx)) */\n      add\n        /* \"contracts/generated/PatriciaAccountValidator.sol\":6692:6724  mload(add(memPtr, mul(32, idx))) */\n      mload\n        /* \"contracts/generated/PatriciaAccountValidator.sol\":6811:6819  0xffffff */\n      0xffffff\n        /* \"contracts/generated/PatriciaAccountValidator.sol\":6806:6809  tmp */\n      dup2\n        /* \"contracts/generated/PatriciaAccountValidator.sol\":6802:6820  and(tmp, 0xffffff) */\n      and\n        /* \"contracts/generated/PatriciaAccountValidator.sol\":6792:6820  offset := and(tmp, 0xffffff) */\n      swap3\n      pop\n        /* \"contracts/generated/PatriciaAccountValidator.sol\":6839:6842  tmp */\n      dup1\n        /* \"contracts/generated/PatriciaAccountValidator.sol\":6834:6837  128 */\n      0x80\n        /* \"contracts/generated/PatriciaAccountValidator.sol\":6830:6843  shr(128, tmp) */\n      shr\n        /* \"contracts/generated/PatriciaAccountValidator.sol\":6823:6843  len := shr(128, tmp) */\n      swap2\n      pop\n        /* \"contracts/generated/PatriciaAccountValidator.sol\":6677:6845  {... */\n      pop\n        /* \"contracts/generated/PatriciaAccountValidator.sol\":6630:6845  function loadPair (memPtr, idx) -> offset, len {... */\n      swap3\n      pop\n      swap3\n      swap1\n      pop\n      jump\t// out\n        /* \"contracts/generated/PatriciaAccountValidator.sol\":6968:8752  function walkTree (key, _ptr) -> ptr, rootHash, expectedHash, path, leafMem {... */\n    tag_167:\n        /* \"contracts/generated/PatriciaAccountValidator.sol\":7001:7004  ptr */\n      0x00\n        /* \"contracts/generated/PatriciaAccountValidator.sol\":7006:7014  rootHash */\n      dup1\n        /* \"contracts/generated/PatriciaAccountValidator.sol\":7016:7028  expectedHash */\n      0x00\n        /* \"contracts/generated/PatriciaAccountValidator.sol\":7030:7034  path */\n      dup1\n        /* \"contracts/generated/PatriciaAccountValidator.sol\":7036:7043  leafMem */\n      0x00\n        /* \"contracts/generated/PatriciaAccountValidator.sol\":7055:7059  _ptr */\n      dup7\n        /* \"contracts/generated/PatriciaAccountValidator.sol\":7048:7059  ptr := _ptr */\n      swap5\n      pop\n        /* \"contracts/generated/PatriciaAccountValidator.sol\":7134:7137  ptr */\n      dup5\n        /* \"contracts/generated/PatriciaAccountValidator.sol\":7121:7138  calldataload(ptr) */\n      calldataload\n        /* \"contracts/generated/PatriciaAccountValidator.sol\":7118:7119  0 */\n      0x00\n        /* \"contracts/generated/PatriciaAccountValidator.sol\":7113:7139  byte(0, calldataload(ptr)) */\n      byte\n        /* \"contracts/generated/PatriciaAccountValidator.sol\":7158:7159  1 */\n      0x01\n        /* \"contracts/generated/PatriciaAccountValidator.sol\":7153:7156  ptr */\n      dup7\n        /* \"contracts/generated/PatriciaAccountValidator.sol\":7149:7160  add(ptr, 1) */\n      add\n        /* \"contracts/generated/PatriciaAccountValidator.sol\":7142:7160  ptr := add(ptr, 1) */\n      swap6\n      pop\n        /* \"contracts/generated/PatriciaAccountValidator.sol\":7232:7241  let depth */\n      0x00\n        /* \"contracts/generated/PatriciaAccountValidator.sol\":7260:7261  0 */\n      dup1\n        /* \"contracts/generated/PatriciaAccountValidator.sol\":7245:8663  for { let i := 0 } lt(i, nNodes) { i := add(i, 1) } {... */\n    tag_204:\n        /* \"contracts/generated/PatriciaAccountValidator.sol\":7270:7276  nNodes */\n      dup3\n        /* \"contracts/generated/PatriciaAccountValidator.sol\":7267:7268  i */\n      dup2\n        /* \"contracts/generated/PatriciaAccountValidator.sol\":7264:7277  lt(i, nNodes) */\n      lt\n        /* \"contracts/generated/PatriciaAccountValidator.sol\":7245:8663  for { let i := 0 } lt(i, nNodes) { i := add(i, 1) } {... */\n      iszero\n      tag_206\n      jumpi\n        /* \"contracts/generated/PatriciaAccountValidator.sol\":7303:7329  let memStart, nItems, hash */\n      0x00\n      dup1\n      0x00\n        /* \"contracts/generated/PatriciaAccountValidator.sol\":7365:7380  decodeFlat(ptr) */\n      tag_207\n        /* \"contracts/generated/PatriciaAccountValidator.sol\":7376:7379  ptr */\n      dup12\n        /* \"contracts/generated/PatriciaAccountValidator.sol\":7365:7380  decodeFlat(ptr) */\n      tag_160\n      jump\t// in\n    tag_207:\n        /* \"contracts/generated/PatriciaAccountValidator.sol\":7334:7380  ptr, memStart, nItems, hash := decodeFlat(ptr) */\n      swap4\n      pop\n      swap4\n      pop\n      swap4\n      pop\n      swap11\n      pop\n        /* \"contracts/generated/PatriciaAccountValidator.sol\":7548:7549  i */\n      dup4\n        /* \"contracts/generated/PatriciaAccountValidator.sol\":7559:7560  0 */\n      0x00\n        /* \"contracts/generated/PatriciaAccountValidator.sol\":7554:7591  case 0 {... */\n      dup2\n      eq\n      tag_209\n      jumpi\n        /* \"contracts/generated/PatriciaAccountValidator.sol\":7608:7640  cmp(hash, expectedHash, 'THASH') */\n      tag_210\n        /* \"contracts/generated/PatriciaAccountValidator.sol\":7632:7639  'THASH' */\n      0x5448415348000000000000000000000000000000000000000000000000000000\n        /* \"contracts/generated/PatriciaAccountValidator.sol\":7618:7630  expectedHash */\n      dup12\n        /* \"contracts/generated/PatriciaAccountValidator.sol\":7612:7616  hash */\n      dup5\n        /* \"contracts/generated/PatriciaAccountValidator.sol\":7608:7640  cmp(hash, expectedHash, 'THASH') */\n      tag_172\n      jump\t// in\n    tag_210:\n        /* \"contracts/generated/PatriciaAccountValidator.sol\":7541:7646  switch i... */\n      jump(tag_208)\n        /* \"contracts/generated/PatriciaAccountValidator.sol\":7554:7591  case 0 {... */\n    tag_209:\n        /* \"contracts/generated/PatriciaAccountValidator.sol\":7581:7585  hash */\n      dup2\n        /* \"contracts/generated/PatriciaAccountValidator.sol\":7569:7585  rootHash := hash */\n      swap11\n      pop\n        /* \"contracts/generated/PatriciaAccountValidator.sol\":7541:7646  switch i... */\n    tag_208:\n      pop\n        /* \"contracts/generated/PatriciaAccountValidator.sol\":7659:7665  nItems */\n      dup2\n        /* \"contracts/generated/PatriciaAccountValidator.sol\":7675:7676  2 */\n      0x02\n        /* \"contracts/generated/PatriciaAccountValidator.sol\":7670:8314  case 2 {... */\n      dup2\n      eq\n      tag_212\n      jumpi\n        /* \"contracts/generated/PatriciaAccountValidator.sol\":8324:8326  17 */\n      0x11\n        /* \"contracts/generated/PatriciaAccountValidator.sol\":8319:8575  case 17 {... */\n      dup2\n      eq\n      tag_213\n      jumpi\n        /* \"contracts/generated/PatriciaAccountValidator.sol\":8635:8653  revertWith('NODE') */\n      tag_214\n        /* \"contracts/generated/PatriciaAccountValidator.sol\":8646:8652  'NODE' */\n      0x4e4f444500000000000000000000000000000000000000000000000000000000\n        /* \"contracts/generated/PatriciaAccountValidator.sol\":8635:8653  revertWith('NODE') */\n      tag_170\n      jump\t// in\n    tag_214:\n        /* \"contracts/generated/PatriciaAccountValidator.sol\":7652:8659  switch nItems... */\n      jump(tag_211)\n        /* \"contracts/generated/PatriciaAccountValidator.sol\":7670:8314  case 2 {... */\n    tag_212:\n        /* \"contracts/generated/PatriciaAccountValidator.sol\":7709:7723  let value, len */\n      0x00\n      dup1\n        /* \"contracts/generated/PatriciaAccountValidator.sol\":7840:7865  loadValueLen(memStart, 1) */\n      tag_215\n        /* \"contracts/generated/PatriciaAccountValidator.sol\":7863:7864  1 */\n      0x01\n        /* \"contracts/generated/PatriciaAccountValidator.sol\":7853:7861  memStart */\n      dup8\n        /* \"contracts/generated/PatriciaAccountValidator.sol\":7840:7865  loadValueLen(memStart, 1) */\n      tag_165\n      jump\t// in\n    tag_215:\n        /* \"contracts/generated/PatriciaAccountValidator.sol\":7826:7865  value, len := loadValueLen(memStart, 1) */\n      swap2\n      pop\n      swap2\n      pop\n        /* \"contracts/generated/PatriciaAccountValidator.sol\":7888:7893  value */\n      dup2\n        /* \"contracts/generated/PatriciaAccountValidator.sol\":7872:7893  expectedHash := value */\n      swap12\n      pop\n        /* \"contracts/generated/PatriciaAccountValidator.sol\":7926:7927  1 */\n      0x01\n        /* \"contracts/generated/PatriciaAccountValidator.sol\":7918:7924  nNodes */\n      dup10\n        /* \"contracts/generated/PatriciaAccountValidator.sol\":7914:7928  sub(nNodes, 1) */\n      sub\n        /* \"contracts/generated/PatriciaAccountValidator.sol\":7911:7912  i */\n      dup8\n        /* \"contracts/generated/PatriciaAccountValidator.sol\":7908:7929  eq(i, sub(nNodes, 1)) */\n      eq\n        /* \"contracts/generated/PatriciaAccountValidator.sol\":7941:7942  0 */\n      0x00\n        /* \"contracts/generated/PatriciaAccountValidator.sol\":7936:8256  case 0 {... */\n      dup2\n      eq\n      tag_217\n      jumpi\n        /* \"contracts/generated/PatriciaAccountValidator.sol\":8292:8300  memStart */\n      dup7\n        /* \"contracts/generated/PatriciaAccountValidator.sol\":8281:8300  leafMem := memStart */\n      swap11\n      pop\n        /* \"contracts/generated/PatriciaAccountValidator.sol\":7901:8308  switch eq(i, sub(nNodes, 1))... */\n      jump(tag_216)\n        /* \"contracts/generated/PatriciaAccountValidator.sol\":7936:8256  case 0 {... */\n    tag_217:\n        /* \"contracts/generated/PatriciaAccountValidator.sol\":8199:8207  memStart */\n      dup7\n        /* \"contracts/generated/PatriciaAccountValidator.sol\":8193:8208  mload(memStart) */\n      mload\n        /* \"contracts/generated/PatriciaAccountValidator.sol\":8188:8191  128 */\n      0x80\n        /* \"contracts/generated/PatriciaAccountValidator.sol\":8184:8209  shr(128, mload(memStart)) */\n      shr\n        /* \"contracts/generated/PatriciaAccountValidator.sol\":8238:8247  prefixLen */\n      dup1\n        /* \"contracts/generated/PatriciaAccountValidator.sol\":8231:8236  depth */\n      dup11\n        /* \"contracts/generated/PatriciaAccountValidator.sol\":8227:8248  add(depth, prefixLen) */\n      add\n        /* \"contracts/generated/PatriciaAccountValidator.sol\":8218:8248  depth := add(depth, prefixLen) */\n      swap10\n      pop\n        /* \"contracts/generated/PatriciaAccountValidator.sol\":7943:8256  {... */\n      pop\n        /* \"contracts/generated/PatriciaAccountValidator.sol\":7901:8308  switch eq(i, sub(nNodes, 1))... */\n    tag_216:\n      pop\n        /* \"contracts/generated/PatriciaAccountValidator.sol\":7677:8314  {... */\n      pop\n      pop\n        /* \"contracts/generated/PatriciaAccountValidator.sol\":7670:8314  case 2 {... */\n      jump(tag_211)\n        /* \"contracts/generated/PatriciaAccountValidator.sol\":8319:8575  case 17 {... */\n    tag_213:\n        /* \"contracts/generated/PatriciaAccountValidator.sol\":8367:8368  4 */\n      0x04\n        /* \"contracts/generated/PatriciaAccountValidator.sol\":8360:8365  depth */\n      dup7\n        /* \"contracts/generated/PatriciaAccountValidator.sol\":8356:8369  mul(depth, 4) */\n      mul\n        /* \"contracts/generated/PatriciaAccountValidator.sol\":8351:8354  252 */\n      0xfc\n        /* \"contracts/generated/PatriciaAccountValidator.sol\":8347:8370  sub(252, mul(depth, 4)) */\n      sub\n        /* \"contracts/generated/PatriciaAccountValidator.sol\":8411:8414  0xf */\n      0x0f\n        /* \"contracts/generated/PatriciaAccountValidator.sol\":8405:8408  key */\n      dup15\n        /* \"contracts/generated/PatriciaAccountValidator.sol\":8399:8403  bits */\n      dup3\n        /* \"contracts/generated/PatriciaAccountValidator.sol\":8395:8409  shr(bits, key) */\n      shr\n        /* \"contracts/generated/PatriciaAccountValidator.sol\":8391:8415  and(shr(bits, key), 0xf) */\n      and\n        /* \"contracts/generated/PatriciaAccountValidator.sol\":8481:8511  loadValueLen(memStart, nibble) */\n      tag_218\n        /* \"contracts/generated/PatriciaAccountValidator.sol\":8504:8510  nibble */\n      dup2\n        /* \"contracts/generated/PatriciaAccountValidator.sol\":8494:8502  memStart */\n      dup8\n        /* \"contracts/generated/PatriciaAccountValidator.sol\":8481:8511  loadValueLen(memStart, nibble) */\n      tag_165\n      jump\t// in\n    tag_218:\n        /* \"contracts/generated/PatriciaAccountValidator.sol\":8535:8540  value */\n      dup2\n        /* \"contracts/generated/PatriciaAccountValidator.sol\":8519:8540  expectedHash := value */\n      swap14\n      pop\n        /* \"contracts/generated/PatriciaAccountValidator.sol\":8567:8568  1 */\n      0x01\n        /* \"contracts/generated/PatriciaAccountValidator.sol\":8560:8565  depth */\n      dup11\n        /* \"contracts/generated/PatriciaAccountValidator.sol\":8556:8569  add(depth, 1) */\n      add\n        /* \"contracts/generated/PatriciaAccountValidator.sol\":8547:8569  depth := add(depth, 1) */\n      swap10\n      pop\n        /* \"contracts/generated/PatriciaAccountValidator.sol\":8327:8575  {... */\n      pop\n      pop\n      pop\n      pop\n        /* \"contracts/generated/PatriciaAccountValidator.sol\":7652:8659  switch nItems... */\n    tag_211:\n      pop\n        /* \"contracts/generated/PatriciaAccountValidator.sol\":7297:8663  {... */\n      pop\n      pop\n      pop\n        /* \"contracts/generated/PatriciaAccountValidator.sol\":7292:7293  1 */\n      0x01\n        /* \"contracts/generated/PatriciaAccountValidator.sol\":7289:7290  i */\n      dup2\n        /* \"contracts/generated/PatriciaAccountValidator.sol\":7285:7294  add(i, 1) */\n      add\n        /* \"contracts/generated/PatriciaAccountValidator.sol\":7280:7294  i := add(i, 1) */\n      swap1\n      pop\n        /* \"contracts/generated/PatriciaAccountValidator.sol\":7245:8663  for { let i := 0 } lt(i, nNodes) { i := add(i, 1) } {... */\n      jump(tag_204)\n    tag_206:\n        /* \"contracts/generated/PatriciaAccountValidator.sol\":7249:7263  { let i := 0 } */\n      pop\n        /* \"contracts/generated/PatriciaAccountValidator.sol\":8728:8750  derivePath(key, depth) */\n      tag_219\n        /* \"contracts/generated/PatriciaAccountValidator.sol\":8744:8749  depth */\n      dup2\n        /* \"contracts/generated/PatriciaAccountValidator.sol\":8739:8742  key */\n      dup10\n        /* \"contracts/generated/PatriciaAccountValidator.sol\":8728:8750  derivePath(key, depth) */\n      tag_163\n      jump\t// in\n    tag_219:\n        /* \"contracts/generated/PatriciaAccountValidator.sol\":8720:8750  path := derivePath(key, depth) */\n      swap4\n      pop\n        /* \"contracts/generated/PatriciaAccountValidator.sol\":7044:8752  {... */\n      pop\n      pop\n        /* \"contracts/generated/PatriciaAccountValidator.sol\":6968:8752  function walkTree (key, _ptr) -> ptr, rootHash, expectedHash, path, leafMem {... */\n      swap3\n      swap6\n      pop\n      swap3\n      swap6\n      swap1\n      swap4\n      pop\n      jump\t// out\n        /* \"contracts/generated/PatriciaAccountValidator.sol\":9017:9964  function validateAccountProof (_ptr, accountAddress) -> ptr, rootHash, accountStorageHash {... */\n    tag_168:\n        /* \"contracts/generated/PatriciaAccountValidator.sol\":9073:9076  ptr */\n      0x00\n        /* \"contracts/generated/PatriciaAccountValidator.sol\":9078:9086  rootHash */\n      dup1\n        /* \"contracts/generated/PatriciaAccountValidator.sol\":9088:9106  accountStorageHash */\n      0x00\n        /* \"contracts/generated/PatriciaAccountValidator.sol\":9118:9122  _ptr */\n      dup4\n        /* \"contracts/generated/PatriciaAccountValidator.sol\":9111:9122  ptr := _ptr */\n      swap3\n      pop\n        /* \"contracts/generated/PatriciaAccountValidator.sol\":9126:9141  let encodedPath */\n      0x00\n        /* \"contracts/generated/PatriciaAccountValidator.sol\":9144:9152  let path */\n      dup1\n        /* \"contracts/generated/PatriciaAccountValidator.sol\":9155:9163  let hash */\n      0x00\n        /* \"contracts/generated/PatriciaAccountValidator.sol\":9166:9174  let vlen */\n      dup1\n        /* \"contracts/generated/PatriciaAccountValidator.sol\":9177:9189  let prevHash */\n      0x00\n        /* \"contracts/generated/PatriciaAccountValidator.sol\":9192:9203  let leafMem */\n      dup1\n        /* \"contracts/generated/PatriciaAccountValidator.sol\":9217:9242  keccak_20(accountAddress) */\n      tag_221\n        /* \"contracts/generated/PatriciaAccountValidator.sol\":9227:9241  accountAddress */\n      dup12\n        /* \"contracts/generated/PatriciaAccountValidator.sol\":9217:9242  keccak_20(accountAddress) */\n      tag_162\n      jump\t// in\n    tag_221:\n        /* \"contracts/generated/PatriciaAccountValidator.sol\":9355:9373  walkTree(key, ptr) */\n      tag_222\n        /* \"contracts/generated/PatriciaAccountValidator.sol\":9369:9372  ptr */\n      dup11\n        /* \"contracts/generated/PatriciaAccountValidator.sol\":9364:9367  key */\n      dup3\n        /* \"contracts/generated/PatriciaAccountValidator.sol\":9355:9373  walkTree(key, ptr) */\n      tag_167\n      jump\t// in\n    tag_222:\n        /* \"contracts/generated/PatriciaAccountValidator.sol\":9313:9373  ptr, rootHash, prevHash, path, leafMem := walkTree(key, ptr) */\n      swap6\n      pop\n      swap9\n      pop\n      swap5\n      pop\n      swap10\n      pop\n      swap10\n      pop\n        /* \"contracts/generated/PatriciaAccountValidator.sol\":9444:9470  require(leafMem, \"ACLEAF\") */\n      tag_223\n        /* \"contracts/generated/PatriciaAccountValidator.sol\":9461:9469  \"ACLEAF\" */\n      0x41434c4541460000000000000000000000000000000000000000000000000000\n        /* \"contracts/generated/PatriciaAccountValidator.sol\":9452:9459  leafMem */\n      dup4\n        /* \"contracts/generated/PatriciaAccountValidator.sol\":9444:9470  require(leafMem, \"ACLEAF\") */\n      tag_171\n      jump\t// in\n    tag_223:\n        /* \"contracts/generated/PatriciaAccountValidator.sol\":9489:9510  loadValue(leafMem, 0) */\n      tag_224\n        /* \"contracts/generated/PatriciaAccountValidator.sol\":9508:9509  0 */\n      0x00\n        /* \"contracts/generated/PatriciaAccountValidator.sol\":9499:9506  leafMem */\n      dup4\n        /* \"contracts/generated/PatriciaAccountValidator.sol\":9489:9510  loadValue(leafMem, 0) */\n      tag_164\n      jump\t// in\n    tag_224:\n        /* \"contracts/generated/PatriciaAccountValidator.sol\":9474:9510  encodedPath := loadValue(leafMem, 0) */\n      swap7\n      pop\n        /* \"contracts/generated/PatriciaAccountValidator.sol\":9578:9610  cmp(path, encodedPath, 'ACROOT') */\n      tag_225\n        /* \"contracts/generated/PatriciaAccountValidator.sol\":9601:9609  'ACROOT' */\n      0x4143524f4f540000000000000000000000000000000000000000000000000000\n        /* \"contracts/generated/PatriciaAccountValidator.sol\":9588:9599  encodedPath */\n      dup9\n        /* \"contracts/generated/PatriciaAccountValidator.sol\":9582:9586  path */\n      dup9\n        /* \"contracts/generated/PatriciaAccountValidator.sol\":9578:9610  cmp(path, encodedPath, 'ACROOT') */\n      tag_172\n      jump\t// in\n    tag_225:\n        /* \"contracts/generated/PatriciaAccountValidator.sol\":9705:9725  loadPair(leafMem, 1) */\n      tag_226\n        /* \"contracts/generated/PatriciaAccountValidator.sol\":9723:9724  1 */\n      0x01\n        /* \"contracts/generated/PatriciaAccountValidator.sol\":9714:9721  leafMem */\n      dup4\n        /* \"contracts/generated/PatriciaAccountValidator.sol\":9705:9725  loadPair(leafMem, 1) */\n      tag_166\n      jump\t// in\n    tag_226:\n        /* \"contracts/generated/PatriciaAccountValidator.sol\":9728:9738  let nItems */\n      0x00\n        /* \"contracts/generated/PatriciaAccountValidator.sol\":9776:9795  decodeFlat(leafPtr) */\n      tag_227\n        /* \"contracts/generated/PatriciaAccountValidator.sol\":9787:9794  leafPtr */\n      dup4\n        /* \"contracts/generated/PatriciaAccountValidator.sol\":9776:9795  decodeFlat(leafPtr) */\n      tag_160\n      jump\t// in\n    tag_227:\n        /* \"contracts/generated/PatriciaAccountValidator.sol\":9741:9795  leafPtr , leafMem, nItems, hash := decodeFlat(leafPtr) */\n      swap11\n      pop\n      swap3\n      pop\n      swap6\n      pop\n      swap3\n      pop\n        /* \"contracts/generated/PatriciaAccountValidator.sol\":9883:9916  require(eq(nItems, 4), \"ACLEAFN\") */\n      tag_228\n        /* \"contracts/generated/PatriciaAccountValidator.sol\":9906:9915  \"ACLEAFN\" */\n      0x41434c4541464e00000000000000000000000000000000000000000000000000\n        /* \"contracts/generated/PatriciaAccountValidator.sol\":9902:9903  4 */\n      0x04\n        /* \"contracts/generated/PatriciaAccountValidator.sol\":9894:9900  nItems */\n      dup4\n        /* \"contracts/generated/PatriciaAccountValidator.sol\":9891:9904  eq(nItems, 4) */\n      eq\n        /* \"contracts/generated/PatriciaAccountValidator.sol\":9883:9916  require(eq(nItems, 4), \"ACLEAFN\") */\n      tag_171\n      jump\t// in\n    tag_228:\n        /* \"contracts/generated/PatriciaAccountValidator.sol\":9941:9962  loadValue(leafMem, 2) */\n      tag_229\n        /* \"contracts/generated/PatriciaAccountValidator.sol\":9960:9961  2 */\n      0x02\n        /* \"contracts/generated/PatriciaAccountValidator.sol\":9951:9958  leafMem */\n      dup7\n        /* \"contracts/generated/PatriciaAccountValidator.sol\":9941:9962  loadValue(leafMem, 2) */\n      tag_164\n      jump\t// in\n    tag_229:\n        /* \"contracts/generated/PatriciaAccountValidator.sol\":9919:9962  accountStorageHash := loadValue(leafMem, 2) */\n      swap11\n      pop\n        /* \"contracts/generated/PatriciaAccountValidator.sol\":9107:9964  {... */\n      pop\n      pop\n      pop\n      pop\n      pop\n      pop\n      pop\n      pop\n      pop\n      pop\n        /* \"contracts/generated/PatriciaAccountValidator.sol\":9017:9964  function validateAccountProof (_ptr, accountAddress) -> ptr, rootHash, accountStorageHash {... */\n      swap3\n      pop\n      swap3\n      pop\n      swap3\n      jump\t// out\n        /* \"contracts/generated/PatriciaAccountValidator.sol\":10992:11214  function revertWith (msg) {... */\n    tag_170:\n        /* \"contracts/generated/PatriciaAccountValidator.sol\":11041:11051  0x08c379a0 */\n      0x08c379a0\n        /* \"contracts/generated/PatriciaAccountValidator.sol\":11036:11039  224 */\n      0xe0\n        /* \"contracts/generated/PatriciaAccountValidator.sol\":11032:11052  shl(224, 0x08c379a0) */\n      shl\n        /* \"contracts/generated/PatriciaAccountValidator.sol\":11029:11030  0 */\n      0x00\n        /* \"contracts/generated/PatriciaAccountValidator.sol\":11022:11053  mstore(0, shl(224, 0x08c379a0)) */\n      mstore\n        /* \"contracts/generated/PatriciaAccountValidator.sol\":11066:11068  32 */\n      0x20\n        /* \"contracts/generated/PatriciaAccountValidator.sol\":11063:11064  4 */\n      0x04\n        /* \"contracts/generated/PatriciaAccountValidator.sol\":11056:11069  mstore(4, 32) */\n      mstore\n        /* \"contracts/generated/PatriciaAccountValidator.sol\":11083:11086  msg */\n      dup1\n        /* \"contracts/generated/PatriciaAccountValidator.sol\":11079:11081  68 */\n      0x44\n        /* \"contracts/generated/PatriciaAccountValidator.sol\":11072:11087  mstore(68, msg) */\n      mstore\n        /* \"contracts/generated/PatriciaAccountValidator.sol\":11090:11100  let msgLen */\n      0x00\n        /* \"contracts/generated/PatriciaAccountValidator.sol\":11103:11174  for {} msg {} {... */\n    tag_241:\n        /* \"contracts/generated/PatriciaAccountValidator.sol\":11110:11113  msg */\n      dup2\n        /* \"contracts/generated/PatriciaAccountValidator.sol\":11103:11174  for {} msg {} {... */\n      iszero\n      tag_243\n      jumpi\n        /* \"contracts/generated/PatriciaAccountValidator.sol\":11137:11140  msg */\n      dup2\n        /* \"contracts/generated/PatriciaAccountValidator.sol\":11134:11135  8 */\n      0x08\n        /* \"contracts/generated/PatriciaAccountValidator.sol\":11130:11141  shl(8, msg) */\n      shl\n        /* \"contracts/generated/PatriciaAccountValidator.sol\":11123:11141  msg := shl(8, msg) */\n      swap2\n      pop\n        /* \"contracts/generated/PatriciaAccountValidator.sol\":11168:11169  1 */\n      0x01\n        /* \"contracts/generated/PatriciaAccountValidator.sol\":11160:11166  msgLen */\n      dup2\n        /* \"contracts/generated/PatriciaAccountValidator.sol\":11156:11170  add(msgLen, 1) */\n      add\n        /* \"contracts/generated/PatriciaAccountValidator.sol\":11146:11170  msgLen := add(msgLen, 1) */\n      swap1\n      pop\n        /* \"contracts/generated/PatriciaAccountValidator.sol\":11103:11174  for {} msg {} {... */\n      jump(tag_241)\n    tag_243:\n        /* \"contracts/generated/PatriciaAccountValidator.sol\":11188:11194  msgLen */\n      dup1\n        /* \"contracts/generated/PatriciaAccountValidator.sol\":11184:11186  36 */\n      0x24\n        /* \"contracts/generated/PatriciaAccountValidator.sol\":11177:11195  mstore(36, msgLen) */\n      mstore\n        /* \"contracts/generated/PatriciaAccountValidator.sol\":11208:11211  100 */\n      0x64\n        /* \"contracts/generated/PatriciaAccountValidator.sol\":11205:11206  0 */\n      0x00\n        /* \"contracts/generated/PatriciaAccountValidator.sol\":11198:11212  revert(0, 100) */\n      revert\n        /* \"contracts/generated/PatriciaAccountValidator.sol\":11216:11297  function require (cond, msg) {... */\n    tag_171:\n        /* \"contracts/generated/PatriciaAccountValidator.sol\":11256:11260  cond */\n      dup1\n        /* \"contracts/generated/PatriciaAccountValidator.sol\":11268:11269  0 */\n      0x00\n        /* \"contracts/generated/PatriciaAccountValidator.sol\":11263:11295  case 0 {... */\n      dup2\n      sub\n        /* \"contracts/generated/PatriciaAccountValidator.sol\":11249:11295  switch cond... */\n      tag_245\n        /* \"contracts/generated/PatriciaAccountValidator.sol\":11263:11295  case 0 {... */\n      jumpi\n        /* \"contracts/generated/PatriciaAccountValidator.sol\":11276:11291  revertWith(msg) */\n      tag_247\n        /* \"contracts/generated/PatriciaAccountValidator.sol\":11287:11290  msg */\n      dup4\n        /* \"contracts/generated/PatriciaAccountValidator.sol\":11276:11291  revertWith(msg) */\n      tag_170\n      jump\t// in\n    tag_247:\n        /* \"contracts/generated/PatriciaAccountValidator.sol\":11249:11295  switch cond... */\n    tag_245:\n      pop\n        /* \"contracts/generated/PatriciaAccountValidator.sol\":11216:11297  function require (cond, msg) {... */\n      pop\n      pop\n      jump\t// out\n        /* \"contracts/generated/PatriciaAccountValidator.sol\":11334:11415  function cmp (a, b, msg) {... */\n    tag_172:\n        /* \"contracts/generated/PatriciaAccountValidator.sol\":11376:11377  b */\n      dup2\n        /* \"contracts/generated/PatriciaAccountValidator.sol\":11373:11374  a */\n      dup2\n        /* \"contracts/generated/PatriciaAccountValidator.sol\":11370:11378  eq(a, b) */\n      eq\n        /* \"contracts/generated/PatriciaAccountValidator.sol\":11386:11387  0 */\n      0x00\n        /* \"contracts/generated/PatriciaAccountValidator.sol\":11381:11413  case 0 {... */\n      dup2\n      sub\n        /* \"contracts/generated/PatriciaAccountValidator.sol\":11363:11413  switch eq(a, b)... */\n      tag_249\n        /* \"contracts/generated/PatriciaAccountValidator.sol\":11381:11413  case 0 {... */\n      jumpi\n        /* \"contracts/generated/PatriciaAccountValidator.sol\":11394:11409  revertWith(msg) */\n      tag_251\n        /* \"contracts/generated/PatriciaAccountValidator.sol\":11405:11408  msg */\n      dup5\n        /* \"contracts/generated/PatriciaAccountValidator.sol\":11394:11409  revertWith(msg) */\n      tag_170\n      jump\t// in\n    tag_251:\n        /* \"contracts/generated/PatriciaAccountValidator.sol\":11363:11413  switch eq(a, b)... */\n    tag_249:\n      pop\n        /* \"contracts/generated/PatriciaAccountValidator.sol\":11334:11415  function cmp (a, b, msg) {... */\n      pop\n      pop\n      pop\n      jump\t// out\n    tag_173:\n        /* \"contracts/generated/PatriciaAccountValidator.sol\":11434:11450  proofData.offset */\n      dup4\n        /* \"contracts/generated/PatriciaAccountValidator.sol\":11488:11522  validateAccountProof(ptr, account) */\n      tag_252\n        /* \"contracts/generated/PatriciaAccountValidator.sol\":11514:11521  account */\n      dup7\n        /* \"contracts/generated/PatriciaAccountValidator.sol\":11509:11512  ptr */\n      dup3\n        /* \"contracts/generated/PatriciaAccountValidator.sol\":11488:11522  validateAccountProof(ptr, account) */\n      tag_168\n      jump\t// in\n    tag_252:\n        /* \"contracts/generated/PatriciaAccountValidator.sol\":11457:11522  ptr, stateRoot, storageHash := validateAccountProof(ptr, account) */\n      swap4\n      pop\n      swap4\n      pop\n      swap1\n      pop\n        /* \"contracts/generated/PatriciaAccountValidator.sol\":11773:11789  proofData.length */\n      dup4\n        /* \"contracts/generated/PatriciaAccountValidator.sol\":11755:11771  proofData.offset */\n      dup6\n        /* \"contracts/generated/PatriciaAccountValidator.sol\":11751:11790  add(proofData.offset, proofData.length) */\n      add\n        /* \"contracts/generated/PatriciaAccountValidator.sol\":11746:11749  ptr */\n      dup2\n        /* \"contracts/generated/PatriciaAccountValidator.sol\":11743:11791  eq(ptr, add(proofData.offset, proofData.length)) */\n      eq\n        /* \"contracts/generated/PatriciaAccountValidator.sol\":11732:11832  if iszero( eq(ptr, add(proofData.offset, proofData.length)) ) {... */\n      tag_253\n      jumpi\n        /* \"contracts/generated/PatriciaAccountValidator.sol\":11804:11824  revertWith('BOUNDS') */\n      tag_254\n        /* \"contracts/generated/PatriciaAccountValidator.sol\":11815:11823  'BOUNDS' */\n      0x424f554e44530000000000000000000000000000000000000000000000000000\n        /* \"contracts/generated/PatriciaAccountValidator.sol\":11804:11824  revertWith('BOUNDS') */\n      tag_170\n      jump\t// in\n    tag_254:\n        /* \"contracts/generated/PatriciaAccountValidator.sol\":11732:11832  if iszero( eq(ptr, add(proofData.offset, proofData.length)) ) {... */\n    tag_253:\n        /* \"contracts/generated/PatriciaAccountValidator.sol\":268:11838  {... */\n      pop\n        /* \"contracts/generated/PatriciaAccountValidator.sol\":95:11842  function _validatePatriciaAccountProof (... */\n      swap4\n      pop\n      swap4\n      swap2\n      pop\n      pop\n      jump\t// out\n        /* \"contracts/ZkEvmStorage.sol\":149:347  function _PENDING_MESSAGE_KEY (bytes32 messageId) internal pure returns (bytes32 ret) {... */\n    tag_71:\n        /* \"contracts/ZkEvmStorage.sol\":222:233  bytes32 ret */\n      0x00\n        /* \"contracts/ZkEvmStorage.sol\":268:278  0x31df76a4 */\n      0x31df76a4\n        /* \"contracts/ZkEvmStorage.sol\":265:266  0 */\n      0x00\n        /* \"contracts/ZkEvmStorage.sol\":258:279  mstore(0, 0x31df76a4) */\n      mstore\n        /* \"contracts/ZkEvmStorage.sol\":297:306  messageId */\n      dup2\n        /* \"contracts/ZkEvmStorage.sol\":293:295  32 */\n      0x20\n        /* \"contracts/ZkEvmStorage.sol\":286:307  mstore(32, messageId) */\n      mstore\n        /* \"contracts/ZkEvmStorage.sol\":334:336  64 */\n      0x40\n        /* \"contracts/ZkEvmStorage.sol\":331:332  0 */\n      0x00\n        /* \"contracts/ZkEvmStorage.sol\":321:337  keccak256(0, 64) */\n      keccak256\n        /* \"contracts/ZkEvmStorage.sol\":314:337  ret := keccak256(0, 64) */\n      swap1\n      pop\n        /* \"contracts/ZkEvmStorage.sol\":149:347  function _PENDING_MESSAGE_KEY (bytes32 messageId) internal pure returns (bytes32 ret) {... */\n      swap2\n      swap1\n      pop\n      jump\t// out\n        /* \"contracts/generated/PatriciaStorageValidator.sol\":95:11854  function _validatePatriciaStorageProof (... */\n    tag_72:\n        /* \"contracts/generated/PatriciaStorageValidator.sol\":216:235  bytes32 storageRoot */\n      0x00\n        /* \"contracts/generated/PatriciaStorageValidator.sol\":237:257  bytes32 storageValue */\n      dup1\n        /* \"contracts/generated/PatriciaStorageValidator.sol\":427:948  function decodeItem (word, len) -> ret {... */\n      jump(tag_273)\n    tag_257:\n        /* \"contracts/generated/PatriciaStorageValidator.sol\":462:465  ret */\n      0x00\n        /* \"contracts/generated/PatriciaStorageValidator.sol\":490:494  word */\n      dup2\n        /* \"contracts/generated/PatriciaStorageValidator.sol\":483:494  ret := word */\n      swap1\n      pop\n        /* \"contracts/generated/PatriciaStorageValidator.sol\":531:535  0x80 */\n      0x80\n        /* \"contracts/generated/PatriciaStorageValidator.sol\":525:529  word */\n      dup3\n        /* \"contracts/generated/PatriciaStorageValidator.sol\":522:536  lt(word, 0x80) */\n      lt\n        /* \"contracts/generated/PatriciaStorageValidator.sol\":543:548  leave */\n      tag_274\n        /* \"contracts/generated/PatriciaStorageValidator.sol\":519:552  if lt(word, 0x80) {... */\n      jumpi\n        /* \"contracts/generated/PatriciaStorageValidator.sol\":582:584  32 */\n      0x20\n        /* \"contracts/generated/PatriciaStorageValidator.sol\":577:580  len */\n      dup4\n        /* \"contracts/generated/PatriciaStorageValidator.sol\":574:585  gt(len, 32) */\n      gt\n        /* \"contracts/generated/PatriciaStorageValidator.sol\":592:597  leave */\n      tag_274\n        /* \"contracts/generated/PatriciaStorageValidator.sol\":571:601  if gt(len, 32) {... */\n      jumpi\n        /* \"contracts/generated/PatriciaStorageValidator.sol\":756:757  8 */\n      0x08\n        /* \"contracts/generated/PatriciaStorageValidator.sol\":751:754  len */\n      dup4\n        /* \"contracts/generated/PatriciaStorageValidator.sol\":747:758  mul(len, 8) */\n      mul\n        /* \"contracts/generated/PatriciaStorageValidator.sol\":808:809  8 */\n      0x08\n        /* \"contracts/generated/PatriciaStorageValidator.sol\":802:806  bits */\n      dup2\n        /* \"contracts/generated/PatriciaStorageValidator.sol\":798:810  sub(bits, 8) */\n      sub\n        /* \"contracts/generated/PatriciaStorageValidator.sol\":790:810  bits := sub(bits, 8) */\n      swap1\n      pop\n        /* \"contracts/generated/PatriciaStorageValidator.sol\":835:839  0xff */\n      0xff\n        /* \"contracts/generated/PatriciaStorageValidator.sol\":829:833  bits */\n      dup2\n        /* \"contracts/generated/PatriciaStorageValidator.sol\":825:840  shl(bits, 0xff) */\n      shl\n        /* \"contracts/generated/PatriciaStorageValidator.sol\":876:880  mask */\n      dup1\n        /* \"contracts/generated/PatriciaStorageValidator.sol\":872:881  not(mask) */\n      not\n        /* \"contracts/generated/PatriciaStorageValidator.sol\":864:881  mask := not(mask) */\n      swap1\n      pop\n        /* \"contracts/generated/PatriciaStorageValidator.sol\":941:945  mask */\n      dup1\n        /* \"contracts/generated/PatriciaStorageValidator.sol\":936:939  ret */\n      dup4\n        /* \"contracts/generated/PatriciaStorageValidator.sol\":932:946  and(ret, mask) */\n      and\n        /* \"contracts/generated/PatriciaStorageValidator.sol\":925:946  ret := and(ret, mask) */\n      swap3\n      pop\n        /* \"contracts/generated/PatriciaStorageValidator.sol\":466:948  {... */\n      pop\n      pop\n        /* \"contracts/generated/PatriciaStorageValidator.sol\":427:948  function decodeItem (word, len) -> ret {... */\n    tag_274:\n      swap3\n      swap2\n      pop\n      pop\n      jump\t// out\n        /* \"contracts/generated/PatriciaStorageValidator.sol\":1057:1760  function decodeListLength (ptr) -> len, startOffset {... */\n    tag_258:\n        /* \"contracts/generated/PatriciaStorageValidator.sol\":1092:1095  len */\n      0x00\n        /* \"contracts/generated/PatriciaStorageValidator.sol\":1097:1108  startOffset */\n      dup1\n        /* \"contracts/generated/PatriciaStorageValidator.sol\":1151:1154  ptr */\n      dup3\n        /* \"contracts/generated/PatriciaStorageValidator.sol\":1138:1155  calldataload(ptr) */\n      calldataload\n        /* \"contracts/generated/PatriciaStorageValidator.sol\":1135:1136  0 */\n      0x00\n        /* \"contracts/generated/PatriciaStorageValidator.sol\":1130:1156  byte(0, calldataload(ptr)) */\n      byte\n        /* \"contracts/generated/PatriciaStorageValidator.sol\":1228:1232  0xf8 */\n      0xf8\n        /* \"contracts/generated/PatriciaStorageValidator.sol\":1217:1226  firstByte */\n      dup2\n        /* \"contracts/generated/PatriciaStorageValidator.sol\":1214:1233  lt(firstByte, 0xf8) */\n      lt\n        /* \"contracts/generated/PatriciaStorageValidator.sol\":1211:1312  if lt(firstByte, 0xf8) {... */\n      iszero\n      tag_278\n      jumpi\n        /* \"contracts/generated/PatriciaStorageValidator.sol\":1262:1266  0xbf */\n      0xbf\n        /* \"contracts/generated/PatriciaStorageValidator.sol\":1251:1260  firstByte */\n      dup2\n        /* \"contracts/generated/PatriciaStorageValidator.sol\":1247:1267  sub(firstByte, 0xbf) */\n      sub\n        /* \"contracts/generated/PatriciaStorageValidator.sol\":1240:1267  len := sub(firstByte, 0xbf) */\n      swap3\n      pop\n        /* \"contracts/generated/PatriciaStorageValidator.sol\":1296:1297  1 */\n      0x01\n        /* \"contracts/generated/PatriciaStorageValidator.sol\":1291:1294  ptr */\n      dup5\n        /* \"contracts/generated/PatriciaStorageValidator.sol\":1287:1298  add(ptr, 1) */\n      add\n        /* \"contracts/generated/PatriciaStorageValidator.sol\":1272:1298  startOffset := add(ptr, 1) */\n      swap2\n      pop\n        /* \"contracts/generated/PatriciaStorageValidator.sol\":1303:1308  leave */\n      pop\n      jump(tag_277)\n        /* \"contracts/generated/PatriciaStorageValidator.sol\":1211:1312  if lt(firstByte, 0xf8) {... */\n    tag_278:\n        /* \"contracts/generated/PatriciaStorageValidator.sol\":1398:1402  0xf7 */\n      0xf7\n        /* \"contracts/generated/PatriciaStorageValidator.sol\":1387:1396  firstByte */\n      dup2\n        /* \"contracts/generated/PatriciaStorageValidator.sol\":1383:1403  sub(firstByte, 0xf7) */\n      sub\n        /* \"contracts/generated/PatriciaStorageValidator.sol\":1421:1422  4 */\n      0x04\n        /* \"contracts/generated/PatriciaStorageValidator.sol\":1414:1419  lenOf */\n      dup2\n        /* \"contracts/generated/PatriciaStorageValidator.sol\":1411:1423  gt(lenOf, 4) */\n      gt\n        /* \"contracts/generated/PatriciaStorageValidator.sol\":1408:1447  if gt(lenOf, 4) {... */\n      iszero\n      tag_279\n      jumpi\n        /* \"contracts/generated/PatriciaStorageValidator.sol\":1432:1441  invalid() */\n      invalid\n        /* \"contracts/generated/PatriciaStorageValidator.sol\":1408:1447  if gt(lenOf, 4) {... */\n    tag_279:\n        /* \"contracts/generated/PatriciaStorageValidator.sol\":1509:1510  1 */\n      0x01\n        /* \"contracts/generated/PatriciaStorageValidator.sol\":1504:1507  ptr */\n      dup6\n        /* \"contracts/generated/PatriciaStorageValidator.sol\":1500:1511  add(ptr, 1) */\n      add\n        /* \"contracts/generated/PatriciaStorageValidator.sol\":1485:1511  startOffset := add(ptr, 1) */\n      swap3\n      pop\n        /* \"contracts/generated/PatriciaStorageValidator.sol\":1548:1559  startOffset */\n      dup3\n        /* \"contracts/generated/PatriciaStorageValidator.sol\":1535:1560  calldataload(startOffset) */\n      calldataload\n        /* \"contracts/generated/PatriciaStorageValidator.sol\":1597:1598  8 */\n      0x08\n        /* \"contracts/generated/PatriciaStorageValidator.sol\":1590:1595  lenOf */\n      dup3\n        /* \"contracts/generated/PatriciaStorageValidator.sol\":1586:1599  mul(lenOf, 8) */\n      mul\n        /* \"contracts/generated/PatriciaStorageValidator.sol\":1581:1584  256 */\n      0x0100\n        /* \"contracts/generated/PatriciaStorageValidator.sol\":1577:1600  sub(256, mul(lenOf, 8)) */\n      sub\n        /* \"contracts/generated/PatriciaStorageValidator.sol\":1630:1641  extendedLen */\n      dup2\n        /* \"contracts/generated/PatriciaStorageValidator.sol\":1624:1628  bits */\n      dup2\n        /* \"contracts/generated/PatriciaStorageValidator.sol\":1620:1642  shr(bits, extendedLen) */\n      shr\n        /* \"contracts/generated/PatriciaStorageValidator.sol\":1605:1642  extendedLen := shr(bits, extendedLen) */\n      swap2\n      pop\n        /* \"contracts/generated/PatriciaStorageValidator.sol\":1672:1677  lenOf */\n      dup3\n        /* \"contracts/generated/PatriciaStorageValidator.sol\":1659:1670  extendedLen */\n      dup3\n        /* \"contracts/generated/PatriciaStorageValidator.sol\":1655:1678  add(extendedLen, lenOf) */\n      add\n        /* \"contracts/generated/PatriciaStorageValidator.sol\":1648:1678  len := add(extendedLen, lenOf) */\n      swap6\n      pop\n        /* \"contracts/generated/PatriciaStorageValidator.sol\":1699:1700  1 */\n      0x01\n        /* \"contracts/generated/PatriciaStorageValidator.sol\":1694:1697  len */\n      dup7\n        /* \"contracts/generated/PatriciaStorageValidator.sol\":1690:1701  add(len, 1) */\n      add\n        /* \"contracts/generated/PatriciaStorageValidator.sol\":1683:1701  len := add(len, 1) */\n      swap6\n      pop\n        /* \"contracts/generated/PatriciaStorageValidator.sol\":1738:1743  lenOf */\n      dup3\n        /* \"contracts/generated/PatriciaStorageValidator.sol\":1725:1736  startOffset */\n      dup6\n        /* \"contracts/generated/PatriciaStorageValidator.sol\":1721:1744  add(startOffset, lenOf) */\n      add\n        /* \"contracts/generated/PatriciaStorageValidator.sol\":1706:1744  startOffset := add(startOffset, lenOf) */\n      swap5\n      pop\n        /* \"contracts/generated/PatriciaStorageValidator.sol\":1749:1754  leave */\n      pop\n      pop\n      pop\n      pop\n        /* \"contracts/generated/PatriciaStorageValidator.sol\":1057:1760  function decodeListLength (ptr) -> len, startOffset {... */\n    tag_277:\n      swap2\n      pop\n      swap2\n      jump\t// out\n        /* \"contracts/generated/PatriciaStorageValidator.sol\":1897:3140  function decodeValue (ptr) -> dataLen, valueOffset, isData {... */\n    tag_259:\n        /* \"contracts/generated/PatriciaStorageValidator.sol\":1927:1934  dataLen */\n      0x00\n        /* \"contracts/generated/PatriciaStorageValidator.sol\":1936:1947  valueOffset */\n      dup1\n        /* \"contracts/generated/PatriciaStorageValidator.sol\":1949:1955  isData */\n      0x00\n        /* \"contracts/generated/PatriciaStorageValidator.sol\":1998:2001  ptr */\n      dup4\n        /* \"contracts/generated/PatriciaStorageValidator.sol\":1985:2002  calldataload(ptr) */\n      calldataload\n        /* \"contracts/generated/PatriciaStorageValidator.sol\":1982:1983  0 */\n      0x00\n        /* \"contracts/generated/PatriciaStorageValidator.sol\":1977:2003  byte(0, calldataload(ptr)) */\n      byte\n        /* \"contracts/generated/PatriciaStorageValidator.sol\":2058:2062  0x80 */\n      0x80\n        /* \"contracts/generated/PatriciaStorageValidator.sol\":2047:2056  firstByte */\n      dup2\n        /* \"contracts/generated/PatriciaStorageValidator.sol\":2044:2063  lt(firstByte, 0x80) */\n      lt\n        /* \"contracts/generated/PatriciaStorageValidator.sol\":2041:2135  if lt(firstByte, 0x80) {... */\n      iszero\n      tag_281\n      jumpi\n        /* \"contracts/generated/PatriciaStorageValidator.sol\":2081:2082  1 */\n      0x01\n        /* \"contracts/generated/PatriciaStorageValidator.sol\":2070:2082  dataLen := 1 */\n      swap4\n      pop\n        /* \"contracts/generated/PatriciaStorageValidator.sol\":2102:2105  ptr */\n      dup5\n        /* \"contracts/generated/PatriciaStorageValidator.sol\":2087:2105  valueOffset := ptr */\n      swap3\n      pop\n        /* \"contracts/generated/PatriciaStorageValidator.sol\":2120:2121  1 */\n      0x01\n        /* \"contracts/generated/PatriciaStorageValidator.sol\":2110:2121  isData := 1 */\n      swap2\n      pop\n        /* \"contracts/generated/PatriciaStorageValidator.sol\":2126:2131  leave */\n      pop\n      jump(tag_280)\n        /* \"contracts/generated/PatriciaStorageValidator.sol\":2041:2135  if lt(firstByte, 0x80) {... */\n    tag_281:\n        /* \"contracts/generated/PatriciaStorageValidator.sol\":2211:2215  0xb8 */\n      0xb8\n        /* \"contracts/generated/PatriciaStorageValidator.sol\":2200:2209  firstByte */\n      dup2\n        /* \"contracts/generated/PatriciaStorageValidator.sol\":2197:2216  lt(firstByte, 0xb8) */\n      lt\n        /* \"contracts/generated/PatriciaStorageValidator.sol\":2194:2315  if lt(firstByte, 0xb8) {... */\n      iszero\n      tag_282\n      jumpi\n        /* \"contracts/generated/PatriciaStorageValidator.sol\":2249:2253  0x80 */\n      0x80\n        /* \"contracts/generated/PatriciaStorageValidator.sol\":2238:2247  firstByte */\n      dup2\n        /* \"contracts/generated/PatriciaStorageValidator.sol\":2234:2254  sub(firstByte, 0x80) */\n      sub\n        /* \"contracts/generated/PatriciaStorageValidator.sol\":2223:2254  dataLen := sub(firstByte, 0x80) */\n      swap4\n      pop\n        /* \"contracts/generated/PatriciaStorageValidator.sol\":2283:2284  1 */\n      0x01\n        /* \"contracts/generated/PatriciaStorageValidator.sol\":2278:2281  ptr */\n      dup6\n        /* \"contracts/generated/PatriciaStorageValidator.sol\":2274:2285  add(ptr, 1) */\n      add\n        /* \"contracts/generated/PatriciaStorageValidator.sol\":2259:2285  valueOffset := add(ptr, 1) */\n      swap3\n      pop\n        /* \"contracts/generated/PatriciaStorageValidator.sol\":2300:2301  1 */\n      0x01\n        /* \"contracts/generated/PatriciaStorageValidator.sol\":2290:2301  isData := 1 */\n      swap2\n      pop\n        /* \"contracts/generated/PatriciaStorageValidator.sol\":2306:2311  leave */\n      pop\n      jump(tag_280)\n        /* \"contracts/generated/PatriciaStorageValidator.sol\":2194:2315  if lt(firstByte, 0xb8) {... */\n    tag_282:\n        /* \"contracts/generated/PatriciaStorageValidator.sol\":2389:2393  0xc0 */\n      0xc0\n        /* \"contracts/generated/PatriciaStorageValidator.sol\":2378:2387  firstByte */\n      dup2\n        /* \"contracts/generated/PatriciaStorageValidator.sol\":2375:2394  lt(firstByte, 0xc0) */\n      lt\n        /* \"contracts/generated/PatriciaStorageValidator.sol\":2372:2774  if lt(firstByte, 0xc0) {... */\n      iszero\n      tag_283\n      jumpi\n        /* \"contracts/generated/PatriciaStorageValidator.sol\":2429:2433  0xb7 */\n      0xb7\n        /* \"contracts/generated/PatriciaStorageValidator.sol\":2418:2427  firstByte */\n      dup2\n        /* \"contracts/generated/PatriciaStorageValidator.sol\":2414:2434  sub(firstByte, 0xb7) */\n      sub\n        /* \"contracts/generated/PatriciaStorageValidator.sol\":2452:2453  4 */\n      0x04\n        /* \"contracts/generated/PatriciaStorageValidator.sol\":2445:2450  lenOf */\n      dup2\n        /* \"contracts/generated/PatriciaStorageValidator.sol\":2442:2454  gt(lenOf, 4) */\n      gt\n        /* \"contracts/generated/PatriciaStorageValidator.sol\":2439:2478  if gt(lenOf, 4) {... */\n      iszero\n      tag_284\n      jumpi\n        /* \"contracts/generated/PatriciaStorageValidator.sol\":2463:2472  invalid() */\n      invalid\n        /* \"contracts/generated/PatriciaStorageValidator.sol\":2439:2478  if gt(lenOf, 4) {... */\n    tag_284:\n        /* \"contracts/generated/PatriciaStorageValidator.sol\":2540:2541  1 */\n      0x01\n        /* \"contracts/generated/PatriciaStorageValidator.sol\":2535:2538  ptr */\n      dup7\n        /* \"contracts/generated/PatriciaStorageValidator.sol\":2531:2542  add(ptr, 1) */\n      add\n        /* \"contracts/generated/PatriciaStorageValidator.sol\":2516:2542  valueOffset := add(ptr, 1) */\n      swap4\n      pop\n        /* \"contracts/generated/PatriciaStorageValidator.sol\":2579:2590  valueOffset */\n      dup4\n        /* \"contracts/generated/PatriciaStorageValidator.sol\":2566:2591  calldataload(valueOffset) */\n      calldataload\n        /* \"contracts/generated/PatriciaStorageValidator.sol\":2628:2629  8 */\n      0x08\n        /* \"contracts/generated/PatriciaStorageValidator.sol\":2621:2626  lenOf */\n      dup3\n        /* \"contracts/generated/PatriciaStorageValidator.sol\":2617:2630  mul(lenOf, 8) */\n      mul\n        /* \"contracts/generated/PatriciaStorageValidator.sol\":2612:2615  256 */\n      0x0100\n        /* \"contracts/generated/PatriciaStorageValidator.sol\":2608:2631  sub(256, mul(lenOf, 8)) */\n      sub\n        /* \"contracts/generated/PatriciaStorageValidator.sol\":2661:2672  extendedLen */\n      dup2\n        /* \"contracts/generated/PatriciaStorageValidator.sol\":2655:2659  bits */\n      dup2\n        /* \"contracts/generated/PatriciaStorageValidator.sol\":2651:2673  shr(bits, extendedLen) */\n      shr\n        /* \"contracts/generated/PatriciaStorageValidator.sol\":2636:2673  extendedLen := shr(bits, extendedLen) */\n      swap2\n      pop\n        /* \"contracts/generated/PatriciaStorageValidator.sol\":2690:2701  extendedLen */\n      dup2\n        /* \"contracts/generated/PatriciaStorageValidator.sol\":2679:2701  dataLen := extendedLen */\n      swap7\n      pop\n        /* \"contracts/generated/PatriciaStorageValidator.sol\":2738:2743  lenOf */\n      dup3\n        /* \"contracts/generated/PatriciaStorageValidator.sol\":2725:2736  valueOffset */\n      dup7\n        /* \"contracts/generated/PatriciaStorageValidator.sol\":2721:2744  add(valueOffset, lenOf) */\n      add\n        /* \"contracts/generated/PatriciaStorageValidator.sol\":2706:2744  valueOffset := add(valueOffset, lenOf) */\n      swap6\n      pop\n        /* \"contracts/generated/PatriciaStorageValidator.sol\":2759:2760  1 */\n      0x01\n        /* \"contracts/generated/PatriciaStorageValidator.sol\":2749:2760  isData := 1 */\n      swap5\n      pop\n        /* \"contracts/generated/PatriciaStorageValidator.sol\":2765:2770  leave */\n      pop\n      pop\n      pop\n      pop\n      jump(tag_280)\n        /* \"contracts/generated/PatriciaStorageValidator.sol\":2372:2774  if lt(firstByte, 0xc0) {... */\n    tag_283:\n        /* \"contracts/generated/PatriciaStorageValidator.sol\":2846:2850  0xf8 */\n      0xf8\n        /* \"contracts/generated/PatriciaStorageValidator.sol\":2835:2844  firstByte */\n      dup2\n        /* \"contracts/generated/PatriciaStorageValidator.sol\":2832:2851  lt(firstByte, 0xf8) */\n      lt\n        /* \"contracts/generated/PatriciaStorageValidator.sol\":2829:2966  if lt(firstByte, 0xf8) {... */\n      iszero\n      tag_285\n      jumpi\n        /* \"contracts/generated/PatriciaStorageValidator.sol\":2950:2951  1 */\n      0x01\n        /* \"contracts/generated/PatriciaStorageValidator.sol\":2945:2948  ptr */\n      dup6\n        /* \"contracts/generated/PatriciaStorageValidator.sol\":2941:2952  add(ptr, 1) */\n      add\n        /* \"contracts/generated/PatriciaStorageValidator.sol\":2926:2952  valueOffset := add(ptr, 1) */\n      swap3\n      pop\n        /* \"contracts/generated/PatriciaStorageValidator.sol\":2957:2962  leave */\n      pop\n      jump(tag_280)\n        /* \"contracts/generated/PatriciaStorageValidator.sol\":2829:2966  if lt(firstByte, 0xf8) {... */\n    tag_285:\n        /* \"contracts/generated/PatriciaStorageValidator.sol\":3088:3092  0xf7 */\n      0xf7\n        /* \"contracts/generated/PatriciaStorageValidator.sol\":3077:3086  firstByte */\n      dup2\n        /* \"contracts/generated/PatriciaStorageValidator.sol\":3073:3093  sub(firstByte, 0xf7) */\n      sub\n        /* \"contracts/generated/PatriciaStorageValidator.sol\":3062:3093  dataLen := sub(firstByte, 0xf7) */\n      swap4\n      pop\n        /* \"contracts/generated/PatriciaStorageValidator.sol\":3122:3123  1 */\n      0x01\n        /* \"contracts/generated/PatriciaStorageValidator.sol\":3117:3120  ptr */\n      dup6\n        /* \"contracts/generated/PatriciaStorageValidator.sol\":3113:3124  add(ptr, 1) */\n      add\n        /* \"contracts/generated/PatriciaStorageValidator.sol\":3098:3124  valueOffset := add(ptr, 1) */\n      swap3\n      pop\n        /* \"contracts/generated/PatriciaStorageValidator.sol\":3129:3134  leave */\n      pop\n        /* \"contracts/generated/PatriciaStorageValidator.sol\":1897:3140  function decodeValue (ptr) -> dataLen, valueOffset, isData {... */\n    tag_280:\n      swap2\n      swap4\n      swap1\n      swap3\n      pop\n      jump\t// out\n        /* \"contracts/generated/PatriciaStorageValidator.sol\":3379:4268  function decodeFlat (_ptr) -> ptr, memStart, nItems, hash {... */\n    tag_260:\n        /* \"contracts/generated/PatriciaStorageValidator.sol\":3409:3412  ptr */\n      0x00\n        /* \"contracts/generated/PatriciaStorageValidator.sol\":3414:3422  memStart */\n      dup1\n        /* \"contracts/generated/PatriciaStorageValidator.sol\":3424:3430  nItems */\n      0x00\n        /* \"contracts/generated/PatriciaStorageValidator.sol\":3432:3436  hash */\n      dup1\n        /* \"contracts/generated/PatriciaStorageValidator.sol\":3448:3452  _ptr */\n      dup5\n        /* \"contracts/generated/PatriciaStorageValidator.sol\":3441:3452  ptr := _ptr */\n      swap4\n      pop\n        /* \"contracts/generated/PatriciaStorageValidator.sol\":3563:3565  64 */\n      0x40\n        /* \"contracts/generated/PatriciaStorageValidator.sol\":3557:3566  mload(64) */\n      mload\n        /* \"contracts/generated/PatriciaStorageValidator.sol\":3545:3566  memStart := mload(64) */\n      swap3\n      pop\n        /* \"contracts/generated/PatriciaStorageValidator.sol\":3601:3622  decodeListLength(ptr) */\n      tag_287\n        /* \"contracts/generated/PatriciaStorageValidator.sol\":3618:3621  ptr */\n      dup5\n        /* \"contracts/generated/PatriciaStorageValidator.sol\":3601:3622  decodeListLength(ptr) */\n      tag_258\n      jump\t// in\n    tag_287:\n        /* \"contracts/generated/PatriciaStorageValidator.sol\":3689:3699  payloadLen */\n      dup2\n        /* \"contracts/generated/PatriciaStorageValidator.sol\":3684:3687  ptr */\n      dup7\n        /* \"contracts/generated/PatriciaStorageValidator.sol\":3674:3682  memStart */\n      dup7\n        /* \"contracts/generated/PatriciaStorageValidator.sol\":3661:3700  calldatacopy(memStart, ptr, payloadLen) */\n      calldatacopy\n        /* \"contracts/generated/PatriciaStorageValidator.sol\":3731:3741  payloadLen */\n      dup2\n        /* \"contracts/generated/PatriciaStorageValidator.sol\":3721:3729  memStart */\n      dup6\n        /* \"contracts/generated/PatriciaStorageValidator.sol\":3711:3742  keccak256(memStart, payloadLen) */\n      keccak256\n        /* \"contracts/generated/PatriciaStorageValidator.sol\":3703:3742  hash := keccak256(memStart, payloadLen) */\n      swap3\n      pop\n        /* \"contracts/generated/PatriciaStorageValidator.sol\":3760:3768  memStart */\n      dup5\n        /* \"contracts/generated/PatriciaStorageValidator.sol\":3795:3805  payloadLen */\n      dup3\n        /* \"contracts/generated/PatriciaStorageValidator.sol\":3790:3793  ptr */\n      dup8\n        /* \"contracts/generated/PatriciaStorageValidator.sol\":3786:3806  add(ptr, payloadLen) */\n      add\n        /* \"contracts/generated/PatriciaStorageValidator.sol\":3816:3827  startOffset */\n      dup3\n        /* \"contracts/generated/PatriciaStorageValidator.sol\":3809:3827  ptr := startOffset */\n      swap8\n      pop\n        /* \"contracts/generated/PatriciaStorageValidator.sol\":3869:4169  for {} lt(ptr, ptrStop) {} {... */\n    tag_288:\n        /* \"contracts/generated/PatriciaStorageValidator.sol\":3884:3891  ptrStop */\n      dup1\n        /* \"contracts/generated/PatriciaStorageValidator.sol\":3879:3882  ptr */\n      dup9\n        /* \"contracts/generated/PatriciaStorageValidator.sol\":3876:3892  lt(ptr, ptrStop) */\n      lt\n        /* \"contracts/generated/PatriciaStorageValidator.sol\":3869:4169  for {} lt(ptr, ptrStop) {} {... */\n      iszero\n      tag_290\n      jumpi\n        /* \"contracts/generated/PatriciaStorageValidator.sol\":3931:3947  decodeValue(ptr) */\n      tag_291\n        /* \"contracts/generated/PatriciaStorageValidator.sol\":3943:3946  ptr */\n      dup9\n        /* \"contracts/generated/PatriciaStorageValidator.sol\":3931:3947  decodeValue(ptr) */\n      tag_259\n      jump\t// in\n    tag_291:\n        /* \"contracts/generated/PatriciaStorageValidator.sol\":3968:3976  valuePtr */\n      dup2\n        /* \"contracts/generated/PatriciaStorageValidator.sol\":3963:3966  len */\n      dup4\n        /* \"contracts/generated/PatriciaStorageValidator.sol\":3959:3977  add(len, valuePtr) */\n      add\n        /* \"contracts/generated/PatriciaStorageValidator.sol\":3952:3977  ptr := add(len, valuePtr) */\n      swap11\n      pop\n        /* \"contracts/generated/PatriciaStorageValidator.sol\":3986:3992  isData */\n      dup1\n        /* \"contracts/generated/PatriciaStorageValidator.sol\":3983:4165  if isData {... */\n      iszero\n      tag_292\n      jumpi\n        /* \"contracts/generated/PatriciaStorageValidator.sol\":4092:4100  valuePtr */\n      dup2\n        /* \"contracts/generated/PatriciaStorageValidator.sol\":4086:4089  len */\n      dup4\n        /* \"contracts/generated/PatriciaStorageValidator.sol\":4081:4084  128 */\n      0x80\n        /* \"contracts/generated/PatriciaStorageValidator.sol\":4077:4090  shl(128, len) */\n      shl\n        /* \"contracts/generated/PatriciaStorageValidator.sol\":4074:4101  or(shl(128, len), valuePtr) */\n      or\n        /* \"contracts/generated/PatriciaStorageValidator.sol\":4123:4126  tmp */\n      dup1\n        /* \"contracts/generated/PatriciaStorageValidator.sol\":4115:4121  memPtr */\n      dup7\n        /* \"contracts/generated/PatriciaStorageValidator.sol\":4108:4127  mstore(memPtr, tmp) */\n      mstore\n        /* \"contracts/generated/PatriciaStorageValidator.sol\":4156:4158  32 */\n      0x20\n        /* \"contracts/generated/PatriciaStorageValidator.sol\":4148:4154  memPtr */\n      dup7\n        /* \"contracts/generated/PatriciaStorageValidator.sol\":4144:4159  add(memPtr, 32) */\n      add\n        /* \"contracts/generated/PatriciaStorageValidator.sol\":4134:4159  memPtr := add(memPtr, 32) */\n      swap6\n      pop\n        /* \"contracts/generated/PatriciaStorageValidator.sol\":3993:4165  {... */\n      pop\n        /* \"contracts/generated/PatriciaStorageValidator.sol\":3983:4165  if isData {... */\n    tag_292:\n        /* \"contracts/generated/PatriciaStorageValidator.sol\":3896:4169  {... */\n      pop\n      pop\n      pop\n        /* \"contracts/generated/PatriciaStorageValidator.sol\":3869:4169  for {} lt(ptr, ptrStop) {} {... */\n      jump(tag_288)\n    tag_290:\n        /* \"contracts/generated/PatriciaStorageValidator.sol\":4191:4198  ptrStop */\n      dup1\n        /* \"contracts/generated/PatriciaStorageValidator.sol\":4186:4189  ptr */\n      dup9\n        /* \"contracts/generated/PatriciaStorageValidator.sol\":4183:4199  eq(ptr, ptrStop) */\n      eq\n        /* \"contracts/generated/PatriciaStorageValidator.sol\":4173:4220  if iszero(eq(ptr, ptrStop)) {... */\n      tag_293\n      jumpi\n        /* \"contracts/generated/PatriciaStorageValidator.sol\":4207:4216  invalid() */\n      invalid\n        /* \"contracts/generated/PatriciaStorageValidator.sol\":4173:4220  if iszero(eq(ptr, ptrStop)) {... */\n    tag_293:\n        /* \"contracts/generated/PatriciaStorageValidator.sol\":4262:4264  32 */\n      0x20\n        /* \"contracts/generated/PatriciaStorageValidator.sol\":4251:4259  memStart */\n      dup8\n        /* \"contracts/generated/PatriciaStorageValidator.sol\":4243:4249  memPtr */\n      dup4\n        /* \"contracts/generated/PatriciaStorageValidator.sol\":4239:4260  sub(memPtr, memStart) */\n      sub\n        /* \"contracts/generated/PatriciaStorageValidator.sol\":4234:4266  div( sub(memPtr, memStart), 32 ) */\n      div\n        /* \"contracts/generated/PatriciaStorageValidator.sol\":4224:4266  nItems := div( sub(memPtr, memStart), 32 ) */\n      swap6\n      pop\n        /* \"contracts/generated/PatriciaStorageValidator.sol\":3437:4268  {... */\n      pop\n      pop\n      pop\n      pop\n        /* \"contracts/generated/PatriciaStorageValidator.sol\":3379:4268  function decodeFlat (_ptr) -> ptr, memStart, nItems, hash {... */\n      swap2\n      swap4\n      pop\n      swap2\n      swap4\n      jump\t// out\n        /* \"contracts/generated/PatriciaStorageValidator.sol\":4296:4366  function keccak_32 (v) -> r {... */\n    tag_261:\n        /* \"contracts/generated/PatriciaStorageValidator.sol\":4322:4323  r */\n      0x00\n        /* \"contracts/generated/PatriciaStorageValidator.sol\":4338:4339  v */\n      dup2\n        /* \"contracts/generated/PatriciaStorageValidator.sol\":4335:4336  0 */\n      0x00\n        /* \"contracts/generated/PatriciaStorageValidator.sol\":4328:4340  mstore(0, v) */\n      mstore\n        /* \"contracts/generated/PatriciaStorageValidator.sol\":4361:4363  32 */\n      0x20\n        /* \"contracts/generated/PatriciaStorageValidator.sol\":4358:4359  0 */\n      0x00\n        /* \"contracts/generated/PatriciaStorageValidator.sol\":4348:4364  keccak256(0, 32) */\n      keccak256\n        /* \"contracts/generated/PatriciaStorageValidator.sol\":4343:4364  r := keccak256(0, 32) */\n      swap1\n      pop\n        /* \"contracts/generated/PatriciaStorageValidator.sol\":4296:4366  function keccak_32 (v) -> r {... */\n      swap2\n      swap1\n      pop\n      jump\t// out\n        /* \"contracts/generated/PatriciaStorageValidator.sol\":4717:5152  function derivePath (key, depth) -> path {... */\n    tag_263:\n        /* \"contracts/generated/PatriciaStorageValidator.sol\":4753:4757  path */\n      0x00\n        /* \"contracts/generated/PatriciaStorageValidator.sol\":4770:4773  key */\n      dup2\n        /* \"contracts/generated/PatriciaStorageValidator.sol\":4762:4773  path := key */\n      swap1\n      pop\n        /* \"contracts/generated/PatriciaStorageValidator.sol\":4800:4801  4 */\n      0x04\n        /* \"contracts/generated/PatriciaStorageValidator.sol\":4793:4798  depth */\n      dup4\n        /* \"contracts/generated/PatriciaStorageValidator.sol\":4789:4802  mul(depth, 4) */\n      mul\n        /* \"contracts/generated/PatriciaStorageValidator.sol\":4827:4828  0 */\n      0x00\n        /* \"contracts/generated/PatriciaStorageValidator.sol\":4823:4829  not(0) */\n      not\n        /* \"contracts/generated/PatriciaStorageValidator.sol\":4852:4856  mask */\n      dup1\n        /* \"contracts/generated/PatriciaStorageValidator.sol\":4846:4850  bits */\n      dup3\n        /* \"contracts/generated/PatriciaStorageValidator.sol\":4842:4857  shr(bits, mask) */\n      shr\n        /* \"contracts/generated/PatriciaStorageValidator.sol\":4834:4857  mask := shr(bits, mask) */\n      swap1\n      pop\n        /* \"contracts/generated/PatriciaStorageValidator.sol\":4880:4884  mask */\n      dup1\n        /* \"contracts/generated/PatriciaStorageValidator.sol\":4874:4878  path */\n      dup4\n        /* \"contracts/generated/PatriciaStorageValidator.sol\":4870:4885  and(path, mask) */\n      and\n        /* \"contracts/generated/PatriciaStorageValidator.sol\":4862:4885  path := and(path, mask) */\n      swap3\n      pop\n        /* \"contracts/generated/PatriciaStorageValidator.sol\":4805:4889  {... */\n      pop\n        /* \"contracts/generated/PatriciaStorageValidator.sol\":4924:4928  0x20 */\n      0x20\n        /* \"contracts/generated/PatriciaStorageValidator.sol\":4945:4946  2 */\n      0x02\n        /* \"contracts/generated/PatriciaStorageValidator.sol\":4938:4943  depth */\n      dup6\n        /* \"contracts/generated/PatriciaStorageValidator.sol\":4934:4947  mod(depth, 2) */\n      mod\n        /* \"contracts/generated/PatriciaStorageValidator.sol\":4931:4982  if mod(depth, 2) {... */\n      iszero\n      tag_297\n      jumpi\n        /* \"contracts/generated/PatriciaStorageValidator.sol\":4975:4978  0x3 */\n      0x03\n        /* \"contracts/generated/PatriciaStorageValidator.sol\":4965:4978  prefix := 0x3 */\n      swap1\n      pop\n        /* \"contracts/generated/PatriciaStorageValidator.sol\":4931:4982  if mod(depth, 2) {... */\n    tag_297:\n        /* \"contracts/generated/PatriciaStorageValidator.sol\":5088:5092  bits */\n      dup2\n        /* \"contracts/generated/PatriciaStorageValidator.sol\":5083:5086  256 */\n      0x0100\n        /* \"contracts/generated/PatriciaStorageValidator.sol\":5079:5093  sub(256, bits) */\n      sub\n        /* \"contracts/generated/PatriciaStorageValidator.sol\":5071:5093  bits := sub(256, bits) */\n      swap2\n      pop\n        /* \"contracts/generated/PatriciaStorageValidator.sol\":5116:5122  prefix */\n      dup1\n        /* \"contracts/generated/PatriciaStorageValidator.sol\":5110:5114  bits */\n      dup3\n        /* \"contracts/generated/PatriciaStorageValidator.sol\":5106:5123  shl(bits, prefix) */\n      shl\n        /* \"contracts/generated/PatriciaStorageValidator.sol\":5096:5123  prefix := shl(bits, prefix) */\n      swap1\n      pop\n        /* \"contracts/generated/PatriciaStorageValidator.sol\":5145:5149  path */\n      dup3\n        /* \"contracts/generated/PatriciaStorageValidator.sol\":5137:5143  prefix */\n      dup2\n        /* \"contracts/generated/PatriciaStorageValidator.sol\":5134:5150  or(prefix, path) */\n      or\n        /* \"contracts/generated/PatriciaStorageValidator.sol\":5126:5150  path := or(prefix, path) */\n      swap3\n      pop\n        /* \"contracts/generated/PatriciaStorageValidator.sol\":4758:5152  {... */\n      pop\n      pop\n        /* \"contracts/generated/PatriciaStorageValidator.sol\":4717:5152  function derivePath (key, depth) -> path {... */\n      swap3\n      swap2\n      pop\n      pop\n      jump\t// out\n        /* \"contracts/generated/PatriciaStorageValidator.sol\":5241:5855  function loadValue (memPtr, idx) -> value {... */\n    tag_264:\n        /* \"contracts/generated/PatriciaStorageValidator.sol\":5277:5282  value */\n      0x00\n        /* \"contracts/generated/PatriciaStorageValidator.sol\":5324:5327  idx */\n      dup3\n        /* \"contracts/generated/PatriciaStorageValidator.sol\":5320:5322  32 */\n      0x20\n        /* \"contracts/generated/PatriciaStorageValidator.sol\":5316:5328  mul(32, idx) */\n      mul\n        /* \"contracts/generated/PatriciaStorageValidator.sol\":5308:5314  memPtr */\n      dup3\n        /* \"contracts/generated/PatriciaStorageValidator.sol\":5304:5329  add(memPtr, mul(32, idx)) */\n      add\n        /* \"contracts/generated/PatriciaStorageValidator.sol\":5298:5330  mload(add(memPtr, mul(32, idx))) */\n      mload\n        /* \"contracts/generated/PatriciaStorageValidator.sol\":5421:5429  0xffffff */\n      0xffffff\n        /* \"contracts/generated/PatriciaStorageValidator.sol\":5416:5419  tmp */\n      dup2\n        /* \"contracts/generated/PatriciaStorageValidator.sol\":5412:5430  and(tmp, 0xffffff) */\n      and\n        /* \"contracts/generated/PatriciaStorageValidator.sol\":5453:5456  tmp */\n      dup2\n        /* \"contracts/generated/PatriciaStorageValidator.sol\":5448:5451  128 */\n      0x80\n        /* \"contracts/generated/PatriciaStorageValidator.sol\":5444:5457  shr(128, tmp) */\n      shr\n        /* \"contracts/generated/PatriciaStorageValidator.sol\":5472:5474  31 */\n      0x1f\n        /* \"contracts/generated/PatriciaStorageValidator.sol\":5467:5470  len */\n      dup2\n        /* \"contracts/generated/PatriciaStorageValidator.sol\":5464:5475  gt(len, 31) */\n      gt\n        /* \"contracts/generated/PatriciaStorageValidator.sol\":5461:5698  if gt(len, 31) {... */\n      iszero\n      tag_299\n      jumpi\n        /* \"contracts/generated/PatriciaStorageValidator.sol\":5646:5648  32 */\n      0x20\n        /* \"contracts/generated/PatriciaStorageValidator.sol\":5641:5644  len */\n      dup2\n        /* \"contracts/generated/PatriciaStorageValidator.sol\":5637:5649  sub(len, 32) */\n      sub\n        /* \"contracts/generated/PatriciaStorageValidator.sol\":5629:5635  offset */\n      dup3\n        /* \"contracts/generated/PatriciaStorageValidator.sol\":5625:5650  add(offset, sub(len, 32)) */\n      add\n        /* \"contracts/generated/PatriciaStorageValidator.sol\":5615:5650  offset := add(offset, sub(len, 32)) */\n      swap2\n      pop\n        /* \"contracts/generated/PatriciaStorageValidator.sol\":5677:5683  offset */\n      dup2\n        /* \"contracts/generated/PatriciaStorageValidator.sol\":5664:5684  calldataload(offset) */\n      calldataload\n        /* \"contracts/generated/PatriciaStorageValidator.sol\":5655:5684  value := calldataload(offset) */\n      swap4\n      pop\n        /* \"contracts/generated/PatriciaStorageValidator.sol\":5689:5694  leave */\n      pop\n      pop\n      pop\n      jump(tag_298)\n        /* \"contracts/generated/PatriciaStorageValidator.sol\":5461:5698  if gt(len, 31) {... */\n    tag_299:\n        /* \"contracts/generated/PatriciaStorageValidator.sol\":5791:5792  8 */\n      0x08\n        /* \"contracts/generated/PatriciaStorageValidator.sol\":5785:5788  len */\n      dup2\n        /* \"contracts/generated/PatriciaStorageValidator.sol\":5781:5783  32 */\n      0x20\n        /* \"contracts/generated/PatriciaStorageValidator.sol\":5777:5789  sub(32, len) */\n      sub\n        /* \"contracts/generated/PatriciaStorageValidator.sol\":5772:5793  mul( sub(32, len), 8) */\n      mul\n        /* \"contracts/generated/PatriciaStorageValidator.sol\":5818:5824  offset */\n      dup3\n        /* \"contracts/generated/PatriciaStorageValidator.sol\":5805:5825  calldataload(offset) */\n      calldataload\n        /* \"contracts/generated/PatriciaStorageValidator.sol\":5796:5825  value := calldataload(offset) */\n      swap5\n      pop\n        /* \"contracts/generated/PatriciaStorageValidator.sol\":5847:5852  value */\n      dup5\n        /* \"contracts/generated/PatriciaStorageValidator.sol\":5841:5845  bits */\n      dup2\n        /* \"contracts/generated/PatriciaStorageValidator.sol\":5837:5853  shr(bits, value) */\n      shr\n        /* \"contracts/generated/PatriciaStorageValidator.sol\":5828:5853  value := shr(bits, value) */\n      swap5\n      pop\n        /* \"contracts/generated/PatriciaStorageValidator.sol\":5283:5855  {... */\n      pop\n      pop\n      pop\n      pop\n        /* \"contracts/generated/PatriciaStorageValidator.sol\":5241:5855  function loadValue (memPtr, idx) -> value {... */\n    tag_298:\n      swap3\n      swap2\n      pop\n      pop\n      jump\t// out\n        /* \"contracts/generated/PatriciaStorageValidator.sol\":6016:6634  function loadValueLen (memPtr, idx) -> value, len {... */\n    tag_265:\n        /* \"contracts/generated/PatriciaStorageValidator.sol\":6055:6060  value */\n      0x00\n        /* \"contracts/generated/PatriciaStorageValidator.sol\":6062:6065  len */\n      dup1\n        /* \"contracts/generated/PatriciaStorageValidator.sol\":6107:6110  idx */\n      dup4\n        /* \"contracts/generated/PatriciaStorageValidator.sol\":6103:6105  32 */\n      0x20\n        /* \"contracts/generated/PatriciaStorageValidator.sol\":6099:6111  mul(32, idx) */\n      mul\n        /* \"contracts/generated/PatriciaStorageValidator.sol\":6091:6097  memPtr */\n      dup4\n        /* \"contracts/generated/PatriciaStorageValidator.sol\":6087:6112  add(memPtr, mul(32, idx)) */\n      add\n        /* \"contracts/generated/PatriciaStorageValidator.sol\":6081:6113  mload(add(memPtr, mul(32, idx))) */\n      mload\n        /* \"contracts/generated/PatriciaStorageValidator.sol\":6204:6212  0xffffff */\n      0xffffff\n        /* \"contracts/generated/PatriciaStorageValidator.sol\":6199:6202  tmp */\n      dup2\n        /* \"contracts/generated/PatriciaStorageValidator.sol\":6195:6213  and(tmp, 0xffffff) */\n      and\n        /* \"contracts/generated/PatriciaStorageValidator.sol\":6232:6235  tmp */\n      dup2\n        /* \"contracts/generated/PatriciaStorageValidator.sol\":6227:6230  128 */\n      0x80\n        /* \"contracts/generated/PatriciaStorageValidator.sol\":6223:6236  shr(128, tmp) */\n      shr\n        /* \"contracts/generated/PatriciaStorageValidator.sol\":6216:6236  len := shr(128, tmp) */\n      swap3\n      pop\n        /* \"contracts/generated/PatriciaStorageValidator.sol\":6251:6253  31 */\n      0x1f\n        /* \"contracts/generated/PatriciaStorageValidator.sol\":6246:6249  len */\n      dup4\n        /* \"contracts/generated/PatriciaStorageValidator.sol\":6243:6254  gt(len, 31) */\n      gt\n        /* \"contracts/generated/PatriciaStorageValidator.sol\":6240:6477  if gt(len, 31) {... */\n      iszero\n      tag_301\n      jumpi\n        /* \"contracts/generated/PatriciaStorageValidator.sol\":6425:6427  32 */\n      0x20\n        /* \"contracts/generated/PatriciaStorageValidator.sol\":6420:6423  len */\n      dup4\n        /* \"contracts/generated/PatriciaStorageValidator.sol\":6416:6428  sub(len, 32) */\n      sub\n        /* \"contracts/generated/PatriciaStorageValidator.sol\":6408:6414  offset */\n      dup2\n        /* \"contracts/generated/PatriciaStorageValidator.sol\":6404:6429  add(offset, sub(len, 32)) */\n      add\n        /* \"contracts/generated/PatriciaStorageValidator.sol\":6394:6429  offset := add(offset, sub(len, 32)) */\n      swap1\n      pop\n        /* \"contracts/generated/PatriciaStorageValidator.sol\":6456:6462  offset */\n      dup1\n        /* \"contracts/generated/PatriciaStorageValidator.sol\":6443:6463  calldataload(offset) */\n      calldataload\n        /* \"contracts/generated/PatriciaStorageValidator.sol\":6434:6463  value := calldataload(offset) */\n      swap4\n      pop\n        /* \"contracts/generated/PatriciaStorageValidator.sol\":6468:6473  leave */\n      pop\n      pop\n      jump(tag_300)\n        /* \"contracts/generated/PatriciaStorageValidator.sol\":6240:6477  if gt(len, 31) {... */\n    tag_301:\n        /* \"contracts/generated/PatriciaStorageValidator.sol\":6570:6571  8 */\n      0x08\n        /* \"contracts/generated/PatriciaStorageValidator.sol\":6564:6567  len */\n      dup4\n        /* \"contracts/generated/PatriciaStorageValidator.sol\":6560:6562  32 */\n      0x20\n        /* \"contracts/generated/PatriciaStorageValidator.sol\":6556:6568  sub(32, len) */\n      sub\n        /* \"contracts/generated/PatriciaStorageValidator.sol\":6551:6572  mul( sub(32, len), 8) */\n      mul\n        /* \"contracts/generated/PatriciaStorageValidator.sol\":6597:6603  offset */\n      dup2\n        /* \"contracts/generated/PatriciaStorageValidator.sol\":6584:6604  calldataload(offset) */\n      calldataload\n        /* \"contracts/generated/PatriciaStorageValidator.sol\":6575:6604  value := calldataload(offset) */\n      swap5\n      pop\n        /* \"contracts/generated/PatriciaStorageValidator.sol\":6626:6631  value */\n      dup5\n        /* \"contracts/generated/PatriciaStorageValidator.sol\":6620:6624  bits */\n      dup2\n        /* \"contracts/generated/PatriciaStorageValidator.sol\":6616:6632  shr(bits, value) */\n      shr\n        /* \"contracts/generated/PatriciaStorageValidator.sol\":6607:6632  value := shr(bits, value) */\n      swap5\n      pop\n        /* \"contracts/generated/PatriciaStorageValidator.sol\":6066:6634  {... */\n      pop\n      pop\n      pop\n        /* \"contracts/generated/PatriciaStorageValidator.sol\":6016:6634  function loadValueLen (memPtr, idx) -> value, len {... */\n    tag_300:\n      swap3\n      pop\n      swap3\n      swap1\n      pop\n      jump\t// out\n        /* \"contracts/generated/PatriciaStorageValidator.sol\":6974:8758  function walkTree (key, _ptr) -> ptr, rootHash, expectedHash, path, leafMem {... */\n    tag_267:\n        /* \"contracts/generated/PatriciaStorageValidator.sol\":7007:7010  ptr */\n      0x00\n        /* \"contracts/generated/PatriciaStorageValidator.sol\":7012:7020  rootHash */\n      dup1\n        /* \"contracts/generated/PatriciaStorageValidator.sol\":7022:7034  expectedHash */\n      0x00\n        /* \"contracts/generated/PatriciaStorageValidator.sol\":7036:7040  path */\n      dup1\n        /* \"contracts/generated/PatriciaStorageValidator.sol\":7042:7049  leafMem */\n      0x00\n        /* \"contracts/generated/PatriciaStorageValidator.sol\":7061:7065  _ptr */\n      dup7\n        /* \"contracts/generated/PatriciaStorageValidator.sol\":7054:7065  ptr := _ptr */\n      swap5\n      pop\n        /* \"contracts/generated/PatriciaStorageValidator.sol\":7140:7143  ptr */\n      dup5\n        /* \"contracts/generated/PatriciaStorageValidator.sol\":7127:7144  calldataload(ptr) */\n      calldataload\n        /* \"contracts/generated/PatriciaStorageValidator.sol\":7124:7125  0 */\n      0x00\n        /* \"contracts/generated/PatriciaStorageValidator.sol\":7119:7145  byte(0, calldataload(ptr)) */\n      byte\n        /* \"contracts/generated/PatriciaStorageValidator.sol\":7164:7165  1 */\n      0x01\n        /* \"contracts/generated/PatriciaStorageValidator.sol\":7159:7162  ptr */\n      dup7\n        /* \"contracts/generated/PatriciaStorageValidator.sol\":7155:7166  add(ptr, 1) */\n      add\n        /* \"contracts/generated/PatriciaStorageValidator.sol\":7148:7166  ptr := add(ptr, 1) */\n      swap6\n      pop\n        /* \"contracts/generated/PatriciaStorageValidator.sol\":7238:7247  let depth */\n      0x00\n        /* \"contracts/generated/PatriciaStorageValidator.sol\":7266:7267  0 */\n      dup1\n        /* \"contracts/generated/PatriciaStorageValidator.sol\":7251:8669  for { let i := 0 } lt(i, nNodes) { i := add(i, 1) } {... */\n    tag_304:\n        /* \"contracts/generated/PatriciaStorageValidator.sol\":7276:7282  nNodes */\n      dup3\n        /* \"contracts/generated/PatriciaStorageValidator.sol\":7273:7274  i */\n      dup2\n        /* \"contracts/generated/PatriciaStorageValidator.sol\":7270:7283  lt(i, nNodes) */\n      lt\n        /* \"contracts/generated/PatriciaStorageValidator.sol\":7251:8669  for { let i := 0 } lt(i, nNodes) { i := add(i, 1) } {... */\n      iszero\n      tag_306\n      jumpi\n        /* \"contracts/generated/PatriciaStorageValidator.sol\":7309:7335  let memStart, nItems, hash */\n      0x00\n      dup1\n      0x00\n        /* \"contracts/generated/PatriciaStorageValidator.sol\":7371:7386  decodeFlat(ptr) */\n      tag_307\n        /* \"contracts/generated/PatriciaStorageValidator.sol\":7382:7385  ptr */\n      dup12\n        /* \"contracts/generated/PatriciaStorageValidator.sol\":7371:7386  decodeFlat(ptr) */\n      tag_260\n      jump\t// in\n    tag_307:\n        /* \"contracts/generated/PatriciaStorageValidator.sol\":7340:7386  ptr, memStart, nItems, hash := decodeFlat(ptr) */\n      swap4\n      pop\n      swap4\n      pop\n      swap4\n      pop\n      swap11\n      pop\n        /* \"contracts/generated/PatriciaStorageValidator.sol\":7554:7555  i */\n      dup4\n        /* \"contracts/generated/PatriciaStorageValidator.sol\":7565:7566  0 */\n      0x00\n        /* \"contracts/generated/PatriciaStorageValidator.sol\":7560:7597  case 0 {... */\n      dup2\n      eq\n      tag_309\n      jumpi\n        /* \"contracts/generated/PatriciaStorageValidator.sol\":7614:7646  cmp(hash, expectedHash, 'THASH') */\n      tag_310\n        /* \"contracts/generated/PatriciaStorageValidator.sol\":7638:7645  'THASH' */\n      0x5448415348000000000000000000000000000000000000000000000000000000\n        /* \"contracts/generated/PatriciaStorageValidator.sol\":7624:7636  expectedHash */\n      dup12\n        /* \"contracts/generated/PatriciaStorageValidator.sol\":7618:7622  hash */\n      dup5\n        /* \"contracts/generated/PatriciaStorageValidator.sol\":7614:7646  cmp(hash, expectedHash, 'THASH') */\n      tag_272\n      jump\t// in\n    tag_310:\n        /* \"contracts/generated/PatriciaStorageValidator.sol\":7547:7652  switch i... */\n      jump(tag_308)\n        /* \"contracts/generated/PatriciaStorageValidator.sol\":7560:7597  case 0 {... */\n    tag_309:\n        /* \"contracts/generated/PatriciaStorageValidator.sol\":7587:7591  hash */\n      dup2\n        /* \"contracts/generated/PatriciaStorageValidator.sol\":7575:7591  rootHash := hash */\n      swap11\n      pop\n        /* \"contracts/generated/PatriciaStorageValidator.sol\":7547:7652  switch i... */\n    tag_308:\n      pop\n        /* \"contracts/generated/PatriciaStorageValidator.sol\":7665:7671  nItems */\n      dup2\n        /* \"contracts/generated/PatriciaStorageValidator.sol\":7681:7682  2 */\n      0x02\n        /* \"contracts/generated/PatriciaStorageValidator.sol\":7676:8320  case 2 {... */\n      dup2\n      eq\n      tag_312\n      jumpi\n        /* \"contracts/generated/PatriciaStorageValidator.sol\":8330:8332  17 */\n      0x11\n        /* \"contracts/generated/PatriciaStorageValidator.sol\":8325:8581  case 17 {... */\n      dup2\n      eq\n      tag_313\n      jumpi\n        /* \"contracts/generated/PatriciaStorageValidator.sol\":8641:8659  revertWith('NODE') */\n      tag_314\n        /* \"contracts/generated/PatriciaStorageValidator.sol\":8652:8658  'NODE' */\n      0x4e4f444500000000000000000000000000000000000000000000000000000000\n        /* \"contracts/generated/PatriciaStorageValidator.sol\":8641:8659  revertWith('NODE') */\n      tag_270\n      jump\t// in\n    tag_314:\n        /* \"contracts/generated/PatriciaStorageValidator.sol\":7658:8665  switch nItems... */\n      jump(tag_311)\n        /* \"contracts/generated/PatriciaStorageValidator.sol\":7676:8320  case 2 {... */\n    tag_312:\n        /* \"contracts/generated/PatriciaStorageValidator.sol\":7715:7729  let value, len */\n      0x00\n      dup1\n        /* \"contracts/generated/PatriciaStorageValidator.sol\":7846:7871  loadValueLen(memStart, 1) */\n      tag_315\n        /* \"contracts/generated/PatriciaStorageValidator.sol\":7869:7870  1 */\n      0x01\n        /* \"contracts/generated/PatriciaStorageValidator.sol\":7859:7867  memStart */\n      dup8\n        /* \"contracts/generated/PatriciaStorageValidator.sol\":7846:7871  loadValueLen(memStart, 1) */\n      tag_265\n      jump\t// in\n    tag_315:\n        /* \"contracts/generated/PatriciaStorageValidator.sol\":7832:7871  value, len := loadValueLen(memStart, 1) */\n      swap2\n      pop\n      swap2\n      pop\n        /* \"contracts/generated/PatriciaStorageValidator.sol\":7894:7899  value */\n      dup2\n        /* \"contracts/generated/PatriciaStorageValidator.sol\":7878:7899  expectedHash := value */\n      swap12\n      pop\n        /* \"contracts/generated/PatriciaStorageValidator.sol\":7932:7933  1 */\n      0x01\n        /* \"contracts/generated/PatriciaStorageValidator.sol\":7924:7930  nNodes */\n      dup10\n        /* \"contracts/generated/PatriciaStorageValidator.sol\":7920:7934  sub(nNodes, 1) */\n      sub\n        /* \"contracts/generated/PatriciaStorageValidator.sol\":7917:7918  i */\n      dup8\n        /* \"contracts/generated/PatriciaStorageValidator.sol\":7914:7935  eq(i, sub(nNodes, 1)) */\n      eq\n        /* \"contracts/generated/PatriciaStorageValidator.sol\":7947:7948  0 */\n      0x00\n        /* \"contracts/generated/PatriciaStorageValidator.sol\":7942:8262  case 0 {... */\n      dup2\n      eq\n      tag_317\n      jumpi\n        /* \"contracts/generated/PatriciaStorageValidator.sol\":8298:8306  memStart */\n      dup7\n        /* \"contracts/generated/PatriciaStorageValidator.sol\":8287:8306  leafMem := memStart */\n      swap11\n      pop\n        /* \"contracts/generated/PatriciaStorageValidator.sol\":7907:8314  switch eq(i, sub(nNodes, 1))... */\n      jump(tag_316)\n        /* \"contracts/generated/PatriciaStorageValidator.sol\":7942:8262  case 0 {... */\n    tag_317:\n        /* \"contracts/generated/PatriciaStorageValidator.sol\":8205:8213  memStart */\n      dup7\n        /* \"contracts/generated/PatriciaStorageValidator.sol\":8199:8214  mload(memStart) */\n      mload\n        /* \"contracts/generated/PatriciaStorageValidator.sol\":8194:8197  128 */\n      0x80\n        /* \"contracts/generated/PatriciaStorageValidator.sol\":8190:8215  shr(128, mload(memStart)) */\n      shr\n        /* \"contracts/generated/PatriciaStorageValidator.sol\":8244:8253  prefixLen */\n      dup1\n        /* \"contracts/generated/PatriciaStorageValidator.sol\":8237:8242  depth */\n      dup11\n        /* \"contracts/generated/PatriciaStorageValidator.sol\":8233:8254  add(depth, prefixLen) */\n      add\n        /* \"contracts/generated/PatriciaStorageValidator.sol\":8224:8254  depth := add(depth, prefixLen) */\n      swap10\n      pop\n        /* \"contracts/generated/PatriciaStorageValidator.sol\":7949:8262  {... */\n      pop\n        /* \"contracts/generated/PatriciaStorageValidator.sol\":7907:8314  switch eq(i, sub(nNodes, 1))... */\n    tag_316:\n      pop\n        /* \"contracts/generated/PatriciaStorageValidator.sol\":7683:8320  {... */\n      pop\n      pop\n        /* \"contracts/generated/PatriciaStorageValidator.sol\":7676:8320  case 2 {... */\n      jump(tag_311)\n        /* \"contracts/generated/PatriciaStorageValidator.sol\":8325:8581  case 17 {... */\n    tag_313:\n        /* \"contracts/generated/PatriciaStorageValidator.sol\":8373:8374  4 */\n      0x04\n        /* \"contracts/generated/PatriciaStorageValidator.sol\":8366:8371  depth */\n      dup7\n        /* \"contracts/generated/PatriciaStorageValidator.sol\":8362:8375  mul(depth, 4) */\n      mul\n        /* \"contracts/generated/PatriciaStorageValidator.sol\":8357:8360  252 */\n      0xfc\n        /* \"contracts/generated/PatriciaStorageValidator.sol\":8353:8376  sub(252, mul(depth, 4)) */\n      sub\n        /* \"contracts/generated/PatriciaStorageValidator.sol\":8417:8420  0xf */\n      0x0f\n        /* \"contracts/generated/PatriciaStorageValidator.sol\":8411:8414  key */\n      dup15\n        /* \"contracts/generated/PatriciaStorageValidator.sol\":8405:8409  bits */\n      dup3\n        /* \"contracts/generated/PatriciaStorageValidator.sol\":8401:8415  shr(bits, key) */\n      shr\n        /* \"contracts/generated/PatriciaStorageValidator.sol\":8397:8421  and(shr(bits, key), 0xf) */\n      and\n        /* \"contracts/generated/PatriciaStorageValidator.sol\":8487:8517  loadValueLen(memStart, nibble) */\n      tag_318\n        /* \"contracts/generated/PatriciaStorageValidator.sol\":8510:8516  nibble */\n      dup2\n        /* \"contracts/generated/PatriciaStorageValidator.sol\":8500:8508  memStart */\n      dup8\n        /* \"contracts/generated/PatriciaStorageValidator.sol\":8487:8517  loadValueLen(memStart, nibble) */\n      tag_265\n      jump\t// in\n    tag_318:\n        /* \"contracts/generated/PatriciaStorageValidator.sol\":8541:8546  value */\n      dup2\n        /* \"contracts/generated/PatriciaStorageValidator.sol\":8525:8546  expectedHash := value */\n      swap14\n      pop\n        /* \"contracts/generated/PatriciaStorageValidator.sol\":8573:8574  1 */\n      0x01\n        /* \"contracts/generated/PatriciaStorageValidator.sol\":8566:8571  depth */\n      dup11\n        /* \"contracts/generated/PatriciaStorageValidator.sol\":8562:8575  add(depth, 1) */\n      add\n        /* \"contracts/generated/PatriciaStorageValidator.sol\":8553:8575  depth := add(depth, 1) */\n      swap10\n      pop\n        /* \"contracts/generated/PatriciaStorageValidator.sol\":8333:8581  {... */\n      pop\n      pop\n      pop\n      pop\n        /* \"contracts/generated/PatriciaStorageValidator.sol\":7658:8665  switch nItems... */\n    tag_311:\n      pop\n        /* \"contracts/generated/PatriciaStorageValidator.sol\":7303:8669  {... */\n      pop\n      pop\n      pop\n        /* \"contracts/generated/PatriciaStorageValidator.sol\":7298:7299  1 */\n      0x01\n        /* \"contracts/generated/PatriciaStorageValidator.sol\":7295:7296  i */\n      dup2\n        /* \"contracts/generated/PatriciaStorageValidator.sol\":7291:7300  add(i, 1) */\n      add\n        /* \"contracts/generated/PatriciaStorageValidator.sol\":7286:7300  i := add(i, 1) */\n      swap1\n      pop\n        /* \"contracts/generated/PatriciaStorageValidator.sol\":7251:8669  for { let i := 0 } lt(i, nNodes) { i := add(i, 1) } {... */\n      jump(tag_304)\n    tag_306:\n        /* \"contracts/generated/PatriciaStorageValidator.sol\":7255:7269  { let i := 0 } */\n      pop\n        /* \"contracts/generated/PatriciaStorageValidator.sol\":8734:8756  derivePath(key, depth) */\n      tag_319\n        /* \"contracts/generated/PatriciaStorageValidator.sol\":8750:8755  depth */\n      dup2\n        /* \"contracts/generated/PatriciaStorageValidator.sol\":8745:8748  key */\n      dup10\n        /* \"contracts/generated/PatriciaStorageValidator.sol\":8734:8756  derivePath(key, depth) */\n      tag_263\n      jump\t// in\n    tag_319:\n        /* \"contracts/generated/PatriciaStorageValidator.sol\":8726:8756  path := derivePath(key, depth) */\n      swap4\n      pop\n        /* \"contracts/generated/PatriciaStorageValidator.sol\":7050:8758  {... */\n      pop\n      pop\n        /* \"contracts/generated/PatriciaStorageValidator.sol\":6974:8758  function walkTree (key, _ptr) -> ptr, rootHash, expectedHash, path, leafMem {... */\n      swap3\n      swap6\n      pop\n      swap3\n      swap6\n      swap1\n      swap4\n      pop\n      jump\t// out\n        /* \"contracts/generated/PatriciaStorageValidator.sol\":10017:10944  function validateStorageProof (_ptr, _storageKey) -> ptr, rootHash, storageKeyValue {... */\n    tag_269:\n        /* \"contracts/generated/PatriciaStorageValidator.sol\":10070:10073  ptr */\n      0x00\n        /* \"contracts/generated/PatriciaStorageValidator.sol\":10075:10083  rootHash */\n      dup1\n        /* \"contracts/generated/PatriciaStorageValidator.sol\":10085:10100  storageKeyValue */\n      0x00\n        /* \"contracts/generated/PatriciaStorageValidator.sol\":10112:10116  _ptr */\n      dup4\n        /* \"contracts/generated/PatriciaStorageValidator.sol\":10105:10116  ptr := _ptr */\n      swap3\n      pop\n        /* \"contracts/generated/PatriciaStorageValidator.sol\":10120:10135  let encodedPath */\n      0x00\n        /* \"contracts/generated/PatriciaStorageValidator.sol\":10138:10146  let path */\n      dup1\n        /* \"contracts/generated/PatriciaStorageValidator.sol\":10149:10157  let hash */\n      0x00\n        /* \"contracts/generated/PatriciaStorageValidator.sol\":10160:10168  let vlen */\n      dup1\n        /* \"contracts/generated/PatriciaStorageValidator.sol\":10171:10182  let leafMem */\n      0x00\n        /* \"contracts/generated/PatriciaStorageValidator.sol\":10196:10218  keccak_32(_storageKey) */\n      tag_331\n        /* \"contracts/generated/PatriciaStorageValidator.sol\":10206:10217  _storageKey */\n      dup11\n        /* \"contracts/generated/PatriciaStorageValidator.sol\":10196:10218  keccak_32(_storageKey) */\n      tag_261\n      jump\t// in\n    tag_331:\n        /* \"contracts/generated/PatriciaStorageValidator.sol\":10259:10277  walkTree(key, ptr) */\n      tag_332\n        /* \"contracts/generated/PatriciaStorageValidator.sol\":10273:10276  ptr */\n      dup10\n        /* \"contracts/generated/PatriciaStorageValidator.sol\":10268:10271  key */\n      dup3\n        /* \"contracts/generated/PatriciaStorageValidator.sol\":10259:10277  walkTree(key, ptr) */\n      tag_267\n      jump\t// in\n    tag_332:\n        /* \"contracts/generated/PatriciaStorageValidator.sol\":10221:10277  ptr, rootHash, hash, path, leafMem := walkTree(key, ptr) */\n      swap6\n      pop\n      swap8\n      pop\n      swap6\n      pop\n      swap9\n      pop\n      swap9\n      pop\n        /* \"contracts/generated/PatriciaStorageValidator.sol\":10288:10295  leafMem */\n      dup2\n        /* \"contracts/generated/PatriciaStorageValidator.sol\":10303:10304  0 */\n      0x00\n        /* \"contracts/generated/PatriciaStorageValidator.sol\":10298:10353  case 0 {... */\n      dup2\n      eq\n      tag_334\n      jumpi\n        /* \"contracts/generated/PatriciaStorageValidator.sol\":10473:10494  loadValue(leafMem, 0) */\n      tag_335\n        /* \"contracts/generated/PatriciaStorageValidator.sol\":10492:10493  0 */\n      0x00\n        /* \"contracts/generated/PatriciaStorageValidator.sol\":10483:10490  leafMem */\n      dup5\n        /* \"contracts/generated/PatriciaStorageValidator.sol\":10473:10494  loadValue(leafMem, 0) */\n      tag_264\n      jump\t// in\n    tag_335:\n        /* \"contracts/generated/PatriciaStorageValidator.sol\":10458:10494  encodedPath := loadValue(leafMem, 0) */\n      swap7\n      pop\n        /* \"contracts/generated/PatriciaStorageValidator.sol\":10524:10548  loadValueLen(leafMem, 1) */\n      tag_336\n        /* \"contracts/generated/PatriciaStorageValidator.sol\":10546:10547  1 */\n      0x01\n        /* \"contracts/generated/PatriciaStorageValidator.sol\":10537:10544  leafMem */\n      dup5\n        /* \"contracts/generated/PatriciaStorageValidator.sol\":10524:10548  loadValueLen(leafMem, 1) */\n      tag_265\n      jump\t// in\n    tag_336:\n        /* \"contracts/generated/PatriciaStorageValidator.sol\":10499:10548  storageKeyValue, vlen := loadValueLen(leafMem, 1) */\n      swap5\n      pop\n      swap8\n      pop\n        /* \"contracts/generated/PatriciaStorageValidator.sol\":10626:10637  encodedPath */\n      dup7\n        /* \"contracts/generated/PatriciaStorageValidator.sol\":10620:10624  path */\n      dup7\n        /* \"contracts/generated/PatriciaStorageValidator.sol\":10617:10638  eq(path, encodedPath) */\n      eq\n        /* \"contracts/generated/PatriciaStorageValidator.sol\":10650:10660  isSamePath */\n      dup1\n        /* \"contracts/generated/PatriciaStorageValidator.sol\":10670:10671  0 */\n      0x00\n        /* \"contracts/generated/PatriciaStorageValidator.sol\":10665:10753  case 0 {... */\n      dup2\n      eq\n      tag_338\n      jumpi\n        /* \"contracts/generated/PatriciaStorageValidator.sol\":10899:10932  decodeItem(storageKeyValue, vlen) */\n      tag_339\n        /* \"contracts/generated/PatriciaStorageValidator.sol\":10927:10931  vlen */\n      dup7\n        /* \"contracts/generated/PatriciaStorageValidator.sol\":10910:10925  storageKeyValue */\n      dup12\n        /* \"contracts/generated/PatriciaStorageValidator.sol\":10899:10932  decodeItem(storageKeyValue, vlen) */\n      tag_257\n      jump\t// in\n    tag_339:\n        /* \"contracts/generated/PatriciaStorageValidator.sol\":10880:10932  storageKeyValue := decodeItem(storageKeyValue, vlen) */\n      swap10\n      pop\n        /* \"contracts/generated/PatriciaStorageValidator.sol\":10643:10938  switch isSamePath... */\n      jump(tag_337)\n        /* \"contracts/generated/PatriciaStorageValidator.sol\":10665:10753  case 0 {... */\n    tag_338:\n        /* \"contracts/generated/PatriciaStorageValidator.sol\":10746:10747  0 */\n      0x00\n        /* \"contracts/generated/PatriciaStorageValidator.sol\":10727:10747  storageKeyValue := 0 */\n      swap10\n      pop\n        /* \"contracts/generated/PatriciaStorageValidator.sol\":10643:10938  switch isSamePath... */\n    tag_337:\n      pop\n        /* \"contracts/generated/PatriciaStorageValidator.sol\":10364:10942  {... */\n      pop\n        /* \"contracts/generated/PatriciaStorageValidator.sol\":10281:10942  switch leafMem... */\n      jump(tag_333)\n        /* \"contracts/generated/PatriciaStorageValidator.sol\":10298:10353  case 0 {... */\n    tag_334:\n        /* \"contracts/generated/PatriciaStorageValidator.sol\":10281:10942  switch leafMem... */\n    tag_333:\n      pop\n        /* \"contracts/generated/PatriciaStorageValidator.sol\":10101:10944  {... */\n      pop\n      pop\n      pop\n      pop\n      pop\n      pop\n        /* \"contracts/generated/PatriciaStorageValidator.sol\":10017:10944  function validateStorageProof (_ptr, _storageKey) -> ptr, rootHash, storageKeyValue {... */\n      swap3\n      pop\n      swap3\n      pop\n      swap3\n      jump\t// out\n        /* \"contracts/generated/PatriciaStorageValidator.sol\":10998:11220  function revertWith (msg) {... */\n    tag_270:\n        /* \"contracts/generated/PatriciaStorageValidator.sol\":11047:11057  0x08c379a0 */\n      0x08c379a0\n        /* \"contracts/generated/PatriciaStorageValidator.sol\":11042:11045  224 */\n      0xe0\n        /* \"contracts/generated/PatriciaStorageValidator.sol\":11038:11058  shl(224, 0x08c379a0) */\n      shl\n        /* \"contracts/generated/PatriciaStorageValidator.sol\":11035:11036  0 */\n      0x00\n        /* \"contracts/generated/PatriciaStorageValidator.sol\":11028:11059  mstore(0, shl(224, 0x08c379a0)) */\n      mstore\n        /* \"contracts/generated/PatriciaStorageValidator.sol\":11072:11074  32 */\n      0x20\n        /* \"contracts/generated/PatriciaStorageValidator.sol\":11069:11070  4 */\n      0x04\n        /* \"contracts/generated/PatriciaStorageValidator.sol\":11062:11075  mstore(4, 32) */\n      mstore\n        /* \"contracts/generated/PatriciaStorageValidator.sol\":11089:11092  msg */\n      dup1\n        /* \"contracts/generated/PatriciaStorageValidator.sol\":11085:11087  68 */\n      0x44\n        /* \"contracts/generated/PatriciaStorageValidator.sol\":11078:11093  mstore(68, msg) */\n      mstore\n        /* \"contracts/generated/PatriciaStorageValidator.sol\":11096:11106  let msgLen */\n      0x00\n        /* \"contracts/generated/PatriciaStorageValidator.sol\":11109:11180  for {} msg {} {... */\n    tag_341:\n        /* \"contracts/generated/PatriciaStorageValidator.sol\":11116:11119  msg */\n      dup2\n        /* \"contracts/generated/PatriciaStorageValidator.sol\":11109:11180  for {} msg {} {... */\n      iszero\n      tag_343\n      jumpi\n        /* \"contracts/generated/PatriciaStorageValidator.sol\":11143:11146  msg */\n      dup2\n        /* \"contracts/generated/PatriciaStorageValidator.sol\":11140:11141  8 */\n      0x08\n        /* \"contracts/generated/PatriciaStorageValidator.sol\":11136:11147  shl(8, msg) */\n      shl\n        /* \"contracts/generated/PatriciaStorageValidator.sol\":11129:11147  msg := shl(8, msg) */\n      swap2\n      pop\n        /* \"contracts/generated/PatriciaStorageValidator.sol\":11174:11175  1 */\n      0x01\n        /* \"contracts/generated/PatriciaStorageValidator.sol\":11166:11172  msgLen */\n      dup2\n        /* \"contracts/generated/PatriciaStorageValidator.sol\":11162:11176  add(msgLen, 1) */\n      add\n        /* \"contracts/generated/PatriciaStorageValidator.sol\":11152:11176  msgLen := add(msgLen, 1) */\n      swap1\n      pop\n        /* \"contracts/generated/PatriciaStorageValidator.sol\":11109:11180  for {} msg {} {... */\n      jump(tag_341)\n    tag_343:\n        /* \"contracts/generated/PatriciaStorageValidator.sol\":11194:11200  msgLen */\n      dup1\n        /* \"contracts/generated/PatriciaStorageValidator.sol\":11190:11192  36 */\n      0x24\n        /* \"contracts/generated/PatriciaStorageValidator.sol\":11183:11201  mstore(36, msgLen) */\n      mstore\n        /* \"contracts/generated/PatriciaStorageValidator.sol\":11214:11217  100 */\n      0x64\n        /* \"contracts/generated/PatriciaStorageValidator.sol\":11211:11212  0 */\n      0x00\n        /* \"contracts/generated/PatriciaStorageValidator.sol\":11204:11218  revert(0, 100) */\n      revert\n        /* \"contracts/generated/PatriciaStorageValidator.sol\":11340:11421  function cmp (a, b, msg) {... */\n    tag_272:\n        /* \"contracts/generated/PatriciaStorageValidator.sol\":11382:11383  b */\n      dup2\n        /* \"contracts/generated/PatriciaStorageValidator.sol\":11379:11380  a */\n      dup2\n        /* \"contracts/generated/PatriciaStorageValidator.sol\":11376:11384  eq(a, b) */\n      eq\n        /* \"contracts/generated/PatriciaStorageValidator.sol\":11392:11393  0 */\n      0x00\n        /* \"contracts/generated/PatriciaStorageValidator.sol\":11387:11419  case 0 {... */\n      dup2\n      sub\n        /* \"contracts/generated/PatriciaStorageValidator.sol\":11369:11419  switch eq(a, b)... */\n      tag_349\n        /* \"contracts/generated/PatriciaStorageValidator.sol\":11387:11419  case 0 {... */\n      jumpi\n        /* \"contracts/generated/PatriciaStorageValidator.sol\":11400:11415  revertWith(msg) */\n      tag_351\n        /* \"contracts/generated/PatriciaStorageValidator.sol\":11411:11414  msg */\n      dup5\n        /* \"contracts/generated/PatriciaStorageValidator.sol\":11400:11415  revertWith(msg) */\n      tag_270\n      jump\t// in\n    tag_351:\n        /* \"contracts/generated/PatriciaStorageValidator.sol\":11369:11419  switch eq(a, b)... */\n    tag_349:\n      pop\n        /* \"contracts/generated/PatriciaStorageValidator.sol\":11340:11421  function cmp (a, b, msg) {... */\n      pop\n      pop\n      pop\n      jump\t// out\n    tag_273:\n        /* \"contracts/generated/PatriciaStorageValidator.sol\":11440:11456  proofData.offset */\n      dup4\n        /* \"contracts/generated/PatriciaStorageValidator.sol\":11497:11534  validateStorageProof(ptr, storageKey) */\n      tag_352\n        /* \"contracts/generated/PatriciaStorageValidator.sol\":11523:11533  storageKey */\n      dup7\n        /* \"contracts/generated/PatriciaStorageValidator.sol\":11518:11521  ptr */\n      dup3\n        /* \"contracts/generated/PatriciaStorageValidator.sol\":11497:11534  validateStorageProof(ptr, storageKey) */\n      tag_269\n      jump\t// in\n    tag_352:\n        /* \"contracts/generated/PatriciaStorageValidator.sol\":11463:11534  ptr, storageRoot, storageValue := validateStorageProof(ptr, storageKey) */\n      swap4\n      pop\n      swap4\n      pop\n      swap1\n      pop\n        /* \"contracts/generated/PatriciaStorageValidator.sol\":11785:11801  proofData.length */\n      dup4\n        /* \"contracts/generated/PatriciaStorageValidator.sol\":11767:11783  proofData.offset */\n      dup6\n        /* \"contracts/generated/PatriciaStorageValidator.sol\":11763:11802  add(proofData.offset, proofData.length) */\n      add\n        /* \"contracts/generated/PatriciaStorageValidator.sol\":11758:11761  ptr */\n      dup2\n        /* \"contracts/generated/PatriciaStorageValidator.sol\":11755:11803  eq(ptr, add(proofData.offset, proofData.length)) */\n      eq\n        /* \"contracts/generated/PatriciaStorageValidator.sol\":11744:11844  if iszero( eq(ptr, add(proofData.offset, proofData.length)) ) {... */\n      tag_353\n      jumpi\n        /* \"contracts/generated/PatriciaStorageValidator.sol\":11816:11836  revertWith('BOUNDS') */\n      tag_354\n        /* \"contracts/generated/PatriciaStorageValidator.sol\":11827:11835  'BOUNDS' */\n      0x424f554e44530000000000000000000000000000000000000000000000000000\n        /* \"contracts/generated/PatriciaStorageValidator.sol\":11816:11836  revertWith('BOUNDS') */\n      tag_270\n      jump\t// in\n    tag_354:\n        /* \"contracts/generated/PatriciaStorageValidator.sol\":11744:11844  if iszero( eq(ptr, add(proofData.offset, proofData.length)) ) {... */\n    tag_353:\n        /* \"contracts/generated/PatriciaStorageValidator.sol\":274:11850  {... */\n      pop\n        /* \"contracts/generated/PatriciaStorageValidator.sol\":95:11854  function _validatePatriciaStorageProof (... */\n      swap4\n      pop\n      swap4\n      swap2\n      pop\n      pop\n      jump\t// out\n        /* \"contracts/ZkEvmMessageDelivererBase.sol\":577:1100  function _deliverMessage (... */\n    tag_83:\n        /* \"contracts/ZkEvmMessageDelivererBase.sol\":784:792  deadline */\n      dup4\n        /* \"contracts/ZkEvmMessageDelivererBase.sol\":766:781  block.timestamp */\n      timestamp\n        /* \"contracts/ZkEvmMessageDelivererBase.sol\":766:792  block.timestamp < deadline */\n      lt\n        /* \"contracts/ZkEvmMessageDelivererBase.sol\":758:800  require(block.timestamp < deadline, 'DMD') */\n      tag_356\n      jumpi\n      mload(0x40)\n      0x08c379a000000000000000000000000000000000000000000000000000000000\n      dup2\n      mstore\n      0x04\n      add\n      tag_357\n      swap1\n      tag_358\n      jump\t// in\n    tag_357:\n      mload(0x40)\n      dup1\n      swap2\n      sub\n      swap1\n      revert\n    tag_356:\n        /* \"contracts/ZkEvmMessageDelivererBase.sol\":807:826  bytes32 messageHash */\n      0x00\n        /* \"contracts/ZkEvmMessageDelivererBase.sol\":850:854  from */\n      dup9\n        /* \"contracts/ZkEvmMessageDelivererBase.sol\":856:858  to */\n      dup9\n        /* \"contracts/ZkEvmMessageDelivererBase.sol\":860:865  value */\n      dup9\n        /* \"contracts/ZkEvmMessageDelivererBase.sol\":867:870  fee */\n      dup9\n        /* \"contracts/ZkEvmMessageDelivererBase.sol\":872:880  deadline */\n      dup9\n        /* \"contracts/ZkEvmMessageDelivererBase.sol\":882:887  nonce */\n      dup9\n        /* \"contracts/ZkEvmMessageDelivererBase.sol\":889:893  data */\n      dup9\n      dup9\n        /* \"contracts/ZkEvmMessageDelivererBase.sol\":839:894  abi.encode(from, to, value, fee, deadline, nonce, data) */\n      add(0x20, mload(0x40))\n      tag_359\n      swap9\n      swap8\n      swap7\n      swap6\n      swap5\n      swap4\n      swap3\n      swap2\n      swap1\n      tag_68\n      jump\t// in\n    tag_359:\n      mload(0x40)\n      0x20\n      dup2\n      dup4\n      sub\n      sub\n      dup2\n      mstore\n      swap1\n      0x40\n      mstore\n        /* \"contracts/ZkEvmMessageDelivererBase.sol\":829:895  keccak256(abi.encode(from, to, value, fee, deadline, nonce, data)) */\n      dup1\n      mload\n      swap1\n      0x20\n      add\n      keccak256\n        /* \"contracts/ZkEvmMessageDelivererBase.sol\":807:895  bytes32 messageHash = keccak256(abi.encode(from, to, value, fee, deadline, nonce, data)) */\n      swap1\n      pop\n        /* \"contracts/ZkEvmMessageDelivererBase.sol\":913:914  0 */\n      0x00\n        /* \"contracts/ZkEvmMessageDelivererBase.sol\":906:909  fee */\n      dup7\n        /* \"contracts/ZkEvmMessageDelivererBase.sol\":906:914  fee != 0 */\n      eq\n        /* \"contracts/ZkEvmMessageDelivererBase.sol\":902:959  if (fee != 0) {... */\n      tag_360\n      jumpi\n        /* \"contracts/ZkEvmMessageDelivererBase.sol\":924:952  _transferETH(tx.origin, fee) */\n      tag_361\n        /* \"contracts/ZkEvmMessageDelivererBase.sol\":937:946  tx.origin */\n      origin\n        /* \"contracts/ZkEvmMessageDelivererBase.sol\":948:951  fee */\n      dup8\n        /* \"contracts/ZkEvmMessageDelivererBase.sol\":924:936  _transferETH */\n      tag_88\n        /* \"contracts/ZkEvmMessageDelivererBase.sol\":924:952  _transferETH(tx.origin, fee) */\n      jump\t// in\n    tag_361:\n        /* \"contracts/ZkEvmMessageDelivererBase.sol\":902:959  if (fee != 0) {... */\n    tag_360:\n        /* \"contracts/ZkEvmMessageDelivererBase.sol\":982:986  from */\n      dup9\n        /* \"contracts/ZkEvmMessageDelivererBase.sol\":965:979  _messageOrigin */\n      0x00\n      dup1\n        /* \"contracts/ZkEvmMessageDelivererBase.sol\":965:986  _messageOrigin = from */\n      0x0100\n      exp\n      dup2\n      sload\n      dup2\n      0xffffffffffffffffffffffffffffffffffffffff\n      mul\n      not\n      and\n      swap1\n      dup4\n      0xffffffffffffffffffffffffffffffffffffffff\n      and\n      mul\n      or\n      swap1\n      sstore\n      pop\n        /* \"contracts/ZkEvmMessageDelivererBase.sol\":992:1021  _callAccount(to, value, data) */\n      tag_362\n        /* \"contracts/ZkEvmMessageDelivererBase.sol\":1005:1007  to */\n      dup9\n        /* \"contracts/ZkEvmMessageDelivererBase.sol\":1009:1014  value */\n      dup9\n        /* \"contracts/ZkEvmMessageDelivererBase.sol\":1016:1020  data */\n      dup6\n      dup6\n        /* \"contracts/ZkEvmMessageDelivererBase.sol\":992:1004  _callAccount */\n      tag_363\n        /* \"contracts/ZkEvmMessageDelivererBase.sol\":992:1021  _callAccount(to, value, data) */\n      jump\t// in\n    tag_362:\n        /* \"contracts/ZkEvmMessageDelivererBase.sol\":1052:1053  0 */\n      0x00\n        /* \"contracts/ZkEvmMessageDelivererBase.sol\":1027:1041  _messageOrigin */\n      dup1\n      0x00\n        /* \"contracts/ZkEvmMessageDelivererBase.sol\":1027:1054  _messageOrigin = address(0) */\n      0x0100\n      exp\n      dup2\n      sload\n      dup2\n      0xffffffffffffffffffffffffffffffffffffffff\n      mul\n      not\n      and\n      swap1\n      dup4\n      0xffffffffffffffffffffffffffffffffffffffff\n      and\n      mul\n      or\n      swap1\n      sstore\n      pop\n        /* \"contracts/ZkEvmMessageDelivererBase.sol\":1066:1095  MessageDelivered(messageHash) */\n      0xfa39010b12e169f2d7e9a76e381216416dbf5eb59db117ae979592ee9f323885\n        /* \"contracts/ZkEvmMessageDelivererBase.sol\":1083:1094  messageHash */\n      dup2\n        /* \"contracts/ZkEvmMessageDelivererBase.sol\":1066:1095  MessageDelivered(messageHash) */\n      mload(0x40)\n      tag_364\n      swap2\n      swap1\n      tag_365\n      jump\t// in\n    tag_364:\n      mload(0x40)\n      dup1\n      swap2\n      sub\n      swap1\n      log1\n        /* \"contracts/ZkEvmMessageDelivererBase.sol\":752:1100  {... */\n      pop\n        /* \"contracts/ZkEvmMessageDelivererBase.sol\":577:1100  function _deliverMessage (... */\n      pop\n      pop\n      pop\n      pop\n      pop\n      pop\n      pop\n      pop\n      jump\t// out\n        /* \"contracts/ZkEvmUtils.sol\":216:375  function _transferETH (address receiver, uint256 amount) internal {... */\n    tag_88:\n        /* \"contracts/ZkEvmUtils.sol\":289:301  bool success */\n      0x00\n        /* \"contracts/ZkEvmUtils.sol\":306:314  receiver */\n      dup3\n        /* \"contracts/ZkEvmUtils.sol\":306:319  receiver.call */\n      0xffffffffffffffffffffffffffffffffffffffff\n      and\n        /* \"contracts/ZkEvmUtils.sol\":328:334  amount */\n      dup3\n        /* \"contracts/ZkEvmUtils.sol\":306:340  receiver.call{ value: amount }(\"\") */\n      mload(0x40)\n      tag_367\n      swap1\n      tag_368\n      jump\t// in\n    tag_367:\n      0x00\n      mload(0x40)\n      dup1\n      dup4\n      sub\n      dup2\n      dup6\n      dup8\n      gas\n      call\n      swap3\n      pop\n      pop\n      pop\n      returndatasize\n      dup1\n      0x00\n      dup2\n      eq\n      tag_371\n      jumpi\n      mload(0x40)\n      swap2\n      pop\n      and(add(returndatasize, 0x3f), not(0x1f))\n      dup3\n      add\n      0x40\n      mstore\n      returndatasize\n      dup3\n      mstore\n      returndatasize\n      0x00\n      0x20\n      dup5\n      add\n      returndatacopy\n      jump(tag_370)\n    tag_371:\n      0x60\n      swap2\n      pop\n    tag_370:\n      pop\n        /* \"contracts/ZkEvmUtils.sol\":288:340  (bool success,) = receiver.call{ value: amount }(\"\") */\n      pop\n      swap1\n      pop\n        /* \"contracts/ZkEvmUtils.sol\":354:361  success */\n      dup1\n        /* \"contracts/ZkEvmUtils.sol\":346:370  require(success, 'TETH') */\n      tag_372\n      jumpi\n      mload(0x40)\n      0x08c379a000000000000000000000000000000000000000000000000000000000\n      dup2\n      mstore\n      0x04\n      add\n      tag_373\n      swap1\n      tag_374\n      jump\t// in\n    tag_373:\n      mload(0x40)\n      dup1\n      swap2\n      sub\n      swap1\n      revert\n    tag_372:\n        /* \"contracts/ZkEvmUtils.sol\":282:375  {... */\n      pop\n        /* \"contracts/ZkEvmUtils.sol\":216:375  function _transferETH (address receiver, uint256 amount) internal {... */\n      pop\n      pop\n      jump\t// out\n        /* \"contracts/ZkEvmUtils.sol\":379:713  function _callAccount (address to, uint256 value, bytes calldata data) internal {... */\n    tag_363:\n        /* \"contracts/ZkEvmUtils.sol\":493:496  128 */\n      0x80\n        /* \"contracts/ZkEvmUtils.sol\":534:545  data.length */\n      dup2\n        /* \"contracts/ZkEvmUtils.sol\":521:532  data.offset */\n      dup4\n        /* \"contracts/ZkEvmUtils.sol\":516:519  ptr */\n      dup3\n        /* \"contracts/ZkEvmUtils.sol\":503:546  calldatacopy(ptr, data.offset, data.length) */\n      calldatacopy\n        /* \"contracts/ZkEvmUtils.sol\":607:608  0 */\n      0x00\n        /* \"contracts/ZkEvmUtils.sol\":604:605  0 */\n      dup1\n        /* \"contracts/ZkEvmUtils.sol\":591:602  data.length */\n      dup4\n        /* \"contracts/ZkEvmUtils.sol\":586:589  ptr */\n      dup4\n        /* \"contracts/ZkEvmUtils.sol\":579:584  value */\n      dup8\n        /* \"contracts/ZkEvmUtils.sol\":575:577  to */\n      dup10\n        /* \"contracts/ZkEvmUtils.sol\":568:573  gas() */\n      gas\n        /* \"contracts/ZkEvmUtils.sol\":563:609  call(gas(), to, value, ptr, data.length, 0, 0) */\n      call\n        /* \"contracts/ZkEvmUtils.sol\":553:703  if iszero(call(gas(), to, value, ptr, data.length, 0, 0)) {... */\n      tag_376\n      jumpi\n        /* \"contracts/ZkEvmUtils.sol\":642:658  returndatasize() */\n      returndatasize\n        /* \"contracts/ZkEvmUtils.sol\":639:640  0 */\n      0x00\n        /* \"contracts/ZkEvmUtils.sol\":636:637  0 */\n      dup1\n        /* \"contracts/ZkEvmUtils.sol\":621:659  returndatacopy(0, 0, returndatasize()) */\n      returndatacopy\n        /* \"contracts/ZkEvmUtils.sol\":678:694  returndatasize() */\n      returndatasize\n        /* \"contracts/ZkEvmUtils.sol\":675:676  0 */\n      0x00\n        /* \"contracts/ZkEvmUtils.sol\":668:695  revert(0, returndatasize()) */\n      revert\n        /* \"contracts/ZkEvmUtils.sol\":553:703  if iszero(call(gas(), to, value, ptr, data.length, 0, 0)) {... */\n    tag_376:\n        /* \"contracts/ZkEvmUtils.sol\":474:709  {... */\n      pop\n        /* \"contracts/ZkEvmUtils.sol\":379:713  function _callAccount (address to, uint256 value, bytes calldata data) internal {... */\n      pop\n      pop\n      pop\n      pop\n      jump\t// out\n        /* \"#utility.yul\":7:176   */\n    tag_377:\n        /* \"#utility.yul\":91:102   */\n      0x00\n        /* \"#utility.yul\":125:131   */\n      dup3\n        /* \"#utility.yul\":120:123   */\n      dup3\n        /* \"#utility.yul\":113:132   */\n      mstore\n        /* \"#utility.yul\":165:169   */\n      0x20\n        /* \"#utility.yul\":160:163   */\n      dup3\n        /* \"#utility.yul\":156:170   */\n      add\n        /* \"#utility.yul\":141:170   */\n      swap1\n      pop\n        /* \"#utility.yul\":7:176   */\n      swap3\n      swap2\n      pop\n      pop\n      jump\t// out\n        /* \"#utility.yul\":182:337   */\n    tag_378:\n        /* \"#utility.yul\":322:329   */\n      0x4d53454453000000000000000000000000000000000000000000000000000000\n        /* \"#utility.yul\":318:319   */\n      0x00\n        /* \"#utility.yul\":310:316   */\n      dup3\n        /* \"#utility.yul\":306:320   */\n      add\n        /* \"#utility.yul\":299:330   */\n      mstore\n        /* \"#utility.yul\":182:337   */\n      pop\n      jump\t// out\n        /* \"#utility.yul\":343:708   */\n    tag_379:\n        /* \"#utility.yul\":485:488   */\n      0x00\n        /* \"#utility.yul\":506:572   */\n      tag_429\n        /* \"#utility.yul\":570:571   */\n      0x05\n        /* \"#utility.yul\":565:568   */\n      dup4\n        /* \"#utility.yul\":506:572   */\n      tag_377\n      jump\t// in\n    tag_429:\n        /* \"#utility.yul\":499:572   */\n      swap2\n      pop\n        /* \"#utility.yul\":581:674   */\n      tag_430\n        /* \"#utility.yul\":670:673   */\n      dup3\n        /* \"#utility.yul\":581:674   */\n      tag_378\n      jump\t// in\n    tag_430:\n        /* \"#utility.yul\":699:701   */\n      0x20\n        /* \"#utility.yul\":694:697   */\n      dup3\n        /* \"#utility.yul\":690:702   */\n      add\n        /* \"#utility.yul\":683:702   */\n      swap1\n      pop\n        /* \"#utility.yul\":343:708   */\n      swap2\n      swap1\n      pop\n      jump\t// out\n        /* \"#utility.yul\":714:1133   */\n    tag_13:\n        /* \"#utility.yul\":880:884   */\n      0x00\n        /* \"#utility.yul\":918:920   */\n      0x20\n        /* \"#utility.yul\":907:916   */\n      dup3\n        /* \"#utility.yul\":903:921   */\n      add\n        /* \"#utility.yul\":895:921   */\n      swap1\n      pop\n        /* \"#utility.yul\":967:976   */\n      dup2\n        /* \"#utility.yul\":961:965   */\n      dup2\n        /* \"#utility.yul\":957:977   */\n      sub\n        /* \"#utility.yul\":953:954   */\n      0x00\n        /* \"#utility.yul\":942:951   */\n      dup4\n        /* \"#utility.yul\":938:955   */\n      add\n        /* \"#utility.yul\":931:978   */\n      mstore\n        /* \"#utility.yul\":995:1126   */\n      tag_432\n        /* \"#utility.yul\":1121:1125   */\n      dup2\n        /* \"#utility.yul\":995:1126   */\n      tag_379\n      jump\t// in\n    tag_432:\n        /* \"#utility.yul\":987:1126   */\n      swap1\n      pop\n        /* \"#utility.yul\":714:1133   */\n      swap2\n      swap1\n      pop\n      jump\t// out\n        /* \"#utility.yul\":1220:1337   */\n    tag_381:\n        /* \"#utility.yul\":1329:1330   */\n      0x00\n        /* \"#utility.yul\":1326:1327   */\n      dup1\n        /* \"#utility.yul\":1319:1331   */\n      revert\n        /* \"#utility.yul\":1343:1460   */\n    tag_382:\n        /* \"#utility.yul\":1452:1453   */\n      0x00\n        /* \"#utility.yul\":1449:1450   */\n      dup1\n        /* \"#utility.yul\":1442:1454   */\n      revert\n        /* \"#utility.yul\":1466:1543   */\n    tag_383:\n        /* \"#utility.yul\":1503:1510   */\n      0x00\n        /* \"#utility.yul\":1532:1537   */\n      dup2\n        /* \"#utility.yul\":1521:1537   */\n      swap1\n      pop\n        /* \"#utility.yul\":1466:1543   */\n      swap2\n      swap1\n      pop\n      jump\t// out\n        /* \"#utility.yul\":1549:1671   */\n    tag_384:\n        /* \"#utility.yul\":1622:1646   */\n      tag_438\n        /* \"#utility.yul\":1640:1645   */\n      dup2\n        /* \"#utility.yul\":1622:1646   */\n      tag_383\n      jump\t// in\n    tag_438:\n        /* \"#utility.yul\":1615:1620   */\n      dup2\n        /* \"#utility.yul\":1612:1647   */\n      eq\n        /* \"#utility.yul\":1602:1665   */\n      tag_439\n      jumpi\n        /* \"#utility.yul\":1661:1662   */\n      0x00\n        /* \"#utility.yul\":1658:1659   */\n      dup1\n        /* \"#utility.yul\":1651:1663   */\n      revert\n        /* \"#utility.yul\":1602:1665   */\n    tag_439:\n        /* \"#utility.yul\":1549:1671   */\n      pop\n      jump\t// out\n        /* \"#utility.yul\":1677:1816   */\n    tag_385:\n        /* \"#utility.yul\":1723:1728   */\n      0x00\n        /* \"#utility.yul\":1761:1767   */\n      dup2\n        /* \"#utility.yul\":1748:1768   */\n      calldataload\n        /* \"#utility.yul\":1739:1768   */\n      swap1\n      pop\n        /* \"#utility.yul\":1777:1810   */\n      tag_441\n        /* \"#utility.yul\":1804:1809   */\n      dup2\n        /* \"#utility.yul\":1777:1810   */\n      tag_384\n      jump\t// in\n    tag_441:\n        /* \"#utility.yul\":1677:1816   */\n      swap3\n      swap2\n      pop\n      pop\n      jump\t// out\n        /* \"#utility.yul\":1822:2151   */\n    tag_17:\n        /* \"#utility.yul\":1881:1887   */\n      0x00\n        /* \"#utility.yul\":1930:1932   */\n      0x20\n        /* \"#utility.yul\":1918:1927   */\n      dup3\n        /* \"#utility.yul\":1909:1916   */\n      dup5\n        /* \"#utility.yul\":1905:1928   */\n      sub\n        /* \"#utility.yul\":1901:1933   */\n      slt\n        /* \"#utility.yul\":1898:2017   */\n      iszero\n      tag_443\n      jumpi\n        /* \"#utility.yul\":1936:2015   */\n      tag_444\n      tag_381\n      jump\t// in\n    tag_444:\n        /* \"#utility.yul\":1898:2017   */\n    tag_443:\n        /* \"#utility.yul\":2056:2057   */\n      0x00\n        /* \"#utility.yul\":2081:2134   */\n      tag_445\n        /* \"#utility.yul\":2126:2133   */\n      dup5\n        /* \"#utility.yul\":2117:2123   */\n      dup3\n        /* \"#utility.yul\":2106:2115   */\n      dup6\n        /* \"#utility.yul\":2102:2124   */\n      add\n        /* \"#utility.yul\":2081:2134   */\n      tag_385\n      jump\t// in\n    tag_445:\n        /* \"#utility.yul\":2071:2134   */\n      swap2\n      pop\n        /* \"#utility.yul\":2027:2144   */\n      pop\n        /* \"#utility.yul\":1822:2151   */\n      swap3\n      swap2\n      pop\n      pop\n      jump\t// out\n        /* \"#utility.yul\":2157:2234   */\n    tag_386:\n        /* \"#utility.yul\":2194:2201   */\n      0x00\n        /* \"#utility.yul\":2223:2228   */\n      dup2\n        /* \"#utility.yul\":2212:2228   */\n      swap1\n      pop\n        /* \"#utility.yul\":2157:2234   */\n      swap2\n      swap1\n      pop\n      jump\t// out\n        /* \"#utility.yul\":2240:2358   */\n    tag_387:\n        /* \"#utility.yul\":2327:2351   */\n      tag_448\n        /* \"#utility.yul\":2345:2350   */\n      dup2\n        /* \"#utility.yul\":2327:2351   */\n      tag_386\n      jump\t// in\n    tag_448:\n        /* \"#utility.yul\":2322:2325   */\n      dup3\n        /* \"#utility.yul\":2315:2352   */\n      mstore\n        /* \"#utility.yul\":2240:2358   */\n      pop\n      pop\n      jump\t// out\n        /* \"#utility.yul\":2364:2586   */\n    tag_20:\n        /* \"#utility.yul\":2457:2461   */\n      0x00\n        /* \"#utility.yul\":2495:2497   */\n      0x20\n        /* \"#utility.yul\":2484:2493   */\n      dup3\n        /* \"#utility.yul\":2480:2498   */\n      add\n        /* \"#utility.yul\":2472:2498   */\n      swap1\n      pop\n        /* \"#utility.yul\":2508:2579   */\n      tag_450\n        /* \"#utility.yul\":2576:2577   */\n      0x00\n        /* \"#utility.yul\":2565:2574   */\n      dup4\n        /* \"#utility.yul\":2561:2578   */\n      add\n        /* \"#utility.yul\":2552:2558   */\n      dup5\n        /* \"#utility.yul\":2508:2579   */\n      tag_387\n      jump\t// in\n    tag_450:\n        /* \"#utility.yul\":2364:2586   */\n      swap3\n      swap2\n      pop\n      pop\n      jump\t// out\n        /* \"#utility.yul\":2592:2718   */\n    tag_388:\n        /* \"#utility.yul\":2629:2636   */\n      0x00\n        /* \"#utility.yul\":2669:2711   */\n      0xffffffffffffffffffffffffffffffffffffffff\n        /* \"#utility.yul\":2662:2667   */\n      dup3\n        /* \"#utility.yul\":2658:2712   */\n      and\n        /* \"#utility.yul\":2647:2712   */\n      swap1\n      pop\n        /* \"#utility.yul\":2592:2718   */\n      swap2\n      swap1\n      pop\n      jump\t// out\n        /* \"#utility.yul\":2724:2820   */\n    tag_389:\n        /* \"#utility.yul\":2761:2768   */\n      0x00\n        /* \"#utility.yul\":2790:2814   */\n      tag_453\n        /* \"#utility.yul\":2808:2813   */\n      dup3\n        /* \"#utility.yul\":2790:2814   */\n      tag_388\n      jump\t// in\n    tag_453:\n        /* \"#utility.yul\":2779:2814   */\n      swap1\n      pop\n        /* \"#utility.yul\":2724:2820   */\n      swap2\n      swap1\n      pop\n      jump\t// out\n        /* \"#utility.yul\":2826:2944   */\n    tag_390:\n        /* \"#utility.yul\":2913:2937   */\n      tag_455\n        /* \"#utility.yul\":2931:2936   */\n      dup2\n        /* \"#utility.yul\":2913:2937   */\n      tag_389\n      jump\t// in\n    tag_455:\n        /* \"#utility.yul\":2908:2911   */\n      dup3\n        /* \"#utility.yul\":2901:2938   */\n      mstore\n        /* \"#utility.yul\":2826:2944   */\n      pop\n      pop\n      jump\t// out\n        /* \"#utility.yul\":2950:3172   */\n    tag_25:\n        /* \"#utility.yul\":3043:3047   */\n      0x00\n        /* \"#utility.yul\":3081:3083   */\n      0x20\n        /* \"#utility.yul\":3070:3079   */\n      dup3\n        /* \"#utility.yul\":3066:3084   */\n      add\n        /* \"#utility.yul\":3058:3084   */\n      swap1\n      pop\n        /* \"#utility.yul\":3094:3165   */\n      tag_457\n        /* \"#utility.yul\":3162:3163   */\n      0x00\n        /* \"#utility.yul\":3151:3160   */\n      dup4\n        /* \"#utility.yul\":3147:3164   */\n      add\n        /* \"#utility.yul\":3138:3144   */\n      dup5\n        /* \"#utility.yul\":3094:3165   */\n      tag_390\n      jump\t// in\n    tag_457:\n        /* \"#utility.yul\":2950:3172   */\n      swap3\n      swap2\n      pop\n      pop\n      jump\t// out\n        /* \"#utility.yul\":3178:3300   */\n    tag_391:\n        /* \"#utility.yul\":3251:3275   */\n      tag_459\n        /* \"#utility.yul\":3269:3274   */\n      dup2\n        /* \"#utility.yul\":3251:3275   */\n      tag_386\n      jump\t// in\n    tag_459:\n        /* \"#utility.yul\":3244:3249   */\n      dup2\n        /* \"#utility.yul\":3241:3276   */\n      eq\n        /* \"#utility.yul\":3231:3294   */\n      tag_460\n      jumpi\n        /* \"#utility.yul\":3290:3291   */\n      0x00\n        /* \"#utility.yul\":3287:3288   */\n      dup1\n        /* \"#utility.yul\":3280:3292   */\n      revert\n        /* \"#utility.yul\":3231:3294   */\n    tag_460:\n        /* \"#utility.yul\":3178:3300   */\n      pop\n      jump\t// out\n        /* \"#utility.yul\":3306:3445   */\n    tag_392:\n        /* \"#utility.yul\":3352:3357   */\n      0x00\n        /* \"#utility.yul\":3390:3396   */\n      dup2\n        /* \"#utility.yul\":3377:3397   */\n      calldataload\n        /* \"#utility.yul\":3368:3397   */\n      swap1\n      pop\n        /* \"#utility.yul\":3406:3439   */\n      tag_462\n        /* \"#utility.yul\":3433:3438   */\n      dup2\n        /* \"#utility.yul\":3406:3439   */\n      tag_391\n      jump\t// in\n    tag_462:\n        /* \"#utility.yul\":3306:3445   */\n      swap3\n      swap2\n      pop\n      pop\n      jump\t// out\n        /* \"#utility.yul\":3451:3925   */\n    tag_29:\n        /* \"#utility.yul\":3519:3525   */\n      0x00\n        /* \"#utility.yul\":3527:3533   */\n      dup1\n        /* \"#utility.yul\":3576:3578   */\n      0x40\n        /* \"#utility.yul\":3564:3573   */\n      dup4\n        /* \"#utility.yul\":3555:3562   */\n      dup6\n        /* \"#utility.yul\":3551:3574   */\n      sub\n        /* \"#utility.yul\":3547:3579   */\n      slt\n        /* \"#utility.yul\":3544:3663   */\n      iszero\n      tag_464\n      jumpi\n        /* \"#utility.yul\":3582:3661   */\n      tag_465\n      tag_381\n      jump\t// in\n    tag_465:\n        /* \"#utility.yul\":3544:3663   */\n    tag_464:\n        /* \"#utility.yul\":3702:3703   */\n      0x00\n        /* \"#utility.yul\":3727:3780   */\n      tag_466\n        /* \"#utility.yul\":3772:3779   */\n      dup6\n        /* \"#utility.yul\":3763:3769   */\n      dup3\n        /* \"#utility.yul\":3752:3761   */\n      dup7\n        /* \"#utility.yul\":3748:3770   */\n      add\n        /* \"#utility.yul\":3727:3780   */\n      tag_392\n      jump\t// in\n    tag_466:\n        /* \"#utility.yul\":3717:3780   */\n      swap3\n      pop\n        /* \"#utility.yul\":3673:3790   */\n      pop\n        /* \"#utility.yul\":3829:3831   */\n      0x20\n        /* \"#utility.yul\":3855:3908   */\n      tag_467\n        /* \"#utility.yul\":3900:3907   */\n      dup6\n        /* \"#utility.yul\":3891:3897   */\n      dup3\n        /* \"#utility.yul\":3880:3889   */\n      dup7\n        /* \"#utility.yul\":3876:3898   */\n      add\n        /* \"#utility.yul\":3855:3908   */\n      tag_385\n      jump\t// in\n    tag_467:\n        /* \"#utility.yul\":3845:3908   */\n      swap2\n      pop\n        /* \"#utility.yul\":3800:3918   */\n      pop\n        /* \"#utility.yul\":3451:3925   */\n      swap3\n      pop\n      swap3\n      swap1\n      pop\n      jump\t// out\n        /* \"#utility.yul\":3931:4048   */\n    tag_393:\n        /* \"#utility.yul\":4040:4041   */\n      0x00\n        /* \"#utility.yul\":4037:4038   */\n      dup1\n        /* \"#utility.yul\":4030:4042   */\n      revert\n        /* \"#utility.yul\":4054:4171   */\n    tag_394:\n        /* \"#utility.yul\":4163:4164   */\n      0x00\n        /* \"#utility.yul\":4160:4161   */\n      dup1\n        /* \"#utility.yul\":4153:4165   */\n      revert\n        /* \"#utility.yul\":4177:4294   */\n    tag_395:\n        /* \"#utility.yul\":4286:4287   */\n      0x00\n        /* \"#utility.yul\":4283:4284   */\n      dup1\n        /* \"#utility.yul\":4276:4288   */\n      revert\n        /* \"#utility.yul\":4313:4865   */\n    tag_396:\n        /* \"#utility.yul\":4370:4378   */\n      0x00\n        /* \"#utility.yul\":4380:4386   */\n      dup1\n        /* \"#utility.yul\":4430:4433   */\n      dup4\n        /* \"#utility.yul\":4423:4427   */\n      0x1f\n        /* \"#utility.yul\":4415:4421   */\n      dup5\n        /* \"#utility.yul\":4411:4428   */\n      add\n        /* \"#utility.yul\":4407:4434   */\n      slt\n        /* \"#utility.yul\":4397:4519   */\n      tag_472\n      jumpi\n        /* \"#utility.yul\":4438:4517   */\n      tag_473\n      tag_393\n      jump\t// in\n    tag_473:\n        /* \"#utility.yul\":4397:4519   */\n    tag_472:\n        /* \"#utility.yul\":4551:4557   */\n      dup3\n        /* \"#utility.yul\":4538:4558   */\n      calldataload\n        /* \"#utility.yul\":4528:4558   */\n      swap1\n      pop\n        /* \"#utility.yul\":4581:4599   */\n      0xffffffffffffffff\n        /* \"#utility.yul\":4573:4579   */\n      dup2\n        /* \"#utility.yul\":4570:4600   */\n      gt\n        /* \"#utility.yul\":4567:4684   */\n      iszero\n      tag_474\n      jumpi\n        /* \"#utility.yul\":4603:4682   */\n      tag_475\n      tag_394\n      jump\t// in\n    tag_475:\n        /* \"#utility.yul\":4567:4684   */\n    tag_474:\n        /* \"#utility.yul\":4717:4721   */\n      0x20\n        /* \"#utility.yul\":4709:4715   */\n      dup4\n        /* \"#utility.yul\":4705:4722   */\n      add\n        /* \"#utility.yul\":4693:4722   */\n      swap2\n      pop\n        /* \"#utility.yul\":4771:4774   */\n      dup4\n        /* \"#utility.yul\":4763:4767   */\n      0x01\n        /* \"#utility.yul\":4755:4761   */\n      dup3\n        /* \"#utility.yul\":4751:4768   */\n      mul\n        /* \"#utility.yul\":4741:4749   */\n      dup4\n        /* \"#utility.yul\":4737:4769   */\n      add\n        /* \"#utility.yul\":4734:4775   */\n      gt\n        /* \"#utility.yul\":4731:4859   */\n      iszero\n      tag_476\n      jumpi\n        /* \"#utility.yul\":4778:4857   */\n      tag_477\n      tag_395\n      jump\t// in\n    tag_477:\n        /* \"#utility.yul\":4731:4859   */\n    tag_476:\n        /* \"#utility.yul\":4313:4865   */\n      swap3\n      pop\n      swap3\n      swap1\n      pop\n      jump\t// out\n        /* \"#utility.yul\":4871:5741   */\n    tag_34:\n        /* \"#utility.yul\":4961:4967   */\n      0x00\n        /* \"#utility.yul\":4969:4975   */\n      dup1\n        /* \"#utility.yul\":4977:4983   */\n      0x00\n        /* \"#utility.yul\":4985:4991   */\n      dup1\n        /* \"#utility.yul\":5034:5036   */\n      0x40\n        /* \"#utility.yul\":5022:5031   */\n      dup6\n        /* \"#utility.yul\":5013:5020   */\n      dup8\n        /* \"#utility.yul\":5009:5032   */\n      sub\n        /* \"#utility.yul\":5005:5037   */\n      slt\n        /* \"#utility.yul\":5002:5121   */\n      iszero\n      tag_479\n      jumpi\n        /* \"#utility.yul\":5040:5119   */\n      tag_480\n      tag_381\n      jump\t// in\n    tag_480:\n        /* \"#utility.yul\":5002:5121   */\n    tag_479:\n        /* \"#utility.yul\":5188:5189   */\n      0x00\n        /* \"#utility.yul\":5177:5186   */\n      dup6\n        /* \"#utility.yul\":5173:5190   */\n      add\n        /* \"#utility.yul\":5160:5191   */\n      calldataload\n        /* \"#utility.yul\":5218:5236   */\n      0xffffffffffffffff\n        /* \"#utility.yul\":5210:5216   */\n      dup2\n        /* \"#utility.yul\":5207:5237   */\n      gt\n        /* \"#utility.yul\":5204:5321   */\n      iszero\n      tag_481\n      jumpi\n        /* \"#utility.yul\":5240:5319   */\n      tag_482\n      tag_382\n      jump\t// in\n    tag_482:\n        /* \"#utility.yul\":5204:5321   */\n    tag_481:\n        /* \"#utility.yul\":5353:5417   */\n      tag_483\n        /* \"#utility.yul\":5409:5416   */\n      dup8\n        /* \"#utility.yul\":5400:5406   */\n      dup3\n        /* \"#utility.yul\":5389:5398   */\n      dup9\n        /* \"#utility.yul\":5385:5407   */\n      add\n        /* \"#utility.yul\":5353:5417   */\n      tag_396\n      jump\t// in\n    tag_483:\n        /* \"#utility.yul\":5335:5417   */\n      swap5\n      pop\n      swap5\n      pop\n        /* \"#utility.yul\":5131:5427   */\n      pop\n        /* \"#utility.yul\":5494:5496   */\n      0x20\n        /* \"#utility.yul\":5483:5492   */\n      dup6\n        /* \"#utility.yul\":5479:5497   */\n      add\n        /* \"#utility.yul\":5466:5498   */\n      calldataload\n        /* \"#utility.yul\":5525:5543   */\n      0xffffffffffffffff\n        /* \"#utility.yul\":5517:5523   */\n      dup2\n        /* \"#utility.yul\":5514:5544   */\n      gt\n        /* \"#utility.yul\":5511:5628   */\n      iszero\n      tag_484\n      jumpi\n        /* \"#utility.yul\":5547:5626   */\n      tag_485\n      tag_382\n      jump\t// in\n    tag_485:\n        /* \"#utility.yul\":5511:5628   */\n    tag_484:\n        /* \"#utility.yul\":5660:5724   */\n      tag_486\n        /* \"#utility.yul\":5716:5723   */\n      dup8\n        /* \"#utility.yul\":5707:5713   */\n      dup3\n        /* \"#utility.yul\":5696:5705   */\n      dup9\n        /* \"#utility.yul\":5692:5714   */\n      add\n        /* \"#utility.yul\":5660:5724   */\n      tag_396\n      jump\t// in\n    tag_486:\n        /* \"#utility.yul\":5642:5724   */\n      swap3\n      pop\n      swap3\n      pop\n        /* \"#utility.yul\":5437:5734   */\n      pop\n        /* \"#utility.yul\":4871:5741   */\n      swap3\n      swap6\n      swap2\n      swap5\n      pop\n      swap3\n      pop\n      jump\t// out\n        /* \"#utility.yul\":5747:5869   */\n    tag_397:\n        /* \"#utility.yul\":5820:5844   */\n      tag_488\n        /* \"#utility.yul\":5838:5843   */\n      dup2\n        /* \"#utility.yul\":5820:5844   */\n      tag_389\n      jump\t// in\n    tag_488:\n        /* \"#utility.yul\":5813:5818   */\n      dup2\n        /* \"#utility.yul\":5810:5845   */\n      eq\n        /* \"#utility.yul\":5800:5863   */\n      tag_489\n      jumpi\n        /* \"#utility.yul\":5859:5860   */\n      0x00\n        /* \"#utility.yul\":5856:5857   */\n      dup1\n        /* \"#utility.yul\":5849:5861   */\n      revert\n        /* \"#utility.yul\":5800:5863   */\n    tag_489:\n        /* \"#utility.yul\":5747:5869   */\n      pop\n      jump\t// out\n        /* \"#utility.yul\":5875:6014   */\n    tag_398:\n        /* \"#utility.yul\":5921:5926   */\n      0x00\n        /* \"#utility.yul\":5959:5965   */\n      dup2\n        /* \"#utility.yul\":5946:5966   */\n      calldataload\n        /* \"#utility.yul\":5937:5966   */\n      swap1\n      pop\n        /* \"#utility.yul\":5975:6008   */\n      tag_491\n        /* \"#utility.yul\":6002:6007   */\n      dup2\n        /* \"#utility.yul\":5975:6008   */\n      tag_397\n      jump\t// in\n    tag_491:\n        /* \"#utility.yul\":5875:6014   */\n      swap3\n      swap2\n      pop\n      pop\n      jump\t// out\n        /* \"#utility.yul\":6020:7765   */\n    tag_39:\n        /* \"#utility.yul\":6164:6170   */\n      0x00\n        /* \"#utility.yul\":6172:6178   */\n      dup1\n        /* \"#utility.yul\":6180:6186   */\n      0x00\n        /* \"#utility.yul\":6188:6194   */\n      dup1\n        /* \"#utility.yul\":6196:6202   */\n      0x00\n        /* \"#utility.yul\":6204:6210   */\n      dup1\n        /* \"#utility.yul\":6212:6218   */\n      0x00\n        /* \"#utility.yul\":6220:6226   */\n      dup1\n        /* \"#utility.yul\":6228:6234   */\n      0x00\n        /* \"#utility.yul\":6236:6242   */\n      dup1\n        /* \"#utility.yul\":6285:6288   */\n      0x0100\n        /* \"#utility.yul\":6273:6282   */\n      dup12\n        /* \"#utility.yul\":6264:6271   */\n      dup14\n        /* \"#utility.yul\":6260:6283   */\n      sub\n        /* \"#utility.yul\":6256:6289   */\n      slt\n        /* \"#utility.yul\":6253:6373   */\n      iszero\n      tag_493\n      jumpi\n        /* \"#utility.yul\":6292:6371   */\n      tag_494\n      tag_381\n      jump\t// in\n    tag_494:\n        /* \"#utility.yul\":6253:6373   */\n    tag_493:\n        /* \"#utility.yul\":6412:6413   */\n      0x00\n        /* \"#utility.yul\":6437:6490   */\n      tag_495\n        /* \"#utility.yul\":6482:6489   */\n      dup14\n        /* \"#utility.yul\":6473:6479   */\n      dup3\n        /* \"#utility.yul\":6462:6471   */\n      dup15\n        /* \"#utility.yul\":6458:6480   */\n      add\n        /* \"#utility.yul\":6437:6490   */\n      tag_398\n      jump\t// in\n    tag_495:\n        /* \"#utility.yul\":6427:6490   */\n      swap11\n      pop\n        /* \"#utility.yul\":6383:6500   */\n      pop\n        /* \"#utility.yul\":6539:6541   */\n      0x20\n        /* \"#utility.yul\":6565:6618   */\n      tag_496\n        /* \"#utility.yul\":6610:6617   */\n      dup14\n        /* \"#utility.yul\":6601:6607   */\n      dup3\n        /* \"#utility.yul\":6590:6599   */\n      dup15\n        /* \"#utility.yul\":6586:6608   */\n      add\n        /* \"#utility.yul\":6565:6618   */\n      tag_398\n      jump\t// in\n    tag_496:\n        /* \"#utility.yul\":6555:6618   */\n      swap10\n      pop\n        /* \"#utility.yul\":6510:6628   */\n      pop\n        /* \"#utility.yul\":6667:6669   */\n      0x40\n        /* \"#utility.yul\":6693:6746   */\n      tag_497\n        /* \"#utility.yul\":6738:6745   */\n      dup14\n        /* \"#utility.yul\":6729:6735   */\n      dup3\n        /* \"#utility.yul\":6718:6727   */\n      dup15\n        /* \"#utility.yul\":6714:6736   */\n      add\n        /* \"#utility.yul\":6693:6746   */\n      tag_392\n      jump\t// in\n    tag_497:\n        /* \"#utility.yul\":6683:6746   */\n      swap9\n      pop\n        /* \"#utility.yul\":6638:6756   */\n      pop\n        /* \"#utility.yul\":6795:6797   */\n      0x60\n        /* \"#utility.yul\":6821:6874   */\n      tag_498\n        /* \"#utility.yul\":6866:6873   */\n      dup14\n        /* \"#utility.yul\":6857:6863   */\n      dup3\n        /* \"#utility.yul\":6846:6855   */\n      dup15\n        /* \"#utility.yul\":6842:6864   */\n      add\n        /* \"#utility.yul\":6821:6874   */\n      tag_392\n      jump\t// in\n    tag_498:\n        /* \"#utility.yul\":6811:6874   */\n      swap8\n      pop\n        /* \"#utility.yul\":6766:6884   */\n      pop\n        /* \"#utility.yul\":6923:6926   */\n      0x80\n        /* \"#utility.yul\":6950:7003   */\n      tag_499\n        /* \"#utility.yul\":6995:7002   */\n      dup14\n        /* \"#utility.yul\":6986:6992   */\n      dup3\n        /* \"#utility.yul\":6975:6984   */\n      dup15\n        /* \"#utility.yul\":6971:6993   */\n      add\n        /* \"#utility.yul\":6950:7003   */\n      tag_392\n      jump\t// in\n    tag_499:\n        /* \"#utility.yul\":6940:7003   */\n      swap7\n      pop\n        /* \"#utility.yul\":6894:7013   */\n      pop\n        /* \"#utility.yul\":7052:7055   */\n      0xa0\n        /* \"#utility.yul\":7079:7132   */\n      tag_500\n        /* \"#utility.yul\":7124:7131   */\n      dup14\n        /* \"#utility.yul\":7115:7121   */\n      dup3\n        /* \"#utility.yul\":7104:7113   */\n      dup15\n        /* \"#utility.yul\":7100:7122   */\n      add\n        /* \"#utility.yul\":7079:7132   */\n      tag_392\n      jump\t// in\n    tag_500:\n        /* \"#utility.yul\":7069:7132   */\n      swap6\n      pop\n        /* \"#utility.yul\":7023:7142   */\n      pop\n        /* \"#utility.yul\":7209:7212   */\n      0xc0\n        /* \"#utility.yul\":7198:7207   */\n      dup12\n        /* \"#utility.yul\":7194:7213   */\n      add\n        /* \"#utility.yul\":7181:7214   */\n      calldataload\n        /* \"#utility.yul\":7241:7259   */\n      0xffffffffffffffff\n        /* \"#utility.yul\":7233:7239   */\n      dup2\n        /* \"#utility.yul\":7230:7260   */\n      gt\n        /* \"#utility.yul\":7227:7344   */\n      iszero\n      tag_501\n      jumpi\n        /* \"#utility.yul\":7263:7342   */\n      tag_502\n      tag_382\n      jump\t// in\n    tag_502:\n        /* \"#utility.yul\":7227:7344   */\n    tag_501:\n        /* \"#utility.yul\":7376:7440   */\n      tag_503\n        /* \"#utility.yul\":7432:7439   */\n      dup14\n        /* \"#utility.yul\":7423:7429   */\n      dup3\n        /* \"#utility.yul\":7412:7421   */\n      dup15\n        /* \"#utility.yul\":7408:7430   */\n      add\n        /* \"#utility.yul\":7376:7440   */\n      tag_396\n      jump\t// in\n    tag_503:\n        /* \"#utility.yul\":7358:7440   */\n      swap5\n      pop\n      swap5\n      pop\n        /* \"#utility.yul\":7152:7450   */\n      pop\n        /* \"#utility.yul\":7517:7520   */\n      0xe0\n        /* \"#utility.yul\":7506:7515   */\n      dup12\n        /* \"#utility.yul\":7502:7521   */\n      add\n        /* \"#utility.yul\":7489:7522   */\n      calldataload\n        /* \"#utility.yul\":7549:7567   */\n      0xffffffffffffffff\n        /* \"#utility.yul\":7541:7547   */\n      dup2\n        /* \"#utility.yul\":7538:7568   */\n      gt\n        /* \"#utility.yul\":7535:7652   */\n      iszero\n      tag_504\n      jumpi\n        /* \"#utility.yul\":7571:7650   */\n      tag_505\n      tag_382\n      jump\t// in\n    tag_505:\n        /* \"#utility.yul\":7535:7652   */\n    tag_504:\n        /* \"#utility.yul\":7684:7748   */\n      tag_506\n        /* \"#utility.yul\":7740:7747   */\n      dup14\n        /* \"#utility.yul\":7731:7737   */\n      dup3\n        /* \"#utility.yul\":7720:7729   */\n      dup15\n        /* \"#utility.yul\":7716:7738   */\n      add\n        /* \"#utility.yul\":7684:7748   */\n      tag_396\n      jump\t// in\n    tag_506:\n        /* \"#utility.yul\":7666:7748   */\n      swap3\n      pop\n      swap3\n      pop\n        /* \"#utility.yul\":7460:7758   */\n      pop\n        /* \"#utility.yul\":6020:7765   */\n      swap3\n      swap6\n      swap9\n      swap12\n      swap2\n      swap5\n      swap8\n      swap11\n      pop\n      swap3\n      swap6\n      swap9\n      pop\n      jump\t// out\n        /* \"#utility.yul\":7771:8100   */\n    tag_44:\n        /* \"#utility.yul\":7830:7836   */\n      0x00\n        /* \"#utility.yul\":7879:7881   */\n      0x20\n        /* \"#utility.yul\":7867:7876   */\n      dup3\n        /* \"#utility.yul\":7858:7865   */\n      dup5\n        /* \"#utility.yul\":7854:7877   */\n      sub\n        /* \"#utility.yul\":7850:7882   */\n      slt\n        /* \"#utility.yul\":7847:7966   */\n      iszero\n      tag_508\n      jumpi\n        /* \"#utility.yul\":7885:7964   */\n      tag_509\n      tag_381\n      jump\t// in\n    tag_509:\n        /* \"#utility.yul\":7847:7966   */\n    tag_508:\n        /* \"#utility.yul\":8005:8006   */\n      0x00\n        /* \"#utility.yul\":8030:8083   */\n      tag_510\n        /* \"#utility.yul\":8075:8082   */\n      dup5\n        /* \"#utility.yul\":8066:8072   */\n      dup3\n        /* \"#utility.yul\":8055:8064   */\n      dup6\n        /* \"#utility.yul\":8051:8073   */\n      add\n        /* \"#utility.yul\":8030:8083   */\n      tag_392\n      jump\t// in\n    tag_510:\n        /* \"#utility.yul\":8020:8083   */\n      swap2\n      pop\n        /* \"#utility.yul\":7976:8093   */\n      pop\n        /* \"#utility.yul\":7771:8100   */\n      swap3\n      swap2\n      pop\n      pop\n      jump\t// out\n        /* \"#utility.yul\":8106:8260   */\n    tag_399:\n        /* \"#utility.yul\":8246:8252   */\n      0x4841534800000000000000000000000000000000000000000000000000000000\n        /* \"#utility.yul\":8242:8243   */\n      0x00\n        /* \"#utility.yul\":8234:8240   */\n      dup3\n        /* \"#utility.yul\":8230:8244   */\n      add\n        /* \"#utility.yul\":8223:8253   */\n      mstore\n        /* \"#utility.yul\":8106:8260   */\n      pop\n      jump\t// out\n        /* \"#utility.yul\":8266:8631   */\n    tag_400:\n        /* \"#utility.yul\":8408:8411   */\n      0x00\n        /* \"#utility.yul\":8429:8495   */\n      tag_513\n        /* \"#utility.yul\":8493:8494   */\n      0x04\n        /* \"#utility.yul\":8488:8491   */\n      dup4\n        /* \"#utility.yul\":8429:8495   */\n      tag_377\n      jump\t// in\n    tag_513:\n        /* \"#utility.yul\":8422:8495   */\n      swap2\n      pop\n        /* \"#utility.yul\":8504:8597   */\n      tag_514\n        /* \"#utility.yul\":8593:8596   */\n      dup3\n        /* \"#utility.yul\":8504:8597   */\n      tag_399\n      jump\t// in\n    tag_514:\n        /* \"#utility.yul\":8622:8624   */\n      0x20\n        /* \"#utility.yul\":8617:8620   */\n      dup3\n        /* \"#utility.yul\":8613:8625   */\n      add\n        /* \"#utility.yul\":8606:8625   */\n      swap1\n      pop\n        /* \"#utility.yul\":8266:8631   */\n      swap2\n      swap1\n      pop\n      jump\t// out\n        /* \"#utility.yul\":8637:9056   */\n    tag_56:\n        /* \"#utility.yul\":8803:8807   */\n      0x00\n        /* \"#utility.yul\":8841:8843   */\n      0x20\n        /* \"#utility.yul\":8830:8839   */\n      dup3\n        /* \"#utility.yul\":8826:8844   */\n      add\n        /* \"#utility.yul\":8818:8844   */\n      swap1\n      pop\n        /* \"#utility.yul\":8890:8899   */\n      dup2\n        /* \"#utility.yul\":8884:8888   */\n      dup2\n        /* \"#utility.yul\":8880:8900   */\n      sub\n        /* \"#utility.yul\":8876:8877   */\n      0x00\n        /* \"#utility.yul\":8865:8874   */\n      dup4\n        /* \"#utility.yul\":8861:8878   */\n      add\n        /* \"#utility.yul\":8854:8901   */\n      mstore\n        /* \"#utility.yul\":8918:9049   */\n      tag_516\n        /* \"#utility.yul\":9044:9048   */\n      dup2\n        /* \"#utility.yul\":8918:9049   */\n      tag_400\n      jump\t// in\n    tag_516:\n        /* \"#utility.yul\":8910:9049   */\n      swap1\n      pop\n        /* \"#utility.yul\":8637:9056   */\n      swap2\n      swap1\n      pop\n      jump\t// out\n        /* \"#utility.yul\":9062:9218   */\n    tag_401:\n        /* \"#utility.yul\":9202:9210   */\n      0x444d524f4f540000000000000000000000000000000000000000000000000000\n        /* \"#utility.yul\":9198:9199   */\n      0x00\n        /* \"#utility.yul\":9190:9196   */\n      dup3\n        /* \"#utility.yul\":9186:9200   */\n      add\n        /* \"#utility.yul\":9179:9211   */\n      mstore\n        /* \"#utility.yul\":9062:9218   */\n      pop\n      jump\t// out\n        /* \"#utility.yul\":9224:9589   */\n    tag_402:\n        /* \"#utility.yul\":9366:9369   */\n      0x00\n        /* \"#utility.yul\":9387:9453   */\n      tag_519\n        /* \"#utility.yul\":9451:9452   */\n      0x06\n        /* \"#utility.yul\":9446:9449   */\n      dup4\n        /* \"#utility.yul\":9387:9453   */\n      tag_377\n      jump\t// in\n    tag_519:\n        /* \"#utility.yul\":9380:9453   */\n      swap2\n      pop\n        /* \"#utility.yul\":9462:9555   */\n      tag_520\n        /* \"#utility.yul\":9551:9554   */\n      dup3\n        /* \"#utility.yul\":9462:9555   */\n      tag_401\n      jump\t// in\n    tag_520:\n        /* \"#utility.yul\":9580:9582   */\n      0x20\n        /* \"#utility.yul\":9575:9578   */\n      dup3\n        /* \"#utility.yul\":9571:9583   */\n      add\n        /* \"#utility.yul\":9564:9583   */\n      swap1\n      pop\n        /* \"#utility.yul\":9224:9589   */\n      swap2\n      swap1\n      pop\n      jump\t// out\n        /* \"#utility.yul\":9595:10014   */\n    tag_61:\n        /* \"#utility.yul\":9761:9765   */\n      0x00\n        /* \"#utility.yul\":9799:9801   */\n      0x20\n        /* \"#utility.yul\":9788:9797   */\n      dup3\n        /* \"#utility.yul\":9784:9802   */\n      add\n        /* \"#utility.yul\":9776:9802   */\n      swap1\n      pop\n        /* \"#utility.yul\":9848:9857   */\n      dup2\n        /* \"#utility.yul\":9842:9846   */\n      dup2\n        /* \"#utility.yul\":9838:9858   */\n      sub\n        /* \"#utility.yul\":9834:9835   */\n      0x00\n        /* \"#utility.yul\":9823:9832   */\n      dup4\n        /* \"#utility.yul\":9819:9836   */\n      add\n        /* \"#utility.yul\":9812:9859   */\n      mstore\n        /* \"#utility.yul\":9876:10007   */\n      tag_522\n        /* \"#utility.yul\":10002:10006   */\n      dup2\n        /* \"#utility.yul\":9876:10007   */\n      tag_402\n      jump\t// in\n    tag_522:\n        /* \"#utility.yul\":9868:10007   */\n      swap1\n      pop\n        /* \"#utility.yul\":9595:10014   */\n      swap2\n      swap1\n      pop\n      jump\t// out\n        /* \"#utility.yul\":10020:10174   */\n    tag_403:\n        /* \"#utility.yul\":10160:10166   */\n      0x544e454400000000000000000000000000000000000000000000000000000000\n        /* \"#utility.yul\":10156:10157   */\n      0x00\n        /* \"#utility.yul\":10148:10154   */\n      dup3\n        /* \"#utility.yul\":10144:10158   */\n      add\n        /* \"#utility.yul\":10137:10167   */\n      mstore\n        /* \"#utility.yul\":10020:10174   */\n      pop\n      jump\t// out\n        /* \"#utility.yul\":10180:10545   */\n    tag_404:\n        /* \"#utility.yul\":10322:10325   */\n      0x00\n        /* \"#utility.yul\":10343:10409   */\n      tag_525\n        /* \"#utility.yul\":10407:10408   */\n      0x04\n        /* \"#utility.yul\":10402:10405   */\n      dup4\n        /* \"#utility.yul\":10343:10409   */\n      tag_377\n      jump\t// in\n    tag_525:\n        /* \"#utility.yul\":10336:10409   */\n      swap2\n      pop\n        /* \"#utility.yul\":10418:10511   */\n      tag_526\n        /* \"#utility.yul\":10507:10510   */\n      dup3\n        /* \"#utility.yul\":10418:10511   */\n      tag_403\n      jump\t// in\n    tag_526:\n        /* \"#utility.yul\":10536:10538   */\n      0x20\n        /* \"#utility.yul\":10531:10534   */\n      dup3\n        /* \"#utility.yul\":10527:10539   */\n      add\n        /* \"#utility.yul\":10520:10539   */\n      swap1\n      pop\n        /* \"#utility.yul\":10180:10545   */\n      swap2\n      swap1\n      pop\n      jump\t// out\n        /* \"#utility.yul\":10551:10970   */\n    tag_66:\n        /* \"#utility.yul\":10717:10721   */\n      0x00\n        /* \"#utility.yul\":10755:10757   */\n      0x20\n        /* \"#utility.yul\":10744:10753   */\n      dup3\n        /* \"#utility.yul\":10740:10758   */\n      add\n        /* \"#utility.yul\":10732:10758   */\n      swap1\n      pop\n        /* \"#utility.yul\":10804:10813   */\n      dup2\n        /* \"#utility.yul\":10798:10802   */\n      dup2\n        /* \"#utility.yul\":10794:10814   */\n      sub\n        /* \"#utility.yul\":10790:10791   */\n      0x00\n        /* \"#utility.yul\":10779:10788   */\n      dup4\n        /* \"#utility.yul\":10775:10792   */\n      add\n        /* \"#utility.yul\":10768:10815   */\n      mstore\n        /* \"#utility.yul\":10832:10963   */\n      tag_528\n        /* \"#utility.yul\":10958:10962   */\n      dup2\n        /* \"#utility.yul\":10832:10963   */\n      tag_404\n      jump\t// in\n    tag_528:\n        /* \"#utility.yul\":10824:10963   */\n      swap1\n      pop\n        /* \"#utility.yul\":10551:10970   */\n      swap2\n      swap1\n      pop\n      jump\t// out\n        /* \"#utility.yul\":10976:11144   */\n    tag_405:\n        /* \"#utility.yul\":11059:11070   */\n      0x00\n        /* \"#utility.yul\":11093:11099   */\n      dup3\n        /* \"#utility.yul\":11088:11091   */\n      dup3\n        /* \"#utility.yul\":11081:11100   */\n      mstore\n        /* \"#utility.yul\":11133:11137   */\n      0x20\n        /* \"#utility.yul\":11128:11131   */\n      dup3\n        /* \"#utility.yul\":11124:11138   */\n      add\n        /* \"#utility.yul\":11109:11138   */\n      swap1\n      pop\n        /* \"#utility.yul\":10976:11144   */\n      swap3\n      swap2\n      pop\n      pop\n      jump\t// out\n        /* \"#utility.yul\":11150:11296   */\n    tag_406:\n        /* \"#utility.yul\":11247:11253   */\n      dup3\n        /* \"#utility.yul\":11242:11245   */\n      dup2\n        /* \"#utility.yul\":11237:11240   */\n      dup4\n        /* \"#utility.yul\":11224:11254   */\n      calldatacopy\n        /* \"#utility.yul\":11288:11289   */\n      0x00\n        /* \"#utility.yul\":11279:11285   */\n      dup4\n        /* \"#utility.yul\":11274:11277   */\n      dup4\n        /* \"#utility.yul\":11270:11286   */\n      add\n        /* \"#utility.yul\":11263:11290   */\n      mstore\n        /* \"#utility.yul\":11150:11296   */\n      pop\n      pop\n      pop\n      jump\t// out\n        /* \"#utility.yul\":11302:11404   */\n    tag_407:\n        /* \"#utility.yul\":11343:11349   */\n      0x00\n        /* \"#utility.yul\":11394:11396   */\n      0x1f\n        /* \"#utility.yul\":11390:11397   */\n      not\n        /* \"#utility.yul\":11385:11387   */\n      0x1f\n        /* \"#utility.yul\":11378:11383   */\n      dup4\n        /* \"#utility.yul\":11374:11388   */\n      add\n        /* \"#utility.yul\":11370:11398   */\n      and\n        /* \"#utility.yul\":11360:11398   */\n      swap1\n      pop\n        /* \"#utility.yul\":11302:11404   */\n      swap2\n      swap1\n      pop\n      jump\t// out\n        /* \"#utility.yul\":11432:11746   */\n    tag_408:\n        /* \"#utility.yul\":11528:11531   */\n      0x00\n        /* \"#utility.yul\":11549:11619   */\n      tag_533\n        /* \"#utility.yul\":11612:11618   */\n      dup4\n        /* \"#utility.yul\":11607:11610   */\n      dup6\n        /* \"#utility.yul\":11549:11619   */\n      tag_405\n      jump\t// in\n    tag_533:\n        /* \"#utility.yul\":11542:11619   */\n      swap4\n      pop\n        /* \"#utility.yul\":11629:11685   */\n      tag_534\n        /* \"#utility.yul\":11678:11684   */\n      dup4\n        /* \"#utility.yul\":11673:11676   */\n      dup6\n        /* \"#utility.yul\":11666:11671   */\n      dup5\n        /* \"#utility.yul\":11629:11685   */\n      tag_406\n      jump\t// in\n    tag_534:\n        /* \"#utility.yul\":11710:11739   */\n      tag_535\n        /* \"#utility.yul\":11732:11738   */\n      dup4\n        /* \"#utility.yul\":11710:11739   */\n      tag_407\n      jump\t// in\n    tag_535:\n        /* \"#utility.yul\":11705:11708   */\n      dup5\n        /* \"#utility.yul\":11701:11740   */\n      add\n        /* \"#utility.yul\":11694:11740   */\n      swap1\n      pop\n        /* \"#utility.yul\":11432:11746   */\n      swap4\n      swap3\n      pop\n      pop\n      pop\n      jump\t// out\n        /* \"#utility.yul\":11752:12745   */\n    tag_68:\n        /* \"#utility.yul\":12041:12045   */\n      0x00\n        /* \"#utility.yul\":12079:12082   */\n      0xe0\n        /* \"#utility.yul\":12068:12077   */\n      dup3\n        /* \"#utility.yul\":12064:12083   */\n      add\n        /* \"#utility.yul\":12056:12083   */\n      swap1\n      pop\n        /* \"#utility.yul\":12093:12164   */\n      tag_537\n        /* \"#utility.yul\":12161:12162   */\n      0x00\n        /* \"#utility.yul\":12150:12159   */\n      dup4\n        /* \"#utility.yul\":12146:12163   */\n      add\n        /* \"#utility.yul\":12137:12143   */\n      dup12\n        /* \"#utility.yul\":12093:12164   */\n      tag_390\n      jump\t// in\n    tag_537:\n        /* \"#utility.yul\":12174:12246   */\n      tag_538\n        /* \"#utility.yul\":12242:12244   */\n      0x20\n        /* \"#utility.yul\":12231:12240   */\n      dup4\n        /* \"#utility.yul\":12227:12245   */\n      add\n        /* \"#utility.yul\":12218:12224   */\n      dup11\n        /* \"#utility.yul\":12174:12246   */\n      tag_390\n      jump\t// in\n    tag_538:\n        /* \"#utility.yul\":12256:12328   */\n      tag_539\n        /* \"#utility.yul\":12324:12326   */\n      0x40\n        /* \"#utility.yul\":12313:12322   */\n      dup4\n        /* \"#utility.yul\":12309:12327   */\n      add\n        /* \"#utility.yul\":12300:12306   */\n      dup10\n        /* \"#utility.yul\":12256:12328   */\n      tag_387\n      jump\t// in\n    tag_539:\n        /* \"#utility.yul\":12338:12410   */\n      tag_540\n        /* \"#utility.yul\":12406:12408   */\n      0x60\n        /* \"#utility.yul\":12395:12404   */\n      dup4\n        /* \"#utility.yul\":12391:12409   */\n      add\n        /* \"#utility.yul\":12382:12388   */\n      dup9\n        /* \"#utility.yul\":12338:12410   */\n      tag_387\n      jump\t// in\n    tag_540:\n        /* \"#utility.yul\":12420:12493   */\n      tag_541\n        /* \"#utility.yul\":12488:12491   */\n      0x80\n        /* \"#utility.yul\":12477:12486   */\n      dup4\n        /* \"#utility.yul\":12473:12492   */\n      add\n        /* \"#utility.yul\":12464:12470   */\n      dup8\n        /* \"#utility.yul\":12420:12493   */\n      tag_387\n      jump\t// in\n    tag_541:\n        /* \"#utility.yul\":12503:12576   */\n      tag_542\n        /* \"#utility.yul\":12571:12574   */\n      0xa0\n        /* \"#utility.yul\":12560:12569   */\n      dup4\n        /* \"#utility.yul\":12556:12575   */\n      add\n        /* \"#utility.yul\":12547:12553   */\n      dup7\n        /* \"#utility.yul\":12503:12576   */\n      tag_387\n      jump\t// in\n    tag_542:\n        /* \"#utility.yul\":12624:12633   */\n      dup2\n        /* \"#utility.yul\":12618:12622   */\n      dup2\n        /* \"#utility.yul\":12614:12634   */\n      sub\n        /* \"#utility.yul\":12608:12611   */\n      0xc0\n        /* \"#utility.yul\":12597:12606   */\n      dup4\n        /* \"#utility.yul\":12593:12612   */\n      add\n        /* \"#utility.yul\":12586:12635   */\n      mstore\n        /* \"#utility.yul\":12652:12738   */\n      tag_543\n        /* \"#utility.yul\":12733:12737   */\n      dup2\n        /* \"#utility.yul\":12724:12730   */\n      dup5\n        /* \"#utility.yul\":12716:12722   */\n      dup7\n        /* \"#utility.yul\":12652:12738   */\n      tag_408\n      jump\t// in\n    tag_543:\n        /* \"#utility.yul\":12644:12738   */\n      swap1\n      pop\n        /* \"#utility.yul\":11752:12745   */\n      swap10\n      swap9\n      pop\n      pop\n      pop\n      pop\n      pop\n      pop\n      pop\n      pop\n      pop\n      jump\t// out\n        /* \"#utility.yul\":12751:12907   */\n    tag_409:\n        /* \"#utility.yul\":12891:12899   */\n      0x5354524f4f540000000000000000000000000000000000000000000000000000\n        /* \"#utility.yul\":12887:12888   */\n      0x00\n        /* \"#utility.yul\":12879:12885   */\n      dup3\n        /* \"#utility.yul\":12875:12889   */\n      add\n        /* \"#utility.yul\":12868:12900   */\n      mstore\n        /* \"#utility.yul\":12751:12907   */\n      pop\n      jump\t// out\n        /* \"#utility.yul\":12913:13278   */\n    tag_410:\n        /* \"#utility.yul\":13055:13058   */\n      0x00\n        /* \"#utility.yul\":13076:13142   */\n      tag_546\n        /* \"#utility.yul\":13140:13141   */\n      0x06\n        /* \"#utility.yul\":13135:13138   */\n      dup4\n        /* \"#utility.yul\":13076:13142   */\n      tag_377\n      jump\t// in\n    tag_546:\n        /* \"#utility.yul\":13069:13142   */\n      swap2\n      pop\n        /* \"#utility.yul\":13151:13244   */\n      tag_547\n        /* \"#utility.yul\":13240:13243   */\n      dup3\n        /* \"#utility.yul\":13151:13244   */\n      tag_409\n      jump\t// in\n    tag_547:\n        /* \"#utility.yul\":13269:13271   */\n      0x20\n        /* \"#utility.yul\":13264:13267   */\n      dup3\n        /* \"#utility.yul\":13260:13272   */\n      add\n        /* \"#utility.yul\":13253:13272   */\n      swap1\n      pop\n        /* \"#utility.yul\":12913:13278   */\n      swap2\n      swap1\n      pop\n      jump\t// out\n        /* \"#utility.yul\":13284:13703   */\n    tag_75:\n        /* \"#utility.yul\":13450:13454   */\n      0x00\n        /* \"#utility.yul\":13488:13490   */\n      0x20\n        /* \"#utility.yul\":13477:13486   */\n      dup3\n        /* \"#utility.yul\":13473:13491   */\n      add\n        /* \"#utility.yul\":13465:13491   */\n      swap1\n      pop\n        /* \"#utility.yul\":13537:13546   */\n      dup2\n        /* \"#utility.yul\":13531:13535   */\n      dup2\n        /* \"#utility.yul\":13527:13547   */\n      sub\n        /* \"#utility.yul\":13523:13524   */\n      0x00\n        /* \"#utility.yul\":13512:13521   */\n      dup4\n        /* \"#utility.yul\":13508:13525   */\n      add\n        /* \"#utility.yul\":13501:13548   */\n      mstore\n        /* \"#utility.yul\":13565:13696   */\n      tag_549\n        /* \"#utility.yul\":13691:13695   */\n      dup2\n        /* \"#utility.yul\":13565:13696   */\n      tag_410\n      jump\t// in\n    tag_549:\n        /* \"#utility.yul\":13557:13696   */\n      swap1\n      pop\n        /* \"#utility.yul\":13284:13703   */\n      swap2\n      swap1\n      pop\n      jump\t// out\n        /* \"#utility.yul\":13709:13863   */\n    tag_411:\n        /* \"#utility.yul\":13849:13855   */\n      0x444d545300000000000000000000000000000000000000000000000000000000\n        /* \"#utility.yul\":13845:13846   */\n      0x00\n        /* \"#utility.yul\":13837:13843   */\n      dup3\n        /* \"#utility.yul\":13833:13847   */\n      add\n        /* \"#utility.yul\":13826:13856   */\n      mstore\n        /* \"#utility.yul\":13709:13863   */\n      pop\n      jump\t// out\n        /* \"#utility.yul\":13869:14234   */\n    tag_412:\n        /* \"#utility.yul\":14011:14014   */\n      0x00\n        /* \"#utility.yul\":14032:14098   */\n      tag_552\n        /* \"#utility.yul\":14096:14097   */\n      0x04\n        /* \"#utility.yul\":14091:14094   */\n      dup4\n        /* \"#utility.yul\":14032:14098   */\n      tag_377\n      jump\t// in\n    tag_552:\n        /* \"#utility.yul\":14025:14098   */\n      swap2\n      pop\n        /* \"#utility.yul\":14107:14200   */\n      tag_553\n        /* \"#utility.yul\":14196:14199   */\n      dup3\n        /* \"#utility.yul\":14107:14200   */\n      tag_411\n      jump\t// in\n    tag_553:\n        /* \"#utility.yul\":14225:14227   */\n      0x20\n        /* \"#utility.yul\":14220:14223   */\n      dup3\n        /* \"#utility.yul\":14216:14228   */\n      add\n        /* \"#utility.yul\":14209:14228   */\n      swap1\n      pop\n        /* \"#utility.yul\":13869:14234   */\n      swap2\n      swap1\n      pop\n      jump\t// out\n        /* \"#utility.yul\":14240:14659   */\n    tag_78:\n        /* \"#utility.yul\":14406:14410   */\n      0x00\n        /* \"#utility.yul\":14444:14446   */\n      0x20\n        /* \"#utility.yul\":14433:14442   */\n      dup3\n        /* \"#utility.yul\":14429:14447   */\n      add\n        /* \"#utility.yul\":14421:14447   */\n      swap1\n      pop\n        /* \"#utility.yul\":14493:14502   */\n      dup2\n        /* \"#utility.yul\":14487:14491   */\n      dup2\n        /* \"#utility.yul\":14483:14503   */\n      sub\n        /* \"#utility.yul\":14479:14480   */\n      0x00\n        /* \"#utility.yul\":14468:14477   */\n      dup4\n        /* \"#utility.yul\":14464:14481   */\n      add\n        /* \"#utility.yul\":14457:14504   */\n      mstore\n        /* \"#utility.yul\":14521:14652   */\n      tag_555\n        /* \"#utility.yul\":14647:14651   */\n      dup2\n        /* \"#utility.yul\":14521:14652   */\n      tag_412\n      jump\t// in\n    tag_555:\n        /* \"#utility.yul\":14513:14652   */\n      swap1\n      pop\n        /* \"#utility.yul\":14240:14659   */\n      swap2\n      swap1\n      pop\n      jump\t// out\n        /* \"#utility.yul\":14665:14820   */\n    tag_413:\n        /* \"#utility.yul\":14805:14812   */\n      0x444d56414c000000000000000000000000000000000000000000000000000000\n        /* \"#utility.yul\":14801:14802   */\n      0x00\n        /* \"#utility.yul\":14793:14799   */\n      dup3\n        /* \"#utility.yul\":14789:14803   */\n      add\n        /* \"#utility.yul\":14782:14813   */\n      mstore\n        /* \"#utility.yul\":14665:14820   */\n      pop\n      jump\t// out\n        /* \"#utility.yul\":14826:15191   */\n    tag_414:\n        /* \"#utility.yul\":14968:14971   */\n      0x00\n        /* \"#utility.yul\":14989:15055   */\n      tag_558\n        /* \"#utility.yul\":15053:15054   */\n      0x05\n        /* \"#utility.yul\":15048:15051   */\n      dup4\n        /* \"#utility.yul\":14989:15055   */\n      tag_377\n      jump\t// in\n    tag_558:\n        /* \"#utility.yul\":14982:15055   */\n      swap2\n      pop\n        /* \"#utility.yul\":15064:15157   */\n      tag_559\n        /* \"#utility.yul\":15153:15156   */\n      dup3\n        /* \"#utility.yul\":15064:15157   */\n      tag_413\n      jump\t// in\n    tag_559:\n        /* \"#utility.yul\":15182:15184   */\n      0x20\n        /* \"#utility.yul\":15177:15180   */\n      dup3\n        /* \"#utility.yul\":15173:15185   */\n      add\n        /* \"#utility.yul\":15166:15185   */\n      swap1\n      pop\n        /* \"#utility.yul\":14826:15191   */\n      swap2\n      swap1\n      pop\n      jump\t// out\n        /* \"#utility.yul\":15197:15616   */\n    tag_81:\n        /* \"#utility.yul\":15363:15367   */\n      0x00\n        /* \"#utility.yul\":15401:15403   */\n      0x20\n        /* \"#utility.yul\":15390:15399   */\n      dup3\n        /* \"#utility.yul\":15386:15404   */\n      add\n        /* \"#utility.yul\":15378:15404   */\n      swap1\n      pop\n        /* \"#utility.yul\":15450:15459   */\n      dup2\n        /* \"#utility.yul\":15444:15448   */\n      dup2\n        /* \"#utility.yul\":15440:15460   */\n      sub\n        /* \"#utility.yul\":15436:15437   */\n      0x00\n        /* \"#utility.yul\":15425:15434   */\n      dup4\n        /* \"#utility.yul\":15421:15438   */\n      add\n        /* \"#utility.yul\":15414:15461   */\n      mstore\n        /* \"#utility.yul\":15478:15609   */\n      tag_561\n        /* \"#utility.yul\":15604:15608   */\n      dup2\n        /* \"#utility.yul\":15478:15609   */\n      tag_414\n      jump\t// in\n    tag_561:\n        /* \"#utility.yul\":15470:15609   */\n      swap1\n      pop\n        /* \"#utility.yul\":15197:15616   */\n      swap2\n      swap1\n      pop\n      jump\t// out\n        /* \"#utility.yul\":15622:15775   */\n    tag_415:\n        /* \"#utility.yul\":15762:15767   */\n      0x454f410000000000000000000000000000000000000000000000000000000000\n        /* \"#utility.yul\":15758:15759   */\n      0x00\n        /* \"#utility.yul\":15750:15756   */\n      dup3\n        /* \"#utility.yul\":15746:15760   */\n      add\n        /* \"#utility.yul\":15739:15768   */\n      mstore\n        /* \"#utility.yul\":15622:15775   */\n      pop\n      jump\t// out\n        /* \"#utility.yul\":15781:16146   */\n    tag_416:\n        /* \"#utility.yul\":15923:15926   */\n      0x00\n        /* \"#utility.yul\":15944:16010   */\n      tag_564\n        /* \"#utility.yul\":16008:16009   */\n      0x03\n        /* \"#utility.yul\":16003:16006   */\n      dup4\n        /* \"#utility.yul\":15944:16010   */\n      tag_377\n      jump\t// in\n    tag_564:\n        /* \"#utility.yul\":15937:16010   */\n      swap2\n      pop\n        /* \"#utility.yul\":16019:16112   */\n      tag_565\n        /* \"#utility.yul\":16108:16111   */\n      dup3\n        /* \"#utility.yul\":16019:16112   */\n      tag_415\n      jump\t// in\n    tag_565:\n        /* \"#utility.yul\":16137:16139   */\n      0x20\n        /* \"#utility.yul\":16132:16135   */\n      dup3\n        /* \"#utility.yul\":16128:16140   */\n      add\n        /* \"#utility.yul\":16121:16140   */\n      swap1\n      pop\n        /* \"#utility.yul\":15781:16146   */\n      swap2\n      swap1\n      pop\n      jump\t// out\n        /* \"#utility.yul\":16152:16571   */\n    tag_92:\n        /* \"#utility.yul\":16318:16322   */\n      0x00\n        /* \"#utility.yul\":16356:16358   */\n      0x20\n        /* \"#utility.yul\":16345:16354   */\n      dup3\n        /* \"#utility.yul\":16341:16359   */\n      add\n        /* \"#utility.yul\":16333:16359   */\n      swap1\n      pop\n        /* \"#utility.yul\":16405:16414   */\n      dup2\n        /* \"#utility.yul\":16399:16403   */\n      dup2\n        /* \"#utility.yul\":16395:16415   */\n      sub\n        /* \"#utility.yul\":16391:16392   */\n      0x00\n        /* \"#utility.yul\":16380:16389   */\n      dup4\n        /* \"#utility.yul\":16376:16393   */\n      add\n        /* \"#utility.yul\":16369:16416   */\n      mstore\n        /* \"#utility.yul\":16433:16564   */\n      tag_567\n        /* \"#utility.yul\":16559:16563   */\n      dup2\n        /* \"#utility.yul\":16433:16564   */\n      tag_416\n      jump\t// in\n    tag_567:\n        /* \"#utility.yul\":16425:16564   */\n      swap1\n      pop\n        /* \"#utility.yul\":16152:16571   */\n      swap2\n      swap1\n      pop\n      jump\t// out\n        /* \"#utility.yul\":16577:16730   */\n    tag_417:\n        /* \"#utility.yul\":16717:16722   */\n      0x444d440000000000000000000000000000000000000000000000000000000000\n        /* \"#utility.yul\":16713:16714   */\n      0x00\n        /* \"#utility.yul\":16705:16711   */\n      dup3\n        /* \"#utility.yul\":16701:16715   */\n      add\n        /* \"#utility.yul\":16694:16723   */\n      mstore\n        /* \"#utility.yul\":16577:16730   */\n      pop\n      jump\t// out\n        /* \"#utility.yul\":16736:17101   */\n    tag_418:\n        /* \"#utility.yul\":16878:16881   */\n      0x00\n        /* \"#utility.yul\":16899:16965   */\n      tag_570\n        /* \"#utility.yul\":16963:16964   */\n      0x03\n        /* \"#utility.yul\":16958:16961   */\n      dup4\n        /* \"#utility.yul\":16899:16965   */\n      tag_377\n      jump\t// in\n    tag_570:\n        /* \"#utility.yul\":16892:16965   */\n      swap2\n      pop\n        /* \"#utility.yul\":16974:17067   */\n      tag_571\n        /* \"#utility.yul\":17063:17066   */\n      dup3\n        /* \"#utility.yul\":16974:17067   */\n      tag_417\n      jump\t// in\n    tag_571:\n        /* \"#utility.yul\":17092:17094   */\n      0x20\n        /* \"#utility.yul\":17087:17090   */\n      dup3\n        /* \"#utility.yul\":17083:17095   */\n      add\n        /* \"#utility.yul\":17076:17095   */\n      swap1\n      pop\n        /* \"#utility.yul\":16736:17101   */\n      swap2\n      swap1\n      pop\n      jump\t// out\n        /* \"#utility.yul\":17107:17526   */\n    tag_358:\n        /* \"#utility.yul\":17273:17277   */\n      0x00\n        /* \"#utility.yul\":17311:17313   */\n      0x20\n        /* \"#utility.yul\":17300:17309   */\n      dup3\n        /* \"#utility.yul\":17296:17314   */\n      add\n        /* \"#utility.yul\":17288:17314   */\n      swap1\n      pop\n        /* \"#utility.yul\":17360:17369   */\n      dup2\n        /* \"#utility.yul\":17354:17358   */\n      dup2\n        /* \"#utility.yul\":17350:17370   */\n      sub\n        /* \"#utility.yul\":17346:17347   */\n      0x00\n        /* \"#utility.yul\":17335:17344   */\n      dup4\n        /* \"#utility.yul\":17331:17348   */\n      add\n        /* \"#utility.yul\":17324:17371   */\n      mstore\n        /* \"#utility.yul\":17388:17519   */\n      tag_573\n        /* \"#utility.yul\":17514:17518   */\n      dup2\n        /* \"#utility.yul\":17388:17519   */\n      tag_418\n      jump\t// in\n    tag_573:\n        /* \"#utility.yul\":17380:17519   */\n      swap1\n      pop\n        /* \"#utility.yul\":17107:17526   */\n      swap2\n      swap1\n      pop\n      jump\t// out\n        /* \"#utility.yul\":17532:17650   */\n    tag_419:\n        /* \"#utility.yul\":17619:17643   */\n      tag_575\n        /* \"#utility.yul\":17637:17642   */\n      dup2\n        /* \"#utility.yul\":17619:17643   */\n      tag_383\n      jump\t// in\n    tag_575:\n        /* \"#utility.yul\":17614:17617   */\n      dup3\n        /* \"#utility.yul\":17607:17644   */\n      mstore\n        /* \"#utility.yul\":17532:17650   */\n      pop\n      pop\n      jump\t// out\n        /* \"#utility.yul\":17656:17878   */\n    tag_365:\n        /* \"#utility.yul\":17749:17753   */\n      0x00\n        /* \"#utility.yul\":17787:17789   */\n      0x20\n        /* \"#utility.yul\":17776:17785   */\n      dup3\n        /* \"#utility.yul\":17772:17790   */\n      add\n        /* \"#utility.yul\":17764:17790   */\n      swap1\n      pop\n        /* \"#utility.yul\":17800:17871   */\n      tag_577\n        /* \"#utility.yul\":17868:17869   */\n      0x00\n        /* \"#utility.yul\":17857:17866   */\n      dup4\n        /* \"#utility.yul\":17853:17870   */\n      add\n        /* \"#utility.yul\":17844:17850   */\n      dup5\n        /* \"#utility.yul\":17800:17871   */\n      tag_419\n      jump\t// in\n    tag_577:\n        /* \"#utility.yul\":17656:17878   */\n      swap3\n      swap2\n      pop\n      pop\n      jump\t// out\n        /* \"#utility.yul\":17884:18031   */\n    tag_420:\n        /* \"#utility.yul\":17985:17996   */\n      0x00\n        /* \"#utility.yul\":18022:18025   */\n      dup2\n        /* \"#utility.yul\":18007:18025   */\n      swap1\n      pop\n        /* \"#utility.yul\":17884:18031   */\n      swap3\n      swap2\n      pop\n      pop\n      jump\t// out\n        /* \"#utility.yul\":18037:18151   */\n    tag_421:\n      pop\n      jump\t// out\n        /* \"#utility.yul\":18157:18555   */\n    tag_422:\n        /* \"#utility.yul\":18316:18319   */\n      0x00\n        /* \"#utility.yul\":18337:18420   */\n      tag_581\n        /* \"#utility.yul\":18418:18419   */\n      0x00\n        /* \"#utility.yul\":18413:18416   */\n      dup4\n        /* \"#utility.yul\":18337:18420   */\n      tag_420\n      jump\t// in\n    tag_581:\n        /* \"#utility.yul\":18330:18420   */\n      swap2\n      pop\n        /* \"#utility.yul\":18429:18522   */\n      tag_582\n        /* \"#utility.yul\":18518:18521   */\n      dup3\n        /* \"#utility.yul\":18429:18522   */\n      tag_421\n      jump\t// in\n    tag_582:\n        /* \"#utility.yul\":18547:18548   */\n      0x00\n        /* \"#utility.yul\":18542:18545   */\n      dup3\n        /* \"#utility.yul\":18538:18549   */\n      add\n        /* \"#utility.yul\":18531:18549   */\n      swap1\n      pop\n        /* \"#utility.yul\":18157:18555   */\n      swap2\n      swap1\n      pop\n      jump\t// out\n        /* \"#utility.yul\":18561:18940   */\n    tag_368:\n        /* \"#utility.yul\":18745:18748   */\n      0x00\n        /* \"#utility.yul\":18767:18914   */\n      tag_584\n        /* \"#utility.yul\":18910:18913   */\n      dup3\n        /* \"#utility.yul\":18767:18914   */\n      tag_422\n      jump\t// in\n    tag_584:\n        /* \"#utility.yul\":18760:18914   */\n      swap2\n      pop\n        /* \"#utility.yul\":18931:18934   */\n      dup2\n        /* \"#utility.yul\":18924:18934   */\n      swap1\n      pop\n        /* \"#utility.yul\":18561:18940   */\n      swap2\n      swap1\n      pop\n      jump\t// out\n        /* \"#utility.yul\":18946:19100   */\n    tag_423:\n        /* \"#utility.yul\":19086:19092   */\n      0x5445544800000000000000000000000000000000000000000000000000000000\n        /* \"#utility.yul\":19082:19083   */\n      0x00\n        /* \"#utility.yul\":19074:19080   */\n      dup3\n        /* \"#utility.yul\":19070:19084   */\n      add\n        /* \"#utility.yul\":19063:19093   */\n      mstore\n        /* \"#utility.yul\":18946:19100   */\n      pop\n      jump\t// out\n        /* \"#utility.yul\":19106:19471   */\n    tag_424:\n        /* \"#utility.yul\":19248:19251   */\n      0x00\n        /* \"#utility.yul\":19269:19335   */\n      tag_587\n        /* \"#utility.yul\":19333:19334   */\n      0x04\n        /* \"#utility.yul\":19328:19331   */\n      dup4\n        /* \"#utility.yul\":19269:19335   */\n      tag_377\n      jump\t// in\n    tag_587:\n        /* \"#utility.yul\":19262:19335   */\n      swap2\n      pop\n        /* \"#utility.yul\":19344:19437   */\n      tag_588\n        /* \"#utility.yul\":19433:19436   */\n      dup3\n        /* \"#utility.yul\":19344:19437   */\n      tag_423\n      jump\t// in\n    tag_588:\n        /* \"#utility.yul\":19462:19464   */\n      0x20\n        /* \"#utility.yul\":19457:19460   */\n      dup3\n        /* \"#utility.yul\":19453:19465   */\n      add\n        /* \"#utility.yul\":19446:19465   */\n      swap1\n      pop\n        /* \"#utility.yul\":19106:19471   */\n      swap2\n      swap1\n      pop\n      jump\t// out\n        /* \"#utility.yul\":19477:19896   */\n    tag_374:\n        /* \"#utility.yul\":19643:19647   */\n      0x00\n        /* \"#utility.yul\":19681:19683   */\n      0x20\n        /* \"#utility.yul\":19670:19679   */\n      dup3\n        /* \"#utility.yul\":19666:19684   */\n      add\n        /* \"#utility.yul\":19658:19684   */\n      swap1\n      pop\n        /* \"#utility.yul\":19730:19739   */\n      dup2\n        /* \"#utility.yul\":19724:19728   */\n      dup2\n        /* \"#utility.yul\":19720:19740   */\n      sub\n        /* \"#utility.yul\":19716:19717   */\n      0x00\n        /* \"#utility.yul\":19705:19714   */\n      dup4\n        /* \"#utility.yul\":19701:19718   */\n      add\n        /* \"#utility.yul\":19694:19741   */\n      mstore\n        /* \"#utility.yul\":19758:19889   */\n      tag_590\n        /* \"#utility.yul\":19884:19888   */\n      dup2\n        /* \"#utility.yul\":19758:19889   */\n      tag_424\n      jump\t// in\n    tag_590:\n        /* \"#utility.yul\":19750:19889   */\n      swap1\n      pop\n        /* \"#utility.yul\":19477:19896   */\n      swap2\n      swap1\n      pop\n      jump\t// out\n\n    auxdata: 0xa2646970667358221220ae173640f9aa194281412ddca117d1050d5d4b1aaf7a7de154e7c9fe1c0934ba64736f6c63430008100033\n}\n",
				"bytecode": {
					"linkReferences": {},
					"object": "608060405234801561001057600080fd5b50611f11806100206000396000f3fe6080604052600436106100595760003560e01c8063312faf74146100d65780633b1623fe1461011357806349a435e21461013e5780636e94aac5146101675780638dfbfead14610190578063fcd5e7b3146101b9576100d1565b366100d1576202000073ffffffffffffffffffffffffffffffffffffffff163373ffffffffffffffffffffffffffffffffffffffff16146100cf576040517f08c379a00000000000000000000000000000000000000000000000000000000081526004016100c69061160a565b60405180910390fd5b005b600080fd5b3480156100e257600080fd5b506100fd60048036038101906100f8919061166a565b6101e2565b60405161010a91906116b0565b60405180910390f35b34801561011f57600080fd5b506101286101ff565b604051610135919061170c565b60405180910390f35b34801561014a57600080fd5b5061016560048036038101906101609190611753565b610228565b005b34801561017357600080fd5b5061018e600480360381019061018991906117f8565b61023b565b005b34801561019c57600080fd5b506101b760048036038101906101b291906118a5565b610358565b005b3480156101c557600080fd5b506101e060048036038101906101db919061199c565b61051f565b005b600060026000838152602001908152602001600020549050919050565b60008060009054906101000a900473ffffffffffffffffffffffffffffffffffffffff16905090565b61023061059d565b806001819055505050565b600080600061024a878761060d565b9250925092506001548314610294576040517f08c379a000000000000000000000000000000000000000000000000000000000815260040161028b90611a15565b60405180910390fd5b6000806102b673936a70c0b28532aa22240dce21f89a8399d6ac6088886108b9565b915091508382146102fc576040517f08c379a00000000000000000000000000000000000000000000000000000000081526004016102f390611a81565b60405180910390fd5b82600260008381526020019081526020016000208190555083857f9d70f54d5d379e4b92c497936411380303c56bfb08caed66b62c94380ad153db8560405161034591906116b0565b60405180910390a3505050505050505050565b6202000073ffffffffffffffffffffffffffffffffffffffff168973ffffffffffffffffffffffffffffffffffffffff16036103c9576040517f08c379a00000000000000000000000000000000000000000000000000000000081526004016103c090611aed565b60405180910390fd5b60008a8a8a8a8a8a8a8a6040516020016103ea989796959493929190611b6b565b60405160208183030381529060405280519060200120905060008061041861041184610e46565b8686610e60565b9150915060006002600084815260200190815260200160002054905060008103610477576040517f08c379a000000000000000000000000000000000000000000000000000000000815260040161046e90611c2f565b60405180910390fd5b8981106104b9576040517f08c379a00000000000000000000000000000000000000000000000000000000081526004016104b090611c9b565b60405180910390fd5b600160001b82146104ff576040517f08c379a00000000000000000000000000000000000000000000000000000000081526004016104f690611d07565b60405180910390fd5b61050f8e8e8e8e8e8e8e8e61137b565b5050505050505050505050505050565b6202000073ffffffffffffffffffffffffffffffffffffffff163373ffffffffffffffffffffffffffffffffffffffff1614610590576040517f08c379a00000000000000000000000000000000000000000000000000000000081526004016105879061160a565b60405180910390fd5b61059a33826114d8565b50565b3373ffffffffffffffffffffffffffffffffffffffff163273ffffffffffffffffffffffffffffffffffffffff161461060b576040517f08c379a000000000000000000000000000000000000000000000000000000000815260040161060290611d73565b60405180910390fd5b565b6000806000610823565b6308c379a060e01b60005260206004528060445260005b8115610645578160081b915060018101905061062e565b8060245260646000fd5b600080823560001a60f88110156106725760bf81039250600184019150506106ab565b60f78103600481111561068157fe5b6001850192508235600882026101000381811c915082820195506001860195508285019450505050505b915091565b6000806000833560001a60808110156106d457600193508492506001915050610758565b60b88110156106f3576080810393506001850192506001915050610758565b60c08110156107355760b78103600481111561070b57fe5b6001860193508335600882026101000381811c915081965082860195506001945050505050610758565b60f881101561074a5760018501925050610758565b60f781039350600185019250505b9193909250565b60008060008084935060405192506107768461064f565b818686378185209250848287018297505b808810156107bc57610798886106b0565b8183019a5080156107b457818360801b17808652602086019550505b505050610787565b8088146107c557fe5b6020878303049550505050509193509193565b60008260200282015162ffffff81168160801c601f8111156108085760208103820191508135935050505061081d565b600881602003028235945084811c9450505050505b92915050565b61082c8561075f565b878901841461085f5761085e7f424f554e44530000000000000000000000000000000000000000000000000000610617565b5b60108214610891576108907f4954454d53000000000000000000000000000000000000000000000000000000610617565b5b80965061089f6003846107d8565b95506108ac600b846107d8565b9450505050509250925092565b600080610df9565b600080823560001a60f88110156108e45760bf810392506001840191505061091d565b60f7810360048111156108f357fe5b6001850192508235600882026101000381811c915082820195506001860195508285019450505050505b915091565b6000806000833560001a6080811015610946576001935084925060019150506109ca565b60b88110156109655760808103935060018501925060019150506109ca565b60c08110156109a75760b78103600481111561097d57fe5b6001860193508335600882026101000381811c9150819650828601955060019450505050506109ca565b60f88110156109bc57600185019250506109ca565b60f781039350600185019250505b9193909250565b60008060008084935060405192506109e8846108c1565b818686378185209250848287018297505b80881015610a2e57610a0a88610922565b8183019a508015610a2657818360801b17808652602086019550505b5050506109f9565b808814610a3757fe5b6020878303049550505050509193509193565b6000816000526014600c209050919050565b60008190506004830260001980821c905080831692505060206002850615610a8357600390505b8161010003915080821b90508281179250505092915050565b60008260200282015162ffffff81168160801c601f811115610acc57602081038201915081359350505050610ae1565b600881602003028235945084811c9450505050505b92915050565b6000808360200283015162ffffff81168160801c9250601f831115610b19576020830381019050803593505050610b2d565b600883602003028135945084811c94505050505b9250929050565b6000808360200283015162ffffff811692508060801c9150509250929050565b6000806000806000869450843560001a6001860195506000805b82811015610c7c576000806000610b848b6109d1565b9350935093509a508360008114610bc557610bc07f54484153480000000000000000000000000000000000000000000000000000008b84610dde565b610bc9565b819a505b508160028114610c095760118114610c4857610c047f4e4f444500000000000000000000000000000000000000000000000000000000610d8e565b610c6d565b600080610c17600187610ae7565b91509150819b5060018903871460008114610c3457869a50610c40565b865160801c808a019950505b505050610c6d565b6004860260fc03600f8e821c16610c5f8187610ae7565b819d5060018a019950505050505b50505050600181019050610b6e565b50610c878189610a5c565b935050509295509295909350565b6000806000839250600080600080600080610caf8b610a4a565b610cb98a82610b54565b95509850945099509950610ced7f41434c454146000000000000000000000000000000000000000000000000000083610dc6565b610cf8600083610a9c565b9650610d257f4143524f4f5400000000000000000000000000000000000000000000000000008888610dde565b610d30600183610b34565b6000610d3b836109d1565b9a50925095509250610d707f41434c4541464e0000000000000000000000000000000000000000000000000060048314610dc6565b610d7b600286610a9c565b9a50505050505050505050509250925092565b6308c379a060e01b60005260206004528060445260005b8115610dbc578160081b9150600181019050610da5565b8060245260646000fd5b8060008103610dd957610dd883610d8e565b5b505050565b81811460008103610df357610df284610d8e565b5b50505050565b83610e048682610c95565b9350935090508385018114610e3d57610e3c7f424f554e44530000000000000000000000000000000000000000000000000000610d8e565b5b50935093915050565b60006331df76a46000528160205260406000209050919050565b60008061132e565b600081905060808210610e975760208311610e97576008830260088103905060ff811b80199050808316925050505b92915050565b600080823560001a60f8811015610ec05760bf8103925060018401915050610ef9565b60f781036004811115610ecf57fe5b6001850192508235600882026101000381811c915082820195506001860195508285019450505050505b915091565b6000806000833560001a6080811015610f2257600193508492506001915050610fa6565b60b8811015610f41576080810393506001850192506001915050610fa6565b60c0811015610f835760b781036004811115610f5957fe5b6001860193508335600882026101000381811c915081965082860195506001945050505050610fa6565b60f8811015610f985760018501925050610fa6565b60f781039350600185019250505b9193909250565b6000806000808493506040519250610fc484610e9d565b818686378185209250848287018297505b8088101561100a57610fe688610efe565b8183019a50801561100257818360801b17808652602086019550505b505050610fd5565b80881461101357fe5b6020878303049550505050509193509193565b60008160005260206000209050919050565b60008190506004830260001980821c90508083169250506020600285061561105f57600390505b8161010003915080821b90508281179250505092915050565b60008260200282015162ffffff81168160801c601f8111156110a8576020810382019150813593505050506110bd565b600881602003028235945084811c9450505050505b92915050565b6000808360200283015162ffffff81168160801c9250601f8311156110f5576020830381019050803593505050611109565b600883602003028135945084811c94505050505b9250929050565b6000806000806000869450843560001a6001860195506000805b828110156112385760008060006111408b610fad565b9350935093509a5083600081146111815761117c7f54484153480000000000000000000000000000000000000000000000000000008b84611313565b611185565b819a505b5081600281146111c55760118114611204576111c07f4e4f4445000000000000000000000000000000000000000000000000000000006112db565b611229565b6000806111d36001876110c3565b91509150819b50600189038714600081146111f057869a506111fc565b865160801c808a019950505b505050611229565b6004860260fc03600f8e821c1661121b81876110c3565b819d5060018a019950505050505b5050505060018101905061112a565b506112438189611038565b935050509295509295909350565b6000806000839250600080600080600061126a8a611026565b6112748982611110565b9550975095509850985081600081146112cc57611292600084611078565b965061129f6001846110c3565b9450975086861480600081146112c0576112b9868b610e68565b99506112c5565b600099505b50506112cd565b5b505050505050509250925092565b6308c379a060e01b60005260206004528060445260005b8115611309578160081b91506001810190506112f2565b8060245260646000fd5b8181146000810361132857611327846112db565b5b50505050565b836113398682611251565b9350935090508385018114611372576113717f424f554e445300000000000000000000000000000000000000000000000000006112db565b5b50935093915050565b8342106113bd576040517f08c379a00000000000000000000000000000000000000000000000000000000081526004016113b490611ddf565b60405180910390fd5b600088888888888888886040516020016113de989796959493929190611b6b565b604051602081830303815290604052805190602001209050600086146114095761140832876114d8565b5b886000806101000a81548173ffffffffffffffffffffffffffffffffffffffff021916908373ffffffffffffffffffffffffffffffffffffffff16021790555061145588888585611589565b60008060006101000a81548173ffffffffffffffffffffffffffffffffffffffff021916908373ffffffffffffffffffffffffffffffffffffffff1602179055507ffa39010b12e169f2d7e9a76e381216416dbf5eb59db117ae979592ee9f323885816040516114c59190611e0e565b60405180910390a1505050505050505050565b60008273ffffffffffffffffffffffffffffffffffffffff16826040516114fe90611e5a565b60006040518083038185875af1925050503d806000811461153b576040519150601f19603f3d011682016040523d82523d6000602084013e611540565b606091505b5050905080611584576040517f08c379a000000000000000000000000000000000000000000000000000000000815260040161157b90611ebb565b60405180910390fd5b505050565b608081838237600080838387895af16115a6573d6000803e3d6000fd5b5050505050565b600082825260208201905092915050565b7f4d53454453000000000000000000000000000000000000000000000000000000600082015250565b60006115f46005836115ad565b91506115ff826115be565b602082019050919050565b60006020820190508181036000830152611623816115e7565b9050919050565b600080fd5b600080fd5b6000819050919050565b61164781611634565b811461165257600080fd5b50565b6000813590506116648161163e565b92915050565b6000602082840312156116805761167f61162a565b5b600061168e84828501611655565b91505092915050565b6000819050919050565b6116aa81611697565b82525050565b60006020820190506116c560008301846116a1565b92915050565b600073ffffffffffffffffffffffffffffffffffffffff82169050919050565b60006116f6826116cb565b9050919050565b611706816116eb565b82525050565b600060208201905061172160008301846116fd565b92915050565b61173081611697565b811461173b57600080fd5b50565b60008135905061174d81611727565b92915050565b6000806040838503121561176a5761176961162a565b5b60006117788582860161173e565b925050602061178985828601611655565b9150509250929050565b600080fd5b600080fd5b600080fd5b60008083601f8401126117b8576117b7611793565b5b8235905067ffffffffffffffff8111156117d5576117d4611798565b5b6020830191508360018202830111156117f1576117f061179d565b5b9250929050565b600080600080604085870312156118125761181161162a565b5b600085013567ffffffffffffffff8111156118305761182f61162f565b5b61183c878288016117a2565b9450945050602085013567ffffffffffffffff81111561185f5761185e61162f565b5b61186b878288016117a2565b925092505092959194509250565b611882816116eb565b811461188d57600080fd5b50565b60008135905061189f81611879565b92915050565b6000806000806000806000806000806101008b8d0312156118c9576118c861162a565b5b60006118d78d828e01611890565b9a505060206118e88d828e01611890565b99505060406118f98d828e0161173e565b985050606061190a8d828e0161173e565b975050608061191b8d828e0161173e565b96505060a061192c8d828e0161173e565b95505060c08b013567ffffffffffffffff81111561194d5761194c61162f565b5b6119598d828e016117a2565b945094505060e08b013567ffffffffffffffff81111561197c5761197b61162f565b5b6119888d828e016117a2565b92509250509295989b9194979a5092959850565b6000602082840312156119b2576119b161162a565b5b60006119c08482850161173e565b91505092915050565b7f4841534800000000000000000000000000000000000000000000000000000000600082015250565b60006119ff6004836115ad565b9150611a0a826119c9565b602082019050919050565b60006020820190508181036000830152611a2e816119f2565b9050919050565b7f444d524f4f540000000000000000000000000000000000000000000000000000600082015250565b6000611a6b6006836115ad565b9150611a7682611a35565b602082019050919050565b60006020820190508181036000830152611a9a81611a5e565b9050919050565b7f544e454400000000000000000000000000000000000000000000000000000000600082015250565b6000611ad76004836115ad565b9150611ae282611aa1565b602082019050919050565b60006020820190508181036000830152611b0681611aca565b9050919050565b600082825260208201905092915050565b82818337600083830152505050565b6000601f19601f8301169050919050565b6000611b4a8385611b0d565b9350611b57838584611b1e565b611b6083611b2d565b840190509392505050565b600060e082019050611b80600083018b6116fd565b611b8d602083018a6116fd565b611b9a60408301896116a1565b611ba760608301886116a1565b611bb460808301876116a1565b611bc160a08301866116a1565b81810360c0830152611bd4818486611b3e565b90509998505050505050505050565b7f5354524f4f540000000000000000000000000000000000000000000000000000600082015250565b6000611c196006836115ad565b9150611c2482611be3565b602082019050919050565b60006020820190508181036000830152611c4881611c0c565b9050919050565b7f444d545300000000000000000000000000000000000000000000000000000000600082015250565b6000611c856004836115ad565b9150611c9082611c4f565b602082019050919050565b60006020820190508181036000830152611cb481611c78565b9050919050565b7f444d56414c000000000000000000000000000000000000000000000000000000600082015250565b6000611cf16005836115ad565b9150611cfc82611cbb565b602082019050919050565b60006020820190508181036000830152611d2081611ce4565b9050919050565b7f454f410000000000000000000000000000000000000000000000000000000000600082015250565b6000611d5d6003836115ad565b9150611d6882611d27565b602082019050919050565b60006020820190508181036000830152611d8c81611d50565b9050919050565b7f444d440000000000000000000000000000000000000000000000000000000000600082015250565b6000611dc96003836115ad565b9150611dd482611d93565b602082019050919050565b60006020820190508181036000830152611df881611dbc565b9050919050565b611e0881611634565b82525050565b6000602082019050611e236000830184611dff565b92915050565b600081905092915050565b50565b6000611e44600083611e29565b9150611e4f82611e34565b600082019050919050565b6000611e6582611e37565b9150819050919050565b7f5445544800000000000000000000000000000000000000000000000000000000600082015250565b6000611ea56004836115ad565b9150611eb082611e6f565b602082019050919050565b60006020820190508181036000830152611ed481611e98565b905091905056fea2646970667358221220ae173640f9aa194281412ddca117d1050d5d4b1aaf7a7de154e7c9fe1c0934ba64736f6c63430008100033",
					"opcodes": "PUSH1 0x80 PUSH1 0x40 MSTORE CALLVALUE DUP1 ISZERO PUSH2 0x10 JUMPI PUSH1 0x0 DUP1 REVERT JUMPDEST POP PUSH2 0x1F11 DUP1 PUSH2 0x20 PUSH1 0x0 CODECOPY PUSH1 0x0 RETURN INVALID PUSH1 0x80 PUSH1 0x40 MSTORE PUSH1 0x4 CALLDATASIZE LT PUSH2 0x59 JUMPI PUSH1 0x0 CALLDATALOAD PUSH1 0xE0 SHR DUP1 PUSH4 0x312FAF74 EQ PUSH2 0xD6 JUMPI DUP1 PUSH4 0x3B1623FE EQ PUSH2 0x113 JUMPI DUP1 PUSH4 0x49A435E2 EQ PUSH2 0x13E JUMPI DUP1 PUSH4 0x6E94AAC5 EQ PUSH2 0x167 JUMPI DUP1 PUSH4 0x8DFBFEAD EQ PUSH2 0x190 JUMPI DUP1 PUSH4 0xFCD5E7B3 EQ PUSH2 0x1B9 JUMPI PUSH2 0xD1 JUMP JUMPDEST CALLDATASIZE PUSH2 0xD1 JUMPI PUSH3 0x20000 PUSH20 0xFFFFFFFFFFFFFFFFFFFFFFFFFFFFFFFFFFFFFFFF AND CALLER PUSH20 0xFFFFFFFFFFFFFFFFFFFFFFFFFFFFFFFFFFFFFFFF AND EQ PUSH2 0xCF JUMPI PUSH1 0x40 MLOAD PUSH32 0x8C379A000000000000000000000000000000000000000000000000000000000 DUP2 MSTORE PUSH1 0x4 ADD PUSH2 0xC6 SWAP1 PUSH2 0x160A JUMP JUMPDEST PUSH1 0x40 MLOAD DUP1 SWAP2 SUB SWAP1 REVERT JUMPDEST STOP JUMPDEST PUSH1 0x0 DUP1 REVERT JUMPDEST CALLVALUE DUP1 ISZERO PUSH2 0xE2 JUMPI PUSH1 0x0 DUP1 REVERT JUMPDEST POP PUSH2 0xFD PUSH1 0x4 DUP1 CALLDATASIZE SUB DUP2 ADD SWAP1 PUSH2 0xF8 SWAP2 SWAP1 PUSH2 0x166A JUMP JUMPDEST PUSH2 0x1E2 JUMP JUMPDEST PUSH1 0x40 MLOAD PUSH2 0x10A SWAP2 SWAP1 PUSH2 0x16B0 JUMP JUMPDEST PUSH1 0x40 MLOAD DUP1 SWAP2 SUB SWAP1 RETURN JUMPDEST CALLVALUE DUP1 ISZERO PUSH2 0x11F JUMPI PUSH1 0x0 DUP1 REVERT JUMPDEST POP PUSH2 0x128 PUSH2 0x1FF JUMP JUMPDEST PUSH1 0x40 MLOAD PUSH2 0x135 SWAP2 SWAP1 PUSH2 0x170C JUMP JUMPDEST PUSH1 0x40 MLOAD DUP1 SWAP2 SUB SWAP1 RETURN JUMPDEST CALLVALUE DUP1 ISZERO PUSH2 0x14A JUMPI PUSH1 0x0 DUP1 REVERT JUMPDEST POP PUSH2 0x165 PUSH1 0x4 DUP1 CALLDATASIZE SUB DUP2 ADD SWAP1 PUSH2 0x160 SWAP2 SWAP1 PUSH2 0x1753 JUMP JUMPDEST PUSH2 0x228 JUMP JUMPDEST STOP JUMPDEST CALLVALUE DUP1 ISZERO PUSH2 0x173 JUMPI PUSH1 0x0 DUP1 REVERT JUMPDEST POP PUSH2 0x18E PUSH1 0x4 DUP1 CALLDATASIZE SUB DUP2 ADD SWAP1 PUSH2 0x189 SWAP2 SWAP1 PUSH2 0x17F8 JUMP JUMPDEST PUSH2 0x23B JUMP JUMPDEST STOP JUMPDEST CALLVALUE DUP1 ISZERO PUSH2 0x19C JUMPI PUSH1 0x0 DUP1 REVERT JUMPDEST POP PUSH2 0x1B7 PUSH1 0x4 DUP1 CALLDATASIZE SUB DUP2 ADD SWAP1 PUSH2 0x1B2 SWAP2 SWAP1 PUSH2 0x18A5 JUMP JUMPDEST PUSH2 0x358 JUMP JUMPDEST STOP JUMPDEST CALLVALUE DUP1 ISZERO PUSH2 0x1C5 JUMPI PUSH1 0x0 DUP1 REVERT JUMPDEST POP PUSH2 0x1E0 PUSH1 0x4 DUP1 CALLDATASIZE SUB DUP2 ADD SWAP1 PUSH2 0x1DB SWAP2 SWAP1 PUSH2 0x199C JUMP JUMPDEST PUSH2 0x51F JUMP JUMPDEST STOP JUMPDEST PUSH1 0x0 PUSH1 0x2 PUSH1 0x0 DUP4 DUP2 MSTORE PUSH1 0x20 ADD SWAP1 DUP2 MSTORE PUSH1 0x20 ADD PUSH1 0x0 KECCAK256 SLOAD SWAP1 POP SWAP2 SWAP1 POP JUMP JUMPDEST PUSH1 0x0 DUP1 PUSH1 0x0 SWAP1 SLOAD SWAP1 PUSH2 0x100 EXP SWAP1 DIV PUSH20 0xFFFFFFFFFFFFFFFFFFFFFFFFFFFFFFFFFFFFFFFF AND SWAP1 POP SWAP1 JUMP JUMPDEST PUSH2 0x230 PUSH2 0x59D JUMP JUMPDEST DUP1 PUSH1 0x1 DUP2 SWAP1 SSTORE POP POP POP JUMP JUMPDEST PUSH1 0x0 DUP1 PUSH1 0x0 PUSH2 0x24A DUP8 DUP8 PUSH2 0x60D JUMP JUMPDEST SWAP3 POP SWAP3 POP SWAP3 POP PUSH1 0x1 SLOAD DUP4 EQ PUSH2 0x294 JUMPI PUSH1 0x40 MLOAD PUSH32 0x8C379A000000000000000000000000000000000000000000000000000000000 DUP2 MSTORE PUSH1 0x4 ADD PUSH2 0x28B SWAP1 PUSH2 0x1A15 JUMP JUMPDEST PUSH1 0x40 MLOAD DUP1 SWAP2 SUB SWAP1 REVERT JUMPDEST PUSH1 0x0 DUP1 PUSH2 0x2B6 PUSH20 0x936A70C0B28532AA22240DCE21F89A8399D6AC60 DUP9 DUP9 PUSH2 0x8B9 JUMP JUMPDEST SWAP2 POP SWAP2 POP DUP4 DUP3 EQ PUSH2 0x2FC JUMPI PUSH1 0x40 MLOAD PUSH32 0x8C379A000000000000000000000000000000000000000000000000000000000 DUP2 MSTORE PUSH1 0x4 ADD PUSH2 0x2F3 SWAP1 PUSH2 0x1A81 JUMP JUMPDEST PUSH1 0x40 MLOAD DUP1 SWAP2 SUB SWAP1 REVERT JUMPDEST DUP3 PUSH1 0x2 PUSH1 0x0 DUP4 DUP2 MSTORE PUSH1 0x20 ADD SWAP1 DUP2 MSTORE PUSH1 0x20 ADD PUSH1 0x0 KECCAK256 DUP2 SWAP1 SSTORE POP DUP4 DUP6 PUSH32 0x9D70F54D5D379E4B92C497936411380303C56BFB08CAED66B62C94380AD153DB DUP6 PUSH1 0x40 MLOAD PUSH2 0x345 SWAP2 SWAP1 PUSH2 0x16B0 JUMP JUMPDEST PUSH1 0x40 MLOAD DUP1 SWAP2 SUB SWAP1 LOG3 POP POP POP POP POP POP POP POP POP JUMP JUMPDEST PUSH3 0x20000 PUSH20 0xFFFFFFFFFFFFFFFFFFFFFFFFFFFFFFFFFFFFFFFF AND DUP10 PUSH20 0xFFFFFFFFFFFFFFFFFFFFFFFFFFFFFFFFFFFFFFFF AND SUB PUSH2 0x3C9 JUMPI PUSH1 0x40 MLOAD PUSH32 0x8C379A000000000000000000000000000000000000000000000000000000000 DUP2 MSTORE PUSH1 0x4 ADD PUSH2 0x3C0 SWAP1 PUSH2 0x1AED JUMP JUMPDEST PUSH1 0x40 MLOAD DUP1 SWAP2 SUB SWAP1 REVERT JUMPDEST PUSH1 0x0 DUP11 DUP11 DUP11 DUP11 DUP11 DUP11 DUP11 DUP11 PUSH1 0x40 MLOAD PUSH1 0x20 ADD PUSH2 0x3EA SWAP9 SWAP8 SWAP7 SWAP6 SWAP5 SWAP4 SWAP3 SWAP2 SWAP1 PUSH2 0x1B6B JUMP JUMPDEST PUSH1 0x40 MLOAD PUSH1 0x20 DUP2 DUP4 SUB SUB DUP2 MSTORE SWAP1 PUSH1 0x40 MSTORE DUP1 MLOAD SWAP1 PUSH1 0x20 ADD KECCAK256 SWAP1 POP PUSH1 0x0 DUP1 PUSH2 0x418 PUSH2 0x411 DUP5 PUSH2 0xE46 JUMP JUMPDEST DUP7 DUP7 PUSH2 0xE60 JUMP JUMPDEST SWAP2 POP SWAP2 POP PUSH1 0x0 PUSH1 0x2 PUSH1 0x0 DUP5 DUP2 MSTORE PUSH1 0x20 ADD SWAP1 DUP2 MSTORE PUSH1 0x20 ADD PUSH1 0x0 KECCAK256 SLOAD SWAP1 POP PUSH1 0x0 DUP2 SUB PUSH2 0x477 JUMPI PUSH1 0x40 MLOAD PUSH32 0x8C379A000000000000000000000000000000000000000000000000000000000 DUP2 MSTORE PUSH1 0x4 ADD PUSH2 0x46E SWAP1 PUSH2 0x1C2F JUMP JUMPDEST PUSH1 0x40 MLOAD DUP1 SWAP2 SUB SWAP1 REVERT JUMPDEST DUP10 DUP2 LT PUSH2 0x4B9 JUMPI PUSH1 0x40 MLOAD PUSH32 0x8C379A000000000000000000000000000000000000000000000000000000000 DUP2 MSTORE PUSH1 0x4 ADD PUSH2 0x4B0 SWAP1 PUSH2 0x1C9B JUMP JUMPDEST PUSH1 0x40 MLOAD DUP1 SWAP2 SUB SWAP1 REVERT JUMPDEST PUSH1 0x1 PUSH1 0x0 SHL DUP3 EQ PUSH2 0x4FF JUMPI PUSH1 0x40 MLOAD PUSH32 0x8C379A000000000000000000000000000000000000000000000000000000000 DUP2 MSTORE PUSH1 0x4 ADD PUSH2 0x4F6 SWAP1 PUSH2 0x1D07 JUMP JUMPDEST PUSH1 0x40 MLOAD DUP1 SWAP2 SUB SWAP1 REVERT JUMPDEST PUSH2 0x50F DUP15 DUP15 DUP15 DUP15 DUP15 DUP15 DUP15 DUP15 PUSH2 0x137B JUMP JUMPDEST POP POP POP POP POP POP POP POP POP POP POP POP POP POP JUMP JUMPDEST PUSH3 0x20000 PUSH20 0xFFFFFFFFFFFFFFFFFFFFFFFFFFFFFFFFFFFFFFFF AND CALLER PUSH20 0xFFFFFFFFFFFFFFFFFFFFFFFFFFFFFFFFFFFFFFFF AND EQ PUSH2 0x590 JUMPI PUSH1 0x40 MLOAD PUSH32 0x8C379A000000000000000000000000000000000000000000000000000000000 DUP2 MSTORE PUSH1 0x4 ADD PUSH2 0x587 SWAP1 PUSH2 0x160A JUMP JUMPDEST PUSH1 0x40 MLOAD DUP1 SWAP2 SUB SWAP1 REVERT JUMPDEST PUSH2 0x59A CALLER DUP3 PUSH2 0x14D8 JUMP JUMPDEST POP JUMP JUMPDEST CALLER PUSH20 0xFFFFFFFFFFFFFFFFFFFFFFFFFFFFFFFFFFFFFFFF AND ORIGIN PUSH20 0xFFFFFFFFFFFFFFFFFFFFFFFFFFFFFFFFFFFFFFFF AND EQ PUSH2 0x60B JUMPI PUSH1 0x40 MLOAD PUSH32 0x8C379A000000000000000000000000000000000000000000000000000000000 DUP2 MSTORE PUSH1 0x4 ADD PUSH2 0x602 SWAP1 PUSH2 0x1D73 JUMP JUMPDEST PUSH1 0x40 MLOAD DUP1 SWAP2 SUB SWAP1 REVERT JUMPDEST JUMP JUMPDEST PUSH1 0x0 DUP1 PUSH1 0x0 PUSH2 0x823 JUMP JUMPDEST PUSH4 0x8C379A0 PUSH1 0xE0 SHL PUSH1 0x0 MSTORE PUSH1 0x20 PUSH1 0x4 MSTORE DUP1 PUSH1 0x44 MSTORE PUSH1 0x0 JUMPDEST DUP2 ISZERO PUSH2 0x645 JUMPI DUP2 PUSH1 0x8 SHL SWAP2 POP PUSH1 0x1 DUP2 ADD SWAP1 POP PUSH2 0x62E JUMP JUMPDEST DUP1 PUSH1 0x24 MSTORE PUSH1 0x64 PUSH1 0x0 REVERT JUMPDEST PUSH1 0x0 DUP1 DUP3 CALLDATALOAD PUSH1 0x0 BYTE PUSH1 0xF8 DUP2 LT ISZERO PUSH2 0x672 JUMPI PUSH1 0xBF DUP2 SUB SWAP3 POP PUSH1 0x1 DUP5 ADD SWAP2 POP POP PUSH2 0x6AB JUMP JUMPDEST PUSH1 0xF7 DUP2 SUB PUSH1 0x4 DUP2 GT ISZERO PUSH2 0x681 JUMPI INVALID JUMPDEST PUSH1 0x1 DUP6 ADD SWAP3 POP DUP3 CALLDATALOAD PUSH1 0x8 DUP3 MUL PUSH2 0x100 SUB DUP2 DUP2 SHR SWAP2 POP DUP3 DUP3 ADD SWAP6 POP PUSH1 0x1 DUP7 ADD SWAP6 POP DUP3 DUP6 ADD SWAP5 POP POP POP POP POP JUMPDEST SWAP2 POP SWAP2 JUMP JUMPDEST PUSH1 0x0 DUP1 PUSH1 0x0 DUP4 CALLDATALOAD PUSH1 0x0 BYTE PUSH1 0x80 DUP2 LT ISZERO PUSH2 0x6D4 JUMPI PUSH1 0x1 SWAP4 POP DUP5 SWAP3 POP PUSH1 0x1 SWAP2 POP POP PUSH2 0x758 JUMP JUMPDEST PUSH1 0xB8 DUP2 LT ISZERO PUSH2 0x6F3 JUMPI PUSH1 0x80 DUP2 SUB SWAP4 POP PUSH1 0x1 DUP6 ADD SWAP3 POP PUSH1 0x1 SWAP2 POP POP PUSH2 0x758 JUMP JUMPDEST PUSH1 0xC0 DUP2 LT ISZERO PUSH2 0x735 JUMPI PUSH1 0xB7 DUP2 SUB PUSH1 0x4 DUP2 GT ISZERO PUSH2 0x70B JUMPI INVALID JUMPDEST PUSH1 0x1 DUP7 ADD SWAP4 POP DUP4 CALLDATALOAD PUSH1 0x8 DUP3 MUL PUSH2 0x100 SUB DUP2 DUP2 SHR SWAP2 POP DUP2 SWAP7 POP DUP3 DUP7 ADD SWAP6 POP PUSH1 0x1 SWAP5 POP POP POP POP POP PUSH2 0x758 JUMP JUMPDEST PUSH1 0xF8 DUP2 LT ISZERO PUSH2 0x74A JUMPI PUSH1 0x1 DUP6 ADD SWAP3 POP POP PUSH2 0x758 JUMP JUMPDEST PUSH1 0xF7 DUP2 SUB SWAP4 POP PUSH1 0x1 DUP6 ADD SWAP3 POP POP JUMPDEST SWAP2 SWAP4 SWAP1 SWAP3 POP JUMP JUMPDEST PUSH1 0x0 DUP1 PUSH1 0x0 DUP1 DUP5 SWAP4 POP PUSH1 0x40 MLOAD SWAP3 POP PUSH2 0x776 DUP5 PUSH2 0x64F JUMP JUMPDEST DUP2 DUP7 DUP7 CALLDATACOPY DUP2 DUP6 KECCAK256 SWAP3 POP DUP5 DUP3 DUP8 ADD DUP3 SWAP8 POP JUMPDEST DUP1 DUP9 LT ISZERO PUSH2 0x7BC JUMPI PUSH2 0x798 DUP9 PUSH2 0x6B0 JUMP JUMPDEST DUP2 DUP4 ADD SWAP11 POP DUP1 ISZERO PUSH2 0x7B4 JUMPI DUP2 DUP4 PUSH1 0x80 SHL OR DUP1 DUP7 MSTORE PUSH1 0x20 DUP7 ADD SWAP6 POP POP JUMPDEST POP POP POP PUSH2 0x787 JUMP JUMPDEST DUP1 DUP9 EQ PUSH2 0x7C5 JUMPI INVALID JUMPDEST PUSH1 0x20 DUP8 DUP4 SUB DIV SWAP6 POP POP POP POP POP SWAP2 SWAP4 POP SWAP2 SWAP4 JUMP JUMPDEST PUSH1 0x0 DUP3 PUSH1 0x20 MUL DUP3 ADD MLOAD PUSH3 0xFFFFFF DUP2 AND DUP2 PUSH1 0x80 SHR PUSH1 0x1F DUP2 GT ISZERO PUSH2 0x808 JUMPI PUSH1 0x20 DUP2 SUB DUP3 ADD SWAP2 POP DUP2 CALLDATALOAD SWAP4 POP POP POP POP PUSH2 0x81D JUMP JUMPDEST PUSH1 0x8 DUP2 PUSH1 0x20 SUB MUL DUP3 CALLDATALOAD SWAP5 POP DUP5 DUP2 SHR SWAP5 POP POP POP POP POP JUMPDEST SWAP3 SWAP2 POP POP JUMP JUMPDEST PUSH2 0x82C DUP6 PUSH2 0x75F JUMP JUMPDEST DUP8 DUP10 ADD DUP5 EQ PUSH2 0x85F JUMPI PUSH2 0x85E PUSH32 0x424F554E44530000000000000000000000000000000000000000000000000000 PUSH2 0x617 JUMP JUMPDEST JUMPDEST PUSH1 0x10 DUP3 EQ PUSH2 0x891 JUMPI PUSH2 0x890 PUSH32 0x4954454D53000000000000000000000000000000000000000000000000000000 PUSH2 0x617 JUMP JUMPDEST JUMPDEST DUP1 SWAP7 POP PUSH2 0x89F PUSH1 0x3 DUP5 PUSH2 0x7D8 JUMP JUMPDEST SWAP6 POP PUSH2 0x8AC PUSH1 0xB DUP5 PUSH2 0x7D8 JUMP JUMPDEST SWAP5 POP POP POP POP POP SWAP3 POP SWAP3 POP SWAP3 JUMP JUMPDEST PUSH1 0x0 DUP1 PUSH2 0xDF9 JUMP JUMPDEST PUSH1 0x0 DUP1 DUP3 CALLDATALOAD PUSH1 0x0 BYTE PUSH1 0xF8 DUP2 LT ISZERO PUSH2 0x8E4 JUMPI PUSH1 0xBF DUP2 SUB SWAP3 POP PUSH1 0x1 DUP5 ADD SWAP2 POP POP PUSH2 0x91D JUMP JUMPDEST PUSH1 0xF7 DUP2 SUB PUSH1 0x4 DUP2 GT ISZERO PUSH2 0x8F3 JUMPI INVALID JUMPDEST PUSH1 0x1 DUP6 ADD SWAP3 POP DUP3 CALLDATALOAD PUSH1 0x8 DUP3 MUL PUSH2 0x100 SUB DUP2 DUP2 SHR SWAP2 POP DUP3 DUP3 ADD SWAP6 POP PUSH1 0x1 DUP7 ADD SWAP6 POP DUP3 DUP6 ADD SWAP5 POP POP POP POP POP JUMPDEST SWAP2 POP SWAP2 JUMP JUMPDEST PUSH1 0x0 DUP1 PUSH1 0x0 DUP4 CALLDATALOAD PUSH1 0x0 BYTE PUSH1 0x80 DUP2 LT ISZERO PUSH2 0x946 JUMPI PUSH1 0x1 SWAP4 POP DUP5 SWAP3 POP PUSH1 0x1 SWAP2 POP POP PUSH2 0x9CA JUMP JUMPDEST PUSH1 0xB8 DUP2 LT ISZERO PUSH2 0x965 JUMPI PUSH1 0x80 DUP2 SUB SWAP4 POP PUSH1 0x1 DUP6 ADD SWAP3 POP PUSH1 0x1 SWAP2 POP POP PUSH2 0x9CA JUMP JUMPDEST PUSH1 0xC0 DUP2 LT ISZERO PUSH2 0x9A7 JUMPI PUSH1 0xB7 DUP2 SUB PUSH1 0x4 DUP2 GT ISZERO PUSH2 0x97D JUMPI INVALID JUMPDEST PUSH1 0x1 DUP7 ADD SWAP4 POP DUP4 CALLDATALOAD PUSH1 0x8 DUP3 MUL PUSH2 0x100 SUB DUP2 DUP2 SHR SWAP2 POP DUP2 SWAP7 POP DUP3 DUP7 ADD SWAP6 POP PUSH1 0x1 SWAP5 POP POP POP POP POP PUSH2 0x9CA JUMP JUMPDEST PUSH1 0xF8 DUP2 LT ISZERO PUSH2 0x9BC JUMPI PUSH1 0x1 DUP6 ADD SWAP3 POP POP PUSH2 0x9CA JUMP JUMPDEST PUSH1 0xF7 DUP2 SUB SWAP4 POP PUSH1 0x1 DUP6 ADD SWAP3 POP POP JUMPDEST SWAP2 SWAP4 SWAP1 SWAP3 POP JUMP JUMPDEST PUSH1 0x0 DUP1 PUSH1 0x0 DUP1 DUP5 SWAP4 POP PUSH1 0x40 MLOAD SWAP3 POP PUSH2 0x9E8 DUP5 PUSH2 0x8C1 JUMP JUMPDEST DUP2 DUP7 DUP7 CALLDATACOPY DUP2 DUP6 KECCAK256 SWAP3 POP DUP5 DUP3 DUP8 ADD DUP3 SWAP8 POP JUMPDEST DUP1 DUP9 LT ISZERO PUSH2 0xA2E JUMPI PUSH2 0xA0A DUP9 PUSH2 0x922 JUMP JUMPDEST DUP2 DUP4 ADD SWAP11 POP DUP1 ISZERO PUSH2 0xA26 JUMPI DUP2 DUP4 PUSH1 0x80 SHL OR DUP1 DUP7 MSTORE PUSH1 0x20 DUP7 ADD SWAP6 POP POP JUMPDEST POP POP POP PUSH2 0x9F9 JUMP JUMPDEST DUP1 DUP9 EQ PUSH2 0xA37 JUMPI INVALID JUMPDEST PUSH1 0x20 DUP8 DUP4 SUB DIV SWAP6 POP POP POP POP POP SWAP2 SWAP4 POP SWAP2 SWAP4 JUMP JUMPDEST PUSH1 0x0 DUP2 PUSH1 0x0 MSTORE PUSH1 0x14 PUSH1 0xC KECCAK256 SWAP1 POP SWAP2 SWAP1 POP JUMP JUMPDEST PUSH1 0x0 DUP2 SWAP1 POP PUSH1 0x4 DUP4 MUL PUSH1 0x0 NOT DUP1 DUP3 SHR SWAP1 POP DUP1 DUP4 AND SWAP3 POP POP PUSH1 0x20 PUSH1 0x2 DUP6 MOD ISZERO PUSH2 0xA83 JUMPI PUSH1 0x3 SWAP1 POP JUMPDEST DUP2 PUSH2 0x100 SUB SWAP2 POP DUP1 DUP3 SHL SWAP1 POP DUP3 DUP2 OR SWAP3 POP POP POP SWAP3 SWAP2 POP POP JUMP JUMPDEST PUSH1 0x0 DUP3 PUSH1 0x20 MUL DUP3 ADD MLOAD PUSH3 0xFFFFFF DUP2 AND DUP2 PUSH1 0x80 SHR PUSH1 0x1F DUP2 GT ISZERO PUSH2 0xACC JUMPI PUSH1 0x20 DUP2 SUB DUP3 ADD SWAP2 POP DUP2 CALLDATALOAD SWAP4 POP POP POP POP PUSH2 0xAE1 JUMP JUMPDEST PUSH1 0x8 DUP2 PUSH1 0x20 SUB MUL DUP3 CALLDATALOAD SWAP5 POP DUP5 DUP2 SHR SWAP5 POP POP POP POP POP JUMPDEST SWAP3 SWAP2 POP POP JUMP JUMPDEST PUSH1 0x0 DUP1 DUP4 PUSH1 0x20 MUL DUP4 ADD MLOAD PUSH3 0xFFFFFF DUP2 AND DUP2 PUSH1 0x80 SHR SWAP3 POP PUSH1 0x1F DUP4 GT ISZERO PUSH2 0xB19 JUMPI PUSH1 0x20 DUP4 SUB DUP2 ADD SWAP1 POP DUP1 CALLDATALOAD SWAP4 POP POP POP PUSH2 0xB2D JUMP JUMPDEST PUSH1 0x8 DUP4 PUSH1 0x20 SUB MUL DUP2 CALLDATALOAD SWAP5 POP DUP5 DUP2 SHR SWAP5 POP POP POP POP JUMPDEST SWAP3 POP SWAP3 SWAP1 POP JUMP JUMPDEST PUSH1 0x0 DUP1 DUP4 PUSH1 0x20 MUL DUP4 ADD MLOAD PUSH3 0xFFFFFF DUP2 AND SWAP3 POP DUP1 PUSH1 0x80 SHR SWAP2 POP POP SWAP3 POP SWAP3 SWAP1 POP JUMP JUMPDEST PUSH1 0x0 DUP1 PUSH1 0x0 DUP1 PUSH1 0x0 DUP7 SWAP5 POP DUP5 CALLDATALOAD PUSH1 0x0 BYTE PUSH1 0x1 DUP7 ADD SWAP6 POP PUSH1 0x0 DUP1 JUMPDEST DUP3 DUP2 LT ISZERO PUSH2 0xC7C JUMPI PUSH1 0x0 DUP1 PUSH1 0x0 PUSH2 0xB84 DUP12 PUSH2 0x9D1 JUMP JUMPDEST SWAP4 POP SWAP4 POP SWAP4 POP SWAP11 POP DUP4 PUSH1 0x0 DUP2 EQ PUSH2 0xBC5 JUMPI PUSH2 0xBC0 PUSH32 0x5448415348000000000000000000000000000000000000000000000000000000 DUP12 DUP5 PUSH2 0xDDE JUMP JUMPDEST PUSH2 0xBC9 JUMP JUMPDEST DUP2 SWAP11 POP JUMPDEST POP DUP2 PUSH1 0x2 DUP2 EQ PUSH2 0xC09 JUMPI PUSH1 0x11 DUP2 EQ PUSH2 0xC48 JUMPI PUSH2 0xC04 PUSH32 0x4E4F444500000000000000000000000000000000000000000000000000000000 PUSH2 0xD8E JUMP JUMPDEST PUSH2 0xC6D JUMP JUMPDEST PUSH1 0x0 DUP1 PUSH2 0xC17 PUSH1 0x1 DUP8 PUSH2 0xAE7 JUMP JUMPDEST SWAP2 POP SWAP2 POP DUP2 SWAP12 POP PUSH1 0x1 DUP10 SUB DUP8 EQ PUSH1 0x0 DUP2 EQ PUSH2 0xC34 JUMPI DUP7 SWAP11 POP PUSH2 0xC40 JUMP JUMPDEST DUP7 MLOAD PUSH1 0x80 SHR DUP1 DUP11 ADD SWAP10 POP POP JUMPDEST POP POP POP PUSH2 0xC6D JUMP JUMPDEST PUSH1 0x4 DUP7 MUL PUSH1 0xFC SUB PUSH1 0xF DUP15 DUP3 SHR AND PUSH2 0xC5F DUP2 DUP8 PUSH2 0xAE7 JUMP JUMPDEST DUP2 SWAP14 POP PUSH1 0x1 DUP11 ADD SWAP10 POP POP POP POP POP JUMPDEST POP POP POP POP PUSH1 0x1 DUP2 ADD SWAP1 POP PUSH2 0xB6E JUMP JUMPDEST POP PUSH2 0xC87 DUP2 DUP10 PUSH2 0xA5C JUMP JUMPDEST SWAP4 POP POP POP SWAP3 SWAP6 POP SWAP3 SWAP6 SWAP1 SWAP4 POP JUMP JUMPDEST PUSH1 0x0 DUP1 PUSH1 0x0 DUP4 SWAP3 POP PUSH1 0x0 DUP1 PUSH1 0x0 DUP1 PUSH1 0x0 DUP1 PUSH2 0xCAF DUP12 PUSH2 0xA4A JUMP JUMPDEST PUSH2 0xCB9 DUP11 DUP3 PUSH2 0xB54 JUMP JUMPDEST SWAP6 POP SWAP9 POP SWAP5 POP SWAP10 POP SWAP10 POP PUSH2 0xCED PUSH32 0x41434C4541460000000000000000000000000000000000000000000000000000 DUP4 PUSH2 0xDC6 JUMP JUMPDEST PUSH2 0xCF8 PUSH1 0x0 DUP4 PUSH2 0xA9C JUMP JUMPDEST SWAP7 POP PUSH2 0xD25 PUSH32 0x4143524F4F540000000000000000000000000000000000000000000000000000 DUP9 DUP9 PUSH2 0xDDE JUMP JUMPDEST PUSH2 0xD30 PUSH1 0x1 DUP4 PUSH2 0xB34 JUMP JUMPDEST PUSH1 0x0 PUSH2 0xD3B DUP4 PUSH2 0x9D1 JUMP JUMPDEST SWAP11 POP SWAP3 POP SWAP6 POP SWAP3 POP PUSH2 0xD70 PUSH32 0x41434C4541464E00000000000000000000000000000000000000000000000000 PUSH1 0x4 DUP4 EQ PUSH2 0xDC6 JUMP JUMPDEST PUSH2 0xD7B PUSH1 0x2 DUP7 PUSH2 0xA9C JUMP JUMPDEST SWAP11 POP POP POP POP POP POP POP POP POP POP POP SWAP3 POP SWAP3 POP SWAP3 JUMP JUMPDEST PUSH4 0x8C379A0 PUSH1 0xE0 SHL PUSH1 0x0 MSTORE PUSH1 0x20 PUSH1 0x4 MSTORE DUP1 PUSH1 0x44 MSTORE PUSH1 0x0 JUMPDEST DUP2 ISZERO PUSH2 0xDBC JUMPI DUP2 PUSH1 0x8 SHL SWAP2 POP PUSH1 0x1 DUP2 ADD SWAP1 POP PUSH2 0xDA5 JUMP JUMPDEST DUP1 PUSH1 0x24 MSTORE PUSH1 0x64 PUSH1 0x0 REVERT JUMPDEST DUP1 PUSH1 0x0 DUP2 SUB PUSH2 0xDD9 JUMPI PUSH2 0xDD8 DUP4 PUSH2 0xD8E JUMP JUMPDEST JUMPDEST POP POP POP JUMP JUMPDEST DUP2 DUP2 EQ PUSH1 0x0 DUP2 SUB PUSH2 0xDF3 JUMPI PUSH2 0xDF2 DUP5 PUSH2 0xD8E JUMP JUMPDEST JUMPDEST POP POP POP POP JUMP JUMPDEST DUP4 PUSH2 0xE04 DUP7 DUP3 PUSH2 0xC95 JUMP JUMPDEST SWAP4 POP SWAP4 POP SWAP1 POP DUP4 DUP6 ADD DUP2 EQ PUSH2 0xE3D JUMPI PUSH2 0xE3C PUSH32 0x424F554E44530000000000000000000000000000000000000000000000000000 PUSH2 0xD8E JUMP JUMPDEST JUMPDEST POP SWAP4 POP SWAP4 SWAP2 POP POP JUMP JUMPDEST PUSH1 0x0 PUSH4 0x31DF76A4 PUSH1 0x0 MSTORE DUP2 PUSH1 0x20 MSTORE PUSH1 0x40 PUSH1 0x0 KECCAK256 SWAP1 POP SWAP2 SWAP1 POP JUMP JUMPDEST PUSH1 0x0 DUP1 PUSH2 0x132E JUMP JUMPDEST PUSH1 0x0 DUP2 SWAP1 POP PUSH1 0x80 DUP3 LT PUSH2 0xE97 JUMPI PUSH1 0x20 DUP4 GT PUSH2 0xE97 JUMPI PUSH1 0x8 DUP4 MUL PUSH1 0x8 DUP2 SUB SWAP1 POP PUSH1 0xFF DUP2 SHL DUP1 NOT SWAP1 POP DUP1 DUP4 AND SWAP3 POP POP POP JUMPDEST SWAP3 SWAP2 POP POP JUMP JUMPDEST PUSH1 0x0 DUP1 DUP3 CALLDATALOAD PUSH1 0x0 BYTE PUSH1 0xF8 DUP2 LT ISZERO PUSH2 0xEC0 JUMPI PUSH1 0xBF DUP2 SUB SWAP3 POP PUSH1 0x1 DUP5 ADD SWAP2 POP POP PUSH2 0xEF9 JUMP JUMPDEST PUSH1 0xF7 DUP2 SUB PUSH1 0x4 DUP2 GT ISZERO PUSH2 0xECF JUMPI INVALID JUMPDEST PUSH1 0x1 DUP6 ADD SWAP3 POP DUP3 CALLDATALOAD PUSH1 0x8 DUP3 MUL PUSH2 0x100 SUB DUP2 DUP2 SHR SWAP2 POP DUP3 DUP3 ADD SWAP6 POP PUSH1 0x1 DUP7 ADD SWAP6 POP DUP3 DUP6 ADD SWAP5 POP POP POP POP POP JUMPDEST SWAP2 POP SWAP2 JUMP JUMPDEST PUSH1 0x0 DUP1 PUSH1 0x0 DUP4 CALLDATALOAD PUSH1 0x0 BYTE PUSH1 0x80 DUP2 LT ISZERO PUSH2 0xF22 JUMPI PUSH1 0x1 SWAP4 POP DUP5 SWAP3 POP PUSH1 0x1 SWAP2 POP POP PUSH2 0xFA6 JUMP JUMPDEST PUSH1 0xB8 DUP2 LT ISZERO PUSH2 0xF41 JUMPI PUSH1 0x80 DUP2 SUB SWAP4 POP PUSH1 0x1 DUP6 ADD SWAP3 POP PUSH1 0x1 SWAP2 POP POP PUSH2 0xFA6 JUMP JUMPDEST PUSH1 0xC0 DUP2 LT ISZERO PUSH2 0xF83 JUMPI PUSH1 0xB7 DUP2 SUB PUSH1 0x4 DUP2 GT ISZERO PUSH2 0xF59 JUMPI INVALID JUMPDEST PUSH1 0x1 DUP7 ADD SWAP4 POP DUP4 CALLDATALOAD PUSH1 0x8 DUP3 MUL PUSH2 0x100 SUB DUP2 DUP2 SHR SWAP2 POP DUP2 SWAP7 POP DUP3 DUP7 ADD SWAP6 POP PUSH1 0x1 SWAP5 POP POP POP POP POP PUSH2 0xFA6 JUMP JUMPDEST PUSH1 0xF8 DUP2 LT ISZERO PUSH2 0xF98 JUMPI PUSH1 0x1 DUP6 ADD SWAP3 POP POP PUSH2 0xFA6 JUMP JUMPDEST PUSH1 0xF7 DUP2 SUB SWAP4 POP PUSH1 0x1 DUP6 ADD SWAP3 POP POP JUMPDEST SWAP2 SWAP4 SWAP1 SWAP3 POP JUMP JUMPDEST PUSH1 0x0 DUP1 PUSH1 0x0 DUP1 DUP5 SWAP4 POP PUSH1 0x40 MLOAD SWAP3 POP PUSH2 0xFC4 DUP5 PUSH2 0xE9D JUMP JUMPDEST DUP2 DUP7 DUP7 CALLDATACOPY DUP2 DUP6 KECCAK256 SWAP3 POP DUP5 DUP3 DUP8 ADD DUP3 SWAP8 POP JUMPDEST DUP1 DUP9 LT ISZERO PUSH2 0x100A JUMPI PUSH2 0xFE6 DUP9 PUSH2 0xEFE JUMP JUMPDEST DUP2 DUP4 ADD SWAP11 POP DUP1 ISZERO PUSH2 0x1002 JUMPI DUP2 DUP4 PUSH1 0x80 SHL OR DUP1 DUP7 MSTORE PUSH1 0x20 DUP7 ADD SWAP6 POP POP JUMPDEST POP POP POP PUSH2 0xFD5 JUMP JUMPDEST DUP1 DUP9 EQ PUSH2 0x1013 JUMPI INVALID JUMPDEST PUSH1 0x20 DUP8 DUP4 SUB DIV SWAP6 POP POP POP POP POP SWAP2 SWAP4 POP SWAP2 SWAP4 JUMP JUMPDEST PUSH1 0x0 DUP2 PUSH1 0x0 MSTORE PUSH1 0x20 PUSH1 0x0 KECCAK256 SWAP1 POP SWAP2 SWAP1 POP JUMP JUMPDEST PUSH1 0x0 DUP2 SWAP1 POP PUSH1 0x4 DUP4 MUL PUSH1 0x0 NOT DUP1 DUP3 SHR SWAP1 POP DUP1 DUP4 AND SWAP3 POP POP PUSH1 0x20 PUSH1 0x2 DUP6 MOD ISZERO PUSH2 0x105F JUMPI PUSH1 0x3 SWAP1 POP JUMPDEST DUP2 PUSH2 0x100 SUB SWAP2 POP DUP1 DUP3 SHL SWAP1 POP DUP3 DUP2 OR SWAP3 POP POP POP SWAP3 SWAP2 POP POP JUMP JUMPDEST PUSH1 0x0 DUP3 PUSH1 0x20 MUL DUP3 ADD MLOAD PUSH3 0xFFFFFF DUP2 AND DUP2 PUSH1 0x80 SHR PUSH1 0x1F DUP2 GT ISZERO PUSH2 0x10A8 JUMPI PUSH1 0x20 DUP2 SUB DUP3 ADD SWAP2 POP DUP2 CALLDATALOAD SWAP4 POP POP POP POP PUSH2 0x10BD JUMP JUMPDEST PUSH1 0x8 DUP2 PUSH1 0x20 SUB MUL DUP3 CALLDATALOAD SWAP5 POP DUP5 DUP2 SHR SWAP5 POP POP POP POP POP JUMPDEST SWAP3 SWAP2 POP POP JUMP JUMPDEST PUSH1 0x0 DUP1 DUP4 PUSH1 0x20 MUL DUP4 ADD MLOAD PUSH3 0xFFFFFF DUP2 AND DUP2 PUSH1 0x80 SHR SWAP3 POP PUSH1 0x1F DUP4 GT ISZERO PUSH2 0x10F5 JUMPI PUSH1 0x20 DUP4 SUB DUP2 ADD SWAP1 POP DUP1 CALLDATALOAD SWAP4 POP POP POP PUSH2 0x1109 JUMP JUMPDEST PUSH1 0x8 DUP4 PUSH1 0x20 SUB MUL DUP2 CALLDATALOAD SWAP5 POP DUP5 DUP2 SHR SWAP5 POP POP POP POP JUMPDEST SWAP3 POP SWAP3 SWAP1 POP JUMP JUMPDEST PUSH1 0x0 DUP1 PUSH1 0x0 DUP1 PUSH1 0x0 DUP7 SWAP5 POP DUP5 CALLDATALOAD PUSH1 0x0 BYTE PUSH1 0x1 DUP7 ADD SWAP6 POP PUSH1 0x0 DUP1 JUMPDEST DUP3 DUP2 LT ISZERO PUSH2 0x1238 JUMPI PUSH1 0x0 DUP1 PUSH1 0x0 PUSH2 0x1140 DUP12 PUSH2 0xFAD JUMP JUMPDEST SWAP4 POP SWAP4 POP SWAP4 POP SWAP11 POP DUP4 PUSH1 0x0 DUP2 EQ PUSH2 0x1181 JUMPI PUSH2 0x117C PUSH32 0x5448415348000000000000000000000000000000000000000000000000000000 DUP12 DUP5 PUSH2 0x1313 JUMP JUMPDEST PUSH2 0x1185 JUMP JUMPDEST DUP2 SWAP11 POP JUMPDEST POP DUP2 PUSH1 0x2 DUP2 EQ PUSH2 0x11C5 JUMPI PUSH1 0x11 DUP2 EQ PUSH2 0x1204 JUMPI PUSH2 0x11C0 PUSH32 0x4E4F444500000000000000000000000000000000000000000000000000000000 PUSH2 0x12DB JUMP JUMPDEST PUSH2 0x1229 JUMP JUMPDEST PUSH1 0x0 DUP1 PUSH2 0x11D3 PUSH1 0x1 DUP8 PUSH2 0x10C3 JUMP JUMPDEST SWAP2 POP SWAP2 POP DUP2 SWAP12 POP PUSH1 0x1 DUP10 SUB DUP8 EQ PUSH1 0x0 DUP2 EQ PUSH2 0x11F0 JUMPI DUP7 SWAP11 POP PUSH2 0x11FC JUMP JUMPDEST DUP7 MLOAD PUSH1 0x80 SHR DUP1 DUP11 ADD SWAP10 POP POP JUMPDEST POP POP POP PUSH2 0x1229 JUMP JUMPDEST PUSH1 0x4 DUP7 MUL PUSH1 0xFC SUB PUSH1 0xF DUP15 DUP3 SHR AND PUSH2 0x121B DUP2 DUP8 PUSH2 0x10C3 JUMP JUMPDEST DUP2 SWAP14 POP PUSH1 0x1 DUP11 ADD SWAP10 POP POP POP POP POP JUMPDEST POP POP POP POP PUSH1 0x1 DUP2 ADD SWAP1 POP PUSH2 0x112A JUMP JUMPDEST POP PUSH2 0x1243 DUP2 DUP10 PUSH2 0x1038 JUMP JUMPDEST SWAP4 POP POP POP SWAP3 SWAP6 POP SWAP3 SWAP6 SWAP1 SWAP4 POP JUMP JUMPDEST PUSH1 0x0 DUP1 PUSH1 0x0 DUP4 SWAP3 POP PUSH1 0x0 DUP1 PUSH1 0x0 DUP1 PUSH1 0x0 PUSH2 0x126A DUP11 PUSH2 0x1026 JUMP JUMPDEST PUSH2 0x1274 DUP10 DUP3 PUSH2 0x1110 JUMP JUMPDEST SWAP6 POP SWAP8 POP SWAP6 POP SWAP9 POP SWAP9 POP DUP2 PUSH1 0x0 DUP2 EQ PUSH2 0x12CC JUMPI PUSH2 0x1292 PUSH1 0x0 DUP5 PUSH2 0x1078 JUMP JUMPDEST SWAP7 POP PUSH2 0x129F PUSH1 0x1 DUP5 PUSH2 0x10C3 JUMP JUMPDEST SWAP5 POP SWAP8 POP DUP7 DUP7 EQ DUP1 PUSH1 0x0 DUP2 EQ PUSH2 0x12C0 JUMPI PUSH2 0x12B9 DUP7 DUP12 PUSH2 0xE68 JUMP JUMPDEST SWAP10 POP PUSH2 0x12C5 JUMP JUMPDEST PUSH1 0x0 SWAP10 POP JUMPDEST POP POP PUSH2 0x12CD JUMP JUMPDEST JUMPDEST POP POP POP POP POP POP POP SWAP3 POP SWAP3 POP SWAP3 JUMP JUMPDEST PUSH4 0x8C379A0 PUSH1 0xE0 SHL PUSH1 0x0 MSTORE PUSH1 0x20 PUSH1 0x4 MSTORE DUP1 PUSH1 0x44 MSTORE PUSH1 0x0 JUMPDEST DUP2 ISZERO PUSH2 0x1309 JUMPI DUP2 PUSH1 0x8 SHL SWAP2 POP PUSH1 0x1 DUP2 ADD SWAP1 POP PUSH2 0x12F2 JUMP JUMPDEST DUP1 PUSH1 0x24 MSTORE PUSH1 0x64 PUSH1 0x0 REVERT JUMPDEST DUP2 DUP2 EQ PUSH1 0x0 DUP2 SUB PUSH2 0x1328 JUMPI PUSH2 0x1327 DUP5 PUSH2 0x12DB JUMP JUMPDEST JUMPDEST POP POP POP POP JUMP JUMPDEST DUP4 PUSH2 0x1339 DUP7 DUP3 PUSH2 0x1251 JUMP JUMPDEST SWAP4 POP SWAP4 POP SWAP1 POP DUP4 DUP6 ADD DUP2 EQ PUSH2 0x1372 JUMPI PUSH2 0x1371 PUSH32 0x424F554E44530000000000000000000000000000000000000000000000000000 PUSH2 0x12DB JUMP JUMPDEST JUMPDEST POP SWAP4 POP SWAP4 SWAP2 POP POP JUMP JUMPDEST DUP4 TIMESTAMP LT PUSH2 0x13BD JUMPI PUSH1 0x40 MLOAD PUSH32 0x8C379A000000000000000000000000000000000000000000000000000000000 DUP2 MSTORE PUSH1 0x4 ADD PUSH2 0x13B4 SWAP1 PUSH2 0x1DDF JUMP JUMPDEST PUSH1 0x40 MLOAD DUP1 SWAP2 SUB SWAP1 REVERT JUMPDEST PUSH1 0x0 DUP9 DUP9 DUP9 DUP9 DUP9 DUP9 DUP9 DUP9 PUSH1 0x40 MLOAD PUSH1 0x20 ADD PUSH2 0x13DE SWAP9 SWAP8 SWAP7 SWAP6 SWAP5 SWAP4 SWAP3 SWAP2 SWAP1 PUSH2 0x1B6B JUMP JUMPDEST PUSH1 0x40 MLOAD PUSH1 0x20 DUP2 DUP4 SUB SUB DUP2 MSTORE SWAP1 PUSH1 0x40 MSTORE DUP1 MLOAD SWAP1 PUSH1 0x20 ADD KECCAK256 SWAP1 POP PUSH1 0x0 DUP7 EQ PUSH2 0x1409 JUMPI PUSH2 0x1408 ORIGIN DUP8 PUSH2 0x14D8 JUMP JUMPDEST JUMPDEST DUP9 PUSH1 0x0 DUP1 PUSH2 0x100 EXP DUP2 SLOAD DUP2 PUSH20 0xFFFFFFFFFFFFFFFFFFFFFFFFFFFFFFFFFFFFFFFF MUL NOT AND SWAP1 DUP4 PUSH20 0xFFFFFFFFFFFFFFFFFFFFFFFFFFFFFFFFFFFFFFFF AND MUL OR SWAP1 SSTORE POP PUSH2 0x1455 DUP9 DUP9 DUP6 DUP6 PUSH2 0x1589 JUMP JUMPDEST PUSH1 0x0 DUP1 PUSH1 0x0 PUSH2 0x100 EXP DUP2 SLOAD DUP2 PUSH20 0xFFFFFFFFFFFFFFFFFFFFFFFFFFFFFFFFFFFFFFFF MUL NOT AND SWAP1 DUP4 PUSH20 0xFFFFFFFFFFFFFFFFFFFFFFFFFFFFFFFFFFFFFFFF AND MUL OR SWAP1 SSTORE POP PUSH32 0xFA39010B12E169F2D7E9A76E381216416DBF5EB59DB117AE979592EE9F323885 DUP2 PUSH1 0x40 MLOAD PUSH2 0x14C5 SWAP2 SWAP1 PUSH2 0x1E0E JUMP JUMPDEST PUSH1 0x40 MLOAD DUP1 SWAP2 SUB SWAP1 LOG1 POP POP POP POP POP POP POP POP POP JUMP JUMPDEST PUSH1 0x0 DUP3 PUSH20 0xFFFFFFFFFFFFFFFFFFFFFFFFFFFFFFFFFFFFFFFF AND DUP3 PUSH1 0x40 MLOAD PUSH2 0x14FE SWAP1 PUSH2 0x1E5A JUMP JUMPDEST PUSH1 0x0 PUSH1 0x40 MLOAD DUP1 DUP4 SUB DUP2 DUP6 DUP8 GAS CALL SWAP3 POP POP POP RETURNDATASIZE DUP1 PUSH1 0x0 DUP2 EQ PUSH2 0x153B JUMPI PUSH1 0x40 MLOAD SWAP2 POP PUSH1 0x1F NOT PUSH1 0x3F RETURNDATASIZE ADD AND DUP3 ADD PUSH1 0x40 MSTORE RETURNDATASIZE DUP3 MSTORE RETURNDATASIZE PUSH1 0x0 PUSH1 0x20 DUP5 ADD RETURNDATACOPY PUSH2 0x1540 JUMP JUMPDEST PUSH1 0x60 SWAP2 POP JUMPDEST POP POP SWAP1 POP DUP1 PUSH2 0x1584 JUMPI PUSH1 0x40 MLOAD PUSH32 0x8C379A000000000000000000000000000000000000000000000000000000000 DUP2 MSTORE PUSH1 0x4 ADD PUSH2 0x157B SWAP1 PUSH2 0x1EBB JUMP JUMPDEST PUSH1 0x40 MLOAD DUP1 SWAP2 SUB SWAP1 REVERT JUMPDEST POP POP POP JUMP JUMPDEST PUSH1 0x80 DUP2 DUP4 DUP3 CALLDATACOPY PUSH1 0x0 DUP1 DUP4 DUP4 DUP8 DUP10 GAS CALL PUSH2 0x15A6 JUMPI RETURNDATASIZE PUSH1 0x0 DUP1 RETURNDATACOPY RETURNDATASIZE PUSH1 0x0 REVERT JUMPDEST POP POP POP POP POP JUMP JUMPDEST PUSH1 0x0 DUP3 DUP3 MSTORE PUSH1 0x20 DUP3 ADD SWAP1 POP SWAP3 SWAP2 POP POP JUMP JUMPDEST PUSH32 0x4D53454453000000000000000000000000000000000000000000000000000000 PUSH1 0x0 DUP3 ADD MSTORE POP JUMP JUMPDEST PUSH1 0x0 PUSH2 0x15F4 PUSH1 0x5 DUP4 PUSH2 0x15AD JUMP JUMPDEST SWAP2 POP PUSH2 0x15FF DUP3 PUSH2 0x15BE JUMP JUMPDEST PUSH1 0x20 DUP3 ADD SWAP1 POP SWAP2 SWAP1 POP JUMP JUMPDEST PUSH1 0x0 PUSH1 0x20 DUP3 ADD SWAP1 POP DUP2 DUP2 SUB PUSH1 0x0 DUP4 ADD MSTORE PUSH2 0x1623 DUP2 PUSH2 0x15E7 JUMP JUMPDEST SWAP1 POP SWAP2 SWAP1 POP JUMP JUMPDEST PUSH1 0x0 DUP1 REVERT JUMPDEST PUSH1 0x0 DUP1 REVERT JUMPDEST PUSH1 0x0 DUP2 SWAP1 POP SWAP2 SWAP1 POP JUMP JUMPDEST PUSH2 0x1647 DUP2 PUSH2 0x1634 JUMP JUMPDEST DUP2 EQ PUSH2 0x1652 JUMPI PUSH1 0x0 DUP1 REVERT JUMPDEST POP JUMP JUMPDEST PUSH1 0x0 DUP2 CALLDATALOAD SWAP1 POP PUSH2 0x1664 DUP2 PUSH2 0x163E JUMP JUMPDEST SWAP3 SWAP2 POP POP JUMP JUMPDEST PUSH1 0x0 PUSH1 0x20 DUP3 DUP5 SUB SLT ISZERO PUSH2 0x1680 JUMPI PUSH2 0x167F PUSH2 0x162A JUMP JUMPDEST JUMPDEST PUSH1 0x0 PUSH2 0x168E DUP5 DUP3 DUP6 ADD PUSH2 0x1655 JUMP JUMPDEST SWAP2 POP POP SWAP3 SWAP2 POP POP JUMP JUMPDEST PUSH1 0x0 DUP2 SWAP1 POP SWAP2 SWAP1 POP JUMP JUMPDEST PUSH2 0x16AA DUP2 PUSH2 0x1697 JUMP JUMPDEST DUP3 MSTORE POP POP JUMP JUMPDEST PUSH1 0x0 PUSH1 0x20 DUP3 ADD SWAP1 POP PUSH2 0x16C5 PUSH1 0x0 DUP4 ADD DUP5 PUSH2 0x16A1 JUMP JUMPDEST SWAP3 SWAP2 POP POP JUMP JUMPDEST PUSH1 0x0 PUSH20 0xFFFFFFFFFFFFFFFFFFFFFFFFFFFFFFFFFFFFFFFF DUP3 AND SWAP1 POP SWAP2 SWAP1 POP JUMP JUMPDEST PUSH1 0x0 PUSH2 0x16F6 DUP3 PUSH2 0x16CB JUMP JUMPDEST SWAP1 POP SWAP2 SWAP1 POP JUMP JUMPDEST PUSH2 0x1706 DUP2 PUSH2 0x16EB JUMP JUMPDEST DUP3 MSTORE POP POP JUMP JUMPDEST PUSH1 0x0 PUSH1 0x20 DUP3 ADD SWAP1 POP PUSH2 0x1721 PUSH1 0x0 DUP4 ADD DUP5 PUSH2 0x16FD JUMP JUMPDEST SWAP3 SWAP2 POP POP JUMP JUMPDEST PUSH2 0x1730 DUP2 PUSH2 0x1697 JUMP JUMPDEST DUP2 EQ PUSH2 0x173B JUMPI PUSH1 0x0 DUP1 REVERT JUMPDEST POP JUMP JUMPDEST PUSH1 0x0 DUP2 CALLDATALOAD SWAP1 POP PUSH2 0x174D DUP2 PUSH2 0x1727 JUMP JUMPDEST SWAP3 SWAP2 POP POP JUMP JUMPDEST PUSH1 0x0 DUP1 PUSH1 0x40 DUP4 DUP6 SUB SLT ISZERO PUSH2 0x176A JUMPI PUSH2 0x1769 PUSH2 0x162A JUMP JUMPDEST JUMPDEST PUSH1 0x0 PUSH2 0x1778 DUP6 DUP3 DUP7 ADD PUSH2 0x173E JUMP JUMPDEST SWAP3 POP POP PUSH1 0x20 PUSH2 0x1789 DUP6 DUP3 DUP7 ADD PUSH2 0x1655 JUMP JUMPDEST SWAP2 POP POP SWAP3 POP SWAP3 SWAP1 POP JUMP JUMPDEST PUSH1 0x0 DUP1 REVERT JUMPDEST PUSH1 0x0 DUP1 REVERT JUMPDEST PUSH1 0x0 DUP1 REVERT JUMPDEST PUSH1 0x0 DUP1 DUP4 PUSH1 0x1F DUP5 ADD SLT PUSH2 0x17B8 JUMPI PUSH2 0x17B7 PUSH2 0x1793 JUMP JUMPDEST JUMPDEST DUP3 CALLDATALOAD SWAP1 POP PUSH8 0xFFFFFFFFFFFFFFFF DUP2 GT ISZERO PUSH2 0x17D5 JUMPI PUSH2 0x17D4 PUSH2 0x1798 JUMP JUMPDEST JUMPDEST PUSH1 0x20 DUP4 ADD SWAP2 POP DUP4 PUSH1 0x1 DUP3 MUL DUP4 ADD GT ISZERO PUSH2 0x17F1 JUMPI PUSH2 0x17F0 PUSH2 0x179D JUMP JUMPDEST JUMPDEST SWAP3 POP SWAP3 SWAP1 POP JUMP JUMPDEST PUSH1 0x0 DUP1 PUSH1 0x0 DUP1 PUSH1 0x40 DUP6 DUP8 SUB SLT ISZERO PUSH2 0x1812 JUMPI PUSH2 0x1811 PUSH2 0x162A JUMP JUMPDEST JUMPDEST PUSH1 0x0 DUP6 ADD CALLDATALOAD PUSH8 0xFFFFFFFFFFFFFFFF DUP2 GT ISZERO PUSH2 0x1830 JUMPI PUSH2 0x182F PUSH2 0x162F JUMP JUMPDEST JUMPDEST PUSH2 0x183C DUP8 DUP3 DUP9 ADD PUSH2 0x17A2 JUMP JUMPDEST SWAP5 POP SWAP5 POP POP PUSH1 0x20 DUP6 ADD CALLDATALOAD PUSH8 0xFFFFFFFFFFFFFFFF DUP2 GT ISZERO PUSH2 0x185F JUMPI PUSH2 0x185E PUSH2 0x162F JUMP JUMPDEST JUMPDEST PUSH2 0x186B DUP8 DUP3 DUP9 ADD PUSH2 0x17A2 JUMP JUMPDEST SWAP3 POP SWAP3 POP POP SWAP3 SWAP6 SWAP2 SWAP5 POP SWAP3 POP JUMP JUMPDEST PUSH2 0x1882 DUP2 PUSH2 0x16EB JUMP JUMPDEST DUP2 EQ PUSH2 0x188D JUMPI PUSH1 0x0 DUP1 REVERT JUMPDEST POP JUMP JUMPDEST PUSH1 0x0 DUP2 CALLDATALOAD SWAP1 POP PUSH2 0x189F DUP2 PUSH2 0x1879 JUMP JUMPDEST SWAP3 SWAP2 POP POP JUMP JUMPDEST PUSH1 0x0 DUP1 PUSH1 0x0 DUP1 PUSH1 0x0 DUP1 PUSH1 0x0 DUP1 PUSH1 0x0 DUP1 PUSH2 0x100 DUP12 DUP14 SUB SLT ISZERO PUSH2 0x18C9 JUMPI PUSH2 0x18C8 PUSH2 0x162A JUMP JUMPDEST JUMPDEST PUSH1 0x0 PUSH2 0x18D7 DUP14 DUP3 DUP15 ADD PUSH2 0x1890 JUMP JUMPDEST SWAP11 POP POP PUSH1 0x20 PUSH2 0x18E8 DUP14 DUP3 DUP15 ADD PUSH2 0x1890 JUMP JUMPDEST SWAP10 POP POP PUSH1 0x40 PUSH2 0x18F9 DUP14 DUP3 DUP15 ADD PUSH2 0x173E JUMP JUMPDEST SWAP9 POP POP PUSH1 0x60 PUSH2 0x190A DUP14 DUP3 DUP15 ADD PUSH2 0x173E JUMP JUMPDEST SWAP8 POP POP PUSH1 0x80 PUSH2 0x191B DUP14 DUP3 DUP15 ADD PUSH2 0x173E JUMP JUMPDEST SWAP7 POP POP PUSH1 0xA0 PUSH2 0x192C DUP14 DUP3 DUP15 ADD PUSH2 0x173E JUMP JUMPDEST SWAP6 POP POP PUSH1 0xC0 DUP12 ADD CALLDATALOAD PUSH8 0xFFFFFFFFFFFFFFFF DUP2 GT ISZERO PUSH2 0x194D JUMPI PUSH2 0x194C PUSH2 0x162F JUMP JUMPDEST JUMPDEST PUSH2 0x1959 DUP14 DUP3 DUP15 ADD PUSH2 0x17A2 JUMP JUMPDEST SWAP5 POP SWAP5 POP POP PUSH1 0xE0 DUP12 ADD CALLDATALOAD PUSH8 0xFFFFFFFFFFFFFFFF DUP2 GT ISZERO PUSH2 0x197C JUMPI PUSH2 0x197B PUSH2 0x162F JUMP JUMPDEST JUMPDEST PUSH2 0x1988 DUP14 DUP3 DUP15 ADD PUSH2 0x17A2 JUMP JUMPDEST SWAP3 POP SWAP3 POP POP SWAP3 SWAP6 SWAP9 SWAP12 SWAP2 SWAP5 SWAP8 SWAP11 POP SWAP3 SWAP6 SWAP9 POP JUMP JUMPDEST PUSH1 0x0 PUSH1 0x20 DUP3 DUP5 SUB SLT ISZERO PUSH2 0x19B2 JUMPI PUSH2 0x19B1 PUSH2 0x162A JUMP JUMPDEST JUMPDEST PUSH1 0x0 PUSH2 0x19C0 DUP5 DUP3 DUP6 ADD PUSH2 0x173E JUMP JUMPDEST SWAP2 POP POP SWAP3 SWAP2 POP POP JUMP JUMPDEST PUSH32 0x4841534800000000000000000000000000000000000000000000000000000000 PUSH1 0x0 DUP3 ADD MSTORE POP JUMP JUMPDEST PUSH1 0x0 PUSH2 0x19FF PUSH1 0x4 DUP4 PUSH2 0x15AD JUMP JUMPDEST SWAP2 POP PUSH2 0x1A0A DUP3 PUSH2 0x19C9 JUMP JUMPDEST PUSH1 0x20 DUP3 ADD SWAP1 POP SWAP2 SWAP1 POP JUMP JUMPDEST PUSH1 0x0 PUSH1 0x20 DUP3 ADD SWAP1 POP DUP2 DUP2 SUB PUSH1 0x0 DUP4 ADD MSTORE PUSH2 0x1A2E DUP2 PUSH2 0x19F2 JUMP JUMPDEST SWAP1 POP SWAP2 SWAP1 POP JUMP JUMPDEST PUSH32 0x444D524F4F540000000000000000000000000000000000000000000000000000 PUSH1 0x0 DUP3 ADD MSTORE POP JUMP JUMPDEST PUSH1 0x0 PUSH2 0x1A6B PUSH1 0x6 DUP4 PUSH2 0x15AD JUMP JUMPDEST SWAP2 POP PUSH2 0x1A76 DUP3 PUSH2 0x1A35 JUMP JUMPDEST PUSH1 0x20 DUP3 ADD SWAP1 POP SWAP2 SWAP1 POP JUMP JUMPDEST PUSH1 0x0 PUSH1 0x20 DUP3 ADD SWAP1 POP DUP2 DUP2 SUB PUSH1 0x0 DUP4 ADD MSTORE PUSH2 0x1A9A DUP2 PUSH2 0x1A5E JUMP JUMPDEST SWAP1 POP SWAP2 SWAP1 POP JUMP JUMPDEST PUSH32 0x544E454400000000000000000000000000000000000000000000000000000000 PUSH1 0x0 DUP3 ADD MSTORE POP JUMP JUMPDEST PUSH1 0x0 PUSH2 0x1AD7 PUSH1 0x4 DUP4 PUSH2 0x15AD JUMP JUMPDEST SWAP2 POP PUSH2 0x1AE2 DUP3 PUSH2 0x1AA1 JUMP JUMPDEST PUSH1 0x20 DUP3 ADD SWAP1 POP SWAP2 SWAP1 POP JUMP JUMPDEST PUSH1 0x0 PUSH1 0x20 DUP3 ADD SWAP1 POP DUP2 DUP2 SUB PUSH1 0x0 DUP4 ADD MSTORE PUSH2 0x1B06 DUP2 PUSH2 0x1ACA JUMP JUMPDEST SWAP1 POP SWAP2 SWAP1 POP JUMP JUMPDEST PUSH1 0x0 DUP3 DUP3 MSTORE PUSH1 0x20 DUP3 ADD SWAP1 POP SWAP3 SWAP2 POP POP JUMP JUMPDEST DUP3 DUP2 DUP4 CALLDATACOPY PUSH1 0x0 DUP4 DUP4 ADD MSTORE POP POP POP JUMP JUMPDEST PUSH1 0x0 PUSH1 0x1F NOT PUSH1 0x1F DUP4 ADD AND SWAP1 POP SWAP2 SWAP1 POP JUMP JUMPDEST PUSH1 0x0 PUSH2 0x1B4A DUP4 DUP6 PUSH2 0x1B0D JUMP JUMPDEST SWAP4 POP PUSH2 0x1B57 DUP4 DUP6 DUP5 PUSH2 0x1B1E JUMP JUMPDEST PUSH2 0x1B60 DUP4 PUSH2 0x1B2D JUMP JUMPDEST DUP5 ADD SWAP1 POP SWAP4 SWAP3 POP POP POP JUMP JUMPDEST PUSH1 0x0 PUSH1 0xE0 DUP3 ADD SWAP1 POP PUSH2 0x1B80 PUSH1 0x0 DUP4 ADD DUP12 PUSH2 0x16FD JUMP JUMPDEST PUSH2 0x1B8D PUSH1 0x20 DUP4 ADD DUP11 PUSH2 0x16FD JUMP JUMPDEST PUSH2 0x1B9A PUSH1 0x40 DUP4 ADD DUP10 PUSH2 0x16A1 JUMP JUMPDEST PUSH2 0x1BA7 PUSH1 0x60 DUP4 ADD DUP9 PUSH2 0x16A1 JUMP JUMPDEST PUSH2 0x1BB4 PUSH1 0x80 DUP4 ADD DUP8 PUSH2 0x16A1 JUMP JUMPDEST PUSH2 0x1BC1 PUSH1 0xA0 DUP4 ADD DUP7 PUSH2 0x16A1 JUMP JUMPDEST DUP2 DUP2 SUB PUSH1 0xC0 DUP4 ADD MSTORE PUSH2 0x1BD4 DUP2 DUP5 DUP7 PUSH2 0x1B3E JUMP JUMPDEST SWAP1 POP SWAP10 SWAP9 POP POP POP POP POP POP POP POP POP JUMP JUMPDEST PUSH32 0x5354524F4F540000000000000000000000000000000000000000000000000000 PUSH1 0x0 DUP3 ADD MSTORE POP JUMP JUMPDEST PUSH1 0x0 PUSH2 0x1C19 PUSH1 0x6 DUP4 PUSH2 0x15AD JUMP JUMPDEST SWAP2 POP PUSH2 0x1C24 DUP3 PUSH2 0x1BE3 JUMP JUMPDEST PUSH1 0x20 DUP3 ADD SWAP1 POP SWAP2 SWAP1 POP JUMP JUMPDEST PUSH1 0x0 PUSH1 0x20 DUP3 ADD SWAP1 POP DUP2 DUP2 SUB PUSH1 0x0 DUP4 ADD MSTORE PUSH2 0x1C48 DUP2 PUSH2 0x1C0C JUMP JUMPDEST SWAP1 POP SWAP2 SWAP1 POP JUMP JUMPDEST PUSH32 0x444D545300000000000000000000000000000000000000000000000000000000 PUSH1 0x0 DUP3 ADD MSTORE POP JUMP JUMPDEST PUSH1 0x0 PUSH2 0x1C85 PUSH1 0x4 DUP4 PUSH2 0x15AD JUMP JUMPDEST SWAP2 POP PUSH2 0x1C90 DUP3 PUSH2 0x1C4F JUMP JUMPDEST PUSH1 0x20 DUP3 ADD SWAP1 POP SWAP2 SWAP1 POP JUMP JUMPDEST PUSH1 0x0 PUSH1 0x20 DUP3 ADD SWAP1 POP DUP2 DUP2 SUB PUSH1 0x0 DUP4 ADD MSTORE PUSH2 0x1CB4 DUP2 PUSH2 0x1C78 JUMP JUMPDEST SWAP1 POP SWAP2 SWAP1 POP JUMP JUMPDEST PUSH32 0x444D56414C000000000000000000000000000000000000000000000000000000 PUSH1 0x0 DUP3 ADD MSTORE POP JUMP JUMPDEST PUSH1 0x0 PUSH2 0x1CF1 PUSH1 0x5 DUP4 PUSH2 0x15AD JUMP JUMPDEST SWAP2 POP PUSH2 0x1CFC DUP3 PUSH2 0x1CBB JUMP JUMPDEST PUSH1 0x20 DUP3 ADD SWAP1 POP SWAP2 SWAP1 POP JUMP JUMPDEST PUSH1 0x0 PUSH1 0x20 DUP3 ADD SWAP1 POP DUP2 DUP2 SUB PUSH1 0x0 DUP4 ADD MSTORE PUSH2 0x1D20 DUP2 PUSH2 0x1CE4 JUMP JUMPDEST SWAP1 POP SWAP2 SWAP1 POP JUMP JUMPDEST PUSH32 0x454F410000000000000000000000000000000000000000000000000000000000 PUSH1 0x0 DUP3 ADD MSTORE POP JUMP JUMPDEST PUSH1 0x0 PUSH2 0x1D5D PUSH1 0x3 DUP4 PUSH2 0x15AD JUMP JUMPDEST SWAP2 POP PUSH2 0x1D68 DUP3 PUSH2 0x1D27 JUMP JUMPDEST PUSH1 0x20 DUP3 ADD SWAP1 POP SWAP2 SWAP1 POP JUMP JUMPDEST PUSH1 0x0 PUSH1 0x20 DUP3 ADD SWAP1 POP DUP2 DUP2 SUB PUSH1 0x0 DUP4 ADD MSTORE PUSH2 0x1D8C DUP2 PUSH2 0x1D50 JUMP JUMPDEST SWAP1 POP SWAP2 SWAP1 POP JUMP JUMPDEST PUSH32 0x444D440000000000000000000000000000000000000000000000000000000000 PUSH1 0x0 DUP3 ADD MSTORE POP JUMP JUMPDEST PUSH1 0x0 PUSH2 0x1DC9 PUSH1 0x3 DUP4 PUSH2 0x15AD JUMP JUMPDEST SWAP2 POP PUSH2 0x1DD4 DUP3 PUSH2 0x1D93 JUMP JUMPDEST PUSH1 0x20 DUP3 ADD SWAP1 POP SWAP2 SWAP1 POP JUMP JUMPDEST PUSH1 0x0 PUSH1 0x20 DUP3 ADD SWAP1 POP DUP2 DUP2 SUB PUSH1 0x0 DUP4 ADD MSTORE PUSH2 0x1DF8 DUP2 PUSH2 0x1DBC JUMP JUMPDEST SWAP1 POP SWAP2 SWAP1 POP JUMP JUMPDEST PUSH2 0x1E08 DUP2 PUSH2 0x1634 JUMP JUMPDEST DUP3 MSTORE POP POP JUMP JUMPDEST PUSH1 0x0 PUSH1 0x20 DUP3 ADD SWAP1 POP PUSH2 0x1E23 PUSH1 0x0 DUP4 ADD DUP5 PUSH2 0x1DFF JUMP JUMPDEST SWAP3 SWAP2 POP POP JUMP JUMPDEST PUSH1 0x0 DUP2 SWAP1 POP SWAP3 SWAP2 POP POP JUMP JUMPDEST POP JUMP JUMPDEST PUSH1 0x0 PUSH2 0x1E44 PUSH1 0x0 DUP4 PUSH2 0x1E29 JUMP JUMPDEST SWAP2 POP PUSH2 0x1E4F DUP3 PUSH2 0x1E34 JUMP JUMPDEST PUSH1 0x0 DUP3 ADD SWAP1 POP SWAP2 SWAP1 POP JUMP JUMPDEST PUSH1 0x0 PUSH2 0x1E65 DUP3 PUSH2 0x1E37 JUMP JUMPDEST SWAP2 POP DUP2 SWAP1 POP SWAP2 SWAP1 POP JUMP JUMPDEST PUSH32 0x5445544800000000000000000000000000000000000000000000000000000000 PUSH1 0x0 DUP3 ADD MSTORE POP JUMP JUMPDEST PUSH1 0x0 PUSH2 0x1EA5 PUSH1 0x4 DUP4 PUSH2 0x15AD JUMP JUMPDEST SWAP2 POP PUSH2 0x1EB0 DUP3 PUSH2 0x1E6F JUMP JUMPDEST PUSH1 0x20 DUP3 ADD SWAP1 POP SWAP2 SWAP1 POP JUMP JUMPDEST PUSH1 0x0 PUSH1 0x20 DUP3 ADD SWAP1 POP DUP2 DUP2 SUB PUSH1 0x0 DUP4 ADD MSTORE PUSH2 0x1ED4 DUP2 PUSH2 0x1E98 JUMP JUMPDEST SWAP1 POP SWAP2 SWAP1 POP JUMP INVALID LOG2 PUSH5 0x6970667358 0x22 SLT KECCAK256 0xAE OR CALLDATASIZE BLOCKHASH 0xF9 0xAA NOT TIMESTAMP DUP2 COINBASE 0x2D 0xDC LOG1 OR 0xD1 SDIV 0xD 0x5D 0x4B BYTE 0xAF PUSH27 0x7DE154E7C9FE1C0934BA64736F6C63430008100033000000000000 "
				},
				"gasEstimates": {
					"creation": {
						"codeDepositCost": "1590600",
						"executionCost": "1666",
						"totalCost": "1592266"
					},
					"external": {
						"deliverMessageWithProof(address,address,uint256,uint256,uint256,uint256,bytes,bytes)": "infinite",
						"getTimestampForStorageRoot(bytes32)": "2758",
						"importForeignBlock(uint256,bytes32)": "22772",
						"importForeignBridgeState(bytes,bytes)": "infinite",
						"messageOrigin()": "2522",
						"requestETH(uint256)": "infinite"
					}
				},
				"methodIdentifiers": {
					"deliverMessageWithProof(address,address,uint256,uint256,uint256,uint256,bytes,bytes)": "8dfbfead",
					"getTimestampForStorageRoot(bytes32)": "312faf74",
					"importForeignBlock(uint256,bytes32)": "49a435e2",
					"importForeignBridgeState(bytes,bytes)": "6e94aac5",
					"messageOrigin()": "3b1623fe",
					"requestETH(uint256)": "fcd5e7b3"
				}
			},
			"storageLayout": {
				"storage": [
					{
						"astId": 308,
						"contract": "contracts/ZkEvmL2MessageDeliverer.sol:ZkEvmL2MessageDeliverer",
						"label": "_messageOrigin",
						"offset": 0,
						"slot": "0",
						"type": "t_address"
					},
					{
						"astId": 54,
						"contract": "contracts/ZkEvmL2MessageDeliverer.sol:ZkEvmL2MessageDeliverer",
						"label": "lastKnownL1BlockHash",
						"offset": 0,
						"slot": "1",
						"type": "t_bytes32"
					},
					{
						"astId": 58,
						"contract": "contracts/ZkEvmL2MessageDeliverer.sol:ZkEvmL2MessageDeliverer",
						"label": "storageRootToTimestamp",
						"offset": 0,
						"slot": "2",
						"type": "t_mapping(t_bytes32,t_uint256)"
					}
				],
				"types": {
					"t_address": {
						"encoding": "inplace",
						"label": "address",
						"numberOfBytes": "20"
					},
					"t_bytes32": {
						"encoding": "inplace",
						"label": "bytes32",
						"numberOfBytes": "32"
					},
					"t_mapping(t_bytes32,t_uint256)": {
						"encoding": "mapping",
						"key": "t_bytes32",
						"label": "mapping(bytes32 => uint256)",
						"numberOfBytes": "32",
						"value": "t_uint256"
					},
					"t_uint256": {
						"encoding": "inplace",
						"label": "uint256",
						"numberOfBytes": "32"
					}
				}
			},
			"userdoc": {
				"kind": "user",
				"methods": {
					"deliverMessageWithProof(address,address,uint256,uint256,uint256,uint256,bytes,bytes)": {
						"notice": "Verifies the proof and executes the message."
					},
					"messageOrigin()": {
						"notice": "Returns the address of the caller that dispatched the message."
					}
				},
				"version": 1
			}
		}
	}
}