{
	"contracts/ZkEvmMessageDelivererBase.sol": {
		"ZkEvmMessageDelivererBase": {
			"abi": [
				{
					"anonymous": false,
					"inputs": [
						{
							"indexed": false,
							"internalType": "bytes32",
							"name": "blockHash",
							"type": "bytes32"
						}
					],
					"name": "BlockFinalized",
					"type": "event"
				},
				{
					"anonymous": false,
					"inputs": [],
					"name": "BlockSubmitted",
					"type": "event"
				},
				{
					"anonymous": false,
					"inputs": [
						{
							"indexed": false,
							"internalType": "bytes32",
							"name": "id",
							"type": "bytes32"
						}
					],
					"name": "MessageDelivered",
					"type": "event"
				},
				{
					"anonymous": false,
					"inputs": [
						{
							"indexed": false,
							"internalType": "address",
							"name": "from",
							"type": "address"
						},
						{
							"indexed": false,
							"internalType": "address",
							"name": "to",
							"type": "address"
						},
						{
							"indexed": false,
							"internalType": "uint256",
							"name": "value",
							"type": "uint256"
						},
						{
							"indexed": false,
							"internalType": "uint256",
							"name": "fee",
							"type": "uint256"
						},
						{
							"indexed": false,
							"internalType": "uint256",
							"name": "deadline",
							"type": "uint256"
						},
						{
							"indexed": false,
							"internalType": "uint256",
							"name": "nonce",
							"type": "uint256"
						},
						{
							"indexed": false,
							"internalType": "bytes",
							"name": "data",
							"type": "bytes"
						}
					],
					"name": "MessageDispatched",
					"type": "event"
				},
				{
					"anonymous": false,
					"inputs": [
						{
							"indexed": false,
							"internalType": "bytes32",
							"name": "id",
							"type": "bytes32"
						}
					],
					"name": "MessageDropped",
					"type": "event"
				},
				{
					"inputs": [],
					"name": "messageOrigin",
					"outputs": [
						{
							"internalType": "address",
							"name": "",
							"type": "address"
						}
					],
					"stateMutability": "view",
					"type": "function"
				}
			],
			"devdoc": {
				"kind": "dev",
				"methods": {},
				"version": 1
			},
			"evm": {
				"assembly": "    /* \"contracts/ZkEvmMessageDelivererBase.sol\":207:1102  contract ZkEvmMessageDelivererBase is... */\n  mstore(0x40, 0x80)\n  callvalue\n  dup1\n  iszero\n  tag_1\n  jumpi\n  0x00\n  dup1\n  revert\ntag_1:\n  pop\n  dataSize(sub_0)\n  dup1\n  dataOffset(sub_0)\n  0x00\n  codecopy\n  0x00\n  return\nstop\n\nsub_0: assembly {\n        /* \"contracts/ZkEvmMessageDelivererBase.sol\":207:1102  contract ZkEvmMessageDelivererBase is... */\n      mstore(0x40, 0x80)\n      callvalue\n      dup1\n      iszero\n      tag_1\n      jumpi\n      0x00\n      dup1\n      revert\n    tag_1:\n      pop\n      jumpi(tag_2, lt(calldatasize, 0x04))\n      shr(0xe0, calldataload(0x00))\n      dup1\n      0x3b1623fe\n      eq\n      tag_3\n      jumpi\n    tag_2:\n      0x00\n      dup1\n      revert\n        /* \"contracts/ZkEvmMessageDelivererBase.sol\":406:496  function messageOrigin () external view returns (address) {... */\n    tag_3:\n        /* \"contracts/ZkEvmMessageDelivererBase.sol\":455:462  address */\n      0x00\n        /* \"contracts/ZkEvmMessageDelivererBase.sol\":477:491  _messageOrigin */\n      sload\n        /* \"contracts/ZkEvmMessageDelivererBase.sol\":406:496  function messageOrigin () external view returns (address) {... */\n      0x40\n      dup1\n      mload\n      sub(shl(0xa0, 0x01), 0x01)\n        /* \"contracts/ZkEvmMessageDelivererBase.sol\":477:491  _messageOrigin */\n      swap1\n      swap3\n      and\n        /* \"#utility.yul\":160:211   */\n      dup3\n      mstore\n        /* \"contracts/ZkEvmMessageDelivererBase.sol\":406:496  function messageOrigin () external view returns (address) {... */\n      mload\n      swap1\n      dup2\n      swap1\n      sub\n        /* \"#utility.yul\":148:150   */\n      0x20\n        /* \"contracts/ZkEvmMessageDelivererBase.sol\":406:496  function messageOrigin () external view returns (address) {... */\n      add\n      swap1\n      return\n\n    auxdata: 0xa2646970667358221220d95b19b49ec7dd2ba44a412dde9c4e7a19733314e4996a023b29a3b1f4f5712164736f6c63430008120033\n}\n",
				"bytecode": {
					"linkReferences": {},
					"object": "6080604052348015600f57600080fd5b50608280601d6000396000f3fe6080604052348015600f57600080fd5b506004361060285760003560e01c80633b1623fe14602d575b600080fd5b600054604080516001600160a01b039092168252519081900360200190f3fea2646970667358221220d95b19b49ec7dd2ba44a412dde9c4e7a19733314e4996a023b29a3b1f4f5712164736f6c63430008120033",
					"opcodes": "PUSH1 0x80 PUSH1 0x40 MSTORE CALLVALUE DUP1 ISZERO PUSH1 0xF JUMPI PUSH1 0x0 DUP1 REVERT JUMPDEST POP PUSH1 0x82 DUP1 PUSH1 0x1D PUSH1 0x0 CODECOPY PUSH1 0x0 RETURN INVALID PUSH1 0x80 PUSH1 0x40 MSTORE CALLVALUE DUP1 ISZERO PUSH1 0xF JUMPI PUSH1 0x0 DUP1 REVERT JUMPDEST POP PUSH1 0x4 CALLDATASIZE LT PUSH1 0x28 JUMPI PUSH1 0x0 CALLDATALOAD PUSH1 0xE0 SHR DUP1 PUSH4 0x3B1623FE EQ PUSH1 0x2D JUMPI JUMPDEST PUSH1 0x0 DUP1 REVERT JUMPDEST PUSH1 0x0 SLOAD PUSH1 0x40 DUP1 MLOAD PUSH1 0x1 PUSH1 0x1 PUSH1 0xA0 SHL SUB SWAP1 SWAP3 AND DUP3 MSTORE MLOAD SWAP1 DUP2 SWAP1 SUB PUSH1 0x20 ADD SWAP1 RETURN INVALID LOG2 PUSH5 0x6970667358 0x22 SLT KECCAK256 0xD9 JUMPDEST NOT 0xB4 SWAP15 0xC7 0xDD 0x2B LOG4 0x4A COINBASE 0x2D 0xDE SWAP13 0x4E PUSH27 0x19733314E4996A023B29A3B1F4F5712164736F6C63430008120033 "
				},
				"gasEstimates": {
					"creation": {
						"codeDepositCost": "26000",
						"executionCost": "81",
						"totalCost": "26081"
					},
					"external": {
						"messageOrigin()": "2270"
					},
					"internal": {
						"_deliverMessage(address,address,uint256,uint256,uint256,uint256,bytes calldata)": "infinite"
					}
				},
				"methodIdentifiers": {
					"messageOrigin()": "3b1623fe"
				}
			},
			"storageLayout": {
				"storage": [
					{
						"astId": 569,
						"contract": "contracts/ZkEvmMessageDelivererBase.sol:ZkEvmMessageDelivererBase",
						"label": "_messageOrigin",
						"offset": 0,
						"slot": "0",
						"type": "t_address"
					}
				],
				"types": {
					"t_address": {
						"encoding": "inplace",
						"label": "address",
						"numberOfBytes": "20"
					}
				}
			},
			"userdoc": {
				"kind": "user",
				"methods": {
					"messageOrigin()": {
						"notice": "Returns the address of the caller that dispatched the message."
					}
				},
				"version": 1
			}
		}
	}
}