{
	"contracts/ZkEvmL1Bridge.sol": {
		"ZkEvmL1Bridge": {
			"abi": [
				{
					"anonymous": false,
					"inputs": [
						{
							"indexed": false,
							"internalType": "bytes32",
							"name": "blockHash",
							"type": "bytes32"
						}
					],
					"name": "BlockFinalized",
					"type": "event"
				},
				{
					"anonymous": false,
					"inputs": [],
					"name": "BlockSubmitted",
					"type": "event"
				},
				{
					"anonymous": false,
					"inputs": [
						{
							"indexed": true,
							"internalType": "bytes32",
							"name": "blockHash",
							"type": "bytes32"
						},
						{
							"indexed": true,
							"internalType": "bytes32",
							"name": "stateRoot",
							"type": "bytes32"
						},
						{
							"indexed": false,
							"internalType": "uint256",
							"name": "timestamp",
							"type": "uint256"
						}
					],
					"name": "ForeignBridgeStateImported",
					"type": "event"
				},
				{
					"anonymous": false,
					"inputs": [
						{
							"indexed": false,
							"internalType": "bytes32",
							"name": "id",
							"type": "bytes32"
						}
					],
					"name": "MessageDelivered",
					"type": "event"
				},
				{
					"anonymous": false,
					"inputs": [
						{
							"indexed": false,
							"internalType": "address",
							"name": "from",
							"type": "address"
						},
						{
							"indexed": false,
							"internalType": "address",
							"name": "to",
							"type": "address"
						},
						{
							"indexed": false,
							"internalType": "uint256",
							"name": "value",
							"type": "uint256"
						},
						{
							"indexed": false,
							"internalType": "uint256",
							"name": "fee",
							"type": "uint256"
						},
						{
							"indexed": false,
							"internalType": "uint256",
							"name": "deadline",
							"type": "uint256"
						},
						{
							"indexed": false,
							"internalType": "uint256",
							"name": "nonce",
							"type": "uint256"
						},
						{
							"indexed": false,
							"internalType": "bytes",
							"name": "data",
							"type": "bytes"
						}
					],
					"name": "MessageDispatched",
					"type": "event"
				},
				{
					"anonymous": false,
					"inputs": [
						{
							"indexed": false,
							"internalType": "bytes32",
							"name": "id",
							"type": "bytes32"
						}
					],
					"name": "MessageDropped",
					"type": "event"
				},
				{
					"inputs": [
						{
							"internalType": "bytes",
							"name": "witness",
							"type": "bytes"
						}
					],
					"name": "buildCommitment",
					"outputs": [
						{
							"internalType": "uint256[]",
							"name": "result",
							"type": "uint256[]"
						}
					],
					"stateMutability": "view",
					"type": "function"
				},
				{
					"inputs": [
						{
							"internalType": "address",
							"name": "from",
							"type": "address"
						},
						{
							"internalType": "address",
							"name": "to",
							"type": "address"
						},
						{
							"internalType": "uint256",
							"name": "value",
							"type": "uint256"
						},
						{
							"internalType": "uint256",
							"name": "fee",
							"type": "uint256"
						},
						{
							"internalType": "uint256",
							"name": "deadline",
							"type": "uint256"
						},
						{
							"internalType": "uint256",
							"name": "nonce",
							"type": "uint256"
						},
						{
							"internalType": "bytes",
							"name": "data",
							"type": "bytes"
						},
						{
							"internalType": "bytes",
							"name": "proof",
							"type": "bytes"
						}
					],
					"name": "deliverMessageWithProof",
					"outputs": [],
					"stateMutability": "nonpayable",
					"type": "function"
				},
				{
					"inputs": [
						{
							"internalType": "address",
							"name": "to",
							"type": "address"
						},
						{
							"internalType": "uint256",
							"name": "fee",
							"type": "uint256"
						},
						{
							"internalType": "uint256",
							"name": "deadline",
							"type": "uint256"
						},
						{
							"internalType": "uint256",
							"name": "nonce",
							"type": "uint256"
						},
						{
							"internalType": "bytes",
							"name": "data",
							"type": "bytes"
						}
					],
					"name": "dispatchMessage",
					"outputs": [
						{
							"internalType": "bytes32",
							"name": "messageHash",
							"type": "bytes32"
						}
					],
					"stateMutability": "payable",
					"type": "function"
				},
				{
					"inputs": [
						{
							"internalType": "address",
							"name": "from",
							"type": "address"
						},
						{
							"internalType": "address",
							"name": "to",
							"type": "address"
						},
						{
							"internalType": "uint256",
							"name": "value",
							"type": "uint256"
						},
						{
							"internalType": "uint256",
							"name": "fee",
							"type": "uint256"
						},
						{
							"internalType": "uint256",
							"name": "deadline",
							"type": "uint256"
						},
						{
							"internalType": "uint256",
							"name": "nonce",
							"type": "uint256"
						},
						{
							"internalType": "bytes",
							"name": "data",
							"type": "bytes"
						},
						{
							"internalType": "bytes",
							"name": "proof",
							"type": "bytes"
						}
					],
					"name": "dropMessage",
					"outputs": [],
					"stateMutability": "nonpayable",
					"type": "function"
				},
				{
					"inputs": [
						{
							"internalType": "bytes",
							"name": "proof",
							"type": "bytes"
						}
					],
					"name": "finalizeBlock",
					"outputs": [],
					"stateMutability": "nonpayable",
					"type": "function"
				},
				{
					"inputs": [
						{
							"internalType": "bytes32",
							"name": "val",
							"type": "bytes32"
						}
					],
					"name": "getTimestampForStorageRoot",
					"outputs": [
						{
							"internalType": "uint256",
							"name": "",
							"type": "uint256"
						}
					],
					"stateMutability": "view",
					"type": "function"
				},
				{
					"inputs": [
						{
							"internalType": "bytes",
							"name": "blockHeader",
							"type": "bytes"
						},
						{
							"internalType": "bytes",
							"name": "accountProof",
							"type": "bytes"
						}
					],
					"name": "importForeignBridgeState",
					"outputs": [],
					"stateMutability": "nonpayable",
					"type": "function"
				},
				{
					"inputs": [
						{
							"internalType": "bytes32",
							"name": "_blockHash",
							"type": "bytes32"
						},
						{
							"internalType": "bytes32",
							"name": "_stateRoot",
							"type": "bytes32"
						}
					],
					"name": "initGenesis",
					"outputs": [],
					"stateMutability": "nonpayable",
					"type": "function"
				},
				{
					"inputs": [],
					"name": "messageOrigin",
					"outputs": [
						{
							"internalType": "address",
							"name": "",
							"type": "address"
						}
					],
					"stateMutability": "view",
					"type": "function"
				},
				{
					"inputs": [],
					"name": "multicall",
					"outputs": [],
					"stateMutability": "nonpayable",
					"type": "function"
				},
				{
					"inputs": [
						{
							"internalType": "bytes32",
							"name": "",
							"type": "bytes32"
						}
					],
					"name": "stateRoots",
					"outputs": [
						{
							"internalType": "bytes32",
							"name": "",
							"type": "bytes32"
						}
					],
					"stateMutability": "view",
					"type": "function"
				},
				{
					"inputs": [
						{
							"internalType": "bytes",
							"name": "witness",
							"type": "bytes"
						}
					],
					"name": "submitBlock",
					"outputs": [],
					"stateMutability": "nonpayable",
					"type": "function"
				}
			],
			"devdoc": {
				"kind": "dev",
				"methods": {
					"dispatchMessage(address,uint256,uint256,uint256,bytes)": {
						"params": {
							"data": "The calldata to be used when calling `to`.",
							"deadline": "This message is valid **before** the deadline and can be dropped **after** the deadline. In seconds since Unix Epoch.",
							"fee": "Amount to be paid to the account that delivers this message on the destination chain. Deducted from `msg.value`.",
							"nonce": "A random value that can be used to avoid collisions for identical but distinct messages. Has no other purpose.",
							"to": "The address of the account/contract to call and transfer `msg.value - fee`."
						},
						"returns": {
							"messageHash": "`keccak256(abi.encode(msg.sender, to, value, fee, deadline, nonce, data))`. Please note that only one message with the same hash can be dispatched at the same time. A message hash is not unique in the sense that it can reappear once a previous message was delivered or dropped."
						}
					},
					"finalizeBlock(bytes)": {
						"details": "proof layout (bytes) - block hash - verifier address (TODO: should be checked against allowed verifier addresses) - proof instance - first 5 elements commitment - proof transcript"
					},
					"initGenesis(bytes32,bytes32)": {
						"details": "For testing purposes"
					}
				},
				"version": 1
			},
			"evm": {
				"assembly": "    /* \"contracts/ZkEvmL1Bridge.sol\":591:7121  contract ZkEvmL1Bridge is... */\n  mstore(0x40, 0x80)\n  callvalue\n  dup1\n  iszero\n  tag_1\n  jumpi\n  0x00\n  dup1\n  revert\ntag_1:\n  pop\n  dataSize(sub_0)\n  dup1\n  dataOffset(sub_0)\n  0x00\n  codecopy\n  0x00\n  return\nstop\n\nsub_0: assembly {\n        /* \"contracts/ZkEvmL1Bridge.sol\":591:7121  contract ZkEvmL1Bridge is... */\n      mstore(0x40, 0x80)\n      jumpi(tag_1, lt(calldatasize, 0x04))\n      shr(0xe0, calldataload(0x00))\n      dup1\n      0x5d4d3bcd\n      gt\n      tag_14\n      jumpi\n      dup1\n      0x5d4d3bcd\n      eq\n      tag_8\n      jumpi\n      dup1\n      0x601333d1\n      eq\n      tag_9\n      jumpi\n      dup1\n      0x6e94aac5\n      eq\n      tag_10\n      jumpi\n      dup1\n      0x8dfbfead\n      eq\n      tag_11\n      jumpi\n      dup1\n      0x94907e7e\n      eq\n      tag_12\n      jumpi\n      dup1\n      0xd5107381\n      eq\n      tag_13\n      jumpi\n      0x00\n      dup1\n      revert\n    tag_14:\n      dup1\n      0x1cdcf85a\n      eq\n      tag_2\n      jumpi\n      dup1\n      0x1d7161a2\n      eq\n      tag_3\n      jumpi\n      dup1\n      0x2822697b\n      eq\n      tag_4\n      jumpi\n      dup1\n      0x312faf74\n      eq\n      tag_5\n      jumpi\n      dup1\n      0x3b1623fe\n      eq\n      tag_6\n      jumpi\n      dup1\n      0x594a90ba\n      eq\n      tag_7\n      jumpi\n    tag_1:\n      0x00\n      dup1\n      revert\n        /* \"contracts/Multicall.sol\":263:786  function multicall () external {... */\n    tag_2:\n      callvalue\n      dup1\n      iszero\n      tag_15\n      jumpi\n      0x00\n      dup1\n      revert\n    tag_15:\n      pop\n      tag_16\n      tag_17\n      jump\t// in\n    tag_16:\n      stop\n        /* \"contracts/ZkEvmL1Bridge.sol\":996:1042  mapping (bytes32 => bytes32) public stateRoots */\n    tag_3:\n      callvalue\n      dup1\n      iszero\n      tag_18\n      jumpi\n      0x00\n      dup1\n      revert\n    tag_18:\n      pop\n      tag_19\n      tag_20\n      calldatasize\n      0x04\n      tag_21\n      jump\t// in\n    tag_20:\n      mstore(0x20, 0x02)\n      0x00\n      swap1\n      dup2\n      mstore\n      0x40\n      swap1\n      keccak256\n      sload\n      dup2\n      jump\n    tag_19:\n      mload(0x40)\n        /* \"#utility.yul\":345:370   */\n      swap1\n      dup2\n      mstore\n        /* \"#utility.yul\":333:335   */\n      0x20\n        /* \"#utility.yul\":318:336   */\n      add\n        /* \"contracts/ZkEvmL1Bridge.sol\":996:1042  mapping (bytes32 => bytes32) public stateRoots */\n    tag_23:\n      mload(0x40)\n      dup1\n      swap2\n      sub\n      swap1\n      return\n        /* \"contracts/ZkEvmL1Bridge.sol\":6304:6966  function dropMessage (... */\n    tag_4:\n      callvalue\n      dup1\n      iszero\n      tag_25\n      jumpi\n      0x00\n      dup1\n      revert\n    tag_25:\n      pop\n      tag_16\n      tag_27\n      calldatasize\n      0x04\n      tag_28\n      jump\t// in\n    tag_27:\n      tag_29\n      jump\t// in\n        /* \"contracts/ZkEvmL1Bridge.sol\":5077:5196  function getTimestampForStorageRoot (bytes32 val) public view returns (uint256) {... */\n    tag_5:\n      callvalue\n      dup1\n      iszero\n      tag_30\n      jumpi\n      0x00\n      dup1\n      revert\n    tag_30:\n      pop\n      tag_19\n      tag_32\n      calldatasize\n      0x04\n      tag_21\n      jump\t// in\n    tag_32:\n        /* \"contracts/ZkEvmL1Bridge.sol\":5148:5155  uint256 */\n      0x00\n        /* \"contracts/ZkEvmL1Bridge.sol\":5170:5191  originTimestamps[val] */\n      swap1\n      dup2\n      mstore\n        /* \"contracts/ZkEvmL1Bridge.sol\":5170:5186  originTimestamps */\n      0x03\n        /* \"contracts/ZkEvmL1Bridge.sol\":5170:5191  originTimestamps[val] */\n      0x20\n      mstore\n      0x40\n      swap1\n      keccak256\n      sload\n      swap1\n        /* \"contracts/ZkEvmL1Bridge.sol\":5077:5196  function getTimestampForStorageRoot (bytes32 val) public view returns (uint256) {... */\n      jump\n        /* \"contracts/ZkEvmMessageDelivererBase.sol\":406:496  function messageOrigin () external view returns (address) {... */\n    tag_6:\n      callvalue\n      dup1\n      iszero\n      tag_36\n      jumpi\n      0x00\n      dup1\n      revert\n    tag_36:\n      pop\n        /* \"contracts/ZkEvmMessageDelivererBase.sol\":455:462  address */\n      0x00\n        /* \"contracts/ZkEvmMessageDelivererBase.sol\":477:491  _messageOrigin */\n      sload\n        /* \"contracts/ZkEvmMessageDelivererBase.sol\":406:496  function messageOrigin () external view returns (address) {... */\n      mload(0x40)\n      sub(shl(0xa0, 0x01), 0x01)\n        /* \"contracts/ZkEvmMessageDelivererBase.sol\":477:491  _messageOrigin */\n      swap1\n      swap2\n      and\n        /* \"#utility.yul\":2386:2437   */\n      dup2\n      mstore\n        /* \"#utility.yul\":2374:2376   */\n      0x20\n        /* \"#utility.yul\":2359:2377   */\n      add\n        /* \"contracts/ZkEvmMessageDelivererBase.sol\":406:496  function messageOrigin () external view returns (address) {... */\n      tag_23\n        /* \"#utility.yul\":2240:2443   */\n      jump\n        /* \"contracts/ZkEvmL1Bridge.sol\":1096:1584  function buildCommitment(bytes calldata witness) public view returns (uint256[] memory result) {... */\n    tag_7:\n      callvalue\n      dup1\n      iszero\n      tag_41\n      jumpi\n      0x00\n      dup1\n      revert\n    tag_41:\n      pop\n      tag_42\n      tag_43\n      calldatasize\n      0x04\n      tag_44\n      jump\t// in\n    tag_43:\n      tag_45\n      jump\t// in\n    tag_42:\n      mload(0x40)\n      tag_23\n      swap2\n      swap1\n      tag_47\n      jump\t// in\n        /* \"contracts/ZkEvmL1Bridge.sol\":6009:6258  function dispatchMessage (... */\n    tag_8:\n      tag_19\n      tag_49\n      calldatasize\n      0x04\n      tag_50\n      jump\t// in\n    tag_49:\n      tag_51\n      jump\t// in\n        /* \"contracts/ZkEvmL1Bridge.sol\":7002:7119  function initGenesis (bytes32 _blockHash, bytes32 _stateRoot) external {... */\n    tag_9:\n      callvalue\n      dup1\n      iszero\n      tag_53\n      jumpi\n      0x00\n      dup1\n      revert\n    tag_53:\n      pop\n      tag_16\n      tag_55\n      calldatasize\n      0x04\n      tag_56\n      jump\t// in\n    tag_55:\n        /* \"contracts/ZkEvmL1Bridge.sol\":7079:7101  stateRoots[_blockHash] */\n      0x00\n      swap2\n      dup3\n      mstore\n        /* \"contracts/ZkEvmL1Bridge.sol\":7079:7089  stateRoots */\n      0x02\n        /* \"contracts/ZkEvmL1Bridge.sol\":7079:7101  stateRoots[_blockHash] */\n      0x20\n      mstore\n      0x40\n      swap1\n      swap2\n      keccak256\n        /* \"contracts/ZkEvmL1Bridge.sol\":7079:7114  stateRoots[_blockHash] = _stateRoot */\n      sstore\n        /* \"contracts/ZkEvmL1Bridge.sol\":7002:7119  function initGenesis (bytes32 _blockHash, bytes32 _stateRoot) external {... */\n      jump\n        /* \"contracts/ZkEvmL1Bridge.sol\":5250:5963  function importForeignBridgeState (bytes calldata blockHeader, bytes calldata accountProof) external {... */\n    tag_10:\n      callvalue\n      dup1\n      iszero\n      tag_58\n      jumpi\n      0x00\n      dup1\n      revert\n    tag_58:\n      pop\n      tag_16\n      tag_60\n      calldatasize\n      0x04\n      tag_61\n      jump\t// in\n    tag_60:\n      tag_62\n      jump\t// in\n        /* \"contracts/ZkEvmL1Bridge.sol\":4379:5023  function deliverMessageWithProof (... */\n    tag_11:\n      callvalue\n      dup1\n      iszero\n      tag_63\n      jumpi\n      0x00\n      dup1\n      revert\n    tag_63:\n      pop\n      tag_16\n      tag_65\n      calldatasize\n      0x04\n      tag_28\n      jump\t// in\n    tag_65:\n      tag_66\n      jump\t// in\n        /* \"contracts/ZkEvmL1Bridge.sol\":2566:4325  function finalizeBlock (bytes calldata proof) external {... */\n    tag_12:\n      callvalue\n      dup1\n      iszero\n      tag_67\n      jumpi\n      0x00\n      dup1\n      revert\n    tag_67:\n      pop\n      tag_16\n      tag_69\n      calldatasize\n      0x04\n      tag_44\n      jump\t// in\n    tag_69:\n      tag_70\n      jump\t// in\n        /* \"contracts/ZkEvmL1Bridge.sol\":1588:2341  function submitBlock (bytes calldata witness) external {... */\n    tag_13:\n      callvalue\n      dup1\n      iszero\n      tag_71\n      jumpi\n      0x00\n      dup1\n      revert\n    tag_71:\n      pop\n      tag_16\n      tag_73\n      calldatasize\n      0x04\n      tag_44\n      jump\t// in\n    tag_73:\n      tag_74\n      jump\t// in\n        /* \"contracts/Multicall.sol\":263:786  function multicall () external {... */\n    tag_17:\n        /* \"contracts/Multicall.sol\":385:386  4 */\n      0x04\n      dup1\n        /* \"contracts/Multicall.sol\":368:762  for { let ptr := 4 } lt(ptr, calldatasize()) {} {... */\n    tag_76:\n        /* \"contracts/Multicall.sol\":397:411  calldatasize() */\n      calldatasize\n        /* \"contracts/Multicall.sol\":392:395  ptr */\n      dup2\n        /* \"contracts/Multicall.sol\":389:412  lt(ptr, calldatasize()) */\n      lt\n        /* \"contracts/Multicall.sol\":368:762  for { let ptr := 4 } lt(ptr, calldatasize()) {} {... */\n      iszero\n      tag_16\n      jumpi\n        /* \"contracts/Multicall.sol\":459:462  ptr */\n      dup1\n        /* \"contracts/Multicall.sol\":446:463  calldataload(ptr) */\n      calldataload\n        /* \"contracts/Multicall.sol\":441:444  224 */\n      0xe0\n        /* \"contracts/Multicall.sol\":437:464  shr(224, calldataload(ptr)) */\n      shr\n        /* \"contracts/Multicall.sol\":513:514  0 */\n      0x00\n        /* \"contracts/Multicall.sol\":521:524  len */\n      dup2\n        /* \"contracts/Multicall.sol\":385:386  4 */\n      dup5\n        /* \"contracts/Multicall.sol\":484:487  ptr */\n      dup5\n        /* \"contracts/Multicall.sol\":480:491  add(ptr, 4) */\n      add\n        /* \"contracts/Multicall.sol\":513:514  0 */\n      dup3\n        /* \"contracts/Multicall.sol\":500:525  calldatacopy(0, ptr, len) */\n      calldatacopy\n        /* \"contracts/Multicall.sol\":541:554  add(ptr, len) */\n      swap2\n      dup2\n      add\n      dup4\n      add\n      swap2\n        /* \"contracts/Multicall.sol\":513:514  0 */\n      dup1\n      dup1\n        /* \"contracts/Multicall.sol\":550:553  len */\n      dup4\n        /* \"contracts/Multicall.sol\":513:514  0 */\n      dup2\n      dup1\n        /* \"contracts/Multicall.sol\":590:599  address() */\n      address\n        /* \"contracts/Multicall.sol\":583:588  gas() */\n      gas\n        /* \"contracts/Multicall.sol\":578:617  call(gas(), address(), 0, 0, len, 0, 0) */\n      call\n        /* \"contracts/Multicall.sol\":626:754  switch success... */\n      tag_79\n      jumpi\n        /* \"contracts/Multicall.sol\":689:705  returndatasize() */\n      returndatasize\n        /* \"contracts/Multicall.sol\":513:514  0 */\n      dup2\n      dup3\n        /* \"contracts/Multicall.sol\":668:706  returndatacopy(0, 0, returndatasize()) */\n      returndatacopy\n        /* \"contracts/Multicall.sol\":727:743  returndatasize() */\n      returndatasize\n        /* \"contracts/Multicall.sol\":513:514  0 */\n      dup2\n        /* \"contracts/Multicall.sol\":717:744  revert(0, returndatasize()) */\n      revert\n        /* \"contracts/Multicall.sol\":626:754  switch success... */\n    tag_79:\n      pop\n      pop\n        /* \"contracts/Multicall.sol\":368:762  for { let ptr := 4 } lt(ptr, calldatasize()) {} {... */\n      jump(tag_76)\n        /* \"contracts/ZkEvmL1Bridge.sol\":6304:6966  function dropMessage (... */\n    tag_29:\n        /* \"contracts/ZkEvmL1Bridge.sol\":6507:6526  bytes32 messageHash */\n      0x00\n        /* \"contracts/ZkEvmL1Bridge.sol\":6550:6554  from */\n      dup11\n        /* \"contracts/ZkEvmL1Bridge.sol\":6556:6558  to */\n      dup11\n        /* \"contracts/ZkEvmL1Bridge.sol\":6560:6565  value */\n      dup11\n        /* \"contracts/ZkEvmL1Bridge.sol\":6567:6570  fee */\n      dup11\n        /* \"contracts/ZkEvmL1Bridge.sol\":6572:6580  deadline */\n      dup11\n        /* \"contracts/ZkEvmL1Bridge.sol\":6582:6587  nonce */\n      dup11\n        /* \"contracts/ZkEvmL1Bridge.sol\":6589:6593  data */\n      dup11\n      dup11\n        /* \"contracts/ZkEvmL1Bridge.sol\":6539:6594  abi.encode(from, to, value, fee, deadline, nonce, data) */\n      add(0x20, mload(0x40))\n      tag_81\n      swap9\n      swap8\n      swap7\n      swap6\n      swap5\n      swap4\n      swap3\n      swap2\n      swap1\n      tag_82\n      jump\t// in\n    tag_81:\n      mload(0x40)\n      0x20\n      dup2\n      dup4\n      sub\n      sub\n      dup2\n      mstore\n      swap1\n      0x40\n      mstore\n        /* \"contracts/ZkEvmL1Bridge.sol\":6529:6595  keccak256(abi.encode(from, to, value, fee, deadline, nonce, data)) */\n      dup1\n      mload\n      swap1\n      0x20\n      add\n      keccak256\n        /* \"contracts/ZkEvmL1Bridge.sol\":6507:6595  bytes32 messageHash = keccak256(abi.encode(from, to, value, fee, deadline, nonce, data)) */\n      swap1\n      pop\n        /* \"contracts/ZkEvmL1Bridge.sol\":6602:6626  bytes32 proofStorageRoot */\n      0x00\n        /* \"contracts/ZkEvmL1Bridge.sol\":6628:6648  bytes32 storageValue */\n      dup1\n        /* \"contracts/ZkEvmL1Bridge.sol\":6652:6741  _validatePatriciaStorageProof(... */\n      tag_83\n        /* \"contracts/ZkEvmL1Bridge.sol\":6689:6722  _PENDING_MESSAGE_KEY(messageHash) */\n      tag_84\n        /* \"contracts/ZkEvmL1Bridge.sol\":6710:6721  messageHash */\n      dup5\n        /* \"contracts/ZkEvmStorage.sol\":268:278  0x31df76a4 */\n      0x31df76a4\n        /* \"contracts/ZkEvmStorage.sol\":222:233  bytes32 ret */\n      0x00\n        /* \"contracts/ZkEvmStorage.sol\":258:279  mstore(0, 0x31df76a4) */\n      swap1\n      dup2\n      mstore\n        /* \"contracts/ZkEvmStorage.sol\":293:295  32 */\n      0x20\n        /* \"contracts/ZkEvmStorage.sol\":286:307  mstore(32, messageId) */\n      swap2\n      swap1\n      swap2\n      mstore\n        /* \"contracts/ZkEvmStorage.sol\":334:336  64 */\n      0x40\n        /* \"contracts/ZkEvmStorage.sol\":321:337  keccak256(0, 64) */\n      swap1\n      keccak256\n      swap1\n        /* \"contracts/ZkEvmStorage.sol\":149:347  function _PENDING_MESSAGE_KEY (bytes32 messageId) internal pure returns (bytes32 ret) {... */\n      jump\n        /* \"contracts/ZkEvmL1Bridge.sol\":6689:6722  _PENDING_MESSAGE_KEY(messageHash) */\n    tag_84:\n        /* \"contracts/ZkEvmL1Bridge.sol\":6730:6735  proof */\n      dup7\n      dup7\n        /* \"contracts/ZkEvmL1Bridge.sol\":6652:6681  _validatePatriciaStorageProof */\n      tag_86\n        /* \"contracts/ZkEvmL1Bridge.sol\":6652:6741  _validatePatriciaStorageProof(... */\n      jump\t// in\n    tag_83:\n        /* \"contracts/ZkEvmL1Bridge.sol\":6601:6741  (bytes32 proofStorageRoot, bytes32 storageValue) = _validatePatriciaStorageProof(... */\n      swap1\n      swap3\n      pop\n      swap1\n      pop\n        /* \"contracts/ZkEvmL1Bridge.sol\":6755:6772  storageValue == 0 */\n      dup1\n      iszero\n        /* \"contracts/ZkEvmL1Bridge.sol\":6747:6782  require(storageValue == 0, 'DMVAL') */\n      tag_87\n      jumpi\n      mload(0x40)\n      shl(0xe5, 0x461bcd)\n      dup2\n      mstore\n        /* \"#utility.yul\":6272:6274   */\n      0x20\n        /* \"contracts/ZkEvmL1Bridge.sol\":6747:6782  require(storageValue == 0, 'DMVAL') */\n      0x04\n      dup3\n      add\n        /* \"#utility.yul\":6254:6275   */\n      mstore\n        /* \"#utility.yul\":6311:6312   */\n      0x05\n        /* \"#utility.yul\":6291:6309   */\n      0x24\n      dup3\n      add\n        /* \"#utility.yul\":6284:6313   */\n      mstore\n      shl(0xda, 0x1113559053)\n        /* \"#utility.yul\":6329:6347   */\n      0x44\n      dup3\n      add\n        /* \"#utility.yul\":6322:6357   */\n      mstore\n        /* \"#utility.yul\":6374:6392   */\n      0x64\n      add\n        /* \"contracts/ZkEvmL1Bridge.sol\":6747:6782  require(storageValue == 0, 'DMVAL') */\n    tag_88:\n      mload(0x40)\n      dup1\n      swap2\n      sub\n      swap1\n      revert\n    tag_87:\n        /* \"contracts/ZkEvmL1Bridge.sol\":6788:6811  uint256 originTimestamp */\n      0x00\n        /* \"contracts/ZkEvmL1Bridge.sol\":6814:6848  originTimestamps[proofStorageRoot] */\n      dup3\n      dup2\n      mstore\n        /* \"contracts/ZkEvmL1Bridge.sol\":6814:6830  originTimestamps */\n      0x03\n        /* \"contracts/ZkEvmL1Bridge.sol\":6814:6848  originTimestamps[proofStorageRoot] */\n      0x20\n      mstore\n      0x40\n      swap1\n      keccak256\n      sload\n        /* \"contracts/ZkEvmL1Bridge.sol\":6862:6888  originTimestamp > deadline */\n      dup10\n      dup2\n      gt\n        /* \"contracts/ZkEvmL1Bridge.sol\":6854:6897  require(originTimestamp > deadline, 'DMTS') */\n      tag_90\n      jumpi\n      mload(0x40)\n      shl(0xe5, 0x461bcd)\n      dup2\n      mstore\n      0x04\n      add\n      tag_88\n      swap1\n        /* \"#utility.yul\":6605:6607   */\n      0x20\n        /* \"#utility.yul\":6587:6608   */\n      dup1\n      dup3\n      mstore\n        /* \"#utility.yul\":6644:6645   */\n      0x04\n        /* \"#utility.yul\":6624:6642   */\n      swap1\n      dup3\n      add\n        /* \"#utility.yul\":6617:6646   */\n      mstore\n      shl(0xe0, 0x444d5453)\n        /* \"#utility.yul\":6677:6679   */\n      0x40\n        /* \"#utility.yul\":6662:6680   */\n      dup3\n      add\n        /* \"#utility.yul\":6655:6689   */\n      mstore\n        /* \"#utility.yul\":6721:6723   */\n      0x60\n        /* \"#utility.yul\":6706:6724   */\n      add\n      swap1\n        /* \"#utility.yul\":6403:6730   */\n      jump\n        /* \"contracts/ZkEvmL1Bridge.sol\":6854:6897  require(originTimestamp > deadline, 'DMTS') */\n    tag_90:\n        /* \"contracts/ZkEvmL1Bridge.sol\":6904:6961  _dropMessage(from, to, value, fee, deadline, nonce, data) */\n      tag_93\n        /* \"contracts/ZkEvmL1Bridge.sol\":6917:6921  from */\n      dup15\n        /* \"contracts/ZkEvmL1Bridge.sol\":6923:6925  to */\n      dup15\n        /* \"contracts/ZkEvmL1Bridge.sol\":6927:6932  value */\n      dup15\n        /* \"contracts/ZkEvmL1Bridge.sol\":6934:6937  fee */\n      dup15\n        /* \"contracts/ZkEvmL1Bridge.sol\":6939:6947  deadline */\n      dup15\n        /* \"contracts/ZkEvmL1Bridge.sol\":6949:6954  nonce */\n      dup15\n        /* \"contracts/ZkEvmL1Bridge.sol\":6956:6960  data */\n      dup15\n      dup15\n        /* \"contracts/ZkEvmL1Bridge.sol\":6904:6916  _dropMessage */\n      tag_94\n        /* \"contracts/ZkEvmL1Bridge.sol\":6904:6961  _dropMessage(from, to, value, fee, deadline, nonce, data) */\n      jump\t// in\n    tag_93:\n        /* \"contracts/ZkEvmL1Bridge.sol\":6501:6966  {... */\n      pop\n      pop\n      pop\n      pop\n        /* \"contracts/ZkEvmL1Bridge.sol\":6304:6966  function dropMessage (... */\n      pop\n      pop\n      pop\n      pop\n      pop\n      pop\n      pop\n      pop\n      pop\n      pop\n      jump\t// out\n        /* \"contracts/ZkEvmL1Bridge.sol\":1096:1584  function buildCommitment(bytes calldata witness) public view returns (uint256[] memory result) {... */\n    tag_45:\n        /* \"contracts/ZkEvmL1Bridge.sol\":1166:1189  uint256[] memory result */\n      0x60\n        /* \"contracts/ZkEvmL1Bridge.sol\":1205:1228  bytes32 parentBlockHash */\n      0x00\n        /* \"contracts/ZkEvmL1Bridge.sol\":1260:1276  uint256 blockGas */\n      dup1\n        /* \"contracts/ZkEvmL1Bridge.sol\":1286:1311  _readHeaderParts(witness) */\n      tag_98\n        /* \"contracts/ZkEvmL1Bridge.sol\":1303:1310  witness */\n      dup6\n      dup6\n        /* \"contracts/ZkEvmL1Bridge.sol\":1286:1302  _readHeaderParts */\n      tag_99\n        /* \"contracts/ZkEvmL1Bridge.sol\":1286:1311  _readHeaderParts(witness) */\n      jump\t// in\n    tag_98:\n      pop\n        /* \"contracts/ZkEvmL1Bridge.sol\":1317:1340  uint256 parentStateRoot */\n      0x00\n        /* \"contracts/ZkEvmL1Bridge.sol\":1351:1378  stateRoots[parentBlockHash] */\n      dup6\n      dup2\n      mstore\n        /* \"contracts/ZkEvmL1Bridge.sol\":1351:1361  stateRoots */\n      0x02\n        /* \"contracts/ZkEvmL1Bridge.sol\":1351:1378  stateRoots[parentBlockHash] */\n      0x20\n      mstore\n      0x40\n      dup2\n      keccak256\n      sload\n        /* \"contracts/ZkEvmL1Bridge.sol\":1197:1311  (... */\n      swap6\n      swap8\n      pop\n      swap1\n      swap6\n      pop\n        /* \"contracts/ZkEvmL1Bridge.sol\":1403:1408  53077 */\n      0xcf55\n      swap4\n      pop\n        /* \"contracts/ZkEvmL1Bridge.sol\":1317:1340  uint256 parentStateRoot */\n      swap2\n      pop\n      dup2\n      swap1\n      pop\n        /* \"contracts/ZkEvmL1Bridge.sol\":1456:1483  _getCircuitConfig(blockGas) */\n      tag_100\n        /* \"contracts/ZkEvmL1Bridge.sol\":1197:1311  (... */\n      dup6\n        /* \"contracts/ZkEvmL1Bridge.sol\":1456:1473  _getCircuitConfig */\n      tag_101\n        /* \"contracts/ZkEvmL1Bridge.sol\":1456:1483  _getCircuitConfig(blockGas) */\n      jump\t// in\n    tag_100:\n        /* \"contracts/ZkEvmL1Bridge.sol\":1414:1483  (uint256 MAX_TXS, uint256 MAX_CALLDATA) = _getCircuitConfig(blockGas) */\n      swap2\n      pop\n      swap2\n      pop\n        /* \"contracts/ZkEvmL1Bridge.sol\":1499:1579  _buildCommitment(MAX_TXS, MAX_CALLDATA, chainId, parentStateRoot, witness, true) */\n      tag_102\n        /* \"contracts/ZkEvmL1Bridge.sol\":1516:1523  MAX_TXS */\n      dup3\n        /* \"contracts/ZkEvmL1Bridge.sol\":1525:1537  MAX_CALLDATA */\n      dup3\n        /* \"contracts/ZkEvmL1Bridge.sol\":1539:1546  chainId */\n      dup6\n        /* \"contracts/ZkEvmL1Bridge.sol\":1548:1563  parentStateRoot */\n      dup8\n        /* \"contracts/ZkEvmL1Bridge.sol\":1565:1572  witness */\n      dup14\n      dup14\n        /* \"contracts/ZkEvmL1Bridge.sol\":1574:1578  true */\n      0x01\n        /* \"contracts/ZkEvmL1Bridge.sol\":1499:1515  _buildCommitment */\n      tag_103\n        /* \"contracts/ZkEvmL1Bridge.sol\":1499:1579  _buildCommitment(MAX_TXS, MAX_CALLDATA, chainId, parentStateRoot, witness, true) */\n      jump\t// in\n    tag_102:\n        /* \"contracts/ZkEvmL1Bridge.sol\":1490:1579  result = _buildCommitment(MAX_TXS, MAX_CALLDATA, chainId, parentStateRoot, witness, true) */\n      swap10\n        /* \"contracts/ZkEvmL1Bridge.sol\":1096:1584  function buildCommitment(bytes calldata witness) public view returns (uint256[] memory result) {... */\n      swap9\n      pop\n      pop\n      pop\n      pop\n      pop\n      pop\n      pop\n      pop\n      pop\n      jump\t// out\n        /* \"contracts/ZkEvmL1Bridge.sol\":6009:6258  function dispatchMessage (... */\n    tag_51:\n        /* \"contracts/ZkEvmL1Bridge.sol\":6164:6183  bytes32 messageHash */\n      0x00\n        /* \"contracts/ZkEvmL1Bridge.sol\":6205:6253  _dispatchMessage(to, fee, deadline, nonce, data) */\n      tag_105\n        /* \"contracts/ZkEvmL1Bridge.sol\":6222:6224  to */\n      dup8\n        /* \"contracts/ZkEvmL1Bridge.sol\":6226:6229  fee */\n      dup8\n        /* \"contracts/ZkEvmL1Bridge.sol\":6231:6239  deadline */\n      dup8\n        /* \"contracts/ZkEvmL1Bridge.sol\":6241:6246  nonce */\n      dup8\n        /* \"contracts/ZkEvmL1Bridge.sol\":6248:6252  data */\n      dup8\n      dup8\n        /* \"contracts/ZkEvmL1Bridge.sol\":6205:6221  _dispatchMessage */\n      tag_106\n        /* \"contracts/ZkEvmL1Bridge.sol\":6205:6253  _dispatchMessage(to, fee, deadline, nonce, data) */\n      jump\t// in\n    tag_105:\n        /* \"contracts/ZkEvmL1Bridge.sol\":6191:6253  messageHash = _dispatchMessage(to, fee, deadline, nonce, data) */\n      swap8\n        /* \"contracts/ZkEvmL1Bridge.sol\":6009:6258  function dispatchMessage (... */\n      swap7\n      pop\n      pop\n      pop\n      pop\n      pop\n      pop\n      pop\n      jump\t// out\n        /* \"contracts/ZkEvmL1Bridge.sol\":5250:5963  function importForeignBridgeState (bytes calldata blockHeader, bytes calldata accountProof) external {... */\n    tag_62:\n        /* \"contracts/ZkEvmL1Bridge.sol\":5373:5390  bytes32 blockHash */\n      0x00\n        /* \"contracts/ZkEvmL1Bridge.sol\":5422:5439  uint256 timestamp */\n      dup1\n        /* \"contracts/ZkEvmL1Bridge.sol\":5448:5477  _readHeaderParts(blockHeader) */\n      tag_109\n        /* \"contracts/ZkEvmL1Bridge.sol\":5465:5476  blockHeader */\n      dup7\n      dup7\n        /* \"contracts/ZkEvmL1Bridge.sol\":5448:5464  _readHeaderParts */\n      tag_99\n        /* \"contracts/ZkEvmL1Bridge.sol\":5448:5477  _readHeaderParts(blockHeader) */\n      jump\t// in\n    tag_109:\n        /* \"contracts/ZkEvmL1Bridge.sol\":5357:5477  (... */\n      swap6\n      pop\n      pop\n      pop\n      pop\n      swap3\n      pop\n      pop\n        /* \"contracts/ZkEvmL1Bridge.sol\":5485:5507  bytes32 proofStateRoot */\n      0x00\n        /* \"contracts/ZkEvmL1Bridge.sol\":5509:5533  bytes32 proofStorageRoot */\n      dup1\n        /* \"contracts/ZkEvmL1Bridge.sol\":5537:5613  _validatePatriciaAccountProof(... */\n      tag_110\n        /* \"contracts/ZkEvmMagicNumbers.sol\":251:293  0x0000000000000000000000000000000000020000 */\n      0x020000\n        /* \"contracts/ZkEvmL1Bridge.sol\":5595:5607  accountProof */\n      dup8\n      dup8\n        /* \"contracts/ZkEvmL1Bridge.sol\":5537:5566  _validatePatriciaAccountProof */\n      tag_111\n        /* \"contracts/ZkEvmL1Bridge.sol\":5537:5613  _validatePatriciaAccountProof(... */\n      jump\t// in\n    tag_110:\n        /* \"contracts/ZkEvmL1Bridge.sol\":5619:5636  bytes32 stateRoot */\n      0x00\n        /* \"contracts/ZkEvmL1Bridge.sol\":5639:5660  stateRoots[blockHash] */\n      dup7\n      dup2\n      mstore\n        /* \"contracts/ZkEvmL1Bridge.sol\":5639:5649  stateRoots */\n      0x02\n        /* \"contracts/ZkEvmL1Bridge.sol\":5639:5660  stateRoots[blockHash] */\n      0x20\n      mstore\n      0x40\n      dup2\n      keccak256\n      sload\n        /* \"contracts/ZkEvmL1Bridge.sol\":5484:5613  (bytes32 proofStateRoot, bytes32 proofStorageRoot) = _validatePatriciaAccountProof(... */\n      swap3\n      swap5\n      pop\n      swap1\n      swap3\n      pop\n        /* \"contracts/ZkEvmL1Bridge.sol\":5674:5688  stateRoot != 0 */\n      dup2\n      swap1\n      sub\n        /* \"contracts/ZkEvmL1Bridge.sol\":5666:5698  require(stateRoot != 0, 'BLOCK') */\n      tag_112\n      jumpi\n      mload(0x40)\n      shl(0xe5, 0x461bcd)\n      dup2\n      mstore\n        /* \"#utility.yul\":6937:6939   */\n      0x20\n        /* \"contracts/ZkEvmL1Bridge.sol\":5666:5698  require(stateRoot != 0, 'BLOCK') */\n      0x04\n      dup3\n      add\n        /* \"#utility.yul\":6919:6940   */\n      mstore\n        /* \"#utility.yul\":6976:6977   */\n      0x05\n        /* \"#utility.yul\":6956:6974   */\n      0x24\n      dup3\n      add\n        /* \"#utility.yul\":6949:6978   */\n      mstore\n      shl(0xd8, 0x424c4f434b)\n        /* \"#utility.yul\":6994:7012   */\n      0x44\n      dup3\n      add\n        /* \"#utility.yul\":6987:7022   */\n      mstore\n        /* \"#utility.yul\":7039:7057   */\n      0x64\n      add\n        /* \"contracts/ZkEvmL1Bridge.sol\":5666:5698  require(stateRoot != 0, 'BLOCK') */\n      tag_88\n        /* \"#utility.yul\":6735:7063   */\n      jump\n        /* \"contracts/ZkEvmL1Bridge.sol\":5666:5698  require(stateRoot != 0, 'BLOCK') */\n    tag_112:\n        /* \"contracts/ZkEvmL1Bridge.sol\":5730:5739  stateRoot */\n      dup1\n        /* \"contracts/ZkEvmL1Bridge.sol\":5712:5726  proofStateRoot */\n      dup4\n        /* \"contracts/ZkEvmL1Bridge.sol\":5712:5739  proofStateRoot == stateRoot */\n      eq\n        /* \"contracts/ZkEvmL1Bridge.sol\":5704:5750  require(proofStateRoot == stateRoot, 'IBROOT') */\n      tag_115\n      jumpi\n      mload(0x40)\n      shl(0xe5, 0x461bcd)\n      dup2\n      mstore\n        /* \"#utility.yul\":7270:7272   */\n      0x20\n        /* \"contracts/ZkEvmL1Bridge.sol\":5704:5750  require(proofStateRoot == stateRoot, 'IBROOT') */\n      0x04\n      dup3\n      add\n        /* \"#utility.yul\":7252:7273   */\n      mstore\n        /* \"#utility.yul\":7309:7310   */\n      0x06\n        /* \"#utility.yul\":7289:7307   */\n      0x24\n      dup3\n      add\n        /* \"#utility.yul\":7282:7311   */\n      mstore\n      shl(0xd2, 0x12509493d3d5)\n        /* \"#utility.yul\":7327:7345   */\n      0x44\n      dup3\n      add\n        /* \"#utility.yul\":7320:7356   */\n      mstore\n        /* \"#utility.yul\":7373:7391   */\n      0x64\n      add\n        /* \"contracts/ZkEvmL1Bridge.sol\":5704:5750  require(proofStateRoot == stateRoot, 'IBROOT') */\n      tag_88\n        /* \"#utility.yul\":7068:7397   */\n      jump\n        /* \"contracts/ZkEvmL1Bridge.sol\":5704:5750  require(proofStateRoot == stateRoot, 'IBROOT') */\n    tag_115:\n        /* \"contracts/ZkEvmL1Bridge.sol\":5784:5785  0 */\n      0x00\n        /* \"contracts/ZkEvmL1Bridge.sol\":5764:5785  proofStorageRoot != 0 */\n      dup3\n      swap1\n      sub\n        /* \"contracts/ZkEvmL1Bridge.sol\":5756:5798  require(proofStorageRoot != 0, 'IBSTROOT') */\n      tag_118\n      jumpi\n      mload(0x40)\n      shl(0xe5, 0x461bcd)\n      dup2\n      mstore\n        /* \"#utility.yul\":7604:7606   */\n      0x20\n        /* \"contracts/ZkEvmL1Bridge.sol\":5756:5798  require(proofStorageRoot != 0, 'IBSTROOT') */\n      0x04\n      dup3\n      add\n        /* \"#utility.yul\":7586:7607   */\n      mstore\n        /* \"#utility.yul\":7643:7644   */\n      0x08\n        /* \"#utility.yul\":7623:7641   */\n      0x24\n      dup3\n      add\n        /* \"#utility.yul\":7616:7645   */\n      mstore\n      shl(0xc2, 0x125094d51493d3d5)\n        /* \"#utility.yul\":7661:7679   */\n      0x44\n      dup3\n      add\n        /* \"#utility.yul\":7654:7692   */\n      mstore\n        /* \"#utility.yul\":7709:7727   */\n      0x64\n      add\n        /* \"contracts/ZkEvmL1Bridge.sol\":5756:5798  require(proofStorageRoot != 0, 'IBSTROOT') */\n      tag_88\n        /* \"#utility.yul\":7402:7733   */\n      jump\n        /* \"contracts/ZkEvmL1Bridge.sol\":5756:5798  require(proofStorageRoot != 0, 'IBSTROOT') */\n    tag_118:\n        /* \"contracts/ZkEvmL1Bridge.sol\":5812:5821  timestamp */\n      dup4\n        /* \"contracts/ZkEvmL1Bridge.sol\":5825:5826  0 */\n      0x00\n        /* \"contracts/ZkEvmL1Bridge.sol\":5812:5826  timestamp != 0 */\n      sub\n        /* \"contracts/ZkEvmL1Bridge.sol\":5804:5835  require(timestamp != 0, 'IBTS') */\n      tag_121\n      jumpi\n      mload(0x40)\n      shl(0xe5, 0x461bcd)\n      dup2\n      mstore\n      0x04\n      add\n      tag_88\n      swap1\n        /* \"#utility.yul\":7940:7942   */\n      0x20\n        /* \"#utility.yul\":7922:7943   */\n      dup1\n      dup3\n      mstore\n        /* \"#utility.yul\":7979:7980   */\n      0x04\n        /* \"#utility.yul\":7959:7977   */\n      swap1\n      dup3\n      add\n        /* \"#utility.yul\":7952:7981   */\n      mstore\n      shl(0xe0, 0x49425453)\n        /* \"#utility.yul\":8012:8014   */\n      0x40\n        /* \"#utility.yul\":7997:8015   */\n      dup3\n      add\n        /* \"#utility.yul\":7990:8024   */\n      mstore\n        /* \"#utility.yul\":8056:8058   */\n      0x60\n        /* \"#utility.yul\":8041:8059   */\n      add\n      swap1\n        /* \"#utility.yul\":7738:8065   */\n      jump\n        /* \"contracts/ZkEvmL1Bridge.sol\":5804:5835  require(timestamp != 0, 'IBTS') */\n    tag_121:\n        /* \"contracts/ZkEvmL1Bridge.sol\":5841:5875  originTimestamps[proofStorageRoot] */\n      0x00\n      dup3\n      dup2\n      mstore\n        /* \"contracts/ZkEvmL1Bridge.sol\":5841:5857  originTimestamps */\n      0x03\n        /* \"contracts/ZkEvmL1Bridge.sol\":5841:5875  originTimestamps[proofStorageRoot] */\n      0x20\n      mstore\n      0x40\n      swap1\n      dup2\n      swap1\n      keccak256\n        /* \"contracts/ZkEvmL1Bridge.sol\":5841:5887  originTimestamps[proofStorageRoot] = timestamp */\n      dup6\n      swap1\n      sstore\n        /* \"contracts/ZkEvmL1Bridge.sol\":5899:5958  ForeignBridgeStateImported(blockHash, stateRoot, timestamp) */\n      mload\n        /* \"contracts/ZkEvmL1Bridge.sol\":5937:5946  stateRoot */\n      dup2\n      swap1\n        /* \"contracts/ZkEvmL1Bridge.sol\":5926:5935  blockHash */\n      dup7\n      swap1\n        /* \"contracts/ZkEvmL1Bridge.sol\":5899:5958  ForeignBridgeStateImported(blockHash, stateRoot, timestamp) */\n      0x9d70f54d5d379e4b92c497936411380303c56bfb08caed66b62c94380ad153db\n      swap1\n      tag_124\n      swap1\n        /* \"contracts/ZkEvmL1Bridge.sol\":5878:5887  timestamp */\n      dup9\n        /* \"#utility.yul\":345:370   */\n      dup2\n      mstore\n        /* \"#utility.yul\":333:335   */\n      0x20\n        /* \"#utility.yul\":318:336   */\n      add\n      swap1\n        /* \"#utility.yul\":199:376   */\n      jump\n        /* \"contracts/ZkEvmL1Bridge.sol\":5899:5958  ForeignBridgeStateImported(blockHash, stateRoot, timestamp) */\n    tag_124:\n      mload(0x40)\n      dup1\n      swap2\n      sub\n      swap1\n      log3\n        /* \"contracts/ZkEvmL1Bridge.sol\":5351:5963  {... */\n      pop\n      pop\n      pop\n      pop\n      pop\n        /* \"contracts/ZkEvmL1Bridge.sol\":5250:5963  function importForeignBridgeState (bytes calldata blockHeader, bytes calldata accountProof) external {... */\n      pop\n      pop\n      pop\n      pop\n      jump\t// out\n        /* \"contracts/ZkEvmL1Bridge.sol\":4379:5023  function deliverMessageWithProof (... */\n    tag_66:\n        /* \"contracts/ZkEvmL1Bridge.sol\":4594:4613  bytes32 messageHash */\n      0x00\n        /* \"contracts/ZkEvmL1Bridge.sol\":4637:4641  from */\n      dup11\n        /* \"contracts/ZkEvmL1Bridge.sol\":4643:4645  to */\n      dup11\n        /* \"contracts/ZkEvmL1Bridge.sol\":4647:4652  value */\n      dup11\n        /* \"contracts/ZkEvmL1Bridge.sol\":4654:4657  fee */\n      dup11\n        /* \"contracts/ZkEvmL1Bridge.sol\":4659:4667  deadline */\n      dup11\n        /* \"contracts/ZkEvmL1Bridge.sol\":4669:4674  nonce */\n      dup11\n        /* \"contracts/ZkEvmL1Bridge.sol\":4676:4680  data */\n      dup11\n      dup11\n        /* \"contracts/ZkEvmL1Bridge.sol\":4626:4681  abi.encode(from, to, value, fee, deadline, nonce, data) */\n      add(0x20, mload(0x40))\n      tag_126\n      swap9\n      swap8\n      swap7\n      swap6\n      swap5\n      swap4\n      swap3\n      swap2\n      swap1\n      tag_82\n      jump\t// in\n    tag_126:\n      mload(0x40)\n      0x20\n      dup2\n      dup4\n      sub\n      sub\n      dup2\n      mstore\n      swap1\n      0x40\n      mstore\n        /* \"contracts/ZkEvmL1Bridge.sol\":4616:4682  keccak256(abi.encode(from, to, value, fee, deadline, nonce, data)) */\n      dup1\n      mload\n      swap1\n      0x20\n      add\n      keccak256\n        /* \"contracts/ZkEvmL1Bridge.sol\":4594:4682  bytes32 messageHash = keccak256(abi.encode(from, to, value, fee, deadline, nonce, data)) */\n      swap1\n      pop\n        /* \"contracts/ZkEvmL1Bridge.sol\":4689:4713  bytes32 proofStorageRoot */\n      0x00\n        /* \"contracts/ZkEvmL1Bridge.sol\":4715:4735  bytes32 storageValue */\n      dup1\n        /* \"contracts/ZkEvmL1Bridge.sol\":4739:4828  _validatePatriciaStorageProof(... */\n      tag_127\n        /* \"contracts/ZkEvmL1Bridge.sol\":4776:4809  _PENDING_MESSAGE_KEY(messageHash) */\n      tag_84\n        /* \"contracts/ZkEvmL1Bridge.sol\":4797:4808  messageHash */\n      dup5\n        /* \"contracts/ZkEvmStorage.sol\":268:278  0x31df76a4 */\n      0x31df76a4\n        /* \"contracts/ZkEvmStorage.sol\":222:233  bytes32 ret */\n      0x00\n        /* \"contracts/ZkEvmStorage.sol\":258:279  mstore(0, 0x31df76a4) */\n      swap1\n      dup2\n      mstore\n        /* \"contracts/ZkEvmStorage.sol\":293:295  32 */\n      0x20\n        /* \"contracts/ZkEvmStorage.sol\":286:307  mstore(32, messageId) */\n      swap2\n      swap1\n      swap2\n      mstore\n        /* \"contracts/ZkEvmStorage.sol\":334:336  64 */\n      0x40\n        /* \"contracts/ZkEvmStorage.sol\":321:337  keccak256(0, 64) */\n      swap1\n      keccak256\n      swap1\n        /* \"contracts/ZkEvmStorage.sol\":149:347  function _PENDING_MESSAGE_KEY (bytes32 messageId) internal pure returns (bytes32 ret) {... */\n      jump\n        /* \"contracts/ZkEvmL1Bridge.sol\":4739:4828  _validatePatriciaStorageProof(... */\n    tag_127:\n        /* \"contracts/ZkEvmL1Bridge.sol\":4842:4876  originTimestamps[proofStorageRoot] */\n      0x00\n      dup3\n      dup2\n      mstore\n        /* \"contracts/ZkEvmL1Bridge.sol\":4842:4858  originTimestamps */\n      0x03\n        /* \"contracts/ZkEvmL1Bridge.sol\":4842:4876  originTimestamps[proofStorageRoot] */\n      0x20\n      mstore\n      0x40\n      dup2\n      keccak256\n      sload\n        /* \"contracts/ZkEvmL1Bridge.sol\":4688:4828  (bytes32 proofStorageRoot, bytes32 storageValue) = _validatePatriciaStorageProof(... */\n      swap3\n      swap5\n      pop\n      swap1\n      swap3\n      pop\n        /* \"contracts/ZkEvmL1Bridge.sol\":4842:4881  originTimestamps[proofStorageRoot] != 0 */\n      sub\n        /* \"contracts/ZkEvmL1Bridge.sol\":4834:4892  require(originTimestamps[proofStorageRoot] != 0, 'DMROOT') */\n      tag_129\n      jumpi\n      mload(0x40)\n      shl(0xe5, 0x461bcd)\n      dup2\n      mstore\n        /* \"#utility.yul\":8272:8274   */\n      0x20\n        /* \"contracts/ZkEvmL1Bridge.sol\":4834:4892  require(originTimestamps[proofStorageRoot] != 0, 'DMROOT') */\n      0x04\n      dup3\n      add\n        /* \"#utility.yul\":8254:8275   */\n      mstore\n        /* \"#utility.yul\":8311:8312   */\n      0x06\n        /* \"#utility.yul\":8291:8309   */\n      0x24\n      dup3\n      add\n        /* \"#utility.yul\":8284:8313   */\n      mstore\n      shl(0xd2, 0x11135493d3d5)\n        /* \"#utility.yul\":8329:8347   */\n      0x44\n      dup3\n      add\n        /* \"#utility.yul\":8322:8358   */\n      mstore\n        /* \"#utility.yul\":8375:8393   */\n      0x64\n      add\n        /* \"contracts/ZkEvmL1Bridge.sol\":4834:4892  require(originTimestamps[proofStorageRoot] != 0, 'DMROOT') */\n      tag_88\n        /* \"#utility.yul\":8070:8399   */\n      jump\n        /* \"contracts/ZkEvmL1Bridge.sol\":4834:4892  require(originTimestamps[proofStorageRoot] != 0, 'DMROOT') */\n    tag_129:\n        /* \"contracts/ZkEvmL1Bridge.sol\":4938:4939  1 */\n      0x01\n        /* \"contracts/ZkEvmL1Bridge.sol\":4906:4941  storageValue == bytes32(uint256(1)) */\n      dup2\n      eq\n        /* \"contracts/ZkEvmL1Bridge.sol\":4898:4951  require(storageValue == bytes32(uint256(1)), 'DMVAL') */\n      tag_132\n      jumpi\n      mload(0x40)\n      shl(0xe5, 0x461bcd)\n      dup2\n      mstore\n        /* \"#utility.yul\":6272:6274   */\n      0x20\n        /* \"contracts/ZkEvmL1Bridge.sol\":4898:4951  require(storageValue == bytes32(uint256(1)), 'DMVAL') */\n      0x04\n      dup3\n      add\n        /* \"#utility.yul\":6254:6275   */\n      mstore\n        /* \"#utility.yul\":6311:6312   */\n      0x05\n        /* \"#utility.yul\":6291:6309   */\n      0x24\n      dup3\n      add\n        /* \"#utility.yul\":6284:6313   */\n      mstore\n      shl(0xda, 0x1113559053)\n        /* \"#utility.yul\":6329:6347   */\n      0x44\n      dup3\n      add\n        /* \"#utility.yul\":6322:6357   */\n      mstore\n        /* \"#utility.yul\":6374:6392   */\n      0x64\n      add\n        /* \"contracts/ZkEvmL1Bridge.sol\":4898:4951  require(storageValue == bytes32(uint256(1)), 'DMVAL') */\n      tag_88\n        /* \"#utility.yul\":6070:6398   */\n      jump\n        /* \"contracts/ZkEvmL1Bridge.sol\":4898:4951  require(storageValue == bytes32(uint256(1)), 'DMVAL') */\n    tag_132:\n        /* \"contracts/ZkEvmL1Bridge.sol\":4958:5018  _deliverMessage(from, to, value, fee, deadline, nonce, data) */\n      tag_134\n        /* \"contracts/ZkEvmL1Bridge.sol\":4974:4978  from */\n      dup14\n        /* \"contracts/ZkEvmL1Bridge.sol\":4980:4982  to */\n      dup14\n        /* \"contracts/ZkEvmL1Bridge.sol\":4984:4989  value */\n      dup14\n        /* \"contracts/ZkEvmL1Bridge.sol\":4991:4994  fee */\n      dup14\n        /* \"contracts/ZkEvmL1Bridge.sol\":4996:5004  deadline */\n      dup14\n        /* \"contracts/ZkEvmL1Bridge.sol\":5006:5011  nonce */\n      dup14\n        /* \"contracts/ZkEvmL1Bridge.sol\":5013:5017  data */\n      dup14\n      dup14\n        /* \"contracts/ZkEvmL1Bridge.sol\":4958:4973  _deliverMessage */\n      tag_135\n        /* \"contracts/ZkEvmL1Bridge.sol\":4958:5018  _deliverMessage(from, to, value, fee, deadline, nonce, data) */\n      jump\t// in\n    tag_134:\n        /* \"contracts/ZkEvmL1Bridge.sol\":4588:5023  {... */\n      pop\n      pop\n      pop\n        /* \"contracts/ZkEvmL1Bridge.sol\":4379:5023  function deliverMessageWithProof (... */\n      pop\n      pop\n      pop\n      pop\n      pop\n      pop\n      pop\n      pop\n      pop\n      pop\n      jump\t// out\n        /* \"contracts/ZkEvmL1Bridge.sol\":2566:4325  function finalizeBlock (bytes calldata proof) external {... */\n    tag_70:\n        /* \"contracts/ZkEvmL1Bridge.sol\":2650:2653  511 */\n      0x01ff\n        /* \"contracts/ZkEvmL1Bridge.sol\":2635:2653  proof.length > 511 */\n      dup2\n      gt\n        /* \"contracts/ZkEvmL1Bridge.sol\":2627:2667  require(proof.length > 511, \"PROOF_LEN\") */\n      tag_137\n      jumpi\n      mload(0x40)\n      shl(0xe5, 0x461bcd)\n      dup2\n      mstore\n        /* \"#utility.yul\":8606:8608   */\n      0x20\n        /* \"contracts/ZkEvmL1Bridge.sol\":2627:2667  require(proof.length > 511, \"PROOF_LEN\") */\n      0x04\n      dup3\n      add\n        /* \"#utility.yul\":8588:8609   */\n      mstore\n        /* \"#utility.yul\":8645:8646   */\n      0x09\n        /* \"#utility.yul\":8625:8643   */\n      0x24\n      dup3\n      add\n        /* \"#utility.yul\":8618:8647   */\n      mstore\n      shl(0xb9, 0x282927a7a32fa622a7)\n        /* \"#utility.yul\":8663:8681   */\n      0x44\n      dup3\n      add\n        /* \"#utility.yul\":8656:8695   */\n      mstore\n        /* \"#utility.yul\":8712:8730   */\n      0x64\n      add\n        /* \"contracts/ZkEvmL1Bridge.sol\":2627:2667  require(proof.length > 511, \"PROOF_LEN\") */\n      tag_88\n        /* \"#utility.yul\":8404:8736   */\n      jump\n        /* \"contracts/ZkEvmL1Bridge.sol\":2627:2667  require(proof.length > 511, \"PROOF_LEN\") */\n    tag_137:\n        /* \"contracts/ZkEvmL1Bridge.sol\":2727:2753  calldataload(proof.offset) */\n      dup2\n      calldataload\n        /* \"contracts/ZkEvmL1Bridge.sol\":2674:2691  bytes32 blockHash */\n      0x00\n        /* \"contracts/ZkEvmL1Bridge.sol\":2797:2819  commitments[blockHash] */\n      dup2\n      dup2\n      mstore\n        /* \"contracts/ZkEvmL1Bridge.sol\":2797:2808  commitments */\n      0x01\n        /* \"contracts/ZkEvmL1Bridge.sol\":2797:2819  commitments[blockHash] */\n      0x20\n      mstore\n      0x40\n      swap1\n      keccak256\n      sload\n        /* \"contracts/ZkEvmL1Bridge.sol\":2875:3163  function revertWith (msg) {... */\n      jump(tag_141)\n    tag_140:\n        /* \"contracts/ZkEvmL1Bridge.sol\":2930:2940  0x08c379a0 */\n      0x08c379a0\n        /* \"contracts/ZkEvmL1Bridge.sol\":2925:2928  224 */\n      0xe0\n        /* \"contracts/ZkEvmL1Bridge.sol\":2921:2941  shl(224, 0x08c379a0) */\n      shl\n        /* \"contracts/ZkEvmL1Bridge.sol\":2918:2919  0 */\n      0x00\n        /* \"contracts/ZkEvmL1Bridge.sol\":2911:2942  mstore(0, shl(224, 0x08c379a0)) */\n      mstore\n        /* \"contracts/ZkEvmL1Bridge.sol\":2961:2963  32 */\n      0x20\n        /* \"contracts/ZkEvmL1Bridge.sol\":2958:2959  4 */\n      0x04\n        /* \"contracts/ZkEvmL1Bridge.sol\":2951:2964  mstore(4, 32) */\n      mstore\n        /* \"contracts/ZkEvmL1Bridge.sol\":2984:2987  msg */\n      dup1\n        /* \"contracts/ZkEvmL1Bridge.sol\":2980:2982  68 */\n      0x44\n        /* \"contracts/ZkEvmL1Bridge.sol\":2973:2988  mstore(68, msg) */\n      mstore\n        /* \"contracts/ZkEvmL1Bridge.sol\":2997:3007  let msgLen */\n      0x00\n        /* \"contracts/ZkEvmL1Bridge.sol\":3016:3105  for {} msg {} {... */\n    tag_143:\n        /* \"contracts/ZkEvmL1Bridge.sol\":3023:3026  msg */\n      dup2\n        /* \"contracts/ZkEvmL1Bridge.sol\":3016:3105  for {} msg {} {... */\n      iszero\n      tag_145\n      jumpi\n        /* \"contracts/ZkEvmL1Bridge.sol\":3053:3054  8 */\n      0x08\n        /* \"contracts/ZkEvmL1Bridge.sol\":3049:3060  shl(8, msg) */\n      swap2\n      swap1\n      swap2\n      shl\n      swap1\n        /* \"contracts/ZkEvmL1Bridge.sol\":3093:3094  1 */\n      0x01\n        /* \"contracts/ZkEvmL1Bridge.sol\":3081:3095  add(msgLen, 1) */\n      add\n        /* \"contracts/ZkEvmL1Bridge.sol\":3016:3105  for {} msg {} {... */\n      jump(tag_143)\n    tag_145:\n        /* \"contracts/ZkEvmL1Bridge.sol\":3125:3131  msgLen */\n      dup1\n        /* \"contracts/ZkEvmL1Bridge.sol\":3121:3123  36 */\n      0x24\n        /* \"contracts/ZkEvmL1Bridge.sol\":3114:3132  mstore(36, msgLen) */\n      mstore\n        /* \"contracts/ZkEvmL1Bridge.sol\":3151:3154  100 */\n      0x64\n        /* \"contracts/ZkEvmL1Bridge.sol\":3148:3149  0 */\n      0x00\n        /* \"contracts/ZkEvmL1Bridge.sol\":3141:3155  revert(0, 100) */\n      revert\n        /* \"contracts/ZkEvmL1Bridge.sol\":2875:3163  function revertWith (msg) {... */\n    tag_141:\n        /* \"contracts/ZkEvmL1Bridge.sol\":3246:3249  160 */\n      0xa0\n        /* \"contracts/ZkEvmL1Bridge.sol\":3277:3279  64 */\n      0x40\n        /* \"contracts/ZkEvmL1Bridge.sol\":3271:3280  mload(64) */\n      mload\n        /* \"contracts/ZkEvmL1Bridge.sol\":3386:3389  len */\n      dup2\n        /* \"contracts/ZkEvmL1Bridge.sol\":3381:3383  96 */\n      0x60\n        /* \"contracts/ZkEvmL1Bridge.sol\":3367:3379  proof.offset */\n      dup8\n        /* \"contracts/ZkEvmL1Bridge.sol\":3363:3384  add(proof.offset, 96) */\n      add\n        /* \"contracts/ZkEvmL1Bridge.sol\":3358:3361  ptr */\n      dup3\n        /* \"contracts/ZkEvmL1Bridge.sol\":3345:3390  calldatacopy(ptr, add(proof.offset, 96), len) */\n      calldatacopy\n        /* \"contracts/ZkEvmL1Bridge.sol\":3413:3432  keccak256(ptr, len) */\n      keccak256\n        /* \"contracts/ZkEvmL1Bridge.sol\":3453:3485  eq(hash, expectedCommitmentHash) */\n      dup2\n      dup2\n      eq\n        /* \"contracts/ZkEvmL1Bridge.sol\":3443:3542  if iszero(eq(hash, expectedCommitmentHash)) {... */\n      tag_147\n      jumpi\n        /* \"contracts/ZkEvmL1Bridge.sol\":3501:3530  revertWith(\"commitment hash\") */\n      tag_147\n      shl(0x8b, 0x0c6dedadad2e8dacadce840d0c2e6d)\n      tag_140\n      jump\t// in\n    tag_147:\n      pop\n        /* \"contracts/ZkEvmL1Bridge.sol\":3658:3660  32 */\n      0x20\n        /* \"contracts/ZkEvmL1Bridge.sol\":3640:3661  add(proof.offset, 32) */\n      dup5\n      add\n        /* \"contracts/ZkEvmL1Bridge.sol\":3682:3702  calldataload(offset) */\n      dup1\n      calldataload\n        /* \"contracts/ZkEvmL1Bridge.sol\":3718:3735  extcodesize(addr) */\n      dup1\n      extcodesize\n      dup1\n        /* \"contracts/ZkEvmL1Bridge.sol\":3711:3834  switch extcodesize(addr)... */\n      tag_150\n        /* \"contracts/ZkEvmL1Bridge.sol\":3744:3834  case 0 {... */\n      jumpi\n        /* \"contracts/ZkEvmL1Bridge.sol\":3794:3824  revertWith(\"verifier missing\") */\n      tag_150\n      shl(0x80, 0x7665726966696572206d697373696e67)\n      tag_140\n      jump\t// in\n    tag_150:\n        /* \"contracts/ZkEvmL1Bridge.sol\":3711:3834  switch extcodesize(addr)... */\n      pop\n        /* \"contracts/ZkEvmL1Bridge.sol\":3873:3875  96 */\n      0x60\n        /* \"contracts/ZkEvmL1Bridge.sol\":3859:3871  proof.length */\n      dup6\n        /* \"contracts/ZkEvmL1Bridge.sol\":3855:3876  sub(proof.length, 96) */\n      sub\n        /* \"contracts/ZkEvmL1Bridge.sol\":3907:3909  64 */\n      0x40\n        /* \"contracts/ZkEvmL1Bridge.sol\":3899:3905  offset */\n      dup4\n        /* \"contracts/ZkEvmL1Bridge.sol\":3895:3910  add(offset, 64) */\n      add\n        /* \"contracts/ZkEvmL1Bridge.sol\":3885:3910  offset := add(offset, 64) */\n      swap3\n      pop\n        /* \"contracts/ZkEvmL1Bridge.sol\":3939:3941  64 */\n      0x40\n        /* \"contracts/ZkEvmL1Bridge.sol\":3933:3942  mload(64) */\n      mload\n        /* \"contracts/ZkEvmL1Bridge.sol\":3980:3983  len */\n      dup2\n        /* \"contracts/ZkEvmL1Bridge.sol\":3972:3978  offset */\n      dup5\n        /* \"contracts/ZkEvmL1Bridge.sol\":3964:3970  memPtr */\n      dup3\n        /* \"contracts/ZkEvmL1Bridge.sol\":3951:3984  calldatacopy(memPtr, offset, len) */\n      calldatacopy\n        /* \"contracts/ZkEvmL1Bridge.sol\":4048:4049  0 */\n      0x00\n        /* \"contracts/ZkEvmL1Bridge.sol\":4045:4046  0 */\n      dup1\n        /* \"contracts/ZkEvmL1Bridge.sol\":4040:4043  len */\n      dup4\n        /* \"contracts/ZkEvmL1Bridge.sol\":4032:4038  memPtr */\n      dup4\n        /* \"contracts/ZkEvmL1Bridge.sol\":4026:4030  addr */\n      dup7\n        /* \"contracts/ZkEvmL1Bridge.sol\":4019:4024  gas() */\n      gas\n        /* \"contracts/ZkEvmL1Bridge.sol\":4008:4050  staticcall(gas(), addr, memPtr, len, 0, 0) */\n      staticcall\n        /* \"contracts/ZkEvmL1Bridge.sol\":3993:4050  let success := staticcall(gas(), addr, memPtr, len, 0, 0) */\n      swap4\n      pop\n      pop\n      pop\n      pop\n        /* \"contracts/ZkEvmL1Bridge.sol\":4066:4073  success */\n      dup1\n        /* \"contracts/ZkEvmL1Bridge.sol\":4087:4088  0 */\n      0x00\n        /* \"contracts/ZkEvmL1Bridge.sol\":4082:4270  case 0 {... */\n      dup2\n      sub\n        /* \"contracts/ZkEvmL1Bridge.sol\":4059:4270  switch success... */\n      tag_153\n        /* \"contracts/ZkEvmL1Bridge.sol\":4082:4270  case 0 {... */\n      jumpi\n        /* \"contracts/ZkEvmL1Bridge.sol\":4231:4260  revertWith(\"verifier failed\") */\n      tag_153\n      shl(0x8a, 0x1d995c9a599a595c8819985a5b1959)\n      tag_140\n      jump\t// in\n    tag_153:\n      pop\n      pop\n        /* \"contracts/ZkEvmL1Bridge.sol\":4295:4320  BlockFinalized(blockHash) */\n      mload(0x40)\n        /* \"#utility.yul\":345:370   */\n      dup3\n      dup2\n      mstore\n        /* \"contracts/ZkEvmL1Bridge.sol\":4295:4320  BlockFinalized(blockHash) */\n      0x13a323bd8c6a1bee4a59d9f8a556a6b14ed08c656b9c36c57903c70865648cca\n      swap1\n        /* \"#utility.yul\":333:335   */\n      0x20\n        /* \"#utility.yul\":318:336   */\n      add\n        /* \"contracts/ZkEvmL1Bridge.sol\":4295:4320  BlockFinalized(blockHash) */\n      mload(0x40)\n      dup1\n      swap2\n      sub\n      swap1\n      log1\n        /* \"contracts/ZkEvmL1Bridge.sol\":2621:4325  {... */\n      pop\n      pop\n        /* \"contracts/ZkEvmL1Bridge.sol\":2566:4325  function finalizeBlock (bytes calldata proof) external {... */\n      pop\n      pop\n      jump\t// out\n        /* \"contracts/ZkEvmL1Bridge.sol\":1588:2341  function submitBlock (bytes calldata witness) external {... */\n    tag_74:\n        /* \"contracts/ZkEvmL1Bridge.sol\":1649:1659  _onlyEOA() */\n      tag_156\n        /* \"contracts/ZkEvmL1Bridge.sol\":1649:1657  _onlyEOA */\n      tag_157\n        /* \"contracts/ZkEvmL1Bridge.sol\":1649:1659  _onlyEOA() */\n      jump\t// in\n    tag_156:\n        /* \"contracts/ZkEvmL1Bridge.sol\":1670:1686  BlockSubmitted() */\n      mload(0x40)\n      0xcdf35dca8304861a13f78fcd9aa4cbe5bd689d13c643b4c875cccbfae3cbf67c\n      swap1\n      0x00\n      swap1\n      log1\n        /* \"contracts/ZkEvmL1Bridge.sol\":1701:1724  bytes32 parentBlockHash */\n      0x00\n        /* \"contracts/ZkEvmL1Bridge.sol\":1732:1749  bytes32 blockHash */\n      dup1\n        /* \"contracts/ZkEvmL1Bridge.sol\":1757:1779  bytes32 blockStateRoot */\n      0x00\n        /* \"contracts/ZkEvmL1Bridge.sol\":1795:1811  uint256 blockGas */\n      dup1\n        /* \"contracts/ZkEvmL1Bridge.sol\":1821:1846  _readHeaderParts(witness) */\n      tag_158\n        /* \"contracts/ZkEvmL1Bridge.sol\":1838:1845  witness */\n      dup7\n      dup7\n        /* \"contracts/ZkEvmL1Bridge.sol\":1821:1837  _readHeaderParts */\n      tag_99\n        /* \"contracts/ZkEvmL1Bridge.sol\":1821:1846  _readHeaderParts(witness) */\n      jump\t// in\n    tag_158:\n      pop\n        /* \"contracts/ZkEvmL1Bridge.sol\":1852:1875  uint256 parentStateRoot */\n      0x00\n        /* \"contracts/ZkEvmL1Bridge.sol\":1886:1913  stateRoots[parentBlockHash] */\n      dup6\n      dup2\n      mstore\n        /* \"contracts/ZkEvmL1Bridge.sol\":1886:1896  stateRoots */\n      0x02\n        /* \"contracts/ZkEvmL1Bridge.sol\":1886:1913  stateRoots[parentBlockHash] */\n      0x20\n      mstore\n      0x40\n      dup2\n      keccak256\n      sload\n        /* \"contracts/ZkEvmL1Bridge.sol\":1693:1846  (... */\n      swap6\n      swap10\n      pop\n      swap4\n      swap8\n      pop\n      swap2\n      swap6\n      pop\n      swap1\n      swap4\n      pop\n        /* \"contracts/ZkEvmL1Bridge.sol\":1938:1943  53077 */\n      0xcf55\n      swap2\n        /* \"contracts/ZkEvmL1Bridge.sol\":1852:1875  uint256 parentStateRoot */\n      swap1\n      pop\n      dup1\n        /* \"contracts/ZkEvmL1Bridge.sol\":1991:2018  _getCircuitConfig(blockGas) */\n      tag_159\n        /* \"contracts/ZkEvmL1Bridge.sol\":1693:1846  (... */\n      dup6\n        /* \"contracts/ZkEvmL1Bridge.sol\":1991:2008  _getCircuitConfig */\n      tag_101\n        /* \"contracts/ZkEvmL1Bridge.sol\":1991:2018  _getCircuitConfig(blockGas) */\n      jump\t// in\n    tag_159:\n        /* \"contracts/ZkEvmL1Bridge.sol\":1949:2018  (uint256 MAX_TXS, uint256 MAX_CALLDATA) = _getCircuitConfig(blockGas) */\n      swap2\n      pop\n      swap2\n      pop\n        /* \"contracts/ZkEvmL1Bridge.sol\":2025:2053  uint256[] memory publicInput */\n      0x00\n        /* \"contracts/ZkEvmL1Bridge.sol\":2062:2142  _buildCommitment(MAX_TXS, MAX_CALLDATA, chainId, parentStateRoot, witness, true) */\n      tag_160\n        /* \"contracts/ZkEvmL1Bridge.sol\":2079:2086  MAX_TXS */\n      dup4\n        /* \"contracts/ZkEvmL1Bridge.sol\":2088:2100  MAX_CALLDATA */\n      dup4\n        /* \"contracts/ZkEvmL1Bridge.sol\":2102:2109  chainId */\n      dup7\n        /* \"contracts/ZkEvmL1Bridge.sol\":2111:2126  parentStateRoot */\n      dup9\n        /* \"contracts/ZkEvmL1Bridge.sol\":2128:2135  witness */\n      dup16\n      dup16\n        /* \"contracts/ZkEvmL1Bridge.sol\":2137:2141  true */\n      0x01\n        /* \"contracts/ZkEvmL1Bridge.sol\":2062:2078  _buildCommitment */\n      tag_103\n        /* \"contracts/ZkEvmL1Bridge.sol\":2062:2142  _buildCommitment(MAX_TXS, MAX_CALLDATA, chainId, parentStateRoot, witness, true) */\n      jump\t// in\n    tag_160:\n        /* \"contracts/ZkEvmL1Bridge.sol\":2228:2246  mload(publicInput) */\n      dup1\n      mload\n        /* \"contracts/ZkEvmL1Bridge.sol\":2248:2250  32 */\n      0x20\n        /* \"contracts/ZkEvmL1Bridge.sol\":2224:2251  mul(mload(publicInput), 32) */\n      swap1\n      dup2\n      mul\n        /* \"contracts/ZkEvmL1Bridge.sol\":2202:2222  add(publicInput, 32) */\n      swap2\n      dup2\n      add\n        /* \"contracts/ZkEvmL1Bridge.sol\":2192:2252  keccak256(add(publicInput, 32), mul(mload(publicInput), 32)) */\n      swap2\n      swap1\n      swap2\n      keccak256\n        /* \"contracts/ZkEvmL1Bridge.sol\":2149:2161  bytes32 hash */\n      0x00\n        /* \"contracts/ZkEvmL1Bridge.sol\":2263:2285  commitments[blockHash] */\n      swap10\n      dup11\n      mstore\n        /* \"contracts/ZkEvmL1Bridge.sol\":2263:2274  commitments */\n      0x01\n        /* \"contracts/ZkEvmL1Bridge.sol\":2263:2285  commitments[blockHash] */\n      dup3\n      mstore\n      0x40\n      dup1\n      dup12\n      keccak256\n        /* \"contracts/ZkEvmL1Bridge.sol\":2263:2292  commitments[blockHash] = hash */\n      swap2\n      swap1\n      swap2\n      sstore\n        /* \"contracts/ZkEvmL1Bridge.sol\":2298:2308  stateRoots */\n      0x02\n        /* \"contracts/ZkEvmL1Bridge.sol\":2298:2319  stateRoots[blockHash] */\n      swap1\n      swap2\n      mstore\n      swap1\n      swap8\n      keccak256\n        /* \"contracts/ZkEvmL1Bridge.sol\":2298:2336  stateRoots[blockHash] = blockStateRoot */\n      swap6\n      swap1\n      swap6\n      sstore\n      pop\n      pop\n      pop\n      pop\n      pop\n      pop\n      pop\n      pop\n      pop\n        /* \"contracts/ZkEvmL1Bridge.sol\":1588:2341  function submitBlock (bytes calldata witness) external {... */\n      jump\t// out\n        /* \"contracts/generated/PatriciaStorageValidator.sol\":95:11854  function _validatePatriciaStorageProof (... */\n    tag_86:\n        /* \"contracts/generated/PatriciaStorageValidator.sol\":216:235  bytes32 storageRoot */\n      0x00\n        /* \"contracts/generated/PatriciaStorageValidator.sol\":237:257  bytes32 storageValue */\n      dup1\n        /* \"contracts/generated/PatriciaStorageValidator.sol\":427:948  function decodeItem (word, len) -> ret {... */\n      jump(tag_179)\n    tag_163:\n        /* \"contracts/generated/PatriciaStorageValidator.sol\":490:494  word */\n      dup1\n        /* \"contracts/generated/PatriciaStorageValidator.sol\":531:535  0x80 */\n      0x80\n        /* \"contracts/generated/PatriciaStorageValidator.sol\":522:536  lt(word, 0x80) */\n      dup2\n      lt\n        /* \"contracts/generated/PatriciaStorageValidator.sol\":543:548  leave */\n      tag_180\n        /* \"contracts/generated/PatriciaStorageValidator.sol\":519:552  if lt(word, 0x80) {... */\n      jumpi\n        /* \"contracts/generated/PatriciaStorageValidator.sol\":582:584  32 */\n      0x20\n        /* \"contracts/generated/PatriciaStorageValidator.sol\":577:580  len */\n      dup4\n        /* \"contracts/generated/PatriciaStorageValidator.sol\":574:585  gt(len, 32) */\n      gt\n        /* \"contracts/generated/PatriciaStorageValidator.sol\":592:597  leave */\n      tag_180\n        /* \"contracts/generated/PatriciaStorageValidator.sol\":571:601  if gt(len, 32) {... */\n      jumpi\n        /* \"contracts/generated/PatriciaStorageValidator.sol\":835:839  0xff */\n      0xff\n      not(0x07)\n        /* \"contracts/generated/PatriciaStorageValidator.sol\":756:757  8 */\n      0x08\n        /* \"contracts/generated/PatriciaStorageValidator.sol\":747:758  mul(len, 8) */\n      dup6\n      mul\n        /* \"contracts/generated/PatriciaStorageValidator.sol\":798:810  sub(bits, 8) */\n      add\n        /* \"contracts/generated/PatriciaStorageValidator.sol\":825:840  shl(bits, 0xff) */\n      shl\n        /* \"contracts/generated/PatriciaStorageValidator.sol\":872:881  not(mask) */\n      not\n        /* \"contracts/generated/PatriciaStorageValidator.sol\":932:946  and(ret, mask) */\n      and\n        /* \"contracts/generated/PatriciaStorageValidator.sol\":427:948  function decodeItem (word, len) -> ret {... */\n    tag_180:\n      swap3\n      swap2\n      pop\n      pop\n      jump\t// out\n        /* \"contracts/generated/PatriciaStorageValidator.sol\":1057:1760  function decodeListLength (ptr) -> len, startOffset {... */\n    tag_164:\n        /* \"contracts/generated/PatriciaStorageValidator.sol\":1092:1095  len */\n      0x00\n        /* \"contracts/generated/PatriciaStorageValidator.sol\":1097:1108  startOffset */\n      dup1\n        /* \"contracts/generated/PatriciaStorageValidator.sol\":1151:1154  ptr */\n      dup3\n        /* \"contracts/generated/PatriciaStorageValidator.sol\":1138:1155  calldataload(ptr) */\n      calldataload\n        /* \"contracts/generated/PatriciaStorageValidator.sol\":1135:1136  0 */\n      0x00\n        /* \"contracts/generated/PatriciaStorageValidator.sol\":1130:1156  byte(0, calldataload(ptr)) */\n      byte\n        /* \"contracts/generated/PatriciaStorageValidator.sol\":1228:1232  0xf8 */\n      0xf8\n        /* \"contracts/generated/PatriciaStorageValidator.sol\":1217:1226  firstByte */\n      dup2\n        /* \"contracts/generated/PatriciaStorageValidator.sol\":1214:1233  lt(firstByte, 0xf8) */\n      lt\n        /* \"contracts/generated/PatriciaStorageValidator.sol\":1211:1312  if lt(firstByte, 0xf8) {... */\n      iszero\n      tag_184\n      jumpi\n      not(0xbe)\n        /* \"contracts/generated/PatriciaStorageValidator.sol\":1247:1267  sub(firstByte, 0xbf) */\n      add\n      swap4\n        /* \"contracts/generated/PatriciaStorageValidator.sol\":1296:1297  1 */\n      0x01\n        /* \"contracts/generated/PatriciaStorageValidator.sol\":1287:1298  add(ptr, 1) */\n      swap4\n      swap1\n      swap4\n      add\n      swap3\n        /* \"contracts/generated/PatriciaStorageValidator.sol\":1057:1760  function decodeListLength (ptr) -> len, startOffset {... */\n      swap2\n      pop\n      pop\n      jump\t// out\n        /* \"contracts/generated/PatriciaStorageValidator.sol\":1211:1312  if lt(firstByte, 0xf8) {... */\n    tag_184:\n        /* \"contracts/generated/PatriciaStorageValidator.sol\":1398:1402  0xf7 */\n      0xf7\n        /* \"contracts/generated/PatriciaStorageValidator.sol\":1387:1396  firstByte */\n      dup2\n        /* \"contracts/generated/PatriciaStorageValidator.sol\":1383:1403  sub(firstByte, 0xf7) */\n      sub\n        /* \"contracts/generated/PatriciaStorageValidator.sol\":1421:1422  4 */\n      0x04\n        /* \"contracts/generated/PatriciaStorageValidator.sol\":1414:1419  lenOf */\n      dup2\n        /* \"contracts/generated/PatriciaStorageValidator.sol\":1411:1423  gt(lenOf, 4) */\n      gt\n        /* \"contracts/generated/PatriciaStorageValidator.sol\":1408:1447  if gt(lenOf, 4) {... */\n      iszero\n      tag_185\n      jumpi\n        /* \"contracts/generated/PatriciaStorageValidator.sol\":1432:1441  invalid() */\n      invalid\n        /* \"contracts/generated/PatriciaStorageValidator.sol\":1408:1447  if gt(lenOf, 4) {... */\n    tag_185:\n        /* \"contracts/generated/PatriciaStorageValidator.sol\":1509:1510  1 */\n      0x01\n        /* \"contracts/generated/PatriciaStorageValidator.sol\":1500:1511  add(ptr, 1) */\n      dup6\n      dup2\n      add\n        /* \"contracts/generated/PatriciaStorageValidator.sol\":1535:1560  calldataload(startOffset) */\n      calldataload\n        /* \"contracts/generated/PatriciaStorageValidator.sol\":1597:1598  8 */\n      0x08\n        /* \"contracts/generated/PatriciaStorageValidator.sol\":1586:1599  mul(lenOf, 8) */\n      dup4\n      mul\n        /* \"contracts/generated/PatriciaStorageValidator.sol\":1581:1584  256 */\n      0x0100\n        /* \"contracts/generated/PatriciaStorageValidator.sol\":1577:1600  sub(256, mul(lenOf, 8)) */\n      sub\n        /* \"contracts/generated/PatriciaStorageValidator.sol\":1620:1642  shr(bits, extendedLen) */\n      shr\n        /* \"contracts/generated/PatriciaStorageValidator.sol\":1655:1678  add(extendedLen, lenOf) */\n      dup3\n      add\n        /* \"contracts/generated/PatriciaStorageValidator.sol\":1690:1701  add(len, 1) */\n      dup2\n      add\n      swap7\n        /* \"contracts/generated/PatriciaStorageValidator.sol\":1721:1744  add(startOffset, lenOf) */\n      swap2\n      swap1\n      swap6\n      add\n      swap1\n      swap5\n      add\n      swap4\n        /* \"contracts/generated/PatriciaStorageValidator.sol\":1057:1760  function decodeListLength (ptr) -> len, startOffset {... */\n      swap3\n      pop\n      pop\n      pop\n      jump\t// out\n        /* \"contracts/generated/PatriciaStorageValidator.sol\":1897:3140  function decodeValue (ptr) -> dataLen, valueOffset, isData {... */\n    tag_165:\n        /* \"contracts/generated/PatriciaStorageValidator.sol\":1927:1934  dataLen */\n      0x00\n        /* \"contracts/generated/PatriciaStorageValidator.sol\":1936:1947  valueOffset */\n      dup1\n        /* \"contracts/generated/PatriciaStorageValidator.sol\":1949:1955  isData */\n      0x00\n        /* \"contracts/generated/PatriciaStorageValidator.sol\":1998:2001  ptr */\n      dup4\n        /* \"contracts/generated/PatriciaStorageValidator.sol\":1985:2002  calldataload(ptr) */\n      calldataload\n        /* \"contracts/generated/PatriciaStorageValidator.sol\":1982:1983  0 */\n      0x00\n        /* \"contracts/generated/PatriciaStorageValidator.sol\":1977:2003  byte(0, calldataload(ptr)) */\n      byte\n        /* \"contracts/generated/PatriciaStorageValidator.sol\":2058:2062  0x80 */\n      0x80\n        /* \"contracts/generated/PatriciaStorageValidator.sol\":2047:2056  firstByte */\n      dup2\n        /* \"contracts/generated/PatriciaStorageValidator.sol\":2044:2063  lt(firstByte, 0x80) */\n      lt\n        /* \"contracts/generated/PatriciaStorageValidator.sol\":2041:2135  if lt(firstByte, 0x80) {... */\n      iszero\n      tag_187\n      jumpi\n        /* \"contracts/generated/PatriciaStorageValidator.sol\":2081:2082  1 */\n      0x01\n        /* \"contracts/generated/PatriciaStorageValidator.sol\":2070:2082  dataLen := 1 */\n      swap4\n      pop\n        /* \"contracts/generated/PatriciaStorageValidator.sol\":2102:2105  ptr */\n      dup5\n        /* \"contracts/generated/PatriciaStorageValidator.sol\":2087:2105  valueOffset := ptr */\n      swap3\n      pop\n        /* \"contracts/generated/PatriciaStorageValidator.sol\":2120:2121  1 */\n      0x01\n        /* \"contracts/generated/PatriciaStorageValidator.sol\":2110:2121  isData := 1 */\n      swap2\n      pop\n        /* \"contracts/generated/PatriciaStorageValidator.sol\":2126:2131  leave */\n      pop\n      jump(tag_186)\n        /* \"contracts/generated/PatriciaStorageValidator.sol\":2041:2135  if lt(firstByte, 0x80) {... */\n    tag_187:\n        /* \"contracts/generated/PatriciaStorageValidator.sol\":2211:2215  0xb8 */\n      0xb8\n        /* \"contracts/generated/PatriciaStorageValidator.sol\":2200:2209  firstByte */\n      dup2\n        /* \"contracts/generated/PatriciaStorageValidator.sol\":2197:2216  lt(firstByte, 0xb8) */\n      lt\n        /* \"contracts/generated/PatriciaStorageValidator.sol\":2194:2315  if lt(firstByte, 0xb8) {... */\n      iszero\n      tag_188\n      jumpi\n      not(0x7f)\n        /* \"contracts/generated/PatriciaStorageValidator.sol\":2234:2254  sub(firstByte, 0x80) */\n      add\n      swap3\n      pop\n      pop\n      pop\n        /* \"contracts/generated/PatriciaStorageValidator.sol\":2283:2284  1 */\n      0x01\n        /* \"contracts/generated/PatriciaStorageValidator.sol\":2274:2285  add(ptr, 1) */\n      dup3\n      dup2\n      add\n      swap1\n        /* \"contracts/generated/PatriciaStorageValidator.sol\":2306:2311  leave */\n      jump(tag_186)\n        /* \"contracts/generated/PatriciaStorageValidator.sol\":2194:2315  if lt(firstByte, 0xb8) {... */\n    tag_188:\n        /* \"contracts/generated/PatriciaStorageValidator.sol\":2389:2393  0xc0 */\n      0xc0\n        /* \"contracts/generated/PatriciaStorageValidator.sol\":2378:2387  firstByte */\n      dup2\n        /* \"contracts/generated/PatriciaStorageValidator.sol\":2375:2394  lt(firstByte, 0xc0) */\n      lt\n        /* \"contracts/generated/PatriciaStorageValidator.sol\":2372:2774  if lt(firstByte, 0xc0) {... */\n      iszero\n      tag_189\n      jumpi\n        /* \"contracts/generated/PatriciaStorageValidator.sol\":2429:2433  0xb7 */\n      0xb7\n        /* \"contracts/generated/PatriciaStorageValidator.sol\":2418:2427  firstByte */\n      dup2\n        /* \"contracts/generated/PatriciaStorageValidator.sol\":2414:2434  sub(firstByte, 0xb7) */\n      sub\n        /* \"contracts/generated/PatriciaStorageValidator.sol\":2452:2453  4 */\n      0x04\n        /* \"contracts/generated/PatriciaStorageValidator.sol\":2445:2450  lenOf */\n      dup2\n        /* \"contracts/generated/PatriciaStorageValidator.sol\":2442:2454  gt(lenOf, 4) */\n      gt\n        /* \"contracts/generated/PatriciaStorageValidator.sol\":2439:2478  if gt(lenOf, 4) {... */\n      iszero\n      tag_190\n      jumpi\n        /* \"contracts/generated/PatriciaStorageValidator.sol\":2463:2472  invalid() */\n      invalid\n        /* \"contracts/generated/PatriciaStorageValidator.sol\":2439:2478  if gt(lenOf, 4) {... */\n    tag_190:\n        /* \"contracts/generated/PatriciaStorageValidator.sol\":2540:2541  1 */\n      0x01\n        /* \"contracts/generated/PatriciaStorageValidator.sol\":2531:2542  add(ptr, 1) */\n      dup7\n      dup2\n      add\n        /* \"contracts/generated/PatriciaStorageValidator.sol\":2566:2591  calldataload(valueOffset) */\n      calldataload\n        /* \"contracts/generated/PatriciaStorageValidator.sol\":2628:2629  8 */\n      0x08\n        /* \"contracts/generated/PatriciaStorageValidator.sol\":2617:2630  mul(lenOf, 8) */\n      dup4\n      mul\n        /* \"contracts/generated/PatriciaStorageValidator.sol\":2612:2615  256 */\n      0x0100\n        /* \"contracts/generated/PatriciaStorageValidator.sol\":2608:2631  sub(256, mul(lenOf, 8)) */\n      sub\n        /* \"contracts/generated/PatriciaStorageValidator.sol\":2651:2673  shr(bits, extendedLen) */\n      shr\n      swap6\n      pop\n        /* \"contracts/generated/PatriciaStorageValidator.sol\":2721:2744  add(valueOffset, lenOf) */\n      swap1\n      dup7\n      add\n      dup2\n      add\n      swap4\n      pop\n        /* \"contracts/generated/PatriciaStorageValidator.sol\":2540:2541  1 */\n      swap2\n      pop\n        /* \"contracts/generated/PatriciaStorageValidator.sol\":2765:2770  leave */\n      tag_186\n      swap1\n      pop\n      jump\n        /* \"contracts/generated/PatriciaStorageValidator.sol\":2372:2774  if lt(firstByte, 0xc0) {... */\n    tag_189:\n        /* \"contracts/generated/PatriciaStorageValidator.sol\":2846:2850  0xf8 */\n      0xf8\n        /* \"contracts/generated/PatriciaStorageValidator.sol\":2835:2844  firstByte */\n      dup2\n        /* \"contracts/generated/PatriciaStorageValidator.sol\":2832:2851  lt(firstByte, 0xf8) */\n      lt\n        /* \"contracts/generated/PatriciaStorageValidator.sol\":2829:2966  if lt(firstByte, 0xf8) {... */\n      iszero\n      tag_191\n      jumpi\n        /* \"contracts/generated/PatriciaStorageValidator.sol\":2950:2951  1 */\n      0x01\n        /* \"contracts/generated/PatriciaStorageValidator.sol\":2945:2948  ptr */\n      dup6\n        /* \"contracts/generated/PatriciaStorageValidator.sol\":2941:2952  add(ptr, 1) */\n      add\n        /* \"contracts/generated/PatriciaStorageValidator.sol\":2926:2952  valueOffset := add(ptr, 1) */\n      swap3\n      pop\n        /* \"contracts/generated/PatriciaStorageValidator.sol\":2957:2962  leave */\n      pop\n      jump(tag_186)\n        /* \"contracts/generated/PatriciaStorageValidator.sol\":2829:2966  if lt(firstByte, 0xf8) {... */\n    tag_191:\n      not(0xf6)\n        /* \"contracts/generated/PatriciaStorageValidator.sol\":3073:3093  sub(firstByte, 0xf7) */\n      add\n      swap3\n      pop\n        /* \"contracts/generated/PatriciaStorageValidator.sol\":3122:3123  1 */\n      0x01\n        /* \"contracts/generated/PatriciaStorageValidator.sol\":3113:3124  add(ptr, 1) */\n      dup5\n      add\n      swap2\n      pop\n        /* \"contracts/generated/PatriciaStorageValidator.sol\":1897:3140  function decodeValue (ptr) -> dataLen, valueOffset, isData {... */\n    tag_186:\n      swap2\n      swap4\n      swap1\n      swap3\n      pop\n      jump\t// out\n        /* \"contracts/generated/PatriciaStorageValidator.sol\":3379:4268  function decodeFlat (_ptr) -> ptr, memStart, nItems, hash {... */\n    tag_166:\n        /* \"contracts/generated/PatriciaStorageValidator.sol\":3563:3565  64 */\n      0x40\n        /* \"contracts/generated/PatriciaStorageValidator.sol\":3557:3566  mload(64) */\n      mload\n        /* \"contracts/generated/PatriciaStorageValidator.sol\":3448:3452  _ptr */\n      dup2\n      swap1\n        /* \"contracts/generated/PatriciaStorageValidator.sol\":3409:3412  ptr */\n      0x00\n      dup1\n        /* \"contracts/generated/PatriciaStorageValidator.sol\":3601:3622  decodeListLength(ptr) */\n      tag_193\n        /* \"contracts/generated/PatriciaStorageValidator.sol\":3448:3452  _ptr */\n      dup5\n        /* \"contracts/generated/PatriciaStorageValidator.sol\":3601:3622  decodeListLength(ptr) */\n      tag_164\n      jump\t// in\n    tag_193:\n        /* \"contracts/generated/PatriciaStorageValidator.sol\":3689:3699  payloadLen */\n      dup2\n        /* \"contracts/generated/PatriciaStorageValidator.sol\":3684:3687  ptr */\n      dup7\n        /* \"contracts/generated/PatriciaStorageValidator.sol\":3674:3682  memStart */\n      dup7\n        /* \"contracts/generated/PatriciaStorageValidator.sol\":3661:3700  calldatacopy(memStart, ptr, payloadLen) */\n      calldatacopy\n        /* \"contracts/generated/PatriciaStorageValidator.sol\":3711:3742  keccak256(memStart, payloadLen) */\n      dup2\n      dup6\n      keccak256\n        /* \"contracts/generated/PatriciaStorageValidator.sol\":3816:3827  startOffset */\n      swap1\n      swap6\n        /* \"contracts/generated/PatriciaStorageValidator.sol\":3711:3742  keccak256(memStart, payloadLen) */\n      swap1\n      swap3\n      pop\n        /* \"contracts/generated/PatriciaStorageValidator.sol\":3786:3806  add(ptr, payloadLen) */\n      add\n        /* \"contracts/generated/PatriciaStorageValidator.sol\":3816:3827  startOffset */\n      dup5\n        /* \"contracts/generated/PatriciaStorageValidator.sol\":3721:3729  memStart */\n      dup5\n        /* \"contracts/generated/PatriciaStorageValidator.sol\":3869:4169  for {} lt(ptr, ptrStop) {} {... */\n    tag_194:\n        /* \"contracts/generated/PatriciaStorageValidator.sol\":3884:3891  ptrStop */\n      dup3\n        /* \"contracts/generated/PatriciaStorageValidator.sol\":3879:3882  ptr */\n      dup8\n        /* \"contracts/generated/PatriciaStorageValidator.sol\":3876:3892  lt(ptr, ptrStop) */\n      lt\n        /* \"contracts/generated/PatriciaStorageValidator.sol\":3869:4169  for {} lt(ptr, ptrStop) {} {... */\n      iszero\n      tag_196\n      jumpi\n        /* \"contracts/generated/PatriciaStorageValidator.sol\":3931:3947  decodeValue(ptr) */\n      tag_197\n        /* \"contracts/generated/PatriciaStorageValidator.sol\":3943:3946  ptr */\n      dup8\n        /* \"contracts/generated/PatriciaStorageValidator.sol\":3931:3947  decodeValue(ptr) */\n      tag_165\n      jump\t// in\n    tag_197:\n        /* \"contracts/generated/PatriciaStorageValidator.sol\":3902:3947  let len, valuePtr, isData := decodeValue(ptr) */\n      swap4\n      pop\n        /* \"contracts/generated/PatriciaStorageValidator.sol\":3968:3976  valuePtr */\n      dup1\n        /* \"contracts/generated/PatriciaStorageValidator.sol\":3963:3966  len */\n      dup3\n        /* \"contracts/generated/PatriciaStorageValidator.sol\":3959:3977  add(len, valuePtr) */\n      add\n        /* \"contracts/generated/PatriciaStorageValidator.sol\":3952:3977  ptr := add(len, valuePtr) */\n      swap9\n      pop\n        /* \"contracts/generated/PatriciaStorageValidator.sol\":3986:3992  isData */\n      dup4\n        /* \"contracts/generated/PatriciaStorageValidator.sol\":3983:4165  if isData {... */\n      iszero\n      tag_198\n      jumpi\n        /* \"contracts/generated/PatriciaStorageValidator.sol\":4081:4084  128 */\n      0x80\n        /* \"contracts/generated/PatriciaStorageValidator.sol\":4077:4090  shl(128, len) */\n      dup3\n      swap1\n      shl\n        /* \"contracts/generated/PatriciaStorageValidator.sol\":4074:4101  or(shl(128, len), valuePtr) */\n      dup2\n      or\n        /* \"contracts/generated/PatriciaStorageValidator.sol\":4108:4127  mstore(memPtr, tmp) */\n      dup4\n      mstore\n        /* \"contracts/generated/PatriciaStorageValidator.sol\":4156:4158  32 */\n      0x20\n        /* \"contracts/generated/PatriciaStorageValidator.sol\":4144:4159  add(memPtr, 32) */\n      swap1\n      swap3\n      add\n      swap2\n        /* \"contracts/generated/PatriciaStorageValidator.sol\":3983:4165  if isData {... */\n    tag_198:\n      pop\n      pop\n        /* \"contracts/generated/PatriciaStorageValidator.sol\":3869:4169  for {} lt(ptr, ptrStop) {} {... */\n      jump(tag_194)\n    tag_196:\n        /* \"contracts/generated/PatriciaStorageValidator.sol\":4191:4198  ptrStop */\n      dup3\n        /* \"contracts/generated/PatriciaStorageValidator.sol\":4186:4189  ptr */\n      dup8\n        /* \"contracts/generated/PatriciaStorageValidator.sol\":4183:4199  eq(ptr, ptrStop) */\n      eq\n        /* \"contracts/generated/PatriciaStorageValidator.sol\":4173:4220  if iszero(eq(ptr, ptrStop)) {... */\n      tag_199\n      jumpi\n        /* \"contracts/generated/PatriciaStorageValidator.sol\":4207:4216  invalid() */\n      invalid\n        /* \"contracts/generated/PatriciaStorageValidator.sol\":4173:4220  if iszero(eq(ptr, ptrStop)) {... */\n    tag_199:\n        /* \"contracts/generated/PatriciaStorageValidator.sol\":4262:4264  32 */\n      0x20\n        /* \"contracts/generated/PatriciaStorageValidator.sol\":4251:4259  memStart */\n      dup7\n        /* \"contracts/generated/PatriciaStorageValidator.sol\":4243:4249  memPtr */\n      dup3\n        /* \"contracts/generated/PatriciaStorageValidator.sol\":4239:4260  sub(memPtr, memStart) */\n      sub\n        /* \"contracts/generated/PatriciaStorageValidator.sol\":4234:4266  div( sub(memPtr, memStart), 32 ) */\n      div\n        /* \"contracts/generated/PatriciaStorageValidator.sol\":4224:4266  nItems := div( sub(memPtr, memStart), 32 ) */\n      swap5\n      pop\n      pop\n      pop\n      pop\n        /* \"contracts/generated/PatriciaStorageValidator.sol\":3379:4268  function decodeFlat (_ptr) -> ptr, memStart, nItems, hash {... */\n      swap2\n      swap4\n      pop\n      swap2\n      swap4\n      jump\t// out\n        /* \"contracts/generated/PatriciaStorageValidator.sol\":4717:5152  function derivePath (key, depth) -> path {... */\n    tag_169:\n      not(0x00)\n        /* \"contracts/generated/PatriciaStorageValidator.sol\":4800:4801  4 */\n      0x04\n        /* \"contracts/generated/PatriciaStorageValidator.sol\":4789:4802  mul(depth, 4) */\n      dup4\n      mul\n        /* \"contracts/generated/PatriciaStorageValidator.sol\":4842:4857  shr(bits, mask) */\n      swap1\n      dup2\n      shr\n        /* \"contracts/generated/PatriciaStorageValidator.sol\":4870:4885  and(path, mask) */\n      dup3\n      and\n      swap1\n        /* \"contracts/generated/PatriciaStorageValidator.sol\":4924:4928  0x20 */\n      0x20\n        /* \"contracts/generated/PatriciaStorageValidator.sol\":4934:4947  mod(depth, 2) */\n      0x01\n      dup6\n      and\n        /* \"contracts/generated/PatriciaStorageValidator.sol\":4931:4982  if mod(depth, 2) {... */\n      iszero\n      tag_203\n      jumpi\n      pop\n        /* \"contracts/generated/PatriciaStorageValidator.sol\":4975:4978  0x3 */\n      0x03\n        /* \"contracts/generated/PatriciaStorageValidator.sol\":4931:4982  if mod(depth, 2) {... */\n    tag_203:\n        /* \"contracts/generated/PatriciaStorageValidator.sol\":5083:5086  256 */\n      0x0100\n        /* \"contracts/generated/PatriciaStorageValidator.sol\":5079:5093  sub(256, bits) */\n      swap2\n      swap1\n      swap2\n      sub\n        /* \"contracts/generated/PatriciaStorageValidator.sol\":5106:5123  shl(bits, prefix) */\n      shl\n        /* \"contracts/generated/PatriciaStorageValidator.sol\":5134:5150  or(prefix, path) */\n      or\n      swap3\n        /* \"contracts/generated/PatriciaStorageValidator.sol\":4717:5152  function derivePath (key, depth) -> path {... */\n      swap2\n      pop\n      pop\n      jump\t// out\n        /* \"contracts/generated/PatriciaStorageValidator.sol\":5241:5855  function loadValue (memPtr, idx) -> value {... */\n    tag_170:\n        /* \"contracts/generated/PatriciaStorageValidator.sol\":5277:5282  value */\n      0x00\n        /* \"contracts/generated/PatriciaStorageValidator.sol\":5324:5327  idx */\n      dup3\n        /* \"contracts/generated/PatriciaStorageValidator.sol\":5320:5322  32 */\n      0x20\n        /* \"contracts/generated/PatriciaStorageValidator.sol\":5316:5328  mul(32, idx) */\n      mul\n        /* \"contracts/generated/PatriciaStorageValidator.sol\":5308:5314  memPtr */\n      dup3\n        /* \"contracts/generated/PatriciaStorageValidator.sol\":5304:5329  add(memPtr, mul(32, idx)) */\n      add\n        /* \"contracts/generated/PatriciaStorageValidator.sol\":5298:5330  mload(add(memPtr, mul(32, idx))) */\n      mload\n        /* \"contracts/generated/PatriciaStorageValidator.sol\":5421:5429  0xffffff */\n      0xffffff\n        /* \"contracts/generated/PatriciaStorageValidator.sol\":5416:5419  tmp */\n      dup2\n        /* \"contracts/generated/PatriciaStorageValidator.sol\":5412:5430  and(tmp, 0xffffff) */\n      and\n        /* \"contracts/generated/PatriciaStorageValidator.sol\":5453:5456  tmp */\n      dup2\n        /* \"contracts/generated/PatriciaStorageValidator.sol\":5448:5451  128 */\n      0x80\n        /* \"contracts/generated/PatriciaStorageValidator.sol\":5444:5457  shr(128, tmp) */\n      shr\n        /* \"contracts/generated/PatriciaStorageValidator.sol\":5433:5457  let len := shr(128, tmp) */\n      swap2\n      pop\n        /* \"contracts/generated/PatriciaStorageValidator.sol\":5472:5474  31 */\n      0x1f\n        /* \"contracts/generated/PatriciaStorageValidator.sol\":5467:5470  len */\n      dup3\n        /* \"contracts/generated/PatriciaStorageValidator.sol\":5464:5475  gt(len, 31) */\n      gt\n        /* \"contracts/generated/PatriciaStorageValidator.sol\":5461:5698  if gt(len, 31) {... */\n      iszero\n      tag_205\n      jumpi\n        /* \"contracts/generated/PatriciaStorageValidator.sol\":5625:5650  add(offset, sub(len, 32)) */\n      add\n      not(0x1f)\n      add\n        /* \"contracts/generated/PatriciaStorageValidator.sol\":5664:5684  calldataload(offset) */\n      calldataload\n      swap1\n      pop\n        /* \"contracts/generated/PatriciaStorageValidator.sol\":5689:5694  leave */\n      jump(tag_180)\n        /* \"contracts/generated/PatriciaStorageValidator.sol\":5461:5698  if gt(len, 31) {... */\n    tag_205:\n        /* \"contracts/generated/PatriciaStorageValidator.sol\":5805:5825  calldataload(offset) */\n      calldataload\n        /* \"contracts/generated/PatriciaStorageValidator.sol\":5781:5783  32 */\n      0x20\n        /* \"contracts/generated/PatriciaStorageValidator.sol\":5777:5789  sub(32, len) */\n      swap2\n      swap1\n      swap2\n      sub\n        /* \"contracts/generated/PatriciaStorageValidator.sol\":5791:5792  8 */\n      0x08\n        /* \"contracts/generated/PatriciaStorageValidator.sol\":5772:5793  mul( sub(32, len), 8) */\n      mul\n        /* \"contracts/generated/PatriciaStorageValidator.sol\":5837:5853  shr(bits, value) */\n      shr\n      swap1\n      pop\n        /* \"contracts/generated/PatriciaStorageValidator.sol\":5241:5855  function loadValue (memPtr, idx) -> value {... */\n      swap3\n      swap2\n      pop\n      pop\n      jump\t// out\n        /* \"contracts/generated/PatriciaStorageValidator.sol\":6016:6634  function loadValueLen (memPtr, idx) -> value, len {... */\n    tag_171:\n        /* \"contracts/generated/PatriciaStorageValidator.sol\":6055:6060  value */\n      0x00\n        /* \"contracts/generated/PatriciaStorageValidator.sol\":6062:6065  len */\n      dup1\n        /* \"contracts/generated/PatriciaStorageValidator.sol\":6107:6110  idx */\n      dup4\n        /* \"contracts/generated/PatriciaStorageValidator.sol\":6103:6105  32 */\n      0x20\n        /* \"contracts/generated/PatriciaStorageValidator.sol\":6099:6111  mul(32, idx) */\n      mul\n        /* \"contracts/generated/PatriciaStorageValidator.sol\":6091:6097  memPtr */\n      dup4\n        /* \"contracts/generated/PatriciaStorageValidator.sol\":6087:6112  add(memPtr, mul(32, idx)) */\n      add\n        /* \"contracts/generated/PatriciaStorageValidator.sol\":6081:6113  mload(add(memPtr, mul(32, idx))) */\n      mload\n        /* \"contracts/generated/PatriciaStorageValidator.sol\":6204:6212  0xffffff */\n      0xffffff\n        /* \"contracts/generated/PatriciaStorageValidator.sol\":6199:6202  tmp */\n      dup2\n        /* \"contracts/generated/PatriciaStorageValidator.sol\":6195:6213  and(tmp, 0xffffff) */\n      and\n        /* \"contracts/generated/PatriciaStorageValidator.sol\":6232:6235  tmp */\n      dup2\n        /* \"contracts/generated/PatriciaStorageValidator.sol\":6227:6230  128 */\n      0x80\n        /* \"contracts/generated/PatriciaStorageValidator.sol\":6223:6236  shr(128, tmp) */\n      shr\n        /* \"contracts/generated/PatriciaStorageValidator.sol\":6216:6236  len := shr(128, tmp) */\n      swap3\n      pop\n        /* \"contracts/generated/PatriciaStorageValidator.sol\":6251:6253  31 */\n      0x1f\n        /* \"contracts/generated/PatriciaStorageValidator.sol\":6246:6249  len */\n      dup4\n        /* \"contracts/generated/PatriciaStorageValidator.sol\":6243:6254  gt(len, 31) */\n      gt\n        /* \"contracts/generated/PatriciaStorageValidator.sol\":6240:6477  if gt(len, 31) {... */\n      iszero\n      tag_207\n      jumpi\n        /* \"contracts/generated/PatriciaStorageValidator.sol\":6404:6429  add(offset, sub(len, 32)) */\n      dup3\n      add\n      not(0x1f)\n      add\n        /* \"contracts/generated/PatriciaStorageValidator.sol\":6443:6463  calldataload(offset) */\n      calldataload\n      swap3\n      pop\n        /* \"contracts/generated/PatriciaStorageValidator.sol\":6468:6473  leave */\n      tag_206\n      swap1\n      pop\n      jump\n        /* \"contracts/generated/PatriciaStorageValidator.sol\":6240:6477  if gt(len, 31) {... */\n    tag_207:\n        /* \"contracts/generated/PatriciaStorageValidator.sol\":6584:6604  calldataload(offset) */\n      calldataload\n        /* \"contracts/generated/PatriciaStorageValidator.sol\":6560:6562  32 */\n      0x20\n        /* \"contracts/generated/PatriciaStorageValidator.sol\":6556:6568  sub(32, len) */\n      dup4\n      swap1\n      sub\n        /* \"contracts/generated/PatriciaStorageValidator.sol\":6570:6571  8 */\n      0x08\n        /* \"contracts/generated/PatriciaStorageValidator.sol\":6551:6572  mul( sub(32, len), 8) */\n      mul\n        /* \"contracts/generated/PatriciaStorageValidator.sol\":6616:6632  shr(bits, value) */\n      shr\n      swap3\n      pop\n      pop\n        /* \"contracts/generated/PatriciaStorageValidator.sol\":6016:6634  function loadValueLen (memPtr, idx) -> value, len {... */\n    tag_206:\n      swap3\n      pop\n      swap3\n      swap1\n      pop\n      jump\t// out\n        /* \"contracts/generated/PatriciaStorageValidator.sol\":6974:8758  function walkTree (key, _ptr) -> ptr, rootHash, expectedHash, path, leafMem {... */\n    tag_173:\n        /* \"contracts/generated/PatriciaStorageValidator.sol\":7164:7165  1 */\n      0x01\n        /* \"contracts/generated/PatriciaStorageValidator.sol\":7155:7166  add(ptr, 1) */\n      dup3\n      add\n        /* \"contracts/generated/PatriciaStorageValidator.sol\":7007:7010  ptr */\n      0x00\n      dup1\n      dup1\n      dup1\n        /* \"contracts/generated/PatriciaStorageValidator.sol\":7127:7144  calldataload(ptr) */\n      dup7\n      calldataload\n        /* \"contracts/generated/PatriciaStorageValidator.sol\":7119:7145  byte(0, calldataload(ptr)) */\n      dup2\n      byte\n        /* \"contracts/generated/PatriciaStorageValidator.sol\":7007:7010  ptr */\n      dup2\n      dup1\n        /* \"contracts/generated/PatriciaStorageValidator.sol\":7251:8669  for { let i := 0 } lt(i, nNodes) { i := add(i, 1) } {... */\n    tag_210:\n        /* \"contracts/generated/PatriciaStorageValidator.sol\":7276:7282  nNodes */\n      dup3\n        /* \"contracts/generated/PatriciaStorageValidator.sol\":7273:7274  i */\n      dup2\n        /* \"contracts/generated/PatriciaStorageValidator.sol\":7270:7283  lt(i, nNodes) */\n      lt\n        /* \"contracts/generated/PatriciaStorageValidator.sol\":7251:8669  for { let i := 0 } lt(i, nNodes) { i := add(i, 1) } {... */\n      iszero\n      tag_212\n      jumpi\n        /* \"contracts/generated/PatriciaStorageValidator.sol\":7309:7335  let memStart, nItems, hash */\n      0x00\n      dup1\n      0x00\n        /* \"contracts/generated/PatriciaStorageValidator.sol\":7371:7386  decodeFlat(ptr) */\n      tag_213\n        /* \"contracts/generated/PatriciaStorageValidator.sol\":7382:7385  ptr */\n      dup12\n        /* \"contracts/generated/PatriciaStorageValidator.sol\":7371:7386  decodeFlat(ptr) */\n      tag_166\n      jump\t// in\n    tag_213:\n        /* \"contracts/generated/PatriciaStorageValidator.sol\":7340:7386  ptr, memStart, nItems, hash := decodeFlat(ptr) */\n      swap4\n      pop\n      swap4\n      pop\n      swap4\n      pop\n      swap11\n      pop\n        /* \"contracts/generated/PatriciaStorageValidator.sol\":7554:7555  i */\n      dup4\n        /* \"contracts/generated/PatriciaStorageValidator.sol\":7565:7566  0 */\n      0x00\n        /* \"contracts/generated/PatriciaStorageValidator.sol\":7560:7597  case 0 {... */\n      dup2\n      eq\n      tag_215\n      jumpi\n        /* \"contracts/generated/PatriciaStorageValidator.sol\":7614:7646  cmp(hash, expectedHash, 'THASH') */\n      tag_216\n      shl(0xdb, 0x0a89082a69)\n        /* \"contracts/generated/PatriciaStorageValidator.sol\":7624:7636  expectedHash */\n      dup12\n        /* \"contracts/generated/PatriciaStorageValidator.sol\":7618:7622  hash */\n      dup5\n        /* \"contracts/generated/PatriciaStorageValidator.sol\":7614:7646  cmp(hash, expectedHash, 'THASH') */\n      tag_178\n      jump\t// in\n    tag_216:\n        /* \"contracts/generated/PatriciaStorageValidator.sol\":7547:7652  switch i... */\n      jump(tag_214)\n        /* \"contracts/generated/PatriciaStorageValidator.sol\":7560:7597  case 0 {... */\n    tag_215:\n        /* \"contracts/generated/PatriciaStorageValidator.sol\":7587:7591  hash */\n      dup2\n        /* \"contracts/generated/PatriciaStorageValidator.sol\":7575:7591  rootHash := hash */\n      swap11\n      pop\n        /* \"contracts/generated/PatriciaStorageValidator.sol\":7547:7652  switch i... */\n    tag_214:\n      pop\n      pop\n        /* \"contracts/generated/PatriciaStorageValidator.sol\":7665:7671  nItems */\n      dup1\n        /* \"contracts/generated/PatriciaStorageValidator.sol\":7681:7682  2 */\n      0x02\n        /* \"contracts/generated/PatriciaStorageValidator.sol\":7676:8320  case 2 {... */\n      dup2\n      eq\n      tag_218\n      jumpi\n        /* \"contracts/generated/PatriciaStorageValidator.sol\":8330:8332  17 */\n      0x11\n        /* \"contracts/generated/PatriciaStorageValidator.sol\":8325:8581  case 17 {... */\n      dup2\n      eq\n      tag_219\n      jumpi\n        /* \"contracts/generated/PatriciaStorageValidator.sol\":8641:8659  revertWith('NODE') */\n      tag_220\n      shl(0xe0, 0x4e4f4445)\n      tag_140\n      jump\t// in\n    tag_220:\n        /* \"contracts/generated/PatriciaStorageValidator.sol\":7658:8665  switch nItems... */\n      jump(tag_217)\n        /* \"contracts/generated/PatriciaStorageValidator.sol\":7676:8320  case 2 {... */\n    tag_218:\n        /* \"contracts/generated/PatriciaStorageValidator.sol\":7715:7729  let value, len */\n      0x00\n      dup1\n        /* \"contracts/generated/PatriciaStorageValidator.sol\":7846:7871  loadValueLen(memStart, 1) */\n      tag_221\n        /* \"contracts/generated/PatriciaStorageValidator.sol\":7869:7870  1 */\n      0x01\n        /* \"contracts/generated/PatriciaStorageValidator.sol\":7859:7867  memStart */\n      dup7\n        /* \"contracts/generated/PatriciaStorageValidator.sol\":7846:7871  loadValueLen(memStart, 1) */\n      tag_171\n      jump\t// in\n    tag_221:\n      pop\n        /* \"contracts/generated/PatriciaStorageValidator.sol\":7832:7871  value, len := loadValueLen(memStart, 1) */\n      swap11\n      pop\n      pop\n      pop\n      not(0x00)\n        /* \"contracts/generated/PatriciaStorageValidator.sol\":7920:7934  sub(nNodes, 1) */\n      dup7\n      add\n        /* \"contracts/generated/PatriciaStorageValidator.sol\":7914:7935  eq(i, sub(nNodes, 1)) */\n      dup5\n      eq\n        /* \"contracts/generated/PatriciaStorageValidator.sol\":7942:8262  case 0 {... */\n      dup1\n      iszero\n      tag_223\n      jumpi\n        /* \"contracts/generated/PatriciaStorageValidator.sol\":8298:8306  memStart */\n      dup4\n        /* \"contracts/generated/PatriciaStorageValidator.sol\":8287:8306  leafMem := memStart */\n      swap8\n      pop\n        /* \"contracts/generated/PatriciaStorageValidator.sol\":7907:8314  switch eq(i, sub(nNodes, 1))... */\n      jump(tag_222)\n        /* \"contracts/generated/PatriciaStorageValidator.sol\":7942:8262  case 0 {... */\n    tag_223:\n        /* \"contracts/generated/PatriciaStorageValidator.sol\":8199:8214  mload(memStart) */\n      dup4\n      mload\n        /* \"contracts/generated/PatriciaStorageValidator.sol\":8194:8197  128 */\n      0x80\n        /* \"contracts/generated/PatriciaStorageValidator.sol\":8190:8215  shr(128, mload(memStart)) */\n      shr\n        /* \"contracts/generated/PatriciaStorageValidator.sol\":8233:8254  add(depth, prefixLen) */\n      swap6\n      swap1\n      swap6\n      add\n      swap5\n        /* \"contracts/generated/PatriciaStorageValidator.sol\":7907:8314  switch eq(i, sub(nNodes, 1))... */\n    tag_222:\n      pop\n        /* \"contracts/generated/PatriciaStorageValidator.sol\":7676:8320  case 2 {... */\n      jump(tag_217)\n        /* \"contracts/generated/PatriciaStorageValidator.sol\":8325:8581  case 17 {... */\n    tag_219:\n        /* \"contracts/generated/PatriciaStorageValidator.sol\":8373:8374  4 */\n      0x04\n        /* \"contracts/generated/PatriciaStorageValidator.sol\":8362:8375  mul(depth, 4) */\n      dup6\n      mul\n        /* \"contracts/generated/PatriciaStorageValidator.sol\":8357:8360  252 */\n      0xfc\n        /* \"contracts/generated/PatriciaStorageValidator.sol\":8353:8376  sub(252, mul(depth, 4)) */\n      sub\n        /* \"contracts/generated/PatriciaStorageValidator.sol\":8401:8415  shr(bits, key) */\n      dup13\n      swap1\n      shr\n        /* \"contracts/generated/PatriciaStorageValidator.sol\":8417:8420  0xf */\n      0x0f\n        /* \"contracts/generated/PatriciaStorageValidator.sol\":8397:8421  and(shr(bits, key), 0xf) */\n      and\n        /* \"contracts/generated/PatriciaStorageValidator.sol\":8487:8517  loadValueLen(memStart, nibble) */\n      tag_224\n        /* \"contracts/generated/PatriciaStorageValidator.sol\":8397:8421  and(shr(bits, key), 0xf) */\n      dup2\n        /* \"contracts/generated/PatriciaStorageValidator.sol\":8500:8508  memStart */\n      dup6\n        /* \"contracts/generated/PatriciaStorageValidator.sol\":8487:8517  loadValueLen(memStart, nibble) */\n      tag_171\n      jump\t// in\n    tag_224:\n      pop\n        /* \"contracts/generated/PatriciaStorageValidator.sol\":8469:8517  let value, len := loadValueLen(memStart, nibble) */\n      swap10\n      pop\n      pop\n        /* \"contracts/generated/PatriciaStorageValidator.sol\":8573:8574  1 */\n      0x01\n        /* \"contracts/generated/PatriciaStorageValidator.sol\":8562:8575  add(depth, 1) */\n      swap5\n      swap1\n      swap5\n      add\n      swap4\n        /* \"contracts/generated/PatriciaStorageValidator.sol\":7658:8665  switch nItems... */\n    tag_217:\n      pop\n      pop\n      pop\n        /* \"contracts/generated/PatriciaStorageValidator.sol\":7298:7299  1 */\n      0x01\n        /* \"contracts/generated/PatriciaStorageValidator.sol\":7291:7300  add(i, 1) */\n      add\n        /* \"contracts/generated/PatriciaStorageValidator.sol\":7251:8669  for { let i := 0 } lt(i, nNodes) { i := add(i, 1) } {... */\n      jump(tag_210)\n    tag_212:\n        /* \"contracts/generated/PatriciaStorageValidator.sol\":7255:7269  { let i := 0 } */\n      pop\n        /* \"contracts/generated/PatriciaStorageValidator.sol\":8734:8756  derivePath(key, depth) */\n      tag_225\n        /* \"contracts/generated/PatriciaStorageValidator.sol\":8750:8755  depth */\n      dup2\n        /* \"contracts/generated/PatriciaStorageValidator.sol\":8745:8748  key */\n      dup10\n        /* \"contracts/generated/PatriciaStorageValidator.sol\":8734:8756  derivePath(key, depth) */\n      tag_169\n      jump\t// in\n    tag_225:\n        /* \"contracts/generated/PatriciaStorageValidator.sol\":8726:8756  path := derivePath(key, depth) */\n      swap4\n      pop\n      pop\n      pop\n        /* \"contracts/generated/PatriciaStorageValidator.sol\":6974:8758  function walkTree (key, _ptr) -> ptr, rootHash, expectedHash, path, leafMem {... */\n      swap3\n      swap6\n      pop\n      swap3\n      swap6\n      swap1\n      swap4\n      pop\n      jump\t// out\n        /* \"contracts/generated/PatriciaStorageValidator.sol\":9782:9801  decodeFlat(leafPtr) */\n    tag_233:\n        /* \"contracts/generated/PatriciaStorageValidator.sol\":9747:9801  leafPtr , leafMem, nItems, hash := decodeFlat(leafPtr) */\n      swap6\n      pop\n      swap6\n      pop\n      swap2\n      pop\n      swap5\n      pop\n        /* \"contracts/generated/PatriciaStorageValidator.sol\":9889:9922  require(eq(nItems, 4), \"ACLEAFN\") */\n      tag_234\n      shl(0xc9, 0x20a1a622a0a327)\n        /* \"contracts/generated/PatriciaStorageValidator.sol\":9908:9909  4 */\n      0x04\n        /* \"contracts/generated/PatriciaStorageValidator.sol\":9900:9906  nItems */\n      dup7\n        /* \"contracts/generated/PatriciaStorageValidator.sol\":9897:9910  eq(nItems, 4) */\n      eq\n        /* \"contracts/generated/PatriciaStorageValidator.sol\":9889:9922  require(eq(nItems, 4), \"ACLEAFN\") */\n      tag_177\n      jump\t// in\n    tag_234:\n        /* \"contracts/generated/PatriciaStorageValidator.sol\":9947:9968  loadValue(leafMem, 2) */\n      tag_235\n        /* \"contracts/generated/PatriciaStorageValidator.sol\":9966:9967  2 */\n      0x02\n        /* \"contracts/generated/PatriciaStorageValidator.sol\":9957:9964  leafMem */\n      dup3\n        /* \"contracts/generated/PatriciaStorageValidator.sol\":9947:9968  loadValue(leafMem, 2) */\n      tag_170\n      jump\t// in\n    tag_235:\n        /* \"contracts/generated/PatriciaStorageValidator.sol\":9925:9968  accountStorageHash := loadValue(leafMem, 2) */\n      swap6\n      pop\n      pop\n      pop\n      pop\n      pop\n      pop\n        /* \"contracts/generated/PatriciaStorageValidator.sol\":9023:9970  function validateAccountProof (_ptr, accountAddress) -> ptr, rootHash, accountStorageHash {... */\n      swap3\n      pop\n      swap3\n      pop\n      swap3\n      jump\t// out\n        /* \"contracts/generated/PatriciaStorageValidator.sol\":10017:10944  function validateStorageProof (_ptr, _storageKey) -> ptr, rootHash, storageKeyValue {... */\n    tag_175:\n        /* \"contracts/generated/PatriciaStorageValidator.sol\":10112:10116  _ptr */\n      dup1\n        /* \"contracts/generated/PatriciaStorageValidator.sol\":10070:10073  ptr */\n      0x00\n      dup1\n      dup1\n      dup1\n      dup1\n      dup1\n      dup1\n        /* \"contracts/generated/PatriciaStorageValidator.sol\":10196:10218  keccak_32(_storageKey) */\n      tag_237\n        /* \"contracts/generated/PatriciaStorageValidator.sol\":10206:10217  _storageKey */\n      dup11\n        /* \"contracts/generated/PatriciaStorageValidator.sol\":4335:4336  0 */\n      0x00\n        /* \"contracts/generated/PatriciaStorageValidator.sol\":4328:4340  mstore(0, v) */\n      swap1\n      dup2\n      mstore\n        /* \"contracts/generated/PatriciaStorageValidator.sol\":4361:4363  32 */\n      0x20\n        /* \"contracts/generated/PatriciaStorageValidator.sol\":4348:4364  keccak256(0, 32) */\n      swap1\n      keccak256\n      swap1\n        /* \"contracts/generated/PatriciaStorageValidator.sol\":4296:4366  function keccak_32 (v) -> r {... */\n      jump\n        /* \"contracts/generated/PatriciaStorageValidator.sol\":10196:10218  keccak_32(_storageKey) */\n    tag_237:\n        /* \"contracts/generated/PatriciaStorageValidator.sol\":10259:10277  walkTree(key, ptr) */\n      tag_238\n        /* \"contracts/generated/PatriciaStorageValidator.sol\":10273:10276  ptr */\n      dup10\n        /* \"contracts/generated/PatriciaStorageValidator.sol\":10268:10271  key */\n      dup3\n        /* \"contracts/generated/PatriciaStorageValidator.sol\":10259:10277  walkTree(key, ptr) */\n      tag_173\n      jump\t// in\n    tag_238:\n        /* \"contracts/generated/PatriciaStorageValidator.sol\":10221:10277  ptr, rootHash, hash, path, leafMem := walkTree(key, ptr) */\n      swap6\n      pop\n      swap8\n      pop\n      swap6\n      pop\n      swap9\n      pop\n      swap9\n      pop\n      pop\n        /* \"contracts/generated/PatriciaStorageValidator.sol\":10288:10295  leafMem */\n      dup1\n        /* \"contracts/generated/PatriciaStorageValidator.sol\":10303:10304  0 */\n      0x00\n        /* \"contracts/generated/PatriciaStorageValidator.sol\":10298:10353  case 0 {... */\n      dup2\n      eq\n      tag_240\n      jumpi\n        /* \"contracts/generated/PatriciaStorageValidator.sol\":10473:10494  loadValue(leafMem, 0) */\n      tag_241\n        /* \"contracts/generated/PatriciaStorageValidator.sol\":10492:10493  0 */\n      0x00\n        /* \"contracts/generated/PatriciaStorageValidator.sol\":10483:10490  leafMem */\n      dup4\n        /* \"contracts/generated/PatriciaStorageValidator.sol\":10473:10494  loadValue(leafMem, 0) */\n      tag_170\n      jump\t// in\n    tag_241:\n        /* \"contracts/generated/PatriciaStorageValidator.sol\":10458:10494  encodedPath := loadValue(leafMem, 0) */\n      swap6\n      pop\n        /* \"contracts/generated/PatriciaStorageValidator.sol\":10524:10548  loadValueLen(leafMem, 1) */\n      tag_242\n        /* \"contracts/generated/PatriciaStorageValidator.sol\":10546:10547  1 */\n      0x01\n        /* \"contracts/generated/PatriciaStorageValidator.sol\":10537:10544  leafMem */\n      dup4\n        /* \"contracts/generated/PatriciaStorageValidator.sol\":10524:10548  loadValueLen(leafMem, 1) */\n      tag_171\n      jump\t// in\n    tag_242:\n        /* \"contracts/generated/PatriciaStorageValidator.sol\":10499:10548  storageKeyValue, vlen := loadValueLen(leafMem, 1) */\n      swap4\n      pop\n      swap7\n      pop\n        /* \"contracts/generated/PatriciaStorageValidator.sol\":10626:10637  encodedPath */\n      dup6\n        /* \"contracts/generated/PatriciaStorageValidator.sol\":10620:10624  path */\n      dup6\n        /* \"contracts/generated/PatriciaStorageValidator.sol\":10617:10638  eq(path, encodedPath) */\n      eq\n        /* \"contracts/generated/PatriciaStorageValidator.sol\":10599:10638  let isSamePath := eq(path, encodedPath) */\n      swap4\n      pop\n        /* \"contracts/generated/PatriciaStorageValidator.sol\":10650:10660  isSamePath */\n      dup4\n        /* \"contracts/generated/PatriciaStorageValidator.sol\":10670:10671  0 */\n      0x00\n        /* \"contracts/generated/PatriciaStorageValidator.sol\":10665:10753  case 0 {... */\n      dup2\n      eq\n      tag_244\n      jumpi\n        /* \"contracts/generated/PatriciaStorageValidator.sol\":10899:10932  decodeItem(storageKeyValue, vlen) */\n      tag_245\n        /* \"contracts/generated/PatriciaStorageValidator.sol\":10927:10931  vlen */\n      dup5\n        /* \"contracts/generated/PatriciaStorageValidator.sol\":10910:10925  storageKeyValue */\n      dup10\n        /* \"contracts/generated/PatriciaStorageValidator.sol\":10899:10932  decodeItem(storageKeyValue, vlen) */\n      tag_163\n      jump\t// in\n    tag_245:\n        /* \"contracts/generated/PatriciaStorageValidator.sol\":10880:10932  storageKeyValue := decodeItem(storageKeyValue, vlen) */\n      swap8\n      pop\n        /* \"contracts/generated/PatriciaStorageValidator.sol\":10643:10938  switch isSamePath... */\n      jump(tag_243)\n        /* \"contracts/generated/PatriciaStorageValidator.sol\":10665:10753  case 0 {... */\n    tag_244:\n        /* \"contracts/generated/PatriciaStorageValidator.sol\":10746:10747  0 */\n      0x00\n        /* \"contracts/generated/PatriciaStorageValidator.sol\":10727:10747  storageKeyValue := 0 */\n      swap8\n      pop\n        /* \"contracts/generated/PatriciaStorageValidator.sol\":10643:10938  switch isSamePath... */\n    tag_243:\n      pop\n        /* \"contracts/generated/PatriciaStorageValidator.sol\":10298:10353  case 0 {... */\n    tag_240:\n        /* \"contracts/generated/PatriciaStorageValidator.sol\":10281:10942  switch leafMem... */\n      pop\n      pop\n      pop\n      pop\n      pop\n      pop\n        /* \"contracts/generated/PatriciaStorageValidator.sol\":10017:10944  function validateStorageProof (_ptr, _storageKey) -> ptr, rootHash, storageKeyValue {... */\n      swap3\n      pop\n      swap3\n      pop\n      swap3\n      jump\t// out\n        /* \"contracts/generated/PatriciaStorageValidator.sol\":11222:11303  function require (cond, msg) {... */\n    tag_177:\n        /* \"contracts/generated/PatriciaStorageValidator.sol\":11262:11266  cond */\n      dup1\n      dup1\n        /* \"contracts/generated/PatriciaStorageValidator.sol\":11255:11301  switch cond... */\n      tag_253\n        /* \"contracts/generated/PatriciaStorageValidator.sol\":11269:11301  case 0 {... */\n      jumpi\n        /* \"contracts/generated/PatriciaStorageValidator.sol\":11282:11297  revertWith(msg) */\n      tag_253\n        /* \"contracts/generated/PatriciaStorageValidator.sol\":11293:11296  msg */\n      dup4\n        /* \"contracts/generated/PatriciaStorageValidator.sol\":11282:11297  revertWith(msg) */\n      tag_140\n      jump\t// in\n    tag_253:\n        /* \"contracts/generated/PatriciaStorageValidator.sol\":11255:11301  switch cond... */\n      pop\n        /* \"contracts/generated/PatriciaStorageValidator.sol\":11222:11303  function require (cond, msg) {... */\n      pop\n      pop\n      jump\t// out\n        /* \"contracts/generated/PatriciaStorageValidator.sol\":11340:11421  function cmp (a, b, msg) {... */\n    tag_178:\n        /* \"contracts/generated/PatriciaStorageValidator.sol\":11376:11384  eq(a, b) */\n      dup1\n      dup3\n      eq\n      dup1\n        /* \"contracts/generated/PatriciaStorageValidator.sol\":11369:11419  switch eq(a, b)... */\n      tag_257\n        /* \"contracts/generated/PatriciaStorageValidator.sol\":11387:11419  case 0 {... */\n      jumpi\n        /* \"contracts/generated/PatriciaStorageValidator.sol\":11400:11415  revertWith(msg) */\n      tag_257\n        /* \"contracts/generated/PatriciaStorageValidator.sol\":11411:11414  msg */\n      dup5\n        /* \"contracts/generated/PatriciaStorageValidator.sol\":11400:11415  revertWith(msg) */\n      tag_140\n      jump\t// in\n    tag_257:\n        /* \"contracts/generated/PatriciaStorageValidator.sol\":11369:11419  switch eq(a, b)... */\n      pop\n        /* \"contracts/generated/PatriciaStorageValidator.sol\":11340:11421  function cmp (a, b, msg) {... */\n      pop\n      pop\n      pop\n      jump\t// out\n    tag_179:\n        /* \"contracts/generated/PatriciaStorageValidator.sol\":11440:11456  proofData.offset */\n      dup4\n        /* \"contracts/generated/PatriciaStorageValidator.sol\":11497:11534  validateStorageProof(ptr, storageKey) */\n      tag_258\n        /* \"contracts/generated/PatriciaStorageValidator.sol\":11523:11533  storageKey */\n      dup7\n        /* \"contracts/generated/PatriciaStorageValidator.sol\":11518:11521  ptr */\n      dup3\n        /* \"contracts/generated/PatriciaStorageValidator.sol\":11497:11534  validateStorageProof(ptr, storageKey) */\n      tag_175\n      jump\t// in\n    tag_258:\n        /* \"contracts/generated/PatriciaStorageValidator.sol\":11463:11534  ptr, storageRoot, storageValue := validateStorageProof(ptr, storageKey) */\n      swap4\n      pop\n      swap4\n      pop\n      swap1\n      pop\n        /* \"contracts/generated/PatriciaStorageValidator.sol\":11785:11801  proofData.length */\n      dup4\n        /* \"contracts/generated/PatriciaStorageValidator.sol\":11767:11783  proofData.offset */\n      dup6\n        /* \"contracts/generated/PatriciaStorageValidator.sol\":11763:11802  add(proofData.offset, proofData.length) */\n      add\n        /* \"contracts/generated/PatriciaStorageValidator.sol\":11758:11761  ptr */\n      dup2\n        /* \"contracts/generated/PatriciaStorageValidator.sol\":11755:11803  eq(ptr, add(proofData.offset, proofData.length)) */\n      eq\n        /* \"contracts/generated/PatriciaStorageValidator.sol\":11744:11844  if iszero( eq(ptr, add(proofData.offset, proofData.length)) ) {... */\n      tag_260\n      jumpi\n        /* \"contracts/generated/PatriciaStorageValidator.sol\":11816:11836  revertWith('BOUNDS') */\n      tag_260\n      shl(0xd0, 0x424f554e4453)\n      tag_140\n      jump\t// in\n    tag_260:\n        /* \"contracts/generated/PatriciaStorageValidator.sol\":11744:11844  if iszero( eq(ptr, add(proofData.offset, proofData.length)) ) {... */\n      pop\n        /* \"contracts/generated/PatriciaStorageValidator.sol\":95:11854  function _validatePatriciaStorageProof (... */\n      swap4\n      pop\n      swap4\n      swap2\n      pop\n      pop\n      jump\t// out\n        /* \"contracts/ZkEvmMessageDispatcherBase.sol\":942:1536  function _dropMessage (... */\n    tag_94:\n        /* \"contracts/ZkEvmMessageDispatcherBase.sol\":1146:1154  deadline */\n      dup4\n        /* \"contracts/ZkEvmMessageDispatcherBase.sol\":1128:1143  block.timestamp */\n      timestamp\n        /* \"contracts/ZkEvmMessageDispatcherBase.sol\":1128:1154  block.timestamp > deadline */\n      gt\n        /* \"contracts/ZkEvmMessageDispatcherBase.sol\":1120:1162  require(block.timestamp > deadline, 'DMD') */\n      tag_262\n      jumpi\n      mload(0x40)\n      shl(0xe5, 0x461bcd)\n      dup2\n      mstore\n        /* \"#utility.yul\":8943:8945   */\n      0x20\n        /* \"contracts/ZkEvmMessageDispatcherBase.sol\":1120:1162  require(block.timestamp > deadline, 'DMD') */\n      0x04\n      dup3\n      add\n        /* \"#utility.yul\":8925:8946   */\n      mstore\n        /* \"#utility.yul\":8982:8983   */\n      0x03\n        /* \"#utility.yul\":8962:8980   */\n      0x24\n      dup3\n      add\n        /* \"#utility.yul\":8955:8984   */\n      mstore\n      shl(0xea, 0x111351)\n        /* \"#utility.yul\":9000:9018   */\n      0x44\n      dup3\n      add\n        /* \"#utility.yul\":8993:9026   */\n      mstore\n        /* \"#utility.yul\":9043:9061   */\n      0x64\n      add\n        /* \"contracts/ZkEvmMessageDispatcherBase.sol\":1120:1162  require(block.timestamp > deadline, 'DMD') */\n      tag_88\n        /* \"#utility.yul\":8741:9067   */\n      jump\n        /* \"contracts/ZkEvmMessageDispatcherBase.sol\":1120:1162  require(block.timestamp > deadline, 'DMD') */\n    tag_262:\n        /* \"contracts/ZkEvmMessageDispatcherBase.sol\":1169:1188  bytes32 messageHash */\n      0x00\n        /* \"contracts/ZkEvmMessageDispatcherBase.sol\":1212:1216  from */\n      dup9\n        /* \"contracts/ZkEvmMessageDispatcherBase.sol\":1218:1220  to */\n      dup9\n        /* \"contracts/ZkEvmMessageDispatcherBase.sol\":1222:1227  value */\n      dup9\n        /* \"contracts/ZkEvmMessageDispatcherBase.sol\":1229:1232  fee */\n      dup9\n        /* \"contracts/ZkEvmMessageDispatcherBase.sol\":1234:1242  deadline */\n      dup9\n        /* \"contracts/ZkEvmMessageDispatcherBase.sol\":1244:1249  nonce */\n      dup9\n        /* \"contracts/ZkEvmMessageDispatcherBase.sol\":1251:1255  data */\n      dup9\n      dup9\n        /* \"contracts/ZkEvmMessageDispatcherBase.sol\":1201:1256  abi.encode(from, to, value, fee, deadline, nonce, data) */\n      add(0x20, mload(0x40))\n      tag_265\n      swap9\n      swap8\n      swap7\n      swap6\n      swap5\n      swap4\n      swap3\n      swap2\n      swap1\n      tag_82\n      jump\t// in\n    tag_265:\n      0x40\n      dup1\n      mload\n      dup1\n      dup4\n      sub\n      not(0x1f)\n      add\n      dup2\n      mstore\n      swap2\n      dup2\n      mstore\n        /* \"contracts/ZkEvmMessageDispatcherBase.sol\":1191:1257  keccak256(abi.encode(from, to, value, fee, deadline, nonce, data)) */\n      dup2\n      mload\n        /* \"contracts/ZkEvmMessageDispatcherBase.sol\":1201:1256  abi.encode(from, to, value, fee, deadline, nonce, data) */\n      0x20\n        /* \"contracts/ZkEvmMessageDispatcherBase.sol\":1191:1257  keccak256(abi.encode(from, to, value, fee, deadline, nonce, data)) */\n      swap3\n      dup4\n      add\n      keccak256\n        /* \"contracts/ZkEvmStorage.sol\":268:278  0x31df76a4 */\n      0x31df76a4\n        /* \"contracts/ZkEvmMessageDispatcherBase.sol\":1264:1283  bytes32 storageSlot */\n      0x00\n        /* \"contracts/ZkEvmStorage.sol\":258:279  mstore(0, 0x31df76a4) */\n      swap1\n      dup2\n      mstore\n        /* \"contracts/ZkEvmStorage.sol\":286:307  mstore(32, messageId) */\n      swap3\n      dup2\n      swap1\n      mstore\n        /* \"contracts/ZkEvmStorage.sol\":321:337  keccak256(0, 64) */\n      swap2\n      keccak256\n        /* \"contracts/ZkEvmMessageDispatcherBase.sol\":1636:1646  sload(key) */\n      dup1\n      sload\n        /* \"contracts/ZkEvmMessageDispatcherBase.sol\":1191:1257  keccak256(abi.encode(from, to, value, fee, deadline, nonce, data)) */\n      swap2\n      swap3\n      pop\n        /* \"contracts/ZkEvmStorage.sol\":321:337  keccak256(0, 64) */\n      swap1\n        /* \"contracts/ZkEvmMessageDispatcherBase.sol\":1356:1357  0 */\n      0x00\n        /* \"contracts/ZkEvmMessageDispatcherBase.sol\":1333:1357  _sload(storageSlot) != 0 */\n      sub\n        /* \"contracts/ZkEvmMessageDispatcherBase.sol\":1325:1365  require(_sload(storageSlot) != 0, 'DMH') */\n      tag_269\n      jumpi\n      mload(0x40)\n      shl(0xe5, 0x461bcd)\n      dup2\n      mstore\n        /* \"#utility.yul\":9274:9276   */\n      0x20\n        /* \"contracts/ZkEvmMessageDispatcherBase.sol\":1325:1365  require(_sload(storageSlot) != 0, 'DMH') */\n      0x04\n      dup3\n      add\n        /* \"#utility.yul\":9256:9277   */\n      mstore\n        /* \"#utility.yul\":9313:9314   */\n      0x03\n        /* \"#utility.yul\":9293:9311   */\n      0x24\n      dup3\n      add\n        /* \"#utility.yul\":9286:9315   */\n      mstore\n      shl(0xeb, 0x0889a9)\n        /* \"#utility.yul\":9331:9349   */\n      0x44\n      dup3\n      add\n        /* \"#utility.yul\":9324:9357   */\n      mstore\n        /* \"#utility.yul\":9374:9392   */\n      0x64\n      add\n        /* \"contracts/ZkEvmMessageDispatcherBase.sol\":1325:1365  require(_sload(storageSlot) != 0, 'DMH') */\n      tag_88\n        /* \"#utility.yul\":9072:9398   */\n      jump\n        /* \"contracts/ZkEvmMessageDispatcherBase.sol\":1325:1365  require(_sload(storageSlot) != 0, 'DMH') */\n    tag_269:\n        /* \"contracts/ZkEvmMessageDispatcherBase.sol\":1392:1393  0 */\n      0x00\n        /* \"contracts/ZkEvmMessageDispatcherBase.sol\":1738:1756  sstore(key, value) */\n      dup2\n      sstore\n        /* \"contracts/ZkEvmMessageDispatcherBase.sol\":1401:1415  uint256 amount */\n      0x00\n        /* \"contracts/ZkEvmMessageDispatcherBase.sol\":1418:1429  value + fee */\n      tag_274\n        /* \"contracts/ZkEvmMessageDispatcherBase.sol\":1426:1429  fee */\n      dup9\n        /* \"contracts/ZkEvmMessageDispatcherBase.sol\":1418:1423  value */\n      dup11\n        /* \"contracts/ZkEvmMessageDispatcherBase.sol\":1418:1429  value + fee */\n      tag_275\n      jump\t// in\n    tag_274:\n        /* \"contracts/ZkEvmMessageDispatcherBase.sol\":1401:1429  uint256 amount = value + fee */\n      swap1\n      pop\n        /* \"contracts/ZkEvmMessageDispatcherBase.sol\":1439:1450  amount != 0 */\n      dup1\n      iszero\n        /* \"contracts/ZkEvmMessageDispatcherBase.sol\":1435:1493  if (amount != 0) {... */\n      tag_277\n      jumpi\n        /* \"contracts/ZkEvmMessageDispatcherBase.sol\":1460:1486  _transferETH(from, amount) */\n      tag_277\n        /* \"contracts/ZkEvmMessageDispatcherBase.sol\":1473:1477  from */\n      dup12\n        /* \"contracts/ZkEvmMessageDispatcherBase.sol\":1479:1485  amount */\n      dup3\n        /* \"contracts/ZkEvmMessageDispatcherBase.sol\":1460:1472  _transferETH */\n      tag_278\n        /* \"contracts/ZkEvmMessageDispatcherBase.sol\":1460:1486  _transferETH(from, amount) */\n      jump\t// in\n    tag_277:\n        /* \"contracts/ZkEvmMessageDispatcherBase.sol\":1504:1531  MessageDropped(messageHash) */\n      mload(0x40)\n        /* \"#utility.yul\":345:370   */\n      dup4\n      dup2\n      mstore\n        /* \"contracts/ZkEvmMessageDispatcherBase.sol\":1504:1531  MessageDropped(messageHash) */\n      0x6629230ca69c43f97674dd064896b819957583c8d20a870e4fb28b05c5d29f29\n      swap1\n        /* \"#utility.yul\":333:335   */\n      0x20\n        /* \"#utility.yul\":318:336   */\n      add\n        /* \"contracts/ZkEvmMessageDispatcherBase.sol\":1504:1531  MessageDropped(messageHash) */\n      mload(0x40)\n      dup1\n      swap2\n      sub\n      swap1\n      log1\n        /* \"contracts/ZkEvmMessageDispatcherBase.sol\":1114:1536  {... */\n      pop\n      pop\n      pop\n        /* \"contracts/ZkEvmMessageDispatcherBase.sol\":942:1536  function _dropMessage (... */\n      pop\n      pop\n      pop\n      pop\n      pop\n      pop\n      pop\n      pop\n      jump\t// out\n        /* \"contracts/generated/HeaderUtil.sol\":81:8046  function _readHeaderParts (... */\n    tag_99:\n        /* \"contracts/generated/HeaderUtil.sol\":172:190  bytes32 parentHash */\n      0x00\n        /* \"contracts/generated/HeaderUtil.sol\":196:213  bytes32 blockHash */\n      dup1\n        /* \"contracts/generated/HeaderUtil.sol\":219:236  bytes32 stateRoot */\n      0x00\n        /* \"contracts/generated/HeaderUtil.sol\":242:261  uint256 blockNumber */\n      dup1\n        /* \"contracts/generated/HeaderUtil.sol\":267:287  uint256 blockGasUsed */\n      0x00\n        /* \"contracts/generated/HeaderUtil.sol\":293:315  uint256 blockTimestamp */\n      dup1\n        /* \"contracts/generated/HeaderUtil.sol\":390:612  function revertWith (msg) {... */\n      jump(tag_294)\n        /* \"contracts/generated/HeaderUtil.sol\":3917:4806  function decodeFlat (_ptr) -> ptr, memStart, nItems, hash {... */\n    tag_287:\n        /* \"contracts/generated/HeaderUtil.sol\":4101:4103  64 */\n      0x40\n        /* \"contracts/generated/HeaderUtil.sol\":4095:4104  mload(64) */\n      mload\n        /* \"contracts/generated/HeaderUtil.sol\":3986:3990  _ptr */\n      dup2\n      swap1\n        /* \"contracts/generated/HeaderUtil.sol\":3947:3950  ptr */\n      0x00\n      dup1\n        /* \"contracts/generated/HeaderUtil.sol\":4139:4160  decodeListLength(ptr) */\n      tag_320\n        /* \"contracts/generated/HeaderUtil.sol\":3986:3990  _ptr */\n      dup5\n        /* \"contracts/generated/HeaderUtil.sol\":4139:4160  decodeListLength(ptr) */\n      tag_164\n      jump\t// in\n    tag_320:\n        /* \"contracts/generated/HeaderUtil.sol\":4227:4237  payloadLen */\n      dup2\n        /* \"contracts/generated/HeaderUtil.sol\":4222:4225  ptr */\n      dup7\n        /* \"contracts/generated/HeaderUtil.sol\":4212:4220  memStart */\n      dup7\n        /* \"contracts/generated/HeaderUtil.sol\":4199:4238  calldatacopy(memStart, ptr, payloadLen) */\n      calldatacopy\n        /* \"contracts/generated/HeaderUtil.sol\":4249:4280  keccak256(memStart, payloadLen) */\n      dup2\n      dup6\n      keccak256\n        /* \"contracts/generated/HeaderUtil.sol\":4354:4365  startOffset */\n      swap1\n      swap6\n        /* \"contracts/generated/HeaderUtil.sol\":4249:4280  keccak256(memStart, payloadLen) */\n      swap1\n      swap3\n      pop\n        /* \"contracts/generated/HeaderUtil.sol\":4324:4344  add(ptr, payloadLen) */\n      add\n        /* \"contracts/generated/HeaderUtil.sol\":4354:4365  startOffset */\n      dup5\n        /* \"contracts/generated/HeaderUtil.sol\":4259:4267  memStart */\n      dup5\n        /* \"contracts/generated/HeaderUtil.sol\":4407:4707  for {} lt(ptr, ptrStop) {} {... */\n    tag_321:\n        /* \"contracts/generated/HeaderUtil.sol\":4422:4429  ptrStop */\n      dup3\n        /* \"contracts/generated/HeaderUtil.sol\":4417:4420  ptr */\n      dup8\n        /* \"contracts/generated/HeaderUtil.sol\":4414:4430  lt(ptr, ptrStop) */\n      lt\n        /* \"contracts/generated/HeaderUtil.sol\":4407:4707  for {} lt(ptr, ptrStop) {} {... */\n      iszero\n      tag_196\n      jumpi\n        /* \"contracts/generated/HeaderUtil.sol\":4469:4485  decodeValue(ptr) */\n      tag_324\n        /* \"contracts/generated/HeaderUtil.sol\":4481:4484  ptr */\n      dup8\n        /* \"contracts/generated/HeaderUtil.sol\":4469:4485  decodeValue(ptr) */\n      tag_165\n      jump\t// in\n    tag_324:\n        /* \"contracts/generated/HeaderUtil.sol\":4440:4485  let len, valuePtr, isData := decodeValue(ptr) */\n      swap4\n      pop\n        /* \"contracts/generated/HeaderUtil.sol\":4506:4514  valuePtr */\n      dup1\n        /* \"contracts/generated/HeaderUtil.sol\":4501:4504  len */\n      dup3\n        /* \"contracts/generated/HeaderUtil.sol\":4497:4515  add(len, valuePtr) */\n      add\n        /* \"contracts/generated/HeaderUtil.sol\":4490:4515  ptr := add(len, valuePtr) */\n      swap9\n      pop\n        /* \"contracts/generated/HeaderUtil.sol\":4524:4530  isData */\n      dup4\n        /* \"contracts/generated/HeaderUtil.sol\":4521:4703  if isData {... */\n      iszero\n      tag_325\n      jumpi\n        /* \"contracts/generated/HeaderUtil.sol\":4619:4622  128 */\n      0x80\n        /* \"contracts/generated/HeaderUtil.sol\":4615:4628  shl(128, len) */\n      dup3\n      swap1\n      shl\n        /* \"contracts/generated/HeaderUtil.sol\":4612:4639  or(shl(128, len), valuePtr) */\n      dup2\n      or\n        /* \"contracts/generated/HeaderUtil.sol\":4646:4665  mstore(memPtr, tmp) */\n      dup4\n      mstore\n        /* \"contracts/generated/HeaderUtil.sol\":4694:4696  32 */\n      0x20\n        /* \"contracts/generated/HeaderUtil.sol\":4682:4697  add(memPtr, 32) */\n      swap1\n      swap3\n      add\n      swap2\n        /* \"contracts/generated/HeaderUtil.sol\":4521:4703  if isData {... */\n    tag_325:\n      pop\n      pop\n        /* \"contracts/generated/HeaderUtil.sol\":4407:4707  for {} lt(ptr, ptrStop) {} {... */\n      jump(tag_321)\n        /* \"contracts/generated/HeaderUtil.sol\":7174:7389  function loadPair (memPtr, idx) -> offset, len {... */\n    tag_294:\n        /* \"contracts/generated/HeaderUtil.sol\":7501:7531  decodeFlat(blockHeader.offset) */\n      tag_336\n        /* \"contracts/generated/HeaderUtil.sol\":7512:7530  blockHeader.offset */\n      dup9\n        /* \"contracts/generated/HeaderUtil.sol\":7501:7531  decodeFlat(blockHeader.offset) */\n      tag_287\n      jump\t// in\n    tag_336:\n        /* \"contracts/generated/HeaderUtil.sol\":7538:7576  require(eq(nItems, 15), \"BLOCK_ITEMS\") */\n      tag_337\n      shl(0xa8, 0x424c4f434b5f4954454d53)\n        /* \"contracts/generated/HeaderUtil.sol\":7557:7559  15 */\n      0x0f\n        /* \"contracts/generated/HeaderUtil.sol\":7549:7555  nItems */\n      dup5\n        /* \"contracts/generated/HeaderUtil.sol\":7546:7560  eq(nItems, 15) */\n      eq\n        /* \"contracts/generated/HeaderUtil.sol\":7538:7576  require(eq(nItems, 15), \"BLOCK_ITEMS\") */\n      tag_177\n      jump\t// in\n    tag_337:\n        /* \"contracts/generated/HeaderUtil.sol\":7643:7661  blockHeader.length */\n      dup11\n        /* \"contracts/generated/HeaderUtil.sol\":7623:7641  blockHeader.offset */\n      dup13\n        /* \"contracts/generated/HeaderUtil.sol\":7619:7662  add(blockHeader.offset, blockHeader.length) */\n      add\n        /* \"contracts/generated/HeaderUtil.sol\":7608:7662  let end := add(blockHeader.offset, blockHeader.length) */\n      swap2\n      pop\n        /* \"contracts/generated/HeaderUtil.sol\":7669:7788  require(... */\n      tag_338\n      shl(0xd0, 0x424f554e4453)\n        /* \"contracts/generated/HeaderUtil.sol\":7748:7751  end */\n      dup4\n        /* \"contracts/generated/HeaderUtil.sol\":7735:7746  calldataPtr */\n      dup7\n        /* \"contracts/generated/HeaderUtil.sol\":7732:7752  eq(calldataPtr, end) */\n      eq\n        /* \"contracts/generated/HeaderUtil.sol\":7716:7719  end */\n      dup5\n        /* \"contracts/generated/HeaderUtil.sol\":7703:7714  calldataPtr */\n      dup8\n        /* \"contracts/generated/HeaderUtil.sol\":7700:7720  lt(calldataPtr, end) */\n      lt\n        /* \"contracts/generated/HeaderUtil.sol\":7686:7762  or(... */\n      or\n        /* \"contracts/generated/HeaderUtil.sol\":7669:7788  require(... */\n      tag_177\n      jump\t// in\n    tag_338:\n        /* \"contracts/generated/HeaderUtil.sol\":7809:7813  hash */\n      swap8\n      pop\n        /* \"contracts/generated/HeaderUtil.sol\":7834:7856  loadValue(memStart, 0) */\n      tag_339\n      swap1\n      pop\n        /* \"contracts/generated/HeaderUtil.sol\":7854:7855  0 */\n      0x00\n        /* \"contracts/generated/HeaderUtil.sol\":7844:7852  memStart */\n      dup3\n        /* \"contracts/generated/HeaderUtil.sol\":7834:7856  loadValue(memStart, 0) */\n      tag_170\n      jump\t// in\n    tag_339:\n        /* \"contracts/generated/HeaderUtil.sol\":7820:7856  parentHash := loadValue(memStart, 0) */\n      swap8\n      pop\n        /* \"contracts/generated/HeaderUtil.sol\":7876:7898  loadValue(memStart, 3) */\n      tag_340\n        /* \"contracts/generated/HeaderUtil.sol\":7896:7897  3 */\n      0x03\n        /* \"contracts/generated/HeaderUtil.sol\":7886:7894  memStart */\n      dup3\n        /* \"contracts/generated/HeaderUtil.sol\":7876:7898  loadValue(memStart, 3) */\n      tag_170\n      jump\t// in\n    tag_340:\n        /* \"contracts/generated/HeaderUtil.sol\":7863:7898  stateRoot := loadValue(memStart, 3) */\n      swap6\n      pop\n        /* \"contracts/generated/HeaderUtil.sol\":7920:7942  loadValue(memStart, 8) */\n      tag_341\n        /* \"contracts/generated/HeaderUtil.sol\":7940:7941  8 */\n      0x08\n        /* \"contracts/generated/HeaderUtil.sol\":7930:7938  memStart */\n      dup3\n        /* \"contracts/generated/HeaderUtil.sol\":7920:7942  loadValue(memStart, 8) */\n      tag_170\n      jump\t// in\n    tag_341:\n        /* \"contracts/generated/HeaderUtil.sol\":7905:7942  blockNumber := loadValue(memStart, 8) */\n      swap5\n      pop\n        /* \"contracts/generated/HeaderUtil.sol\":7965:7988  loadValue(memStart, 10) */\n      tag_342\n        /* \"contracts/generated/HeaderUtil.sol\":7985:7987  10 */\n      0x0a\n        /* \"contracts/generated/HeaderUtil.sol\":7975:7983  memStart */\n      dup3\n        /* \"contracts/generated/HeaderUtil.sol\":7965:7988  loadValue(memStart, 10) */\n      tag_170\n      jump\t// in\n    tag_342:\n        /* \"contracts/generated/HeaderUtil.sol\":7949:7988  blockGasUsed := loadValue(memStart, 10) */\n      swap4\n      pop\n        /* \"contracts/generated/HeaderUtil.sol\":8013:8036  loadValue(memStart, 11) */\n      tag_343\n        /* \"contracts/generated/HeaderUtil.sol\":8033:8035  11 */\n      0x0b\n        /* \"contracts/generated/HeaderUtil.sol\":8023:8031  memStart */\n      dup3\n        /* \"contracts/generated/HeaderUtil.sol\":8013:8036  loadValue(memStart, 11) */\n      tag_170\n      jump\t// in\n    tag_343:\n        /* \"contracts/generated/HeaderUtil.sol\":7995:8036  blockTimestamp := loadValue(memStart, 11) */\n      swap3\n      pop\n      pop\n      pop\n        /* \"contracts/generated/HeaderUtil.sol\":81:8046  function _readHeaderParts (... */\n      swap3\n      swap6\n      pop\n      swap3\n      swap6\n      pop\n      swap3\n      swap6\n      jump\t// out\n        /* \"contracts/generated/CircuitConfig.sol\":84:358  function _getCircuitConfig (uint256 blockGasLimit) internal pure returns (uint256, uint256) {... */\n    tag_101:\n        /* \"contracts/generated/CircuitConfig.sol\":158:165  uint256 */\n      0x00\n        /* \"contracts/generated/CircuitConfig.sol\":167:174  uint256 */\n      dup1\n        /* \"contracts/generated/CircuitConfig.sol\":208:213  63000 */\n      0xf618\n        /* \"contracts/generated/CircuitConfig.sol\":191:204  blockGasLimit */\n      dup4\n        /* \"contracts/generated/CircuitConfig.sol\":191:213  blockGasLimit <= 63000 */\n      gt\n        /* \"contracts/generated/CircuitConfig.sol\":187:247  if (blockGasLimit <= 63000) {... */\n      tag_345\n      jumpi\n      pop\n        /* \"contracts/generated/CircuitConfig.sol\":231:232  3 */\n      0x03\n      swap3\n        /* \"contracts/generated/CircuitConfig.sol\":234:239  10500 */\n      0x2904\n      swap3\n      pop\n        /* \"contracts/generated/CircuitConfig.sol\":84:358  function _getCircuitConfig (uint256 blockGasLimit) internal pure returns (uint256, uint256) {... */\n      swap1\n      pop\n      jump\t// out\n        /* \"contracts/generated/CircuitConfig.sol\":187:247  if (blockGasLimit <= 63000) {... */\n    tag_345:\n        /* \"contracts/generated/CircuitConfig.sol\":278:284  300000 */\n      0x0493e0\n        /* \"contracts/generated/CircuitConfig.sol\":261:274  blockGasLimit */\n      dup4\n        /* \"contracts/generated/CircuitConfig.sol\":261:284  blockGasLimit <= 300000 */\n      gt\n        /* \"contracts/generated/CircuitConfig.sol\":257:319  if (blockGasLimit <= 300000) {... */\n      tag_346\n      jumpi\n      pop\n        /* \"contracts/generated/CircuitConfig.sol\":302:304  14 */\n      0x0e\n      swap3\n        /* \"contracts/generated/CircuitConfig.sol\":306:311  69750 */\n      0x011076\n      swap3\n      pop\n        /* \"contracts/generated/CircuitConfig.sol\":84:358  function _getCircuitConfig (uint256 blockGasLimit) internal pure returns (uint256, uint256) {... */\n      swap1\n      pop\n      jump\t// out\n        /* \"contracts/generated/CircuitConfig.sol\":257:319  if (blockGasLimit <= 300000) {... */\n    tag_346:\n        /* \"contracts/generated/CircuitConfig.sol\":329:353  revert(\"CIRCUIT_CONFIG\") */\n      mload(0x40)\n      shl(0xe5, 0x461bcd)\n      dup2\n      mstore\n        /* \"#utility.yul\":9867:9869   */\n      0x20\n        /* \"contracts/generated/CircuitConfig.sol\":329:353  revert(\"CIRCUIT_CONFIG\") */\n      0x04\n      dup3\n      add\n        /* \"#utility.yul\":9849:9870   */\n      mstore\n        /* \"#utility.yul\":9906:9908   */\n      0x0e\n        /* \"#utility.yul\":9886:9904   */\n      0x24\n      dup3\n      add\n        /* \"#utility.yul\":9879:9909   */\n      mstore\n      shl(0x90, 0x434952435549545f434f4e464947)\n        /* \"#utility.yul\":9925:9943   */\n      0x44\n      dup3\n      add\n        /* \"#utility.yul\":9918:9962   */\n      mstore\n        /* \"#utility.yul\":9979:9997   */\n      0x64\n      add\n        /* \"contracts/generated/CircuitConfig.sol\":329:353  revert(\"CIRCUIT_CONFIG\") */\n      tag_88\n        /* \"#utility.yul\":9665:10003   */\n      jump\n        /* \"contracts/generated/PublicInput.sol\":189:18405  function _buildCommitment (... */\n    tag_103:\n        /* \"contracts/generated/PublicInput.sol\":390:412  uint256[] memory table */\n      0x60\n        /* \"contracts/generated/PublicInput.sol\":773:1426  function decodeItem (word, len) -> ret {... */\n      jump(tag_368)\n        /* \"contracts/generated/PublicInput.sol\":3857:4746  function decodeFlat (_ptr) -> ptr, memStart, nItems, hash {... */\n    tag_353:\n        /* \"contracts/generated/PublicInput.sol\":4041:4043  64 */\n      0x40\n        /* \"contracts/generated/PublicInput.sol\":4035:4044  mload(64) */\n      mload\n        /* \"contracts/generated/PublicInput.sol\":3926:3930  _ptr */\n      dup2\n      swap1\n        /* \"contracts/generated/PublicInput.sol\":3887:3890  ptr */\n      0x00\n      dup1\n        /* \"contracts/generated/PublicInput.sol\":4079:4100  decodeListLength(ptr) */\n      tag_382\n        /* \"contracts/generated/PublicInput.sol\":3926:3930  _ptr */\n      dup5\n        /* \"contracts/generated/PublicInput.sol\":4079:4100  decodeListLength(ptr) */\n      tag_164\n      jump\t// in\n    tag_382:\n        /* \"contracts/generated/PublicInput.sol\":4167:4177  payloadLen */\n      dup2\n        /* \"contracts/generated/PublicInput.sol\":4162:4165  ptr */\n      dup7\n        /* \"contracts/generated/PublicInput.sol\":4152:4160  memStart */\n      dup7\n        /* \"contracts/generated/PublicInput.sol\":4139:4178  calldatacopy(memStart, ptr, payloadLen) */\n      calldatacopy\n        /* \"contracts/generated/PublicInput.sol\":4189:4220  keccak256(memStart, payloadLen) */\n      dup2\n      dup6\n      keccak256\n        /* \"contracts/generated/PublicInput.sol\":4294:4305  startOffset */\n      swap1\n      swap6\n        /* \"contracts/generated/PublicInput.sol\":4189:4220  keccak256(memStart, payloadLen) */\n      swap1\n      swap3\n      pop\n        /* \"contracts/generated/PublicInput.sol\":4264:4284  add(ptr, payloadLen) */\n      add\n        /* \"contracts/generated/PublicInput.sol\":4294:4305  startOffset */\n      dup5\n        /* \"contracts/generated/PublicInput.sol\":4199:4207  memStart */\n      dup5\n        /* \"contracts/generated/PublicInput.sol\":4347:4647  for {} lt(ptr, ptrStop) {} {... */\n    tag_383:\n        /* \"contracts/generated/PublicInput.sol\":4362:4369  ptrStop */\n      dup3\n        /* \"contracts/generated/PublicInput.sol\":4357:4360  ptr */\n      dup8\n        /* \"contracts/generated/PublicInput.sol\":4354:4370  lt(ptr, ptrStop) */\n      lt\n        /* \"contracts/generated/PublicInput.sol\":4347:4647  for {} lt(ptr, ptrStop) {} {... */\n      iszero\n      tag_196\n      jumpi\n        /* \"contracts/generated/PublicInput.sol\":4409:4425  decodeValue(ptr) */\n      tag_386\n        /* \"contracts/generated/PublicInput.sol\":4421:4424  ptr */\n      dup8\n        /* \"contracts/generated/PublicInput.sol\":4409:4425  decodeValue(ptr) */\n      tag_165\n      jump\t// in\n    tag_386:\n        /* \"contracts/generated/PublicInput.sol\":4380:4425  let len, valuePtr, isData := decodeValue(ptr) */\n      swap4\n      pop\n        /* \"contracts/generated/PublicInput.sol\":4446:4454  valuePtr */\n      dup1\n        /* \"contracts/generated/PublicInput.sol\":4441:4444  len */\n      dup3\n        /* \"contracts/generated/PublicInput.sol\":4437:4455  add(len, valuePtr) */\n      add\n        /* \"contracts/generated/PublicInput.sol\":4430:4455  ptr := add(len, valuePtr) */\n      swap9\n      pop\n        /* \"contracts/generated/PublicInput.sol\":4464:4470  isData */\n      dup4\n        /* \"contracts/generated/PublicInput.sol\":4461:4643  if isData {... */\n      iszero\n      tag_387\n      jumpi\n        /* \"contracts/generated/PublicInput.sol\":4559:4562  128 */\n      0x80\n        /* \"contracts/generated/PublicInput.sol\":4555:4568  shl(128, len) */\n      dup3\n      swap1\n      shl\n        /* \"contracts/generated/PublicInput.sol\":4552:4579  or(shl(128, len), valuePtr) */\n      dup2\n      or\n        /* \"contracts/generated/PublicInput.sol\":4586:4605  mstore(memPtr, tmp) */\n      dup4\n      mstore\n        /* \"contracts/generated/PublicInput.sol\":4634:4636  32 */\n      0x20\n        /* \"contracts/generated/PublicInput.sol\":4622:4637  add(memPtr, 32) */\n      swap1\n      swap3\n      add\n      swap2\n        /* \"contracts/generated/PublicInput.sol\":4461:4643  if isData {... */\n    tag_387:\n      pop\n      pop\n        /* \"contracts/generated/PublicInput.sol\":4347:4647  for {} lt(ptr, ptrStop) {} {... */\n      jump(tag_383)\n        /* \"contracts/generated/PublicInput.sol\":7814:8171  function rlc (v) -> acc {... */\n    tag_363:\n        /* \"contracts/generated/PublicInput.sol\":7834:7837  acc */\n      0x00\n        /* \"contracts/generated/PublicInput.sol\":7863:7864  0 */\n      dup1\n        /* \"contracts/generated/PublicInput.sol\":7848:8163  for { let i := 0 } lt(i, 256) { i := add(i, 8) } {... */\n    tag_411:\n        /* \"contracts/generated/PublicInput.sol\":7873:7876  256 */\n      0x0100\n        /* \"contracts/generated/PublicInput.sol\":7870:7871  i */\n      dup2\n        /* \"contracts/generated/PublicInput.sol\":7867:7877  lt(i, 256) */\n      lt\n        /* \"contracts/generated/PublicInput.sol\":7848:8163  for { let i := 0 } lt(i, 256) { i := add(i, 8) } {... */\n      iszero\n      tag_413\n      jumpi\n      0x00\n      dup1\n      mload\n      0x20\n      data_848f50338cc074da8d5d8c20099d6f9a52cdd4e857863a722476f697bca98a91\n      dup4\n      codecopy\n      dup2\n      mload\n      swap2\n      mstore\n        /* \"contracts/generated/PublicInput.sol\":8013:8018  0x100 */\n      0x0100\n        /* \"contracts/generated/PublicInput.sol\":8060:8061  p */\n      dup2\n        /* \"contracts/generated/PublicInput.sol\":8048:8058  randomness */\n      dup2\n        /* \"contracts/generated/PublicInput.sol\":8043:8046  acc */\n      dup6\n        /* \"contracts/generated/PublicInput.sol\":8036:8062  mulmod(acc, randomness, p) */\n      mulmod\n        /* \"contracts/generated/PublicInput.sol\":8029:8062  acc := mulmod(acc, randomness, p) */\n      swap4\n      pop\n      pop\n        /* \"contracts/generated/PublicInput.sol\":8105:8109  0xff */\n      0xff\n        /* \"contracts/generated/PublicInput.sol\":8101:8102  v */\n      dup5\n        /* \"contracts/generated/PublicInput.sol\":8098:8099  i */\n      dup4\n        /* \"contracts/generated/PublicInput.sol\":8094:8103  shr(i, v) */\n      shr\n        /* \"contracts/generated/PublicInput.sol\":8090:8110  and(shr(i, v), 0xff) */\n      and\n        /* \"contracts/generated/PublicInput.sol\":8151:8152  p */\n      dup2\n        /* \"contracts/generated/PublicInput.sol\":8140:8149  raw_value */\n      dup2\n        /* \"contracts/generated/PublicInput.sol\":8135:8138  acc */\n      dup6\n        /* \"contracts/generated/PublicInput.sol\":8128:8153  addmod(acc, raw_value, p) */\n      addmod\n        /* \"contracts/generated/PublicInput.sol\":8121:8153  acc := addmod(acc, raw_value, p) */\n      swap4\n      pop\n      pop\n      pop\n        /* \"contracts/generated/PublicInput.sol\":7892:7893  8 */\n      0x08\n        /* \"contracts/generated/PublicInput.sol\":7885:7894  add(i, 8) */\n      add\n        /* \"contracts/generated/PublicInput.sol\":7848:8163  for { let i := 0 } lt(i, 256) { i := add(i, 8) } {... */\n      jump(tag_411)\n    tag_413:\n        /* \"contracts/generated/PublicInput.sol\":7852:7866  { let i := 0 } */\n      pop\n        /* \"contracts/generated/PublicInput.sol\":7814:8171  function rlc (v) -> acc {... */\n      swap2\n      swap1\n      pop\n      jump\t// out\n        /* \"contracts/generated/PublicInput.sol\":8179:8599  function rlc_le (v) -> acc {... */\n    tag_364:\n        /* \"contracts/generated/PublicInput.sol\":8202:8205  acc */\n      0x00\n        /* \"contracts/generated/PublicInput.sol\":8234:8239  0x001 */\n      0x01\n        /* \"contracts/generated/PublicInput.sol\":8263:8264  0 */\n      0x00\n        /* \"contracts/generated/PublicInput.sol\":8248:8591  for { let i := 0 } lt(i, 256) { i := add(i, 8) } {... */\n    tag_415:\n        /* \"contracts/generated/PublicInput.sol\":8273:8276  256 */\n      0x0100\n        /* \"contracts/generated/PublicInput.sol\":8270:8271  i */\n      dup2\n        /* \"contracts/generated/PublicInput.sol\":8267:8277  lt(i, 256) */\n      lt\n        /* \"contracts/generated/PublicInput.sol\":8248:8591  for { let i := 0 } lt(i, 256) { i := add(i, 8) } {... */\n      iszero\n      tag_417\n      jumpi\n      0x00\n      dup1\n      mload\n      0x20\n      data_848f50338cc074da8d5d8c20099d6f9a52cdd4e857863a722476f697bca98a91\n      dup4\n      codecopy\n      dup2\n      mload\n      swap2\n      mstore\n        /* \"contracts/generated/PublicInput.sol\":8426:8427  p */\n      dup1\n        /* \"contracts/generated/PublicInput.sol\":8414:8424  randomness */\n      dup4\n        /* \"contracts/generated/PublicInput.sol\":8409:8412  acc */\n      dup6\n        /* \"contracts/generated/PublicInput.sol\":8402:8428  mulmod(acc, randomness, p) */\n      mulmod\n        /* \"contracts/generated/PublicInput.sol\":8395:8428  acc := mulmod(acc, randomness, p) */\n      swap4\n      pop\n      not(sub(shl(0xf8, 0x01), 0x01))\n        /* \"contracts/generated/PublicInput.sol\":8467:8468  i */\n      dup3\n        /* \"contracts/generated/PublicInput.sol\":8463:8537  shr(i, 0xff00000000000000000000000000000000000000000000000000000000000000) */\n      shr\n        /* \"contracts/generated/PublicInput.sol\":8460:8461  v */\n      dup6\n        /* \"contracts/generated/PublicInput.sol\":8456:8538  and(v, shr(i, 0xff00000000000000000000000000000000000000000000000000000000000000)) */\n      and\n        /* \"contracts/generated/PublicInput.sol\":8579:8580  p */\n      dup2\n        /* \"contracts/generated/PublicInput.sol\":8568:8577  raw_value */\n      dup2\n        /* \"contracts/generated/PublicInput.sol\":8563:8566  acc */\n      dup7\n        /* \"contracts/generated/PublicInput.sol\":8556:8581  addmod(acc, raw_value, p) */\n      addmod\n        /* \"contracts/generated/PublicInput.sol\":8549:8581  acc := addmod(acc, raw_value, p) */\n      swap5\n      pop\n      pop\n      pop\n        /* \"contracts/generated/PublicInput.sol\":8292:8293  8 */\n      0x08\n        /* \"contracts/generated/PublicInput.sol\":8285:8294  add(i, 8) */\n      add\n        /* \"contracts/generated/PublicInput.sol\":8248:8591  for { let i := 0 } lt(i, 256) { i := add(i, 8) } {... */\n      jump(tag_415)\n    tag_417:\n        /* \"contracts/generated/PublicInput.sol\":8252:8266  { let i := 0 } */\n      pop\n      pop\n        /* \"contracts/generated/PublicInput.sol\":8179:8599  function rlc_le (v) -> acc {... */\n      swap2\n      swap1\n      pop\n      jump\t// out\n        /* \"contracts/generated/PublicInput.sol\":9544:9959  function appendCallDataRow (value) {... */\n    tag_368:\n      pop\n        /* \"contracts/generated/PublicInput.sol\":10121:10123  64 */\n      0x40\n        /* \"contracts/generated/PublicInput.sol\":10115:10124  mload(64) */\n      dup1\n      mload\n        /* \"contracts/generated/PublicInput.sol\":10138:10140  96 */\n      0x60\n        /* \"contracts/generated/PublicInput.sol\":10131:10148  mstore(96, table) */\n      dup2\n      swap1\n      mstore\n        /* \"contracts/generated/PublicInput.sol\":10819:10820  5 */\n      0x05\n        /* \"contracts/generated/PublicInput.sol\":10439:10442  160 */\n      0xa0\n        /* \"contracts/generated/PublicInput.sol\":10428:10443  add(table, 160) */\n      dup3\n      add\n        /* \"contracts/generated/PublicInput.sol\":10857:10889  mstore(table, N_INSTANCE_VALUES) */\n      mstore\n        /* \"contracts/generated/PublicInput.sol\":10975:11013  add(table, mul(N_INSTANCE_VALUES, 32)) */\n      0x0160\n      dup1\n      dup3\n      add\n        /* \"contracts/generated/PublicInput.sol\":10918:10920  32 */\n      0x20\n        /* \"contracts/generated/PublicInput.sol\":11061:11082  mstore(32, endOfRows) */\n      dup2\n      dup2\n      mstore\n        /* \"contracts/generated/PublicInput.sol\":11117:11118  0 */\n      0x00\n        /* \"contracts/generated/PublicInput.sol\":11110:11130  mstore(0, endOfRows) */\n      dup3\n      swap1\n      mstore\n        /* \"contracts/generated/PublicInput.sol\":10525:10528  266 */\n      0x010a\n        /* \"contracts/generated/PublicInput.sol\":10554:10556  10 */\n      0x0a\n        /* \"contracts/generated/PublicInput.sol\":10586:10609  mul(TX_FIELDS, MAX_TXS) */\n      dup14\n      mul\n        /* \"contracts/generated/PublicInput.sol\":10657:10658  1 */\n      0x01\n        /* \"contracts/generated/PublicInput.sol\":10638:10659  add(MAX_TX_FIELDS, 1) */\n      add\n        /* \"contracts/generated/PublicInput.sol\":10711:10712  3 */\n      0x03\n        /* \"contracts/generated/PublicInput.sol\":10707:10727  mul(3, TX_TABLE_LEN) */\n      dup2\n      mul\n        /* \"contracts/generated/PublicInput.sol\":10753:10784  add(N_RAW_INPUTS, MAX_CALLDATA) */\n      dup14\n      add\n      dup3\n      add\n        /* \"contracts/generated/PublicInput.sol\":11227:11248  mul(N_RAW_INPUTS, 32) */\n      swap3\n      dup4\n      mul\n        /* \"contracts/generated/PublicInput.sol\":11274:11293  add(endOfRows, len) */\n      dup1\n      dup8\n      add\n      swap1\n      swap6\n      add\n        /* \"contracts/generated/PublicInput.sol\":11304:11323  mstore(64, memTail) */\n      swap1\n      swap7\n      mstore\n        /* \"contracts/generated/PublicInput.sol\":10907:10921  add(table, 32) */\n      0xc0\n      swap1\n      swap5\n      add\n      swap5\n        /* \"contracts/generated/PublicInput.sol\":10638:10659  add(MAX_TX_FIELDS, 1) */\n      swap3\n        /* \"contracts/generated/PublicInput.sol\":10753:10784  add(N_RAW_INPUTS, MAX_CALLDATA) */\n      swap1\n      swap2\n        /* \"contracts/generated/PublicInput.sol\":10975:11013  add(table, mul(N_INSTANCE_VALUES, 32)) */\n      swap1\n        /* \"contracts/generated/PublicInput.sol\":11485:11566  if clearMemory {... */\n      dup7\n      iszero\n      tag_421\n      jumpi\n        /* \"contracts/generated/PublicInput.sol\":11550:11553  len */\n      dup1\n        /* \"contracts/generated/PublicInput.sol\":11534:11548  calldatasize() */\n      calldatasize\n        /* \"contracts/generated/PublicInput.sol\":11527:11532  table */\n      dup8\n        /* \"contracts/generated/PublicInput.sol\":11514:11554  calldatacopy(table, calldatasize(), len) */\n      calldatacopy\n        /* \"contracts/generated/PublicInput.sol\":11485:11566  if clearMemory {... */\n    tag_421:\n      pop\n        /* \"contracts/generated/PublicInput.sol\":11642:11644  96 */\n      0x60\n        /* \"contracts/generated/PublicInput.sol\":11636:11645  mload(96) */\n      mload\n        /* \"contracts/generated/PublicInput.sol\":11619:11645  let callframe := mload(96) */\n      swap2\n      pop\n        /* \"contracts/generated/PublicInput.sol\":11694:11697  160 */\n      0xa0\n        /* \"contracts/generated/PublicInput.sol\":11678:11692  calldatasize() */\n      calldatasize\n        /* \"contracts/generated/PublicInput.sol\":11667:11676  callframe */\n      dup4\n        /* \"contracts/generated/PublicInput.sol\":11654:11698  calldatacopy(callframe, calldatasize(), 160) */\n      calldatacopy\n        /* \"contracts/generated/PublicInput.sol\":11887:11889  32 */\n      0x20\n        /* \"contracts/generated/PublicInput.sol\":11814:11815  3 */\n      0x03\n        /* \"contracts/generated/PublicInput.sol\":11796:11816  mul(TX_TABLE_LEN, 3) */\n      dup5\n      mul\n        /* \"contracts/generated/PublicInput.sol\":11778:11817  add(BLOCK_FIELDS, mul(TX_TABLE_LEN, 3)) */\n      swap5\n      swap1\n      swap5\n      add\n        /* \"contracts/generated/PublicInput.sol\":11870:11890  mul(valueOffset, 32) */\n      dup5\n      mul\n        /* \"contracts/generated/PublicInput.sol\":11855:11891  add(endOfRows, mul(valueOffset, 32)) */\n      add\n        /* \"contracts/generated/PublicInput.sol\":11850:11852  64 */\n      0x40\n        /* \"contracts/generated/PublicInput.sol\":11835:11853  add(callframe, 64) */\n      dup3\n      add\n        /* \"contracts/generated/PublicInput.sol\":11828:11892  mstore(add(callframe, 64), add(endOfRows, mul(valueOffset, 32))) */\n      mstore\n        /* \"contracts/generated/PublicInput.sol\":12003:12060  mul(... */\n      swap2\n      mul\n        /* \"contracts/generated/PublicInput.sol\":11988:11990  96 */\n      0x60\n        /* \"contracts/generated/PublicInput.sol\":11973:11991  add(callframe, 96) */\n      swap1\n      swap2\n      add\n        /* \"contracts/generated/PublicInput.sol\":11955:12070  mstore(... */\n      mstore\n        /* \"contracts/generated/PublicInput.sol\":12130:12144  witness.offset */\n      dup4\n        /* \"contracts/generated/PublicInput.sol\":12173:12204  add(dataOffset, witness.length) */\n      dup4\n      dup2\n      add\n        /* \"contracts/generated/PublicInput.sol\":12282:12304  decodeFlat(dataOffset) */\n      tag_422\n        /* \"contracts/generated/PublicInput.sol\":12130:12144  witness.offset */\n      dup3\n        /* \"contracts/generated/PublicInput.sol\":12282:12304  decodeFlat(dataOffset) */\n      tag_353\n      jump\t// in\n    tag_422:\n        /* \"contracts/generated/PublicInput.sol\":12249:12304  let ptr, values, nItems, hash := decodeFlat(dataOffset) */\n      pop\n        /* \"contracts/generated/PublicInput.sol\":12313:12351  require(eq(nItems, 15), \"BLOCK_ITEMS\") */\n      tag_423\n      shl(0xa8, 0x424c4f434b5f4954454d53)\n        /* \"contracts/generated/PublicInput.sol\":12332:12334  15 */\n      0x0f\n        /* \"contracts/generated/PublicInput.sol\":12324:12330  nItems */\n      dup4\n        /* \"contracts/generated/PublicInput.sol\":12321:12335  eq(nItems, 15) */\n      eq\n        /* \"contracts/generated/PublicInput.sol\":12313:12351  require(eq(nItems, 15), \"BLOCK_ITEMS\") */\n      tag_177\n      jump\t// in\n    tag_423:\n      pop\n        /* \"contracts/generated/PublicInput.sol\":12392:12393  0 */\n      0x00\n        /* \"contracts/generated/PublicInput.sol\":8736:8744  mload(0) */\n      dup1\n      mload\n        /* \"contracts/generated/PublicInput.sol\":8776:8778  32 */\n      0x20\n        /* \"contracts/generated/PublicInput.sol\":8763:8779  add(rpi_ptr, 32) */\n      dup2\n      add\n        /* \"contracts/generated/PublicInput.sol\":8753:8780  mstore(0, add(rpi_ptr, 32)) */\n      dup3\n      mstore\n        /* \"contracts/generated/PublicInput.sol\":8842:8864  mstore(rpi_ptr, value) */\n      mstore\n        /* \"contracts/generated/PublicInput.sol\":12423:12451  append(loadValue(values, 2)) */\n      tag_425\n        /* \"contracts/generated/PublicInput.sol\":12430:12450  loadValue(values, 2) */\n      tag_426\n        /* \"contracts/generated/PublicInput.sol\":12448:12449  2 */\n      0x02\n        /* \"contracts/generated/PublicInput.sol\":12440:12446  values */\n      dup4\n        /* \"contracts/generated/PublicInput.sol\":12430:12450  loadValue(values, 2) */\n      tag_170\n      jump\t// in\n    tag_426:\n        /* \"contracts/generated/PublicInput.sol\":8742:8743  0 */\n      0x00\n        /* \"contracts/generated/PublicInput.sol\":8736:8744  mload(0) */\n      dup1\n      mload\n        /* \"contracts/generated/PublicInput.sol\":8776:8778  32 */\n      0x20\n        /* \"contracts/generated/PublicInput.sol\":8763:8779  add(rpi_ptr, 32) */\n      dup2\n      add\n        /* \"contracts/generated/PublicInput.sol\":8753:8780  mstore(0, add(rpi_ptr, 32)) */\n      swap1\n      swap2\n      mstore\n        /* \"contracts/generated/PublicInput.sol\":8842:8864  mstore(rpi_ptr, value) */\n      mstore\n        /* \"contracts/generated/PublicInput.sol\":8660:8872  function append (value) {... */\n      jump\n        /* \"contracts/generated/PublicInput.sol\":12423:12451  append(loadValue(values, 2)) */\n    tag_425:\n        /* \"contracts/generated/PublicInput.sol\":12481:12509  append(loadValue(values, 9)) */\n      tag_427\n        /* \"contracts/generated/PublicInput.sol\":12488:12508  loadValue(values, 9) */\n      tag_426\n        /* \"contracts/generated/PublicInput.sol\":12506:12507  9 */\n      0x09\n        /* \"contracts/generated/PublicInput.sol\":12498:12504  values */\n      dup4\n        /* \"contracts/generated/PublicInput.sol\":12488:12508  loadValue(values, 9) */\n      tag_170\n      jump\t// in\n        /* \"contracts/generated/PublicInput.sol\":12481:12509  append(loadValue(values, 9)) */\n    tag_427:\n        /* \"contracts/generated/PublicInput.sol\":12536:12564  append(loadValue(values, 8)) */\n      tag_429\n        /* \"contracts/generated/PublicInput.sol\":12543:12563  loadValue(values, 8) */\n      tag_426\n        /* \"contracts/generated/PublicInput.sol\":12561:12562  8 */\n      0x08\n        /* \"contracts/generated/PublicInput.sol\":12553:12559  values */\n      dup4\n        /* \"contracts/generated/PublicInput.sol\":12543:12563  loadValue(values, 8) */\n      tag_170\n      jump\t// in\n        /* \"contracts/generated/PublicInput.sol\":12536:12564  append(loadValue(values, 8)) */\n    tag_429:\n        /* \"contracts/generated/PublicInput.sol\":12589:12618  append(loadValue(values, 11)) */\n      tag_431\n        /* \"contracts/generated/PublicInput.sol\":12596:12617  loadValue(values, 11) */\n      tag_426\n        /* \"contracts/generated/PublicInput.sol\":12614:12616  11 */\n      0x0b\n        /* \"contracts/generated/PublicInput.sol\":12606:12612  values */\n      dup4\n        /* \"contracts/generated/PublicInput.sol\":12596:12617  loadValue(values, 11) */\n      tag_170\n      jump\t// in\n        /* \"contracts/generated/PublicInput.sol\":12589:12618  append(loadValue(values, 11)) */\n    tag_431:\n        /* \"contracts/generated/PublicInput.sol\":12649:12685  append(rlc_le(loadValue(values, 7))) */\n      tag_433\n        /* \"contracts/generated/PublicInput.sol\":12656:12684  rlc_le(loadValue(values, 7)) */\n      tag_426\n        /* \"contracts/generated/PublicInput.sol\":12663:12683  loadValue(values, 7) */\n      tag_435\n        /* \"contracts/generated/PublicInput.sol\":12681:12682  7 */\n      0x07\n        /* \"contracts/generated/PublicInput.sol\":12673:12679  values */\n      dup5\n        /* \"contracts/generated/PublicInput.sol\":12663:12683  loadValue(values, 7) */\n      tag_170\n      jump\t// in\n    tag_435:\n        /* \"contracts/generated/PublicInput.sol\":12656:12684  rlc_le(loadValue(values, 7)) */\n      tag_364\n      jump\t// in\n        /* \"contracts/generated/PublicInput.sol\":12649:12685  append(rlc_le(loadValue(values, 7))) */\n    tag_433:\n        /* \"contracts/generated/PublicInput.sol\":12721:12722  0 */\n      0x00\n        /* \"contracts/generated/PublicInput.sol\":8736:8744  mload(0) */\n      dup1\n      mload\n        /* \"contracts/generated/PublicInput.sol\":8776:8778  32 */\n      0x20\n        /* \"contracts/generated/PublicInput.sol\":8763:8779  add(rpi_ptr, 32) */\n      dup2\n      add\n        /* \"contracts/generated/PublicInput.sol\":8753:8780  mstore(0, add(rpi_ptr, 32)) */\n      dup3\n      mstore\n        /* \"contracts/generated/PublicInput.sol\":8842:8864  mstore(rpi_ptr, value) */\n      mstore\n        /* \"contracts/generated/PublicInput.sol\":12752:12767  append(chainId) */\n      tag_437\n        /* \"contracts/generated/PublicInput.sol\":12759:12766  chainId */\n      dup11\n        /* \"contracts/generated/PublicInput.sol\":8742:8743  0 */\n      0x00\n        /* \"contracts/generated/PublicInput.sol\":8736:8744  mload(0) */\n      dup1\n      mload\n        /* \"contracts/generated/PublicInput.sol\":8776:8778  32 */\n      0x20\n        /* \"contracts/generated/PublicInput.sol\":8763:8779  add(rpi_ptr, 32) */\n      dup2\n      add\n        /* \"contracts/generated/PublicInput.sol\":8753:8780  mstore(0, add(rpi_ptr, 32)) */\n      swap1\n      swap2\n      mstore\n        /* \"contracts/generated/PublicInput.sol\":8842:8864  mstore(rpi_ptr, value) */\n      mstore\n        /* \"contracts/generated/PublicInput.sol\":8660:8872  function append (value) {... */\n      jump\n        /* \"contracts/generated/PublicInput.sol\":12752:12767  append(chainId) */\n    tag_437:\n        /* \"contracts/generated/PublicInput.sol\":12799:12806  chainId */\n      dup10\n        /* \"contracts/generated/PublicInput.sol\":12794:12796  64 */\n      0x40\n        /* \"contracts/generated/PublicInput.sol\":12787:12792  table */\n      dup7\n        /* \"contracts/generated/PublicInput.sol\":12783:12797  add(table, 64) */\n      add\n        /* \"contracts/generated/PublicInput.sol\":12776:12807  mstore(add(table, 64), chainId) */\n      mstore\n        /* \"contracts/generated/PublicInput.sol\":12876:12880  8192 */\n      0x2000\n        /* \"contracts/generated/PublicInput.sol\":12871:12874  ptr */\n      dup3\n        /* \"contracts/generated/PublicInput.sol\":12867:12881  add(ptr, 8192) */\n      add\n        /* \"contracts/generated/PublicInput.sol\":12892:12993  for {} lt(ptr, tail) { ptr := add(ptr, 32) } {... */\n    tag_438:\n        /* \"contracts/generated/PublicInput.sol\":12907:12911  tail */\n      dup1\n        /* \"contracts/generated/PublicInput.sol\":12902:12905  ptr */\n      dup4\n        /* \"contracts/generated/PublicInput.sol\":12899:12912  lt(ptr, tail) */\n      lt\n        /* \"contracts/generated/PublicInput.sol\":12892:12993  for {} lt(ptr, tail) { ptr := add(ptr, 32) } {... */\n      iszero\n      tag_440\n      jumpi\n        /* \"contracts/generated/PublicInput.sol\":12951:12981  append(rlc(calldataload(ptr))) */\n      tag_441\n        /* \"contracts/generated/PublicInput.sol\":12958:12980  rlc(calldataload(ptr)) */\n      tag_426\n        /* \"contracts/generated/PublicInput.sol\":12975:12978  ptr */\n      dup5\n        /* \"contracts/generated/PublicInput.sol\":12962:12979  calldataload(ptr) */\n      calldataload\n        /* \"contracts/generated/PublicInput.sol\":12958:12980  rlc(calldataload(ptr)) */\n      tag_363\n      jump\t// in\n        /* \"contracts/generated/PublicInput.sol\":12951:12981  append(rlc(calldataload(ptr))) */\n    tag_441:\n        /* \"contracts/generated/PublicInput.sol\":12931:12933  32 */\n      0x20\n        /* \"contracts/generated/PublicInput.sol\":12926:12929  ptr */\n      dup4\n        /* \"contracts/generated/PublicInput.sol\":12922:12934  add(ptr, 32) */\n      add\n        /* \"contracts/generated/PublicInput.sol\":12915:12934  ptr := add(ptr, 32) */\n      swap3\n      pop\n        /* \"contracts/generated/PublicInput.sol\":12892:12993  for {} lt(ptr, tail) { ptr := add(ptr, 32) } {... */\n      jump(tag_438)\n    tag_440:\n        /* \"contracts/generated/PublicInput.sol\":12896:12898  {} */\n      pop\n        /* \"contracts/generated/PublicInput.sol\":13138:13163  rlc(loadValue(values, 3)) */\n      tag_443\n        /* \"contracts/generated/PublicInput.sol\":13142:13162  loadValue(values, 3) */\n      tag_444\n        /* \"contracts/generated/PublicInput.sol\":13160:13161  3 */\n      0x03\n        /* \"contracts/generated/PublicInput.sol\":13152:13158  values */\n      dup4\n        /* \"contracts/generated/PublicInput.sol\":13142:13162  loadValue(values, 3) */\n      tag_170\n      jump\t// in\n    tag_444:\n        /* \"contracts/generated/PublicInput.sol\":13138:13163  rlc(loadValue(values, 3)) */\n      tag_363\n      jump\t// in\n    tag_443:\n        /* \"contracts/generated/PublicInput.sol\":13174:13191  append(stateRoot) */\n      tag_445\n        /* \"contracts/generated/PublicInput.sol\":13181:13190  stateRoot */\n      dup2\n        /* \"contracts/generated/PublicInput.sol\":8742:8743  0 */\n      0x00\n        /* \"contracts/generated/PublicInput.sol\":8736:8744  mload(0) */\n      dup1\n      mload\n        /* \"contracts/generated/PublicInput.sol\":8776:8778  32 */\n      0x20\n        /* \"contracts/generated/PublicInput.sol\":8763:8779  add(rpi_ptr, 32) */\n      dup2\n      add\n        /* \"contracts/generated/PublicInput.sol\":8753:8780  mstore(0, add(rpi_ptr, 32)) */\n      swap1\n      swap2\n      mstore\n        /* \"contracts/generated/PublicInput.sol\":8842:8864  mstore(rpi_ptr, value) */\n      mstore\n        /* \"contracts/generated/PublicInput.sol\":8660:8872  function append (value) {... */\n      jump\n        /* \"contracts/generated/PublicInput.sol\":13174:13191  append(stateRoot) */\n    tag_445:\n        /* \"contracts/generated/PublicInput.sol\":13220:13222  96 */\n      0x60\n        /* \"contracts/generated/PublicInput.sol\":13209:13223  add(table, 96) */\n      dup7\n      add\n        /* \"contracts/generated/PublicInput.sol\":13202:13235  mstore(add(table, 96), stateRoot) */\n      mstore\n      pop\n        /* \"contracts/generated/PublicInput.sol\":13303:13323  rlc(parentStateRoot) */\n      tag_446\n        /* \"contracts/generated/PublicInput.sol\":13307:13322  parentStateRoot */\n      dup9\n        /* \"contracts/generated/PublicInput.sol\":13303:13323  rlc(parentStateRoot) */\n      tag_363\n      jump\t// in\n    tag_446:\n        /* \"contracts/generated/PublicInput.sol\":13334:13343  append(v) */\n      tag_447\n        /* \"contracts/generated/PublicInput.sol\":13341:13342  v */\n      dup2\n        /* \"contracts/generated/PublicInput.sol\":8742:8743  0 */\n      0x00\n        /* \"contracts/generated/PublicInput.sol\":8736:8744  mload(0) */\n      dup1\n      mload\n        /* \"contracts/generated/PublicInput.sol\":8776:8778  32 */\n      0x20\n        /* \"contracts/generated/PublicInput.sol\":8763:8779  add(rpi_ptr, 32) */\n      dup2\n      add\n        /* \"contracts/generated/PublicInput.sol\":8753:8780  mstore(0, add(rpi_ptr, 32)) */\n      swap1\n      swap2\n      mstore\n        /* \"contracts/generated/PublicInput.sol\":8842:8864  mstore(rpi_ptr, value) */\n      mstore\n        /* \"contracts/generated/PublicInput.sol\":8660:8872  function append (value) {... */\n      jump\n        /* \"contracts/generated/PublicInput.sol\":13334:13343  append(v) */\n    tag_447:\n        /* \"contracts/generated/PublicInput.sol\":13372:13375  128 */\n      0x80\n        /* \"contracts/generated/PublicInput.sol\":13361:13376  add(table, 128) */\n      dup6\n      add\n        /* \"contracts/generated/PublicInput.sol\":13354:13380  mstore(add(table, 128), v) */\n      mstore\n        /* \"contracts/generated/PublicInput.sol\":13414:13417  ptr */\n      swap2\n      pop\n        /* \"contracts/generated/PublicInput.sol\":13426:13509  require(or(eq(dataOffset, dataOffsetTail), lt(dataOffset, dataOffsetTail)), \"DATA\") */\n      tag_448\n      shl(0xe0, 0x44415441)\n        /* \"contracts/generated/PublicInput.sol\":13437:13467  eq(dataOffset, dataOffsetTail) */\n      dup3\n      dup5\n      eq\n        /* \"contracts/generated/PublicInput.sol\":13469:13499  lt(dataOffset, dataOffsetTail) */\n      dup4\n      dup6\n      lt\n        /* \"contracts/generated/PublicInput.sol\":13434:13500  or(eq(dataOffset, dataOffsetTail), lt(dataOffset, dataOffsetTail)) */\n      or\n        /* \"contracts/generated/PublicInput.sol\":13426:13509  require(or(eq(dataOffset, dataOffsetTail), lt(dataOffset, dataOffsetTail)), \"DATA\") */\n      tag_177\n      jump\t// in\n    tag_448:\n        /* \"contracts/generated/PublicInput.sol\":13612:13614  96 */\n      0x60\n        /* \"contracts/generated/PublicInput.sol\":13606:13615  mload(96) */\n      dup1\n      mload\n        /* \"contracts/generated/PublicInput.sol\":13599:13623  mstore(mload(96), table) */\n      dup5\n      swap1\n      mstore\n        /* \"contracts/generated/PublicInput.sol\":9031:9040  mload(96) */\n      dup1\n      mload\n        /* \"contracts/generated/PublicInput.sol\":13705:13706  0 */\n      0x00\n        /* \"contracts/generated/PublicInput.sol\":9150:9158  mload(0) */\n      dup1\n      mload\n        /* \"contracts/generated/PublicInput.sol\":9192:9194  32 */\n      0x20\n        /* \"contracts/generated/PublicInput.sol\":9179:9195  add(rpi_ptr, 32) */\n      dup2\n      add\n        /* \"contracts/generated/PublicInput.sol\":9169:9196  mstore(0, add(rpi_ptr, 32)) */\n      dup3\n      mstore\n        /* \"contracts/generated/PublicInput.sol\":9231:9252  mstore(rpi_ptr, txId) */\n      dup2\n      dup2\n      mstore\n        /* \"contracts/generated/PublicInput.sol\":9299:9317  add(callframe, 96) */\n      swap2\n      swap1\n      swap3\n      add\n        /* \"contracts/generated/PublicInput.sol\":9293:9318  mload(add(callframe, 96)) */\n      mload\n        /* \"contracts/generated/PublicInput.sol\":9369:9404  add(rpi_ptr, id_index_value_spread) */\n      swap1\n      dup2\n      add\n        /* \"contracts/generated/PublicInput.sol\":9450:9485  add(rpi_ptr, id_index_value_spread) */\n      add\n        /* \"contracts/generated/PublicInput.sol\":9496:9518  mstore(rpi_ptr, value) */\n      mstore\n        /* \"contracts/generated/PublicInput.sol\":13729:13730  0 */\n      0x00\n        /* \"contracts/generated/PublicInput.sol\":13739:16760  for {} lt(dataOffset, dataOffsetTail) {} {... */\n    tag_450:\n        /* \"contracts/generated/PublicInput.sol\":13761:13775  dataOffsetTail */\n      dup2\n        /* \"contracts/generated/PublicInput.sol\":13749:13759  dataOffset */\n      dup4\n        /* \"contracts/generated/PublicInput.sol\":13746:13776  lt(dataOffset, dataOffsetTail) */\n      lt\n        /* \"contracts/generated/PublicInput.sol\":13739:16760  for {} lt(dataOffset, dataOffsetTail) {} {... */\n      iszero\n      tag_452\n      jumpi\n        /* \"contracts/generated/PublicInput.sol\":13810:13811  1 */\n      0x01\n        /* \"contracts/generated/PublicInput.sol\":13800:13812  add(txId, 1) */\n      add\n        /* \"contracts/generated/PublicInput.sol\":13857:13879  decodeFlat(dataOffset) */\n      tag_453\n        /* \"contracts/generated/PublicInput.sol\":13868:13878  dataOffset */\n      dup4\n        /* \"contracts/generated/PublicInput.sol\":13857:13879  decodeFlat(dataOffset) */\n      tag_353\n      jump\t// in\n    tag_453:\n        /* \"contracts/generated/PublicInput.sol\":13890:13924  require(eq(nItems, 9), \"TX_ITEMS\") */\n      tag_454\n      shl(0xc0, 0x54585f4954454d53)\n        /* \"contracts/generated/PublicInput.sol\":13909:13910  9 */\n      0x09\n        /* \"contracts/generated/PublicInput.sol\":13901:13907  nItems */\n      dup5\n        /* \"contracts/generated/PublicInput.sol\":13898:13911  eq(nItems, 9) */\n      eq\n        /* \"contracts/generated/PublicInput.sol\":13890:13924  require(eq(nItems, 9), \"TX_ITEMS\") */\n      tag_177\n      jump\t// in\n    tag_454:\n        /* \"contracts/generated/PublicInput.sol\":14065:14067  96 */\n      0x60\n        /* \"contracts/generated/PublicInput.sol\":14049:14068  add(dataOffset, 96) */\n      dup5\n      add\n      swap7\n      pop\n        /* \"contracts/generated/PublicInput.sol\":13977:14001  calldataload(dataOffset) */\n      swap3\n      calldataload\n      swap3\n        /* \"contracts/generated/PublicInput.sol\":14111:14131  loadValue(values, 6) */\n      tag_455\n        /* \"contracts/generated/PublicInput.sol\":14129:14130  6 */\n      0x06\n        /* \"contracts/generated/PublicInput.sol\":14121:14127  values */\n      dup5\n        /* \"contracts/generated/PublicInput.sol\":14111:14131  loadValue(values, 6) */\n      tag_170\n      jump\t// in\n    tag_455:\n        /* \"contracts/generated/PublicInput.sol\":14094:14131  let _chain_id := loadValue(values, 6) */\n      swap2\n      pop\n        /* \"contracts/generated/PublicInput.sol\":14144:14189  require(eq(_chain_id, chainId), \"TX_CHAINID\") */\n      tag_456\n      shl(0xb2, 0x151617d0d21052539251)\n        /* \"contracts/generated/PublicInput.sol\":14166:14173  chainId */\n      dup15\n        /* \"contracts/generated/PublicInput.sol\":14155:14164  _chain_id */\n      dup5\n        /* \"contracts/generated/PublicInput.sol\":14152:14174  eq(_chain_id, chainId) */\n      eq\n        /* \"contracts/generated/PublicInput.sol\":14144:14189  require(eq(_chain_id, chainId), \"TX_CHAINID\") */\n      tag_177\n      jump\t// in\n    tag_456:\n        /* \"contracts/generated/PublicInput.sol\":14242:14262  loadValue(values, 0) */\n      tag_457\n        /* \"contracts/generated/PublicInput.sol\":14260:14261  0 */\n      0x00\n        /* \"contracts/generated/PublicInput.sol\":14252:14258  values */\n      dup5\n        /* \"contracts/generated/PublicInput.sol\":14242:14262  loadValue(values, 0) */\n      tag_170\n      jump\t// in\n    tag_457:\n        /* \"contracts/generated/PublicInput.sol\":14227:14262  let txNonce := loadValue(values, 0) */\n      swap2\n      pop\n        /* \"contracts/generated/PublicInput.sol\":14301:14302  1 */\n      0x01\n        /* \"contracts/generated/PublicInput.sol\":14315:14369  appendTxRow(txId, CONST_TX_TAG_NONCE, rlc_le(txNonce)) */\n      tag_458\n        /* \"contracts/generated/PublicInput.sol\":14353:14368  rlc_le(txNonce) */\n      tag_459\n        /* \"contracts/generated/PublicInput.sol\":14360:14367  txNonce */\n      dup5\n        /* \"contracts/generated/PublicInput.sol\":14353:14368  rlc_le(txNonce) */\n      tag_364\n      jump\t// in\n    tag_459:\n        /* \"contracts/generated/PublicInput.sol\":9037:9039  96 */\n      0x60\n        /* \"contracts/generated/PublicInput.sol\":9031:9040  mload(96) */\n      dup1\n      mload\n        /* \"contracts/generated/PublicInput.sol\":9156:9157  0 */\n      0x00\n        /* \"contracts/generated/PublicInput.sol\":9150:9158  mload(0) */\n      dup1\n      mload\n        /* \"contracts/generated/PublicInput.sol\":9192:9194  32 */\n      0x20\n        /* \"contracts/generated/PublicInput.sol\":9179:9195  add(rpi_ptr, 32) */\n      dup2\n      add\n        /* \"contracts/generated/PublicInput.sol\":9169:9196  mstore(0, add(rpi_ptr, 32)) */\n      swap1\n      swap2\n      mstore\n        /* \"contracts/generated/PublicInput.sol\":9231:9252  mstore(rpi_ptr, txId) */\n      dup11\n      dup2\n      mstore\n        /* \"contracts/generated/PublicInput.sol\":9299:9317  add(callframe, 96) */\n      swap2\n      add\n        /* \"contracts/generated/PublicInput.sol\":9293:9318  mload(add(callframe, 96)) */\n      mload\n        /* \"contracts/generated/PublicInput.sol\":9369:9404  add(rpi_ptr, id_index_value_spread) */\n      swap1\n      dup2\n      add\n        /* \"contracts/generated/PublicInput.sol\":9450:9485  add(rpi_ptr, id_index_value_spread) */\n      add\n        /* \"contracts/generated/PublicInput.sol\":9496:9518  mstore(rpi_ptr, value) */\n      mstore\n        /* \"contracts/generated/PublicInput.sol\":8964:9536  function appendTxRow (txId, tag, value) {... */\n      jump\n        /* \"contracts/generated/PublicInput.sol\":14315:14369  appendTxRow(txId, CONST_TX_TAG_NONCE, rlc_le(txNonce)) */\n    tag_458:\n      pop\n        /* \"contracts/generated/PublicInput.sol\":14423:14443  loadValue(values, 2) */\n      tag_460\n        /* \"contracts/generated/PublicInput.sol\":14441:14442  2 */\n      0x02\n        /* \"contracts/generated/PublicInput.sol\":14433:14439  values */\n      dup5\n        /* \"contracts/generated/PublicInput.sol\":14423:14443  loadValue(values, 2) */\n      tag_170\n      jump\t// in\n    tag_460:\n        /* \"contracts/generated/PublicInput.sol\":14407:14443  let gasLimit := loadValue(values, 2) */\n      swap2\n      pop\n        /* \"contracts/generated/PublicInput.sol\":14480:14481  2 */\n      0x02\n        /* \"contracts/generated/PublicInput.sol\":14494:14547  appendTxRow(txId, CONST_TX_TAG_GAS, rlc_le(gasLimit)) */\n      tag_461\n        /* \"contracts/generated/PublicInput.sol\":14530:14546  rlc_le(gasLimit) */\n      tag_459\n        /* \"contracts/generated/PublicInput.sol\":14537:14545  gasLimit */\n      dup5\n        /* \"contracts/generated/PublicInput.sol\":14530:14546  rlc_le(gasLimit) */\n      tag_364\n      jump\t// in\n        /* \"contracts/generated/PublicInput.sol\":14494:14547  appendTxRow(txId, CONST_TX_TAG_GAS, rlc_le(gasLimit)) */\n    tag_461:\n      pop\n        /* \"contracts/generated/PublicInput.sol\":14601:14621  loadValue(values, 1) */\n      tag_463\n        /* \"contracts/generated/PublicInput.sol\":14619:14620  1 */\n      0x01\n        /* \"contracts/generated/PublicInput.sol\":14611:14617  values */\n      dup5\n        /* \"contracts/generated/PublicInput.sol\":14601:14621  loadValue(values, 1) */\n      tag_170\n      jump\t// in\n    tag_463:\n        /* \"contracts/generated/PublicInput.sol\":14585:14621  let gasPrice := loadValue(values, 1) */\n      swap2\n      pop\n        /* \"contracts/generated/PublicInput.sol\":14664:14665  3 */\n      0x03\n        /* \"contracts/generated/PublicInput.sol\":14678:14737  appendTxRow(txId, CONST_TX_TAG_GAS_PRICE, rlc_le(gasPrice)) */\n      tag_464\n        /* \"contracts/generated/PublicInput.sol\":14720:14736  rlc_le(gasPrice) */\n      tag_459\n        /* \"contracts/generated/PublicInput.sol\":14727:14735  gasPrice */\n      dup5\n        /* \"contracts/generated/PublicInput.sol\":14720:14736  rlc_le(gasPrice) */\n      tag_364\n      jump\t// in\n        /* \"contracts/generated/PublicInput.sol\":14678:14737  appendTxRow(txId, CONST_TX_TAG_GAS_PRICE, rlc_le(gasPrice)) */\n    tag_464:\n      pop\n        /* \"contracts/generated/PublicInput.sol\":9037:9039  96 */\n      0x60\n        /* \"contracts/generated/PublicInput.sol\":9031:9040  mload(96) */\n      dup1\n      mload\n        /* \"contracts/generated/PublicInput.sol\":9156:9157  0 */\n      0x00\n        /* \"contracts/generated/PublicInput.sol\":9150:9158  mload(0) */\n      dup1\n      mload\n        /* \"contracts/generated/PublicInput.sol\":9192:9194  32 */\n      0x20\n        /* \"contracts/generated/PublicInput.sol\":9179:9195  add(rpi_ptr, 32) */\n      dup2\n      add\n        /* \"contracts/generated/PublicInput.sol\":9169:9196  mstore(0, add(rpi_ptr, 32)) */\n      swap1\n      swap2\n      mstore\n        /* \"contracts/generated/PublicInput.sol\":9231:9252  mstore(rpi_ptr, txId) */\n      dup8\n      dup2\n      mstore\n        /* \"contracts/generated/PublicInput.sol\":9299:9317  add(callframe, 96) */\n      swap2\n      add\n        /* \"contracts/generated/PublicInput.sol\":9293:9318  mload(add(callframe, 96)) */\n      mload\n        /* \"contracts/generated/PublicInput.sol\":9369:9404  add(rpi_ptr, id_index_value_spread) */\n      swap1\n      dup2\n      add\n        /* \"contracts/generated/PublicInput.sol\":9450:9485  add(rpi_ptr, id_index_value_spread) */\n      add\n        /* \"contracts/generated/PublicInput.sol\":9496:9518  mstore(rpi_ptr, value) */\n      dup5\n      swap1\n      mstore\n        /* \"contracts/generated/PublicInput.sol\":14810:14811  4 */\n      0x04\n      swap2\n      pop\n        /* \"contracts/generated/PublicInput.sol\":14931:14954  loadValueLen(values, 3) */\n      tag_467\n        /* \"contracts/generated/PublicInput.sol\":14952:14953  3 */\n      0x03\n        /* \"contracts/generated/PublicInput.sol\":14944:14950  values */\n      dup5\n        /* \"contracts/generated/PublicInput.sol\":14931:14954  loadValueLen(values, 3) */\n      tag_171\n      jump\t// in\n    tag_467:\n        /* \"contracts/generated/PublicInput.sol\":9037:9039  96 */\n      0x60\n        /* \"contracts/generated/PublicInput.sol\":9031:9040  mload(96) */\n      dup1\n      mload\n        /* \"contracts/generated/PublicInput.sol\":9156:9157  0 */\n      0x00\n        /* \"contracts/generated/PublicInput.sol\":9150:9158  mload(0) */\n      dup1\n      mload\n        /* \"contracts/generated/PublicInput.sol\":9192:9194  32 */\n      0x20\n        /* \"contracts/generated/PublicInput.sol\":9179:9195  add(rpi_ptr, 32) */\n      dup1\n      dup3\n      add\n        /* \"contracts/generated/PublicInput.sol\":9169:9196  mstore(0, add(rpi_ptr, 32)) */\n      dup4\n      mstore\n        /* \"contracts/generated/PublicInput.sol\":9231:9252  mstore(rpi_ptr, txId) */\n      dup12\n      dup3\n      mstore\n        /* \"contracts/generated/PublicInput.sol\":9299:9317  add(callframe, 96) */\n      swap3\n      dup5\n      add\n        /* \"contracts/generated/PublicInput.sol\":9293:9318  mload(add(callframe, 96)) */\n      mload\n        /* \"contracts/generated/PublicInput.sol\":9369:9404  add(rpi_ptr, id_index_value_spread) */\n      swap1\n      dup2\n      add\n        /* \"contracts/generated/PublicInput.sol\":9450:9485  add(rpi_ptr, id_index_value_spread) */\n      add\n        /* \"contracts/generated/PublicInput.sol\":9496:9518  mstore(rpi_ptr, value) */\n      swap5\n      swap1\n      swap5\n      mstore\n        /* \"contracts/generated/PublicInput.sol\":9031:9040  mload(96) */\n      dup2\n      mload\n        /* \"contracts/generated/PublicInput.sol\":9150:9158  mload(0) */\n      dup5\n      mload\n        /* \"contracts/generated/PublicInput.sol\":9179:9195  add(rpi_ptr, 32) */\n      swap2\n      dup3\n      add\n        /* \"contracts/generated/PublicInput.sol\":9169:9196  mstore(0, add(rpi_ptr, 32)) */\n      swap1\n      swap5\n      mstore\n        /* \"contracts/generated/PublicInput.sol\":9231:9252  mstore(rpi_ptr, txId) */\n      dup9\n      dup2\n      mstore\n        /* \"contracts/generated/PublicInput.sol\":9299:9317  add(callframe, 96) */\n      swap3\n      add\n        /* \"contracts/generated/PublicInput.sol\":9293:9318  mload(add(callframe, 96)) */\n      mload\n        /* \"contracts/generated/PublicInput.sol\":15096:15107  iszero(len) */\n      swap1\n      iszero\n        /* \"contracts/generated/PublicInput.sol\":9369:9404  add(rpi_ptr, id_index_value_spread) */\n      swap2\n      dup2\n      add\n        /* \"contracts/generated/PublicInput.sol\":9450:9485  add(rpi_ptr, id_index_value_spread) */\n      add\n        /* \"contracts/generated/PublicInput.sol\":9496:9518  mstore(rpi_ptr, value) */\n      dup2\n      swap1\n      mstore\n        /* \"contracts/generated/PublicInput.sol\":15096:15107  iszero(len) */\n      swap4\n      pop\n        /* \"contracts/generated/PublicInput.sol\":15150:15151  6 */\n      0x06\n      swap2\n      pop\n        /* \"contracts/generated/PublicInput.sol\":15268:15288  loadValue(values, 4) */\n      tag_470\n        /* \"contracts/generated/PublicInput.sol\":15286:15287  4 */\n      0x04\n        /* \"contracts/generated/PublicInput.sol\":15278:15284  values */\n      dup5\n        /* \"contracts/generated/PublicInput.sol\":15268:15288  loadValue(values, 4) */\n      tag_170\n      jump\t// in\n    tag_470:\n        /* \"contracts/generated/PublicInput.sol\":15253:15288  let txValue := loadValue(values, 4) */\n      swap4\n      pop\n        /* \"contracts/generated/PublicInput.sol\":15327:15328  7 */\n      0x07\n        /* \"contracts/generated/PublicInput.sol\":15301:15328  let CONST_TX_TAG_VALUE := 7 */\n      swap2\n      pop\n        /* \"contracts/generated/PublicInput.sol\":15341:15395  appendTxRow(txId, CONST_TX_TAG_VALUE, rlc_le(txValue)) */\n      tag_471\n        /* \"contracts/generated/PublicInput.sol\":15379:15394  rlc_le(txValue) */\n      tag_472\n        /* \"contracts/generated/PublicInput.sol\":15386:15393  txValue */\n      dup6\n        /* \"contracts/generated/PublicInput.sol\":15379:15394  rlc_le(txValue) */\n      tag_364\n      jump\t// in\n    tag_472:\n        /* \"contracts/generated/PublicInput.sol\":9037:9039  96 */\n      0x60\n        /* \"contracts/generated/PublicInput.sol\":9031:9040  mload(96) */\n      dup1\n      mload\n        /* \"contracts/generated/PublicInput.sol\":9156:9157  0 */\n      0x00\n        /* \"contracts/generated/PublicInput.sol\":9150:9158  mload(0) */\n      dup1\n      mload\n        /* \"contracts/generated/PublicInput.sol\":9192:9194  32 */\n      0x20\n        /* \"contracts/generated/PublicInput.sol\":9179:9195  add(rpi_ptr, 32) */\n      dup2\n      add\n        /* \"contracts/generated/PublicInput.sol\":9169:9196  mstore(0, add(rpi_ptr, 32)) */\n      swap1\n      swap2\n      mstore\n        /* \"contracts/generated/PublicInput.sol\":9231:9252  mstore(rpi_ptr, txId) */\n      dup10\n      dup2\n      mstore\n        /* \"contracts/generated/PublicInput.sol\":9299:9317  add(callframe, 96) */\n      swap2\n      add\n        /* \"contracts/generated/PublicInput.sol\":9293:9318  mload(add(callframe, 96)) */\n      mload\n        /* \"contracts/generated/PublicInput.sol\":9369:9404  add(rpi_ptr, id_index_value_spread) */\n      swap1\n      dup2\n      add\n        /* \"contracts/generated/PublicInput.sol\":9450:9485  add(rpi_ptr, id_index_value_spread) */\n      add\n        /* \"contracts/generated/PublicInput.sol\":9496:9518  mstore(rpi_ptr, value) */\n      mstore\n        /* \"contracts/generated/PublicInput.sol\":8964:9536  function appendTxRow (txId, tag, value) {... */\n      jump\n        /* \"contracts/generated/PublicInput.sol\":15341:15395  appendTxRow(txId, CONST_TX_TAG_VALUE, rlc_le(txValue)) */\n    tag_471:\n        /* \"contracts/generated/PatriciaStorageValidator.sol\":6716:6728  mul(32, idx) */\n      0xa0\n        /* \"contracts/generated/PatriciaStorageValidator.sol\":6704:6729  add(memPtr, mul(32, idx)) */\n      dup4\n      add\n        /* \"contracts/generated/PatriciaStorageValidator.sol\":6698:6730  mload(add(memPtr, mul(32, idx))) */\n      mload\n        /* \"contracts/generated/PatriciaStorageValidator.sol\":6817:6825  0xffffff */\n      0xffffff\n        /* \"contracts/generated/PatriciaStorageValidator.sol\":6808:6826  and(tmp, 0xffffff) */\n      dup2\n      and\n      swap1\n        /* \"contracts/generated/PatriciaStorageValidator.sol\":6840:6843  128 */\n      0x80\n        /* \"contracts/generated/PatriciaStorageValidator.sol\":6836:6849  shr(128, tmp) */\n      shr\n        /* \"contracts/generated/PublicInput.sol\":15593:15595  96 */\n      0x60\n        /* \"contracts/generated/PublicInput.sol\":15587:15596  mload(96) */\n      dup1\n      mload\n        /* \"contracts/generated/PublicInput.sol\":15681:15684  128 */\n      0x80\n        /* \"contracts/generated/PublicInput.sol\":15666:15685  add(callframe, 128) */\n      add\n        /* \"contracts/generated/PublicInput.sol\":15719:15732  mload(offset) */\n      dup1\n      mload\n        /* \"contracts/generated/PublicInput.sol\":15715:15745  add(mload(offset), txInputLen) */\n      dup4\n      add\n        /* \"contracts/generated/PublicInput.sol\":15700:15746  mstore(offset, add(mload(offset), txInputLen)) */\n      swap1\n      mstore\n        /* \"contracts/generated/PublicInput.sol\":9031:9040  mload(96) */\n      dup1\n      mload\n      0x00\n        /* \"contracts/generated/PublicInput.sol\":9150:9158  mload(0) */\n      dup1\n      mload\n        /* \"contracts/generated/PublicInput.sol\":9192:9194  32 */\n      0x20\n        /* \"contracts/generated/PublicInput.sol\":9179:9195  add(rpi_ptr, 32) */\n      dup2\n      add\n        /* \"contracts/generated/PublicInput.sol\":9169:9196  mstore(0, add(rpi_ptr, 32)) */\n      swap1\n      swap2\n      mstore\n        /* \"contracts/generated/PublicInput.sol\":9231:9252  mstore(rpi_ptr, txId) */\n      dup10\n      dup2\n      mstore\n        /* \"contracts/generated/PublicInput.sol\":9299:9317  add(callframe, 96) */\n      swap2\n      add\n        /* \"contracts/generated/PublicInput.sol\":9293:9318  mload(add(callframe, 96)) */\n      mload\n        /* \"contracts/generated/PublicInput.sol\":9369:9404  add(rpi_ptr, id_index_value_spread) */\n      swap1\n      dup2\n      add\n        /* \"contracts/generated/PublicInput.sol\":9450:9485  add(rpi_ptr, id_index_value_spread) */\n      add\n        /* \"contracts/generated/PublicInput.sol\":9496:9518  mstore(rpi_ptr, value) */\n      dup2\n      swap1\n      mstore\n        /* \"contracts/generated/PublicInput.sol\":15715:15745  add(mload(offset), txInputLen) */\n      swap5\n      pop\n        /* \"contracts/generated/PublicInput.sol\":15419:15471  let txInputOffset, txInputLen := loadPair(values, 5) */\n      swap3\n      pop\n        /* \"contracts/generated/PublicInput.sol\":15811:15812  8 */\n      0x08\n      swap2\n      pop\n        /* \"contracts/generated/PublicInput.sol\":15950:15963  let zeroBytes */\n      0x00\n      swap2\n      pop\n        /* \"contracts/generated/PublicInput.sol\":15991:15992  0 */\n      0x00\n        /* \"contracts/generated/PublicInput.sol\":15976:16210  for { let i := 0 } lt(i, txInputLen) { i := add(i, 1) } {... */\n    tag_475:\n        /* \"contracts/generated/PublicInput.sol\":16001:16011  txInputLen */\n      dup5\n        /* \"contracts/generated/PublicInput.sol\":15998:15999  i */\n      dup2\n        /* \"contracts/generated/PublicInput.sol\":15995:16012  lt(i, txInputLen) */\n      lt\n        /* \"contracts/generated/PublicInput.sol\":15976:16210  for { let i := 0 } lt(i, txInputLen) { i := add(i, 1) } {... */\n      iszero\n      tag_477\n      jumpi\n        /* \"contracts/generated/PublicInput.sol\":16099:16100  i */\n      dup1\n        /* \"contracts/generated/PublicInput.sol\":16084:16097  txInputOffset */\n      dup5\n        /* \"contracts/generated/PublicInput.sol\":16080:16101  add(txInputOffset, i) */\n      add\n        /* \"contracts/generated/PublicInput.sol\":16067:16102  calldataload(add(txInputOffset, i)) */\n      calldataload\n        /* \"contracts/generated/PublicInput.sol\":16064:16065  0 */\n      0x00\n        /* \"contracts/generated/PublicInput.sol\":16059:16103  byte(0, calldataload(add(txInputOffset, i))) */\n      byte\n        /* \"contracts/generated/PublicInput.sol\":16118:16140  appendCallDataRow(val) */\n      tag_478\n        /* \"contracts/generated/PublicInput.sol\":16136:16139  val */\n      dup2\n        /* \"contracts/generated/PublicInput.sol\":9612:9614  96 */\n      0x60\n        /* \"contracts/generated/PublicInput.sol\":9606:9615  mload(96) */\n      mload\n        /* \"contracts/generated/PublicInput.sol\":9741:9743  64 */\n      0x40\n        /* \"contracts/generated/PublicInput.sol\":9726:9744  add(callframe, 64) */\n      add\n        /* \"contracts/generated/PublicInput.sol\":9810:9820  mload(ptr) */\n      dup1\n      mload\n        /* \"contracts/generated/PublicInput.sol\":9866:9868  32 */\n      0x20\n        /* \"contracts/generated/PublicInput.sol\":9843:9869  add(rpi_ptr_call_data, 32) */\n      dup2\n      add\n        /* \"contracts/generated/PublicInput.sol\":9831:9870  mstore(ptr, add(rpi_ptr_call_data, 32)) */\n      swap1\n      swap2\n      mstore\n        /* \"contracts/generated/PublicInput.sol\":9909:9941  mstore(rpi_ptr_call_data, value) */\n      mstore\n        /* \"contracts/generated/PublicInput.sol\":9544:9959  function appendCallDataRow (value) {... */\n      jump\n        /* \"contracts/generated/PublicInput.sol\":16118:16140  appendCallDataRow(val) */\n    tag_478:\n        /* \"contracts/generated/PublicInput.sol\":16184:16195  iszero(val) */\n      iszero\n        /* \"contracts/generated/PublicInput.sol\":16169:16196  add(zeroBytes, iszero(val)) */\n      swap3\n      swap1\n      swap3\n      add\n      swap2\n        /* \"contracts/generated/PublicInput.sol\":16027:16028  1 */\n      0x01\n        /* \"contracts/generated/PublicInput.sol\":16020:16029  add(i, 1) */\n      add\n        /* \"contracts/generated/PublicInput.sol\":15976:16210  for { let i := 0 } lt(i, txInputLen) { i := add(i, 1) } {... */\n      jump(tag_475)\n    tag_477:\n      pop\n        /* \"contracts/generated/PublicInput.sol\":9037:9039  96 */\n      0x60\n        /* \"contracts/generated/PublicInput.sol\":9031:9040  mload(96) */\n      dup1\n      mload\n        /* \"contracts/generated/PublicInput.sol\":9156:9157  0 */\n      0x00\n        /* \"contracts/generated/PublicInput.sol\":9150:9158  mload(0) */\n      dup1\n      mload\n        /* \"contracts/generated/PublicInput.sol\":9192:9194  32 */\n      0x20\n        /* \"contracts/generated/PublicInput.sol\":9179:9195  add(rpi_ptr, 32) */\n      dup2\n      add\n        /* \"contracts/generated/PublicInput.sol\":9169:9196  mstore(0, add(rpi_ptr, 32)) */\n      swap1\n      swap2\n      mstore\n        /* \"contracts/generated/PublicInput.sol\":9231:9252  mstore(rpi_ptr, txId) */\n      dup8\n      dup2\n      mstore\n        /* \"contracts/generated/PublicInput.sol\":9299:9317  add(callframe, 96) */\n      swap2\n      add\n        /* \"contracts/generated/PublicInput.sol\":9293:9318  mload(add(callframe, 96)) */\n      mload\n        /* \"contracts/generated/PublicInput.sol\":16274:16275  4 */\n      0x04\n        /* \"contracts/generated/PublicInput.sol\":16259:16276  mul(zeroBytes, 4) */\n      dup5\n      mul\n        /* \"contracts/generated/PublicInput.sol\":16282:16308  sub(txInputLen, zeroBytes) */\n      dup5\n      dup8\n      sub\n        /* \"contracts/generated/PublicInput.sol\":16310:16312  16 */\n      0x10\n        /* \"contracts/generated/PublicInput.sol\":16278:16313  mul(sub(txInputLen, zeroBytes), 16) */\n      mul\n        /* \"contracts/generated/PublicInput.sol\":16255:16314  add(mul(zeroBytes, 4), mul(sub(txInputLen, zeroBytes), 16)) */\n      add\n        /* \"contracts/generated/PublicInput.sol\":9369:9404  add(rpi_ptr, id_index_value_spread) */\n      swap2\n      dup2\n      add\n        /* \"contracts/generated/PublicInput.sol\":9450:9485  add(rpi_ptr, id_index_value_spread) */\n      add\n        /* \"contracts/generated/PublicInput.sol\":9496:9518  mstore(rpi_ptr, value) */\n      dup2\n      swap1\n      mstore\n      pop\n      not(0x014551231950b75fc4402da1732fc9bebe)\n        /* \"contracts/generated/PublicInput.sol\":16599:16621  mod(hash, SECP256K1_Q) */\n      dup2\n      mod\n      swap4\n      pop\n        /* \"contracts/generated/PublicInput.sol\":16664:16666  10 */\n      0x0a\n      swap3\n      pop\n        /* \"contracts/generated/PublicInput.sol\":16679:16738  appendTxRow(txId, CONST_TX_TAG_SIGN_HASH, rlc_le(msg_hash)) */\n      tag_480\n        /* \"contracts/generated/PublicInput.sol\":16721:16737  rlc_le(msg_hash) */\n      tag_472\n        /* \"contracts/generated/PublicInput.sol\":16599:16621  mod(hash, SECP256K1_Q) */\n      dup6\n        /* \"contracts/generated/PublicInput.sol\":16721:16737  rlc_le(msg_hash) */\n      tag_364\n      jump\t// in\n        /* \"contracts/generated/PublicInput.sol\":16679:16738  appendTxRow(txId, CONST_TX_TAG_SIGN_HASH, rlc_le(msg_hash)) */\n    tag_480:\n        /* \"contracts/generated/PublicInput.sol\":16471:16750  {... */\n      pop\n      pop\n      pop\n      pop\n        /* \"contracts/generated/PublicInput.sol\":13739:16760  for {} lt(dataOffset, dataOffsetTail) {} {... */\n      jump(tag_450)\n    tag_452:\n        /* \"contracts/generated/PublicInput.sol\":16770:16817  require(eq(dataOffset, dataOffsetTail), \"DATA\") */\n      tag_482\n      shl(0xe0, 0x44415441)\n        /* \"contracts/generated/PublicInput.sol\":16793:16807  dataOffsetTail */\n      dup4\n        /* \"contracts/generated/PublicInput.sol\":16781:16791  dataOffset */\n      dup6\n        /* \"contracts/generated/PublicInput.sol\":16778:16808  eq(dataOffset, dataOffsetTail) */\n      eq\n        /* \"contracts/generated/PublicInput.sol\":16770:16817  require(eq(dataOffset, dataOffsetTail), \"DATA\") */\n      tag_177\n      jump\t// in\n    tag_482:\n        /* \"contracts/generated/PublicInput.sol\":16903:16905  96 */\n      0x60\n        /* \"contracts/generated/PublicInput.sol\":16897:16906  mload(96) */\n      mload\n        /* \"contracts/generated/PublicInput.sol\":16951:16954  128 */\n      0x80\n        /* \"contracts/generated/PublicInput.sol\":16936:16955  add(callframe, 128) */\n      add\n        /* \"contracts/generated/PublicInput.sol\":16930:16956  mload(add(callframe, 128)) */\n      mload\n        /* \"contracts/generated/PublicInput.sol\":16967:17118  require(... */\n      tag_483\n      shl(0xc0, 0x4d41585f44415441)\n        /* \"contracts/generated/PublicInput.sol\":17006:17029  eq(value, MAX_CALLDATA) */\n      dup13\n      dup4\n      eq\n        /* \"contracts/generated/PublicInput.sol\":17045:17068  lt(value, MAX_CALLDATA) */\n      dup14\n      dup5\n      lt\n        /* \"contracts/generated/PublicInput.sol\":16988:17082  or(... */\n      or\n        /* \"contracts/generated/PublicInput.sol\":16967:17118  require(... */\n      tag_177\n      jump\t// in\n    tag_483:\n      pop\n        /* \"contracts/generated/PublicInput.sol\":17165:17399  for {} lt(txId, MAX_TXS) { } {... */\n    tag_484:\n        /* \"contracts/generated/PublicInput.sol\":17181:17188  MAX_TXS */\n      dup11\n        /* \"contracts/generated/PublicInput.sol\":17175:17179  txId */\n      dup2\n        /* \"contracts/generated/PublicInput.sol\":17172:17189  lt(txId, MAX_TXS) */\n      lt\n        /* \"contracts/generated/PublicInput.sol\":17165:17399  for {} lt(txId, MAX_TXS) { } {... */\n      iszero\n      tag_486\n      jumpi\n        /* \"contracts/generated/PublicInput.sol\":17224:17225  1 */\n      0x01\n        /* \"contracts/generated/PublicInput.sol\":17214:17226  add(txId, 1) */\n      swap1\n      dup2\n      add\n      swap1\n        /* \"contracts/generated/PublicInput.sol\":17282:17389  for { let tag := 1 } lt(tag, 11) { tag := add(tag, 1) } {... */\n    tag_487:\n        /* \"contracts/generated/PublicInput.sol\":17311:17313  11 */\n      0x0b\n        /* \"contracts/generated/PublicInput.sol\":17306:17309  tag */\n      dup2\n        /* \"contracts/generated/PublicInput.sol\":17303:17314  lt(tag, 11) */\n      lt\n        /* \"contracts/generated/PublicInput.sol\":17282:17389  for { let tag := 1 } lt(tag, 11) { tag := add(tag, 1) } {... */\n      iszero\n      tag_489\n      jumpi\n        /* \"contracts/generated/PublicInput.sol\":9037:9039  96 */\n      0x60\n        /* \"contracts/generated/PublicInput.sol\":9031:9040  mload(96) */\n      dup1\n      mload\n        /* \"contracts/generated/PublicInput.sol\":17375:17376  0 */\n      0x00\n        /* \"contracts/generated/PublicInput.sol\":9150:9158  mload(0) */\n      dup1\n      mload\n        /* \"contracts/generated/PublicInput.sol\":9192:9194  32 */\n      0x20\n        /* \"contracts/generated/PublicInput.sol\":9179:9195  add(rpi_ptr, 32) */\n      dup2\n      add\n        /* \"contracts/generated/PublicInput.sol\":9169:9196  mstore(0, add(rpi_ptr, 32)) */\n      dup3\n      mstore\n        /* \"contracts/generated/PublicInput.sol\":9231:9252  mstore(rpi_ptr, txId) */\n      dup6\n      dup2\n      mstore\n        /* \"contracts/generated/PublicInput.sol\":9299:9317  add(callframe, 96) */\n      swap2\n      swap1\n      swap3\n      add\n        /* \"contracts/generated/PublicInput.sol\":9293:9318  mload(add(callframe, 96)) */\n      mload\n        /* \"contracts/generated/PublicInput.sol\":9369:9404  add(rpi_ptr, id_index_value_spread) */\n      swap1\n      dup2\n      add\n        /* \"contracts/generated/PublicInput.sol\":9450:9485  add(rpi_ptr, id_index_value_spread) */\n      add\n        /* \"contracts/generated/PublicInput.sol\":9496:9518  mstore(rpi_ptr, value) */\n      mstore\n        /* \"contracts/generated/PublicInput.sol\":17333:17334  1 */\n      0x01\n        /* \"contracts/generated/PublicInput.sol\":17324:17335  add(tag, 1) */\n      add\n        /* \"contracts/generated/PublicInput.sol\":17282:17389  for { let tag := 1 } lt(tag, 11) { tag := add(tag, 1) } {... */\n      jump(tag_487)\n    tag_489:\n        /* \"contracts/generated/PublicInput.sol\":17286:17302  { let tag := 1 } */\n      pop\n        /* \"contracts/generated/PublicInput.sol\":17165:17399  for {} lt(txId, MAX_TXS) { } {... */\n      jump(tag_484)\n    tag_486:\n        /* \"contracts/generated/PublicInput.sol\":17409:17446  require(eq(txId, MAX_TXS), \"MAX_TXS\") */\n      tag_491\n      shl(0xc8, 0x4d41585f545853)\n        /* \"contracts/generated/PublicInput.sol\":17426:17433  MAX_TXS */\n      dup13\n        /* \"contracts/generated/PublicInput.sol\":17420:17424  txId */\n      dup4\n        /* \"contracts/generated/PublicInput.sol\":17417:17434  eq(txId, MAX_TXS) */\n      eq\n        /* \"contracts/generated/PublicInput.sol\":17409:17446  require(eq(txId, MAX_TXS), \"MAX_TXS\") */\n      tag_177\n      jump\t// in\n    tag_491:\n      pop\n        /* \"contracts/generated/PublicInput.sol\":13649:17454  {... */\n      pop\n      pop\n        /* \"contracts/generated/PublicInput.sol\":17505:17507  32 */\n      0x20\n        /* \"contracts/generated/PublicInput.sol\":17499:17508  mload(32) */\n      mload\n        /* \"contracts/generated/PublicInput.sol\":17494:17496  64 */\n      0x40\n        /* \"contracts/generated/PublicInput.sol\":17488:17497  mload(64) */\n      mload\n        /* \"contracts/generated/PublicInput.sol\":17484:17509  sub(mload(64), mload(32)) */\n      sub\n      0x00\n      dup1\n      mload\n      0x20\n      data_848f50338cc074da8d5d8c20099d6f9a52cdd4e857863a722476f697bca98a91\n      dup4\n      codecopy\n      dup2\n      mload\n      swap2\n      mstore\n        /* \"contracts/generated/PublicInput.sol\":17590:17604  NUM_RAW_INPUTS */\n      dup2\n        /* \"contracts/generated/PublicInput.sol\":17585:17587  32 */\n      0x20\n        /* \"contracts/generated/PublicInput.sol\":17579:17588  mload(32) */\n      mload\n        /* \"contracts/generated/PublicInput.sol\":17569:17605  keccak256(mload(32), NUM_RAW_INPUTS) */\n      keccak256\n        /* \"contracts/generated/PublicInput.sol\":17565:17674  mod(keccak256(mload(32), NUM_RAW_INPUTS), 0x30644e72e131a029b85045b68181585d2833e84879b9709143e1f593f0000001) */\n      mod\n        /* \"contracts/generated/PublicInput.sol\":17703:17711  rand_rpi */\n      dup1\n        /* \"contracts/generated/PublicInput.sol\":17699:17700  0 */\n      0x00\n        /* \"contracts/generated/PublicInput.sol\":17692:17697  table */\n      dup5\n        /* \"contracts/generated/PublicInput.sol\":17688:17701  add(table, 0) */\n      add\n        /* \"contracts/generated/PublicInput.sol\":17681:17712  mstore(add(table, 0), rand_rpi) */\n      mstore\n        /* \"contracts/generated/PublicInput.sol\":17735:17736  0 */\n      0x00\n        /* \"contracts/generated/PublicInput.sol\":17775:17777  32 */\n      0x20\n        /* \"contracts/generated/PublicInput.sol\":17769:17778  mload(32) */\n      mload\n        /* \"contracts/generated/PublicInput.sol\":17817:17831  NUM_RAW_INPUTS */\n      dup4\n        /* \"contracts/generated/PublicInput.sol\":17807:17815  raw_head */\n      dup2\n        /* \"contracts/generated/PublicInput.sol\":17803:17832  add(raw_head, NUM_RAW_INPUTS) */\n      add\n        /* \"contracts/generated/PublicInput.sol\":17842:18157  for {} gt(raw_tail, raw_head) {} {... */\n    tag_492:\n        /* \"contracts/generated/PublicInput.sol\":17862:17870  raw_head */\n      dup2\n        /* \"contracts/generated/PublicInput.sol\":17852:17860  raw_tail */\n      dup2\n        /* \"contracts/generated/PublicInput.sol\":17849:17871  gt(raw_tail, raw_head) */\n      gt\n        /* \"contracts/generated/PublicInput.sol\":17842:18157  for {} gt(raw_tail, raw_head) {} {... */\n      iszero\n      tag_494\n      jumpi\n      not(0x1f)\n        /* \"contracts/generated/PublicInput.sol\":17899:17916  sub(raw_tail, 32) */\n      add\n        /* \"contracts/generated/PublicInput.sol\":17944:17959  mload(raw_tail) */\n      dup1\n      mload\n      0x00\n      dup1\n      mload\n      0x20\n      data_848f50338cc074da8d5d8c20099d6f9a52cdd4e857863a722476f697bca98a91\n      dup4\n      codecopy\n      dup2\n      mload\n      swap2\n      mstore\n        /* \"contracts/generated/PublicInput.sol\":17980:18046  0x30644e72e131a029b85045b68181585d2833e84879b9709143e1f593f0000001 */\n      dup1\n        /* \"contracts/generated/PublicInput.sol\":18084:18092  rand_rpi */\n      dup7\n        /* \"contracts/generated/PublicInput.sol\":18075:18082  rpi_rlc */\n      dup7\n        /* \"contracts/generated/PublicInput.sol\":18068:18096  mulmod(rpi_rlc, rand_rpi, p) */\n      mulmod\n        /* \"contracts/generated/PublicInput.sol\":18057:18096  rpi_rlc := mulmod(rpi_rlc, rand_rpi, p) */\n      swap5\n      pop\n        /* \"contracts/generated/PublicInput.sol\":18145:18146  p */\n      dup1\n        /* \"contracts/generated/PublicInput.sol\":18134:18143  raw_value */\n      dup3\n        /* \"contracts/generated/PublicInput.sol\":18125:18132  rpi_rlc */\n      dup7\n        /* \"contracts/generated/PublicInput.sol\":18118:18147  addmod(rpi_rlc, raw_value, p) */\n      addmod\n        /* \"contracts/generated/PublicInput.sol\":18107:18147  rpi_rlc := addmod(rpi_rlc, raw_value, p) */\n      swap5\n      pop\n      pop\n      pop\n        /* \"contracts/generated/PublicInput.sol\":17842:18157  for {} gt(raw_tail, raw_head) {} {... */\n      jump(tag_492)\n    tag_494:\n      pop\n      pop\n        /* \"contracts/generated/PublicInput.sol\":18190:18192  32 */\n      0x20\n        /* \"contracts/generated/PublicInput.sol\":18179:18193  add(table, 32) */\n      dup5\n      dup2\n      add\n        /* \"contracts/generated/PublicInput.sol\":18172:18203  mstore(add(table, 32), rpi_rlc) */\n      swap2\n      swap1\n      swap2\n      mstore\n        /* \"contracts/generated/PublicInput.sol\":18248:18249  0 */\n      0x00\n        /* \"contracts/generated/PublicInput.sol\":18244:18246  96 */\n      0x60\n        /* \"contracts/generated/PublicInput.sol\":18237:18250  mstore(96, 0) */\n      mstore\n        /* \"contracts/generated/PublicInput.sol\":18323:18332  mload(32) */\n      mload\n        /* \"contracts/generated/PublicInput.sol\":18319:18321  64 */\n      0x40\n        /* \"contracts/generated/PublicInput.sol\":18312:18333  mstore(64, mload(32)) */\n      mstore\n      pop\n      pop\n      not(0x1f)\n        /* \"contracts/generated/PublicInput.sol\":18381:18395  sub(table, 32) */\n      add\n      swap8\n        /* \"contracts/generated/PublicInput.sol\":189:18405  function _buildCommitment (... */\n      swap7\n      pop\n      pop\n      pop\n      pop\n      pop\n      pop\n      pop\n      jump\t// out\n        /* \"contracts/ZkEvmMessageDispatcherBase.sol\":288:938  function _dispatchMessage (... */\n    tag_106:\n        /* \"contracts/ZkEvmMessageDispatcherBase.sol\":436:455  bytes32 messageHash */\n      0x00\n      dup1\n        /* \"contracts/ZkEvmMessageDispatcherBase.sol\":590:605  msg.value - fee */\n      tag_496\n        /* \"contracts/ZkEvmMessageDispatcherBase.sol\":602:605  fee */\n      dup8\n        /* \"contracts/ZkEvmMessageDispatcherBase.sol\":590:599  msg.value */\n      callvalue\n        /* \"contracts/ZkEvmMessageDispatcherBase.sol\":590:605  msg.value - fee */\n      tag_497\n      jump\t// in\n    tag_496:\n        /* \"contracts/ZkEvmMessageDispatcherBase.sol\":574:605  uint256 value = msg.value - fee */\n      swap1\n      pop\n        /* \"contracts/ZkEvmMessageDispatcherBase.sol\":647:657  msg.sender */\n      caller\n        /* \"contracts/ZkEvmMessageDispatcherBase.sol\":659:661  to */\n      dup9\n        /* \"contracts/ZkEvmMessageDispatcherBase.sol\":663:668  value */\n      dup3\n        /* \"contracts/ZkEvmMessageDispatcherBase.sol\":670:673  fee */\n      dup10\n        /* \"contracts/ZkEvmMessageDispatcherBase.sol\":675:683  deadline */\n      dup10\n        /* \"contracts/ZkEvmMessageDispatcherBase.sol\":685:690  nonce */\n      dup10\n        /* \"contracts/ZkEvmMessageDispatcherBase.sol\":692:696  data */\n      dup10\n      dup10\n        /* \"contracts/ZkEvmMessageDispatcherBase.sol\":636:697  abi.encode(msg.sender, to, value, fee, deadline, nonce, data) */\n      add(0x20, mload(0x40))\n      tag_498\n      swap9\n      swap8\n      swap7\n      swap6\n      swap5\n      swap4\n      swap3\n      swap2\n      swap1\n      tag_82\n      jump\t// in\n    tag_498:\n      0x40\n      dup1\n      mload\n      dup1\n      dup4\n      sub\n      not(0x1f)\n      add\n      dup2\n      mstore\n      swap2\n      dup2\n      mstore\n        /* \"contracts/ZkEvmMessageDispatcherBase.sol\":626:698  keccak256(abi.encode(msg.sender, to, value, fee, deadline, nonce, data)) */\n      dup2\n      mload\n        /* \"contracts/ZkEvmMessageDispatcherBase.sol\":636:697  abi.encode(msg.sender, to, value, fee, deadline, nonce, data) */\n      0x20\n        /* \"contracts/ZkEvmMessageDispatcherBase.sol\":626:698  keccak256(abi.encode(msg.sender, to, value, fee, deadline, nonce, data)) */\n      swap3\n      dup4\n      add\n      keccak256\n        /* \"contracts/ZkEvmStorage.sol\":268:278  0x31df76a4 */\n      0x31df76a4\n        /* \"contracts/ZkEvmMessageDispatcherBase.sol\":705:724  bytes32 storageSlot */\n      0x00\n        /* \"contracts/ZkEvmStorage.sol\":258:279  mstore(0, 0x31df76a4) */\n      swap1\n      dup2\n      mstore\n        /* \"contracts/ZkEvmStorage.sol\":286:307  mstore(32, messageId) */\n      swap3\n      dup2\n      swap1\n      mstore\n        /* \"contracts/ZkEvmStorage.sol\":321:337  keccak256(0, 64) */\n      swap2\n      keccak256\n        /* \"contracts/ZkEvmMessageDispatcherBase.sol\":1636:1646  sload(key) */\n      dup1\n      sload\n        /* \"contracts/ZkEvmMessageDispatcherBase.sol\":626:698  keccak256(abi.encode(msg.sender, to, value, fee, deadline, nonce, data)) */\n      swap2\n      swap4\n      pop\n        /* \"contracts/ZkEvmStorage.sol\":321:337  keccak256(0, 64) */\n      swap1\n        /* \"contracts/ZkEvmMessageDispatcherBase.sol\":774:798  _sload(storageSlot) == 0 */\n      iszero\n        /* \"contracts/ZkEvmMessageDispatcherBase.sol\":766:806  require(_sload(storageSlot) == 0, 'DMH') */\n      tag_501\n      jumpi\n      mload(0x40)\n      shl(0xe5, 0x461bcd)\n      dup2\n      mstore\n        /* \"#utility.yul\":9274:9276   */\n      0x20\n        /* \"contracts/ZkEvmMessageDispatcherBase.sol\":766:806  require(_sload(storageSlot) == 0, 'DMH') */\n      0x04\n      dup3\n      add\n        /* \"#utility.yul\":9256:9277   */\n      mstore\n        /* \"#utility.yul\":9313:9314   */\n      0x03\n        /* \"#utility.yul\":9293:9311   */\n      0x24\n      dup3\n      add\n        /* \"#utility.yul\":9286:9315   */\n      mstore\n      shl(0xeb, 0x0889a9)\n        /* \"#utility.yul\":9331:9349   */\n      0x44\n      dup3\n      add\n        /* \"#utility.yul\":9324:9357   */\n      mstore\n        /* \"#utility.yul\":9374:9392   */\n      0x64\n      add\n        /* \"contracts/ZkEvmMessageDispatcherBase.sol\":766:806  require(_sload(storageSlot) == 0, 'DMH') */\n      tag_88\n        /* \"#utility.yul\":9072:9398   */\n      jump\n        /* \"contracts/ZkEvmMessageDispatcherBase.sol\":766:806  require(_sload(storageSlot) == 0, 'DMH') */\n    tag_501:\n        /* \"contracts/ZkEvmMessageDispatcherBase.sol\":849:850  1 */\n      0x01\n        /* \"contracts/ZkEvmMessageDispatcherBase.sol\":1738:1756  sstore(key, value) */\n      dup2\n      sstore\n        /* \"contracts/ZkEvmMessageDispatcherBase.sol\":865:933  MessageDispatched(msg.sender, to, value, fee, deadline, nonce, data) */\n      0x4d083d19fcc619dfa227d3294a08c9309c2c6f22e389d1fc386105b342058a43\n        /* \"contracts/ZkEvmMessageDispatcherBase.sol\":883:893  msg.sender */\n      caller\n        /* \"contracts/ZkEvmMessageDispatcherBase.sol\":895:897  to */\n      dup11\n        /* \"contracts/ZkEvmMessageDispatcherBase.sol\":899:904  value */\n      dup5\n        /* \"contracts/ZkEvmMessageDispatcherBase.sol\":906:909  fee */\n      dup12\n        /* \"contracts/ZkEvmMessageDispatcherBase.sol\":911:919  deadline */\n      dup12\n        /* \"contracts/ZkEvmMessageDispatcherBase.sol\":921:926  nonce */\n      dup12\n        /* \"contracts/ZkEvmMessageDispatcherBase.sol\":928:932  data */\n      dup12\n      dup12\n        /* \"contracts/ZkEvmMessageDispatcherBase.sol\":865:933  MessageDispatched(msg.sender, to, value, fee, deadline, nonce, data) */\n      mload(0x40)\n      tag_504\n      swap9\n      swap8\n      swap7\n      swap6\n      swap5\n      swap4\n      swap3\n      swap2\n      swap1\n      tag_82\n      jump\t// in\n    tag_504:\n      mload(0x40)\n      dup1\n      swap2\n      sub\n      swap1\n      log1\n        /* \"contracts/ZkEvmMessageDispatcherBase.sol\":457:938  {... */\n      pop\n      pop\n        /* \"contracts/ZkEvmMessageDispatcherBase.sol\":288:938  function _dispatchMessage (... */\n      swap7\n      swap6\n      pop\n      pop\n      pop\n      pop\n      pop\n      pop\n      jump\t// out\n        /* \"contracts/generated/PatriciaAccountValidator.sol\":95:11842  function _validatePatriciaAccountProof (... */\n    tag_111:\n        /* \"contracts/generated/PatriciaAccountValidator.sol\":213:230  bytes32 stateRoot */\n      0x00\n        /* \"contracts/generated/PatriciaAccountValidator.sol\":232:251  bytes32 storageHash */\n      dup1\n        /* \"contracts/generated/PatriciaAccountValidator.sol\":421:942  function decodeItem (word, len) -> ret {... */\n      jump(tag_522)\n        /* \"contracts/generated/PatriciaAccountValidator.sol\":3373:4262  function decodeFlat (_ptr) -> ptr, memStart, nItems, hash {... */\n    tag_509:\n        /* \"contracts/generated/PatriciaAccountValidator.sol\":3557:3559  64 */\n      0x40\n        /* \"contracts/generated/PatriciaAccountValidator.sol\":3551:3560  mload(64) */\n      mload\n        /* \"contracts/generated/PatriciaAccountValidator.sol\":3442:3446  _ptr */\n      dup2\n      swap1\n        /* \"contracts/generated/PatriciaAccountValidator.sol\":3403:3406  ptr */\n      0x00\n      dup1\n        /* \"contracts/generated/PatriciaAccountValidator.sol\":3595:3616  decodeListLength(ptr) */\n      tag_536\n        /* \"contracts/generated/PatriciaAccountValidator.sol\":3442:3446  _ptr */\n      dup5\n        /* \"contracts/generated/PatriciaAccountValidator.sol\":3595:3616  decodeListLength(ptr) */\n      tag_164\n      jump\t// in\n    tag_536:\n        /* \"contracts/generated/PatriciaAccountValidator.sol\":3683:3693  payloadLen */\n      dup2\n        /* \"contracts/generated/PatriciaAccountValidator.sol\":3678:3681  ptr */\n      dup7\n        /* \"contracts/generated/PatriciaAccountValidator.sol\":3668:3676  memStart */\n      dup7\n        /* \"contracts/generated/PatriciaAccountValidator.sol\":3655:3694  calldatacopy(memStart, ptr, payloadLen) */\n      calldatacopy\n        /* \"contracts/generated/PatriciaAccountValidator.sol\":3705:3736  keccak256(memStart, payloadLen) */\n      dup2\n      dup6\n      keccak256\n        /* \"contracts/generated/PatriciaAccountValidator.sol\":3810:3821  startOffset */\n      swap1\n      swap6\n        /* \"contracts/generated/PatriciaAccountValidator.sol\":3705:3736  keccak256(memStart, payloadLen) */\n      swap1\n      swap3\n      pop\n        /* \"contracts/generated/PatriciaAccountValidator.sol\":3780:3800  add(ptr, payloadLen) */\n      add\n        /* \"contracts/generated/PatriciaAccountValidator.sol\":3810:3821  startOffset */\n      dup5\n        /* \"contracts/generated/PatriciaAccountValidator.sol\":3715:3723  memStart */\n      dup5\n        /* \"contracts/generated/PatriciaAccountValidator.sol\":3863:4163  for {} lt(ptr, ptrStop) {} {... */\n    tag_537:\n        /* \"contracts/generated/PatriciaAccountValidator.sol\":3878:3885  ptrStop */\n      dup3\n        /* \"contracts/generated/PatriciaAccountValidator.sol\":3873:3876  ptr */\n      dup8\n        /* \"contracts/generated/PatriciaAccountValidator.sol\":3870:3886  lt(ptr, ptrStop) */\n      lt\n        /* \"contracts/generated/PatriciaAccountValidator.sol\":3863:4163  for {} lt(ptr, ptrStop) {} {... */\n      iszero\n      tag_196\n      jumpi\n        /* \"contracts/generated/PatriciaAccountValidator.sol\":3925:3941  decodeValue(ptr) */\n      tag_540\n        /* \"contracts/generated/PatriciaAccountValidator.sol\":3937:3940  ptr */\n      dup8\n        /* \"contracts/generated/PatriciaAccountValidator.sol\":3925:3941  decodeValue(ptr) */\n      tag_165\n      jump\t// in\n    tag_540:\n        /* \"contracts/generated/PatriciaAccountValidator.sol\":3896:3941  let len, valuePtr, isData := decodeValue(ptr) */\n      swap4\n      pop\n        /* \"contracts/generated/PatriciaAccountValidator.sol\":3962:3970  valuePtr */\n      dup1\n        /* \"contracts/generated/PatriciaAccountValidator.sol\":3957:3960  len */\n      dup3\n        /* \"contracts/generated/PatriciaAccountValidator.sol\":3953:3971  add(len, valuePtr) */\n      add\n        /* \"contracts/generated/PatriciaAccountValidator.sol\":3946:3971  ptr := add(len, valuePtr) */\n      swap9\n      pop\n        /* \"contracts/generated/PatriciaAccountValidator.sol\":3980:3986  isData */\n      dup4\n        /* \"contracts/generated/PatriciaAccountValidator.sol\":3977:4159  if isData {... */\n      iszero\n      tag_541\n      jumpi\n        /* \"contracts/generated/PatriciaAccountValidator.sol\":4075:4078  128 */\n      0x80\n        /* \"contracts/generated/PatriciaAccountValidator.sol\":4071:4084  shl(128, len) */\n      dup3\n      swap1\n      shl\n        /* \"contracts/generated/PatriciaAccountValidator.sol\":4068:4095  or(shl(128, len), valuePtr) */\n      dup2\n      or\n        /* \"contracts/generated/PatriciaAccountValidator.sol\":4102:4121  mstore(memPtr, tmp) */\n      dup4\n      mstore\n        /* \"contracts/generated/PatriciaAccountValidator.sol\":4150:4152  32 */\n      0x20\n        /* \"contracts/generated/PatriciaAccountValidator.sol\":4138:4153  add(memPtr, 32) */\n      swap1\n      swap3\n      add\n      swap2\n        /* \"contracts/generated/PatriciaAccountValidator.sol\":3977:4159  if isData {... */\n    tag_541:\n      pop\n      pop\n        /* \"contracts/generated/PatriciaAccountValidator.sol\":3863:4163  for {} lt(ptr, ptrStop) {} {... */\n      jump(tag_537)\n        /* \"contracts/generated/PatriciaAccountValidator.sol\":6968:8752  function walkTree (key, _ptr) -> ptr, rootHash, expectedHash, path, leafMem {... */\n    tag_516:\n        /* \"contracts/generated/PatriciaAccountValidator.sol\":7158:7159  1 */\n      0x01\n        /* \"contracts/generated/PatriciaAccountValidator.sol\":7149:7160  add(ptr, 1) */\n      dup3\n      add\n        /* \"contracts/generated/PatriciaAccountValidator.sol\":7001:7004  ptr */\n      0x00\n      dup1\n      dup1\n      dup1\n        /* \"contracts/generated/PatriciaAccountValidator.sol\":7121:7138  calldataload(ptr) */\n      dup7\n      calldataload\n        /* \"contracts/generated/PatriciaAccountValidator.sol\":7113:7139  byte(0, calldataload(ptr)) */\n      dup2\n      byte\n        /* \"contracts/generated/PatriciaAccountValidator.sol\":7001:7004  ptr */\n      dup2\n      dup1\n        /* \"contracts/generated/PatriciaAccountValidator.sol\":7245:8663  for { let i := 0 } lt(i, nNodes) { i := add(i, 1) } {... */\n    tag_553:\n        /* \"contracts/generated/PatriciaAccountValidator.sol\":7270:7276  nNodes */\n      dup3\n        /* \"contracts/generated/PatriciaAccountValidator.sol\":7267:7268  i */\n      dup2\n        /* \"contracts/generated/PatriciaAccountValidator.sol\":7264:7277  lt(i, nNodes) */\n      lt\n        /* \"contracts/generated/PatriciaAccountValidator.sol\":7245:8663  for { let i := 0 } lt(i, nNodes) { i := add(i, 1) } {... */\n      iszero\n      tag_212\n      jumpi\n        /* \"contracts/generated/PatriciaAccountValidator.sol\":7303:7329  let memStart, nItems, hash */\n      0x00\n      dup1\n      0x00\n        /* \"contracts/generated/PatriciaAccountValidator.sol\":7365:7380  decodeFlat(ptr) */\n      tag_556\n        /* \"contracts/generated/PatriciaAccountValidator.sol\":7376:7379  ptr */\n      dup12\n        /* \"contracts/generated/PatriciaAccountValidator.sol\":7365:7380  decodeFlat(ptr) */\n      tag_509\n      jump\t// in\n    tag_556:\n        /* \"contracts/generated/PatriciaAccountValidator.sol\":7334:7380  ptr, memStart, nItems, hash := decodeFlat(ptr) */\n      swap4\n      pop\n      swap4\n      pop\n      swap4\n      pop\n      swap11\n      pop\n        /* \"contracts/generated/PatriciaAccountValidator.sol\":7548:7549  i */\n      dup4\n        /* \"contracts/generated/PatriciaAccountValidator.sol\":7559:7560  0 */\n      0x00\n        /* \"contracts/generated/PatriciaAccountValidator.sol\":7554:7591  case 0 {... */\n      dup2\n      eq\n      tag_558\n      jumpi\n        /* \"contracts/generated/PatriciaAccountValidator.sol\":7608:7640  cmp(hash, expectedHash, 'THASH') */\n      tag_559\n      shl(0xdb, 0x0a89082a69)\n        /* \"contracts/generated/PatriciaAccountValidator.sol\":7618:7630  expectedHash */\n      dup12\n        /* \"contracts/generated/PatriciaAccountValidator.sol\":7612:7616  hash */\n      dup5\n        /* \"contracts/generated/PatriciaAccountValidator.sol\":7608:7640  cmp(hash, expectedHash, 'THASH') */\n      tag_178\n      jump\t// in\n    tag_559:\n        /* \"contracts/generated/PatriciaAccountValidator.sol\":7541:7646  switch i... */\n      jump(tag_557)\n        /* \"contracts/generated/PatriciaAccountValidator.sol\":7554:7591  case 0 {... */\n    tag_558:\n        /* \"contracts/generated/PatriciaAccountValidator.sol\":7581:7585  hash */\n      dup2\n        /* \"contracts/generated/PatriciaAccountValidator.sol\":7569:7585  rootHash := hash */\n      swap11\n      pop\n        /* \"contracts/generated/PatriciaAccountValidator.sol\":7541:7646  switch i... */\n    tag_557:\n      pop\n      pop\n        /* \"contracts/generated/PatriciaAccountValidator.sol\":7659:7665  nItems */\n      dup1\n        /* \"contracts/generated/PatriciaAccountValidator.sol\":7675:7676  2 */\n      0x02\n        /* \"contracts/generated/PatriciaAccountValidator.sol\":7670:8314  case 2 {... */\n      dup2\n      eq\n      tag_561\n      jumpi\n        /* \"contracts/generated/PatriciaAccountValidator.sol\":8324:8326  17 */\n      0x11\n        /* \"contracts/generated/PatriciaAccountValidator.sol\":8319:8575  case 17 {... */\n      dup2\n      eq\n      tag_562\n      jumpi\n        /* \"contracts/generated/PatriciaAccountValidator.sol\":8635:8653  revertWith('NODE') */\n      tag_563\n      shl(0xe0, 0x4e4f4445)\n      tag_140\n      jump\t// in\n    tag_563:\n        /* \"contracts/generated/PatriciaAccountValidator.sol\":7652:8659  switch nItems... */\n      jump(tag_560)\n        /* \"contracts/generated/PatriciaAccountValidator.sol\":7670:8314  case 2 {... */\n    tag_561:\n        /* \"contracts/generated/PatriciaAccountValidator.sol\":7709:7723  let value, len */\n      0x00\n      dup1\n        /* \"contracts/generated/PatriciaAccountValidator.sol\":7840:7865  loadValueLen(memStart, 1) */\n      tag_564\n        /* \"contracts/generated/PatriciaAccountValidator.sol\":7863:7864  1 */\n      0x01\n        /* \"contracts/generated/PatriciaAccountValidator.sol\":7853:7861  memStart */\n      dup7\n        /* \"contracts/generated/PatriciaAccountValidator.sol\":7840:7865  loadValueLen(memStart, 1) */\n      tag_171\n      jump\t// in\n    tag_564:\n      pop\n        /* \"contracts/generated/PatriciaAccountValidator.sol\":7826:7865  value, len := loadValueLen(memStart, 1) */\n      swap11\n      pop\n      pop\n      pop\n      not(0x00)\n        /* \"contracts/generated/PatriciaAccountValidator.sol\":7914:7928  sub(nNodes, 1) */\n      dup7\n      add\n        /* \"contracts/generated/PatriciaAccountValidator.sol\":7908:7929  eq(i, sub(nNodes, 1)) */\n      dup5\n      eq\n        /* \"contracts/generated/PatriciaAccountValidator.sol\":7936:8256  case 0 {... */\n      dup1\n      iszero\n      tag_566\n      jumpi\n        /* \"contracts/generated/PatriciaAccountValidator.sol\":8292:8300  memStart */\n      dup4\n        /* \"contracts/generated/PatriciaAccountValidator.sol\":8281:8300  leafMem := memStart */\n      swap8\n      pop\n        /* \"contracts/generated/PatriciaAccountValidator.sol\":7901:8308  switch eq(i, sub(nNodes, 1))... */\n      jump(tag_565)\n        /* \"contracts/generated/PatriciaAccountValidator.sol\":7936:8256  case 0 {... */\n    tag_566:\n        /* \"contracts/generated/PatriciaAccountValidator.sol\":8193:8208  mload(memStart) */\n      dup4\n      mload\n        /* \"contracts/generated/PatriciaAccountValidator.sol\":8188:8191  128 */\n      0x80\n        /* \"contracts/generated/PatriciaAccountValidator.sol\":8184:8209  shr(128, mload(memStart)) */\n      shr\n        /* \"contracts/generated/PatriciaAccountValidator.sol\":8227:8248  add(depth, prefixLen) */\n      swap6\n      swap1\n      swap6\n      add\n      swap5\n        /* \"contracts/generated/PatriciaAccountValidator.sol\":7901:8308  switch eq(i, sub(nNodes, 1))... */\n    tag_565:\n      pop\n        /* \"contracts/generated/PatriciaAccountValidator.sol\":7670:8314  case 2 {... */\n      jump(tag_560)\n        /* \"contracts/generated/PatriciaAccountValidator.sol\":8319:8575  case 17 {... */\n    tag_562:\n        /* \"contracts/generated/PatriciaAccountValidator.sol\":8367:8368  4 */\n      0x04\n        /* \"contracts/generated/PatriciaAccountValidator.sol\":8356:8369  mul(depth, 4) */\n      dup6\n      mul\n        /* \"contracts/generated/PatriciaAccountValidator.sol\":8351:8354  252 */\n      0xfc\n        /* \"contracts/generated/PatriciaAccountValidator.sol\":8347:8370  sub(252, mul(depth, 4)) */\n      sub\n        /* \"contracts/generated/PatriciaAccountValidator.sol\":8395:8409  shr(bits, key) */\n      dup13\n      swap1\n      shr\n        /* \"contracts/generated/PatriciaAccountValidator.sol\":8411:8414  0xf */\n      0x0f\n        /* \"contracts/generated/PatriciaAccountValidator.sol\":8391:8415  and(shr(bits, key), 0xf) */\n      and\n        /* \"contracts/generated/PatriciaAccountValidator.sol\":8481:8511  loadValueLen(memStart, nibble) */\n      tag_567\n        /* \"contracts/generated/PatriciaAccountValidator.sol\":8391:8415  and(shr(bits, key), 0xf) */\n      dup2\n        /* \"contracts/generated/PatriciaAccountValidator.sol\":8494:8502  memStart */\n      dup6\n        /* \"contracts/generated/PatriciaAccountValidator.sol\":8481:8511  loadValueLen(memStart, nibble) */\n      tag_171\n      jump\t// in\n    tag_567:\n      pop\n        /* \"contracts/generated/PatriciaAccountValidator.sol\":8463:8511  let value, len := loadValueLen(memStart, nibble) */\n      swap10\n      pop\n      pop\n        /* \"contracts/generated/PatriciaAccountValidator.sol\":8567:8568  1 */\n      0x01\n        /* \"contracts/generated/PatriciaAccountValidator.sol\":8556:8569  add(depth, 1) */\n      swap5\n      swap1\n      swap5\n      add\n      swap4\n        /* \"contracts/generated/PatriciaAccountValidator.sol\":7652:8659  switch nItems... */\n    tag_560:\n      pop\n      pop\n      pop\n        /* \"contracts/generated/PatriciaAccountValidator.sol\":7292:7293  1 */\n      0x01\n        /* \"contracts/generated/PatriciaAccountValidator.sol\":7285:7294  add(i, 1) */\n      add\n        /* \"contracts/generated/PatriciaAccountValidator.sol\":7245:8663  for { let i := 0 } lt(i, nNodes) { i := add(i, 1) } {... */\n      jump(tag_553)\n        /* \"contracts/generated/PatriciaAccountValidator.sol\":9017:9964  function validateAccountProof (_ptr, accountAddress) -> ptr, rootHash, accountStorageHash {... */\n    tag_517:\n        /* \"contracts/generated/PatriciaAccountValidator.sol\":9118:9122  _ptr */\n      dup1\n        /* \"contracts/generated/PatriciaAccountValidator.sol\":9073:9076  ptr */\n      0x00\n      dup1\n      dup1\n      dup1\n      dup1\n      dup1\n      dup1\n        /* \"contracts/generated/PatriciaAccountValidator.sol\":9217:9242  keccak_20(accountAddress) */\n      tag_570\n        /* \"contracts/generated/PatriciaAccountValidator.sol\":9227:9241  accountAddress */\n      dup11\n        /* \"contracts/generated/PatriciaStorageValidator.sol\":4442:4443  0 */\n      0x00\n        /* \"contracts/generated/PatriciaStorageValidator.sol\":4435:4447  mstore(0, v) */\n      mstore\n        /* \"contracts/generated/PatriciaStorageValidator.sol\":4469:4471  20 */\n      0x14\n        /* \"contracts/generated/PatriciaStorageValidator.sol\":4465:4467  12 */\n      0x0c\n        /* \"contracts/generated/PatriciaStorageValidator.sol\":4455:4472  keccak256(12, 20) */\n      keccak256\n      swap1\n        /* \"contracts/generated/PatriciaStorageValidator.sol\":4403:4474  function keccak_20 (v) -> r {... */\n      jump\n        /* \"contracts/generated/PatriciaAccountValidator.sol\":9217:9242  keccak_20(accountAddress) */\n    tag_570:\n        /* \"contracts/generated/PatriciaAccountValidator.sol\":9355:9373  walkTree(key, ptr) */\n      tag_571\n        /* \"contracts/generated/PatriciaAccountValidator.sol\":9369:9372  ptr */\n      dup10\n        /* \"contracts/generated/PatriciaAccountValidator.sol\":9364:9367  key */\n      dup3\n        /* \"contracts/generated/PatriciaAccountValidator.sol\":9355:9373  walkTree(key, ptr) */\n      tag_516\n      jump\t// in\n    tag_571:\n        /* \"contracts/generated/PatriciaAccountValidator.sol\":9313:9373  ptr, rootHash, prevHash, path, leafMem := walkTree(key, ptr) */\n      swap6\n      pop\n      swap8\n      pop\n      swap5\n      pop\n      swap9\n      pop\n      swap9\n      pop\n      pop\n        /* \"contracts/generated/PatriciaAccountValidator.sol\":9444:9470  require(leafMem, \"ACLEAF\") */\n      tag_572\n      shl(0xd1, 0x20a1a622a0a3)\n        /* \"contracts/generated/PatriciaAccountValidator.sol\":9452:9459  leafMem */\n      dup3\n        /* \"contracts/generated/PatriciaAccountValidator.sol\":9444:9470  require(leafMem, \"ACLEAF\") */\n      tag_177\n      jump\t// in\n    tag_572:\n        /* \"contracts/generated/PatriciaAccountValidator.sol\":9489:9510  loadValue(leafMem, 0) */\n      tag_573\n        /* \"contracts/generated/PatriciaAccountValidator.sol\":9508:9509  0 */\n      0x00\n        /* \"contracts/generated/PatriciaAccountValidator.sol\":9499:9506  leafMem */\n      dup3\n        /* \"contracts/generated/PatriciaAccountValidator.sol\":9489:9510  loadValue(leafMem, 0) */\n      tag_170\n      jump\t// in\n    tag_573:\n        /* \"contracts/generated/PatriciaAccountValidator.sol\":9474:9510  encodedPath := loadValue(leafMem, 0) */\n      swap5\n      pop\n        /* \"contracts/generated/PatriciaAccountValidator.sol\":9578:9610  cmp(path, encodedPath, 'ACROOT') */\n      tag_574\n      shl(0xd2, 0x1050d493d3d5)\n        /* \"contracts/generated/PatriciaAccountValidator.sol\":9588:9599  encodedPath */\n      dup7\n        /* \"contracts/generated/PatriciaAccountValidator.sol\":9582:9586  path */\n      dup7\n        /* \"contracts/generated/PatriciaAccountValidator.sol\":9578:9610  cmp(path, encodedPath, 'ACROOT') */\n      tag_178\n      jump\t// in\n    tag_574:\n        /* \"contracts/generated/PatriciaStorageValidator.sol\":6720:6722  32 */\n      0x20\n        /* \"contracts/generated/PatriciaStorageValidator.sol\":6704:6729  add(memPtr, mul(32, idx)) */\n      dup2\n      add\n        /* \"contracts/generated/PatriciaStorageValidator.sol\":6698:6730  mload(add(memPtr, mul(32, idx))) */\n      mload\n        /* \"contracts/generated/PatriciaStorageValidator.sol\":6817:6825  0xffffff */\n      0xffffff\n        /* \"contracts/generated/PatriciaStorageValidator.sol\":6808:6826  and(tmp, 0xffffff) */\n      and\n      swap5\n      pop\n        /* \"contracts/generated/PatriciaAccountValidator.sol\":9728:9738  let nItems */\n      0x00\n      swap4\n      pop\n        /* \"contracts/generated/PatriciaAccountValidator.sol\":9776:9795  decodeFlat(leafPtr) */\n      tag_233\n        /* \"contracts/generated/PatriciaStorageValidator.sol\":6808:6826  and(tmp, 0xffffff) */\n      dup6\n        /* \"contracts/generated/PatriciaAccountValidator.sol\":9776:9795  decodeFlat(leafPtr) */\n      tag_509\n      jump\t// in\n        /* \"contracts/generated/PatriciaAccountValidator.sol\":11334:11415  function cmp (a, b, msg) {... */\n    tag_522:\n        /* \"contracts/generated/PatriciaAccountValidator.sol\":11434:11450  proofData.offset */\n      dup4\n        /* \"contracts/generated/PatriciaAccountValidator.sol\":11488:11522  validateAccountProof(ptr, account) */\n      tag_258\n        /* \"contracts/generated/PatriciaAccountValidator.sol\":11514:11521  account */\n      dup7\n        /* \"contracts/generated/PatriciaAccountValidator.sol\":11509:11512  ptr */\n      dup3\n        /* \"contracts/generated/PatriciaAccountValidator.sol\":11488:11522  validateAccountProof(ptr, account) */\n      tag_517\n      jump\t// in\n        /* \"contracts/ZkEvmMessageDelivererBase.sol\":577:1100  function _deliverMessage (... */\n    tag_135:\n        /* \"contracts/ZkEvmMessageDelivererBase.sol\":784:792  deadline */\n      dup4\n        /* \"contracts/ZkEvmMessageDelivererBase.sol\":766:781  block.timestamp */\n      timestamp\n        /* \"contracts/ZkEvmMessageDelivererBase.sol\":766:792  block.timestamp < deadline */\n      lt\n        /* \"contracts/ZkEvmMessageDelivererBase.sol\":758:800  require(block.timestamp < deadline, 'DMD') */\n      tag_605\n      jumpi\n      mload(0x40)\n      shl(0xe5, 0x461bcd)\n      dup2\n      mstore\n        /* \"#utility.yul\":8943:8945   */\n      0x20\n        /* \"contracts/ZkEvmMessageDelivererBase.sol\":758:800  require(block.timestamp < deadline, 'DMD') */\n      0x04\n      dup3\n      add\n        /* \"#utility.yul\":8925:8946   */\n      mstore\n        /* \"#utility.yul\":8982:8983   */\n      0x03\n        /* \"#utility.yul\":8962:8980   */\n      0x24\n      dup3\n      add\n        /* \"#utility.yul\":8955:8984   */\n      mstore\n      shl(0xea, 0x111351)\n        /* \"#utility.yul\":9000:9018   */\n      0x44\n      dup3\n      add\n        /* \"#utility.yul\":8993:9026   */\n      mstore\n        /* \"#utility.yul\":9043:9061   */\n      0x64\n      add\n        /* \"contracts/ZkEvmMessageDelivererBase.sol\":758:800  require(block.timestamp < deadline, 'DMD') */\n      tag_88\n        /* \"#utility.yul\":8741:9067   */\n      jump\n        /* \"contracts/ZkEvmMessageDelivererBase.sol\":758:800  require(block.timestamp < deadline, 'DMD') */\n    tag_605:\n        /* \"contracts/ZkEvmMessageDelivererBase.sol\":807:826  bytes32 messageHash */\n      0x00\n        /* \"contracts/ZkEvmMessageDelivererBase.sol\":850:854  from */\n      dup9\n        /* \"contracts/ZkEvmMessageDelivererBase.sol\":856:858  to */\n      dup9\n        /* \"contracts/ZkEvmMessageDelivererBase.sol\":860:865  value */\n      dup9\n        /* \"contracts/ZkEvmMessageDelivererBase.sol\":867:870  fee */\n      dup9\n        /* \"contracts/ZkEvmMessageDelivererBase.sol\":872:880  deadline */\n      dup9\n        /* \"contracts/ZkEvmMessageDelivererBase.sol\":882:887  nonce */\n      dup9\n        /* \"contracts/ZkEvmMessageDelivererBase.sol\":889:893  data */\n      dup9\n      dup9\n        /* \"contracts/ZkEvmMessageDelivererBase.sol\":839:894  abi.encode(from, to, value, fee, deadline, nonce, data) */\n      add(0x20, mload(0x40))\n      tag_607\n      swap9\n      swap8\n      swap7\n      swap6\n      swap5\n      swap4\n      swap3\n      swap2\n      swap1\n      tag_82\n      jump\t// in\n    tag_607:\n      mload(0x40)\n      0x20\n      dup2\n      dup4\n      sub\n      sub\n      dup2\n      mstore\n      swap1\n      0x40\n      mstore\n        /* \"contracts/ZkEvmMessageDelivererBase.sol\":829:895  keccak256(abi.encode(from, to, value, fee, deadline, nonce, data)) */\n      dup1\n      mload\n      swap1\n      0x20\n      add\n      keccak256\n        /* \"contracts/ZkEvmMessageDelivererBase.sol\":807:895  bytes32 messageHash = keccak256(abi.encode(from, to, value, fee, deadline, nonce, data)) */\n      swap1\n      pop\n        /* \"contracts/ZkEvmMessageDelivererBase.sol\":906:909  fee */\n      dup6\n        /* \"contracts/ZkEvmMessageDelivererBase.sol\":913:914  0 */\n      0x00\n        /* \"contracts/ZkEvmMessageDelivererBase.sol\":906:914  fee != 0 */\n      eq\n        /* \"contracts/ZkEvmMessageDelivererBase.sol\":902:959  if (fee != 0) {... */\n      tag_609\n      jumpi\n        /* \"contracts/ZkEvmMessageDelivererBase.sol\":924:952  _transferETH(tx.origin, fee) */\n      tag_609\n        /* \"contracts/ZkEvmMessageDelivererBase.sol\":937:946  tx.origin */\n      origin\n        /* \"contracts/ZkEvmMessageDelivererBase.sol\":948:951  fee */\n      dup8\n        /* \"contracts/ZkEvmMessageDelivererBase.sol\":924:936  _transferETH */\n      tag_278\n        /* \"contracts/ZkEvmMessageDelivererBase.sol\":924:952  _transferETH(tx.origin, fee) */\n      jump\t// in\n    tag_609:\n        /* \"contracts/ZkEvmMessageDelivererBase.sol\":965:979  _messageOrigin */\n      0x00\n        /* \"contracts/ZkEvmMessageDelivererBase.sol\":965:986  _messageOrigin = from */\n      dup1\n      sload\n      not(sub(shl(0xa0, 0x01), 0x01))\n      and\n      sub(shl(0xa0, 0x01), 0x01)\n      dup12\n      and\n      or\n      swap1\n      sstore\n        /* \"contracts/ZkEvmMessageDelivererBase.sol\":992:1021  _callAccount(to, value, data) */\n      tag_610\n        /* \"contracts/ZkEvmMessageDelivererBase.sol\":1005:1007  to */\n      dup9\n        /* \"contracts/ZkEvmMessageDelivererBase.sol\":1009:1014  value */\n      dup9\n        /* \"contracts/ZkEvmMessageDelivererBase.sol\":1016:1020  data */\n      dup6\n      dup6\n        /* \"contracts/ZkEvmMessageDelivererBase.sol\":992:1004  _callAccount */\n      tag_611\n        /* \"contracts/ZkEvmMessageDelivererBase.sol\":992:1021  _callAccount(to, value, data) */\n      jump\t// in\n    tag_610:\n        /* \"contracts/ZkEvmMessageDelivererBase.sol\":1052:1053  0 */\n      0x00\n        /* \"contracts/ZkEvmMessageDelivererBase.sol\":1027:1054  _messageOrigin = address(0) */\n      dup1\n      sload\n      not(sub(shl(0xa0, 0x01), 0x01))\n      and\n      swap1\n      sstore\n        /* \"contracts/ZkEvmMessageDelivererBase.sol\":1066:1095  MessageDelivered(messageHash) */\n      mload(0x40)\n        /* \"#utility.yul\":345:370   */\n      dup2\n      dup2\n      mstore\n        /* \"contracts/ZkEvmMessageDelivererBase.sol\":1066:1095  MessageDelivered(messageHash) */\n      0xfa39010b12e169f2d7e9a76e381216416dbf5eb59db117ae979592ee9f323885\n      swap1\n        /* \"#utility.yul\":333:335   */\n      0x20\n        /* \"#utility.yul\":318:336   */\n      add\n        /* \"contracts/ZkEvmMessageDelivererBase.sol\":1066:1095  MessageDelivered(messageHash) */\n      mload(0x40)\n      dup1\n      swap2\n      sub\n      swap1\n      log1\n        /* \"contracts/ZkEvmMessageDelivererBase.sol\":752:1100  {... */\n      pop\n        /* \"contracts/ZkEvmMessageDelivererBase.sol\":577:1100  function _deliverMessage (... */\n      pop\n      pop\n      pop\n      pop\n      pop\n      pop\n      pop\n      pop\n      jump\t// out\n        /* \"contracts/ZkEvmUtils.sol\":127:212  function _onlyEOA () internal view {... */\n    tag_157:\n        /* \"contracts/ZkEvmUtils.sol\":176:185  tx.origin */\n      origin\n        /* \"contracts/ZkEvmUtils.sol\":189:199  msg.sender */\n      caller\n        /* \"contracts/ZkEvmUtils.sol\":176:199  tx.origin == msg.sender */\n      eq\n        /* \"contracts/ZkEvmUtils.sol\":168:207  require(tx.origin == msg.sender, 'EOA') */\n      tag_614\n      jumpi\n      mload(0x40)\n      shl(0xe5, 0x461bcd)\n      dup2\n      mstore\n        /* \"#utility.yul\":10343:10345   */\n      0x20\n        /* \"contracts/ZkEvmUtils.sol\":168:207  require(tx.origin == msg.sender, 'EOA') */\n      0x04\n      dup3\n      add\n        /* \"#utility.yul\":10325:10346   */\n      mstore\n        /* \"#utility.yul\":10382:10383   */\n      0x03\n        /* \"#utility.yul\":10362:10380   */\n      0x24\n      dup3\n      add\n        /* \"#utility.yul\":10355:10384   */\n      mstore\n      shl(0xe8, 0x454f41)\n        /* \"#utility.yul\":10400:10418   */\n      0x44\n      dup3\n      add\n        /* \"#utility.yul\":10393:10426   */\n      mstore\n        /* \"#utility.yul\":10443:10461   */\n      0x64\n      add\n        /* \"contracts/ZkEvmUtils.sol\":168:207  require(tx.origin == msg.sender, 'EOA') */\n      tag_88\n        /* \"#utility.yul\":10141:10467   */\n      jump\n        /* \"contracts/ZkEvmUtils.sol\":168:207  require(tx.origin == msg.sender, 'EOA') */\n    tag_614:\n        /* \"contracts/ZkEvmUtils.sol\":127:212  function _onlyEOA () internal view {... */\n      jump\t// out\n        /* \"contracts/ZkEvmUtils.sol\":216:375  function _transferETH (address receiver, uint256 amount) internal {... */\n    tag_278:\n        /* \"contracts/ZkEvmUtils.sol\":289:301  bool success */\n      0x00\n        /* \"contracts/ZkEvmUtils.sol\":306:314  receiver */\n      dup3\n      sub(shl(0xa0, 0x01), 0x01)\n        /* \"contracts/ZkEvmUtils.sol\":306:319  receiver.call */\n      and\n        /* \"contracts/ZkEvmUtils.sol\":328:334  amount */\n      dup3\n        /* \"contracts/ZkEvmUtils.sol\":306:340  receiver.call{ value: amount }(\"\") */\n      mload(0x40)\n      0x00\n      mload(0x40)\n      dup1\n      dup4\n      sub\n      dup2\n      dup6\n      dup8\n      gas\n      call\n      swap3\n      pop\n      pop\n      pop\n      returndatasize\n      dup1\n      0x00\n      dup2\n      eq\n      tag_624\n      jumpi\n      mload(0x40)\n      swap2\n      pop\n      and(add(returndatasize, 0x3f), not(0x1f))\n      dup3\n      add\n      0x40\n      mstore\n      returndatasize\n      dup3\n      mstore\n      returndatasize\n      0x00\n      0x20\n      dup5\n      add\n      returndatacopy\n      jump(tag_623)\n    tag_624:\n      0x60\n      swap2\n      pop\n    tag_623:\n      pop\n        /* \"contracts/ZkEvmUtils.sol\":288:340  (bool success,) = receiver.call{ value: amount }(\"\") */\n      pop\n      swap1\n      pop\n        /* \"contracts/ZkEvmUtils.sol\":354:361  success */\n      dup1\n        /* \"contracts/ZkEvmUtils.sol\":346:370  require(success, 'TETH') */\n      tag_253\n      jumpi\n      mload(0x40)\n      shl(0xe5, 0x461bcd)\n      dup2\n      mstore\n      0x04\n      add\n      tag_88\n      swap1\n        /* \"#utility.yul\":10884:10886   */\n      0x20\n        /* \"#utility.yul\":10866:10887   */\n      dup1\n      dup3\n      mstore\n        /* \"#utility.yul\":10923:10924   */\n      0x04\n        /* \"#utility.yul\":10903:10921   */\n      swap1\n      dup3\n      add\n        /* \"#utility.yul\":10896:10925   */\n      mstore\n      shl(0xe3, 0x0a88aa89)\n        /* \"#utility.yul\":10956:10958   */\n      0x40\n        /* \"#utility.yul\":10941:10959   */\n      dup3\n      add\n        /* \"#utility.yul\":10934:10968   */\n      mstore\n        /* \"#utility.yul\":11000:11002   */\n      0x60\n        /* \"#utility.yul\":10985:11003   */\n      add\n      swap1\n        /* \"#utility.yul\":10682:11009   */\n      jump\n        /* \"contracts/ZkEvmUtils.sol\":379:713  function _callAccount (address to, uint256 value, bytes calldata data) internal {... */\n    tag_611:\n        /* \"contracts/ZkEvmUtils.sol\":493:496  128 */\n      0x80\n        /* \"contracts/ZkEvmUtils.sol\":534:545  data.length */\n      dup2\n        /* \"contracts/ZkEvmUtils.sol\":521:532  data.offset */\n      dup4\n        /* \"contracts/ZkEvmUtils.sol\":516:519  ptr */\n      dup3\n        /* \"contracts/ZkEvmUtils.sol\":503:546  calldatacopy(ptr, data.offset, data.length) */\n      calldatacopy\n        /* \"contracts/ZkEvmUtils.sol\":607:608  0 */\n      0x00\n        /* \"contracts/ZkEvmUtils.sol\":604:605  0 */\n      dup1\n        /* \"contracts/ZkEvmUtils.sol\":591:602  data.length */\n      dup4\n        /* \"contracts/ZkEvmUtils.sol\":586:589  ptr */\n      dup4\n        /* \"contracts/ZkEvmUtils.sol\":579:584  value */\n      dup8\n        /* \"contracts/ZkEvmUtils.sol\":575:577  to */\n      dup10\n        /* \"contracts/ZkEvmUtils.sol\":568:573  gas() */\n      gas\n        /* \"contracts/ZkEvmUtils.sol\":563:609  call(gas(), to, value, ptr, data.length, 0, 0) */\n      call\n        /* \"contracts/ZkEvmUtils.sol\":553:703  if iszero(call(gas(), to, value, ptr, data.length, 0, 0)) {... */\n      tag_629\n      jumpi\n        /* \"contracts/ZkEvmUtils.sol\":642:658  returndatasize() */\n      returndatasize\n        /* \"contracts/ZkEvmUtils.sol\":639:640  0 */\n      0x00\n        /* \"contracts/ZkEvmUtils.sol\":636:637  0 */\n      dup1\n        /* \"contracts/ZkEvmUtils.sol\":621:659  returndatacopy(0, 0, returndatasize()) */\n      returndatacopy\n        /* \"contracts/ZkEvmUtils.sol\":678:694  returndatasize() */\n      returndatasize\n        /* \"contracts/ZkEvmUtils.sol\":675:676  0 */\n      0x00\n        /* \"contracts/ZkEvmUtils.sol\":668:695  revert(0, returndatasize()) */\n      revert\n        /* \"contracts/ZkEvmUtils.sol\":553:703  if iszero(call(gas(), to, value, ptr, data.length, 0, 0)) {... */\n    tag_629:\n      pop\n        /* \"contracts/ZkEvmUtils.sol\":379:713  function _callAccount (address to, uint256 value, bytes calldata data) internal {... */\n      pop\n      pop\n      pop\n      pop\n      jump\t// out\n        /* \"#utility.yul\":14:194   */\n    tag_21:\n        /* \"#utility.yul\":73:79   */\n      0x00\n        /* \"#utility.yul\":126:128   */\n      0x20\n        /* \"#utility.yul\":114:123   */\n      dup3\n        /* \"#utility.yul\":105:112   */\n      dup5\n        /* \"#utility.yul\":101:124   */\n      sub\n        /* \"#utility.yul\":97:129   */\n      slt\n        /* \"#utility.yul\":94:146   */\n      iszero\n      tag_635\n      jumpi\n        /* \"#utility.yul\":142:143   */\n      0x00\n        /* \"#utility.yul\":139:140   */\n      dup1\n        /* \"#utility.yul\":132:144   */\n      revert\n        /* \"#utility.yul\":94:146   */\n    tag_635:\n      pop\n        /* \"#utility.yul\":165:188   */\n      calldataload\n      swap2\n        /* \"#utility.yul\":14:194   */\n      swap1\n      pop\n      jump\t// out\n        /* \"#utility.yul\":381:554   */\n    tag_630:\n        /* \"#utility.yul\":449:469   */\n      dup1\n      calldataload\n      sub(shl(0xa0, 0x01), 0x01)\n        /* \"#utility.yul\":498:529   */\n      dup2\n      and\n        /* \"#utility.yul\":488:530   */\n      dup2\n      eq\n        /* \"#utility.yul\":478:548   */\n      tag_638\n      jumpi\n        /* \"#utility.yul\":544:545   */\n      0x00\n        /* \"#utility.yul\":541:542   */\n      dup1\n        /* \"#utility.yul\":534:546   */\n      revert\n        /* \"#utility.yul\":478:548   */\n    tag_638:\n        /* \"#utility.yul\":381:554   */\n      swap2\n      swap1\n      pop\n      jump\t// out\n        /* \"#utility.yul\":559:906   */\n    tag_631:\n        /* \"#utility.yul\":610:618   */\n      0x00\n        /* \"#utility.yul\":620:626   */\n      dup1\n        /* \"#utility.yul\":674:677   */\n      dup4\n        /* \"#utility.yul\":667:671   */\n      0x1f\n        /* \"#utility.yul\":659:665   */\n      dup5\n        /* \"#utility.yul\":655:672   */\n      add\n        /* \"#utility.yul\":651:678   */\n      slt\n        /* \"#utility.yul\":641:696   */\n      tag_640\n      jumpi\n        /* \"#utility.yul\":692:693   */\n      0x00\n        /* \"#utility.yul\":689:690   */\n      dup1\n        /* \"#utility.yul\":682:694   */\n      revert\n        /* \"#utility.yul\":641:696   */\n    tag_640:\n      pop\n        /* \"#utility.yul\":715:735   */\n      dup2\n      calldataload\n        /* \"#utility.yul\":758:776   */\n      0xffffffffffffffff\n        /* \"#utility.yul\":747:777   */\n      dup2\n      gt\n        /* \"#utility.yul\":744:794   */\n      iszero\n      tag_641\n      jumpi\n        /* \"#utility.yul\":790:791   */\n      0x00\n        /* \"#utility.yul\":787:788   */\n      dup1\n        /* \"#utility.yul\":780:792   */\n      revert\n        /* \"#utility.yul\":744:794   */\n    tag_641:\n        /* \"#utility.yul\":827:831   */\n      0x20\n        /* \"#utility.yul\":819:825   */\n      dup4\n        /* \"#utility.yul\":815:832   */\n      add\n        /* \"#utility.yul\":803:832   */\n      swap2\n      pop\n        /* \"#utility.yul\":879:882   */\n      dup4\n        /* \"#utility.yul\":872:876   */\n      0x20\n        /* \"#utility.yul\":863:869   */\n      dup3\n        /* \"#utility.yul\":855:861   */\n      dup6\n        /* \"#utility.yul\":851:870   */\n      add\n        /* \"#utility.yul\":847:877   */\n      add\n        /* \"#utility.yul\":844:883   */\n      gt\n        /* \"#utility.yul\":841:900   */\n      iszero\n      tag_206\n      jumpi\n        /* \"#utility.yul\":896:897   */\n      0x00\n        /* \"#utility.yul\":893:894   */\n      dup1\n        /* \"#utility.yul\":886:898   */\n      revert\n        /* \"#utility.yul\":911:2053   */\n    tag_28:\n        /* \"#utility.yul\":1055:1061   */\n      0x00\n        /* \"#utility.yul\":1063:1069   */\n      dup1\n        /* \"#utility.yul\":1071:1077   */\n      0x00\n        /* \"#utility.yul\":1079:1085   */\n      dup1\n        /* \"#utility.yul\":1087:1093   */\n      0x00\n        /* \"#utility.yul\":1095:1101   */\n      dup1\n        /* \"#utility.yul\":1103:1109   */\n      0x00\n        /* \"#utility.yul\":1111:1117   */\n      dup1\n        /* \"#utility.yul\":1119:1125   */\n      0x00\n        /* \"#utility.yul\":1127:1133   */\n      dup1\n        /* \"#utility.yul\":1180:1183   */\n      0x0100\n        /* \"#utility.yul\":1168:1177   */\n      dup12\n        /* \"#utility.yul\":1159:1166   */\n      dup14\n        /* \"#utility.yul\":1155:1178   */\n      sub\n        /* \"#utility.yul\":1151:1184   */\n      slt\n        /* \"#utility.yul\":1148:1201   */\n      iszero\n      tag_644\n      jumpi\n        /* \"#utility.yul\":1197:1198   */\n      0x00\n        /* \"#utility.yul\":1194:1195   */\n      dup1\n        /* \"#utility.yul\":1187:1199   */\n      revert\n        /* \"#utility.yul\":1148:1201   */\n    tag_644:\n        /* \"#utility.yul\":1220:1249   */\n      tag_645\n        /* \"#utility.yul\":1239:1248   */\n      dup12\n        /* \"#utility.yul\":1220:1249   */\n      tag_630\n      jump\t// in\n    tag_645:\n        /* \"#utility.yul\":1210:1249   */\n      swap10\n      pop\n        /* \"#utility.yul\":1268:1306   */\n      tag_646\n        /* \"#utility.yul\":1302:1304   */\n      0x20\n        /* \"#utility.yul\":1291:1300   */\n      dup13\n        /* \"#utility.yul\":1287:1305   */\n      add\n        /* \"#utility.yul\":1268:1306   */\n      tag_630\n      jump\t// in\n    tag_646:\n        /* \"#utility.yul\":1258:1306   */\n      swap9\n      pop\n        /* \"#utility.yul\":1353:1355   */\n      0x40\n        /* \"#utility.yul\":1342:1351   */\n      dup12\n        /* \"#utility.yul\":1338:1356   */\n      add\n        /* \"#utility.yul\":1325:1357   */\n      calldataload\n        /* \"#utility.yul\":1315:1357   */\n      swap8\n      pop\n        /* \"#utility.yul\":1404:1406   */\n      0x60\n        /* \"#utility.yul\":1393:1402   */\n      dup12\n        /* \"#utility.yul\":1389:1407   */\n      add\n        /* \"#utility.yul\":1376:1408   */\n      calldataload\n        /* \"#utility.yul\":1366:1408   */\n      swap7\n      pop\n        /* \"#utility.yul\":1455:1458   */\n      0x80\n        /* \"#utility.yul\":1444:1453   */\n      dup12\n        /* \"#utility.yul\":1440:1459   */\n      add\n        /* \"#utility.yul\":1427:1460   */\n      calldataload\n        /* \"#utility.yul\":1417:1460   */\n      swap6\n      pop\n        /* \"#utility.yul\":1507:1510   */\n      0xa0\n        /* \"#utility.yul\":1496:1505   */\n      dup12\n        /* \"#utility.yul\":1492:1511   */\n      add\n        /* \"#utility.yul\":1479:1512   */\n      calldataload\n        /* \"#utility.yul\":1469:1512   */\n      swap5\n      pop\n        /* \"#utility.yul\":1563:1566   */\n      0xc0\n        /* \"#utility.yul\":1552:1561   */\n      dup12\n        /* \"#utility.yul\":1548:1567   */\n      add\n        /* \"#utility.yul\":1535:1568   */\n      calldataload\n        /* \"#utility.yul\":1587:1605   */\n      0xffffffffffffffff\n        /* \"#utility.yul\":1628:1630   */\n      dup1\n        /* \"#utility.yul\":1620:1626   */\n      dup3\n        /* \"#utility.yul\":1617:1631   */\n      gt\n        /* \"#utility.yul\":1614:1648   */\n      iszero\n      tag_647\n      jumpi\n        /* \"#utility.yul\":1644:1645   */\n      0x00\n        /* \"#utility.yul\":1641:1642   */\n      dup1\n        /* \"#utility.yul\":1634:1646   */\n      revert\n        /* \"#utility.yul\":1614:1648   */\n    tag_647:\n        /* \"#utility.yul\":1683:1741   */\n      tag_648\n        /* \"#utility.yul\":1733:1740   */\n      dup15\n        /* \"#utility.yul\":1724:1730   */\n      dup4\n        /* \"#utility.yul\":1713:1722   */\n      dup16\n        /* \"#utility.yul\":1709:1731   */\n      add\n        /* \"#utility.yul\":1683:1741   */\n      tag_631\n      jump\t// in\n    tag_648:\n        /* \"#utility.yul\":1760:1768   */\n      swap1\n      swap7\n      pop\n        /* \"#utility.yul\":1657:1741   */\n      swap5\n      pop\n        /* \"#utility.yul\":1848:1851   */\n      0xe0\n        /* \"#utility.yul\":1833:1852   */\n      dup14\n      add\n        /* \"#utility.yul\":1820:1853   */\n      calldataload\n      swap2\n      pop\n        /* \"#utility.yul\":1865:1881   */\n      dup1\n      dup3\n      gt\n        /* \"#utility.yul\":1862:1898   */\n      iszero\n      tag_649\n      jumpi\n        /* \"#utility.yul\":1894:1895   */\n      0x00\n        /* \"#utility.yul\":1891:1892   */\n      dup1\n        /* \"#utility.yul\":1884:1896   */\n      revert\n        /* \"#utility.yul\":1862:1898   */\n    tag_649:\n      pop\n        /* \"#utility.yul\":1933:1993   */\n      tag_650\n        /* \"#utility.yul\":1985:1992   */\n      dup14\n        /* \"#utility.yul\":1974:1982   */\n      dup3\n        /* \"#utility.yul\":1963:1972   */\n      dup15\n        /* \"#utility.yul\":1959:1983   */\n      add\n        /* \"#utility.yul\":1933:1993   */\n      tag_631\n      jump\t// in\n    tag_650:\n        /* \"#utility.yul\":1907:1993   */\n      swap2\n      pop\n        /* \"#utility.yul\":2012:2020   */\n      dup1\n        /* \"#utility.yul\":2002:2020   */\n      swap4\n      pop\n      pop\n        /* \"#utility.yul\":2039:2047   */\n      dup1\n        /* \"#utility.yul\":2029:2047   */\n      swap2\n      pop\n      pop\n        /* \"#utility.yul\":911:2053   */\n      swap3\n      swap6\n      swap9\n      swap12\n      swap2\n      swap5\n      swap8\n      swap11\n      pop\n      swap3\n      swap6\n      swap9\n      pop\n      jump\t// out\n        /* \"#utility.yul\":2448:2857   */\n    tag_44:\n        /* \"#utility.yul\":2518:2524   */\n      0x00\n        /* \"#utility.yul\":2526:2532   */\n      dup1\n        /* \"#utility.yul\":2579:2581   */\n      0x20\n        /* \"#utility.yul\":2567:2576   */\n      dup4\n        /* \"#utility.yul\":2558:2565   */\n      dup6\n        /* \"#utility.yul\":2554:2577   */\n      sub\n        /* \"#utility.yul\":2550:2582   */\n      slt\n        /* \"#utility.yul\":2547:2599   */\n      iszero\n      tag_654\n      jumpi\n        /* \"#utility.yul\":2595:2596   */\n      0x00\n        /* \"#utility.yul\":2592:2593   */\n      dup1\n        /* \"#utility.yul\":2585:2597   */\n      revert\n        /* \"#utility.yul\":2547:2599   */\n    tag_654:\n        /* \"#utility.yul\":2635:2644   */\n      dup3\n        /* \"#utility.yul\":2622:2645   */\n      calldataload\n        /* \"#utility.yul\":2668:2686   */\n      0xffffffffffffffff\n        /* \"#utility.yul\":2660:2666   */\n      dup2\n        /* \"#utility.yul\":2657:2687   */\n      gt\n        /* \"#utility.yul\":2654:2704   */\n      iszero\n      tag_655\n      jumpi\n        /* \"#utility.yul\":2700:2701   */\n      0x00\n        /* \"#utility.yul\":2697:2698   */\n      dup1\n        /* \"#utility.yul\":2690:2702   */\n      revert\n        /* \"#utility.yul\":2654:2704   */\n    tag_655:\n        /* \"#utility.yul\":2739:2797   */\n      tag_656\n        /* \"#utility.yul\":2789:2796   */\n      dup6\n        /* \"#utility.yul\":2780:2786   */\n      dup3\n        /* \"#utility.yul\":2769:2778   */\n      dup7\n        /* \"#utility.yul\":2765:2787   */\n      add\n        /* \"#utility.yul\":2739:2797   */\n      tag_631\n      jump\t// in\n    tag_656:\n        /* \"#utility.yul\":2816:2824   */\n      swap1\n      swap7\n        /* \"#utility.yul\":2713:2797   */\n      swap1\n      swap6\n      pop\n        /* \"#utility.yul\":2448:2857   */\n      swap4\n      pop\n      pop\n      pop\n      pop\n      jump\t// out\n        /* \"#utility.yul\":2862:3494   */\n    tag_47:\n        /* \"#utility.yul\":3033:3035   */\n      0x20\n        /* \"#utility.yul\":3085:3106   */\n      dup1\n      dup3\n      mstore\n        /* \"#utility.yul\":3155:3168   */\n      dup3\n      mload\n        /* \"#utility.yul\":3058:3076   */\n      dup3\n      dup3\n      add\n        /* \"#utility.yul\":3177:3199   */\n      dup2\n      swap1\n      mstore\n        /* \"#utility.yul\":3004:3008   */\n      0x00\n      swap2\n        /* \"#utility.yul\":3033:3035   */\n      swap1\n        /* \"#utility.yul\":3256:3271   */\n      dup5\n      dup3\n      add\n      swap1\n        /* \"#utility.yul\":3230:3232   */\n      0x40\n        /* \"#utility.yul\":3215:3233   */\n      dup6\n      add\n      swap1\n        /* \"#utility.yul\":3004:3008   */\n      dup5\n        /* \"#utility.yul\":3299:3468   */\n    tag_658:\n        /* \"#utility.yul\":3313:3319   */\n      dup2\n        /* \"#utility.yul\":3310:3311   */\n      dup2\n        /* \"#utility.yul\":3307:3320   */\n      lt\n        /* \"#utility.yul\":3299:3468   */\n      iszero\n      tag_660\n      jumpi\n        /* \"#utility.yul\":3374:3387   */\n      dup4\n      mload\n        /* \"#utility.yul\":3362:3388   */\n      dup4\n      mstore\n        /* \"#utility.yul\":3443:3458   */\n      swap3\n      dup5\n      add\n      swap3\n        /* \"#utility.yul\":3408:3420   */\n      swap2\n      dup5\n      add\n      swap2\n        /* \"#utility.yul\":3335:3336   */\n      0x01\n        /* \"#utility.yul\":3328:3337   */\n      add\n        /* \"#utility.yul\":3299:3468   */\n      jump(tag_658)\n    tag_660:\n      pop\n        /* \"#utility.yul\":3485:3488   */\n      swap1\n      swap7\n        /* \"#utility.yul\":2862:3494   */\n      swap6\n      pop\n      pop\n      pop\n      pop\n      pop\n      pop\n      jump\t// out\n        /* \"#utility.yul\":3499:4188   */\n    tag_50:\n        /* \"#utility.yul\":3605:3611   */\n      0x00\n        /* \"#utility.yul\":3613:3619   */\n      dup1\n        /* \"#utility.yul\":3621:3627   */\n      0x00\n        /* \"#utility.yul\":3629:3635   */\n      dup1\n        /* \"#utility.yul\":3637:3643   */\n      0x00\n        /* \"#utility.yul\":3645:3651   */\n      dup1\n        /* \"#utility.yul\":3698:3701   */\n      0xa0\n        /* \"#utility.yul\":3686:3695   */\n      dup8\n        /* \"#utility.yul\":3677:3684   */\n      dup10\n        /* \"#utility.yul\":3673:3696   */\n      sub\n        /* \"#utility.yul\":3669:3702   */\n      slt\n        /* \"#utility.yul\":3666:3719   */\n      iszero\n      tag_662\n      jumpi\n        /* \"#utility.yul\":3715:3716   */\n      0x00\n        /* \"#utility.yul\":3712:3713   */\n      dup1\n        /* \"#utility.yul\":3705:3717   */\n      revert\n        /* \"#utility.yul\":3666:3719   */\n    tag_662:\n        /* \"#utility.yul\":3738:3767   */\n      tag_663\n        /* \"#utility.yul\":3757:3766   */\n      dup8\n        /* \"#utility.yul\":3738:3767   */\n      tag_630\n      jump\t// in\n    tag_663:\n        /* \"#utility.yul\":3728:3767   */\n      swap6\n      pop\n        /* \"#utility.yul\":3814:3816   */\n      0x20\n        /* \"#utility.yul\":3803:3812   */\n      dup8\n        /* \"#utility.yul\":3799:3817   */\n      add\n        /* \"#utility.yul\":3786:3818   */\n      calldataload\n        /* \"#utility.yul\":3776:3818   */\n      swap5\n      pop\n        /* \"#utility.yul\":3865:3867   */\n      0x40\n        /* \"#utility.yul\":3854:3863   */\n      dup8\n        /* \"#utility.yul\":3850:3868   */\n      add\n        /* \"#utility.yul\":3837:3869   */\n      calldataload\n        /* \"#utility.yul\":3827:3869   */\n      swap4\n      pop\n        /* \"#utility.yul\":3916:3918   */\n      0x60\n        /* \"#utility.yul\":3905:3914   */\n      dup8\n        /* \"#utility.yul\":3901:3919   */\n      add\n        /* \"#utility.yul\":3888:3920   */\n      calldataload\n        /* \"#utility.yul\":3878:3920   */\n      swap3\n      pop\n        /* \"#utility.yul\":3971:3974   */\n      0x80\n        /* \"#utility.yul\":3960:3969   */\n      dup8\n        /* \"#utility.yul\":3956:3975   */\n      add\n        /* \"#utility.yul\":3943:3976   */\n      calldataload\n        /* \"#utility.yul\":3999:4017   */\n      0xffffffffffffffff\n        /* \"#utility.yul\":3991:3997   */\n      dup2\n        /* \"#utility.yul\":3988:4018   */\n      gt\n        /* \"#utility.yul\":3985:4035   */\n      iszero\n      tag_664\n      jumpi\n        /* \"#utility.yul\":4031:4032   */\n      0x00\n        /* \"#utility.yul\":4028:4029   */\n      dup1\n        /* \"#utility.yul\":4021:4033   */\n      revert\n        /* \"#utility.yul\":3985:4035   */\n    tag_664:\n        /* \"#utility.yul\":4070:4128   */\n      tag_665\n        /* \"#utility.yul\":4120:4127   */\n      dup10\n        /* \"#utility.yul\":4111:4117   */\n      dup3\n        /* \"#utility.yul\":4100:4109   */\n      dup11\n        /* \"#utility.yul\":4096:4118   */\n      add\n        /* \"#utility.yul\":4070:4128   */\n      tag_631\n      jump\t// in\n    tag_665:\n        /* \"#utility.yul\":3499:4188   */\n      swap8\n      swap11\n      swap7\n      swap10\n      pop\n      swap5\n      swap8\n      pop\n      swap3\n      swap6\n        /* \"#utility.yul\":4147:4155   */\n      swap4\n      swap5\n        /* \"#utility.yul\":3499:4188   */\n      swap3\n      pop\n      pop\n      pop\n      jump\t// out\n        /* \"#utility.yul\":4193:4441   */\n    tag_56:\n        /* \"#utility.yul\":4261:4267   */\n      0x00\n        /* \"#utility.yul\":4269:4275   */\n      dup1\n        /* \"#utility.yul\":4322:4324   */\n      0x40\n        /* \"#utility.yul\":4310:4319   */\n      dup4\n        /* \"#utility.yul\":4301:4308   */\n      dup6\n        /* \"#utility.yul\":4297:4320   */\n      sub\n        /* \"#utility.yul\":4293:4325   */\n      slt\n        /* \"#utility.yul\":4290:4342   */\n      iszero\n      tag_667\n      jumpi\n        /* \"#utility.yul\":4338:4339   */\n      0x00\n        /* \"#utility.yul\":4335:4336   */\n      dup1\n        /* \"#utility.yul\":4328:4340   */\n      revert\n        /* \"#utility.yul\":4290:4342   */\n    tag_667:\n      pop\n      pop\n        /* \"#utility.yul\":4361:4384   */\n      dup1\n      calldataload\n      swap3\n        /* \"#utility.yul\":4431:4433   */\n      0x20\n        /* \"#utility.yul\":4416:4434   */\n      swap1\n      swap2\n      add\n        /* \"#utility.yul\":4403:4435   */\n      calldataload\n      swap2\n      pop\n        /* \"#utility.yul\":4193:4441   */\n      jump\t// out\n        /* \"#utility.yul\":4446:5163   */\n    tag_61:\n        /* \"#utility.yul\":4536:4542   */\n      0x00\n        /* \"#utility.yul\":4544:4550   */\n      dup1\n        /* \"#utility.yul\":4552:4558   */\n      0x00\n        /* \"#utility.yul\":4560:4566   */\n      dup1\n        /* \"#utility.yul\":4613:4615   */\n      0x40\n        /* \"#utility.yul\":4601:4610   */\n      dup6\n        /* \"#utility.yul\":4592:4599   */\n      dup8\n        /* \"#utility.yul\":4588:4611   */\n      sub\n        /* \"#utility.yul\":4584:4616   */\n      slt\n        /* \"#utility.yul\":4581:4633   */\n      iszero\n      tag_669\n      jumpi\n        /* \"#utility.yul\":4629:4630   */\n      0x00\n        /* \"#utility.yul\":4626:4627   */\n      dup1\n        /* \"#utility.yul\":4619:4631   */\n      revert\n        /* \"#utility.yul\":4581:4633   */\n    tag_669:\n        /* \"#utility.yul\":4669:4678   */\n      dup5\n        /* \"#utility.yul\":4656:4679   */\n      calldataload\n        /* \"#utility.yul\":4698:4716   */\n      0xffffffffffffffff\n        /* \"#utility.yul\":4739:4741   */\n      dup1\n        /* \"#utility.yul\":4731:4737   */\n      dup3\n        /* \"#utility.yul\":4728:4742   */\n      gt\n        /* \"#utility.yul\":4725:4759   */\n      iszero\n      tag_670\n      jumpi\n        /* \"#utility.yul\":4755:4756   */\n      0x00\n        /* \"#utility.yul\":4752:4753   */\n      dup1\n        /* \"#utility.yul\":4745:4757   */\n      revert\n        /* \"#utility.yul\":4725:4759   */\n    tag_670:\n        /* \"#utility.yul\":4794:4852   */\n      tag_671\n        /* \"#utility.yul\":4844:4851   */\n      dup9\n        /* \"#utility.yul\":4835:4841   */\n      dup4\n        /* \"#utility.yul\":4824:4833   */\n      dup10\n        /* \"#utility.yul\":4820:4842   */\n      add\n        /* \"#utility.yul\":4794:4852   */\n      tag_631\n      jump\t// in\n    tag_671:\n        /* \"#utility.yul\":4871:4879   */\n      swap1\n      swap7\n      pop\n        /* \"#utility.yul\":4768:4852   */\n      swap5\n      pop\n        /* \"#utility.yul\":4959:4961   */\n      0x20\n        /* \"#utility.yul\":4944:4962   */\n      dup8\n      add\n        /* \"#utility.yul\":4931:4963   */\n      calldataload\n      swap2\n      pop\n        /* \"#utility.yul\":4975:4991   */\n      dup1\n      dup3\n      gt\n        /* \"#utility.yul\":4972:5008   */\n      iszero\n      tag_672\n      jumpi\n        /* \"#utility.yul\":5004:5005   */\n      0x00\n        /* \"#utility.yul\":5001:5002   */\n      dup1\n        /* \"#utility.yul\":4994:5006   */\n      revert\n        /* \"#utility.yul\":4972:5008   */\n    tag_672:\n      pop\n        /* \"#utility.yul\":5043:5103   */\n      tag_673\n        /* \"#utility.yul\":5095:5102   */\n      dup8\n        /* \"#utility.yul\":5084:5092   */\n      dup3\n        /* \"#utility.yul\":5073:5082   */\n      dup9\n        /* \"#utility.yul\":5069:5093   */\n      add\n        /* \"#utility.yul\":5043:5103   */\n      tag_631\n      jump\t// in\n    tag_673:\n        /* \"#utility.yul\":4446:5163   */\n      swap6\n      swap9\n      swap5\n      swap8\n      pop\n        /* \"#utility.yul\":5122:5130   */\n      swap6\n      pop\n      pop\n      pop\n      pop\n        /* \"#utility.yul\":4446:5163   */\n      jump\t// out\n        /* \"#utility.yul\":5168:6065   */\n    tag_82:\n        /* \"#utility.yul\":5456:5460   */\n      0x00\n        /* \"#utility.yul\":5502:5503   */\n      0x01\n        /* \"#utility.yul\":5498:5499   */\n      dup1\n        /* \"#utility.yul\":5493:5496   */\n      0xa0\n        /* \"#utility.yul\":5489:5500   */\n      shl\n        /* \"#utility.yul\":5485:5504   */\n      sub\n        /* \"#utility.yul\":5543:5545   */\n      dup1\n        /* \"#utility.yul\":5535:5541   */\n      dup12\n        /* \"#utility.yul\":5531:5546   */\n      and\n        /* \"#utility.yul\":5520:5529   */\n      dup4\n        /* \"#utility.yul\":5513:5547   */\n      mstore\n        /* \"#utility.yul\":5595:5597   */\n      dup1\n        /* \"#utility.yul\":5587:5593   */\n      dup11\n        /* \"#utility.yul\":5583:5598   */\n      and\n        /* \"#utility.yul\":5578:5580   */\n      0x20\n        /* \"#utility.yul\":5567:5576   */\n      dup5\n        /* \"#utility.yul\":5563:5581   */\n      add\n        /* \"#utility.yul\":5556:5599   */\n      mstore\n      pop\n        /* \"#utility.yul\":5635:5641   */\n      dup8\n        /* \"#utility.yul\":5630:5632   */\n      0x40\n        /* \"#utility.yul\":5619:5628   */\n      dup4\n        /* \"#utility.yul\":5615:5633   */\n      add\n        /* \"#utility.yul\":5608:5642   */\n      mstore\n        /* \"#utility.yul\":5678:5684   */\n      dup7\n        /* \"#utility.yul\":5673:5675   */\n      0x60\n        /* \"#utility.yul\":5662:5671   */\n      dup4\n        /* \"#utility.yul\":5658:5676   */\n      add\n        /* \"#utility.yul\":5651:5685   */\n      mstore\n        /* \"#utility.yul\":5722:5728   */\n      dup6\n        /* \"#utility.yul\":5716:5719   */\n      0x80\n        /* \"#utility.yul\":5705:5714   */\n      dup4\n        /* \"#utility.yul\":5701:5720   */\n      add\n        /* \"#utility.yul\":5694:5729   */\n      mstore\n        /* \"#utility.yul\":5766:5772   */\n      dup5\n        /* \"#utility.yul\":5760:5763   */\n      0xa0\n        /* \"#utility.yul\":5749:5758   */\n      dup4\n        /* \"#utility.yul\":5745:5764   */\n      add\n        /* \"#utility.yul\":5738:5773   */\n      mstore\n        /* \"#utility.yul\":5810:5813   */\n      0xe0\n        /* \"#utility.yul\":5804:5807   */\n      0xc0\n        /* \"#utility.yul\":5793:5802   */\n      dup4\n        /* \"#utility.yul\":5789:5808   */\n      add\n        /* \"#utility.yul\":5782:5814   */\n      mstore\n        /* \"#utility.yul\":5851:5857   */\n      dup3\n        /* \"#utility.yul\":5845:5848   */\n      0xe0\n        /* \"#utility.yul\":5834:5843   */\n      dup4\n        /* \"#utility.yul\":5830:5849   */\n      add\n        /* \"#utility.yul\":5823:5858   */\n      mstore\n        /* \"#utility.yul\":5877:5880   */\n      0x0100\n        /* \"#utility.yul\":5930:5936   */\n      dup4\n        /* \"#utility.yul\":5922:5928   */\n      dup6\n        /* \"#utility.yul\":5917:5919   */\n      dup3\n        /* \"#utility.yul\":5906:5915   */\n      dup6\n        /* \"#utility.yul\":5902:5920   */\n      add\n        /* \"#utility.yul\":5889:5937   */\n      calldatacopy\n        /* \"#utility.yul\":5986:5987   */\n      0x00\n        /* \"#utility.yul\":5957:5979   */\n      dup4\n      dup6\n      add\n        /* \"#utility.yul\":5953:5984   */\n      dup3\n      add\n        /* \"#utility.yul\":5946:5988   */\n      mstore\n        /* \"#utility.yul\":6049:6051   */\n      0x1f\n        /* \"#utility.yul\":6028:6043   */\n      swap1\n      swap4\n      add\n      not(0x1f)\n        /* \"#utility.yul\":6024:6053   */\n      and\n        /* \"#utility.yul\":6009:6054   */\n      swap1\n      swap2\n      add\n        /* \"#utility.yul\":6005:6059   */\n      swap1\n      swap2\n      add\n      swap9\n        /* \"#utility.yul\":5168:6065   */\n      swap8\n      pop\n      pop\n      pop\n      pop\n      pop\n      pop\n      pop\n      pop\n      jump\t// out\n        /* \"#utility.yul\":9403:9530   */\n    tag_632:\n        /* \"#utility.yul\":9464:9474   */\n      0x4e487b71\n        /* \"#utility.yul\":9459:9462   */\n      0xe0\n        /* \"#utility.yul\":9455:9475   */\n      shl\n        /* \"#utility.yul\":9452:9453   */\n      0x00\n        /* \"#utility.yul\":9445:9476   */\n      mstore\n        /* \"#utility.yul\":9495:9499   */\n      0x11\n        /* \"#utility.yul\":9492:9493   */\n      0x04\n        /* \"#utility.yul\":9485:9500   */\n      mstore\n        /* \"#utility.yul\":9519:9523   */\n      0x24\n        /* \"#utility.yul\":9516:9517   */\n      0x00\n        /* \"#utility.yul\":9509:9524   */\n      revert\n        /* \"#utility.yul\":9535:9660   */\n    tag_275:\n        /* \"#utility.yul\":9600:9609   */\n      dup1\n      dup3\n      add\n        /* \"#utility.yul\":9621:9631   */\n      dup1\n      dup3\n      gt\n        /* \"#utility.yul\":9618:9654   */\n      iszero\n      tag_180\n      jumpi\n        /* \"#utility.yul\":9634:9652   */\n      tag_180\n      tag_632\n      jump\t// in\n        /* \"#utility.yul\":10008:10136   */\n    tag_497:\n        /* \"#utility.yul\":10075:10084   */\n      dup2\n      dup2\n      sub\n        /* \"#utility.yul\":10096:10107   */\n      dup2\n      dup2\n      gt\n        /* \"#utility.yul\":10093:10130   */\n      iszero\n      tag_180\n      jumpi\n        /* \"#utility.yul\":10110:10128   */\n      tag_180\n      tag_632\n      jump\t// in\n    stop\n    data_848f50338cc074da8d5d8c20099d6f9a52cdd4e857863a722476f697bca98a91 30644e72e131a029b85045b68181585d2833e84879b9709143e1f593f0000001\n\n    auxdata: 0xa264697066735822122025fd2738544a5ba4850628145c0f13c7c242d88a9fc0b209e2db1e37703ea02f64736f6c63430008120033\n}\n",
				"bytecode": {
					"linkReferences": {},
					"object": "608060405234801561001057600080fd5b50611dc8806100206000396000f3fe6080604052600436106100a75760003560e01c80635d4d3bcd116100645780635d4d3bcd146101a5578063601333d1146101b85780636e94aac5146101e55780638dfbfead1461020557806394907e7e14610225578063d51073811461024557600080fd5b80631cdcf85a146100ac5780631d7161a2146100c35780632822697b14610103578063312faf74146101235780633b1623fe14610150578063594a90ba14610178575b600080fd5b3480156100b857600080fd5b506100c1610265565b005b3480156100cf57600080fd5b506100f06100de366004611a17565b60026020526000908152604090205481565b6040519081526020015b60405180910390f35b34801561010f57600080fd5b506100c161011e366004611a8e565b61029f565b34801561012f57600080fd5b506100f061013e366004611a17565b60009081526003602052604090205490565b34801561015c57600080fd5b506000546040516001600160a01b0390911681526020016100fa565b34801561018457600080fd5b50610198610193366004611b49565b6103a7565b6040516100fa9190611b8b565b6100f06101b3366004611bcf565b610400565b3480156101c457600080fd5b506100c16101d3366004611c40565b60009182526002602052604090912055565b3480156101f157600080fd5b506100c1610200366004611c62565b61041b565b34801561021157600080fd5b506100c1610220366004611a8e565b610594565b34801561023157600080fd5b506100c1610240366004611b49565b610690565b34801561025157600080fd5b506100c1610260366004611b49565b6107f0565b6004805b368110156100c157803560e01c60008184840182379181018301918080838180305af1610298573d81823e3d81fd5b5050610269565b60008a8a8a8a8a8a8a8a6040516020016102c0989796959493929190611cce565b6040516020818303038152906040528051906020012090506000806103006102f9846331df76a460009081526020919091526040902090565b86866108aa565b909250905080156103405760405162461bcd60e51b8152602060048201526005602482015264111355905360da1b60448201526064015b60405180910390fd5b6000828152600360205260409020548981116103875760405162461bcd60e51b815260040161033790602080825260049082015263444d545360e01b604082015260600190565b6103978e8e8e8e8e8e8e8e610d03565b5050505050505050505050505050565b60606000806103b68585610e1e565b5060008581526002602052604081205495975090955061cf55935091508190506103df85610f15565b915091506103f3828285878d8d6001610f7f565b9998505050505050505050565b6000610410878787878787611592565b979650505050505050565b6000806104288686610e1e565b9550505050925050600080610441620200008787611676565b60008681526002602052604081205492945090925081900361048d5760405162461bcd60e51b8152602060048201526005602482015264424c4f434b60d81b6044820152606401610337565b8083146104c55760405162461bcd60e51b815260206004820152600660248201526512509493d3d560d21b6044820152606401610337565b60008290036105015760405162461bcd60e51b8152602060048201526008602482015267125094d51493d3d560c21b6044820152606401610337565b8360000361053a5760405162461bcd60e51b8152600401610337906020808252600490820152634942545360e01b604082015260600190565b6000828152600360205260409081902085905551819086907f9d70f54d5d379e4b92c497936411380303c56bfb08caed66b62c94380ad153db906105819088815260200190565b60405180910390a3505050505050505050565b60008a8a8a8a8a8a8a8a6040516020016105b5989796959493929190611cce565b6040516020818303038152906040528051906020012090506000806105ee6102f9846331df76a460009081526020919091526040902090565b600082815260036020526040812054929450909250036106395760405162461bcd60e51b815260206004820152600660248201526511135493d3d560d21b6044820152606401610337565b600181146106715760405162461bcd60e51b8152602060048201526005602482015264111355905360da1b6044820152606401610337565b6106818d8d8d8d8d8d8d8d61183b565b50505050505050505050505050565b6101ff81116106cd5760405162461bcd60e51b8152602060048201526009602482015268282927a7a32fa622a760b91b6044820152606401610337565b8135600081815260016020526040902054610719565b6308c379a060e01b60005260206004528060445260005b811561070f5760089190911b906001016106fa565b8060245260646000fd5b60a06040518160608701823720818114610748576107486e0c6dedadad2e8dacadce840d0c2e6d608b1b6106e3565b50602084018035803b80610772576107726f7665726966696572206d697373696e6760801b6106e3565b5060608503604083019250604051818482376000808383865afa935050505080600081036107b5576107b56e1d995c9a599a595c8819985a5b1959608a1b6106e3565b50506040518281527f13a323bd8c6a1bee4a59d9f8a556a6b14ed08c656b9c36c57903c70865648cca9060200160405180910390a150505050565b6107f8611930565b6040517fcdf35dca8304861a13f78fcd9aa4cbe5bd689d13c643b4c875cccbfae3cbf67c90600090a16000806000806108318686610e1e565b5060008581526002602052604081205495995093975091955090935061cf559190508061085d85610f15565b915091506000610873838386888f8f6001610f7f565b80516020908102918101919091206000998a52600182526040808b2091909155600290915290972095909555505050505050505050565b600080610cce565b80608081106108d157602083116108d15760ff60071960088502011b19165b92915050565b600080823560001a60f88110156108f95760be19019360019390930192915050565b60f78103600481111561090857fe5b60018581013560088302610100031c8201810196919095019094019392505050565b6000806000833560001a608081101561094e576001935084925060019150506109c5565b60b881101561096a57607f1901925050506001828101906109c5565b60c08110156109a35760b78103600481111561098257fe5b60018681013560088302610100031c95509086018101935091506109c59050565b60f88110156109b857600185019250506109c5565b60f6190192506001840191505b9193909250565b60405181906000806109dd846108d7565b8186863781852090959092500184845b82871015610a22576109fe8761092a565b935080820198508315610a1b57608082901b811783526020909201915b50506109ed565b828714610a2b57fe5b60208682030494505050509193509193565b6000196004830290811c82169060206001851615610a59575060035b610100919091031b1792915050565b60008260200282015162ffffff81168160801c9150601f821115610a935701601f19013590506108d1565b356020919091036008021c905092915050565b6000808360200283015162ffffff81168160801c9250601f831115610ad5578201601f1901359250610ae39050565b3560208390036008021c9250505b9250929050565b6001820160008080808635811a81805b82811015610bcc576000806000610b108b6109cc565b9350935093509a508360008114610b3957610b34640a89082a6960db1b8b84610cb7565b610b3d565b819a505b50508060028114610b655760118114610b9e57610b60634e4f444560e01b6106e3565b610bc1565b600080610b73600186610aa6565b509a505050600019860184148015610b8d57839750610b98565b835160801c95909501945b50610bc1565b6004850260fc038c901c600f16610bb58185610aa6565b50995050600194909401935b505050600101610afa565b50610bd78189610a3d565b935050509295509295909350565b9550955091509450610c046620a1a622a0a32760c91b60048614610ca3565b610c0f600282610a68565b955050505050509250925092565b806000808080808080610c368a60009081526020902090565b610c408982610aea565b95509750955098509850508060008114610c9657610c5f600083610a68565b9550610c6c600183610aa6565b9350965085851493508360008114610c8f57610c8884896108b2565b9750610c94565b600097505b505b5050505050509250925092565b8080610cb257610cb2836106e3565b505050565b80821480610cc857610cc8846106e3565b50505050565b83610cd98682610c1d565b9350935090508385018114610cfa57610cfa65424f554e445360d01b6106e3565b50935093915050565b834211610d385760405162461bcd60e51b815260206004820152600360248201526211135160ea1b6044820152606401610337565b60008888888888888888604051602001610d59989796959493929190611cce565b60408051808303601f1901815291815281516020928301206331df76a46000908152928190529120805491925090600003610dbc5760405162461bcd60e51b81526020600482015260036024820152620889a960eb1b6044820152606401610337565b600081556000610dcc888a611d4c565b90508015610dde57610dde8b82611967565b6040518381527f6629230ca69c43f97674dd064896b819957583c8d20a870e4fb28b05c5d29f299060200160405180910390a15050505050505050505050565b600080600080600080610e82565b6040518190600080610e3d846108d7565b8186863781852090959092500184845b82871015610a2257610e5e8761092a565b935080820198508315610e7b57608082901b811783526020909201915b5050610e4d565b610e8b88610e2c565b610ea66a424c4f434b5f4954454d5360a81b600f8414610ca3565b8a8c019150610ec465424f554e445360d01b83861484871017610ca3565b9750610ed39050600082610a68565b9750610ee0600382610a68565b9550610eed600882610a68565b9450610efa600a82610a68565b9350610f07600b82610a68565b925050509295509295509295565b60008061f6188311610f2e575060039261290492509050565b620493e08311610f465750600e926201107692509050565b60405162461bcd60e51b815260206004820152600e60248201526d434952435549545f434f4e46494760901b6044820152606401610337565b6060611069565b6040518190600080610f97846108d7565b8186863781852090959092500184845b82871015610a2257610fb88761092a565b935080820198508315610fd557608082901b811783526020909201915b5050610fa7565b6000805b61010081101561101957600080516020611d738339815191526101008181850993505060ff84831c168181850893505050600801610fe0565b50919050565b6000600160005b61010081101561106257600080516020611d738339815191528083850993506001600160f81b0319821c85168181860894505050600801611026565b5050919050565b50604080516060819052600560a08201526101608082016020818152600082905261010a600a8d02600101600381028d01820192830280870190950190965260c0909401949290919086156110bd57803687375b50606051915060a03683376020600384029490940184020160408201529102606090910152838381016110ef82610f86565b5061110b6a424c4f434b5f4954454d5360a81b600f8314610ca3565b506000805160208101825252611133611125600283610a68565b600080516020810190915252565b611141611125600983610a68565b61114f611125600883610a68565b61115d611125600b83610a68565b61117361112561116e600784610a68565b61101f565b60008051602081018252526111908a600080516020810190915252565b89604086015261200082015b808310156111bc576111b16111258435610fdc565b60208301925061119c565b506111d06111cb600383610a68565b610fdc565b6111e281600080516020810190915252565b6060860152506111f188610fdc565b61120381600080516020810190915252565b60808501529150611221634441544160e01b82841483851017610ca3565b606080518490528051600080516020810182528181529190920151908101015260005b818310156114815760010161125883610f86565b6112706754585f4954454d5360c01b60098414610ca3565b606084019650923592611284600684610a68565b915061129f69151617d0d2105253925160b21b8e8414610ca3565b6112aa600084610a68565b915060016112d66112ba8461101f565b6060805160008051602081019091528a81529101519081010152565b506112e2600284610a68565b915060026112f26112ba8461101f565b506112fe600184610a68565b9150600361130e6112ba8461101f565b50606080516000805160208101909152878152910151908101018490526004915061133a600384610aa6565b6060805160008051602080820183528b825292840151908101019490945281518451918201909452888152920151901591810101819052935060069150611382600484610a68565b9350600791506113b06113948561101f565b6060805160008051602081019091528981529101519081010152565b60a083015162ffffff81169060801c60608051608001805183019052805160008051602081019091528981529101519081010181905294509250600891506000915060005b84811015611428578084013560001a61141a8160605160400180516020810190915252565b1592909201916001016113f5565b506060805160008051602081019091528781529101516004840284870360100201918101018190525070014551231950b75fc4402da1732fc9bebe1981069350600a92506114786113948561101f565b50505050611244565b611494634441544160e01b838514610ca3565b606051608001516114b6674d41585f4441544160c01b8c83148d841017610ca3565b505b8a8110156114f9576001908101905b600b8110156114f3576060805160008051602081018252858152919092015190810101526001016114c7565b506114b8565b61150f664d41585f54585360c81b8c8314610ca3565b50505060205160405103600080516020611d7383398151915281602051200680600084015260006020518381015b8181111561156d57601f19018051600080516020611d73833981519152808686099450808286089450505061153d565b50506020848101919091526000606052516040525050601f1901979650505050505050565b60008061159f8734611d5f565b905033888289898989896040516020016115c0989796959493929190611cce565b60408051808303601f1901815291815281516020928301206331df76a46000908152928190529120805491935090156116215760405162461bcd60e51b81526020600482015260036024820152620889a960eb1b6044820152606401610337565b600181557f4d083d19fcc619dfa227d3294a08c9309c2c6f22e389d1fc386105b342058a43338a848b8b8b8b8b604051611662989796959493929190611cce565b60405180910390a150509695505050505050565b600080611830565b604051819060008061168f846108d7565b8186863781852090959092500184845b82871015610a22576116b08761092a565b9350808201985083156116cd57608082901b811783526020909201915b505061169f565b6001820160008080808635811a81805b82811015610bcc5760008060006116fa8b61167e565b9350935093509a5083600081146117235761171e640a89082a6960db1b8b84610cb7565b611727565b819a505b5050806002811461174f57601181146117885761174a634e4f444560e01b6106e3565b6117ab565b60008061175d600186610aa6565b509a50505060001986018414801561177757839750611782565b835160801c95909501945b506117ab565b6004850260fc038c901c600f1661179f8185610aa6565b50995050600194909401935b5050506001016116e4565b8060008080808080806117ce8a6000526014600c2090565b6117d889826116d4565b95509750945098509850506117f66520a1a622a0a360d11b82610ca3565b611801600082610a68565b9450611817651050d493d3d560d21b8686610cb7565b602081015162ffffff16945060009350610be58561167e565b83610cd986826117b6565b8342106118705760405162461bcd60e51b815260206004820152600360248201526211135160ea1b6044820152606401610337565b60008888888888888888604051602001611891989796959493929190611cce565b604051602081830303815290604052805190602001209050856000146118bb576118bb3287611967565b600080546001600160a01b0319166001600160a01b038b161790556118e2888885856119f3565b600080546001600160a01b03191690556040518181527ffa39010b12e169f2d7e9a76e381216416dbf5eb59db117ae979592ee9f3238859060200160405180910390a1505050505050505050565b3233146119655760405162461bcd60e51b8152602060048201526003602482015262454f4160e81b6044820152606401610337565b565b6000826001600160a01b03168260405160006040518083038185875af1925050503d80600081146119b4576040519150601f19603f3d011682016040523d82523d6000602084013e6119b9565b606091505b5050905080610cb25760405162461bcd60e51b8152600401610337906020808252600490820152630a88aa8960e31b604082015260600190565b608081838237600080838387895af1611a10573d6000803e3d6000fd5b5050505050565b600060208284031215611a2957600080fd5b5035919050565b80356001600160a01b0381168114611a4757600080fd5b919050565b60008083601f840112611a5e57600080fd5b50813567ffffffffffffffff811115611a7657600080fd5b602083019150836020828501011115610ae357600080fd5b6000806000806000806000806000806101008b8d031215611aae57600080fd5b611ab78b611a30565b9950611ac560208c01611a30565b985060408b0135975060608b0135965060808b0135955060a08b0135945060c08b013567ffffffffffffffff80821115611afe57600080fd5b611b0a8e838f01611a4c565b909650945060e08d0135915080821115611b2357600080fd5b50611b308d828e01611a4c565b915080935050809150509295989b9194979a5092959850565b60008060208385031215611b5c57600080fd5b823567ffffffffffffffff811115611b7357600080fd5b611b7f85828601611a4c565b90969095509350505050565b6020808252825182820181905260009190848201906040850190845b81811015611bc357835183529284019291840191600101611ba7565b50909695505050505050565b60008060008060008060a08789031215611be857600080fd5b611bf187611a30565b9550602087013594506040870135935060608701359250608087013567ffffffffffffffff811115611c2257600080fd5b611c2e89828a01611a4c565b979a9699509497509295939492505050565b60008060408385031215611c5357600080fd5b50508035926020909101359150565b60008060008060408587031215611c7857600080fd5b843567ffffffffffffffff80821115611c9057600080fd5b611c9c88838901611a4c565b90965094506020870135915080821115611cb557600080fd5b50611cc287828801611a4c565b95989497509550505050565b600060018060a01b03808b168352808a166020840152508760408301528660608301528560808301528460a083015260e060c08301528260e08301526101008385828501376000838501820152601f909301601f191690910190910198975050505050505050565b634e487b7160e01b600052601160045260246000fd5b808201808211156108d1576108d1611d36565b818103818111156108d1576108d1611d3656fe30644e72e131a029b85045b68181585d2833e84879b9709143e1f593f0000001a264697066735822122025fd2738544a5ba4850628145c0f13c7c242d88a9fc0b209e2db1e37703ea02f64736f6c63430008120033",
					"opcodes": "PUSH1 0x80 PUSH1 0x40 MSTORE CALLVALUE DUP1 ISZERO PUSH2 0x10 JUMPI PUSH1 0x0 DUP1 REVERT JUMPDEST POP PUSH2 0x1DC8 DUP1 PUSH2 0x20 PUSH1 0x0 CODECOPY PUSH1 0x0 RETURN INVALID PUSH1 0x80 PUSH1 0x40 MSTORE PUSH1 0x4 CALLDATASIZE LT PUSH2 0xA7 JUMPI PUSH1 0x0 CALLDATALOAD PUSH1 0xE0 SHR DUP1 PUSH4 0x5D4D3BCD GT PUSH2 0x64 JUMPI DUP1 PUSH4 0x5D4D3BCD EQ PUSH2 0x1A5 JUMPI DUP1 PUSH4 0x601333D1 EQ PUSH2 0x1B8 JUMPI DUP1 PUSH4 0x6E94AAC5 EQ PUSH2 0x1E5 JUMPI DUP1 PUSH4 0x8DFBFEAD EQ PUSH2 0x205 JUMPI DUP1 PUSH4 0x94907E7E EQ PUSH2 0x225 JUMPI DUP1 PUSH4 0xD5107381 EQ PUSH2 0x245 JUMPI PUSH1 0x0 DUP1 REVERT JUMPDEST DUP1 PUSH4 0x1CDCF85A EQ PUSH2 0xAC JUMPI DUP1 PUSH4 0x1D7161A2 EQ PUSH2 0xC3 JUMPI DUP1 PUSH4 0x2822697B EQ PUSH2 0x103 JUMPI DUP1 PUSH4 0x312FAF74 EQ PUSH2 0x123 JUMPI DUP1 PUSH4 0x3B1623FE EQ PUSH2 0x150 JUMPI DUP1 PUSH4 0x594A90BA EQ PUSH2 0x178 JUMPI JUMPDEST PUSH1 0x0 DUP1 REVERT JUMPDEST CALLVALUE DUP1 ISZERO PUSH2 0xB8 JUMPI PUSH1 0x0 DUP1 REVERT JUMPDEST POP PUSH2 0xC1 PUSH2 0x265 JUMP JUMPDEST STOP JUMPDEST CALLVALUE DUP1 ISZERO PUSH2 0xCF JUMPI PUSH1 0x0 DUP1 REVERT JUMPDEST POP PUSH2 0xF0 PUSH2 0xDE CALLDATASIZE PUSH1 0x4 PUSH2 0x1A17 JUMP JUMPDEST PUSH1 0x2 PUSH1 0x20 MSTORE PUSH1 0x0 SWAP1 DUP2 MSTORE PUSH1 0x40 SWAP1 KECCAK256 SLOAD DUP2 JUMP JUMPDEST PUSH1 0x40 MLOAD SWAP1 DUP2 MSTORE PUSH1 0x20 ADD JUMPDEST PUSH1 0x40 MLOAD DUP1 SWAP2 SUB SWAP1 RETURN JUMPDEST CALLVALUE DUP1 ISZERO PUSH2 0x10F JUMPI PUSH1 0x0 DUP1 REVERT JUMPDEST POP PUSH2 0xC1 PUSH2 0x11E CALLDATASIZE PUSH1 0x4 PUSH2 0x1A8E JUMP JUMPDEST PUSH2 0x29F JUMP JUMPDEST CALLVALUE DUP1 ISZERO PUSH2 0x12F JUMPI PUSH1 0x0 DUP1 REVERT JUMPDEST POP PUSH2 0xF0 PUSH2 0x13E CALLDATASIZE PUSH1 0x4 PUSH2 0x1A17 JUMP JUMPDEST PUSH1 0x0 SWAP1 DUP2 MSTORE PUSH1 0x3 PUSH1 0x20 MSTORE PUSH1 0x40 SWAP1 KECCAK256 SLOAD SWAP1 JUMP JUMPDEST CALLVALUE DUP1 ISZERO PUSH2 0x15C JUMPI PUSH1 0x0 DUP1 REVERT JUMPDEST POP PUSH1 0x0 SLOAD PUSH1 0x40 MLOAD PUSH1 0x1 PUSH1 0x1 PUSH1 0xA0 SHL SUB SWAP1 SWAP2 AND DUP2 MSTORE PUSH1 0x20 ADD PUSH2 0xFA JUMP JUMPDEST CALLVALUE DUP1 ISZERO PUSH2 0x184 JUMPI PUSH1 0x0 DUP1 REVERT JUMPDEST POP PUSH2 0x198 PUSH2 0x193 CALLDATASIZE PUSH1 0x4 PUSH2 0x1B49 JUMP JUMPDEST PUSH2 0x3A7 JUMP JUMPDEST PUSH1 0x40 MLOAD PUSH2 0xFA SWAP2 SWAP1 PUSH2 0x1B8B JUMP JUMPDEST PUSH2 0xF0 PUSH2 0x1B3 CALLDATASIZE PUSH1 0x4 PUSH2 0x1BCF JUMP JUMPDEST PUSH2 0x400 JUMP JUMPDEST CALLVALUE DUP1 ISZERO PUSH2 0x1C4 JUMPI PUSH1 0x0 DUP1 REVERT JUMPDEST POP PUSH2 0xC1 PUSH2 0x1D3 CALLDATASIZE PUSH1 0x4 PUSH2 0x1C40 JUMP JUMPDEST PUSH1 0x0 SWAP2 DUP3 MSTORE PUSH1 0x2 PUSH1 0x20 MSTORE PUSH1 0x40 SWAP1 SWAP2 KECCAK256 SSTORE JUMP JUMPDEST CALLVALUE DUP1 ISZERO PUSH2 0x1F1 JUMPI PUSH1 0x0 DUP1 REVERT JUMPDEST POP PUSH2 0xC1 PUSH2 0x200 CALLDATASIZE PUSH1 0x4 PUSH2 0x1C62 JUMP JUMPDEST PUSH2 0x41B JUMP JUMPDEST CALLVALUE DUP1 ISZERO PUSH2 0x211 JUMPI PUSH1 0x0 DUP1 REVERT JUMPDEST POP PUSH2 0xC1 PUSH2 0x220 CALLDATASIZE PUSH1 0x4 PUSH2 0x1A8E JUMP JUMPDEST PUSH2 0x594 JUMP JUMPDEST CALLVALUE DUP1 ISZERO PUSH2 0x231 JUMPI PUSH1 0x0 DUP1 REVERT JUMPDEST POP PUSH2 0xC1 PUSH2 0x240 CALLDATASIZE PUSH1 0x4 PUSH2 0x1B49 JUMP JUMPDEST PUSH2 0x690 JUMP JUMPDEST CALLVALUE DUP1 ISZERO PUSH2 0x251 JUMPI PUSH1 0x0 DUP1 REVERT JUMPDEST POP PUSH2 0xC1 PUSH2 0x260 CALLDATASIZE PUSH1 0x4 PUSH2 0x1B49 JUMP JUMPDEST PUSH2 0x7F0 JUMP JUMPDEST PUSH1 0x4 DUP1 JUMPDEST CALLDATASIZE DUP2 LT ISZERO PUSH2 0xC1 JUMPI DUP1 CALLDATALOAD PUSH1 0xE0 SHR PUSH1 0x0 DUP2 DUP5 DUP5 ADD DUP3 CALLDATACOPY SWAP2 DUP2 ADD DUP4 ADD SWAP2 DUP1 DUP1 DUP4 DUP2 DUP1 ADDRESS GAS CALL PUSH2 0x298 JUMPI RETURNDATASIZE DUP2 DUP3 RETURNDATACOPY RETURNDATASIZE DUP2 REVERT JUMPDEST POP POP PUSH2 0x269 JUMP JUMPDEST PUSH1 0x0 DUP11 DUP11 DUP11 DUP11 DUP11 DUP11 DUP11 DUP11 PUSH1 0x40 MLOAD PUSH1 0x20 ADD PUSH2 0x2C0 SWAP9 SWAP8 SWAP7 SWAP6 SWAP5 SWAP4 SWAP3 SWAP2 SWAP1 PUSH2 0x1CCE JUMP JUMPDEST PUSH1 0x40 MLOAD PUSH1 0x20 DUP2 DUP4 SUB SUB DUP2 MSTORE SWAP1 PUSH1 0x40 MSTORE DUP1 MLOAD SWAP1 PUSH1 0x20 ADD KECCAK256 SWAP1 POP PUSH1 0x0 DUP1 PUSH2 0x300 PUSH2 0x2F9 DUP5 PUSH4 0x31DF76A4 PUSH1 0x0 SWAP1 DUP2 MSTORE PUSH1 0x20 SWAP2 SWAP1 SWAP2 MSTORE PUSH1 0x40 SWAP1 KECCAK256 SWAP1 JUMP JUMPDEST DUP7 DUP7 PUSH2 0x8AA JUMP JUMPDEST SWAP1 SWAP3 POP SWAP1 POP DUP1 ISZERO PUSH2 0x340 JUMPI PUSH1 0x40 MLOAD PUSH3 0x461BCD PUSH1 0xE5 SHL DUP2 MSTORE PUSH1 0x20 PUSH1 0x4 DUP3 ADD MSTORE PUSH1 0x5 PUSH1 0x24 DUP3 ADD MSTORE PUSH5 0x1113559053 PUSH1 0xDA SHL PUSH1 0x44 DUP3 ADD MSTORE PUSH1 0x64 ADD JUMPDEST PUSH1 0x40 MLOAD DUP1 SWAP2 SUB SWAP1 REVERT JUMPDEST PUSH1 0x0 DUP3 DUP2 MSTORE PUSH1 0x3 PUSH1 0x20 MSTORE PUSH1 0x40 SWAP1 KECCAK256 SLOAD DUP10 DUP2 GT PUSH2 0x387 JUMPI PUSH1 0x40 MLOAD PUSH3 0x461BCD PUSH1 0xE5 SHL DUP2 MSTORE PUSH1 0x4 ADD PUSH2 0x337 SWAP1 PUSH1 0x20 DUP1 DUP3 MSTORE PUSH1 0x4 SWAP1 DUP3 ADD MSTORE PUSH4 0x444D5453 PUSH1 0xE0 SHL PUSH1 0x40 DUP3 ADD MSTORE PUSH1 0x60 ADD SWAP1 JUMP JUMPDEST PUSH2 0x397 DUP15 DUP15 DUP15 DUP15 DUP15 DUP15 DUP15 DUP15 PUSH2 0xD03 JUMP JUMPDEST POP POP POP POP POP POP POP POP POP POP POP POP POP POP JUMP JUMPDEST PUSH1 0x60 PUSH1 0x0 DUP1 PUSH2 0x3B6 DUP6 DUP6 PUSH2 0xE1E JUMP JUMPDEST POP PUSH1 0x0 DUP6 DUP2 MSTORE PUSH1 0x2 PUSH1 0x20 MSTORE PUSH1 0x40 DUP2 KECCAK256 SLOAD SWAP6 SWAP8 POP SWAP1 SWAP6 POP PUSH2 0xCF55 SWAP4 POP SWAP2 POP DUP2 SWAP1 POP PUSH2 0x3DF DUP6 PUSH2 0xF15 JUMP JUMPDEST SWAP2 POP SWAP2 POP PUSH2 0x3F3 DUP3 DUP3 DUP6 DUP8 DUP14 DUP14 PUSH1 0x1 PUSH2 0xF7F JUMP JUMPDEST SWAP10 SWAP9 POP POP POP POP POP POP POP POP POP JUMP JUMPDEST PUSH1 0x0 PUSH2 0x410 DUP8 DUP8 DUP8 DUP8 DUP8 DUP8 PUSH2 0x1592 JUMP JUMPDEST SWAP8 SWAP7 POP POP POP POP POP POP POP JUMP JUMPDEST PUSH1 0x0 DUP1 PUSH2 0x428 DUP7 DUP7 PUSH2 0xE1E JUMP JUMPDEST SWAP6 POP POP POP POP SWAP3 POP POP PUSH1 0x0 DUP1 PUSH2 0x441 PUSH3 0x20000 DUP8 DUP8 PUSH2 0x1676 JUMP JUMPDEST PUSH1 0x0 DUP7 DUP2 MSTORE PUSH1 0x2 PUSH1 0x20 MSTORE PUSH1 0x40 DUP2 KECCAK256 SLOAD SWAP3 SWAP5 POP SWAP1 SWAP3 POP DUP2 SWAP1 SUB PUSH2 0x48D JUMPI PUSH1 0x40 MLOAD PUSH3 0x461BCD PUSH1 0xE5 SHL DUP2 MSTORE PUSH1 0x20 PUSH1 0x4 DUP3 ADD MSTORE PUSH1 0x5 PUSH1 0x24 DUP3 ADD MSTORE PUSH5 0x424C4F434B PUSH1 0xD8 SHL PUSH1 0x44 DUP3 ADD MSTORE PUSH1 0x64 ADD PUSH2 0x337 JUMP JUMPDEST DUP1 DUP4 EQ PUSH2 0x4C5 JUMPI PUSH1 0x40 MLOAD PUSH3 0x461BCD PUSH1 0xE5 SHL DUP2 MSTORE PUSH1 0x20 PUSH1 0x4 DUP3 ADD MSTORE PUSH1 0x6 PUSH1 0x24 DUP3 ADD MSTORE PUSH6 0x12509493D3D5 PUSH1 0xD2 SHL PUSH1 0x44 DUP3 ADD MSTORE PUSH1 0x64 ADD PUSH2 0x337 JUMP JUMPDEST PUSH1 0x0 DUP3 SWAP1 SUB PUSH2 0x501 JUMPI PUSH1 0x40 MLOAD PUSH3 0x461BCD PUSH1 0xE5 SHL DUP2 MSTORE PUSH1 0x20 PUSH1 0x4 DUP3 ADD MSTORE PUSH1 0x8 PUSH1 0x24 DUP3 ADD MSTORE PUSH8 0x125094D51493D3D5 PUSH1 0xC2 SHL PUSH1 0x44 DUP3 ADD MSTORE PUSH1 0x64 ADD PUSH2 0x337 JUMP JUMPDEST DUP4 PUSH1 0x0 SUB PUSH2 0x53A JUMPI PUSH1 0x40 MLOAD PUSH3 0x461BCD PUSH1 0xE5 SHL DUP2 MSTORE PUSH1 0x4 ADD PUSH2 0x337 SWAP1 PUSH1 0x20 DUP1 DUP3 MSTORE PUSH1 0x4 SWAP1 DUP3 ADD MSTORE PUSH4 0x49425453 PUSH1 0xE0 SHL PUSH1 0x40 DUP3 ADD MSTORE PUSH1 0x60 ADD SWAP1 JUMP JUMPDEST PUSH1 0x0 DUP3 DUP2 MSTORE PUSH1 0x3 PUSH1 0x20 MSTORE PUSH1 0x40 SWAP1 DUP2 SWAP1 KECCAK256 DUP6 SWAP1 SSTORE MLOAD DUP2 SWAP1 DUP7 SWAP1 PUSH32 0x9D70F54D5D379E4B92C497936411380303C56BFB08CAED66B62C94380AD153DB SWAP1 PUSH2 0x581 SWAP1 DUP9 DUP2 MSTORE PUSH1 0x20 ADD SWAP1 JUMP JUMPDEST PUSH1 0x40 MLOAD DUP1 SWAP2 SUB SWAP1 LOG3 POP POP POP POP POP POP POP POP POP JUMP JUMPDEST PUSH1 0x0 DUP11 DUP11 DUP11 DUP11 DUP11 DUP11 DUP11 DUP11 PUSH1 0x40 MLOAD PUSH1 0x20 ADD PUSH2 0x5B5 SWAP9 SWAP8 SWAP7 SWAP6 SWAP5 SWAP4 SWAP3 SWAP2 SWAP1 PUSH2 0x1CCE JUMP JUMPDEST PUSH1 0x40 MLOAD PUSH1 0x20 DUP2 DUP4 SUB SUB DUP2 MSTORE SWAP1 PUSH1 0x40 MSTORE DUP1 MLOAD SWAP1 PUSH1 0x20 ADD KECCAK256 SWAP1 POP PUSH1 0x0 DUP1 PUSH2 0x5EE PUSH2 0x2F9 DUP5 PUSH4 0x31DF76A4 PUSH1 0x0 SWAP1 DUP2 MSTORE PUSH1 0x20 SWAP2 SWAP1 SWAP2 MSTORE PUSH1 0x40 SWAP1 KECCAK256 SWAP1 JUMP JUMPDEST PUSH1 0x0 DUP3 DUP2 MSTORE PUSH1 0x3 PUSH1 0x20 MSTORE PUSH1 0x40 DUP2 KECCAK256 SLOAD SWAP3 SWAP5 POP SWAP1 SWAP3 POP SUB PUSH2 0x639 JUMPI PUSH1 0x40 MLOAD PUSH3 0x461BCD PUSH1 0xE5 SHL DUP2 MSTORE PUSH1 0x20 PUSH1 0x4 DUP3 ADD MSTORE PUSH1 0x6 PUSH1 0x24 DUP3 ADD MSTORE PUSH6 0x11135493D3D5 PUSH1 0xD2 SHL PUSH1 0x44 DUP3 ADD MSTORE PUSH1 0x64 ADD PUSH2 0x337 JUMP JUMPDEST PUSH1 0x1 DUP2 EQ PUSH2 0x671 JUMPI PUSH1 0x40 MLOAD PUSH3 0x461BCD PUSH1 0xE5 SHL DUP2 MSTORE PUSH1 0x20 PUSH1 0x4 DUP3 ADD MSTORE PUSH1 0x5 PUSH1 0x24 DUP3 ADD MSTORE PUSH5 0x1113559053 PUSH1 0xDA SHL PUSH1 0x44 DUP3 ADD MSTORE PUSH1 0x64 ADD PUSH2 0x337 JUMP JUMPDEST PUSH2 0x681 DUP14 DUP14 DUP14 DUP14 DUP14 DUP14 DUP14 DUP14 PUSH2 0x183B JUMP JUMPDEST POP POP POP POP POP POP POP POP POP POP POP POP POP JUMP JUMPDEST PUSH2 0x1FF DUP2 GT PUSH2 0x6CD JUMPI PUSH1 0x40 MLOAD PUSH3 0x461BCD PUSH1 0xE5 SHL DUP2 MSTORE PUSH1 0x20 PUSH1 0x4 DUP3 ADD MSTORE PUSH1 0x9 PUSH1 0x24 DUP3 ADD MSTORE PUSH9 0x282927A7A32FA622A7 PUSH1 0xB9 SHL PUSH1 0x44 DUP3 ADD MSTORE PUSH1 0x64 ADD PUSH2 0x337 JUMP JUMPDEST DUP2 CALLDATALOAD PUSH1 0x0 DUP2 DUP2 MSTORE PUSH1 0x1 PUSH1 0x20 MSTORE PUSH1 0x40 SWAP1 KECCAK256 SLOAD PUSH2 0x719 JUMP JUMPDEST PUSH4 0x8C379A0 PUSH1 0xE0 SHL PUSH1 0x0 MSTORE PUSH1 0x20 PUSH1 0x4 MSTORE DUP1 PUSH1 0x44 MSTORE PUSH1 0x0 JUMPDEST DUP2 ISZERO PUSH2 0x70F JUMPI PUSH1 0x8 SWAP2 SWAP1 SWAP2 SHL SWAP1 PUSH1 0x1 ADD PUSH2 0x6FA JUMP JUMPDEST DUP1 PUSH1 0x24 MSTORE PUSH1 0x64 PUSH1 0x0 REVERT JUMPDEST PUSH1 0xA0 PUSH1 0x40 MLOAD DUP2 PUSH1 0x60 DUP8 ADD DUP3 CALLDATACOPY KECCAK256 DUP2 DUP2 EQ PUSH2 0x748 JUMPI PUSH2 0x748 PUSH15 0xC6DEDADAD2E8DACADCE840D0C2E6D PUSH1 0x8B SHL PUSH2 0x6E3 JUMP JUMPDEST POP PUSH1 0x20 DUP5 ADD DUP1 CALLDATALOAD DUP1 EXTCODESIZE DUP1 PUSH2 0x772 JUMPI PUSH2 0x772 PUSH16 0x7665726966696572206D697373696E67 PUSH1 0x80 SHL PUSH2 0x6E3 JUMP JUMPDEST POP PUSH1 0x60 DUP6 SUB PUSH1 0x40 DUP4 ADD SWAP3 POP PUSH1 0x40 MLOAD DUP2 DUP5 DUP3 CALLDATACOPY PUSH1 0x0 DUP1 DUP4 DUP4 DUP7 GAS STATICCALL SWAP4 POP POP POP POP DUP1 PUSH1 0x0 DUP2 SUB PUSH2 0x7B5 JUMPI PUSH2 0x7B5 PUSH15 0x1D995C9A599A595C8819985A5B1959 PUSH1 0x8A SHL PUSH2 0x6E3 JUMP JUMPDEST POP POP PUSH1 0x40 MLOAD DUP3 DUP2 MSTORE PUSH32 0x13A323BD8C6A1BEE4A59D9F8A556A6B14ED08C656B9C36C57903C70865648CCA SWAP1 PUSH1 0x20 ADD PUSH1 0x40 MLOAD DUP1 SWAP2 SUB SWAP1 LOG1 POP POP POP POP JUMP JUMPDEST PUSH2 0x7F8 PUSH2 0x1930 JUMP JUMPDEST PUSH1 0x40 MLOAD PUSH32 0xCDF35DCA8304861A13F78FCD9AA4CBE5BD689D13C643B4C875CCCBFAE3CBF67C SWAP1 PUSH1 0x0 SWAP1 LOG1 PUSH1 0x0 DUP1 PUSH1 0x0 DUP1 PUSH2 0x831 DUP7 DUP7 PUSH2 0xE1E JUMP JUMPDEST POP PUSH1 0x0 DUP6 DUP2 MSTORE PUSH1 0x2 PUSH1 0x20 MSTORE PUSH1 0x40 DUP2 KECCAK256 SLOAD SWAP6 SWAP10 POP SWAP4 SWAP8 POP SWAP2 SWAP6 POP SWAP1 SWAP4 POP PUSH2 0xCF55 SWAP2 SWAP1 POP DUP1 PUSH2 0x85D DUP6 PUSH2 0xF15 JUMP JUMPDEST SWAP2 POP SWAP2 POP PUSH1 0x0 PUSH2 0x873 DUP4 DUP4 DUP7 DUP9 DUP16 DUP16 PUSH1 0x1 PUSH2 0xF7F JUMP JUMPDEST DUP1 MLOAD PUSH1 0x20 SWAP1 DUP2 MUL SWAP2 DUP2 ADD SWAP2 SWAP1 SWAP2 KECCAK256 PUSH1 0x0 SWAP10 DUP11 MSTORE PUSH1 0x1 DUP3 MSTORE PUSH1 0x40 DUP1 DUP12 KECCAK256 SWAP2 SWAP1 SWAP2 SSTORE PUSH1 0x2 SWAP1 SWAP2 MSTORE SWAP1 SWAP8 KECCAK256 SWAP6 SWAP1 SWAP6 SSTORE POP POP POP POP POP POP POP POP POP JUMP JUMPDEST PUSH1 0x0 DUP1 PUSH2 0xCCE JUMP JUMPDEST DUP1 PUSH1 0x80 DUP2 LT PUSH2 0x8D1 JUMPI PUSH1 0x20 DUP4 GT PUSH2 0x8D1 JUMPI PUSH1 0xFF PUSH1 0x7 NOT PUSH1 0x8 DUP6 MUL ADD SHL NOT AND JUMPDEST SWAP3 SWAP2 POP POP JUMP JUMPDEST PUSH1 0x0 DUP1 DUP3 CALLDATALOAD PUSH1 0x0 BYTE PUSH1 0xF8 DUP2 LT ISZERO PUSH2 0x8F9 JUMPI PUSH1 0xBE NOT ADD SWAP4 PUSH1 0x1 SWAP4 SWAP1 SWAP4 ADD SWAP3 SWAP2 POP POP JUMP JUMPDEST PUSH1 0xF7 DUP2 SUB PUSH1 0x4 DUP2 GT ISZERO PUSH2 0x908 JUMPI INVALID JUMPDEST PUSH1 0x1 DUP6 DUP2 ADD CALLDATALOAD PUSH1 0x8 DUP4 MUL PUSH2 0x100 SUB SHR DUP3 ADD DUP2 ADD SWAP7 SWAP2 SWAP1 SWAP6 ADD SWAP1 SWAP5 ADD SWAP4 SWAP3 POP POP POP JUMP JUMPDEST PUSH1 0x0 DUP1 PUSH1 0x0 DUP4 CALLDATALOAD PUSH1 0x0 BYTE PUSH1 0x80 DUP2 LT ISZERO PUSH2 0x94E JUMPI PUSH1 0x1 SWAP4 POP DUP5 SWAP3 POP PUSH1 0x1 SWAP2 POP POP PUSH2 0x9C5 JUMP JUMPDEST PUSH1 0xB8 DUP2 LT ISZERO PUSH2 0x96A JUMPI PUSH1 0x7F NOT ADD SWAP3 POP POP POP PUSH1 0x1 DUP3 DUP2 ADD SWAP1 PUSH2 0x9C5 JUMP JUMPDEST PUSH1 0xC0 DUP2 LT ISZERO PUSH2 0x9A3 JUMPI PUSH1 0xB7 DUP2 SUB PUSH1 0x4 DUP2 GT ISZERO PUSH2 0x982 JUMPI INVALID JUMPDEST PUSH1 0x1 DUP7 DUP2 ADD CALLDATALOAD PUSH1 0x8 DUP4 MUL PUSH2 0x100 SUB SHR SWAP6 POP SWAP1 DUP7 ADD DUP2 ADD SWAP4 POP SWAP2 POP PUSH2 0x9C5 SWAP1 POP JUMP JUMPDEST PUSH1 0xF8 DUP2 LT ISZERO PUSH2 0x9B8 JUMPI PUSH1 0x1 DUP6 ADD SWAP3 POP POP PUSH2 0x9C5 JUMP JUMPDEST PUSH1 0xF6 NOT ADD SWAP3 POP PUSH1 0x1 DUP5 ADD SWAP2 POP JUMPDEST SWAP2 SWAP4 SWAP1 SWAP3 POP JUMP JUMPDEST PUSH1 0x40 MLOAD DUP2 SWAP1 PUSH1 0x0 DUP1 PUSH2 0x9DD DUP5 PUSH2 0x8D7 JUMP JUMPDEST DUP2 DUP7 DUP7 CALLDATACOPY DUP2 DUP6 KECCAK256 SWAP1 SWAP6 SWAP1 SWAP3 POP ADD DUP5 DUP5 JUMPDEST DUP3 DUP8 LT ISZERO PUSH2 0xA22 JUMPI PUSH2 0x9FE DUP8 PUSH2 0x92A JUMP JUMPDEST SWAP4 POP DUP1 DUP3 ADD SWAP9 POP DUP4 ISZERO PUSH2 0xA1B JUMPI PUSH1 0x80 DUP3 SWAP1 SHL DUP2 OR DUP4 MSTORE PUSH1 0x20 SWAP1 SWAP3 ADD SWAP2 JUMPDEST POP POP PUSH2 0x9ED JUMP JUMPDEST DUP3 DUP8 EQ PUSH2 0xA2B JUMPI INVALID JUMPDEST PUSH1 0x20 DUP7 DUP3 SUB DIV SWAP5 POP POP POP POP SWAP2 SWAP4 POP SWAP2 SWAP4 JUMP JUMPDEST PUSH1 0x0 NOT PUSH1 0x4 DUP4 MUL SWAP1 DUP2 SHR DUP3 AND SWAP1 PUSH1 0x20 PUSH1 0x1 DUP6 AND ISZERO PUSH2 0xA59 JUMPI POP PUSH1 0x3 JUMPDEST PUSH2 0x100 SWAP2 SWAP1 SWAP2 SUB SHL OR SWAP3 SWAP2 POP POP JUMP JUMPDEST PUSH1 0x0 DUP3 PUSH1 0x20 MUL DUP3 ADD MLOAD PUSH3 0xFFFFFF DUP2 AND DUP2 PUSH1 0x80 SHR SWAP2 POP PUSH1 0x1F DUP3 GT ISZERO PUSH2 0xA93 JUMPI ADD PUSH1 0x1F NOT ADD CALLDATALOAD SWAP1 POP PUSH2 0x8D1 JUMP JUMPDEST CALLDATALOAD PUSH1 0x20 SWAP2 SWAP1 SWAP2 SUB PUSH1 0x8 MUL SHR SWAP1 POP SWAP3 SWAP2 POP POP JUMP JUMPDEST PUSH1 0x0 DUP1 DUP4 PUSH1 0x20 MUL DUP4 ADD MLOAD PUSH3 0xFFFFFF DUP2 AND DUP2 PUSH1 0x80 SHR SWAP3 POP PUSH1 0x1F DUP4 GT ISZERO PUSH2 0xAD5 JUMPI DUP3 ADD PUSH1 0x1F NOT ADD CALLDATALOAD SWAP3 POP PUSH2 0xAE3 SWAP1 POP JUMP JUMPDEST CALLDATALOAD PUSH1 0x20 DUP4 SWAP1 SUB PUSH1 0x8 MUL SHR SWAP3 POP POP JUMPDEST SWAP3 POP SWAP3 SWAP1 POP JUMP JUMPDEST PUSH1 0x1 DUP3 ADD PUSH1 0x0 DUP1 DUP1 DUP1 DUP7 CALLDATALOAD DUP2 BYTE DUP2 DUP1 JUMPDEST DUP3 DUP2 LT ISZERO PUSH2 0xBCC JUMPI PUSH1 0x0 DUP1 PUSH1 0x0 PUSH2 0xB10 DUP12 PUSH2 0x9CC JUMP JUMPDEST SWAP4 POP SWAP4 POP SWAP4 POP SWAP11 POP DUP4 PUSH1 0x0 DUP2 EQ PUSH2 0xB39 JUMPI PUSH2 0xB34 PUSH5 0xA89082A69 PUSH1 0xDB SHL DUP12 DUP5 PUSH2 0xCB7 JUMP JUMPDEST PUSH2 0xB3D JUMP JUMPDEST DUP2 SWAP11 POP JUMPDEST POP POP DUP1 PUSH1 0x2 DUP2 EQ PUSH2 0xB65 JUMPI PUSH1 0x11 DUP2 EQ PUSH2 0xB9E JUMPI PUSH2 0xB60 PUSH4 0x4E4F4445 PUSH1 0xE0 SHL PUSH2 0x6E3 JUMP JUMPDEST PUSH2 0xBC1 JUMP JUMPDEST PUSH1 0x0 DUP1 PUSH2 0xB73 PUSH1 0x1 DUP7 PUSH2 0xAA6 JUMP JUMPDEST POP SWAP11 POP POP POP PUSH1 0x0 NOT DUP7 ADD DUP5 EQ DUP1 ISZERO PUSH2 0xB8D JUMPI DUP4 SWAP8 POP PUSH2 0xB98 JUMP JUMPDEST DUP4 MLOAD PUSH1 0x80 SHR SWAP6 SWAP1 SWAP6 ADD SWAP5 JUMPDEST POP PUSH2 0xBC1 JUMP JUMPDEST PUSH1 0x4 DUP6 MUL PUSH1 0xFC SUB DUP13 SWAP1 SHR PUSH1 0xF AND PUSH2 0xBB5 DUP2 DUP6 PUSH2 0xAA6 JUMP JUMPDEST POP SWAP10 POP POP PUSH1 0x1 SWAP5 SWAP1 SWAP5 ADD SWAP4 JUMPDEST POP POP POP PUSH1 0x1 ADD PUSH2 0xAFA JUMP JUMPDEST POP PUSH2 0xBD7 DUP2 DUP10 PUSH2 0xA3D JUMP JUMPDEST SWAP4 POP POP POP SWAP3 SWAP6 POP SWAP3 SWAP6 SWAP1 SWAP4 POP JUMP JUMPDEST SWAP6 POP SWAP6 POP SWAP2 POP SWAP5 POP PUSH2 0xC04 PUSH7 0x20A1A622A0A327 PUSH1 0xC9 SHL PUSH1 0x4 DUP7 EQ PUSH2 0xCA3 JUMP JUMPDEST PUSH2 0xC0F PUSH1 0x2 DUP3 PUSH2 0xA68 JUMP JUMPDEST SWAP6 POP POP POP POP POP POP SWAP3 POP SWAP3 POP SWAP3 JUMP JUMPDEST DUP1 PUSH1 0x0 DUP1 DUP1 DUP1 DUP1 DUP1 DUP1 PUSH2 0xC36 DUP11 PUSH1 0x0 SWAP1 DUP2 MSTORE PUSH1 0x20 SWAP1 KECCAK256 SWAP1 JUMP JUMPDEST PUSH2 0xC40 DUP10 DUP3 PUSH2 0xAEA JUMP JUMPDEST SWAP6 POP SWAP8 POP SWAP6 POP SWAP9 POP SWAP9 POP POP DUP1 PUSH1 0x0 DUP2 EQ PUSH2 0xC96 JUMPI PUSH2 0xC5F PUSH1 0x0 DUP4 PUSH2 0xA68 JUMP JUMPDEST SWAP6 POP PUSH2 0xC6C PUSH1 0x1 DUP4 PUSH2 0xAA6 JUMP JUMPDEST SWAP4 POP SWAP7 POP DUP6 DUP6 EQ SWAP4 POP DUP4 PUSH1 0x0 DUP2 EQ PUSH2 0xC8F JUMPI PUSH2 0xC88 DUP5 DUP10 PUSH2 0x8B2 JUMP JUMPDEST SWAP8 POP PUSH2 0xC94 JUMP JUMPDEST PUSH1 0x0 SWAP8 POP JUMPDEST POP JUMPDEST POP POP POP POP POP POP SWAP3 POP SWAP3 POP SWAP3 JUMP JUMPDEST DUP1 DUP1 PUSH2 0xCB2 JUMPI PUSH2 0xCB2 DUP4 PUSH2 0x6E3 JUMP JUMPDEST POP POP POP JUMP JUMPDEST DUP1 DUP3 EQ DUP1 PUSH2 0xCC8 JUMPI PUSH2 0xCC8 DUP5 PUSH2 0x6E3 JUMP JUMPDEST POP POP POP POP JUMP JUMPDEST DUP4 PUSH2 0xCD9 DUP7 DUP3 PUSH2 0xC1D JUMP JUMPDEST SWAP4 POP SWAP4 POP SWAP1 POP DUP4 DUP6 ADD DUP2 EQ PUSH2 0xCFA JUMPI PUSH2 0xCFA PUSH6 0x424F554E4453 PUSH1 0xD0 SHL PUSH2 0x6E3 JUMP JUMPDEST POP SWAP4 POP SWAP4 SWAP2 POP POP JUMP JUMPDEST DUP4 TIMESTAMP GT PUSH2 0xD38 JUMPI PUSH1 0x40 MLOAD PUSH3 0x461BCD PUSH1 0xE5 SHL DUP2 MSTORE PUSH1 0x20 PUSH1 0x4 DUP3 ADD MSTORE PUSH1 0x3 PUSH1 0x24 DUP3 ADD MSTORE PUSH3 0x111351 PUSH1 0xEA SHL PUSH1 0x44 DUP3 ADD MSTORE PUSH1 0x64 ADD PUSH2 0x337 JUMP JUMPDEST PUSH1 0x0 DUP9 DUP9 DUP9 DUP9 DUP9 DUP9 DUP9 DUP9 PUSH1 0x40 MLOAD PUSH1 0x20 ADD PUSH2 0xD59 SWAP9 SWAP8 SWAP7 SWAP6 SWAP5 SWAP4 SWAP3 SWAP2 SWAP1 PUSH2 0x1CCE JUMP JUMPDEST PUSH1 0x40 DUP1 MLOAD DUP1 DUP4 SUB PUSH1 0x1F NOT ADD DUP2 MSTORE SWAP2 DUP2 MSTORE DUP2 MLOAD PUSH1 0x20 SWAP3 DUP4 ADD KECCAK256 PUSH4 0x31DF76A4 PUSH1 0x0 SWAP1 DUP2 MSTORE SWAP3 DUP2 SWAP1 MSTORE SWAP2 KECCAK256 DUP1 SLOAD SWAP2 SWAP3 POP SWAP1 PUSH1 0x0 SUB PUSH2 0xDBC JUMPI PUSH1 0x40 MLOAD PUSH3 0x461BCD PUSH1 0xE5 SHL DUP2 MSTORE PUSH1 0x20 PUSH1 0x4 DUP3 ADD MSTORE PUSH1 0x3 PUSH1 0x24 DUP3 ADD MSTORE PUSH3 0x889A9 PUSH1 0xEB SHL PUSH1 0x44 DUP3 ADD MSTORE PUSH1 0x64 ADD PUSH2 0x337 JUMP JUMPDEST PUSH1 0x0 DUP2 SSTORE PUSH1 0x0 PUSH2 0xDCC DUP9 DUP11 PUSH2 0x1D4C JUMP JUMPDEST SWAP1 POP DUP1 ISZERO PUSH2 0xDDE JUMPI PUSH2 0xDDE DUP12 DUP3 PUSH2 0x1967 JUMP JUMPDEST PUSH1 0x40 MLOAD DUP4 DUP2 MSTORE PUSH32 0x6629230CA69C43F97674DD064896B819957583C8D20A870E4FB28B05C5D29F29 SWAP1 PUSH1 0x20 ADD PUSH1 0x40 MLOAD DUP1 SWAP2 SUB SWAP1 LOG1 POP POP POP POP POP POP POP POP POP POP POP JUMP JUMPDEST PUSH1 0x0 DUP1 PUSH1 0x0 DUP1 PUSH1 0x0 DUP1 PUSH2 0xE82 JUMP JUMPDEST PUSH1 0x40 MLOAD DUP2 SWAP1 PUSH1 0x0 DUP1 PUSH2 0xE3D DUP5 PUSH2 0x8D7 JUMP JUMPDEST DUP2 DUP7 DUP7 CALLDATACOPY DUP2 DUP6 KECCAK256 SWAP1 SWAP6 SWAP1 SWAP3 POP ADD DUP5 DUP5 JUMPDEST DUP3 DUP8 LT ISZERO PUSH2 0xA22 JUMPI PUSH2 0xE5E DUP8 PUSH2 0x92A JUMP JUMPDEST SWAP4 POP DUP1 DUP3 ADD SWAP9 POP DUP4 ISZERO PUSH2 0xE7B JUMPI PUSH1 0x80 DUP3 SWAP1 SHL DUP2 OR DUP4 MSTORE PUSH1 0x20 SWAP1 SWAP3 ADD SWAP2 JUMPDEST POP POP PUSH2 0xE4D JUMP JUMPDEST PUSH2 0xE8B DUP9 PUSH2 0xE2C JUMP JUMPDEST PUSH2 0xEA6 PUSH11 0x424C4F434B5F4954454D53 PUSH1 0xA8 SHL PUSH1 0xF DUP5 EQ PUSH2 0xCA3 JUMP JUMPDEST DUP11 DUP13 ADD SWAP2 POP PUSH2 0xEC4 PUSH6 0x424F554E4453 PUSH1 0xD0 SHL DUP4 DUP7 EQ DUP5 DUP8 LT OR PUSH2 0xCA3 JUMP JUMPDEST SWAP8 POP PUSH2 0xED3 SWAP1 POP PUSH1 0x0 DUP3 PUSH2 0xA68 JUMP JUMPDEST SWAP8 POP PUSH2 0xEE0 PUSH1 0x3 DUP3 PUSH2 0xA68 JUMP JUMPDEST SWAP6 POP PUSH2 0xEED PUSH1 0x8 DUP3 PUSH2 0xA68 JUMP JUMPDEST SWAP5 POP PUSH2 0xEFA PUSH1 0xA DUP3 PUSH2 0xA68 JUMP JUMPDEST SWAP4 POP PUSH2 0xF07 PUSH1 0xB DUP3 PUSH2 0xA68 JUMP JUMPDEST SWAP3 POP POP POP SWAP3 SWAP6 POP SWAP3 SWAP6 POP SWAP3 SWAP6 JUMP JUMPDEST PUSH1 0x0 DUP1 PUSH2 0xF618 DUP4 GT PUSH2 0xF2E JUMPI POP PUSH1 0x3 SWAP3 PUSH2 0x2904 SWAP3 POP SWAP1 POP JUMP JUMPDEST PUSH3 0x493E0 DUP4 GT PUSH2 0xF46 JUMPI POP PUSH1 0xE SWAP3 PUSH3 0x11076 SWAP3 POP SWAP1 POP JUMP JUMPDEST PUSH1 0x40 MLOAD PUSH3 0x461BCD PUSH1 0xE5 SHL DUP2 MSTORE PUSH1 0x20 PUSH1 0x4 DUP3 ADD MSTORE PUSH1 0xE PUSH1 0x24 DUP3 ADD MSTORE PUSH14 0x434952435549545F434F4E464947 PUSH1 0x90 SHL PUSH1 0x44 DUP3 ADD MSTORE PUSH1 0x64 ADD PUSH2 0x337 JUMP JUMPDEST PUSH1 0x60 PUSH2 0x1069 JUMP JUMPDEST PUSH1 0x40 MLOAD DUP2 SWAP1 PUSH1 0x0 DUP1 PUSH2 0xF97 DUP5 PUSH2 0x8D7 JUMP JUMPDEST DUP2 DUP7 DUP7 CALLDATACOPY DUP2 DUP6 KECCAK256 SWAP1 SWAP6 SWAP1 SWAP3 POP ADD DUP5 DUP5 JUMPDEST DUP3 DUP8 LT ISZERO PUSH2 0xA22 JUMPI PUSH2 0xFB8 DUP8 PUSH2 0x92A JUMP JUMPDEST SWAP4 POP DUP1 DUP3 ADD SWAP9 POP DUP4 ISZERO PUSH2 0xFD5 JUMPI PUSH1 0x80 DUP3 SWAP1 SHL DUP2 OR DUP4 MSTORE PUSH1 0x20 SWAP1 SWAP3 ADD SWAP2 JUMPDEST POP POP PUSH2 0xFA7 JUMP JUMPDEST PUSH1 0x0 DUP1 JUMPDEST PUSH2 0x100 DUP2 LT ISZERO PUSH2 0x1019 JUMPI PUSH1 0x0 DUP1 MLOAD PUSH1 0x20 PUSH2 0x1D73 DUP4 CODECOPY DUP2 MLOAD SWAP2 MSTORE PUSH2 0x100 DUP2 DUP2 DUP6 MULMOD SWAP4 POP POP PUSH1 0xFF DUP5 DUP4 SHR AND DUP2 DUP2 DUP6 ADDMOD SWAP4 POP POP POP PUSH1 0x8 ADD PUSH2 0xFE0 JUMP JUMPDEST POP SWAP2 SWAP1 POP JUMP JUMPDEST PUSH1 0x0 PUSH1 0x1 PUSH1 0x0 JUMPDEST PUSH2 0x100 DUP2 LT ISZERO PUSH2 0x1062 JUMPI PUSH1 0x0 DUP1 MLOAD PUSH1 0x20 PUSH2 0x1D73 DUP4 CODECOPY DUP2 MLOAD SWAP2 MSTORE DUP1 DUP4 DUP6 MULMOD SWAP4 POP PUSH1 0x1 PUSH1 0x1 PUSH1 0xF8 SHL SUB NOT DUP3 SHR DUP6 AND DUP2 DUP2 DUP7 ADDMOD SWAP5 POP POP POP PUSH1 0x8 ADD PUSH2 0x1026 JUMP JUMPDEST POP POP SWAP2 SWAP1 POP JUMP JUMPDEST POP PUSH1 0x40 DUP1 MLOAD PUSH1 0x60 DUP2 SWAP1 MSTORE PUSH1 0x5 PUSH1 0xA0 DUP3 ADD MSTORE PUSH2 0x160 DUP1 DUP3 ADD PUSH1 0x20 DUP2 DUP2 MSTORE PUSH1 0x0 DUP3 SWAP1 MSTORE PUSH2 0x10A PUSH1 0xA DUP14 MUL PUSH1 0x1 ADD PUSH1 0x3 DUP2 MUL DUP14 ADD DUP3 ADD SWAP3 DUP4 MUL DUP1 DUP8 ADD SWAP1 SWAP6 ADD SWAP1 SWAP7 MSTORE PUSH1 0xC0 SWAP1 SWAP5 ADD SWAP5 SWAP3 SWAP1 SWAP2 SWAP1 DUP7 ISZERO PUSH2 0x10BD JUMPI DUP1 CALLDATASIZE DUP8 CALLDATACOPY JUMPDEST POP PUSH1 0x60 MLOAD SWAP2 POP PUSH1 0xA0 CALLDATASIZE DUP4 CALLDATACOPY PUSH1 0x20 PUSH1 0x3 DUP5 MUL SWAP5 SWAP1 SWAP5 ADD DUP5 MUL ADD PUSH1 0x40 DUP3 ADD MSTORE SWAP2 MUL PUSH1 0x60 SWAP1 SWAP2 ADD MSTORE DUP4 DUP4 DUP2 ADD PUSH2 0x10EF DUP3 PUSH2 0xF86 JUMP JUMPDEST POP PUSH2 0x110B PUSH11 0x424C4F434B5F4954454D53 PUSH1 0xA8 SHL PUSH1 0xF DUP4 EQ PUSH2 0xCA3 JUMP JUMPDEST POP PUSH1 0x0 DUP1 MLOAD PUSH1 0x20 DUP2 ADD DUP3 MSTORE MSTORE PUSH2 0x1133 PUSH2 0x1125 PUSH1 0x2 DUP4 PUSH2 0xA68 JUMP JUMPDEST PUSH1 0x0 DUP1 MLOAD PUSH1 0x20 DUP2 ADD SWAP1 SWAP2 MSTORE MSTORE JUMP JUMPDEST PUSH2 0x1141 PUSH2 0x1125 PUSH1 0x9 DUP4 PUSH2 0xA68 JUMP JUMPDEST PUSH2 0x114F PUSH2 0x1125 PUSH1 0x8 DUP4 PUSH2 0xA68 JUMP JUMPDEST PUSH2 0x115D PUSH2 0x1125 PUSH1 0xB DUP4 PUSH2 0xA68 JUMP JUMPDEST PUSH2 0x1173 PUSH2 0x1125 PUSH2 0x116E PUSH1 0x7 DUP5 PUSH2 0xA68 JUMP JUMPDEST PUSH2 0x101F JUMP JUMPDEST PUSH1 0x0 DUP1 MLOAD PUSH1 0x20 DUP2 ADD DUP3 MSTORE MSTORE PUSH2 0x1190 DUP11 PUSH1 0x0 DUP1 MLOAD PUSH1 0x20 DUP2 ADD SWAP1 SWAP2 MSTORE MSTORE JUMP JUMPDEST DUP10 PUSH1 0x40 DUP7 ADD MSTORE PUSH2 0x2000 DUP3 ADD JUMPDEST DUP1 DUP4 LT ISZERO PUSH2 0x11BC JUMPI PUSH2 0x11B1 PUSH2 0x1125 DUP5 CALLDATALOAD PUSH2 0xFDC JUMP JUMPDEST PUSH1 0x20 DUP4 ADD SWAP3 POP PUSH2 0x119C JUMP JUMPDEST POP PUSH2 0x11D0 PUSH2 0x11CB PUSH1 0x3 DUP4 PUSH2 0xA68 JUMP JUMPDEST PUSH2 0xFDC JUMP JUMPDEST PUSH2 0x11E2 DUP2 PUSH1 0x0 DUP1 MLOAD PUSH1 0x20 DUP2 ADD SWAP1 SWAP2 MSTORE MSTORE JUMP JUMPDEST PUSH1 0x60 DUP7 ADD MSTORE POP PUSH2 0x11F1 DUP9 PUSH2 0xFDC JUMP JUMPDEST PUSH2 0x1203 DUP2 PUSH1 0x0 DUP1 MLOAD PUSH1 0x20 DUP2 ADD SWAP1 SWAP2 MSTORE MSTORE JUMP JUMPDEST PUSH1 0x80 DUP6 ADD MSTORE SWAP2 POP PUSH2 0x1221 PUSH4 0x44415441 PUSH1 0xE0 SHL DUP3 DUP5 EQ DUP4 DUP6 LT OR PUSH2 0xCA3 JUMP JUMPDEST PUSH1 0x60 DUP1 MLOAD DUP5 SWAP1 MSTORE DUP1 MLOAD PUSH1 0x0 DUP1 MLOAD PUSH1 0x20 DUP2 ADD DUP3 MSTORE DUP2 DUP2 MSTORE SWAP2 SWAP1 SWAP3 ADD MLOAD SWAP1 DUP2 ADD ADD MSTORE PUSH1 0x0 JUMPDEST DUP2 DUP4 LT ISZERO PUSH2 0x1481 JUMPI PUSH1 0x1 ADD PUSH2 0x1258 DUP4 PUSH2 0xF86 JUMP JUMPDEST PUSH2 0x1270 PUSH8 0x54585F4954454D53 PUSH1 0xC0 SHL PUSH1 0x9 DUP5 EQ PUSH2 0xCA3 JUMP JUMPDEST PUSH1 0x60 DUP5 ADD SWAP7 POP SWAP3 CALLDATALOAD SWAP3 PUSH2 0x1284 PUSH1 0x6 DUP5 PUSH2 0xA68 JUMP JUMPDEST SWAP2 POP PUSH2 0x129F PUSH10 0x151617D0D21052539251 PUSH1 0xB2 SHL DUP15 DUP5 EQ PUSH2 0xCA3 JUMP JUMPDEST PUSH2 0x12AA PUSH1 0x0 DUP5 PUSH2 0xA68 JUMP JUMPDEST SWAP2 POP PUSH1 0x1 PUSH2 0x12D6 PUSH2 0x12BA DUP5 PUSH2 0x101F JUMP JUMPDEST PUSH1 0x60 DUP1 MLOAD PUSH1 0x0 DUP1 MLOAD PUSH1 0x20 DUP2 ADD SWAP1 SWAP2 MSTORE DUP11 DUP2 MSTORE SWAP2 ADD MLOAD SWAP1 DUP2 ADD ADD MSTORE JUMP JUMPDEST POP PUSH2 0x12E2 PUSH1 0x2 DUP5 PUSH2 0xA68 JUMP JUMPDEST SWAP2 POP PUSH1 0x2 PUSH2 0x12F2 PUSH2 0x12BA DUP5 PUSH2 0x101F JUMP JUMPDEST POP PUSH2 0x12FE PUSH1 0x1 DUP5 PUSH2 0xA68 JUMP JUMPDEST SWAP2 POP PUSH1 0x3 PUSH2 0x130E PUSH2 0x12BA DUP5 PUSH2 0x101F JUMP JUMPDEST POP PUSH1 0x60 DUP1 MLOAD PUSH1 0x0 DUP1 MLOAD PUSH1 0x20 DUP2 ADD SWAP1 SWAP2 MSTORE DUP8 DUP2 MSTORE SWAP2 ADD MLOAD SWAP1 DUP2 ADD ADD DUP5 SWAP1 MSTORE PUSH1 0x4 SWAP2 POP PUSH2 0x133A PUSH1 0x3 DUP5 PUSH2 0xAA6 JUMP JUMPDEST PUSH1 0x60 DUP1 MLOAD PUSH1 0x0 DUP1 MLOAD PUSH1 0x20 DUP1 DUP3 ADD DUP4 MSTORE DUP12 DUP3 MSTORE SWAP3 DUP5 ADD MLOAD SWAP1 DUP2 ADD ADD SWAP5 SWAP1 SWAP5 MSTORE DUP2 MLOAD DUP5 MLOAD SWAP2 DUP3 ADD SWAP1 SWAP5 MSTORE DUP9 DUP2 MSTORE SWAP3 ADD MLOAD SWAP1 ISZERO SWAP2 DUP2 ADD ADD DUP2 SWAP1 MSTORE SWAP4 POP PUSH1 0x6 SWAP2 POP PUSH2 0x1382 PUSH1 0x4 DUP5 PUSH2 0xA68 JUMP JUMPDEST SWAP4 POP PUSH1 0x7 SWAP2 POP PUSH2 0x13B0 PUSH2 0x1394 DUP6 PUSH2 0x101F JUMP JUMPDEST PUSH1 0x60 DUP1 MLOAD PUSH1 0x0 DUP1 MLOAD PUSH1 0x20 DUP2 ADD SWAP1 SWAP2 MSTORE DUP10 DUP2 MSTORE SWAP2 ADD MLOAD SWAP1 DUP2 ADD ADD MSTORE JUMP JUMPDEST PUSH1 0xA0 DUP4 ADD MLOAD PUSH3 0xFFFFFF DUP2 AND SWAP1 PUSH1 0x80 SHR PUSH1 0x60 DUP1 MLOAD PUSH1 0x80 ADD DUP1 MLOAD DUP4 ADD SWAP1 MSTORE DUP1 MLOAD PUSH1 0x0 DUP1 MLOAD PUSH1 0x20 DUP2 ADD SWAP1 SWAP2 MSTORE DUP10 DUP2 MSTORE SWAP2 ADD MLOAD SWAP1 DUP2 ADD ADD DUP2 SWAP1 MSTORE SWAP5 POP SWAP3 POP PUSH1 0x8 SWAP2 POP PUSH1 0x0 SWAP2 POP PUSH1 0x0 JUMPDEST DUP5 DUP2 LT ISZERO PUSH2 0x1428 JUMPI DUP1 DUP5 ADD CALLDATALOAD PUSH1 0x0 BYTE PUSH2 0x141A DUP2 PUSH1 0x60 MLOAD PUSH1 0x40 ADD DUP1 MLOAD PUSH1 0x20 DUP2 ADD SWAP1 SWAP2 MSTORE MSTORE JUMP JUMPDEST ISZERO SWAP3 SWAP1 SWAP3 ADD SWAP2 PUSH1 0x1 ADD PUSH2 0x13F5 JUMP JUMPDEST POP PUSH1 0x60 DUP1 MLOAD PUSH1 0x0 DUP1 MLOAD PUSH1 0x20 DUP2 ADD SWAP1 SWAP2 MSTORE DUP8 DUP2 MSTORE SWAP2 ADD MLOAD PUSH1 0x4 DUP5 MUL DUP5 DUP8 SUB PUSH1 0x10 MUL ADD SWAP2 DUP2 ADD ADD DUP2 SWAP1 MSTORE POP PUSH17 0x14551231950B75FC4402DA1732FC9BEBE NOT DUP2 MOD SWAP4 POP PUSH1 0xA SWAP3 POP PUSH2 0x1478 PUSH2 0x1394 DUP6 PUSH2 0x101F JUMP JUMPDEST POP POP POP POP PUSH2 0x1244 JUMP JUMPDEST PUSH2 0x1494 PUSH4 0x44415441 PUSH1 0xE0 SHL DUP4 DUP6 EQ PUSH2 0xCA3 JUMP JUMPDEST PUSH1 0x60 MLOAD PUSH1 0x80 ADD MLOAD PUSH2 0x14B6 PUSH8 0x4D41585F44415441 PUSH1 0xC0 SHL DUP13 DUP4 EQ DUP14 DUP5 LT OR PUSH2 0xCA3 JUMP JUMPDEST POP JUMPDEST DUP11 DUP2 LT ISZERO PUSH2 0x14F9 JUMPI PUSH1 0x1 SWAP1 DUP2 ADD SWAP1 JUMPDEST PUSH1 0xB DUP2 LT ISZERO PUSH2 0x14F3 JUMPI PUSH1 0x60 DUP1 MLOAD PUSH1 0x0 DUP1 MLOAD PUSH1 0x20 DUP2 ADD DUP3 MSTORE DUP6 DUP2 MSTORE SWAP2 SWAP1 SWAP3 ADD MLOAD SWAP1 DUP2 ADD ADD MSTORE PUSH1 0x1 ADD PUSH2 0x14C7 JUMP JUMPDEST POP PUSH2 0x14B8 JUMP JUMPDEST PUSH2 0x150F PUSH7 0x4D41585F545853 PUSH1 0xC8 SHL DUP13 DUP4 EQ PUSH2 0xCA3 JUMP JUMPDEST POP POP POP PUSH1 0x20 MLOAD PUSH1 0x40 MLOAD SUB PUSH1 0x0 DUP1 MLOAD PUSH1 0x20 PUSH2 0x1D73 DUP4 CODECOPY DUP2 MLOAD SWAP2 MSTORE DUP2 PUSH1 0x20 MLOAD KECCAK256 MOD DUP1 PUSH1 0x0 DUP5 ADD MSTORE PUSH1 0x0 PUSH1 0x20 MLOAD DUP4 DUP2 ADD JUMPDEST DUP2 DUP2 GT ISZERO PUSH2 0x156D JUMPI PUSH1 0x1F NOT ADD DUP1 MLOAD PUSH1 0x0 DUP1 MLOAD PUSH1 0x20 PUSH2 0x1D73 DUP4 CODECOPY DUP2 MLOAD SWAP2 MSTORE DUP1 DUP7 DUP7 MULMOD SWAP5 POP DUP1 DUP3 DUP7 ADDMOD SWAP5 POP POP POP PUSH2 0x153D JUMP JUMPDEST POP POP PUSH1 0x20 DUP5 DUP2 ADD SWAP2 SWAP1 SWAP2 MSTORE PUSH1 0x0 PUSH1 0x60 MSTORE MLOAD PUSH1 0x40 MSTORE POP POP PUSH1 0x1F NOT ADD SWAP8 SWAP7 POP POP POP POP POP POP POP JUMP JUMPDEST PUSH1 0x0 DUP1 PUSH2 0x159F DUP8 CALLVALUE PUSH2 0x1D5F JUMP JUMPDEST SWAP1 POP CALLER DUP9 DUP3 DUP10 DUP10 DUP10 DUP10 DUP10 PUSH1 0x40 MLOAD PUSH1 0x20 ADD PUSH2 0x15C0 SWAP9 SWAP8 SWAP7 SWAP6 SWAP5 SWAP4 SWAP3 SWAP2 SWAP1 PUSH2 0x1CCE JUMP JUMPDEST PUSH1 0x40 DUP1 MLOAD DUP1 DUP4 SUB PUSH1 0x1F NOT ADD DUP2 MSTORE SWAP2 DUP2 MSTORE DUP2 MLOAD PUSH1 0x20 SWAP3 DUP4 ADD KECCAK256 PUSH4 0x31DF76A4 PUSH1 0x0 SWAP1 DUP2 MSTORE SWAP3 DUP2 SWAP1 MSTORE SWAP2 KECCAK256 DUP1 SLOAD SWAP2 SWAP4 POP SWAP1 ISZERO PUSH2 0x1621 JUMPI PUSH1 0x40 MLOAD PUSH3 0x461BCD PUSH1 0xE5 SHL DUP2 MSTORE PUSH1 0x20 PUSH1 0x4 DUP3 ADD MSTORE PUSH1 0x3 PUSH1 0x24 DUP3 ADD MSTORE PUSH3 0x889A9 PUSH1 0xEB SHL PUSH1 0x44 DUP3 ADD MSTORE PUSH1 0x64 ADD PUSH2 0x337 JUMP JUMPDEST PUSH1 0x1 DUP2 SSTORE PUSH32 0x4D083D19FCC619DFA227D3294A08C9309C2C6F22E389D1FC386105B342058A43 CALLER DUP11 DUP5 DUP12 DUP12 DUP12 DUP12 DUP12 PUSH1 0x40 MLOAD PUSH2 0x1662 SWAP9 SWAP8 SWAP7 SWAP6 SWAP5 SWAP4 SWAP3 SWAP2 SWAP1 PUSH2 0x1CCE JUMP JUMPDEST PUSH1 0x40 MLOAD DUP1 SWAP2 SUB SWAP1 LOG1 POP POP SWAP7 SWAP6 POP POP POP POP POP POP JUMP JUMPDEST PUSH1 0x0 DUP1 PUSH2 0x1830 JUMP JUMPDEST PUSH1 0x40 MLOAD DUP2 SWAP1 PUSH1 0x0 DUP1 PUSH2 0x168F DUP5 PUSH2 0x8D7 JUMP JUMPDEST DUP2 DUP7 DUP7 CALLDATACOPY DUP2 DUP6 KECCAK256 SWAP1 SWAP6 SWAP1 SWAP3 POP ADD DUP5 DUP5 JUMPDEST DUP3 DUP8 LT ISZERO PUSH2 0xA22 JUMPI PUSH2 0x16B0 DUP8 PUSH2 0x92A JUMP JUMPDEST SWAP4 POP DUP1 DUP3 ADD SWAP9 POP DUP4 ISZERO PUSH2 0x16CD JUMPI PUSH1 0x80 DUP3 SWAP1 SHL DUP2 OR DUP4 MSTORE PUSH1 0x20 SWAP1 SWAP3 ADD SWAP2 JUMPDEST POP POP PUSH2 0x169F JUMP JUMPDEST PUSH1 0x1 DUP3 ADD PUSH1 0x0 DUP1 DUP1 DUP1 DUP7 CALLDATALOAD DUP2 BYTE DUP2 DUP1 JUMPDEST DUP3 DUP2 LT ISZERO PUSH2 0xBCC JUMPI PUSH1 0x0 DUP1 PUSH1 0x0 PUSH2 0x16FA DUP12 PUSH2 0x167E JUMP JUMPDEST SWAP4 POP SWAP4 POP SWAP4 POP SWAP11 POP DUP4 PUSH1 0x0 DUP2 EQ PUSH2 0x1723 JUMPI PUSH2 0x171E PUSH5 0xA89082A69 PUSH1 0xDB SHL DUP12 DUP5 PUSH2 0xCB7 JUMP JUMPDEST PUSH2 0x1727 JUMP JUMPDEST DUP2 SWAP11 POP JUMPDEST POP POP DUP1 PUSH1 0x2 DUP2 EQ PUSH2 0x174F JUMPI PUSH1 0x11 DUP2 EQ PUSH2 0x1788 JUMPI PUSH2 0x174A PUSH4 0x4E4F4445 PUSH1 0xE0 SHL PUSH2 0x6E3 JUMP JUMPDEST PUSH2 0x17AB JUMP JUMPDEST PUSH1 0x0 DUP1 PUSH2 0x175D PUSH1 0x1 DUP7 PUSH2 0xAA6 JUMP JUMPDEST POP SWAP11 POP POP POP PUSH1 0x0 NOT DUP7 ADD DUP5 EQ DUP1 ISZERO PUSH2 0x1777 JUMPI DUP4 SWAP8 POP PUSH2 0x1782 JUMP JUMPDEST DUP4 MLOAD PUSH1 0x80 SHR SWAP6 SWAP1 SWAP6 ADD SWAP5 JUMPDEST POP PUSH2 0x17AB JUMP JUMPDEST PUSH1 0x4 DUP6 MUL PUSH1 0xFC SUB DUP13 SWAP1 SHR PUSH1 0xF AND PUSH2 0x179F DUP2 DUP6 PUSH2 0xAA6 JUMP JUMPDEST POP SWAP10 POP POP PUSH1 0x1 SWAP5 SWAP1 SWAP5 ADD SWAP4 JUMPDEST POP POP POP PUSH1 0x1 ADD PUSH2 0x16E4 JUMP JUMPDEST DUP1 PUSH1 0x0 DUP1 DUP1 DUP1 DUP1 DUP1 DUP1 PUSH2 0x17CE DUP11 PUSH1 0x0 MSTORE PUSH1 0x14 PUSH1 0xC KECCAK256 SWAP1 JUMP JUMPDEST PUSH2 0x17D8 DUP10 DUP3 PUSH2 0x16D4 JUMP JUMPDEST SWAP6 POP SWAP8 POP SWAP5 POP SWAP9 POP SWAP9 POP POP PUSH2 0x17F6 PUSH6 0x20A1A622A0A3 PUSH1 0xD1 SHL DUP3 PUSH2 0xCA3 JUMP JUMPDEST PUSH2 0x1801 PUSH1 0x0 DUP3 PUSH2 0xA68 JUMP JUMPDEST SWAP5 POP PUSH2 0x1817 PUSH6 0x1050D493D3D5 PUSH1 0xD2 SHL DUP7 DUP7 PUSH2 0xCB7 JUMP JUMPDEST PUSH1 0x20 DUP2 ADD MLOAD PUSH3 0xFFFFFF AND SWAP5 POP PUSH1 0x0 SWAP4 POP PUSH2 0xBE5 DUP6 PUSH2 0x167E JUMP JUMPDEST DUP4 PUSH2 0xCD9 DUP7 DUP3 PUSH2 0x17B6 JUMP JUMPDEST DUP4 TIMESTAMP LT PUSH2 0x1870 JUMPI PUSH1 0x40 MLOAD PUSH3 0x461BCD PUSH1 0xE5 SHL DUP2 MSTORE PUSH1 0x20 PUSH1 0x4 DUP3 ADD MSTORE PUSH1 0x3 PUSH1 0x24 DUP3 ADD MSTORE PUSH3 0x111351 PUSH1 0xEA SHL PUSH1 0x44 DUP3 ADD MSTORE PUSH1 0x64 ADD PUSH2 0x337 JUMP JUMPDEST PUSH1 0x0 DUP9 DUP9 DUP9 DUP9 DUP9 DUP9 DUP9 DUP9 PUSH1 0x40 MLOAD PUSH1 0x20 ADD PUSH2 0x1891 SWAP9 SWAP8 SWAP7 SWAP6 SWAP5 SWAP4 SWAP3 SWAP2 SWAP1 PUSH2 0x1CCE JUMP JUMPDEST PUSH1 0x40 MLOAD PUSH1 0x20 DUP2 DUP4 SUB SUB DUP2 MSTORE SWAP1 PUSH1 0x40 MSTORE DUP1 MLOAD SWAP1 PUSH1 0x20 ADD KECCAK256 SWAP1 POP DUP6 PUSH1 0x0 EQ PUSH2 0x18BB JUMPI PUSH2 0x18BB ORIGIN DUP8 PUSH2 0x1967 JUMP JUMPDEST PUSH1 0x0 DUP1 SLOAD PUSH1 0x1 PUSH1 0x1 PUSH1 0xA0 SHL SUB NOT AND PUSH1 0x1 PUSH1 0x1 PUSH1 0xA0 SHL SUB DUP12 AND OR SWAP1 SSTORE PUSH2 0x18E2 DUP9 DUP9 DUP6 DUP6 PUSH2 0x19F3 JUMP JUMPDEST PUSH1 0x0 DUP1 SLOAD PUSH1 0x1 PUSH1 0x1 PUSH1 0xA0 SHL SUB NOT AND SWAP1 SSTORE PUSH1 0x40 MLOAD DUP2 DUP2 MSTORE PUSH32 0xFA39010B12E169F2D7E9A76E381216416DBF5EB59DB117AE979592EE9F323885 SWAP1 PUSH1 0x20 ADD PUSH1 0x40 MLOAD DUP1 SWAP2 SUB SWAP1 LOG1 POP POP POP POP POP POP POP POP POP JUMP JUMPDEST ORIGIN CALLER EQ PUSH2 0x1965 JUMPI PUSH1 0x40 MLOAD PUSH3 0x461BCD PUSH1 0xE5 SHL DUP2 MSTORE PUSH1 0x20 PUSH1 0x4 DUP3 ADD MSTORE PUSH1 0x3 PUSH1 0x24 DUP3 ADD MSTORE PUSH3 0x454F41 PUSH1 0xE8 SHL PUSH1 0x44 DUP3 ADD MSTORE PUSH1 0x64 ADD PUSH2 0x337 JUMP JUMPDEST JUMP JUMPDEST PUSH1 0x0 DUP3 PUSH1 0x1 PUSH1 0x1 PUSH1 0xA0 SHL SUB AND DUP3 PUSH1 0x40 MLOAD PUSH1 0x0 PUSH1 0x40 MLOAD DUP1 DUP4 SUB DUP2 DUP6 DUP8 GAS CALL SWAP3 POP POP POP RETURNDATASIZE DUP1 PUSH1 0x0 DUP2 EQ PUSH2 0x19B4 JUMPI PUSH1 0x40 MLOAD SWAP2 POP PUSH1 0x1F NOT PUSH1 0x3F RETURNDATASIZE ADD AND DUP3 ADD PUSH1 0x40 MSTORE RETURNDATASIZE DUP3 MSTORE RETURNDATASIZE PUSH1 0x0 PUSH1 0x20 DUP5 ADD RETURNDATACOPY PUSH2 0x19B9 JUMP JUMPDEST PUSH1 0x60 SWAP2 POP JUMPDEST POP POP SWAP1 POP DUP1 PUSH2 0xCB2 JUMPI PUSH1 0x40 MLOAD PUSH3 0x461BCD PUSH1 0xE5 SHL DUP2 MSTORE PUSH1 0x4 ADD PUSH2 0x337 SWAP1 PUSH1 0x20 DUP1 DUP3 MSTORE PUSH1 0x4 SWAP1 DUP3 ADD MSTORE PUSH4 0xA88AA89 PUSH1 0xE3 SHL PUSH1 0x40 DUP3 ADD MSTORE PUSH1 0x60 ADD SWAP1 JUMP JUMPDEST PUSH1 0x80 DUP2 DUP4 DUP3 CALLDATACOPY PUSH1 0x0 DUP1 DUP4 DUP4 DUP8 DUP10 GAS CALL PUSH2 0x1A10 JUMPI RETURNDATASIZE PUSH1 0x0 DUP1 RETURNDATACOPY RETURNDATASIZE PUSH1 0x0 REVERT JUMPDEST POP POP POP POP POP JUMP JUMPDEST PUSH1 0x0 PUSH1 0x20 DUP3 DUP5 SUB SLT ISZERO PUSH2 0x1A29 JUMPI PUSH1 0x0 DUP1 REVERT JUMPDEST POP CALLDATALOAD SWAP2 SWAP1 POP JUMP JUMPDEST DUP1 CALLDATALOAD PUSH1 0x1 PUSH1 0x1 PUSH1 0xA0 SHL SUB DUP2 AND DUP2 EQ PUSH2 0x1A47 JUMPI PUSH1 0x0 DUP1 REVERT JUMPDEST SWAP2 SWAP1 POP JUMP JUMPDEST PUSH1 0x0 DUP1 DUP4 PUSH1 0x1F DUP5 ADD SLT PUSH2 0x1A5E JUMPI PUSH1 0x0 DUP1 REVERT JUMPDEST POP DUP2 CALLDATALOAD PUSH8 0xFFFFFFFFFFFFFFFF DUP2 GT ISZERO PUSH2 0x1A76 JUMPI PUSH1 0x0 DUP1 REVERT JUMPDEST PUSH1 0x20 DUP4 ADD SWAP2 POP DUP4 PUSH1 0x20 DUP3 DUP6 ADD ADD GT ISZERO PUSH2 0xAE3 JUMPI PUSH1 0x0 DUP1 REVERT JUMPDEST PUSH1 0x0 DUP1 PUSH1 0x0 DUP1 PUSH1 0x0 DUP1 PUSH1 0x0 DUP1 PUSH1 0x0 DUP1 PUSH2 0x100 DUP12 DUP14 SUB SLT ISZERO PUSH2 0x1AAE JUMPI PUSH1 0x0 DUP1 REVERT JUMPDEST PUSH2 0x1AB7 DUP12 PUSH2 0x1A30 JUMP JUMPDEST SWAP10 POP PUSH2 0x1AC5 PUSH1 0x20 DUP13 ADD PUSH2 0x1A30 JUMP JUMPDEST SWAP9 POP PUSH1 0x40 DUP12 ADD CALLDATALOAD SWAP8 POP PUSH1 0x60 DUP12 ADD CALLDATALOAD SWAP7 POP PUSH1 0x80 DUP12 ADD CALLDATALOAD SWAP6 POP PUSH1 0xA0 DUP12 ADD CALLDATALOAD SWAP5 POP PUSH1 0xC0 DUP12 ADD CALLDATALOAD PUSH8 0xFFFFFFFFFFFFFFFF DUP1 DUP3 GT ISZERO PUSH2 0x1AFE JUMPI PUSH1 0x0 DUP1 REVERT JUMPDEST PUSH2 0x1B0A DUP15 DUP4 DUP16 ADD PUSH2 0x1A4C JUMP JUMPDEST SWAP1 SWAP7 POP SWAP5 POP PUSH1 0xE0 DUP14 ADD CALLDATALOAD SWAP2 POP DUP1 DUP3 GT ISZERO PUSH2 0x1B23 JUMPI PUSH1 0x0 DUP1 REVERT JUMPDEST POP PUSH2 0x1B30 DUP14 DUP3 DUP15 ADD PUSH2 0x1A4C JUMP JUMPDEST SWAP2 POP DUP1 SWAP4 POP POP DUP1 SWAP2 POP POP SWAP3 SWAP6 SWAP9 SWAP12 SWAP2 SWAP5 SWAP8 SWAP11 POP SWAP3 SWAP6 SWAP9 POP JUMP JUMPDEST PUSH1 0x0 DUP1 PUSH1 0x20 DUP4 DUP6 SUB SLT ISZERO PUSH2 0x1B5C JUMPI PUSH1 0x0 DUP1 REVERT JUMPDEST DUP3 CALLDATALOAD PUSH8 0xFFFFFFFFFFFFFFFF DUP2 GT ISZERO PUSH2 0x1B73 JUMPI PUSH1 0x0 DUP1 REVERT JUMPDEST PUSH2 0x1B7F DUP6 DUP3 DUP7 ADD PUSH2 0x1A4C JUMP JUMPDEST SWAP1 SWAP7 SWAP1 SWAP6 POP SWAP4 POP POP POP POP JUMP JUMPDEST PUSH1 0x20 DUP1 DUP3 MSTORE DUP3 MLOAD DUP3 DUP3 ADD DUP2 SWAP1 MSTORE PUSH1 0x0 SWAP2 SWAP1 DUP5 DUP3 ADD SWAP1 PUSH1 0x40 DUP6 ADD SWAP1 DUP5 JUMPDEST DUP2 DUP2 LT ISZERO PUSH2 0x1BC3 JUMPI DUP4 MLOAD DUP4 MSTORE SWAP3 DUP5 ADD SWAP3 SWAP2 DUP5 ADD SWAP2 PUSH1 0x1 ADD PUSH2 0x1BA7 JUMP JUMPDEST POP SWAP1 SWAP7 SWAP6 POP POP POP POP POP POP JUMP JUMPDEST PUSH1 0x0 DUP1 PUSH1 0x0 DUP1 PUSH1 0x0 DUP1 PUSH1 0xA0 DUP8 DUP10 SUB SLT ISZERO PUSH2 0x1BE8 JUMPI PUSH1 0x0 DUP1 REVERT JUMPDEST PUSH2 0x1BF1 DUP8 PUSH2 0x1A30 JUMP JUMPDEST SWAP6 POP PUSH1 0x20 DUP8 ADD CALLDATALOAD SWAP5 POP PUSH1 0x40 DUP8 ADD CALLDATALOAD SWAP4 POP PUSH1 0x60 DUP8 ADD CALLDATALOAD SWAP3 POP PUSH1 0x80 DUP8 ADD CALLDATALOAD PUSH8 0xFFFFFFFFFFFFFFFF DUP2 GT ISZERO PUSH2 0x1C22 JUMPI PUSH1 0x0 DUP1 REVERT JUMPDEST PUSH2 0x1C2E DUP10 DUP3 DUP11 ADD PUSH2 0x1A4C JUMP JUMPDEST SWAP8 SWAP11 SWAP7 SWAP10 POP SWAP5 SWAP8 POP SWAP3 SWAP6 SWAP4 SWAP5 SWAP3 POP POP POP JUMP JUMPDEST PUSH1 0x0 DUP1 PUSH1 0x40 DUP4 DUP6 SUB SLT ISZERO PUSH2 0x1C53 JUMPI PUSH1 0x0 DUP1 REVERT JUMPDEST POP POP DUP1 CALLDATALOAD SWAP3 PUSH1 0x20 SWAP1 SWAP2 ADD CALLDATALOAD SWAP2 POP JUMP JUMPDEST PUSH1 0x0 DUP1 PUSH1 0x0 DUP1 PUSH1 0x40 DUP6 DUP8 SUB SLT ISZERO PUSH2 0x1C78 JUMPI PUSH1 0x0 DUP1 REVERT JUMPDEST DUP5 CALLDATALOAD PUSH8 0xFFFFFFFFFFFFFFFF DUP1 DUP3 GT ISZERO PUSH2 0x1C90 JUMPI PUSH1 0x0 DUP1 REVERT JUMPDEST PUSH2 0x1C9C DUP9 DUP4 DUP10 ADD PUSH2 0x1A4C JUMP JUMPDEST SWAP1 SWAP7 POP SWAP5 POP PUSH1 0x20 DUP8 ADD CALLDATALOAD SWAP2 POP DUP1 DUP3 GT ISZERO PUSH2 0x1CB5 JUMPI PUSH1 0x0 DUP1 REVERT JUMPDEST POP PUSH2 0x1CC2 DUP8 DUP3 DUP9 ADD PUSH2 0x1A4C JUMP JUMPDEST SWAP6 SWAP9 SWAP5 SWAP8 POP SWAP6 POP POP POP POP JUMP JUMPDEST PUSH1 0x0 PUSH1 0x1 DUP1 PUSH1 0xA0 SHL SUB DUP1 DUP12 AND DUP4 MSTORE DUP1 DUP11 AND PUSH1 0x20 DUP5 ADD MSTORE POP DUP8 PUSH1 0x40 DUP4 ADD MSTORE DUP7 PUSH1 0x60 DUP4 ADD MSTORE DUP6 PUSH1 0x80 DUP4 ADD MSTORE DUP5 PUSH1 0xA0 DUP4 ADD MSTORE PUSH1 0xE0 PUSH1 0xC0 DUP4 ADD MSTORE DUP3 PUSH1 0xE0 DUP4 ADD MSTORE PUSH2 0x100 DUP4 DUP6 DUP3 DUP6 ADD CALLDATACOPY PUSH1 0x0 DUP4 DUP6 ADD DUP3 ADD MSTORE PUSH1 0x1F SWAP1 SWAP4 ADD PUSH1 0x1F NOT AND SWAP1 SWAP2 ADD SWAP1 SWAP2 ADD SWAP9 SWAP8 POP POP POP POP POP POP POP POP JUMP JUMPDEST PUSH4 0x4E487B71 PUSH1 0xE0 SHL PUSH1 0x0 MSTORE PUSH1 0x11 PUSH1 0x4 MSTORE PUSH1 0x24 PUSH1 0x0 REVERT JUMPDEST DUP1 DUP3 ADD DUP1 DUP3 GT ISZERO PUSH2 0x8D1 JUMPI PUSH2 0x8D1 PUSH2 0x1D36 JUMP JUMPDEST DUP2 DUP2 SUB DUP2 DUP2 GT ISZERO PUSH2 0x8D1 JUMPI PUSH2 0x8D1 PUSH2 0x1D36 JUMP INVALID ADDRESS PUSH5 0x4E72E131A0 0x29 0xB8 POP GASLIMIT 0xB6 DUP2 DUP2 PC 0x5D 0x28 CALLER 0xE8 BASEFEE PUSH26 0xB9709143E1F593F0000001A264697066735822122025FD273854 0x4A JUMPDEST LOG4 DUP6 MOD 0x28 EQ 0x5C 0xF SGT 0xC7 0xC2 TIMESTAMP 0xD8 DUP11 SWAP16 0xC0 0xB2 MULMOD 0xE2 0xDB 0x1E CALLDATACOPY PUSH17 0x3EA02F64736F6C63430008120033000000 "
				},
				"gasEstimates": {
					"creation": {
						"codeDepositCost": "1524800",
						"executionCost": "1596",
						"totalCost": "1526396"
					},
					"external": {
						"buildCommitment(bytes)": "infinite",
						"deliverMessageWithProof(address,address,uint256,uint256,uint256,uint256,bytes,bytes)": "infinite",
						"dispatchMessage(address,uint256,uint256,uint256,bytes)": "infinite",
						"dropMessage(address,address,uint256,uint256,uint256,uint256,bytes,bytes)": "infinite",
						"finalizeBlock(bytes)": "infinite",
						"getTimestampForStorageRoot(bytes32)": "2494",
						"importForeignBridgeState(bytes,bytes)": "infinite",
						"initGenesis(bytes32,bytes32)": "22426",
						"messageOrigin()": "2390",
						"multicall()": "infinite",
						"stateRoots(bytes32)": "2450",
						"submitBlock(bytes)": "infinite"
					}
				},
				"methodIdentifiers": {
					"buildCommitment(bytes)": "594a90ba",
					"deliverMessageWithProof(address,address,uint256,uint256,uint256,uint256,bytes,bytes)": "8dfbfead",
					"dispatchMessage(address,uint256,uint256,uint256,bytes)": "5d4d3bcd",
					"dropMessage(address,address,uint256,uint256,uint256,uint256,bytes,bytes)": "2822697b",
					"finalizeBlock(bytes)": "94907e7e",
					"getTimestampForStorageRoot(bytes32)": "312faf74",
					"importForeignBridgeState(bytes,bytes)": "6e94aac5",
					"initGenesis(bytes32,bytes32)": "601333d1",
					"messageOrigin()": "3b1623fe",
					"multicall()": "1cdcf85a",
					"stateRoots(bytes32)": "1d7161a2",
					"submitBlock(bytes)": "d5107381"
				}
			},
			"storageLayout": {
				"storage": [
					{
						"astId": 569,
						"contract": "contracts/ZkEvmL1Bridge.sol:ZkEvmL1Bridge",
						"label": "_messageOrigin",
						"offset": 0,
						"slot": "0",
						"type": "t_address"
					},
					{
						"astId": 86,
						"contract": "contracts/ZkEvmL1Bridge.sol:ZkEvmL1Bridge",
						"label": "commitments",
						"offset": 0,
						"slot": "1",
						"type": "t_mapping(t_bytes32,t_bytes32)"
					},
					{
						"astId": 90,
						"contract": "contracts/ZkEvmL1Bridge.sol:ZkEvmL1Bridge",
						"label": "stateRoots",
						"offset": 0,
						"slot": "2",
						"type": "t_mapping(t_bytes32,t_bytes32)"
					},
					{
						"astId": 94,
						"contract": "contracts/ZkEvmL1Bridge.sol:ZkEvmL1Bridge",
						"label": "originTimestamps",
						"offset": 0,
						"slot": "3",
						"type": "t_mapping(t_bytes32,t_uint256)"
					}
				],
				"types": {
					"t_address": {
						"encoding": "inplace",
						"label": "address",
						"numberOfBytes": "20"
					},
					"t_bytes32": {
						"encoding": "inplace",
						"label": "bytes32",
						"numberOfBytes": "32"
					},
					"t_mapping(t_bytes32,t_bytes32)": {
						"encoding": "mapping",
						"key": "t_bytes32",
						"label": "mapping(bytes32 => bytes32)",
						"numberOfBytes": "32",
						"value": "t_bytes32"
					},
					"t_mapping(t_bytes32,t_uint256)": {
						"encoding": "mapping",
						"key": "t_bytes32",
						"label": "mapping(bytes32 => uint256)",
						"numberOfBytes": "32",
						"value": "t_uint256"
					},
					"t_uint256": {
						"encoding": "inplace",
						"label": "uint256",
						"numberOfBytes": "32"
					}
				}
			},
			"userdoc": {
				"kind": "user",
				"methods": {
					"deliverMessageWithProof(address,address,uint256,uint256,uint256,uint256,bytes,bytes)": {
						"notice": "Verifies the proof and executes the message."
					},
					"dispatchMessage(address,uint256,uint256,uint256,bytes)": {
						"notice": "Dispatch a message to the opposite chain."
					},
					"dropMessage(address,address,uint256,uint256,uint256,uint256,bytes,bytes)": {
						"notice": "Drops a expired message and returns ETH - if any to `from`."
					},
					"messageOrigin()": {
						"notice": "Returns the address of the caller that dispatched the message."
					},
					"multicall()": {
						"notice": "Used to repeatly call to self. Expects [length of bytes (4 bytes), bytes, ...] appended directly after the function signature. Reverts as soon a call fails."
					}
				},
				"version": 1
			}
		}
	}
}