{
	"contracts/Multicall.sol": {
		"Multicall": {
			"abi": [
				{
					"inputs": [],
					"name": "multicall",
					"outputs": [],
					"stateMutability": "nonpayable",
					"type": "function"
				}
			],
			"devdoc": {
				"kind": "dev",
				"methods": {},
				"version": 1
			},
			"evm": {
				"assembly": "    /* \"contracts/Multicall.sol\":57:788  contract Multicall {... */\n  mstore(0x40, 0x80)\n  callvalue\n  dup1\n  iszero\n  tag_1\n  jumpi\n  0x00\n  dup1\n  revert\ntag_1:\n  pop\n  dataSize(sub_0)\n  dup1\n  dataOffset(sub_0)\n  0x00\n  codecopy\n  0x00\n  return\nstop\n\nsub_0: assembly {\n        /* \"contracts/Multicall.sol\":57:788  contract Multicall {... */\n      mstore(0x40, 0x80)\n      callvalue\n      dup1\n      iszero\n      tag_1\n      jumpi\n      0x00\n      dup1\n      revert\n    tag_1:\n      pop\n      jumpi(tag_2, lt(calldatasize, 0x04))\n      shr(0xe0, calldataload(0x00))\n      dup1\n      0x1cdcf85a\n      eq\n      tag_3\n      jumpi\n    tag_2:\n      0x00\n      dup1\n      revert\n        /* \"contracts/Multicall.sol\":263:786  function multicall () external {... */\n    tag_3:\n      tag_4\n      tag_5\n      jump\t// in\n    tag_4:\n      stop\n    tag_5:\n        /* \"contracts/Multicall.sol\":385:386  4 */\n      0x04\n      dup1\n        /* \"contracts/Multicall.sol\":368:762  for { let ptr := 4 } lt(ptr, calldatasize()) {} {... */\n    tag_7:\n        /* \"contracts/Multicall.sol\":397:411  calldatasize() */\n      calldatasize\n        /* \"contracts/Multicall.sol\":392:395  ptr */\n      dup2\n        /* \"contracts/Multicall.sol\":389:412  lt(ptr, calldatasize()) */\n      lt\n        /* \"contracts/Multicall.sol\":368:762  for { let ptr := 4 } lt(ptr, calldatasize()) {} {... */\n      iszero\n      tag_4\n      jumpi\n        /* \"contracts/Multicall.sol\":459:462  ptr */\n      dup1\n        /* \"contracts/Multicall.sol\":446:463  calldataload(ptr) */\n      calldataload\n        /* \"contracts/Multicall.sol\":441:444  224 */\n      0xe0\n        /* \"contracts/Multicall.sol\":437:464  shr(224, calldataload(ptr)) */\n      shr\n        /* \"contracts/Multicall.sol\":513:514  0 */\n      0x00\n        /* \"contracts/Multicall.sol\":521:524  len */\n      dup2\n        /* \"contracts/Multicall.sol\":385:386  4 */\n      dup5\n        /* \"contracts/Multicall.sol\":484:487  ptr */\n      dup5\n        /* \"contracts/Multicall.sol\":480:491  add(ptr, 4) */\n      add\n        /* \"contracts/Multicall.sol\":513:514  0 */\n      dup3\n        /* \"contracts/Multicall.sol\":500:525  calldatacopy(0, ptr, len) */\n      calldatacopy\n        /* \"contracts/Multicall.sol\":541:554  add(ptr, len) */\n      swap2\n      dup2\n      add\n      dup4\n      add\n      swap2\n        /* \"contracts/Multicall.sol\":513:514  0 */\n      dup1\n      dup1\n        /* \"contracts/Multicall.sol\":550:553  len */\n      dup4\n        /* \"contracts/Multicall.sol\":513:514  0 */\n      dup2\n      dup1\n        /* \"contracts/Multicall.sol\":590:599  address() */\n      address\n        /* \"contracts/Multicall.sol\":583:588  gas() */\n      gas\n        /* \"contracts/Multicall.sol\":578:617  call(gas(), address(), 0, 0, len, 0, 0) */\n      call\n        /* \"contracts/Multicall.sol\":626:754  switch success... */\n      tag_10\n      jumpi\n        /* \"contracts/Multicall.sol\":689:705  returndatasize() */\n      returndatasize\n        /* \"contracts/Multicall.sol\":513:514  0 */\n      dup2\n      dup3\n        /* \"contracts/Multicall.sol\":668:706  returndatacopy(0, 0, returndatasize()) */\n      returndatacopy\n        /* \"contracts/Multicall.sol\":727:743  returndatasize() */\n      returndatasize\n        /* \"contracts/Multicall.sol\":513:514  0 */\n      dup2\n        /* \"contracts/Multicall.sol\":717:744  revert(0, returndatasize()) */\n      revert\n        /* \"contracts/Multicall.sol\":626:754  switch success... */\n    tag_10:\n      pop\n      pop\n        /* \"contracts/Multicall.sol\":368:762  for { let ptr := 4 } lt(ptr, calldatasize()) {} {... */\n      jump(tag_7)\n\n    auxdata: 0xa26469706673582212206821cb2ea346cb27f489f50c8b89cfde64a92bee1be4b701f5cb0dc8d672002564736f6c63430008120033\n}\n",
				"bytecode": {
					"linkReferences": {},
					"object": "6080604052348015600f57600080fd5b5060a28061001e6000396000f3fe6080604052348015600f57600080fd5b506004361060285760003560e01c80631cdcf85a14602d575b600080fd5b60336035565b005b6004805b36811015603357803560e01c60008184840182379181018301918080838180305af16066573d81823e3d81fd5b5050603956fea26469706673582212206821cb2ea346cb27f489f50c8b89cfde64a92bee1be4b701f5cb0dc8d672002564736f6c63430008120033",
					"opcodes": "PUSH1 0x80 PUSH1 0x40 MSTORE CALLVALUE DUP1 ISZERO PUSH1 0xF JUMPI PUSH1 0x0 DUP1 REVERT JUMPDEST POP PUSH1 0xA2 DUP1 PUSH2 0x1E PUSH1 0x0 CODECOPY PUSH1 0x0 RETURN INVALID PUSH1 0x80 PUSH1 0x40 MSTORE CALLVALUE DUP1 ISZERO PUSH1 0xF JUMPI PUSH1 0x0 DUP1 REVERT JUMPDEST POP PUSH1 0x4 CALLDATASIZE LT PUSH1 0x28 JUMPI PUSH1 0x0 CALLDATALOAD PUSH1 0xE0 SHR DUP1 PUSH4 0x1CDCF85A EQ PUSH1 0x2D JUMPI JUMPDEST PUSH1 0x0 DUP1 REVERT JUMPDEST PUSH1 0x33 PUSH1 0x35 JUMP JUMPDEST STOP JUMPDEST PUSH1 0x4 DUP1 JUMPDEST CALLDATASIZE DUP2 LT ISZERO PUSH1 0x33 JUMPI DUP1 CALLDATALOAD PUSH1 0xE0 SHR PUSH1 0x0 DUP2 DUP5 DUP5 ADD DUP3 CALLDATACOPY SWAP2 DUP2 ADD DUP4 ADD SWAP2 DUP1 DUP1 DUP4 DUP2 DUP1 ADDRESS GAS CALL PUSH1 0x66 JUMPI RETURNDATASIZE DUP2 DUP3 RETURNDATACOPY RETURNDATASIZE DUP2 REVERT JUMPDEST POP POP PUSH1 0x39 JUMP INVALID LOG2 PUSH5 0x6970667358 0x22 SLT KECCAK256 PUSH9 0x21CB2EA346CB27F489 CREATE2 0xC DUP12 DUP10 0xCF 0xDE PUSH5 0xA92BEE1BE4 0xB7 ADD CREATE2 0xCB 0xD 0xC8 0xD6 PUSH19 0x2564736F6C63430008120033000000000000 "
				},
				"gasEstimates": {
					"creation": {
						"codeDepositCost": "32400",
						"executionCost": "87",
						"totalCost": "32487"
					},
					"external": {
						"multicall()": "infinite"
					}
				},
				"methodIdentifiers": {
					"multicall()": "1cdcf85a"
				}
			},
			"storageLayout": {
				"storage": [],
				"types": null
			},
			"userdoc": {
				"kind": "user",
				"methods": {
					"multicall()": {
						"notice": "Used to repeatly call to self. Expects [length of bytes (4 bytes), bytes, ...] appended directly after the function signature. Reverts as soon a call fails."
					}
				},
				"version": 1
			}
		}
	}
}