{
	"contracts/ZkEvmL2MessageDispatcher.sol": {
		"ZkEvmL2MessageDispatcher": {
			"abi": [
				{
					"anonymous": false,
					"inputs": [
						{
							"indexed": false,
							"internalType": "bytes32",
							"name": "blockHash",
							"type": "bytes32"
						}
					],
					"name": "BlockFinalized",
					"type": "event"
				},
				{
					"anonymous": false,
					"inputs": [],
					"name": "BlockSubmitted",
					"type": "event"
				},
				{
					"anonymous": false,
					"inputs": [
						{
							"indexed": false,
							"internalType": "bytes32",
							"name": "id",
							"type": "bytes32"
						}
					],
					"name": "MessageDelivered",
					"type": "event"
				},
				{
					"anonymous": false,
					"inputs": [
						{
							"indexed": false,
							"internalType": "address",
							"name": "from",
							"type": "address"
						},
						{
							"indexed": false,
							"internalType": "address",
							"name": "to",
							"type": "address"
						},
						{
							"indexed": false,
							"internalType": "uint256",
							"name": "value",
							"type": "uint256"
						},
						{
							"indexed": false,
							"internalType": "uint256",
							"name": "fee",
							"type": "uint256"
						},
						{
							"indexed": false,
							"internalType": "uint256",
							"name": "deadline",
							"type": "uint256"
						},
						{
							"indexed": false,
							"internalType": "uint256",
							"name": "nonce",
							"type": "uint256"
						},
						{
							"indexed": false,
							"internalType": "bytes",
							"name": "data",
							"type": "bytes"
						}
					],
					"name": "MessageDispatched",
					"type": "event"
				},
				{
					"anonymous": false,
					"inputs": [
						{
							"indexed": false,
							"internalType": "bytes32",
							"name": "id",
							"type": "bytes32"
						}
					],
					"name": "MessageDropped",
					"type": "event"
				},
				{
					"inputs": [
						{
							"internalType": "address",
							"name": "to",
							"type": "address"
						},
						{
							"internalType": "uint256",
							"name": "fee",
							"type": "uint256"
						},
						{
							"internalType": "uint256",
							"name": "deadline",
							"type": "uint256"
						},
						{
							"internalType": "uint256",
							"name": "nonce",
							"type": "uint256"
						},
						{
							"internalType": "bytes",
							"name": "data",
							"type": "bytes"
						}
					],
					"name": "dispatchMessage",
					"outputs": [
						{
							"internalType": "bytes32",
							"name": "messageHash",
							"type": "bytes32"
						}
					],
					"stateMutability": "payable",
					"type": "function"
				},
				{
					"inputs": [
						{
							"internalType": "address",
							"name": "from",
							"type": "address"
						},
						{
							"internalType": "address",
							"name": "to",
							"type": "address"
						},
						{
							"internalType": "uint256",
							"name": "value",
							"type": "uint256"
						},
						{
							"internalType": "uint256",
							"name": "fee",
							"type": "uint256"
						},
						{
							"internalType": "uint256",
							"name": "deadline",
							"type": "uint256"
						},
						{
							"internalType": "uint256",
							"name": "nonce",
							"type": "uint256"
						},
						{
							"internalType": "bytes",
							"name": "data",
							"type": "bytes"
						},
						{
							"internalType": "bytes",
							"name": "proof",
							"type": "bytes"
						}
					],
					"name": "dropMessage",
					"outputs": [],
					"stateMutability": "nonpayable",
					"type": "function"
				},
				{
					"stateMutability": "payable",
					"type": "receive"
				}
			],
			"devdoc": {
				"kind": "dev",
				"methods": {
					"dispatchMessage(address,uint256,uint256,uint256,bytes)": {
						"params": {
							"data": "The calldata to be used when calling `to`.",
							"deadline": "This message is valid **before** the deadline and can be dropped **after** the deadline. In seconds since Unix Epoch.",
							"fee": "Amount to be paid to the account that delivers this message on the destination chain. Deducted from `msg.value`.",
							"nonce": "A random value that can be used to avoid collisions for identical but distinct messages. Has no other purpose.",
							"to": "The address of the account/contract to call and transfer `msg.value - fee`."
						},
						"returns": {
							"messageHash": "`keccak256(abi.encode(msg.sender, to, value, fee, deadline, nonce, data))`. Please note that only one message with the same hash can be dispatched at the same time. A message hash is not unique in the sense that it can reappear once a previous message was delivered or dropped."
						}
					}
				},
				"version": 1
			},
			"evm": {
				"assembly": "    /* \"contracts/ZkEvmL2MessageDispatcher.sol\":262:1988  contract ZkEvmL2MessageDispatcher is... */\n  mstore(0x40, 0x80)\n  callvalue\n  dup1\n  iszero\n  tag_1\n  jumpi\n  0x00\n  dup1\n  revert\ntag_1:\n  pop\n  dataSize(sub_0)\n  dup1\n  dataOffset(sub_0)\n  0x00\n  codecopy\n  0x00\n  return\nstop\n\nsub_0: assembly {\n        /* \"contracts/ZkEvmL2MessageDispatcher.sol\":262:1988  contract ZkEvmL2MessageDispatcher is... */\n      mstore(0x40, 0x80)\n      jumpi(tag_1, lt(calldatasize, 0x04))\n      shr(0xe0, calldataload(0x00))\n      dup1\n      0x2822697b\n      eq\n      tag_3\n      jumpi\n      dup1\n      0x5d4d3bcd\n      eq\n      tag_4\n      jumpi\n      jump(tag_2)\n    tag_1:\n      jumpi(tag_2, calldatasize)\n        /* \"contracts/ZkEvmMagicNumbers.sol\":172:214  0x0000000000000000000000000000000000010000 */\n      0x010000\n        /* \"contracts/ZkEvmL2MessageDispatcher.sol\":1946:1972  msg.sender == L2_DELIVERER */\n      0xffffffffffffffffffffffffffffffffffffffff\n      and\n        /* \"contracts/ZkEvmL2MessageDispatcher.sol\":1946:1956  msg.sender */\n      caller\n        /* \"contracts/ZkEvmL2MessageDispatcher.sol\":1946:1972  msg.sender == L2_DELIVERER */\n      0xffffffffffffffffffffffffffffffffffffffff\n      and\n      eq\n        /* \"contracts/ZkEvmL2MessageDispatcher.sol\":1938:1981  require(msg.sender == L2_DELIVERER, 'MSED') */\n      tag_7\n      jumpi\n      mload(0x40)\n      0x08c379a000000000000000000000000000000000000000000000000000000000\n      dup2\n      mstore\n      0x04\n      add\n      tag_8\n      swap1\n      tag_9\n      jump\t// in\n    tag_8:\n      mload(0x40)\n      dup1\n      swap2\n      sub\n      swap1\n      revert\n    tag_7:\n        /* \"contracts/ZkEvmL2MessageDispatcher.sol\":262:1988  contract ZkEvmL2MessageDispatcher is... */\n      stop\n    tag_2:\n      0x00\n      dup1\n      revert\n        /* \"contracts/ZkEvmL2MessageDispatcher.sol\":842:1900  function dropMessage (... */\n    tag_3:\n      callvalue\n      dup1\n      iszero\n      tag_10\n      jumpi\n      0x00\n      dup1\n      revert\n    tag_10:\n      pop\n      tag_11\n      0x04\n      dup1\n      calldatasize\n      sub\n      dup2\n      add\n      swap1\n      tag_12\n      swap2\n      swap1\n      tag_13\n      jump\t// in\n    tag_12:\n      tag_14\n      jump\t// in\n    tag_11:\n      stop\n        /* \"contracts/ZkEvmL2MessageDispatcher.sol\":429:796  function dispatchMessage (... */\n    tag_4:\n      tag_15\n      0x04\n      dup1\n      calldatasize\n      sub\n      dup2\n      add\n      swap1\n      tag_16\n      swap2\n      swap1\n      tag_17\n      jump\t// in\n    tag_16:\n      tag_18\n      jump\t// in\n    tag_15:\n      mload(0x40)\n      tag_19\n      swap2\n      swap1\n      tag_20\n      jump\t// in\n    tag_19:\n      mload(0x40)\n      dup1\n      swap2\n      sub\n      swap1\n      return\n        /* \"contracts/ZkEvmL2MessageDispatcher.sol\":842:1900  function dropMessage (... */\n    tag_14:\n        /* \"contracts/ZkEvmL2MessageDispatcher.sol\":1091:1105  uint256 amount */\n      0x00\n        /* \"contracts/ZkEvmL2MessageDispatcher.sol\":1116:1119  fee */\n      dup8\n        /* \"contracts/ZkEvmL2MessageDispatcher.sol\":1108:1113  value */\n      dup10\n        /* \"contracts/ZkEvmL2MessageDispatcher.sol\":1108:1119  value + fee */\n      tag_22\n      swap2\n      swap1\n      tag_23\n      jump\t// in\n    tag_22:\n        /* \"contracts/ZkEvmL2MessageDispatcher.sol\":1091:1119  uint256 amount = value + fee */\n      swap1\n      pop\n        /* \"contracts/ZkEvmL2MessageDispatcher.sol\":1139:1140  0 */\n      0x00\n        /* \"contracts/ZkEvmL2MessageDispatcher.sol\":1129:1135  amount */\n      dup2\n        /* \"contracts/ZkEvmL2MessageDispatcher.sol\":1129:1140  amount != 0 */\n      eq\n        /* \"contracts/ZkEvmL2MessageDispatcher.sol\":1125:1281  if (amount != 0) {... */\n      tag_24\n      jumpi\n        /* \"contracts/ZkEvmL2MessageDispatcher.sol\":1151:1163  bool success */\n      0x00\n        /* \"contracts/ZkEvmMagicNumbers.sol\":172:214  0x0000000000000000000000000000000000010000 */\n      0x010000\n        /* \"contracts/ZkEvmL2MessageDispatcher.sol\":1168:1185  L2_DELIVERER.call */\n      0xffffffffffffffffffffffffffffffffffffffff\n      and\n        /* \"contracts/ZkEvmL2MessageDispatcher.sol\":1233:1239  amount */\n      dup3\n        /* \"contracts/ZkEvmL2MessageDispatcher.sol\":1186:1240  abi.encodeWithSignature('requestETH(uint256)', amount) */\n      add(0x24, mload(0x40))\n      tag_25\n      swap2\n      swap1\n      tag_26\n      jump\t// in\n    tag_25:\n      mload(0x40)\n      0x20\n      dup2\n      dup4\n      sub\n      sub\n      dup2\n      mstore\n      swap1\n      0x40\n      mstore\n      and(not(0xffffffffffffffffffffffffffffffffffffffffffffffffffffffff), 0xfcd5e7b300000000000000000000000000000000000000000000000000000000)\n      0x20\n      dup3\n      add\n      dup1\n      mload\n      0xffffffffffffffffffffffffffffffffffffffffffffffffffffffff\n      dup4\n      dup2\n      dup4\n      and\n      or\n      dup4\n      mstore\n      pop\n      pop\n      pop\n      pop\n        /* \"contracts/ZkEvmL2MessageDispatcher.sol\":1168:1241  L2_DELIVERER.call(abi.encodeWithSignature('requestETH(uint256)', amount)) */\n      mload(0x40)\n      tag_27\n      swap2\n      swap1\n      tag_28\n      jump\t// in\n    tag_27:\n      0x00\n      mload(0x40)\n      dup1\n      dup4\n      sub\n      dup2\n      0x00\n      dup7\n      gas\n      call\n      swap2\n      pop\n      pop\n      returndatasize\n      dup1\n      0x00\n      dup2\n      eq\n      tag_31\n      jumpi\n      mload(0x40)\n      swap2\n      pop\n      and(add(returndatasize, 0x3f), not(0x1f))\n      dup3\n      add\n      0x40\n      mstore\n      returndatasize\n      dup3\n      mstore\n      returndatasize\n      0x00\n      0x20\n      dup5\n      add\n      returndatacopy\n      jump(tag_30)\n    tag_31:\n      0x60\n      swap2\n      pop\n    tag_30:\n      pop\n        /* \"contracts/ZkEvmL2MessageDispatcher.sol\":1150:1241  (bool success,) = L2_DELIVERER.call(abi.encodeWithSignature('requestETH(uint256)', amount)) */\n      pop\n      swap1\n      pop\n        /* \"contracts/ZkEvmL2MessageDispatcher.sol\":1257:1264  success */\n      dup1\n        /* \"contracts/ZkEvmL2MessageDispatcher.sol\":1249:1274  require(success, 'RQETH') */\n      tag_32\n      jumpi\n      mload(0x40)\n      0x08c379a000000000000000000000000000000000000000000000000000000000\n      dup2\n      mstore\n      0x04\n      add\n      tag_33\n      swap1\n      tag_34\n      jump\t// in\n    tag_33:\n      mload(0x40)\n      dup1\n      swap2\n      sub\n      swap1\n      revert\n    tag_32:\n        /* \"contracts/ZkEvmL2MessageDispatcher.sol\":1142:1281  {... */\n      pop\n        /* \"contracts/ZkEvmL2MessageDispatcher.sol\":1125:1281  if (amount != 0) {... */\n    tag_24:\n        /* \"contracts/ZkEvmL2MessageDispatcher.sol\":1316:1335  bytes32 messageHash */\n      0x00\n        /* \"contracts/ZkEvmL2MessageDispatcher.sol\":1359:1363  from */\n      dup12\n        /* \"contracts/ZkEvmL2MessageDispatcher.sol\":1365:1367  to */\n      dup12\n        /* \"contracts/ZkEvmL2MessageDispatcher.sol\":1369:1374  value */\n      dup12\n        /* \"contracts/ZkEvmL2MessageDispatcher.sol\":1376:1379  fee */\n      dup12\n        /* \"contracts/ZkEvmL2MessageDispatcher.sol\":1381:1389  deadline */\n      dup12\n        /* \"contracts/ZkEvmL2MessageDispatcher.sol\":1391:1396  nonce */\n      dup12\n        /* \"contracts/ZkEvmL2MessageDispatcher.sol\":1398:1402  data */\n      dup12\n      dup12\n        /* \"contracts/ZkEvmL2MessageDispatcher.sol\":1348:1403  abi.encode(from, to, value, fee, deadline, nonce, data) */\n      add(0x20, mload(0x40))\n      tag_35\n      swap9\n      swap8\n      swap7\n      swap6\n      swap5\n      swap4\n      swap3\n      swap2\n      swap1\n      tag_36\n      jump\t// in\n    tag_35:\n      mload(0x40)\n      0x20\n      dup2\n      dup4\n      sub\n      sub\n      dup2\n      mstore\n      swap1\n      0x40\n      mstore\n        /* \"contracts/ZkEvmL2MessageDispatcher.sol\":1338:1404  keccak256(abi.encode(from, to, value, fee, deadline, nonce, data)) */\n      dup1\n      mload\n      swap1\n      0x20\n      add\n      keccak256\n        /* \"contracts/ZkEvmL2MessageDispatcher.sol\":1316:1404  bytes32 messageHash = keccak256(abi.encode(from, to, value, fee, deadline, nonce, data)) */\n      swap1\n      pop\n        /* \"contracts/ZkEvmL2MessageDispatcher.sol\":1413:1429  bytes32 rootHash */\n      0x00\n        /* \"contracts/ZkEvmL2MessageDispatcher.sol\":1431:1451  bytes32 storageValue */\n      dup1\n        /* \"contracts/ZkEvmL2MessageDispatcher.sol\":1455:1550  _validatePatriciaStorageProof(... */\n      tag_37\n        /* \"contracts/ZkEvmL2MessageDispatcher.sol\":1494:1527  _PENDING_MESSAGE_KEY(messageHash) */\n      tag_38\n        /* \"contracts/ZkEvmL2MessageDispatcher.sol\":1515:1526  messageHash */\n      dup5\n        /* \"contracts/ZkEvmL2MessageDispatcher.sol\":1494:1514  _PENDING_MESSAGE_KEY */\n      tag_39\n        /* \"contracts/ZkEvmL2MessageDispatcher.sol\":1494:1527  _PENDING_MESSAGE_KEY(messageHash) */\n      jump\t// in\n    tag_38:\n        /* \"contracts/ZkEvmL2MessageDispatcher.sol\":1537:1542  proof */\n      dup8\n      dup8\n        /* \"contracts/ZkEvmL2MessageDispatcher.sol\":1455:1484  _validatePatriciaStorageProof */\n      tag_40\n        /* \"contracts/ZkEvmL2MessageDispatcher.sol\":1455:1550  _validatePatriciaStorageProof(... */\n      jump\t// in\n    tag_37:\n        /* \"contracts/ZkEvmL2MessageDispatcher.sol\":1412:1550  (bytes32 rootHash, bytes32 storageValue) = _validatePatriciaStorageProof(... */\n      swap2\n      pop\n      swap2\n      pop\n        /* \"contracts/ZkEvmL2MessageDispatcher.sol\":1582:1583  0 */\n      0x00\n        /* \"contracts/ZkEvmL2MessageDispatcher.sol\":1566:1583  storageValue == 0 */\n      dup1\n      shl\n        /* \"contracts/ZkEvmL2MessageDispatcher.sol\":1566:1578  storageValue */\n      dup2\n        /* \"contracts/ZkEvmL2MessageDispatcher.sol\":1566:1583  storageValue == 0 */\n      eq\n        /* \"contracts/ZkEvmL2MessageDispatcher.sol\":1558:1593  require(storageValue == 0, 'DMVAL') */\n      tag_41\n      jumpi\n      mload(0x40)\n      0x08c379a000000000000000000000000000000000000000000000000000000000\n      dup2\n      mstore\n      0x04\n      add\n      tag_42\n      swap1\n      tag_43\n      jump\t// in\n    tag_42:\n      mload(0x40)\n      dup1\n      swap2\n      sub\n      swap1\n      revert\n    tag_41:\n        /* \"contracts/ZkEvmL2MessageDispatcher.sol\":1646:1647  0 */\n      0x00\n        /* \"contracts/ZkEvmL2MessageDispatcher.sol\":1634:1647  rootHash != 0 */\n      dup1\n      shl\n        /* \"contracts/ZkEvmL2MessageDispatcher.sol\":1634:1642  rootHash */\n      dup3\n        /* \"contracts/ZkEvmL2MessageDispatcher.sol\":1634:1647  rootHash != 0 */\n      sub\n        /* \"contracts/ZkEvmL2MessageDispatcher.sol\":1626:1658  require(rootHash != 0, 'STROOT') */\n      tag_44\n      jumpi\n      mload(0x40)\n      0x08c379a000000000000000000000000000000000000000000000000000000000\n      dup2\n      mstore\n      0x04\n      add\n      tag_45\n      swap1\n      tag_46\n      jump\t// in\n    tag_45:\n      mload(0x40)\n      dup1\n      swap2\n      sub\n      swap1\n      revert\n    tag_44:\n        /* \"contracts/ZkEvmL2MessageDispatcher.sol\":1666:1689  uint256 originTimestamp */\n      0x00\n        /* \"contracts/ZkEvmMagicNumbers.sol\":172:214  0x0000000000000000000000000000000000010000 */\n      0x010000\n        /* \"contracts/ZkEvmL2MessageDispatcher.sol\":1692:1764  IZkEvmMessageDelivererWithProof(L2_DELIVERER).getTimestampForStorageRoot */\n      0xffffffffffffffffffffffffffffffffffffffff\n      and\n      0x312faf74\n        /* \"contracts/ZkEvmL2MessageDispatcher.sol\":1765:1773  rootHash */\n      dup5\n        /* \"contracts/ZkEvmL2MessageDispatcher.sol\":1692:1774  IZkEvmMessageDelivererWithProof(L2_DELIVERER).getTimestampForStorageRoot(rootHash) */\n      mload(0x40)\n      dup3\n      0xffffffff\n      and\n      0xe0\n      shl\n      dup2\n      mstore\n      0x04\n      add\n      tag_47\n      swap2\n      swap1\n      tag_20\n      jump\t// in\n    tag_47:\n      0x20\n      mload(0x40)\n      dup1\n      dup4\n      sub\n      dup2\n      dup7\n      gas\n      staticcall\n      iszero\n      dup1\n      iszero\n      tag_49\n      jumpi\n      returndatasize\n      0x00\n      dup1\n      returndatacopy\n      revert(0x00, returndatasize)\n    tag_49:\n      pop\n      pop\n      pop\n      pop\n      mload(0x40)\n      returndatasize\n      not(0x1f)\n      0x1f\n      dup3\n      add\n      and\n      dup3\n      add\n      dup1\n      0x40\n      mstore\n      pop\n      dup2\n      add\n      swap1\n      tag_50\n      swap2\n      swap1\n      tag_51\n      jump\t// in\n    tag_50:\n        /* \"contracts/ZkEvmL2MessageDispatcher.sol\":1666:1774  uint256 originTimestamp = IZkEvmMessageDelivererWithProof(L2_DELIVERER).getTimestampForStorageRoot(rootHash) */\n      swap1\n      pop\n        /* \"contracts/ZkEvmL2MessageDispatcher.sol\":1808:1816  deadline */\n      dup11\n        /* \"contracts/ZkEvmL2MessageDispatcher.sol\":1790:1805  originTimestamp */\n      dup2\n        /* \"contracts/ZkEvmL2MessageDispatcher.sol\":1790:1816  originTimestamp > deadline */\n      gt\n        /* \"contracts/ZkEvmL2MessageDispatcher.sol\":1782:1825  require(originTimestamp > deadline, 'DMTS') */\n      tag_52\n      jumpi\n      mload(0x40)\n      0x08c379a000000000000000000000000000000000000000000000000000000000\n      dup2\n      mstore\n      0x04\n      add\n      tag_53\n      swap1\n      tag_54\n      jump\t// in\n    tag_53:\n      mload(0x40)\n      dup1\n      swap2\n      sub\n      swap1\n      revert\n    tag_52:\n        /* \"contracts/ZkEvmL2MessageDispatcher.sol\":1308:1832  {... */\n      pop\n      pop\n      pop\n      pop\n        /* \"contracts/ZkEvmL2MessageDispatcher.sol\":1838:1895  _dropMessage(from, to, value, fee, deadline, nonce, data) */\n      tag_55\n        /* \"contracts/ZkEvmL2MessageDispatcher.sol\":1851:1855  from */\n      dup12\n        /* \"contracts/ZkEvmL2MessageDispatcher.sol\":1857:1859  to */\n      dup12\n        /* \"contracts/ZkEvmL2MessageDispatcher.sol\":1861:1866  value */\n      dup12\n        /* \"contracts/ZkEvmL2MessageDispatcher.sol\":1868:1871  fee */\n      dup12\n        /* \"contracts/ZkEvmL2MessageDispatcher.sol\":1873:1881  deadline */\n      dup12\n        /* \"contracts/ZkEvmL2MessageDispatcher.sol\":1883:1888  nonce */\n      dup12\n        /* \"contracts/ZkEvmL2MessageDispatcher.sol\":1890:1894  data */\n      dup12\n      dup12\n        /* \"contracts/ZkEvmL2MessageDispatcher.sol\":1838:1850  _dropMessage */\n      tag_56\n        /* \"contracts/ZkEvmL2MessageDispatcher.sol\":1838:1895  _dropMessage(from, to, value, fee, deadline, nonce, data) */\n      jump\t// in\n    tag_55:\n        /* \"contracts/ZkEvmL2MessageDispatcher.sol\":1048:1900  {... */\n      pop\n        /* \"contracts/ZkEvmL2MessageDispatcher.sol\":842:1900  function dropMessage (... */\n      pop\n      pop\n      pop\n      pop\n      pop\n      pop\n      pop\n      pop\n      pop\n      pop\n      jump\t// out\n        /* \"contracts/ZkEvmL2MessageDispatcher.sol\":429:796  function dispatchMessage (... */\n    tag_18:\n        /* \"contracts/ZkEvmL2MessageDispatcher.sol\":593:612  bytes32 messageHash */\n      0x00\n        /* \"contracts/ZkEvmL2MessageDispatcher.sol\":669:670  0 */\n      dup1\n        /* \"contracts/ZkEvmL2MessageDispatcher.sol\":656:665  msg.value */\n      callvalue\n        /* \"contracts/ZkEvmL2MessageDispatcher.sol\":656:670  msg.value != 0 */\n      eq\n        /* \"contracts/ZkEvmL2MessageDispatcher.sol\":652:724  if (msg.value != 0) {... */\n      tag_58\n      jumpi\n        /* \"contracts/ZkEvmL2MessageDispatcher.sol\":680:717  _transferETH(L2_DELIVERER, msg.value) */\n      tag_59\n        /* \"contracts/ZkEvmMagicNumbers.sol\":172:214  0x0000000000000000000000000000000000010000 */\n      0x010000\n        /* \"contracts/ZkEvmL2MessageDispatcher.sol\":707:716  msg.value */\n      callvalue\n        /* \"contracts/ZkEvmL2MessageDispatcher.sol\":680:692  _transferETH */\n      tag_60\n        /* \"contracts/ZkEvmL2MessageDispatcher.sol\":680:717  _transferETH(L2_DELIVERER, msg.value) */\n      jump\t// in\n    tag_59:\n        /* \"contracts/ZkEvmL2MessageDispatcher.sol\":652:724  if (msg.value != 0) {... */\n    tag_58:\n        /* \"contracts/ZkEvmL2MessageDispatcher.sol\":743:791  _dispatchMessage(to, fee, deadline, nonce, data) */\n      tag_61\n        /* \"contracts/ZkEvmL2MessageDispatcher.sol\":760:762  to */\n      dup8\n        /* \"contracts/ZkEvmL2MessageDispatcher.sol\":764:767  fee */\n      dup8\n        /* \"contracts/ZkEvmL2MessageDispatcher.sol\":769:777  deadline */\n      dup8\n        /* \"contracts/ZkEvmL2MessageDispatcher.sol\":779:784  nonce */\n      dup8\n        /* \"contracts/ZkEvmL2MessageDispatcher.sol\":786:790  data */\n      dup8\n      dup8\n        /* \"contracts/ZkEvmL2MessageDispatcher.sol\":743:759  _dispatchMessage */\n      tag_62\n        /* \"contracts/ZkEvmL2MessageDispatcher.sol\":743:791  _dispatchMessage(to, fee, deadline, nonce, data) */\n      jump\t// in\n    tag_61:\n        /* \"contracts/ZkEvmL2MessageDispatcher.sol\":729:791  messageHash = _dispatchMessage(to, fee, deadline, nonce, data) */\n      swap1\n      pop\n        /* \"contracts/ZkEvmL2MessageDispatcher.sol\":429:796  function dispatchMessage (... */\n      swap7\n      swap6\n      pop\n      pop\n      pop\n      pop\n      pop\n      pop\n      jump\t// out\n        /* \"contracts/ZkEvmStorage.sol\":149:347  function _PENDING_MESSAGE_KEY (bytes32 messageId) internal pure returns (bytes32 ret) {... */\n    tag_39:\n        /* \"contracts/ZkEvmStorage.sol\":222:233  bytes32 ret */\n      0x00\n        /* \"contracts/ZkEvmStorage.sol\":268:278  0x31df76a4 */\n      0x31df76a4\n        /* \"contracts/ZkEvmStorage.sol\":265:266  0 */\n      0x00\n        /* \"contracts/ZkEvmStorage.sol\":258:279  mstore(0, 0x31df76a4) */\n      mstore\n        /* \"contracts/ZkEvmStorage.sol\":297:306  messageId */\n      dup2\n        /* \"contracts/ZkEvmStorage.sol\":293:295  32 */\n      0x20\n        /* \"contracts/ZkEvmStorage.sol\":286:307  mstore(32, messageId) */\n      mstore\n        /* \"contracts/ZkEvmStorage.sol\":334:336  64 */\n      0x40\n        /* \"contracts/ZkEvmStorage.sol\":331:332  0 */\n      0x00\n        /* \"contracts/ZkEvmStorage.sol\":321:337  keccak256(0, 64) */\n      keccak256\n        /* \"contracts/ZkEvmStorage.sol\":314:337  ret := keccak256(0, 64) */\n      swap1\n      pop\n        /* \"contracts/ZkEvmStorage.sol\":149:347  function _PENDING_MESSAGE_KEY (bytes32 messageId) internal pure returns (bytes32 ret) {... */\n      swap2\n      swap1\n      pop\n      jump\t// out\n        /* \"contracts/generated/PatriciaStorageValidator.sol\":95:11854  function _validatePatriciaStorageProof (... */\n    tag_40:\n        /* \"contracts/generated/PatriciaStorageValidator.sol\":216:235  bytes32 storageRoot */\n      0x00\n        /* \"contracts/generated/PatriciaStorageValidator.sol\":237:257  bytes32 storageValue */\n      dup1\n        /* \"contracts/generated/PatriciaStorageValidator.sol\":427:948  function decodeItem (word, len) -> ret {... */\n      jump(tag_81)\n    tag_65:\n        /* \"contracts/generated/PatriciaStorageValidator.sol\":462:465  ret */\n      0x00\n        /* \"contracts/generated/PatriciaStorageValidator.sol\":490:494  word */\n      dup2\n        /* \"contracts/generated/PatriciaStorageValidator.sol\":483:494  ret := word */\n      swap1\n      pop\n        /* \"contracts/generated/PatriciaStorageValidator.sol\":531:535  0x80 */\n      0x80\n        /* \"contracts/generated/PatriciaStorageValidator.sol\":525:529  word */\n      dup3\n        /* \"contracts/generated/PatriciaStorageValidator.sol\":522:536  lt(word, 0x80) */\n      lt\n        /* \"contracts/generated/PatriciaStorageValidator.sol\":543:548  leave */\n      tag_82\n        /* \"contracts/generated/PatriciaStorageValidator.sol\":519:552  if lt(word, 0x80) {... */\n      jumpi\n        /* \"contracts/generated/PatriciaStorageValidator.sol\":582:584  32 */\n      0x20\n        /* \"contracts/generated/PatriciaStorageValidator.sol\":577:580  len */\n      dup4\n        /* \"contracts/generated/PatriciaStorageValidator.sol\":574:585  gt(len, 32) */\n      gt\n        /* \"contracts/generated/PatriciaStorageValidator.sol\":592:597  leave */\n      tag_82\n        /* \"contracts/generated/PatriciaStorageValidator.sol\":571:601  if gt(len, 32) {... */\n      jumpi\n        /* \"contracts/generated/PatriciaStorageValidator.sol\":756:757  8 */\n      0x08\n        /* \"contracts/generated/PatriciaStorageValidator.sol\":751:754  len */\n      dup4\n        /* \"contracts/generated/PatriciaStorageValidator.sol\":747:758  mul(len, 8) */\n      mul\n        /* \"contracts/generated/PatriciaStorageValidator.sol\":808:809  8 */\n      0x08\n        /* \"contracts/generated/PatriciaStorageValidator.sol\":802:806  bits */\n      dup2\n        /* \"contracts/generated/PatriciaStorageValidator.sol\":798:810  sub(bits, 8) */\n      sub\n        /* \"contracts/generated/PatriciaStorageValidator.sol\":790:810  bits := sub(bits, 8) */\n      swap1\n      pop\n        /* \"contracts/generated/PatriciaStorageValidator.sol\":835:839  0xff */\n      0xff\n        /* \"contracts/generated/PatriciaStorageValidator.sol\":829:833  bits */\n      dup2\n        /* \"contracts/generated/PatriciaStorageValidator.sol\":825:840  shl(bits, 0xff) */\n      shl\n        /* \"contracts/generated/PatriciaStorageValidator.sol\":876:880  mask */\n      dup1\n        /* \"contracts/generated/PatriciaStorageValidator.sol\":872:881  not(mask) */\n      not\n        /* \"contracts/generated/PatriciaStorageValidator.sol\":864:881  mask := not(mask) */\n      swap1\n      pop\n        /* \"contracts/generated/PatriciaStorageValidator.sol\":941:945  mask */\n      dup1\n        /* \"contracts/generated/PatriciaStorageValidator.sol\":936:939  ret */\n      dup4\n        /* \"contracts/generated/PatriciaStorageValidator.sol\":932:946  and(ret, mask) */\n      and\n        /* \"contracts/generated/PatriciaStorageValidator.sol\":925:946  ret := and(ret, mask) */\n      swap3\n      pop\n        /* \"contracts/generated/PatriciaStorageValidator.sol\":466:948  {... */\n      pop\n      pop\n        /* \"contracts/generated/PatriciaStorageValidator.sol\":427:948  function decodeItem (word, len) -> ret {... */\n    tag_82:\n      swap3\n      swap2\n      pop\n      pop\n      jump\t// out\n        /* \"contracts/generated/PatriciaStorageValidator.sol\":1057:1760  function decodeListLength (ptr) -> len, startOffset {... */\n    tag_66:\n        /* \"contracts/generated/PatriciaStorageValidator.sol\":1092:1095  len */\n      0x00\n        /* \"contracts/generated/PatriciaStorageValidator.sol\":1097:1108  startOffset */\n      dup1\n        /* \"contracts/generated/PatriciaStorageValidator.sol\":1151:1154  ptr */\n      dup3\n        /* \"contracts/generated/PatriciaStorageValidator.sol\":1138:1155  calldataload(ptr) */\n      calldataload\n        /* \"contracts/generated/PatriciaStorageValidator.sol\":1135:1136  0 */\n      0x00\n        /* \"contracts/generated/PatriciaStorageValidator.sol\":1130:1156  byte(0, calldataload(ptr)) */\n      byte\n        /* \"contracts/generated/PatriciaStorageValidator.sol\":1228:1232  0xf8 */\n      0xf8\n        /* \"contracts/generated/PatriciaStorageValidator.sol\":1217:1226  firstByte */\n      dup2\n        /* \"contracts/generated/PatriciaStorageValidator.sol\":1214:1233  lt(firstByte, 0xf8) */\n      lt\n        /* \"contracts/generated/PatriciaStorageValidator.sol\":1211:1312  if lt(firstByte, 0xf8) {... */\n      iszero\n      tag_86\n      jumpi\n        /* \"contracts/generated/PatriciaStorageValidator.sol\":1262:1266  0xbf */\n      0xbf\n        /* \"contracts/generated/PatriciaStorageValidator.sol\":1251:1260  firstByte */\n      dup2\n        /* \"contracts/generated/PatriciaStorageValidator.sol\":1247:1267  sub(firstByte, 0xbf) */\n      sub\n        /* \"contracts/generated/PatriciaStorageValidator.sol\":1240:1267  len := sub(firstByte, 0xbf) */\n      swap3\n      pop\n        /* \"contracts/generated/PatriciaStorageValidator.sol\":1296:1297  1 */\n      0x01\n        /* \"contracts/generated/PatriciaStorageValidator.sol\":1291:1294  ptr */\n      dup5\n        /* \"contracts/generated/PatriciaStorageValidator.sol\":1287:1298  add(ptr, 1) */\n      add\n        /* \"contracts/generated/PatriciaStorageValidator.sol\":1272:1298  startOffset := add(ptr, 1) */\n      swap2\n      pop\n        /* \"contracts/generated/PatriciaStorageValidator.sol\":1303:1308  leave */\n      pop\n      jump(tag_85)\n        /* \"contracts/generated/PatriciaStorageValidator.sol\":1211:1312  if lt(firstByte, 0xf8) {... */\n    tag_86:\n        /* \"contracts/generated/PatriciaStorageValidator.sol\":1398:1402  0xf7 */\n      0xf7\n        /* \"contracts/generated/PatriciaStorageValidator.sol\":1387:1396  firstByte */\n      dup2\n        /* \"contracts/generated/PatriciaStorageValidator.sol\":1383:1403  sub(firstByte, 0xf7) */\n      sub\n        /* \"contracts/generated/PatriciaStorageValidator.sol\":1421:1422  4 */\n      0x04\n        /* \"contracts/generated/PatriciaStorageValidator.sol\":1414:1419  lenOf */\n      dup2\n        /* \"contracts/generated/PatriciaStorageValidator.sol\":1411:1423  gt(lenOf, 4) */\n      gt\n        /* \"contracts/generated/PatriciaStorageValidator.sol\":1408:1447  if gt(lenOf, 4) {... */\n      iszero\n      tag_87\n      jumpi\n        /* \"contracts/generated/PatriciaStorageValidator.sol\":1432:1441  invalid() */\n      invalid\n        /* \"contracts/generated/PatriciaStorageValidator.sol\":1408:1447  if gt(lenOf, 4) {... */\n    tag_87:\n        /* \"contracts/generated/PatriciaStorageValidator.sol\":1509:1510  1 */\n      0x01\n        /* \"contracts/generated/PatriciaStorageValidator.sol\":1504:1507  ptr */\n      dup6\n        /* \"contracts/generated/PatriciaStorageValidator.sol\":1500:1511  add(ptr, 1) */\n      add\n        /* \"contracts/generated/PatriciaStorageValidator.sol\":1485:1511  startOffset := add(ptr, 1) */\n      swap3\n      pop\n        /* \"contracts/generated/PatriciaStorageValidator.sol\":1548:1559  startOffset */\n      dup3\n        /* \"contracts/generated/PatriciaStorageValidator.sol\":1535:1560  calldataload(startOffset) */\n      calldataload\n        /* \"contracts/generated/PatriciaStorageValidator.sol\":1597:1598  8 */\n      0x08\n        /* \"contracts/generated/PatriciaStorageValidator.sol\":1590:1595  lenOf */\n      dup3\n        /* \"contracts/generated/PatriciaStorageValidator.sol\":1586:1599  mul(lenOf, 8) */\n      mul\n        /* \"contracts/generated/PatriciaStorageValidator.sol\":1581:1584  256 */\n      0x0100\n        /* \"contracts/generated/PatriciaStorageValidator.sol\":1577:1600  sub(256, mul(lenOf, 8)) */\n      sub\n        /* \"contracts/generated/PatriciaStorageValidator.sol\":1630:1641  extendedLen */\n      dup2\n        /* \"contracts/generated/PatriciaStorageValidator.sol\":1624:1628  bits */\n      dup2\n        /* \"contracts/generated/PatriciaStorageValidator.sol\":1620:1642  shr(bits, extendedLen) */\n      shr\n        /* \"contracts/generated/PatriciaStorageValidator.sol\":1605:1642  extendedLen := shr(bits, extendedLen) */\n      swap2\n      pop\n        /* \"contracts/generated/PatriciaStorageValidator.sol\":1672:1677  lenOf */\n      dup3\n        /* \"contracts/generated/PatriciaStorageValidator.sol\":1659:1670  extendedLen */\n      dup3\n        /* \"contracts/generated/PatriciaStorageValidator.sol\":1655:1678  add(extendedLen, lenOf) */\n      add\n        /* \"contracts/generated/PatriciaStorageValidator.sol\":1648:1678  len := add(extendedLen, lenOf) */\n      swap6\n      pop\n        /* \"contracts/generated/PatriciaStorageValidator.sol\":1699:1700  1 */\n      0x01\n        /* \"contracts/generated/PatriciaStorageValidator.sol\":1694:1697  len */\n      dup7\n        /* \"contracts/generated/PatriciaStorageValidator.sol\":1690:1701  add(len, 1) */\n      add\n        /* \"contracts/generated/PatriciaStorageValidator.sol\":1683:1701  len := add(len, 1) */\n      swap6\n      pop\n        /* \"contracts/generated/PatriciaStorageValidator.sol\":1738:1743  lenOf */\n      dup3\n        /* \"contracts/generated/PatriciaStorageValidator.sol\":1725:1736  startOffset */\n      dup6\n        /* \"contracts/generated/PatriciaStorageValidator.sol\":1721:1744  add(startOffset, lenOf) */\n      add\n        /* \"contracts/generated/PatriciaStorageValidator.sol\":1706:1744  startOffset := add(startOffset, lenOf) */\n      swap5\n      pop\n        /* \"contracts/generated/PatriciaStorageValidator.sol\":1749:1754  leave */\n      pop\n      pop\n      pop\n      pop\n        /* \"contracts/generated/PatriciaStorageValidator.sol\":1057:1760  function decodeListLength (ptr) -> len, startOffset {... */\n    tag_85:\n      swap2\n      pop\n      swap2\n      jump\t// out\n        /* \"contracts/generated/PatriciaStorageValidator.sol\":1897:3140  function decodeValue (ptr) -> dataLen, valueOffset, isData {... */\n    tag_67:\n        /* \"contracts/generated/PatriciaStorageValidator.sol\":1927:1934  dataLen */\n      0x00\n        /* \"contracts/generated/PatriciaStorageValidator.sol\":1936:1947  valueOffset */\n      dup1\n        /* \"contracts/generated/PatriciaStorageValidator.sol\":1949:1955  isData */\n      0x00\n        /* \"contracts/generated/PatriciaStorageValidator.sol\":1998:2001  ptr */\n      dup4\n        /* \"contracts/generated/PatriciaStorageValidator.sol\":1985:2002  calldataload(ptr) */\n      calldataload\n        /* \"contracts/generated/PatriciaStorageValidator.sol\":1982:1983  0 */\n      0x00\n        /* \"contracts/generated/PatriciaStorageValidator.sol\":1977:2003  byte(0, calldataload(ptr)) */\n      byte\n        /* \"contracts/generated/PatriciaStorageValidator.sol\":2058:2062  0x80 */\n      0x80\n        /* \"contracts/generated/PatriciaStorageValidator.sol\":2047:2056  firstByte */\n      dup2\n        /* \"contracts/generated/PatriciaStorageValidator.sol\":2044:2063  lt(firstByte, 0x80) */\n      lt\n        /* \"contracts/generated/PatriciaStorageValidator.sol\":2041:2135  if lt(firstByte, 0x80) {... */\n      iszero\n      tag_89\n      jumpi\n        /* \"contracts/generated/PatriciaStorageValidator.sol\":2081:2082  1 */\n      0x01\n        /* \"contracts/generated/PatriciaStorageValidator.sol\":2070:2082  dataLen := 1 */\n      swap4\n      pop\n        /* \"contracts/generated/PatriciaStorageValidator.sol\":2102:2105  ptr */\n      dup5\n        /* \"contracts/generated/PatriciaStorageValidator.sol\":2087:2105  valueOffset := ptr */\n      swap3\n      pop\n        /* \"contracts/generated/PatriciaStorageValidator.sol\":2120:2121  1 */\n      0x01\n        /* \"contracts/generated/PatriciaStorageValidator.sol\":2110:2121  isData := 1 */\n      swap2\n      pop\n        /* \"contracts/generated/PatriciaStorageValidator.sol\":2126:2131  leave */\n      pop\n      jump(tag_88)\n        /* \"contracts/generated/PatriciaStorageValidator.sol\":2041:2135  if lt(firstByte, 0x80) {... */\n    tag_89:\n        /* \"contracts/generated/PatriciaStorageValidator.sol\":2211:2215  0xb8 */\n      0xb8\n        /* \"contracts/generated/PatriciaStorageValidator.sol\":2200:2209  firstByte */\n      dup2\n        /* \"contracts/generated/PatriciaStorageValidator.sol\":2197:2216  lt(firstByte, 0xb8) */\n      lt\n        /* \"contracts/generated/PatriciaStorageValidator.sol\":2194:2315  if lt(firstByte, 0xb8) {... */\n      iszero\n      tag_90\n      jumpi\n        /* \"contracts/generated/PatriciaStorageValidator.sol\":2249:2253  0x80 */\n      0x80\n        /* \"contracts/generated/PatriciaStorageValidator.sol\":2238:2247  firstByte */\n      dup2\n        /* \"contracts/generated/PatriciaStorageValidator.sol\":2234:2254  sub(firstByte, 0x80) */\n      sub\n        /* \"contracts/generated/PatriciaStorageValidator.sol\":2223:2254  dataLen := sub(firstByte, 0x80) */\n      swap4\n      pop\n        /* \"contracts/generated/PatriciaStorageValidator.sol\":2283:2284  1 */\n      0x01\n        /* \"contracts/generated/PatriciaStorageValidator.sol\":2278:2281  ptr */\n      dup6\n        /* \"contracts/generated/PatriciaStorageValidator.sol\":2274:2285  add(ptr, 1) */\n      add\n        /* \"contracts/generated/PatriciaStorageValidator.sol\":2259:2285  valueOffset := add(ptr, 1) */\n      swap3\n      pop\n        /* \"contracts/generated/PatriciaStorageValidator.sol\":2300:2301  1 */\n      0x01\n        /* \"contracts/generated/PatriciaStorageValidator.sol\":2290:2301  isData := 1 */\n      swap2\n      pop\n        /* \"contracts/generated/PatriciaStorageValidator.sol\":2306:2311  leave */\n      pop\n      jump(tag_88)\n        /* \"contracts/generated/PatriciaStorageValidator.sol\":2194:2315  if lt(firstByte, 0xb8) {... */\n    tag_90:\n        /* \"contracts/generated/PatriciaStorageValidator.sol\":2389:2393  0xc0 */\n      0xc0\n        /* \"contracts/generated/PatriciaStorageValidator.sol\":2378:2387  firstByte */\n      dup2\n        /* \"contracts/generated/PatriciaStorageValidator.sol\":2375:2394  lt(firstByte, 0xc0) */\n      lt\n        /* \"contracts/generated/PatriciaStorageValidator.sol\":2372:2774  if lt(firstByte, 0xc0) {... */\n      iszero\n      tag_91\n      jumpi\n        /* \"contracts/generated/PatriciaStorageValidator.sol\":2429:2433  0xb7 */\n      0xb7\n        /* \"contracts/generated/PatriciaStorageValidator.sol\":2418:2427  firstByte */\n      dup2\n        /* \"contracts/generated/PatriciaStorageValidator.sol\":2414:2434  sub(firstByte, 0xb7) */\n      sub\n        /* \"contracts/generated/PatriciaStorageValidator.sol\":2452:2453  4 */\n      0x04\n        /* \"contracts/generated/PatriciaStorageValidator.sol\":2445:2450  lenOf */\n      dup2\n        /* \"contracts/generated/PatriciaStorageValidator.sol\":2442:2454  gt(lenOf, 4) */\n      gt\n        /* \"contracts/generated/PatriciaStorageValidator.sol\":2439:2478  if gt(lenOf, 4) {... */\n      iszero\n      tag_92\n      jumpi\n        /* \"contracts/generated/PatriciaStorageValidator.sol\":2463:2472  invalid() */\n      invalid\n        /* \"contracts/generated/PatriciaStorageValidator.sol\":2439:2478  if gt(lenOf, 4) {... */\n    tag_92:\n        /* \"contracts/generated/PatriciaStorageValidator.sol\":2540:2541  1 */\n      0x01\n        /* \"contracts/generated/PatriciaStorageValidator.sol\":2535:2538  ptr */\n      dup7\n        /* \"contracts/generated/PatriciaStorageValidator.sol\":2531:2542  add(ptr, 1) */\n      add\n        /* \"contracts/generated/PatriciaStorageValidator.sol\":2516:2542  valueOffset := add(ptr, 1) */\n      swap4\n      pop\n        /* \"contracts/generated/PatriciaStorageValidator.sol\":2579:2590  valueOffset */\n      dup4\n        /* \"contracts/generated/PatriciaStorageValidator.sol\":2566:2591  calldataload(valueOffset) */\n      calldataload\n        /* \"contracts/generated/PatriciaStorageValidator.sol\":2628:2629  8 */\n      0x08\n        /* \"contracts/generated/PatriciaStorageValidator.sol\":2621:2626  lenOf */\n      dup3\n        /* \"contracts/generated/PatriciaStorageValidator.sol\":2617:2630  mul(lenOf, 8) */\n      mul\n        /* \"contracts/generated/PatriciaStorageValidator.sol\":2612:2615  256 */\n      0x0100\n        /* \"contracts/generated/PatriciaStorageValidator.sol\":2608:2631  sub(256, mul(lenOf, 8)) */\n      sub\n        /* \"contracts/generated/PatriciaStorageValidator.sol\":2661:2672  extendedLen */\n      dup2\n        /* \"contracts/generated/PatriciaStorageValidator.sol\":2655:2659  bits */\n      dup2\n        /* \"contracts/generated/PatriciaStorageValidator.sol\":2651:2673  shr(bits, extendedLen) */\n      shr\n        /* \"contracts/generated/PatriciaStorageValidator.sol\":2636:2673  extendedLen := shr(bits, extendedLen) */\n      swap2\n      pop\n        /* \"contracts/generated/PatriciaStorageValidator.sol\":2690:2701  extendedLen */\n      dup2\n        /* \"contracts/generated/PatriciaStorageValidator.sol\":2679:2701  dataLen := extendedLen */\n      swap7\n      pop\n        /* \"contracts/generated/PatriciaStorageValidator.sol\":2738:2743  lenOf */\n      dup3\n        /* \"contracts/generated/PatriciaStorageValidator.sol\":2725:2736  valueOffset */\n      dup7\n        /* \"contracts/generated/PatriciaStorageValidator.sol\":2721:2744  add(valueOffset, lenOf) */\n      add\n        /* \"contracts/generated/PatriciaStorageValidator.sol\":2706:2744  valueOffset := add(valueOffset, lenOf) */\n      swap6\n      pop\n        /* \"contracts/generated/PatriciaStorageValidator.sol\":2759:2760  1 */\n      0x01\n        /* \"contracts/generated/PatriciaStorageValidator.sol\":2749:2760  isData := 1 */\n      swap5\n      pop\n        /* \"contracts/generated/PatriciaStorageValidator.sol\":2765:2770  leave */\n      pop\n      pop\n      pop\n      pop\n      jump(tag_88)\n        /* \"contracts/generated/PatriciaStorageValidator.sol\":2372:2774  if lt(firstByte, 0xc0) {... */\n    tag_91:\n        /* \"contracts/generated/PatriciaStorageValidator.sol\":2846:2850  0xf8 */\n      0xf8\n        /* \"contracts/generated/PatriciaStorageValidator.sol\":2835:2844  firstByte */\n      dup2\n        /* \"contracts/generated/PatriciaStorageValidator.sol\":2832:2851  lt(firstByte, 0xf8) */\n      lt\n        /* \"contracts/generated/PatriciaStorageValidator.sol\":2829:2966  if lt(firstByte, 0xf8) {... */\n      iszero\n      tag_93\n      jumpi\n        /* \"contracts/generated/PatriciaStorageValidator.sol\":2950:2951  1 */\n      0x01\n        /* \"contracts/generated/PatriciaStorageValidator.sol\":2945:2948  ptr */\n      dup6\n        /* \"contracts/generated/PatriciaStorageValidator.sol\":2941:2952  add(ptr, 1) */\n      add\n        /* \"contracts/generated/PatriciaStorageValidator.sol\":2926:2952  valueOffset := add(ptr, 1) */\n      swap3\n      pop\n        /* \"contracts/generated/PatriciaStorageValidator.sol\":2957:2962  leave */\n      pop\n      jump(tag_88)\n        /* \"contracts/generated/PatriciaStorageValidator.sol\":2829:2966  if lt(firstByte, 0xf8) {... */\n    tag_93:\n        /* \"contracts/generated/PatriciaStorageValidator.sol\":3088:3092  0xf7 */\n      0xf7\n        /* \"contracts/generated/PatriciaStorageValidator.sol\":3077:3086  firstByte */\n      dup2\n        /* \"contracts/generated/PatriciaStorageValidator.sol\":3073:3093  sub(firstByte, 0xf7) */\n      sub\n        /* \"contracts/generated/PatriciaStorageValidator.sol\":3062:3093  dataLen := sub(firstByte, 0xf7) */\n      swap4\n      pop\n        /* \"contracts/generated/PatriciaStorageValidator.sol\":3122:3123  1 */\n      0x01\n        /* \"contracts/generated/PatriciaStorageValidator.sol\":3117:3120  ptr */\n      dup6\n        /* \"contracts/generated/PatriciaStorageValidator.sol\":3113:3124  add(ptr, 1) */\n      add\n        /* \"contracts/generated/PatriciaStorageValidator.sol\":3098:3124  valueOffset := add(ptr, 1) */\n      swap3\n      pop\n        /* \"contracts/generated/PatriciaStorageValidator.sol\":3129:3134  leave */\n      pop\n        /* \"contracts/generated/PatriciaStorageValidator.sol\":1897:3140  function decodeValue (ptr) -> dataLen, valueOffset, isData {... */\n    tag_88:\n      swap2\n      swap4\n      swap1\n      swap3\n      pop\n      jump\t// out\n        /* \"contracts/generated/PatriciaStorageValidator.sol\":3379:4268  function decodeFlat (_ptr) -> ptr, memStart, nItems, hash {... */\n    tag_68:\n        /* \"contracts/generated/PatriciaStorageValidator.sol\":3409:3412  ptr */\n      0x00\n        /* \"contracts/generated/PatriciaStorageValidator.sol\":3414:3422  memStart */\n      dup1\n        /* \"contracts/generated/PatriciaStorageValidator.sol\":3424:3430  nItems */\n      0x00\n        /* \"contracts/generated/PatriciaStorageValidator.sol\":3432:3436  hash */\n      dup1\n        /* \"contracts/generated/PatriciaStorageValidator.sol\":3448:3452  _ptr */\n      dup5\n        /* \"contracts/generated/PatriciaStorageValidator.sol\":3441:3452  ptr := _ptr */\n      swap4\n      pop\n        /* \"contracts/generated/PatriciaStorageValidator.sol\":3563:3565  64 */\n      0x40\n        /* \"contracts/generated/PatriciaStorageValidator.sol\":3557:3566  mload(64) */\n      mload\n        /* \"contracts/generated/PatriciaStorageValidator.sol\":3545:3566  memStart := mload(64) */\n      swap3\n      pop\n        /* \"contracts/generated/PatriciaStorageValidator.sol\":3601:3622  decodeListLength(ptr) */\n      tag_95\n        /* \"contracts/generated/PatriciaStorageValidator.sol\":3618:3621  ptr */\n      dup5\n        /* \"contracts/generated/PatriciaStorageValidator.sol\":3601:3622  decodeListLength(ptr) */\n      tag_66\n      jump\t// in\n    tag_95:\n        /* \"contracts/generated/PatriciaStorageValidator.sol\":3689:3699  payloadLen */\n      dup2\n        /* \"contracts/generated/PatriciaStorageValidator.sol\":3684:3687  ptr */\n      dup7\n        /* \"contracts/generated/PatriciaStorageValidator.sol\":3674:3682  memStart */\n      dup7\n        /* \"contracts/generated/PatriciaStorageValidator.sol\":3661:3700  calldatacopy(memStart, ptr, payloadLen) */\n      calldatacopy\n        /* \"contracts/generated/PatriciaStorageValidator.sol\":3731:3741  payloadLen */\n      dup2\n        /* \"contracts/generated/PatriciaStorageValidator.sol\":3721:3729  memStart */\n      dup6\n        /* \"contracts/generated/PatriciaStorageValidator.sol\":3711:3742  keccak256(memStart, payloadLen) */\n      keccak256\n        /* \"contracts/generated/PatriciaStorageValidator.sol\":3703:3742  hash := keccak256(memStart, payloadLen) */\n      swap3\n      pop\n        /* \"contracts/generated/PatriciaStorageValidator.sol\":3760:3768  memStart */\n      dup5\n        /* \"contracts/generated/PatriciaStorageValidator.sol\":3795:3805  payloadLen */\n      dup3\n        /* \"contracts/generated/PatriciaStorageValidator.sol\":3790:3793  ptr */\n      dup8\n        /* \"contracts/generated/PatriciaStorageValidator.sol\":3786:3806  add(ptr, payloadLen) */\n      add\n        /* \"contracts/generated/PatriciaStorageValidator.sol\":3816:3827  startOffset */\n      dup3\n        /* \"contracts/generated/PatriciaStorageValidator.sol\":3809:3827  ptr := startOffset */\n      swap8\n      pop\n        /* \"contracts/generated/PatriciaStorageValidator.sol\":3869:4169  for {} lt(ptr, ptrStop) {} {... */\n    tag_96:\n        /* \"contracts/generated/PatriciaStorageValidator.sol\":3884:3891  ptrStop */\n      dup1\n        /* \"contracts/generated/PatriciaStorageValidator.sol\":3879:3882  ptr */\n      dup9\n        /* \"contracts/generated/PatriciaStorageValidator.sol\":3876:3892  lt(ptr, ptrStop) */\n      lt\n        /* \"contracts/generated/PatriciaStorageValidator.sol\":3869:4169  for {} lt(ptr, ptrStop) {} {... */\n      iszero\n      tag_98\n      jumpi\n        /* \"contracts/generated/PatriciaStorageValidator.sol\":3931:3947  decodeValue(ptr) */\n      tag_99\n        /* \"contracts/generated/PatriciaStorageValidator.sol\":3943:3946  ptr */\n      dup9\n        /* \"contracts/generated/PatriciaStorageValidator.sol\":3931:3947  decodeValue(ptr) */\n      tag_67\n      jump\t// in\n    tag_99:\n        /* \"contracts/generated/PatriciaStorageValidator.sol\":3968:3976  valuePtr */\n      dup2\n        /* \"contracts/generated/PatriciaStorageValidator.sol\":3963:3966  len */\n      dup4\n        /* \"contracts/generated/PatriciaStorageValidator.sol\":3959:3977  add(len, valuePtr) */\n      add\n        /* \"contracts/generated/PatriciaStorageValidator.sol\":3952:3977  ptr := add(len, valuePtr) */\n      swap11\n      pop\n        /* \"contracts/generated/PatriciaStorageValidator.sol\":3986:3992  isData */\n      dup1\n        /* \"contracts/generated/PatriciaStorageValidator.sol\":3983:4165  if isData {... */\n      iszero\n      tag_100\n      jumpi\n        /* \"contracts/generated/PatriciaStorageValidator.sol\":4092:4100  valuePtr */\n      dup2\n        /* \"contracts/generated/PatriciaStorageValidator.sol\":4086:4089  len */\n      dup4\n        /* \"contracts/generated/PatriciaStorageValidator.sol\":4081:4084  128 */\n      0x80\n        /* \"contracts/generated/PatriciaStorageValidator.sol\":4077:4090  shl(128, len) */\n      shl\n        /* \"contracts/generated/PatriciaStorageValidator.sol\":4074:4101  or(shl(128, len), valuePtr) */\n      or\n        /* \"contracts/generated/PatriciaStorageValidator.sol\":4123:4126  tmp */\n      dup1\n        /* \"contracts/generated/PatriciaStorageValidator.sol\":4115:4121  memPtr */\n      dup7\n        /* \"contracts/generated/PatriciaStorageValidator.sol\":4108:4127  mstore(memPtr, tmp) */\n      mstore\n        /* \"contracts/generated/PatriciaStorageValidator.sol\":4156:4158  32 */\n      0x20\n        /* \"contracts/generated/PatriciaStorageValidator.sol\":4148:4154  memPtr */\n      dup7\n        /* \"contracts/generated/PatriciaStorageValidator.sol\":4144:4159  add(memPtr, 32) */\n      add\n        /* \"contracts/generated/PatriciaStorageValidator.sol\":4134:4159  memPtr := add(memPtr, 32) */\n      swap6\n      pop\n        /* \"contracts/generated/PatriciaStorageValidator.sol\":3993:4165  {... */\n      pop\n        /* \"contracts/generated/PatriciaStorageValidator.sol\":3983:4165  if isData {... */\n    tag_100:\n        /* \"contracts/generated/PatriciaStorageValidator.sol\":3896:4169  {... */\n      pop\n      pop\n      pop\n        /* \"contracts/generated/PatriciaStorageValidator.sol\":3869:4169  for {} lt(ptr, ptrStop) {} {... */\n      jump(tag_96)\n    tag_98:\n        /* \"contracts/generated/PatriciaStorageValidator.sol\":4191:4198  ptrStop */\n      dup1\n        /* \"contracts/generated/PatriciaStorageValidator.sol\":4186:4189  ptr */\n      dup9\n        /* \"contracts/generated/PatriciaStorageValidator.sol\":4183:4199  eq(ptr, ptrStop) */\n      eq\n        /* \"contracts/generated/PatriciaStorageValidator.sol\":4173:4220  if iszero(eq(ptr, ptrStop)) {... */\n      tag_101\n      jumpi\n        /* \"contracts/generated/PatriciaStorageValidator.sol\":4207:4216  invalid() */\n      invalid\n        /* \"contracts/generated/PatriciaStorageValidator.sol\":4173:4220  if iszero(eq(ptr, ptrStop)) {... */\n    tag_101:\n        /* \"contracts/generated/PatriciaStorageValidator.sol\":4262:4264  32 */\n      0x20\n        /* \"contracts/generated/PatriciaStorageValidator.sol\":4251:4259  memStart */\n      dup8\n        /* \"contracts/generated/PatriciaStorageValidator.sol\":4243:4249  memPtr */\n      dup4\n        /* \"contracts/generated/PatriciaStorageValidator.sol\":4239:4260  sub(memPtr, memStart) */\n      sub\n        /* \"contracts/generated/PatriciaStorageValidator.sol\":4234:4266  div( sub(memPtr, memStart), 32 ) */\n      div\n        /* \"contracts/generated/PatriciaStorageValidator.sol\":4224:4266  nItems := div( sub(memPtr, memStart), 32 ) */\n      swap6\n      pop\n        /* \"contracts/generated/PatriciaStorageValidator.sol\":3437:4268  {... */\n      pop\n      pop\n      pop\n      pop\n        /* \"contracts/generated/PatriciaStorageValidator.sol\":3379:4268  function decodeFlat (_ptr) -> ptr, memStart, nItems, hash {... */\n      swap2\n      swap4\n      pop\n      swap2\n      swap4\n      jump\t// out\n        /* \"contracts/generated/PatriciaStorageValidator.sol\":4296:4366  function keccak_32 (v) -> r {... */\n    tag_69:\n        /* \"contracts/generated/PatriciaStorageValidator.sol\":4322:4323  r */\n      0x00\n        /* \"contracts/generated/PatriciaStorageValidator.sol\":4338:4339  v */\n      dup2\n        /* \"contracts/generated/PatriciaStorageValidator.sol\":4335:4336  0 */\n      0x00\n        /* \"contracts/generated/PatriciaStorageValidator.sol\":4328:4340  mstore(0, v) */\n      mstore\n        /* \"contracts/generated/PatriciaStorageValidator.sol\":4361:4363  32 */\n      0x20\n        /* \"contracts/generated/PatriciaStorageValidator.sol\":4358:4359  0 */\n      0x00\n        /* \"contracts/generated/PatriciaStorageValidator.sol\":4348:4364  keccak256(0, 32) */\n      keccak256\n        /* \"contracts/generated/PatriciaStorageValidator.sol\":4343:4364  r := keccak256(0, 32) */\n      swap1\n      pop\n        /* \"contracts/generated/PatriciaStorageValidator.sol\":4296:4366  function keccak_32 (v) -> r {... */\n      swap2\n      swap1\n      pop\n      jump\t// out\n        /* \"contracts/generated/PatriciaStorageValidator.sol\":4717:5152  function derivePath (key, depth) -> path {... */\n    tag_71:\n        /* \"contracts/generated/PatriciaStorageValidator.sol\":4753:4757  path */\n      0x00\n        /* \"contracts/generated/PatriciaStorageValidator.sol\":4770:4773  key */\n      dup2\n        /* \"contracts/generated/PatriciaStorageValidator.sol\":4762:4773  path := key */\n      swap1\n      pop\n        /* \"contracts/generated/PatriciaStorageValidator.sol\":4800:4801  4 */\n      0x04\n        /* \"contracts/generated/PatriciaStorageValidator.sol\":4793:4798  depth */\n      dup4\n        /* \"contracts/generated/PatriciaStorageValidator.sol\":4789:4802  mul(depth, 4) */\n      mul\n        /* \"contracts/generated/PatriciaStorageValidator.sol\":4827:4828  0 */\n      0x00\n        /* \"contracts/generated/PatriciaStorageValidator.sol\":4823:4829  not(0) */\n      not\n        /* \"contracts/generated/PatriciaStorageValidator.sol\":4852:4856  mask */\n      dup1\n        /* \"contracts/generated/PatriciaStorageValidator.sol\":4846:4850  bits */\n      dup3\n        /* \"contracts/generated/PatriciaStorageValidator.sol\":4842:4857  shr(bits, mask) */\n      shr\n        /* \"contracts/generated/PatriciaStorageValidator.sol\":4834:4857  mask := shr(bits, mask) */\n      swap1\n      pop\n        /* \"contracts/generated/PatriciaStorageValidator.sol\":4880:4884  mask */\n      dup1\n        /* \"contracts/generated/PatriciaStorageValidator.sol\":4874:4878  path */\n      dup4\n        /* \"contracts/generated/PatriciaStorageValidator.sol\":4870:4885  and(path, mask) */\n      and\n        /* \"contracts/generated/PatriciaStorageValidator.sol\":4862:4885  path := and(path, mask) */\n      swap3\n      pop\n        /* \"contracts/generated/PatriciaStorageValidator.sol\":4805:4889  {... */\n      pop\n        /* \"contracts/generated/PatriciaStorageValidator.sol\":4924:4928  0x20 */\n      0x20\n        /* \"contracts/generated/PatriciaStorageValidator.sol\":4945:4946  2 */\n      0x02\n        /* \"contracts/generated/PatriciaStorageValidator.sol\":4938:4943  depth */\n      dup6\n        /* \"contracts/generated/PatriciaStorageValidator.sol\":4934:4947  mod(depth, 2) */\n      mod\n        /* \"contracts/generated/PatriciaStorageValidator.sol\":4931:4982  if mod(depth, 2) {... */\n      iszero\n      tag_105\n      jumpi\n        /* \"contracts/generated/PatriciaStorageValidator.sol\":4975:4978  0x3 */\n      0x03\n        /* \"contracts/generated/PatriciaStorageValidator.sol\":4965:4978  prefix := 0x3 */\n      swap1\n      pop\n        /* \"contracts/generated/PatriciaStorageValidator.sol\":4931:4982  if mod(depth, 2) {... */\n    tag_105:\n        /* \"contracts/generated/PatriciaStorageValidator.sol\":5088:5092  bits */\n      dup2\n        /* \"contracts/generated/PatriciaStorageValidator.sol\":5083:5086  256 */\n      0x0100\n        /* \"contracts/generated/PatriciaStorageValidator.sol\":5079:5093  sub(256, bits) */\n      sub\n        /* \"contracts/generated/PatriciaStorageValidator.sol\":5071:5093  bits := sub(256, bits) */\n      swap2\n      pop\n        /* \"contracts/generated/PatriciaStorageValidator.sol\":5116:5122  prefix */\n      dup1\n        /* \"contracts/generated/PatriciaStorageValidator.sol\":5110:5114  bits */\n      dup3\n        /* \"contracts/generated/PatriciaStorageValidator.sol\":5106:5123  shl(bits, prefix) */\n      shl\n        /* \"contracts/generated/PatriciaStorageValidator.sol\":5096:5123  prefix := shl(bits, prefix) */\n      swap1\n      pop\n        /* \"contracts/generated/PatriciaStorageValidator.sol\":5145:5149  path */\n      dup3\n        /* \"contracts/generated/PatriciaStorageValidator.sol\":5137:5143  prefix */\n      dup2\n        /* \"contracts/generated/PatriciaStorageValidator.sol\":5134:5150  or(prefix, path) */\n      or\n        /* \"contracts/generated/PatriciaStorageValidator.sol\":5126:5150  path := or(prefix, path) */\n      swap3\n      pop\n        /* \"contracts/generated/PatriciaStorageValidator.sol\":4758:5152  {... */\n      pop\n      pop\n        /* \"contracts/generated/PatriciaStorageValidator.sol\":4717:5152  function derivePath (key, depth) -> path {... */\n      swap3\n      swap2\n      pop\n      pop\n      jump\t// out\n        /* \"contracts/generated/PatriciaStorageValidator.sol\":5241:5855  function loadValue (memPtr, idx) -> value {... */\n    tag_72:\n        /* \"contracts/generated/PatriciaStorageValidator.sol\":5277:5282  value */\n      0x00\n        /* \"contracts/generated/PatriciaStorageValidator.sol\":5324:5327  idx */\n      dup3\n        /* \"contracts/generated/PatriciaStorageValidator.sol\":5320:5322  32 */\n      0x20\n        /* \"contracts/generated/PatriciaStorageValidator.sol\":5316:5328  mul(32, idx) */\n      mul\n        /* \"contracts/generated/PatriciaStorageValidator.sol\":5308:5314  memPtr */\n      dup3\n        /* \"contracts/generated/PatriciaStorageValidator.sol\":5304:5329  add(memPtr, mul(32, idx)) */\n      add\n        /* \"contracts/generated/PatriciaStorageValidator.sol\":5298:5330  mload(add(memPtr, mul(32, idx))) */\n      mload\n        /* \"contracts/generated/PatriciaStorageValidator.sol\":5421:5429  0xffffff */\n      0xffffff\n        /* \"contracts/generated/PatriciaStorageValidator.sol\":5416:5419  tmp */\n      dup2\n        /* \"contracts/generated/PatriciaStorageValidator.sol\":5412:5430  and(tmp, 0xffffff) */\n      and\n        /* \"contracts/generated/PatriciaStorageValidator.sol\":5453:5456  tmp */\n      dup2\n        /* \"contracts/generated/PatriciaStorageValidator.sol\":5448:5451  128 */\n      0x80\n        /* \"contracts/generated/PatriciaStorageValidator.sol\":5444:5457  shr(128, tmp) */\n      shr\n        /* \"contracts/generated/PatriciaStorageValidator.sol\":5472:5474  31 */\n      0x1f\n        /* \"contracts/generated/PatriciaStorageValidator.sol\":5467:5470  len */\n      dup2\n        /* \"contracts/generated/PatriciaStorageValidator.sol\":5464:5475  gt(len, 31) */\n      gt\n        /* \"contracts/generated/PatriciaStorageValidator.sol\":5461:5698  if gt(len, 31) {... */\n      iszero\n      tag_107\n      jumpi\n        /* \"contracts/generated/PatriciaStorageValidator.sol\":5646:5648  32 */\n      0x20\n        /* \"contracts/generated/PatriciaStorageValidator.sol\":5641:5644  len */\n      dup2\n        /* \"contracts/generated/PatriciaStorageValidator.sol\":5637:5649  sub(len, 32) */\n      sub\n        /* \"contracts/generated/PatriciaStorageValidator.sol\":5629:5635  offset */\n      dup3\n        /* \"contracts/generated/PatriciaStorageValidator.sol\":5625:5650  add(offset, sub(len, 32)) */\n      add\n        /* \"contracts/generated/PatriciaStorageValidator.sol\":5615:5650  offset := add(offset, sub(len, 32)) */\n      swap2\n      pop\n        /* \"contracts/generated/PatriciaStorageValidator.sol\":5677:5683  offset */\n      dup2\n        /* \"contracts/generated/PatriciaStorageValidator.sol\":5664:5684  calldataload(offset) */\n      calldataload\n        /* \"contracts/generated/PatriciaStorageValidator.sol\":5655:5684  value := calldataload(offset) */\n      swap4\n      pop\n        /* \"contracts/generated/PatriciaStorageValidator.sol\":5689:5694  leave */\n      pop\n      pop\n      pop\n      jump(tag_106)\n        /* \"contracts/generated/PatriciaStorageValidator.sol\":5461:5698  if gt(len, 31) {... */\n    tag_107:\n        /* \"contracts/generated/PatriciaStorageValidator.sol\":5791:5792  8 */\n      0x08\n        /* \"contracts/generated/PatriciaStorageValidator.sol\":5785:5788  len */\n      dup2\n        /* \"contracts/generated/PatriciaStorageValidator.sol\":5781:5783  32 */\n      0x20\n        /* \"contracts/generated/PatriciaStorageValidator.sol\":5777:5789  sub(32, len) */\n      sub\n        /* \"contracts/generated/PatriciaStorageValidator.sol\":5772:5793  mul( sub(32, len), 8) */\n      mul\n        /* \"contracts/generated/PatriciaStorageValidator.sol\":5818:5824  offset */\n      dup3\n        /* \"contracts/generated/PatriciaStorageValidator.sol\":5805:5825  calldataload(offset) */\n      calldataload\n        /* \"contracts/generated/PatriciaStorageValidator.sol\":5796:5825  value := calldataload(offset) */\n      swap5\n      pop\n        /* \"contracts/generated/PatriciaStorageValidator.sol\":5847:5852  value */\n      dup5\n        /* \"contracts/generated/PatriciaStorageValidator.sol\":5841:5845  bits */\n      dup2\n        /* \"contracts/generated/PatriciaStorageValidator.sol\":5837:5853  shr(bits, value) */\n      shr\n        /* \"contracts/generated/PatriciaStorageValidator.sol\":5828:5853  value := shr(bits, value) */\n      swap5\n      pop\n        /* \"contracts/generated/PatriciaStorageValidator.sol\":5283:5855  {... */\n      pop\n      pop\n      pop\n      pop\n        /* \"contracts/generated/PatriciaStorageValidator.sol\":5241:5855  function loadValue (memPtr, idx) -> value {... */\n    tag_106:\n      swap3\n      swap2\n      pop\n      pop\n      jump\t// out\n        /* \"contracts/generated/PatriciaStorageValidator.sol\":6016:6634  function loadValueLen (memPtr, idx) -> value, len {... */\n    tag_73:\n        /* \"contracts/generated/PatriciaStorageValidator.sol\":6055:6060  value */\n      0x00\n        /* \"contracts/generated/PatriciaStorageValidator.sol\":6062:6065  len */\n      dup1\n        /* \"contracts/generated/PatriciaStorageValidator.sol\":6107:6110  idx */\n      dup4\n        /* \"contracts/generated/PatriciaStorageValidator.sol\":6103:6105  32 */\n      0x20\n        /* \"contracts/generated/PatriciaStorageValidator.sol\":6099:6111  mul(32, idx) */\n      mul\n        /* \"contracts/generated/PatriciaStorageValidator.sol\":6091:6097  memPtr */\n      dup4\n        /* \"contracts/generated/PatriciaStorageValidator.sol\":6087:6112  add(memPtr, mul(32, idx)) */\n      add\n        /* \"contracts/generated/PatriciaStorageValidator.sol\":6081:6113  mload(add(memPtr, mul(32, idx))) */\n      mload\n        /* \"contracts/generated/PatriciaStorageValidator.sol\":6204:6212  0xffffff */\n      0xffffff\n        /* \"contracts/generated/PatriciaStorageValidator.sol\":6199:6202  tmp */\n      dup2\n        /* \"contracts/generated/PatriciaStorageValidator.sol\":6195:6213  and(tmp, 0xffffff) */\n      and\n        /* \"contracts/generated/PatriciaStorageValidator.sol\":6232:6235  tmp */\n      dup2\n        /* \"contracts/generated/PatriciaStorageValidator.sol\":6227:6230  128 */\n      0x80\n        /* \"contracts/generated/PatriciaStorageValidator.sol\":6223:6236  shr(128, tmp) */\n      shr\n        /* \"contracts/generated/PatriciaStorageValidator.sol\":6216:6236  len := shr(128, tmp) */\n      swap3\n      pop\n        /* \"contracts/generated/PatriciaStorageValidator.sol\":6251:6253  31 */\n      0x1f\n        /* \"contracts/generated/PatriciaStorageValidator.sol\":6246:6249  len */\n      dup4\n        /* \"contracts/generated/PatriciaStorageValidator.sol\":6243:6254  gt(len, 31) */\n      gt\n        /* \"contracts/generated/PatriciaStorageValidator.sol\":6240:6477  if gt(len, 31) {... */\n      iszero\n      tag_109\n      jumpi\n        /* \"contracts/generated/PatriciaStorageValidator.sol\":6425:6427  32 */\n      0x20\n        /* \"contracts/generated/PatriciaStorageValidator.sol\":6420:6423  len */\n      dup4\n        /* \"contracts/generated/PatriciaStorageValidator.sol\":6416:6428  sub(len, 32) */\n      sub\n        /* \"contracts/generated/PatriciaStorageValidator.sol\":6408:6414  offset */\n      dup2\n        /* \"contracts/generated/PatriciaStorageValidator.sol\":6404:6429  add(offset, sub(len, 32)) */\n      add\n        /* \"contracts/generated/PatriciaStorageValidator.sol\":6394:6429  offset := add(offset, sub(len, 32)) */\n      swap1\n      pop\n        /* \"contracts/generated/PatriciaStorageValidator.sol\":6456:6462  offset */\n      dup1\n        /* \"contracts/generated/PatriciaStorageValidator.sol\":6443:6463  calldataload(offset) */\n      calldataload\n        /* \"contracts/generated/PatriciaStorageValidator.sol\":6434:6463  value := calldataload(offset) */\n      swap4\n      pop\n        /* \"contracts/generated/PatriciaStorageValidator.sol\":6468:6473  leave */\n      pop\n      pop\n      jump(tag_108)\n        /* \"contracts/generated/PatriciaStorageValidator.sol\":6240:6477  if gt(len, 31) {... */\n    tag_109:\n        /* \"contracts/generated/PatriciaStorageValidator.sol\":6570:6571  8 */\n      0x08\n        /* \"contracts/generated/PatriciaStorageValidator.sol\":6564:6567  len */\n      dup4\n        /* \"contracts/generated/PatriciaStorageValidator.sol\":6560:6562  32 */\n      0x20\n        /* \"contracts/generated/PatriciaStorageValidator.sol\":6556:6568  sub(32, len) */\n      sub\n        /* \"contracts/generated/PatriciaStorageValidator.sol\":6551:6572  mul( sub(32, len), 8) */\n      mul\n        /* \"contracts/generated/PatriciaStorageValidator.sol\":6597:6603  offset */\n      dup2\n        /* \"contracts/generated/PatriciaStorageValidator.sol\":6584:6604  calldataload(offset) */\n      calldataload\n        /* \"contracts/generated/PatriciaStorageValidator.sol\":6575:6604  value := calldataload(offset) */\n      swap5\n      pop\n        /* \"contracts/generated/PatriciaStorageValidator.sol\":6626:6631  value */\n      dup5\n        /* \"contracts/generated/PatriciaStorageValidator.sol\":6620:6624  bits */\n      dup2\n        /* \"contracts/generated/PatriciaStorageValidator.sol\":6616:6632  shr(bits, value) */\n      shr\n        /* \"contracts/generated/PatriciaStorageValidator.sol\":6607:6632  value := shr(bits, value) */\n      swap5\n      pop\n        /* \"contracts/generated/PatriciaStorageValidator.sol\":6066:6634  {... */\n      pop\n      pop\n      pop\n        /* \"contracts/generated/PatriciaStorageValidator.sol\":6016:6634  function loadValueLen (memPtr, idx) -> value, len {... */\n    tag_108:\n      swap3\n      pop\n      swap3\n      swap1\n      pop\n      jump\t// out\n        /* \"contracts/generated/PatriciaStorageValidator.sol\":6974:8758  function walkTree (key, _ptr) -> ptr, rootHash, expectedHash, path, leafMem {... */\n    tag_75:\n        /* \"contracts/generated/PatriciaStorageValidator.sol\":7007:7010  ptr */\n      0x00\n        /* \"contracts/generated/PatriciaStorageValidator.sol\":7012:7020  rootHash */\n      dup1\n        /* \"contracts/generated/PatriciaStorageValidator.sol\":7022:7034  expectedHash */\n      0x00\n        /* \"contracts/generated/PatriciaStorageValidator.sol\":7036:7040  path */\n      dup1\n        /* \"contracts/generated/PatriciaStorageValidator.sol\":7042:7049  leafMem */\n      0x00\n        /* \"contracts/generated/PatriciaStorageValidator.sol\":7061:7065  _ptr */\n      dup7\n        /* \"contracts/generated/PatriciaStorageValidator.sol\":7054:7065  ptr := _ptr */\n      swap5\n      pop\n        /* \"contracts/generated/PatriciaStorageValidator.sol\":7140:7143  ptr */\n      dup5\n        /* \"contracts/generated/PatriciaStorageValidator.sol\":7127:7144  calldataload(ptr) */\n      calldataload\n        /* \"contracts/generated/PatriciaStorageValidator.sol\":7124:7125  0 */\n      0x00\n        /* \"contracts/generated/PatriciaStorageValidator.sol\":7119:7145  byte(0, calldataload(ptr)) */\n      byte\n        /* \"contracts/generated/PatriciaStorageValidator.sol\":7164:7165  1 */\n      0x01\n        /* \"contracts/generated/PatriciaStorageValidator.sol\":7159:7162  ptr */\n      dup7\n        /* \"contracts/generated/PatriciaStorageValidator.sol\":7155:7166  add(ptr, 1) */\n      add\n        /* \"contracts/generated/PatriciaStorageValidator.sol\":7148:7166  ptr := add(ptr, 1) */\n      swap6\n      pop\n        /* \"contracts/generated/PatriciaStorageValidator.sol\":7238:7247  let depth */\n      0x00\n        /* \"contracts/generated/PatriciaStorageValidator.sol\":7266:7267  0 */\n      dup1\n        /* \"contracts/generated/PatriciaStorageValidator.sol\":7251:8669  for { let i := 0 } lt(i, nNodes) { i := add(i, 1) } {... */\n    tag_112:\n        /* \"contracts/generated/PatriciaStorageValidator.sol\":7276:7282  nNodes */\n      dup3\n        /* \"contracts/generated/PatriciaStorageValidator.sol\":7273:7274  i */\n      dup2\n        /* \"contracts/generated/PatriciaStorageValidator.sol\":7270:7283  lt(i, nNodes) */\n      lt\n        /* \"contracts/generated/PatriciaStorageValidator.sol\":7251:8669  for { let i := 0 } lt(i, nNodes) { i := add(i, 1) } {... */\n      iszero\n      tag_114\n      jumpi\n        /* \"contracts/generated/PatriciaStorageValidator.sol\":7309:7335  let memStart, nItems, hash */\n      0x00\n      dup1\n      0x00\n        /* \"contracts/generated/PatriciaStorageValidator.sol\":7371:7386  decodeFlat(ptr) */\n      tag_115\n        /* \"contracts/generated/PatriciaStorageValidator.sol\":7382:7385  ptr */\n      dup12\n        /* \"contracts/generated/PatriciaStorageValidator.sol\":7371:7386  decodeFlat(ptr) */\n      tag_68\n      jump\t// in\n    tag_115:\n        /* \"contracts/generated/PatriciaStorageValidator.sol\":7340:7386  ptr, memStart, nItems, hash := decodeFlat(ptr) */\n      swap4\n      pop\n      swap4\n      pop\n      swap4\n      pop\n      swap11\n      pop\n        /* \"contracts/generated/PatriciaStorageValidator.sol\":7554:7555  i */\n      dup4\n        /* \"contracts/generated/PatriciaStorageValidator.sol\":7565:7566  0 */\n      0x00\n        /* \"contracts/generated/PatriciaStorageValidator.sol\":7560:7597  case 0 {... */\n      dup2\n      eq\n      tag_117\n      jumpi\n        /* \"contracts/generated/PatriciaStorageValidator.sol\":7614:7646  cmp(hash, expectedHash, 'THASH') */\n      tag_118\n        /* \"contracts/generated/PatriciaStorageValidator.sol\":7638:7645  'THASH' */\n      0x5448415348000000000000000000000000000000000000000000000000000000\n        /* \"contracts/generated/PatriciaStorageValidator.sol\":7624:7636  expectedHash */\n      dup12\n        /* \"contracts/generated/PatriciaStorageValidator.sol\":7618:7622  hash */\n      dup5\n        /* \"contracts/generated/PatriciaStorageValidator.sol\":7614:7646  cmp(hash, expectedHash, 'THASH') */\n      tag_80\n      jump\t// in\n    tag_118:\n        /* \"contracts/generated/PatriciaStorageValidator.sol\":7547:7652  switch i... */\n      jump(tag_116)\n        /* \"contracts/generated/PatriciaStorageValidator.sol\":7560:7597  case 0 {... */\n    tag_117:\n        /* \"contracts/generated/PatriciaStorageValidator.sol\":7587:7591  hash */\n      dup2\n        /* \"contracts/generated/PatriciaStorageValidator.sol\":7575:7591  rootHash := hash */\n      swap11\n      pop\n        /* \"contracts/generated/PatriciaStorageValidator.sol\":7547:7652  switch i... */\n    tag_116:\n      pop\n        /* \"contracts/generated/PatriciaStorageValidator.sol\":7665:7671  nItems */\n      dup2\n        /* \"contracts/generated/PatriciaStorageValidator.sol\":7681:7682  2 */\n      0x02\n        /* \"contracts/generated/PatriciaStorageValidator.sol\":7676:8320  case 2 {... */\n      dup2\n      eq\n      tag_120\n      jumpi\n        /* \"contracts/generated/PatriciaStorageValidator.sol\":8330:8332  17 */\n      0x11\n        /* \"contracts/generated/PatriciaStorageValidator.sol\":8325:8581  case 17 {... */\n      dup2\n      eq\n      tag_121\n      jumpi\n        /* \"contracts/generated/PatriciaStorageValidator.sol\":8641:8659  revertWith('NODE') */\n      tag_122\n        /* \"contracts/generated/PatriciaStorageValidator.sol\":8652:8658  'NODE' */\n      0x4e4f444500000000000000000000000000000000000000000000000000000000\n        /* \"contracts/generated/PatriciaStorageValidator.sol\":8641:8659  revertWith('NODE') */\n      tag_78\n      jump\t// in\n    tag_122:\n        /* \"contracts/generated/PatriciaStorageValidator.sol\":7658:8665  switch nItems... */\n      jump(tag_119)\n        /* \"contracts/generated/PatriciaStorageValidator.sol\":7676:8320  case 2 {... */\n    tag_120:\n        /* \"contracts/generated/PatriciaStorageValidator.sol\":7715:7729  let value, len */\n      0x00\n      dup1\n        /* \"contracts/generated/PatriciaStorageValidator.sol\":7846:7871  loadValueLen(memStart, 1) */\n      tag_123\n        /* \"contracts/generated/PatriciaStorageValidator.sol\":7869:7870  1 */\n      0x01\n        /* \"contracts/generated/PatriciaStorageValidator.sol\":7859:7867  memStart */\n      dup8\n        /* \"contracts/generated/PatriciaStorageValidator.sol\":7846:7871  loadValueLen(memStart, 1) */\n      tag_73\n      jump\t// in\n    tag_123:\n        /* \"contracts/generated/PatriciaStorageValidator.sol\":7832:7871  value, len := loadValueLen(memStart, 1) */\n      swap2\n      pop\n      swap2\n      pop\n        /* \"contracts/generated/PatriciaStorageValidator.sol\":7894:7899  value */\n      dup2\n        /* \"contracts/generated/PatriciaStorageValidator.sol\":7878:7899  expectedHash := value */\n      swap12\n      pop\n        /* \"contracts/generated/PatriciaStorageValidator.sol\":7932:7933  1 */\n      0x01\n        /* \"contracts/generated/PatriciaStorageValidator.sol\":7924:7930  nNodes */\n      dup10\n        /* \"contracts/generated/PatriciaStorageValidator.sol\":7920:7934  sub(nNodes, 1) */\n      sub\n        /* \"contracts/generated/PatriciaStorageValidator.sol\":7917:7918  i */\n      dup8\n        /* \"contracts/generated/PatriciaStorageValidator.sol\":7914:7935  eq(i, sub(nNodes, 1)) */\n      eq\n        /* \"contracts/generated/PatriciaStorageValidator.sol\":7947:7948  0 */\n      0x00\n        /* \"contracts/generated/PatriciaStorageValidator.sol\":7942:8262  case 0 {... */\n      dup2\n      eq\n      tag_125\n      jumpi\n        /* \"contracts/generated/PatriciaStorageValidator.sol\":8298:8306  memStart */\n      dup7\n        /* \"contracts/generated/PatriciaStorageValidator.sol\":8287:8306  leafMem := memStart */\n      swap11\n      pop\n        /* \"contracts/generated/PatriciaStorageValidator.sol\":7907:8314  switch eq(i, sub(nNodes, 1))... */\n      jump(tag_124)\n        /* \"contracts/generated/PatriciaStorageValidator.sol\":7942:8262  case 0 {... */\n    tag_125:\n        /* \"contracts/generated/PatriciaStorageValidator.sol\":8205:8213  memStart */\n      dup7\n        /* \"contracts/generated/PatriciaStorageValidator.sol\":8199:8214  mload(memStart) */\n      mload\n        /* \"contracts/generated/PatriciaStorageValidator.sol\":8194:8197  128 */\n      0x80\n        /* \"contracts/generated/PatriciaStorageValidator.sol\":8190:8215  shr(128, mload(memStart)) */\n      shr\n        /* \"contracts/generated/PatriciaStorageValidator.sol\":8244:8253  prefixLen */\n      dup1\n        /* \"contracts/generated/PatriciaStorageValidator.sol\":8237:8242  depth */\n      dup11\n        /* \"contracts/generated/PatriciaStorageValidator.sol\":8233:8254  add(depth, prefixLen) */\n      add\n        /* \"contracts/generated/PatriciaStorageValidator.sol\":8224:8254  depth := add(depth, prefixLen) */\n      swap10\n      pop\n        /* \"contracts/generated/PatriciaStorageValidator.sol\":7949:8262  {... */\n      pop\n        /* \"contracts/generated/PatriciaStorageValidator.sol\":7907:8314  switch eq(i, sub(nNodes, 1))... */\n    tag_124:\n      pop\n        /* \"contracts/generated/PatriciaStorageValidator.sol\":7683:8320  {... */\n      pop\n      pop\n        /* \"contracts/generated/PatriciaStorageValidator.sol\":7676:8320  case 2 {... */\n      jump(tag_119)\n        /* \"contracts/generated/PatriciaStorageValidator.sol\":8325:8581  case 17 {... */\n    tag_121:\n        /* \"contracts/generated/PatriciaStorageValidator.sol\":8373:8374  4 */\n      0x04\n        /* \"contracts/generated/PatriciaStorageValidator.sol\":8366:8371  depth */\n      dup7\n        /* \"contracts/generated/PatriciaStorageValidator.sol\":8362:8375  mul(depth, 4) */\n      mul\n        /* \"contracts/generated/PatriciaStorageValidator.sol\":8357:8360  252 */\n      0xfc\n        /* \"contracts/generated/PatriciaStorageValidator.sol\":8353:8376  sub(252, mul(depth, 4)) */\n      sub\n        /* \"contracts/generated/PatriciaStorageValidator.sol\":8417:8420  0xf */\n      0x0f\n        /* \"contracts/generated/PatriciaStorageValidator.sol\":8411:8414  key */\n      dup15\n        /* \"contracts/generated/PatriciaStorageValidator.sol\":8405:8409  bits */\n      dup3\n        /* \"contracts/generated/PatriciaStorageValidator.sol\":8401:8415  shr(bits, key) */\n      shr\n        /* \"contracts/generated/PatriciaStorageValidator.sol\":8397:8421  and(shr(bits, key), 0xf) */\n      and\n        /* \"contracts/generated/PatriciaStorageValidator.sol\":8487:8517  loadValueLen(memStart, nibble) */\n      tag_126\n        /* \"contracts/generated/PatriciaStorageValidator.sol\":8510:8516  nibble */\n      dup2\n        /* \"contracts/generated/PatriciaStorageValidator.sol\":8500:8508  memStart */\n      dup8\n        /* \"contracts/generated/PatriciaStorageValidator.sol\":8487:8517  loadValueLen(memStart, nibble) */\n      tag_73\n      jump\t// in\n    tag_126:\n        /* \"contracts/generated/PatriciaStorageValidator.sol\":8541:8546  value */\n      dup2\n        /* \"contracts/generated/PatriciaStorageValidator.sol\":8525:8546  expectedHash := value */\n      swap14\n      pop\n        /* \"contracts/generated/PatriciaStorageValidator.sol\":8573:8574  1 */\n      0x01\n        /* \"contracts/generated/PatriciaStorageValidator.sol\":8566:8571  depth */\n      dup11\n        /* \"contracts/generated/PatriciaStorageValidator.sol\":8562:8575  add(depth, 1) */\n      add\n        /* \"contracts/generated/PatriciaStorageValidator.sol\":8553:8575  depth := add(depth, 1) */\n      swap10\n      pop\n        /* \"contracts/generated/PatriciaStorageValidator.sol\":8333:8581  {... */\n      pop\n      pop\n      pop\n      pop\n        /* \"contracts/generated/PatriciaStorageValidator.sol\":7658:8665  switch nItems... */\n    tag_119:\n      pop\n        /* \"contracts/generated/PatriciaStorageValidator.sol\":7303:8669  {... */\n      pop\n      pop\n      pop\n        /* \"contracts/generated/PatriciaStorageValidator.sol\":7298:7299  1 */\n      0x01\n        /* \"contracts/generated/PatriciaStorageValidator.sol\":7295:7296  i */\n      dup2\n        /* \"contracts/generated/PatriciaStorageValidator.sol\":7291:7300  add(i, 1) */\n      add\n        /* \"contracts/generated/PatriciaStorageValidator.sol\":7286:7300  i := add(i, 1) */\n      swap1\n      pop\n        /* \"contracts/generated/PatriciaStorageValidator.sol\":7251:8669  for { let i := 0 } lt(i, nNodes) { i := add(i, 1) } {... */\n      jump(tag_112)\n    tag_114:\n        /* \"contracts/generated/PatriciaStorageValidator.sol\":7255:7269  { let i := 0 } */\n      pop\n        /* \"contracts/generated/PatriciaStorageValidator.sol\":8734:8756  derivePath(key, depth) */\n      tag_127\n        /* \"contracts/generated/PatriciaStorageValidator.sol\":8750:8755  depth */\n      dup2\n        /* \"contracts/generated/PatriciaStorageValidator.sol\":8745:8748  key */\n      dup10\n        /* \"contracts/generated/PatriciaStorageValidator.sol\":8734:8756  derivePath(key, depth) */\n      tag_71\n      jump\t// in\n    tag_127:\n        /* \"contracts/generated/PatriciaStorageValidator.sol\":8726:8756  path := derivePath(key, depth) */\n      swap4\n      pop\n        /* \"contracts/generated/PatriciaStorageValidator.sol\":7050:8758  {... */\n      pop\n      pop\n        /* \"contracts/generated/PatriciaStorageValidator.sol\":6974:8758  function walkTree (key, _ptr) -> ptr, rootHash, expectedHash, path, leafMem {... */\n      swap3\n      swap6\n      pop\n      swap3\n      swap6\n      swap1\n      swap4\n      pop\n      jump\t// out\n        /* \"contracts/generated/PatriciaStorageValidator.sol\":10017:10944  function validateStorageProof (_ptr, _storageKey) -> ptr, rootHash, storageKeyValue {... */\n    tag_77:\n        /* \"contracts/generated/PatriciaStorageValidator.sol\":10070:10073  ptr */\n      0x00\n        /* \"contracts/generated/PatriciaStorageValidator.sol\":10075:10083  rootHash */\n      dup1\n        /* \"contracts/generated/PatriciaStorageValidator.sol\":10085:10100  storageKeyValue */\n      0x00\n        /* \"contracts/generated/PatriciaStorageValidator.sol\":10112:10116  _ptr */\n      dup4\n        /* \"contracts/generated/PatriciaStorageValidator.sol\":10105:10116  ptr := _ptr */\n      swap3\n      pop\n        /* \"contracts/generated/PatriciaStorageValidator.sol\":10120:10135  let encodedPath */\n      0x00\n        /* \"contracts/generated/PatriciaStorageValidator.sol\":10138:10146  let path */\n      dup1\n        /* \"contracts/generated/PatriciaStorageValidator.sol\":10149:10157  let hash */\n      0x00\n        /* \"contracts/generated/PatriciaStorageValidator.sol\":10160:10168  let vlen */\n      dup1\n        /* \"contracts/generated/PatriciaStorageValidator.sol\":10171:10182  let leafMem */\n      0x00\n        /* \"contracts/generated/PatriciaStorageValidator.sol\":10196:10218  keccak_32(_storageKey) */\n      tag_139\n        /* \"contracts/generated/PatriciaStorageValidator.sol\":10206:10217  _storageKey */\n      dup11\n        /* \"contracts/generated/PatriciaStorageValidator.sol\":10196:10218  keccak_32(_storageKey) */\n      tag_69\n      jump\t// in\n    tag_139:\n        /* \"contracts/generated/PatriciaStorageValidator.sol\":10259:10277  walkTree(key, ptr) */\n      tag_140\n        /* \"contracts/generated/PatriciaStorageValidator.sol\":10273:10276  ptr */\n      dup10\n        /* \"contracts/generated/PatriciaStorageValidator.sol\":10268:10271  key */\n      dup3\n        /* \"contracts/generated/PatriciaStorageValidator.sol\":10259:10277  walkTree(key, ptr) */\n      tag_75\n      jump\t// in\n    tag_140:\n        /* \"contracts/generated/PatriciaStorageValidator.sol\":10221:10277  ptr, rootHash, hash, path, leafMem := walkTree(key, ptr) */\n      swap6\n      pop\n      swap8\n      pop\n      swap6\n      pop\n      swap9\n      pop\n      swap9\n      pop\n        /* \"contracts/generated/PatriciaStorageValidator.sol\":10288:10295  leafMem */\n      dup2\n        /* \"contracts/generated/PatriciaStorageValidator.sol\":10303:10304  0 */\n      0x00\n        /* \"contracts/generated/PatriciaStorageValidator.sol\":10298:10353  case 0 {... */\n      dup2\n      eq\n      tag_142\n      jumpi\n        /* \"contracts/generated/PatriciaStorageValidator.sol\":10473:10494  loadValue(leafMem, 0) */\n      tag_143\n        /* \"contracts/generated/PatriciaStorageValidator.sol\":10492:10493  0 */\n      0x00\n        /* \"contracts/generated/PatriciaStorageValidator.sol\":10483:10490  leafMem */\n      dup5\n        /* \"contracts/generated/PatriciaStorageValidator.sol\":10473:10494  loadValue(leafMem, 0) */\n      tag_72\n      jump\t// in\n    tag_143:\n        /* \"contracts/generated/PatriciaStorageValidator.sol\":10458:10494  encodedPath := loadValue(leafMem, 0) */\n      swap7\n      pop\n        /* \"contracts/generated/PatriciaStorageValidator.sol\":10524:10548  loadValueLen(leafMem, 1) */\n      tag_144\n        /* \"contracts/generated/PatriciaStorageValidator.sol\":10546:10547  1 */\n      0x01\n        /* \"contracts/generated/PatriciaStorageValidator.sol\":10537:10544  leafMem */\n      dup5\n        /* \"contracts/generated/PatriciaStorageValidator.sol\":10524:10548  loadValueLen(leafMem, 1) */\n      tag_73\n      jump\t// in\n    tag_144:\n        /* \"contracts/generated/PatriciaStorageValidator.sol\":10499:10548  storageKeyValue, vlen := loadValueLen(leafMem, 1) */\n      swap5\n      pop\n      swap8\n      pop\n        /* \"contracts/generated/PatriciaStorageValidator.sol\":10626:10637  encodedPath */\n      dup7\n        /* \"contracts/generated/PatriciaStorageValidator.sol\":10620:10624  path */\n      dup7\n        /* \"contracts/generated/PatriciaStorageValidator.sol\":10617:10638  eq(path, encodedPath) */\n      eq\n        /* \"contracts/generated/PatriciaStorageValidator.sol\":10650:10660  isSamePath */\n      dup1\n        /* \"contracts/generated/PatriciaStorageValidator.sol\":10670:10671  0 */\n      0x00\n        /* \"contracts/generated/PatriciaStorageValidator.sol\":10665:10753  case 0 {... */\n      dup2\n      eq\n      tag_146\n      jumpi\n        /* \"contracts/generated/PatriciaStorageValidator.sol\":10899:10932  decodeItem(storageKeyValue, vlen) */\n      tag_147\n        /* \"contracts/generated/PatriciaStorageValidator.sol\":10927:10931  vlen */\n      dup7\n        /* \"contracts/generated/PatriciaStorageValidator.sol\":10910:10925  storageKeyValue */\n      dup12\n        /* \"contracts/generated/PatriciaStorageValidator.sol\":10899:10932  decodeItem(storageKeyValue, vlen) */\n      tag_65\n      jump\t// in\n    tag_147:\n        /* \"contracts/generated/PatriciaStorageValidator.sol\":10880:10932  storageKeyValue := decodeItem(storageKeyValue, vlen) */\n      swap10\n      pop\n        /* \"contracts/generated/PatriciaStorageValidator.sol\":10643:10938  switch isSamePath... */\n      jump(tag_145)\n        /* \"contracts/generated/PatriciaStorageValidator.sol\":10665:10753  case 0 {... */\n    tag_146:\n        /* \"contracts/generated/PatriciaStorageValidator.sol\":10746:10747  0 */\n      0x00\n        /* \"contracts/generated/PatriciaStorageValidator.sol\":10727:10747  storageKeyValue := 0 */\n      swap10\n      pop\n        /* \"contracts/generated/PatriciaStorageValidator.sol\":10643:10938  switch isSamePath... */\n    tag_145:\n      pop\n        /* \"contracts/generated/PatriciaStorageValidator.sol\":10364:10942  {... */\n      pop\n        /* \"contracts/generated/PatriciaStorageValidator.sol\":10281:10942  switch leafMem... */\n      jump(tag_141)\n        /* \"contracts/generated/PatriciaStorageValidator.sol\":10298:10353  case 0 {... */\n    tag_142:\n        /* \"contracts/generated/PatriciaStorageValidator.sol\":10281:10942  switch leafMem... */\n    tag_141:\n      pop\n        /* \"contracts/generated/PatriciaStorageValidator.sol\":10101:10944  {... */\n      pop\n      pop\n      pop\n      pop\n      pop\n      pop\n        /* \"contracts/generated/PatriciaStorageValidator.sol\":10017:10944  function validateStorageProof (_ptr, _storageKey) -> ptr, rootHash, storageKeyValue {... */\n      swap3\n      pop\n      swap3\n      pop\n      swap3\n      jump\t// out\n        /* \"contracts/generated/PatriciaStorageValidator.sol\":10998:11220  function revertWith (msg) {... */\n    tag_78:\n        /* \"contracts/generated/PatriciaStorageValidator.sol\":11047:11057  0x08c379a0 */\n      0x08c379a0\n        /* \"contracts/generated/PatriciaStorageValidator.sol\":11042:11045  224 */\n      0xe0\n        /* \"contracts/generated/PatriciaStorageValidator.sol\":11038:11058  shl(224, 0x08c379a0) */\n      shl\n        /* \"contracts/generated/PatriciaStorageValidator.sol\":11035:11036  0 */\n      0x00\n        /* \"contracts/generated/PatriciaStorageValidator.sol\":11028:11059  mstore(0, shl(224, 0x08c379a0)) */\n      mstore\n        /* \"contracts/generated/PatriciaStorageValidator.sol\":11072:11074  32 */\n      0x20\n        /* \"contracts/generated/PatriciaStorageValidator.sol\":11069:11070  4 */\n      0x04\n        /* \"contracts/generated/PatriciaStorageValidator.sol\":11062:11075  mstore(4, 32) */\n      mstore\n        /* \"contracts/generated/PatriciaStorageValidator.sol\":11089:11092  msg */\n      dup1\n        /* \"contracts/generated/PatriciaStorageValidator.sol\":11085:11087  68 */\n      0x44\n        /* \"contracts/generated/PatriciaStorageValidator.sol\":11078:11093  mstore(68, msg) */\n      mstore\n        /* \"contracts/generated/PatriciaStorageValidator.sol\":11096:11106  let msgLen */\n      0x00\n        /* \"contracts/generated/PatriciaStorageValidator.sol\":11109:11180  for {} msg {} {... */\n    tag_149:\n        /* \"contracts/generated/PatriciaStorageValidator.sol\":11116:11119  msg */\n      dup2\n        /* \"contracts/generated/PatriciaStorageValidator.sol\":11109:11180  for {} msg {} {... */\n      iszero\n      tag_151\n      jumpi\n        /* \"contracts/generated/PatriciaStorageValidator.sol\":11143:11146  msg */\n      dup2\n        /* \"contracts/generated/PatriciaStorageValidator.sol\":11140:11141  8 */\n      0x08\n        /* \"contracts/generated/PatriciaStorageValidator.sol\":11136:11147  shl(8, msg) */\n      shl\n        /* \"contracts/generated/PatriciaStorageValidator.sol\":11129:11147  msg := shl(8, msg) */\n      swap2\n      pop\n        /* \"contracts/generated/PatriciaStorageValidator.sol\":11174:11175  1 */\n      0x01\n        /* \"contracts/generated/PatriciaStorageValidator.sol\":11166:11172  msgLen */\n      dup2\n        /* \"contracts/generated/PatriciaStorageValidator.sol\":11162:11176  add(msgLen, 1) */\n      add\n        /* \"contracts/generated/PatriciaStorageValidator.sol\":11152:11176  msgLen := add(msgLen, 1) */\n      swap1\n      pop\n        /* \"contracts/generated/PatriciaStorageValidator.sol\":11109:11180  for {} msg {} {... */\n      jump(tag_149)\n    tag_151:\n        /* \"contracts/generated/PatriciaStorageValidator.sol\":11194:11200  msgLen */\n      dup1\n        /* \"contracts/generated/PatriciaStorageValidator.sol\":11190:11192  36 */\n      0x24\n        /* \"contracts/generated/PatriciaStorageValidator.sol\":11183:11201  mstore(36, msgLen) */\n      mstore\n        /* \"contracts/generated/PatriciaStorageValidator.sol\":11214:11217  100 */\n      0x64\n        /* \"contracts/generated/PatriciaStorageValidator.sol\":11211:11212  0 */\n      0x00\n        /* \"contracts/generated/PatriciaStorageValidator.sol\":11204:11218  revert(0, 100) */\n      revert\n        /* \"contracts/generated/PatriciaStorageValidator.sol\":11340:11421  function cmp (a, b, msg) {... */\n    tag_80:\n        /* \"contracts/generated/PatriciaStorageValidator.sol\":11382:11383  b */\n      dup2\n        /* \"contracts/generated/PatriciaStorageValidator.sol\":11379:11380  a */\n      dup2\n        /* \"contracts/generated/PatriciaStorageValidator.sol\":11376:11384  eq(a, b) */\n      eq\n        /* \"contracts/generated/PatriciaStorageValidator.sol\":11392:11393  0 */\n      0x00\n        /* \"contracts/generated/PatriciaStorageValidator.sol\":11387:11419  case 0 {... */\n      dup2\n      sub\n        /* \"contracts/generated/PatriciaStorageValidator.sol\":11369:11419  switch eq(a, b)... */\n      tag_157\n        /* \"contracts/generated/PatriciaStorageValidator.sol\":11387:11419  case 0 {... */\n      jumpi\n        /* \"contracts/generated/PatriciaStorageValidator.sol\":11400:11415  revertWith(msg) */\n      tag_159\n        /* \"contracts/generated/PatriciaStorageValidator.sol\":11411:11414  msg */\n      dup5\n        /* \"contracts/generated/PatriciaStorageValidator.sol\":11400:11415  revertWith(msg) */\n      tag_78\n      jump\t// in\n    tag_159:\n        /* \"contracts/generated/PatriciaStorageValidator.sol\":11369:11419  switch eq(a, b)... */\n    tag_157:\n      pop\n        /* \"contracts/generated/PatriciaStorageValidator.sol\":11340:11421  function cmp (a, b, msg) {... */\n      pop\n      pop\n      pop\n      jump\t// out\n    tag_81:\n        /* \"contracts/generated/PatriciaStorageValidator.sol\":11440:11456  proofData.offset */\n      dup4\n        /* \"contracts/generated/PatriciaStorageValidator.sol\":11497:11534  validateStorageProof(ptr, storageKey) */\n      tag_160\n        /* \"contracts/generated/PatriciaStorageValidator.sol\":11523:11533  storageKey */\n      dup7\n        /* \"contracts/generated/PatriciaStorageValidator.sol\":11518:11521  ptr */\n      dup3\n        /* \"contracts/generated/PatriciaStorageValidator.sol\":11497:11534  validateStorageProof(ptr, storageKey) */\n      tag_77\n      jump\t// in\n    tag_160:\n        /* \"contracts/generated/PatriciaStorageValidator.sol\":11463:11534  ptr, storageRoot, storageValue := validateStorageProof(ptr, storageKey) */\n      swap4\n      pop\n      swap4\n      pop\n      swap1\n      pop\n        /* \"contracts/generated/PatriciaStorageValidator.sol\":11785:11801  proofData.length */\n      dup4\n        /* \"contracts/generated/PatriciaStorageValidator.sol\":11767:11783  proofData.offset */\n      dup6\n        /* \"contracts/generated/PatriciaStorageValidator.sol\":11763:11802  add(proofData.offset, proofData.length) */\n      add\n        /* \"contracts/generated/PatriciaStorageValidator.sol\":11758:11761  ptr */\n      dup2\n        /* \"contracts/generated/PatriciaStorageValidator.sol\":11755:11803  eq(ptr, add(proofData.offset, proofData.length)) */\n      eq\n        /* \"contracts/generated/PatriciaStorageValidator.sol\":11744:11844  if iszero( eq(ptr, add(proofData.offset, proofData.length)) ) {... */\n      tag_161\n      jumpi\n        /* \"contracts/generated/PatriciaStorageValidator.sol\":11816:11836  revertWith('BOUNDS') */\n      tag_162\n        /* \"contracts/generated/PatriciaStorageValidator.sol\":11827:11835  'BOUNDS' */\n      0x424f554e44530000000000000000000000000000000000000000000000000000\n        /* \"contracts/generated/PatriciaStorageValidator.sol\":11816:11836  revertWith('BOUNDS') */\n      tag_78\n      jump\t// in\n    tag_162:\n        /* \"contracts/generated/PatriciaStorageValidator.sol\":11744:11844  if iszero( eq(ptr, add(proofData.offset, proofData.length)) ) {... */\n    tag_161:\n        /* \"contracts/generated/PatriciaStorageValidator.sol\":274:11850  {... */\n      pop\n        /* \"contracts/generated/PatriciaStorageValidator.sol\":95:11854  function _validatePatriciaStorageProof (... */\n      swap4\n      pop\n      swap4\n      swap2\n      pop\n      pop\n      jump\t// out\n        /* \"contracts/ZkEvmMessageDispatcherBase.sol\":942:1536  function _dropMessage (... */\n    tag_56:\n        /* \"contracts/ZkEvmMessageDispatcherBase.sol\":1146:1154  deadline */\n      dup4\n        /* \"contracts/ZkEvmMessageDispatcherBase.sol\":1128:1143  block.timestamp */\n      timestamp\n        /* \"contracts/ZkEvmMessageDispatcherBase.sol\":1128:1154  block.timestamp > deadline */\n      gt\n        /* \"contracts/ZkEvmMessageDispatcherBase.sol\":1120:1162  require(block.timestamp > deadline, 'DMD') */\n      tag_164\n      jumpi\n      mload(0x40)\n      0x08c379a000000000000000000000000000000000000000000000000000000000\n      dup2\n      mstore\n      0x04\n      add\n      tag_165\n      swap1\n      tag_166\n      jump\t// in\n    tag_165:\n      mload(0x40)\n      dup1\n      swap2\n      sub\n      swap1\n      revert\n    tag_164:\n        /* \"contracts/ZkEvmMessageDispatcherBase.sol\":1169:1188  bytes32 messageHash */\n      0x00\n        /* \"contracts/ZkEvmMessageDispatcherBase.sol\":1212:1216  from */\n      dup9\n        /* \"contracts/ZkEvmMessageDispatcherBase.sol\":1218:1220  to */\n      dup9\n        /* \"contracts/ZkEvmMessageDispatcherBase.sol\":1222:1227  value */\n      dup9\n        /* \"contracts/ZkEvmMessageDispatcherBase.sol\":1229:1232  fee */\n      dup9\n        /* \"contracts/ZkEvmMessageDispatcherBase.sol\":1234:1242  deadline */\n      dup9\n        /* \"contracts/ZkEvmMessageDispatcherBase.sol\":1244:1249  nonce */\n      dup9\n        /* \"contracts/ZkEvmMessageDispatcherBase.sol\":1251:1255  data */\n      dup9\n      dup9\n        /* \"contracts/ZkEvmMessageDispatcherBase.sol\":1201:1256  abi.encode(from, to, value, fee, deadline, nonce, data) */\n      add(0x20, mload(0x40))\n      tag_167\n      swap9\n      swap8\n      swap7\n      swap6\n      swap5\n      swap4\n      swap3\n      swap2\n      swap1\n      tag_36\n      jump\t// in\n    tag_167:\n      mload(0x40)\n      0x20\n      dup2\n      dup4\n      sub\n      sub\n      dup2\n      mstore\n      swap1\n      0x40\n      mstore\n        /* \"contracts/ZkEvmMessageDispatcherBase.sol\":1191:1257  keccak256(abi.encode(from, to, value, fee, deadline, nonce, data)) */\n      dup1\n      mload\n      swap1\n      0x20\n      add\n      keccak256\n        /* \"contracts/ZkEvmMessageDispatcherBase.sol\":1169:1257  bytes32 messageHash = keccak256(abi.encode(from, to, value, fee, deadline, nonce, data)) */\n      swap1\n      pop\n        /* \"contracts/ZkEvmMessageDispatcherBase.sol\":1264:1283  bytes32 storageSlot */\n      0x00\n        /* \"contracts/ZkEvmMessageDispatcherBase.sol\":1286:1319  _PENDING_MESSAGE_KEY(messageHash) */\n      tag_168\n        /* \"contracts/ZkEvmMessageDispatcherBase.sol\":1307:1318  messageHash */\n      dup3\n        /* \"contracts/ZkEvmMessageDispatcherBase.sol\":1286:1306  _PENDING_MESSAGE_KEY */\n      tag_39\n        /* \"contracts/ZkEvmMessageDispatcherBase.sol\":1286:1319  _PENDING_MESSAGE_KEY(messageHash) */\n      jump\t// in\n    tag_168:\n        /* \"contracts/ZkEvmMessageDispatcherBase.sol\":1264:1319  bytes32 storageSlot = _PENDING_MESSAGE_KEY(messageHash) */\n      swap1\n      pop\n        /* \"contracts/ZkEvmMessageDispatcherBase.sol\":1356:1357  0 */\n      0x00\n        /* \"contracts/ZkEvmMessageDispatcherBase.sol\":1333:1352  _sload(storageSlot) */\n      tag_169\n        /* \"contracts/ZkEvmMessageDispatcherBase.sol\":1340:1351  storageSlot */\n      dup3\n        /* \"contracts/ZkEvmMessageDispatcherBase.sol\":1333:1339  _sload */\n      tag_170\n        /* \"contracts/ZkEvmMessageDispatcherBase.sol\":1333:1352  _sload(storageSlot) */\n      jump\t// in\n    tag_169:\n        /* \"contracts/ZkEvmMessageDispatcherBase.sol\":1333:1357  _sload(storageSlot) != 0 */\n      sub\n        /* \"contracts/ZkEvmMessageDispatcherBase.sol\":1325:1365  require(_sload(storageSlot) != 0, 'DMH') */\n      tag_171\n      jumpi\n      mload(0x40)\n      0x08c379a000000000000000000000000000000000000000000000000000000000\n      dup2\n      mstore\n      0x04\n      add\n      tag_172\n      swap1\n      tag_173\n      jump\t// in\n    tag_172:\n      mload(0x40)\n      dup1\n      swap2\n      sub\n      swap1\n      revert\n    tag_171:\n        /* \"contracts/ZkEvmMessageDispatcherBase.sol\":1371:1394  _sstore(storageSlot, 0) */\n      tag_174\n        /* \"contracts/ZkEvmMessageDispatcherBase.sol\":1379:1390  storageSlot */\n      dup2\n        /* \"contracts/ZkEvmMessageDispatcherBase.sol\":1392:1393  0 */\n      0x00\n        /* \"contracts/ZkEvmMessageDispatcherBase.sol\":1371:1394  _sstore(storageSlot, 0) */\n      dup1\n      shl\n        /* \"contracts/ZkEvmMessageDispatcherBase.sol\":1371:1378  _sstore */\n      tag_175\n        /* \"contracts/ZkEvmMessageDispatcherBase.sol\":1371:1394  _sstore(storageSlot, 0) */\n      jump\t// in\n    tag_174:\n        /* \"contracts/ZkEvmMessageDispatcherBase.sol\":1401:1415  uint256 amount */\n      0x00\n        /* \"contracts/ZkEvmMessageDispatcherBase.sol\":1426:1429  fee */\n      dup8\n        /* \"contracts/ZkEvmMessageDispatcherBase.sol\":1418:1423  value */\n      dup10\n        /* \"contracts/ZkEvmMessageDispatcherBase.sol\":1418:1429  value + fee */\n      tag_176\n      swap2\n      swap1\n      tag_23\n      jump\t// in\n    tag_176:\n        /* \"contracts/ZkEvmMessageDispatcherBase.sol\":1401:1429  uint256 amount = value + fee */\n      swap1\n      pop\n        /* \"contracts/ZkEvmMessageDispatcherBase.sol\":1449:1450  0 */\n      0x00\n        /* \"contracts/ZkEvmMessageDispatcherBase.sol\":1439:1445  amount */\n      dup2\n        /* \"contracts/ZkEvmMessageDispatcherBase.sol\":1439:1450  amount != 0 */\n      eq\n        /* \"contracts/ZkEvmMessageDispatcherBase.sol\":1435:1493  if (amount != 0) {... */\n      tag_177\n      jumpi\n        /* \"contracts/ZkEvmMessageDispatcherBase.sol\":1460:1486  _transferETH(from, amount) */\n      tag_178\n        /* \"contracts/ZkEvmMessageDispatcherBase.sol\":1473:1477  from */\n      dup12\n        /* \"contracts/ZkEvmMessageDispatcherBase.sol\":1479:1485  amount */\n      dup3\n        /* \"contracts/ZkEvmMessageDispatcherBase.sol\":1460:1472  _transferETH */\n      tag_60\n        /* \"contracts/ZkEvmMessageDispatcherBase.sol\":1460:1486  _transferETH(from, amount) */\n      jump\t// in\n    tag_178:\n        /* \"contracts/ZkEvmMessageDispatcherBase.sol\":1435:1493  if (amount != 0) {... */\n    tag_177:\n        /* \"contracts/ZkEvmMessageDispatcherBase.sol\":1504:1531  MessageDropped(messageHash) */\n      0x6629230ca69c43f97674dd064896b819957583c8d20a870e4fb28b05c5d29f29\n        /* \"contracts/ZkEvmMessageDispatcherBase.sol\":1519:1530  messageHash */\n      dup4\n        /* \"contracts/ZkEvmMessageDispatcherBase.sol\":1504:1531  MessageDropped(messageHash) */\n      mload(0x40)\n      tag_179\n      swap2\n      swap1\n      tag_20\n      jump\t// in\n    tag_179:\n      mload(0x40)\n      dup1\n      swap2\n      sub\n      swap1\n      log1\n        /* \"contracts/ZkEvmMessageDispatcherBase.sol\":1114:1536  {... */\n      pop\n      pop\n      pop\n        /* \"contracts/ZkEvmMessageDispatcherBase.sol\":942:1536  function _dropMessage (... */\n      pop\n      pop\n      pop\n      pop\n      pop\n      pop\n      pop\n      pop\n      jump\t// out\n        /* \"contracts/ZkEvmUtils.sol\":216:375  function _transferETH (address receiver, uint256 amount) internal {... */\n    tag_60:\n        /* \"contracts/ZkEvmUtils.sol\":289:301  bool success */\n      0x00\n        /* \"contracts/ZkEvmUtils.sol\":306:314  receiver */\n      dup3\n        /* \"contracts/ZkEvmUtils.sol\":306:319  receiver.call */\n      0xffffffffffffffffffffffffffffffffffffffff\n      and\n        /* \"contracts/ZkEvmUtils.sol\":328:334  amount */\n      dup3\n        /* \"contracts/ZkEvmUtils.sol\":306:340  receiver.call{ value: amount }(\"\") */\n      mload(0x40)\n      tag_181\n      swap1\n      tag_182\n      jump\t// in\n    tag_181:\n      0x00\n      mload(0x40)\n      dup1\n      dup4\n      sub\n      dup2\n      dup6\n      dup8\n      gas\n      call\n      swap3\n      pop\n      pop\n      pop\n      returndatasize\n      dup1\n      0x00\n      dup2\n      eq\n      tag_185\n      jumpi\n      mload(0x40)\n      swap2\n      pop\n      and(add(returndatasize, 0x3f), not(0x1f))\n      dup3\n      add\n      0x40\n      mstore\n      returndatasize\n      dup3\n      mstore\n      returndatasize\n      0x00\n      0x20\n      dup5\n      add\n      returndatacopy\n      jump(tag_184)\n    tag_185:\n      0x60\n      swap2\n      pop\n    tag_184:\n      pop\n        /* \"contracts/ZkEvmUtils.sol\":288:340  (bool success,) = receiver.call{ value: amount }(\"\") */\n      pop\n      swap1\n      pop\n        /* \"contracts/ZkEvmUtils.sol\":354:361  success */\n      dup1\n        /* \"contracts/ZkEvmUtils.sol\":346:370  require(success, 'TETH') */\n      tag_186\n      jumpi\n      mload(0x40)\n      0x08c379a000000000000000000000000000000000000000000000000000000000\n      dup2\n      mstore\n      0x04\n      add\n      tag_187\n      swap1\n      tag_188\n      jump\t// in\n    tag_187:\n      mload(0x40)\n      dup1\n      swap2\n      sub\n      swap1\n      revert\n    tag_186:\n        /* \"contracts/ZkEvmUtils.sol\":282:375  {... */\n      pop\n        /* \"contracts/ZkEvmUtils.sol\":216:375  function _transferETH (address receiver, uint256 amount) internal {... */\n      pop\n      pop\n      jump\t// out\n        /* \"contracts/ZkEvmMessageDispatcherBase.sol\":288:938  function _dispatchMessage (... */\n    tag_62:\n        /* \"contracts/ZkEvmMessageDispatcherBase.sol\":436:455  bytes32 messageHash */\n      0x00\n        /* \"contracts/ZkEvmMessageDispatcherBase.sol\":574:587  uint256 value */\n      dup1\n        /* \"contracts/ZkEvmMessageDispatcherBase.sol\":602:605  fee */\n      dup7\n        /* \"contracts/ZkEvmMessageDispatcherBase.sol\":590:599  msg.value */\n      callvalue\n        /* \"contracts/ZkEvmMessageDispatcherBase.sol\":590:605  msg.value - fee */\n      tag_190\n      swap2\n      swap1\n      tag_191\n      jump\t// in\n    tag_190:\n        /* \"contracts/ZkEvmMessageDispatcherBase.sol\":574:605  uint256 value = msg.value - fee */\n      swap1\n      pop\n        /* \"contracts/ZkEvmMessageDispatcherBase.sol\":647:657  msg.sender */\n      caller\n        /* \"contracts/ZkEvmMessageDispatcherBase.sol\":659:661  to */\n      dup9\n        /* \"contracts/ZkEvmMessageDispatcherBase.sol\":663:668  value */\n      dup3\n        /* \"contracts/ZkEvmMessageDispatcherBase.sol\":670:673  fee */\n      dup10\n        /* \"contracts/ZkEvmMessageDispatcherBase.sol\":675:683  deadline */\n      dup10\n        /* \"contracts/ZkEvmMessageDispatcherBase.sol\":685:690  nonce */\n      dup10\n        /* \"contracts/ZkEvmMessageDispatcherBase.sol\":692:696  data */\n      dup10\n      dup10\n        /* \"contracts/ZkEvmMessageDispatcherBase.sol\":636:697  abi.encode(msg.sender, to, value, fee, deadline, nonce, data) */\n      add(0x20, mload(0x40))\n      tag_192\n      swap9\n      swap8\n      swap7\n      swap6\n      swap5\n      swap4\n      swap3\n      swap2\n      swap1\n      tag_36\n      jump\t// in\n    tag_192:\n      mload(0x40)\n      0x20\n      dup2\n      dup4\n      sub\n      sub\n      dup2\n      mstore\n      swap1\n      0x40\n      mstore\n        /* \"contracts/ZkEvmMessageDispatcherBase.sol\":626:698  keccak256(abi.encode(msg.sender, to, value, fee, deadline, nonce, data)) */\n      dup1\n      mload\n      swap1\n      0x20\n      add\n      keccak256\n        /* \"contracts/ZkEvmMessageDispatcherBase.sol\":612:698  messageHash = keccak256(abi.encode(msg.sender, to, value, fee, deadline, nonce, data)) */\n      swap2\n      pop\n        /* \"contracts/ZkEvmMessageDispatcherBase.sol\":705:724  bytes32 storageSlot */\n      0x00\n        /* \"contracts/ZkEvmMessageDispatcherBase.sol\":727:760  _PENDING_MESSAGE_KEY(messageHash) */\n      tag_193\n        /* \"contracts/ZkEvmMessageDispatcherBase.sol\":748:759  messageHash */\n      dup4\n        /* \"contracts/ZkEvmMessageDispatcherBase.sol\":727:747  _PENDING_MESSAGE_KEY */\n      tag_39\n        /* \"contracts/ZkEvmMessageDispatcherBase.sol\":727:760  _PENDING_MESSAGE_KEY(messageHash) */\n      jump\t// in\n    tag_193:\n        /* \"contracts/ZkEvmMessageDispatcherBase.sol\":705:760  bytes32 storageSlot = _PENDING_MESSAGE_KEY(messageHash) */\n      swap1\n      pop\n        /* \"contracts/ZkEvmMessageDispatcherBase.sol\":797:798  0 */\n      0x00\n        /* \"contracts/ZkEvmMessageDispatcherBase.sol\":774:793  _sload(storageSlot) */\n      tag_194\n        /* \"contracts/ZkEvmMessageDispatcherBase.sol\":781:792  storageSlot */\n      dup3\n        /* \"contracts/ZkEvmMessageDispatcherBase.sol\":774:780  _sload */\n      tag_170\n        /* \"contracts/ZkEvmMessageDispatcherBase.sol\":774:793  _sload(storageSlot) */\n      jump\t// in\n    tag_194:\n        /* \"contracts/ZkEvmMessageDispatcherBase.sol\":774:798  _sload(storageSlot) == 0 */\n      eq\n        /* \"contracts/ZkEvmMessageDispatcherBase.sol\":766:806  require(_sload(storageSlot) == 0, 'DMH') */\n      tag_195\n      jumpi\n      mload(0x40)\n      0x08c379a000000000000000000000000000000000000000000000000000000000\n      dup2\n      mstore\n      0x04\n      add\n      tag_196\n      swap1\n      tag_173\n      jump\t// in\n    tag_196:\n      mload(0x40)\n      dup1\n      swap2\n      sub\n      swap1\n      revert\n    tag_195:\n        /* \"contracts/ZkEvmMessageDispatcherBase.sol\":812:853  _sstore(storageSlot, bytes32(uint256(1))) */\n      tag_197\n        /* \"contracts/ZkEvmMessageDispatcherBase.sol\":820:831  storageSlot */\n      dup2\n        /* \"contracts/ZkEvmMessageDispatcherBase.sol\":849:850  1 */\n      0x01\n        /* \"contracts/ZkEvmMessageDispatcherBase.sol\":833:852  bytes32(uint256(1)) */\n      0x00\n      shl\n        /* \"contracts/ZkEvmMessageDispatcherBase.sol\":812:819  _sstore */\n      tag_175\n        /* \"contracts/ZkEvmMessageDispatcherBase.sol\":812:853  _sstore(storageSlot, bytes32(uint256(1))) */\n      jump\t// in\n    tag_197:\n        /* \"contracts/ZkEvmMessageDispatcherBase.sol\":865:933  MessageDispatched(msg.sender, to, value, fee, deadline, nonce, data) */\n      0x4d083d19fcc619dfa227d3294a08c9309c2c6f22e389d1fc386105b342058a43\n        /* \"contracts/ZkEvmMessageDispatcherBase.sol\":883:893  msg.sender */\n      caller\n        /* \"contracts/ZkEvmMessageDispatcherBase.sol\":895:897  to */\n      dup11\n        /* \"contracts/ZkEvmMessageDispatcherBase.sol\":899:904  value */\n      dup5\n        /* \"contracts/ZkEvmMessageDispatcherBase.sol\":906:909  fee */\n      dup12\n        /* \"contracts/ZkEvmMessageDispatcherBase.sol\":911:919  deadline */\n      dup12\n        /* \"contracts/ZkEvmMessageDispatcherBase.sol\":921:926  nonce */\n      dup12\n        /* \"contracts/ZkEvmMessageDispatcherBase.sol\":928:932  data */\n      dup12\n      dup12\n        /* \"contracts/ZkEvmMessageDispatcherBase.sol\":865:933  MessageDispatched(msg.sender, to, value, fee, deadline, nonce, data) */\n      mload(0x40)\n      tag_198\n      swap9\n      swap8\n      swap7\n      swap6\n      swap5\n      swap4\n      swap3\n      swap2\n      swap1\n      tag_36\n      jump\t// in\n    tag_198:\n      mload(0x40)\n      dup1\n      swap2\n      sub\n      swap1\n      log1\n        /* \"contracts/ZkEvmMessageDispatcherBase.sol\":457:938  {... */\n      pop\n      pop\n        /* \"contracts/ZkEvmMessageDispatcherBase.sol\":288:938  function _dispatchMessage (... */\n      swap7\n      swap6\n      pop\n      pop\n      pop\n      pop\n      pop\n      pop\n      jump\t// out\n        /* \"contracts/ZkEvmMessageDispatcherBase.sol\":1540:1656  function _sload (bytes32 key) internal view returns (uint256 ret) {... */\n    tag_170:\n        /* \"contracts/ZkEvmMessageDispatcherBase.sol\":1593:1604  uint256 ret */\n      0x00\n        /* \"contracts/ZkEvmMessageDispatcherBase.sol\":1642:1645  key */\n      dup2\n        /* \"contracts/ZkEvmMessageDispatcherBase.sol\":1636:1646  sload(key) */\n      sload\n        /* \"contracts/ZkEvmMessageDispatcherBase.sol\":1629:1646  ret := sload(key) */\n      swap1\n      pop\n        /* \"contracts/ZkEvmMessageDispatcherBase.sol\":1540:1656  function _sload (bytes32 key) internal view returns (uint256 ret) {... */\n      swap2\n      swap1\n      pop\n      jump\t// out\n        /* \"contracts/ZkEvmMessageDispatcherBase.sol\":1660:1766  function _sstore (bytes32 key, bytes32 value) internal {... */\n    tag_175:\n        /* \"contracts/ZkEvmMessageDispatcherBase.sol\":1750:1755  value */\n      dup1\n        /* \"contracts/ZkEvmMessageDispatcherBase.sol\":1745:1748  key */\n      dup3\n        /* \"contracts/ZkEvmMessageDispatcherBase.sol\":1738:1756  sstore(key, value) */\n      sstore\n        /* \"contracts/ZkEvmMessageDispatcherBase.sol\":1660:1766  function _sstore (bytes32 key, bytes32 value) internal {... */\n      pop\n      pop\n      jump\t// out\n        /* \"#utility.yul\":7:176   */\n    tag_201:\n        /* \"#utility.yul\":91:102   */\n      0x00\n        /* \"#utility.yul\":125:131   */\n      dup3\n        /* \"#utility.yul\":120:123   */\n      dup3\n        /* \"#utility.yul\":113:132   */\n      mstore\n        /* \"#utility.yul\":165:169   */\n      0x20\n        /* \"#utility.yul\":160:163   */\n      dup3\n        /* \"#utility.yul\":156:170   */\n      add\n        /* \"#utility.yul\":141:170   */\n      swap1\n      pop\n        /* \"#utility.yul\":7:176   */\n      swap3\n      swap2\n      pop\n      pop\n      jump\t// out\n        /* \"#utility.yul\":182:336   */\n    tag_202:\n        /* \"#utility.yul\":322:328   */\n      0x4d53454400000000000000000000000000000000000000000000000000000000\n        /* \"#utility.yul\":318:319   */\n      0x00\n        /* \"#utility.yul\":310:316   */\n      dup3\n        /* \"#utility.yul\":306:320   */\n      add\n        /* \"#utility.yul\":299:329   */\n      mstore\n        /* \"#utility.yul\":182:336   */\n      pop\n      jump\t// out\n        /* \"#utility.yul\":342:707   */\n    tag_203:\n        /* \"#utility.yul\":484:487   */\n      0x00\n        /* \"#utility.yul\":505:571   */\n      tag_252\n        /* \"#utility.yul\":569:570   */\n      0x04\n        /* \"#utility.yul\":564:567   */\n      dup4\n        /* \"#utility.yul\":505:571   */\n      tag_201\n      jump\t// in\n    tag_252:\n        /* \"#utility.yul\":498:571   */\n      swap2\n      pop\n        /* \"#utility.yul\":580:673   */\n      tag_253\n        /* \"#utility.yul\":669:672   */\n      dup3\n        /* \"#utility.yul\":580:673   */\n      tag_202\n      jump\t// in\n    tag_253:\n        /* \"#utility.yul\":698:700   */\n      0x20\n        /* \"#utility.yul\":693:696   */\n      dup3\n        /* \"#utility.yul\":689:701   */\n      add\n        /* \"#utility.yul\":682:701   */\n      swap1\n      pop\n        /* \"#utility.yul\":342:707   */\n      swap2\n      swap1\n      pop\n      jump\t// out\n        /* \"#utility.yul\":713:1132   */\n    tag_9:\n        /* \"#utility.yul\":879:883   */\n      0x00\n        /* \"#utility.yul\":917:919   */\n      0x20\n        /* \"#utility.yul\":906:915   */\n      dup3\n        /* \"#utility.yul\":902:920   */\n      add\n        /* \"#utility.yul\":894:920   */\n      swap1\n      pop\n        /* \"#utility.yul\":966:975   */\n      dup2\n        /* \"#utility.yul\":960:964   */\n      dup2\n        /* \"#utility.yul\":956:976   */\n      sub\n        /* \"#utility.yul\":952:953   */\n      0x00\n        /* \"#utility.yul\":941:950   */\n      dup4\n        /* \"#utility.yul\":937:954   */\n      add\n        /* \"#utility.yul\":930:977   */\n      mstore\n        /* \"#utility.yul\":994:1125   */\n      tag_255\n        /* \"#utility.yul\":1120:1124   */\n      dup2\n        /* \"#utility.yul\":994:1125   */\n      tag_203\n      jump\t// in\n    tag_255:\n        /* \"#utility.yul\":986:1125   */\n      swap1\n      pop\n        /* \"#utility.yul\":713:1132   */\n      swap2\n      swap1\n      pop\n      jump\t// out\n        /* \"#utility.yul\":1219:1336   */\n    tag_205:\n        /* \"#utility.yul\":1328:1329   */\n      0x00\n        /* \"#utility.yul\":1325:1326   */\n      dup1\n        /* \"#utility.yul\":1318:1330   */\n      revert\n        /* \"#utility.yul\":1342:1459   */\n    tag_206:\n        /* \"#utility.yul\":1451:1452   */\n      0x00\n        /* \"#utility.yul\":1448:1449   */\n      dup1\n        /* \"#utility.yul\":1441:1453   */\n      revert\n        /* \"#utility.yul\":1465:1591   */\n    tag_207:\n        /* \"#utility.yul\":1502:1509   */\n      0x00\n        /* \"#utility.yul\":1542:1584   */\n      0xffffffffffffffffffffffffffffffffffffffff\n        /* \"#utility.yul\":1535:1540   */\n      dup3\n        /* \"#utility.yul\":1531:1585   */\n      and\n        /* \"#utility.yul\":1520:1585   */\n      swap1\n      pop\n        /* \"#utility.yul\":1465:1591   */\n      swap2\n      swap1\n      pop\n      jump\t// out\n        /* \"#utility.yul\":1597:1693   */\n    tag_208:\n        /* \"#utility.yul\":1634:1641   */\n      0x00\n        /* \"#utility.yul\":1663:1687   */\n      tag_261\n        /* \"#utility.yul\":1681:1686   */\n      dup3\n        /* \"#utility.yul\":1663:1687   */\n      tag_207\n      jump\t// in\n    tag_261:\n        /* \"#utility.yul\":1652:1687   */\n      swap1\n      pop\n        /* \"#utility.yul\":1597:1693   */\n      swap2\n      swap1\n      pop\n      jump\t// out\n        /* \"#utility.yul\":1699:1821   */\n    tag_209:\n        /* \"#utility.yul\":1772:1796   */\n      tag_263\n        /* \"#utility.yul\":1790:1795   */\n      dup2\n        /* \"#utility.yul\":1772:1796   */\n      tag_208\n      jump\t// in\n    tag_263:\n        /* \"#utility.yul\":1765:1770   */\n      dup2\n        /* \"#utility.yul\":1762:1797   */\n      eq\n        /* \"#utility.yul\":1752:1815   */\n      tag_264\n      jumpi\n        /* \"#utility.yul\":1811:1812   */\n      0x00\n        /* \"#utility.yul\":1808:1809   */\n      dup1\n        /* \"#utility.yul\":1801:1813   */\n      revert\n        /* \"#utility.yul\":1752:1815   */\n    tag_264:\n        /* \"#utility.yul\":1699:1821   */\n      pop\n      jump\t// out\n        /* \"#utility.yul\":1827:1966   */\n    tag_210:\n        /* \"#utility.yul\":1873:1878   */\n      0x00\n        /* \"#utility.yul\":1911:1917   */\n      dup2\n        /* \"#utility.yul\":1898:1918   */\n      calldataload\n        /* \"#utility.yul\":1889:1918   */\n      swap1\n      pop\n        /* \"#utility.yul\":1927:1960   */\n      tag_266\n        /* \"#utility.yul\":1954:1959   */\n      dup2\n        /* \"#utility.yul\":1927:1960   */\n      tag_209\n      jump\t// in\n    tag_266:\n        /* \"#utility.yul\":1827:1966   */\n      swap3\n      swap2\n      pop\n      pop\n      jump\t// out\n        /* \"#utility.yul\":1972:2049   */\n    tag_211:\n        /* \"#utility.yul\":2009:2016   */\n      0x00\n        /* \"#utility.yul\":2038:2043   */\n      dup2\n        /* \"#utility.yul\":2027:2043   */\n      swap1\n      pop\n        /* \"#utility.yul\":1972:2049   */\n      swap2\n      swap1\n      pop\n      jump\t// out\n        /* \"#utility.yul\":2055:2177   */\n    tag_212:\n        /* \"#utility.yul\":2128:2152   */\n      tag_269\n        /* \"#utility.yul\":2146:2151   */\n      dup2\n        /* \"#utility.yul\":2128:2152   */\n      tag_211\n      jump\t// in\n    tag_269:\n        /* \"#utility.yul\":2121:2126   */\n      dup2\n        /* \"#utility.yul\":2118:2153   */\n      eq\n        /* \"#utility.yul\":2108:2171   */\n      tag_270\n      jumpi\n        /* \"#utility.yul\":2167:2168   */\n      0x00\n        /* \"#utility.yul\":2164:2165   */\n      dup1\n        /* \"#utility.yul\":2157:2169   */\n      revert\n        /* \"#utility.yul\":2108:2171   */\n    tag_270:\n        /* \"#utility.yul\":2055:2177   */\n      pop\n      jump\t// out\n        /* \"#utility.yul\":2183:2322   */\n    tag_213:\n        /* \"#utility.yul\":2229:2234   */\n      0x00\n        /* \"#utility.yul\":2267:2273   */\n      dup2\n        /* \"#utility.yul\":2254:2274   */\n      calldataload\n        /* \"#utility.yul\":2245:2274   */\n      swap1\n      pop\n        /* \"#utility.yul\":2283:2316   */\n      tag_272\n        /* \"#utility.yul\":2310:2315   */\n      dup2\n        /* \"#utility.yul\":2283:2316   */\n      tag_212\n      jump\t// in\n    tag_272:\n        /* \"#utility.yul\":2183:2322   */\n      swap3\n      swap2\n      pop\n      pop\n      jump\t// out\n        /* \"#utility.yul\":2328:2445   */\n    tag_214:\n        /* \"#utility.yul\":2437:2438   */\n      0x00\n        /* \"#utility.yul\":2434:2435   */\n      dup1\n        /* \"#utility.yul\":2427:2439   */\n      revert\n        /* \"#utility.yul\":2451:2568   */\n    tag_215:\n        /* \"#utility.yul\":2560:2561   */\n      0x00\n        /* \"#utility.yul\":2557:2558   */\n      dup1\n        /* \"#utility.yul\":2550:2562   */\n      revert\n        /* \"#utility.yul\":2574:2691   */\n    tag_216:\n        /* \"#utility.yul\":2683:2684   */\n      0x00\n        /* \"#utility.yul\":2680:2681   */\n      dup1\n        /* \"#utility.yul\":2673:2685   */\n      revert\n        /* \"#utility.yul\":2710:3262   */\n    tag_217:\n        /* \"#utility.yul\":2767:2775   */\n      0x00\n        /* \"#utility.yul\":2777:2783   */\n      dup1\n        /* \"#utility.yul\":2827:2830   */\n      dup4\n        /* \"#utility.yul\":2820:2824   */\n      0x1f\n        /* \"#utility.yul\":2812:2818   */\n      dup5\n        /* \"#utility.yul\":2808:2825   */\n      add\n        /* \"#utility.yul\":2804:2831   */\n      slt\n        /* \"#utility.yul\":2794:2916   */\n      tag_277\n      jumpi\n        /* \"#utility.yul\":2835:2914   */\n      tag_278\n      tag_214\n      jump\t// in\n    tag_278:\n        /* \"#utility.yul\":2794:2916   */\n    tag_277:\n        /* \"#utility.yul\":2948:2954   */\n      dup3\n        /* \"#utility.yul\":2935:2955   */\n      calldataload\n        /* \"#utility.yul\":2925:2955   */\n      swap1\n      pop\n        /* \"#utility.yul\":2978:2996   */\n      0xffffffffffffffff\n        /* \"#utility.yul\":2970:2976   */\n      dup2\n        /* \"#utility.yul\":2967:2997   */\n      gt\n        /* \"#utility.yul\":2964:3081   */\n      iszero\n      tag_279\n      jumpi\n        /* \"#utility.yul\":3000:3079   */\n      tag_280\n      tag_215\n      jump\t// in\n    tag_280:\n        /* \"#utility.yul\":2964:3081   */\n    tag_279:\n        /* \"#utility.yul\":3114:3118   */\n      0x20\n        /* \"#utility.yul\":3106:3112   */\n      dup4\n        /* \"#utility.yul\":3102:3119   */\n      add\n        /* \"#utility.yul\":3090:3119   */\n      swap2\n      pop\n        /* \"#utility.yul\":3168:3171   */\n      dup4\n        /* \"#utility.yul\":3160:3164   */\n      0x01\n        /* \"#utility.yul\":3152:3158   */\n      dup3\n        /* \"#utility.yul\":3148:3165   */\n      mul\n        /* \"#utility.yul\":3138:3146   */\n      dup4\n        /* \"#utility.yul\":3134:3166   */\n      add\n        /* \"#utility.yul\":3131:3172   */\n      gt\n        /* \"#utility.yul\":3128:3256   */\n      iszero\n      tag_281\n      jumpi\n        /* \"#utility.yul\":3175:3254   */\n      tag_282\n      tag_216\n      jump\t// in\n    tag_282:\n        /* \"#utility.yul\":3128:3256   */\n    tag_281:\n        /* \"#utility.yul\":2710:3262   */\n      swap3\n      pop\n      swap3\n      swap1\n      pop\n      jump\t// out\n        /* \"#utility.yul\":3268:5013   */\n    tag_13:\n        /* \"#utility.yul\":3412:3418   */\n      0x00\n        /* \"#utility.yul\":3420:3426   */\n      dup1\n        /* \"#utility.yul\":3428:3434   */\n      0x00\n        /* \"#utility.yul\":3436:3442   */\n      dup1\n        /* \"#utility.yul\":3444:3450   */\n      0x00\n        /* \"#utility.yul\":3452:3458   */\n      dup1\n        /* \"#utility.yul\":3460:3466   */\n      0x00\n        /* \"#utility.yul\":3468:3474   */\n      dup1\n        /* \"#utility.yul\":3476:3482   */\n      0x00\n        /* \"#utility.yul\":3484:3490   */\n      dup1\n        /* \"#utility.yul\":3533:3536   */\n      0x0100\n        /* \"#utility.yul\":3521:3530   */\n      dup12\n        /* \"#utility.yul\":3512:3519   */\n      dup14\n        /* \"#utility.yul\":3508:3531   */\n      sub\n        /* \"#utility.yul\":3504:3537   */\n      slt\n        /* \"#utility.yul\":3501:3621   */\n      iszero\n      tag_284\n      jumpi\n        /* \"#utility.yul\":3540:3619   */\n      tag_285\n      tag_205\n      jump\t// in\n    tag_285:\n        /* \"#utility.yul\":3501:3621   */\n    tag_284:\n        /* \"#utility.yul\":3660:3661   */\n      0x00\n        /* \"#utility.yul\":3685:3738   */\n      tag_286\n        /* \"#utility.yul\":3730:3737   */\n      dup14\n        /* \"#utility.yul\":3721:3727   */\n      dup3\n        /* \"#utility.yul\":3710:3719   */\n      dup15\n        /* \"#utility.yul\":3706:3728   */\n      add\n        /* \"#utility.yul\":3685:3738   */\n      tag_210\n      jump\t// in\n    tag_286:\n        /* \"#utility.yul\":3675:3738   */\n      swap11\n      pop\n        /* \"#utility.yul\":3631:3748   */\n      pop\n        /* \"#utility.yul\":3787:3789   */\n      0x20\n        /* \"#utility.yul\":3813:3866   */\n      tag_287\n        /* \"#utility.yul\":3858:3865   */\n      dup14\n        /* \"#utility.yul\":3849:3855   */\n      dup3\n        /* \"#utility.yul\":3838:3847   */\n      dup15\n        /* \"#utility.yul\":3834:3856   */\n      add\n        /* \"#utility.yul\":3813:3866   */\n      tag_210\n      jump\t// in\n    tag_287:\n        /* \"#utility.yul\":3803:3866   */\n      swap10\n      pop\n        /* \"#utility.yul\":3758:3876   */\n      pop\n        /* \"#utility.yul\":3915:3917   */\n      0x40\n        /* \"#utility.yul\":3941:3994   */\n      tag_288\n        /* \"#utility.yul\":3986:3993   */\n      dup14\n        /* \"#utility.yul\":3977:3983   */\n      dup3\n        /* \"#utility.yul\":3966:3975   */\n      dup15\n        /* \"#utility.yul\":3962:3984   */\n      add\n        /* \"#utility.yul\":3941:3994   */\n      tag_213\n      jump\t// in\n    tag_288:\n        /* \"#utility.yul\":3931:3994   */\n      swap9\n      pop\n        /* \"#utility.yul\":3886:4004   */\n      pop\n        /* \"#utility.yul\":4043:4045   */\n      0x60\n        /* \"#utility.yul\":4069:4122   */\n      tag_289\n        /* \"#utility.yul\":4114:4121   */\n      dup14\n        /* \"#utility.yul\":4105:4111   */\n      dup3\n        /* \"#utility.yul\":4094:4103   */\n      dup15\n        /* \"#utility.yul\":4090:4112   */\n      add\n        /* \"#utility.yul\":4069:4122   */\n      tag_213\n      jump\t// in\n    tag_289:\n        /* \"#utility.yul\":4059:4122   */\n      swap8\n      pop\n        /* \"#utility.yul\":4014:4132   */\n      pop\n        /* \"#utility.yul\":4171:4174   */\n      0x80\n        /* \"#utility.yul\":4198:4251   */\n      tag_290\n        /* \"#utility.yul\":4243:4250   */\n      dup14\n        /* \"#utility.yul\":4234:4240   */\n      dup3\n        /* \"#utility.yul\":4223:4232   */\n      dup15\n        /* \"#utility.yul\":4219:4241   */\n      add\n        /* \"#utility.yul\":4198:4251   */\n      tag_213\n      jump\t// in\n    tag_290:\n        /* \"#utility.yul\":4188:4251   */\n      swap7\n      pop\n        /* \"#utility.yul\":4142:4261   */\n      pop\n        /* \"#utility.yul\":4300:4303   */\n      0xa0\n        /* \"#utility.yul\":4327:4380   */\n      tag_291\n        /* \"#utility.yul\":4372:4379   */\n      dup14\n        /* \"#utility.yul\":4363:4369   */\n      dup3\n        /* \"#utility.yul\":4352:4361   */\n      dup15\n        /* \"#utility.yul\":4348:4370   */\n      add\n        /* \"#utility.yul\":4327:4380   */\n      tag_213\n      jump\t// in\n    tag_291:\n        /* \"#utility.yul\":4317:4380   */\n      swap6\n      pop\n        /* \"#utility.yul\":4271:4390   */\n      pop\n        /* \"#utility.yul\":4457:4460   */\n      0xc0\n        /* \"#utility.yul\":4446:4455   */\n      dup12\n        /* \"#utility.yul\":4442:4461   */\n      add\n        /* \"#utility.yul\":4429:4462   */\n      calldataload\n        /* \"#utility.yul\":4489:4507   */\n      0xffffffffffffffff\n        /* \"#utility.yul\":4481:4487   */\n      dup2\n        /* \"#utility.yul\":4478:4508   */\n      gt\n        /* \"#utility.yul\":4475:4592   */\n      iszero\n      tag_292\n      jumpi\n        /* \"#utility.yul\":4511:4590   */\n      tag_293\n      tag_206\n      jump\t// in\n    tag_293:\n        /* \"#utility.yul\":4475:4592   */\n    tag_292:\n        /* \"#utility.yul\":4624:4688   */\n      tag_294\n        /* \"#utility.yul\":4680:4687   */\n      dup14\n        /* \"#utility.yul\":4671:4677   */\n      dup3\n        /* \"#utility.yul\":4660:4669   */\n      dup15\n        /* \"#utility.yul\":4656:4678   */\n      add\n        /* \"#utility.yul\":4624:4688   */\n      tag_217\n      jump\t// in\n    tag_294:\n        /* \"#utility.yul\":4606:4688   */\n      swap5\n      pop\n      swap5\n      pop\n        /* \"#utility.yul\":4400:4698   */\n      pop\n        /* \"#utility.yul\":4765:4768   */\n      0xe0\n        /* \"#utility.yul\":4754:4763   */\n      dup12\n        /* \"#utility.yul\":4750:4769   */\n      add\n        /* \"#utility.yul\":4737:4770   */\n      calldataload\n        /* \"#utility.yul\":4797:4815   */\n      0xffffffffffffffff\n        /* \"#utility.yul\":4789:4795   */\n      dup2\n        /* \"#utility.yul\":4786:4816   */\n      gt\n        /* \"#utility.yul\":4783:4900   */\n      iszero\n      tag_295\n      jumpi\n        /* \"#utility.yul\":4819:4898   */\n      tag_296\n      tag_206\n      jump\t// in\n    tag_296:\n        /* \"#utility.yul\":4783:4900   */\n    tag_295:\n        /* \"#utility.yul\":4932:4996   */\n      tag_297\n        /* \"#utility.yul\":4988:4995   */\n      dup14\n        /* \"#utility.yul\":4979:4985   */\n      dup3\n        /* \"#utility.yul\":4968:4977   */\n      dup15\n        /* \"#utility.yul\":4964:4986   */\n      add\n        /* \"#utility.yul\":4932:4996   */\n      tag_217\n      jump\t// in\n    tag_297:\n        /* \"#utility.yul\":4914:4996   */\n      swap3\n      pop\n      swap3\n      pop\n        /* \"#utility.yul\":4708:5006   */\n      pop\n        /* \"#utility.yul\":3268:5013   */\n      swap3\n      swap6\n      swap9\n      swap12\n      swap2\n      swap5\n      swap8\n      swap11\n      pop\n      swap3\n      swap6\n      swap9\n      pop\n      jump\t// out\n        /* \"#utility.yul\":5019:6128   */\n    tag_17:\n        /* \"#utility.yul\":5125:5131   */\n      0x00\n        /* \"#utility.yul\":5133:5139   */\n      dup1\n        /* \"#utility.yul\":5141:5147   */\n      0x00\n        /* \"#utility.yul\":5149:5155   */\n      dup1\n        /* \"#utility.yul\":5157:5163   */\n      0x00\n        /* \"#utility.yul\":5165:5171   */\n      dup1\n        /* \"#utility.yul\":5214:5217   */\n      0xa0\n        /* \"#utility.yul\":5202:5211   */\n      dup8\n        /* \"#utility.yul\":5193:5200   */\n      dup10\n        /* \"#utility.yul\":5189:5212   */\n      sub\n        /* \"#utility.yul\":5185:5218   */\n      slt\n        /* \"#utility.yul\":5182:5302   */\n      iszero\n      tag_299\n      jumpi\n        /* \"#utility.yul\":5221:5300   */\n      tag_300\n      tag_205\n      jump\t// in\n    tag_300:\n        /* \"#utility.yul\":5182:5302   */\n    tag_299:\n        /* \"#utility.yul\":5341:5342   */\n      0x00\n        /* \"#utility.yul\":5366:5419   */\n      tag_301\n        /* \"#utility.yul\":5411:5418   */\n      dup10\n        /* \"#utility.yul\":5402:5408   */\n      dup3\n        /* \"#utility.yul\":5391:5400   */\n      dup11\n        /* \"#utility.yul\":5387:5409   */\n      add\n        /* \"#utility.yul\":5366:5419   */\n      tag_210\n      jump\t// in\n    tag_301:\n        /* \"#utility.yul\":5356:5419   */\n      swap7\n      pop\n        /* \"#utility.yul\":5312:5429   */\n      pop\n        /* \"#utility.yul\":5468:5470   */\n      0x20\n        /* \"#utility.yul\":5494:5547   */\n      tag_302\n        /* \"#utility.yul\":5539:5546   */\n      dup10\n        /* \"#utility.yul\":5530:5536   */\n      dup3\n        /* \"#utility.yul\":5519:5528   */\n      dup11\n        /* \"#utility.yul\":5515:5537   */\n      add\n        /* \"#utility.yul\":5494:5547   */\n      tag_213\n      jump\t// in\n    tag_302:\n        /* \"#utility.yul\":5484:5547   */\n      swap6\n      pop\n        /* \"#utility.yul\":5439:5557   */\n      pop\n        /* \"#utility.yul\":5596:5598   */\n      0x40\n        /* \"#utility.yul\":5622:5675   */\n      tag_303\n        /* \"#utility.yul\":5667:5674   */\n      dup10\n        /* \"#utility.yul\":5658:5664   */\n      dup3\n        /* \"#utility.yul\":5647:5656   */\n      dup11\n        /* \"#utility.yul\":5643:5665   */\n      add\n        /* \"#utility.yul\":5622:5675   */\n      tag_213\n      jump\t// in\n    tag_303:\n        /* \"#utility.yul\":5612:5675   */\n      swap5\n      pop\n        /* \"#utility.yul\":5567:5685   */\n      pop\n        /* \"#utility.yul\":5724:5726   */\n      0x60\n        /* \"#utility.yul\":5750:5803   */\n      tag_304\n        /* \"#utility.yul\":5795:5802   */\n      dup10\n        /* \"#utility.yul\":5786:5792   */\n      dup3\n        /* \"#utility.yul\":5775:5784   */\n      dup11\n        /* \"#utility.yul\":5771:5793   */\n      add\n        /* \"#utility.yul\":5750:5803   */\n      tag_213\n      jump\t// in\n    tag_304:\n        /* \"#utility.yul\":5740:5803   */\n      swap4\n      pop\n        /* \"#utility.yul\":5695:5813   */\n      pop\n        /* \"#utility.yul\":5880:5883   */\n      0x80\n        /* \"#utility.yul\":5869:5878   */\n      dup8\n        /* \"#utility.yul\":5865:5884   */\n      add\n        /* \"#utility.yul\":5852:5885   */\n      calldataload\n        /* \"#utility.yul\":5912:5930   */\n      0xffffffffffffffff\n        /* \"#utility.yul\":5904:5910   */\n      dup2\n        /* \"#utility.yul\":5901:5931   */\n      gt\n        /* \"#utility.yul\":5898:6015   */\n      iszero\n      tag_305\n      jumpi\n        /* \"#utility.yul\":5934:6013   */\n      tag_306\n      tag_206\n      jump\t// in\n    tag_306:\n        /* \"#utility.yul\":5898:6015   */\n    tag_305:\n        /* \"#utility.yul\":6047:6111   */\n      tag_307\n        /* \"#utility.yul\":6103:6110   */\n      dup10\n        /* \"#utility.yul\":6094:6100   */\n      dup3\n        /* \"#utility.yul\":6083:6092   */\n      dup11\n        /* \"#utility.yul\":6079:6101   */\n      add\n        /* \"#utility.yul\":6047:6111   */\n      tag_217\n      jump\t// in\n    tag_307:\n        /* \"#utility.yul\":6029:6111   */\n      swap3\n      pop\n      swap3\n      pop\n        /* \"#utility.yul\":5823:6121   */\n      pop\n        /* \"#utility.yul\":5019:6128   */\n      swap3\n      swap6\n      pop\n      swap3\n      swap6\n      pop\n      swap3\n      swap6\n      jump\t// out\n        /* \"#utility.yul\":6134:6211   */\n    tag_218:\n        /* \"#utility.yul\":6171:6178   */\n      0x00\n        /* \"#utility.yul\":6200:6205   */\n      dup2\n        /* \"#utility.yul\":6189:6205   */\n      swap1\n      pop\n        /* \"#utility.yul\":6134:6211   */\n      swap2\n      swap1\n      pop\n      jump\t// out\n        /* \"#utility.yul\":6217:6335   */\n    tag_219:\n        /* \"#utility.yul\":6304:6328   */\n      tag_310\n        /* \"#utility.yul\":6322:6327   */\n      dup2\n        /* \"#utility.yul\":6304:6328   */\n      tag_218\n      jump\t// in\n    tag_310:\n        /* \"#utility.yul\":6299:6302   */\n      dup3\n        /* \"#utility.yul\":6292:6329   */\n      mstore\n        /* \"#utility.yul\":6217:6335   */\n      pop\n      pop\n      jump\t// out\n        /* \"#utility.yul\":6341:6563   */\n    tag_20:\n        /* \"#utility.yul\":6434:6438   */\n      0x00\n        /* \"#utility.yul\":6472:6474   */\n      0x20\n        /* \"#utility.yul\":6461:6470   */\n      dup3\n        /* \"#utility.yul\":6457:6475   */\n      add\n        /* \"#utility.yul\":6449:6475   */\n      swap1\n      pop\n        /* \"#utility.yul\":6485:6556   */\n      tag_312\n        /* \"#utility.yul\":6553:6554   */\n      0x00\n        /* \"#utility.yul\":6542:6551   */\n      dup4\n        /* \"#utility.yul\":6538:6555   */\n      add\n        /* \"#utility.yul\":6529:6535   */\n      dup5\n        /* \"#utility.yul\":6485:6556   */\n      tag_219\n      jump\t// in\n    tag_312:\n        /* \"#utility.yul\":6341:6563   */\n      swap3\n      swap2\n      pop\n      pop\n      jump\t// out\n        /* \"#utility.yul\":6569:6749   */\n    tag_220:\n        /* \"#utility.yul\":6617:6694   */\n      0x4e487b7100000000000000000000000000000000000000000000000000000000\n        /* \"#utility.yul\":6614:6615   */\n      0x00\n        /* \"#utility.yul\":6607:6695   */\n      mstore\n        /* \"#utility.yul\":6714:6718   */\n      0x11\n        /* \"#utility.yul\":6711:6712   */\n      0x04\n        /* \"#utility.yul\":6704:6719   */\n      mstore\n        /* \"#utility.yul\":6738:6742   */\n      0x24\n        /* \"#utility.yul\":6735:6736   */\n      0x00\n        /* \"#utility.yul\":6728:6743   */\n      revert\n        /* \"#utility.yul\":6755:6946   */\n    tag_23:\n        /* \"#utility.yul\":6795:6798   */\n      0x00\n        /* \"#utility.yul\":6814:6834   */\n      tag_315\n        /* \"#utility.yul\":6832:6833   */\n      dup3\n        /* \"#utility.yul\":6814:6834   */\n      tag_211\n      jump\t// in\n    tag_315:\n        /* \"#utility.yul\":6809:6834   */\n      swap2\n      pop\n        /* \"#utility.yul\":6848:6868   */\n      tag_316\n        /* \"#utility.yul\":6866:6867   */\n      dup4\n        /* \"#utility.yul\":6848:6868   */\n      tag_211\n      jump\t// in\n    tag_316:\n        /* \"#utility.yul\":6843:6868   */\n      swap3\n      pop\n        /* \"#utility.yul\":6891:6892   */\n      dup3\n        /* \"#utility.yul\":6888:6889   */\n      dup3\n        /* \"#utility.yul\":6884:6893   */\n      add\n        /* \"#utility.yul\":6877:6893   */\n      swap1\n      pop\n        /* \"#utility.yul\":6912:6915   */\n      dup1\n        /* \"#utility.yul\":6909:6910   */\n      dup3\n        /* \"#utility.yul\":6906:6916   */\n      gt\n        /* \"#utility.yul\":6903:6939   */\n      iszero\n      tag_317\n      jumpi\n        /* \"#utility.yul\":6919:6937   */\n      tag_318\n      tag_220\n      jump\t// in\n    tag_318:\n        /* \"#utility.yul\":6903:6939   */\n    tag_317:\n        /* \"#utility.yul\":6755:6946   */\n      swap3\n      swap2\n      pop\n      pop\n      jump\t// out\n        /* \"#utility.yul\":6952:7070   */\n    tag_221:\n        /* \"#utility.yul\":7039:7063   */\n      tag_320\n        /* \"#utility.yul\":7057:7062   */\n      dup2\n        /* \"#utility.yul\":7039:7063   */\n      tag_211\n      jump\t// in\n    tag_320:\n        /* \"#utility.yul\":7034:7037   */\n      dup3\n        /* \"#utility.yul\":7027:7064   */\n      mstore\n        /* \"#utility.yul\":6952:7070   */\n      pop\n      pop\n      jump\t// out\n        /* \"#utility.yul\":7076:7298   */\n    tag_26:\n        /* \"#utility.yul\":7169:7173   */\n      0x00\n        /* \"#utility.yul\":7207:7209   */\n      0x20\n        /* \"#utility.yul\":7196:7205   */\n      dup3\n        /* \"#utility.yul\":7192:7210   */\n      add\n        /* \"#utility.yul\":7184:7210   */\n      swap1\n      pop\n        /* \"#utility.yul\":7220:7291   */\n      tag_322\n        /* \"#utility.yul\":7288:7289   */\n      0x00\n        /* \"#utility.yul\":7277:7286   */\n      dup4\n        /* \"#utility.yul\":7273:7290   */\n      add\n        /* \"#utility.yul\":7264:7270   */\n      dup5\n        /* \"#utility.yul\":7220:7291   */\n      tag_221\n      jump\t// in\n    tag_322:\n        /* \"#utility.yul\":7076:7298   */\n      swap3\n      swap2\n      pop\n      pop\n      jump\t// out\n        /* \"#utility.yul\":7304:7402   */\n    tag_222:\n        /* \"#utility.yul\":7355:7361   */\n      0x00\n        /* \"#utility.yul\":7389:7394   */\n      dup2\n        /* \"#utility.yul\":7383:7395   */\n      mload\n        /* \"#utility.yul\":7373:7395   */\n      swap1\n      pop\n        /* \"#utility.yul\":7304:7402   */\n      swap2\n      swap1\n      pop\n      jump\t// out\n        /* \"#utility.yul\":7408:7555   */\n    tag_223:\n        /* \"#utility.yul\":7509:7520   */\n      0x00\n        /* \"#utility.yul\":7546:7549   */\n      dup2\n        /* \"#utility.yul\":7531:7549   */\n      swap1\n      pop\n        /* \"#utility.yul\":7408:7555   */\n      swap3\n      swap2\n      pop\n      pop\n      jump\t// out\n        /* \"#utility.yul\":7561:7807   */\n    tag_224:\n        /* \"#utility.yul\":7642:7643   */\n      0x00\n        /* \"#utility.yul\":7652:7765   */\n    tag_326:\n        /* \"#utility.yul\":7666:7672   */\n      dup4\n        /* \"#utility.yul\":7663:7664   */\n      dup2\n        /* \"#utility.yul\":7660:7673   */\n      lt\n        /* \"#utility.yul\":7652:7765   */\n      iszero\n      tag_328\n      jumpi\n        /* \"#utility.yul\":7751:7752   */\n      dup1\n        /* \"#utility.yul\":7746:7749   */\n      dup3\n        /* \"#utility.yul\":7742:7753   */\n      add\n        /* \"#utility.yul\":7736:7754   */\n      mload\n        /* \"#utility.yul\":7732:7733   */\n      dup2\n        /* \"#utility.yul\":7727:7730   */\n      dup5\n        /* \"#utility.yul\":7723:7734   */\n      add\n        /* \"#utility.yul\":7716:7755   */\n      mstore\n        /* \"#utility.yul\":7688:7690   */\n      0x20\n        /* \"#utility.yul\":7685:7686   */\n      dup2\n        /* \"#utility.yul\":7681:7691   */\n      add\n        /* \"#utility.yul\":7676:7691   */\n      swap1\n      pop\n        /* \"#utility.yul\":7652:7765   */\n      jump(tag_326)\n    tag_328:\n        /* \"#utility.yul\":7799:7800   */\n      0x00\n        /* \"#utility.yul\":7790:7796   */\n      dup5\n        /* \"#utility.yul\":7785:7788   */\n      dup5\n        /* \"#utility.yul\":7781:7797   */\n      add\n        /* \"#utility.yul\":7774:7801   */\n      mstore\n        /* \"#utility.yul\":7623:7807   */\n      pop\n        /* \"#utility.yul\":7561:7807   */\n      pop\n      pop\n      pop\n      jump\t// out\n        /* \"#utility.yul\":7813:8199   */\n    tag_225:\n        /* \"#utility.yul\":7917:7920   */\n      0x00\n        /* \"#utility.yul\":7945:7983   */\n      tag_330\n        /* \"#utility.yul\":7977:7982   */\n      dup3\n        /* \"#utility.yul\":7945:7983   */\n      tag_222\n      jump\t// in\n    tag_330:\n        /* \"#utility.yul\":7999:8087   */\n      tag_331\n        /* \"#utility.yul\":8080:8086   */\n      dup2\n        /* \"#utility.yul\":8075:8078   */\n      dup6\n        /* \"#utility.yul\":7999:8087   */\n      tag_223\n      jump\t// in\n    tag_331:\n        /* \"#utility.yul\":7992:8087   */\n      swap4\n      pop\n        /* \"#utility.yul\":8096:8161   */\n      tag_332\n        /* \"#utility.yul\":8154:8160   */\n      dup2\n        /* \"#utility.yul\":8149:8152   */\n      dup6\n        /* \"#utility.yul\":8142:8146   */\n      0x20\n        /* \"#utility.yul\":8135:8140   */\n      dup7\n        /* \"#utility.yul\":8131:8147   */\n      add\n        /* \"#utility.yul\":8096:8161   */\n      tag_224\n      jump\t// in\n    tag_332:\n        /* \"#utility.yul\":8186:8192   */\n      dup1\n        /* \"#utility.yul\":8181:8184   */\n      dup5\n        /* \"#utility.yul\":8177:8193   */\n      add\n        /* \"#utility.yul\":8170:8193   */\n      swap2\n      pop\n        /* \"#utility.yul\":7921:8199   */\n      pop\n        /* \"#utility.yul\":7813:8199   */\n      swap3\n      swap2\n      pop\n      pop\n      jump\t// out\n        /* \"#utility.yul\":8205:8476   */\n    tag_28:\n        /* \"#utility.yul\":8335:8338   */\n      0x00\n        /* \"#utility.yul\":8357:8450   */\n      tag_334\n        /* \"#utility.yul\":8446:8449   */\n      dup3\n        /* \"#utility.yul\":8437:8443   */\n      dup5\n        /* \"#utility.yul\":8357:8450   */\n      tag_225\n      jump\t// in\n    tag_334:\n        /* \"#utility.yul\":8350:8450   */\n      swap2\n      pop\n        /* \"#utility.yul\":8467:8470   */\n      dup2\n        /* \"#utility.yul\":8460:8470   */\n      swap1\n      pop\n        /* \"#utility.yul\":8205:8476   */\n      swap3\n      swap2\n      pop\n      pop\n      jump\t// out\n        /* \"#utility.yul\":8482:8637   */\n    tag_226:\n        /* \"#utility.yul\":8622:8629   */\n      0x5251455448000000000000000000000000000000000000000000000000000000\n        /* \"#utility.yul\":8618:8619   */\n      0x00\n        /* \"#utility.yul\":8610:8616   */\n      dup3\n        /* \"#utility.yul\":8606:8620   */\n      add\n        /* \"#utility.yul\":8599:8630   */\n      mstore\n        /* \"#utility.yul\":8482:8637   */\n      pop\n      jump\t// out\n        /* \"#utility.yul\":8643:9008   */\n    tag_227:\n        /* \"#utility.yul\":8785:8788   */\n      0x00\n        /* \"#utility.yul\":8806:8872   */\n      tag_337\n        /* \"#utility.yul\":8870:8871   */\n      0x05\n        /* \"#utility.yul\":8865:8868   */\n      dup4\n        /* \"#utility.yul\":8806:8872   */\n      tag_201\n      jump\t// in\n    tag_337:\n        /* \"#utility.yul\":8799:8872   */\n      swap2\n      pop\n        /* \"#utility.yul\":8881:8974   */\n      tag_338\n        /* \"#utility.yul\":8970:8973   */\n      dup3\n        /* \"#utility.yul\":8881:8974   */\n      tag_226\n      jump\t// in\n    tag_338:\n        /* \"#utility.yul\":8999:9001   */\n      0x20\n        /* \"#utility.yul\":8994:8997   */\n      dup3\n        /* \"#utility.yul\":8990:9002   */\n      add\n        /* \"#utility.yul\":8983:9002   */\n      swap1\n      pop\n        /* \"#utility.yul\":8643:9008   */\n      swap2\n      swap1\n      pop\n      jump\t// out\n        /* \"#utility.yul\":9014:9433   */\n    tag_34:\n        /* \"#utility.yul\":9180:9184   */\n      0x00\n        /* \"#utility.yul\":9218:9220   */\n      0x20\n        /* \"#utility.yul\":9207:9216   */\n      dup3\n        /* \"#utility.yul\":9203:9221   */\n      add\n        /* \"#utility.yul\":9195:9221   */\n      swap1\n      pop\n        /* \"#utility.yul\":9267:9276   */\n      dup2\n        /* \"#utility.yul\":9261:9265   */\n      dup2\n        /* \"#utility.yul\":9257:9277   */\n      sub\n        /* \"#utility.yul\":9253:9254   */\n      0x00\n        /* \"#utility.yul\":9242:9251   */\n      dup4\n        /* \"#utility.yul\":9238:9255   */\n      add\n        /* \"#utility.yul\":9231:9278   */\n      mstore\n        /* \"#utility.yul\":9295:9426   */\n      tag_340\n        /* \"#utility.yul\":9421:9425   */\n      dup2\n        /* \"#utility.yul\":9295:9426   */\n      tag_227\n      jump\t// in\n    tag_340:\n        /* \"#utility.yul\":9287:9426   */\n      swap1\n      pop\n        /* \"#utility.yul\":9014:9433   */\n      swap2\n      swap1\n      pop\n      jump\t// out\n        /* \"#utility.yul\":9439:9557   */\n    tag_228:\n        /* \"#utility.yul\":9526:9550   */\n      tag_342\n        /* \"#utility.yul\":9544:9549   */\n      dup2\n        /* \"#utility.yul\":9526:9550   */\n      tag_208\n      jump\t// in\n    tag_342:\n        /* \"#utility.yul\":9521:9524   */\n      dup3\n        /* \"#utility.yul\":9514:9551   */\n      mstore\n        /* \"#utility.yul\":9439:9557   */\n      pop\n      pop\n      jump\t// out\n        /* \"#utility.yul\":9563:9731   */\n    tag_229:\n        /* \"#utility.yul\":9646:9657   */\n      0x00\n        /* \"#utility.yul\":9680:9686   */\n      dup3\n        /* \"#utility.yul\":9675:9678   */\n      dup3\n        /* \"#utility.yul\":9668:9687   */\n      mstore\n        /* \"#utility.yul\":9720:9724   */\n      0x20\n        /* \"#utility.yul\":9715:9718   */\n      dup3\n        /* \"#utility.yul\":9711:9725   */\n      add\n        /* \"#utility.yul\":9696:9725   */\n      swap1\n      pop\n        /* \"#utility.yul\":9563:9731   */\n      swap3\n      swap2\n      pop\n      pop\n      jump\t// out\n        /* \"#utility.yul\":9737:9883   */\n    tag_230:\n        /* \"#utility.yul\":9834:9840   */\n      dup3\n        /* \"#utility.yul\":9829:9832   */\n      dup2\n        /* \"#utility.yul\":9824:9827   */\n      dup4\n        /* \"#utility.yul\":9811:9841   */\n      calldatacopy\n        /* \"#utility.yul\":9875:9876   */\n      0x00\n        /* \"#utility.yul\":9866:9872   */\n      dup4\n        /* \"#utility.yul\":9861:9864   */\n      dup4\n        /* \"#utility.yul\":9857:9873   */\n      add\n        /* \"#utility.yul\":9850:9877   */\n      mstore\n        /* \"#utility.yul\":9737:9883   */\n      pop\n      pop\n      pop\n      jump\t// out\n        /* \"#utility.yul\":9889:9991   */\n    tag_231:\n        /* \"#utility.yul\":9930:9936   */\n      0x00\n        /* \"#utility.yul\":9981:9983   */\n      0x1f\n        /* \"#utility.yul\":9977:9984   */\n      not\n        /* \"#utility.yul\":9972:9974   */\n      0x1f\n        /* \"#utility.yul\":9965:9970   */\n      dup4\n        /* \"#utility.yul\":9961:9975   */\n      add\n        /* \"#utility.yul\":9957:9985   */\n      and\n        /* \"#utility.yul\":9947:9985   */\n      swap1\n      pop\n        /* \"#utility.yul\":9889:9991   */\n      swap2\n      swap1\n      pop\n      jump\t// out\n        /* \"#utility.yul\":10019:10333   */\n    tag_232:\n        /* \"#utility.yul\":10115:10118   */\n      0x00\n        /* \"#utility.yul\":10136:10206   */\n      tag_347\n        /* \"#utility.yul\":10199:10205   */\n      dup4\n        /* \"#utility.yul\":10194:10197   */\n      dup6\n        /* \"#utility.yul\":10136:10206   */\n      tag_229\n      jump\t// in\n    tag_347:\n        /* \"#utility.yul\":10129:10206   */\n      swap4\n      pop\n        /* \"#utility.yul\":10216:10272   */\n      tag_348\n        /* \"#utility.yul\":10265:10271   */\n      dup4\n        /* \"#utility.yul\":10260:10263   */\n      dup6\n        /* \"#utility.yul\":10253:10258   */\n      dup5\n        /* \"#utility.yul\":10216:10272   */\n      tag_230\n      jump\t// in\n    tag_348:\n        /* \"#utility.yul\":10297:10326   */\n      tag_349\n        /* \"#utility.yul\":10319:10325   */\n      dup4\n        /* \"#utility.yul\":10297:10326   */\n      tag_231\n      jump\t// in\n    tag_349:\n        /* \"#utility.yul\":10292:10295   */\n      dup5\n        /* \"#utility.yul\":10288:10327   */\n      add\n        /* \"#utility.yul\":10281:10327   */\n      swap1\n      pop\n        /* \"#utility.yul\":10019:10333   */\n      swap4\n      swap3\n      pop\n      pop\n      pop\n      jump\t// out\n        /* \"#utility.yul\":10339:11332   */\n    tag_36:\n        /* \"#utility.yul\":10628:10632   */\n      0x00\n        /* \"#utility.yul\":10666:10669   */\n      0xe0\n        /* \"#utility.yul\":10655:10664   */\n      dup3\n        /* \"#utility.yul\":10651:10670   */\n      add\n        /* \"#utility.yul\":10643:10670   */\n      swap1\n      pop\n        /* \"#utility.yul\":10680:10751   */\n      tag_351\n        /* \"#utility.yul\":10748:10749   */\n      0x00\n        /* \"#utility.yul\":10737:10746   */\n      dup4\n        /* \"#utility.yul\":10733:10750   */\n      add\n        /* \"#utility.yul\":10724:10730   */\n      dup12\n        /* \"#utility.yul\":10680:10751   */\n      tag_228\n      jump\t// in\n    tag_351:\n        /* \"#utility.yul\":10761:10833   */\n      tag_352\n        /* \"#utility.yul\":10829:10831   */\n      0x20\n        /* \"#utility.yul\":10818:10827   */\n      dup4\n        /* \"#utility.yul\":10814:10832   */\n      add\n        /* \"#utility.yul\":10805:10811   */\n      dup11\n        /* \"#utility.yul\":10761:10833   */\n      tag_228\n      jump\t// in\n    tag_352:\n        /* \"#utility.yul\":10843:10915   */\n      tag_353\n        /* \"#utility.yul\":10911:10913   */\n      0x40\n        /* \"#utility.yul\":10900:10909   */\n      dup4\n        /* \"#utility.yul\":10896:10914   */\n      add\n        /* \"#utility.yul\":10887:10893   */\n      dup10\n        /* \"#utility.yul\":10843:10915   */\n      tag_221\n      jump\t// in\n    tag_353:\n        /* \"#utility.yul\":10925:10997   */\n      tag_354\n        /* \"#utility.yul\":10993:10995   */\n      0x60\n        /* \"#utility.yul\":10982:10991   */\n      dup4\n        /* \"#utility.yul\":10978:10996   */\n      add\n        /* \"#utility.yul\":10969:10975   */\n      dup9\n        /* \"#utility.yul\":10925:10997   */\n      tag_221\n      jump\t// in\n    tag_354:\n        /* \"#utility.yul\":11007:11080   */\n      tag_355\n        /* \"#utility.yul\":11075:11078   */\n      0x80\n        /* \"#utility.yul\":11064:11073   */\n      dup4\n        /* \"#utility.yul\":11060:11079   */\n      add\n        /* \"#utility.yul\":11051:11057   */\n      dup8\n        /* \"#utility.yul\":11007:11080   */\n      tag_221\n      jump\t// in\n    tag_355:\n        /* \"#utility.yul\":11090:11163   */\n      tag_356\n        /* \"#utility.yul\":11158:11161   */\n      0xa0\n        /* \"#utility.yul\":11147:11156   */\n      dup4\n        /* \"#utility.yul\":11143:11162   */\n      add\n        /* \"#utility.yul\":11134:11140   */\n      dup7\n        /* \"#utility.yul\":11090:11163   */\n      tag_221\n      jump\t// in\n    tag_356:\n        /* \"#utility.yul\":11211:11220   */\n      dup2\n        /* \"#utility.yul\":11205:11209   */\n      dup2\n        /* \"#utility.yul\":11201:11221   */\n      sub\n        /* \"#utility.yul\":11195:11198   */\n      0xc0\n        /* \"#utility.yul\":11184:11193   */\n      dup4\n        /* \"#utility.yul\":11180:11199   */\n      add\n        /* \"#utility.yul\":11173:11222   */\n      mstore\n        /* \"#utility.yul\":11239:11325   */\n      tag_357\n        /* \"#utility.yul\":11320:11324   */\n      dup2\n        /* \"#utility.yul\":11311:11317   */\n      dup5\n        /* \"#utility.yul\":11303:11309   */\n      dup7\n        /* \"#utility.yul\":11239:11325   */\n      tag_232\n      jump\t// in\n    tag_357:\n        /* \"#utility.yul\":11231:11325   */\n      swap1\n      pop\n        /* \"#utility.yul\":10339:11332   */\n      swap10\n      swap9\n      pop\n      pop\n      pop\n      pop\n      pop\n      pop\n      pop\n      pop\n      pop\n      jump\t// out\n        /* \"#utility.yul\":11338:11493   */\n    tag_233:\n        /* \"#utility.yul\":11478:11485   */\n      0x444d56414c000000000000000000000000000000000000000000000000000000\n        /* \"#utility.yul\":11474:11475   */\n      0x00\n        /* \"#utility.yul\":11466:11472   */\n      dup3\n        /* \"#utility.yul\":11462:11476   */\n      add\n        /* \"#utility.yul\":11455:11486   */\n      mstore\n        /* \"#utility.yul\":11338:11493   */\n      pop\n      jump\t// out\n        /* \"#utility.yul\":11499:11864   */\n    tag_234:\n        /* \"#utility.yul\":11641:11644   */\n      0x00\n        /* \"#utility.yul\":11662:11728   */\n      tag_360\n        /* \"#utility.yul\":11726:11727   */\n      0x05\n        /* \"#utility.yul\":11721:11724   */\n      dup4\n        /* \"#utility.yul\":11662:11728   */\n      tag_201\n      jump\t// in\n    tag_360:\n        /* \"#utility.yul\":11655:11728   */\n      swap2\n      pop\n        /* \"#utility.yul\":11737:11830   */\n      tag_361\n        /* \"#utility.yul\":11826:11829   */\n      dup3\n        /* \"#utility.yul\":11737:11830   */\n      tag_233\n      jump\t// in\n    tag_361:\n        /* \"#utility.yul\":11855:11857   */\n      0x20\n        /* \"#utility.yul\":11850:11853   */\n      dup3\n        /* \"#utility.yul\":11846:11858   */\n      add\n        /* \"#utility.yul\":11839:11858   */\n      swap1\n      pop\n        /* \"#utility.yul\":11499:11864   */\n      swap2\n      swap1\n      pop\n      jump\t// out\n        /* \"#utility.yul\":11870:12289   */\n    tag_43:\n        /* \"#utility.yul\":12036:12040   */\n      0x00\n        /* \"#utility.yul\":12074:12076   */\n      0x20\n        /* \"#utility.yul\":12063:12072   */\n      dup3\n        /* \"#utility.yul\":12059:12077   */\n      add\n        /* \"#utility.yul\":12051:12077   */\n      swap1\n      pop\n        /* \"#utility.yul\":12123:12132   */\n      dup2\n        /* \"#utility.yul\":12117:12121   */\n      dup2\n        /* \"#utility.yul\":12113:12133   */\n      sub\n        /* \"#utility.yul\":12109:12110   */\n      0x00\n        /* \"#utility.yul\":12098:12107   */\n      dup4\n        /* \"#utility.yul\":12094:12111   */\n      add\n        /* \"#utility.yul\":12087:12134   */\n      mstore\n        /* \"#utility.yul\":12151:12282   */\n      tag_363\n        /* \"#utility.yul\":12277:12281   */\n      dup2\n        /* \"#utility.yul\":12151:12282   */\n      tag_234\n      jump\t// in\n    tag_363:\n        /* \"#utility.yul\":12143:12282   */\n      swap1\n      pop\n        /* \"#utility.yul\":11870:12289   */\n      swap2\n      swap1\n      pop\n      jump\t// out\n        /* \"#utility.yul\":12295:12451   */\n    tag_235:\n        /* \"#utility.yul\":12435:12443   */\n      0x5354524f4f540000000000000000000000000000000000000000000000000000\n        /* \"#utility.yul\":12431:12432   */\n      0x00\n        /* \"#utility.yul\":12423:12429   */\n      dup3\n        /* \"#utility.yul\":12419:12433   */\n      add\n        /* \"#utility.yul\":12412:12444   */\n      mstore\n        /* \"#utility.yul\":12295:12451   */\n      pop\n      jump\t// out\n        /* \"#utility.yul\":12457:12822   */\n    tag_236:\n        /* \"#utility.yul\":12599:12602   */\n      0x00\n        /* \"#utility.yul\":12620:12686   */\n      tag_366\n        /* \"#utility.yul\":12684:12685   */\n      0x06\n        /* \"#utility.yul\":12679:12682   */\n      dup4\n        /* \"#utility.yul\":12620:12686   */\n      tag_201\n      jump\t// in\n    tag_366:\n        /* \"#utility.yul\":12613:12686   */\n      swap2\n      pop\n        /* \"#utility.yul\":12695:12788   */\n      tag_367\n        /* \"#utility.yul\":12784:12787   */\n      dup3\n        /* \"#utility.yul\":12695:12788   */\n      tag_235\n      jump\t// in\n    tag_367:\n        /* \"#utility.yul\":12813:12815   */\n      0x20\n        /* \"#utility.yul\":12808:12811   */\n      dup3\n        /* \"#utility.yul\":12804:12816   */\n      add\n        /* \"#utility.yul\":12797:12816   */\n      swap1\n      pop\n        /* \"#utility.yul\":12457:12822   */\n      swap2\n      swap1\n      pop\n      jump\t// out\n        /* \"#utility.yul\":12828:13247   */\n    tag_46:\n        /* \"#utility.yul\":12994:12998   */\n      0x00\n        /* \"#utility.yul\":13032:13034   */\n      0x20\n        /* \"#utility.yul\":13021:13030   */\n      dup3\n        /* \"#utility.yul\":13017:13035   */\n      add\n        /* \"#utility.yul\":13009:13035   */\n      swap1\n      pop\n        /* \"#utility.yul\":13081:13090   */\n      dup2\n        /* \"#utility.yul\":13075:13079   */\n      dup2\n        /* \"#utility.yul\":13071:13091   */\n      sub\n        /* \"#utility.yul\":13067:13068   */\n      0x00\n        /* \"#utility.yul\":13056:13065   */\n      dup4\n        /* \"#utility.yul\":13052:13069   */\n      add\n        /* \"#utility.yul\":13045:13092   */\n      mstore\n        /* \"#utility.yul\":13109:13240   */\n      tag_369\n        /* \"#utility.yul\":13235:13239   */\n      dup2\n        /* \"#utility.yul\":13109:13240   */\n      tag_236\n      jump\t// in\n    tag_369:\n        /* \"#utility.yul\":13101:13240   */\n      swap1\n      pop\n        /* \"#utility.yul\":12828:13247   */\n      swap2\n      swap1\n      pop\n      jump\t// out\n        /* \"#utility.yul\":13253:13396   */\n    tag_237:\n        /* \"#utility.yul\":13310:13315   */\n      0x00\n        /* \"#utility.yul\":13341:13347   */\n      dup2\n        /* \"#utility.yul\":13335:13348   */\n      mload\n        /* \"#utility.yul\":13326:13348   */\n      swap1\n      pop\n        /* \"#utility.yul\":13357:13390   */\n      tag_371\n        /* \"#utility.yul\":13384:13389   */\n      dup2\n        /* \"#utility.yul\":13357:13390   */\n      tag_212\n      jump\t// in\n    tag_371:\n        /* \"#utility.yul\":13253:13396   */\n      swap3\n      swap2\n      pop\n      pop\n      jump\t// out\n        /* \"#utility.yul\":13402:13753   */\n    tag_51:\n        /* \"#utility.yul\":13472:13478   */\n      0x00\n        /* \"#utility.yul\":13521:13523   */\n      0x20\n        /* \"#utility.yul\":13509:13518   */\n      dup3\n        /* \"#utility.yul\":13500:13507   */\n      dup5\n        /* \"#utility.yul\":13496:13519   */\n      sub\n        /* \"#utility.yul\":13492:13524   */\n      slt\n        /* \"#utility.yul\":13489:13608   */\n      iszero\n      tag_373\n      jumpi\n        /* \"#utility.yul\":13527:13606   */\n      tag_374\n      tag_205\n      jump\t// in\n    tag_374:\n        /* \"#utility.yul\":13489:13608   */\n    tag_373:\n        /* \"#utility.yul\":13647:13648   */\n      0x00\n        /* \"#utility.yul\":13672:13736   */\n      tag_375\n        /* \"#utility.yul\":13728:13735   */\n      dup5\n        /* \"#utility.yul\":13719:13725   */\n      dup3\n        /* \"#utility.yul\":13708:13717   */\n      dup6\n        /* \"#utility.yul\":13704:13726   */\n      add\n        /* \"#utility.yul\":13672:13736   */\n      tag_237\n      jump\t// in\n    tag_375:\n        /* \"#utility.yul\":13662:13736   */\n      swap2\n      pop\n        /* \"#utility.yul\":13618:13746   */\n      pop\n        /* \"#utility.yul\":13402:13753   */\n      swap3\n      swap2\n      pop\n      pop\n      jump\t// out\n        /* \"#utility.yul\":13759:13913   */\n    tag_238:\n        /* \"#utility.yul\":13899:13905   */\n      0x444d545300000000000000000000000000000000000000000000000000000000\n        /* \"#utility.yul\":13895:13896   */\n      0x00\n        /* \"#utility.yul\":13887:13893   */\n      dup3\n        /* \"#utility.yul\":13883:13897   */\n      add\n        /* \"#utility.yul\":13876:13906   */\n      mstore\n        /* \"#utility.yul\":13759:13913   */\n      pop\n      jump\t// out\n        /* \"#utility.yul\":13919:14284   */\n    tag_239:\n        /* \"#utility.yul\":14061:14064   */\n      0x00\n        /* \"#utility.yul\":14082:14148   */\n      tag_378\n        /* \"#utility.yul\":14146:14147   */\n      0x04\n        /* \"#utility.yul\":14141:14144   */\n      dup4\n        /* \"#utility.yul\":14082:14148   */\n      tag_201\n      jump\t// in\n    tag_378:\n        /* \"#utility.yul\":14075:14148   */\n      swap2\n      pop\n        /* \"#utility.yul\":14157:14250   */\n      tag_379\n        /* \"#utility.yul\":14246:14249   */\n      dup3\n        /* \"#utility.yul\":14157:14250   */\n      tag_238\n      jump\t// in\n    tag_379:\n        /* \"#utility.yul\":14275:14277   */\n      0x20\n        /* \"#utility.yul\":14270:14273   */\n      dup3\n        /* \"#utility.yul\":14266:14278   */\n      add\n        /* \"#utility.yul\":14259:14278   */\n      swap1\n      pop\n        /* \"#utility.yul\":13919:14284   */\n      swap2\n      swap1\n      pop\n      jump\t// out\n        /* \"#utility.yul\":14290:14709   */\n    tag_54:\n        /* \"#utility.yul\":14456:14460   */\n      0x00\n        /* \"#utility.yul\":14494:14496   */\n      0x20\n        /* \"#utility.yul\":14483:14492   */\n      dup3\n        /* \"#utility.yul\":14479:14497   */\n      add\n        /* \"#utility.yul\":14471:14497   */\n      swap1\n      pop\n        /* \"#utility.yul\":14543:14552   */\n      dup2\n        /* \"#utility.yul\":14537:14541   */\n      dup2\n        /* \"#utility.yul\":14533:14553   */\n      sub\n        /* \"#utility.yul\":14529:14530   */\n      0x00\n        /* \"#utility.yul\":14518:14527   */\n      dup4\n        /* \"#utility.yul\":14514:14531   */\n      add\n        /* \"#utility.yul\":14507:14554   */\n      mstore\n        /* \"#utility.yul\":14571:14702   */\n      tag_381\n        /* \"#utility.yul\":14697:14701   */\n      dup2\n        /* \"#utility.yul\":14571:14702   */\n      tag_239\n      jump\t// in\n    tag_381:\n        /* \"#utility.yul\":14563:14702   */\n      swap1\n      pop\n        /* \"#utility.yul\":14290:14709   */\n      swap2\n      swap1\n      pop\n      jump\t// out\n        /* \"#utility.yul\":14715:14868   */\n    tag_240:\n        /* \"#utility.yul\":14855:14860   */\n      0x444d440000000000000000000000000000000000000000000000000000000000\n        /* \"#utility.yul\":14851:14852   */\n      0x00\n        /* \"#utility.yul\":14843:14849   */\n      dup3\n        /* \"#utility.yul\":14839:14853   */\n      add\n        /* \"#utility.yul\":14832:14861   */\n      mstore\n        /* \"#utility.yul\":14715:14868   */\n      pop\n      jump\t// out\n        /* \"#utility.yul\":14874:15239   */\n    tag_241:\n        /* \"#utility.yul\":15016:15019   */\n      0x00\n        /* \"#utility.yul\":15037:15103   */\n      tag_384\n        /* \"#utility.yul\":15101:15102   */\n      0x03\n        /* \"#utility.yul\":15096:15099   */\n      dup4\n        /* \"#utility.yul\":15037:15103   */\n      tag_201\n      jump\t// in\n    tag_384:\n        /* \"#utility.yul\":15030:15103   */\n      swap2\n      pop\n        /* \"#utility.yul\":15112:15205   */\n      tag_385\n        /* \"#utility.yul\":15201:15204   */\n      dup3\n        /* \"#utility.yul\":15112:15205   */\n      tag_240\n      jump\t// in\n    tag_385:\n        /* \"#utility.yul\":15230:15232   */\n      0x20\n        /* \"#utility.yul\":15225:15228   */\n      dup3\n        /* \"#utility.yul\":15221:15233   */\n      add\n        /* \"#utility.yul\":15214:15233   */\n      swap1\n      pop\n        /* \"#utility.yul\":14874:15239   */\n      swap2\n      swap1\n      pop\n      jump\t// out\n        /* \"#utility.yul\":15245:15664   */\n    tag_166:\n        /* \"#utility.yul\":15411:15415   */\n      0x00\n        /* \"#utility.yul\":15449:15451   */\n      0x20\n        /* \"#utility.yul\":15438:15447   */\n      dup3\n        /* \"#utility.yul\":15434:15452   */\n      add\n        /* \"#utility.yul\":15426:15452   */\n      swap1\n      pop\n        /* \"#utility.yul\":15498:15507   */\n      dup2\n        /* \"#utility.yul\":15492:15496   */\n      dup2\n        /* \"#utility.yul\":15488:15508   */\n      sub\n        /* \"#utility.yul\":15484:15485   */\n      0x00\n        /* \"#utility.yul\":15473:15482   */\n      dup4\n        /* \"#utility.yul\":15469:15486   */\n      add\n        /* \"#utility.yul\":15462:15509   */\n      mstore\n        /* \"#utility.yul\":15526:15657   */\n      tag_387\n        /* \"#utility.yul\":15652:15656   */\n      dup2\n        /* \"#utility.yul\":15526:15657   */\n      tag_241\n      jump\t// in\n    tag_387:\n        /* \"#utility.yul\":15518:15657   */\n      swap1\n      pop\n        /* \"#utility.yul\":15245:15664   */\n      swap2\n      swap1\n      pop\n      jump\t// out\n        /* \"#utility.yul\":15670:15823   */\n    tag_242:\n        /* \"#utility.yul\":15810:15815   */\n      0x444d480000000000000000000000000000000000000000000000000000000000\n        /* \"#utility.yul\":15806:15807   */\n      0x00\n        /* \"#utility.yul\":15798:15804   */\n      dup3\n        /* \"#utility.yul\":15794:15808   */\n      add\n        /* \"#utility.yul\":15787:15816   */\n      mstore\n        /* \"#utility.yul\":15670:15823   */\n      pop\n      jump\t// out\n        /* \"#utility.yul\":15829:16194   */\n    tag_243:\n        /* \"#utility.yul\":15971:15974   */\n      0x00\n        /* \"#utility.yul\":15992:16058   */\n      tag_390\n        /* \"#utility.yul\":16056:16057   */\n      0x03\n        /* \"#utility.yul\":16051:16054   */\n      dup4\n        /* \"#utility.yul\":15992:16058   */\n      tag_201\n      jump\t// in\n    tag_390:\n        /* \"#utility.yul\":15985:16058   */\n      swap2\n      pop\n        /* \"#utility.yul\":16067:16160   */\n      tag_391\n        /* \"#utility.yul\":16156:16159   */\n      dup3\n        /* \"#utility.yul\":16067:16160   */\n      tag_242\n      jump\t// in\n    tag_391:\n        /* \"#utility.yul\":16185:16187   */\n      0x20\n        /* \"#utility.yul\":16180:16183   */\n      dup3\n        /* \"#utility.yul\":16176:16188   */\n      add\n        /* \"#utility.yul\":16169:16188   */\n      swap1\n      pop\n        /* \"#utility.yul\":15829:16194   */\n      swap2\n      swap1\n      pop\n      jump\t// out\n        /* \"#utility.yul\":16200:16619   */\n    tag_173:\n        /* \"#utility.yul\":16366:16370   */\n      0x00\n        /* \"#utility.yul\":16404:16406   */\n      0x20\n        /* \"#utility.yul\":16393:16402   */\n      dup3\n        /* \"#utility.yul\":16389:16407   */\n      add\n        /* \"#utility.yul\":16381:16407   */\n      swap1\n      pop\n        /* \"#utility.yul\":16453:16462   */\n      dup2\n        /* \"#utility.yul\":16447:16451   */\n      dup2\n        /* \"#utility.yul\":16443:16463   */\n      sub\n        /* \"#utility.yul\":16439:16440   */\n      0x00\n        /* \"#utility.yul\":16428:16437   */\n      dup4\n        /* \"#utility.yul\":16424:16441   */\n      add\n        /* \"#utility.yul\":16417:16464   */\n      mstore\n        /* \"#utility.yul\":16481:16612   */\n      tag_393\n        /* \"#utility.yul\":16607:16611   */\n      dup2\n        /* \"#utility.yul\":16481:16612   */\n      tag_243\n      jump\t// in\n    tag_393:\n        /* \"#utility.yul\":16473:16612   */\n      swap1\n      pop\n        /* \"#utility.yul\":16200:16619   */\n      swap2\n      swap1\n      pop\n      jump\t// out\n        /* \"#utility.yul\":16625:16739   */\n    tag_244:\n      pop\n      jump\t// out\n        /* \"#utility.yul\":16745:17143   */\n    tag_245:\n        /* \"#utility.yul\":16904:16907   */\n      0x00\n        /* \"#utility.yul\":16925:17008   */\n      tag_396\n        /* \"#utility.yul\":17006:17007   */\n      0x00\n        /* \"#utility.yul\":17001:17004   */\n      dup4\n        /* \"#utility.yul\":16925:17008   */\n      tag_223\n      jump\t// in\n    tag_396:\n        /* \"#utility.yul\":16918:17008   */\n      swap2\n      pop\n        /* \"#utility.yul\":17017:17110   */\n      tag_397\n        /* \"#utility.yul\":17106:17109   */\n      dup3\n        /* \"#utility.yul\":17017:17110   */\n      tag_244\n      jump\t// in\n    tag_397:\n        /* \"#utility.yul\":17135:17136   */\n      0x00\n        /* \"#utility.yul\":17130:17133   */\n      dup3\n        /* \"#utility.yul\":17126:17137   */\n      add\n        /* \"#utility.yul\":17119:17137   */\n      swap1\n      pop\n        /* \"#utility.yul\":16745:17143   */\n      swap2\n      swap1\n      pop\n      jump\t// out\n        /* \"#utility.yul\":17149:17528   */\n    tag_182:\n        /* \"#utility.yul\":17333:17336   */\n      0x00\n        /* \"#utility.yul\":17355:17502   */\n      tag_399\n        /* \"#utility.yul\":17498:17501   */\n      dup3\n        /* \"#utility.yul\":17355:17502   */\n      tag_245\n      jump\t// in\n    tag_399:\n        /* \"#utility.yul\":17348:17502   */\n      swap2\n      pop\n        /* \"#utility.yul\":17519:17522   */\n      dup2\n        /* \"#utility.yul\":17512:17522   */\n      swap1\n      pop\n        /* \"#utility.yul\":17149:17528   */\n      swap2\n      swap1\n      pop\n      jump\t// out\n        /* \"#utility.yul\":17534:17688   */\n    tag_246:\n        /* \"#utility.yul\":17674:17680   */\n      0x5445544800000000000000000000000000000000000000000000000000000000\n        /* \"#utility.yul\":17670:17671   */\n      0x00\n        /* \"#utility.yul\":17662:17668   */\n      dup3\n        /* \"#utility.yul\":17658:17672   */\n      add\n        /* \"#utility.yul\":17651:17681   */\n      mstore\n        /* \"#utility.yul\":17534:17688   */\n      pop\n      jump\t// out\n        /* \"#utility.yul\":17694:18059   */\n    tag_247:\n        /* \"#utility.yul\":17836:17839   */\n      0x00\n        /* \"#utility.yul\":17857:17923   */\n      tag_402\n        /* \"#utility.yul\":17921:17922   */\n      0x04\n        /* \"#utility.yul\":17916:17919   */\n      dup4\n        /* \"#utility.yul\":17857:17923   */\n      tag_201\n      jump\t// in\n    tag_402:\n        /* \"#utility.yul\":17850:17923   */\n      swap2\n      pop\n        /* \"#utility.yul\":17932:18025   */\n      tag_403\n        /* \"#utility.yul\":18021:18024   */\n      dup3\n        /* \"#utility.yul\":17932:18025   */\n      tag_246\n      jump\t// in\n    tag_403:\n        /* \"#utility.yul\":18050:18052   */\n      0x20\n        /* \"#utility.yul\":18045:18048   */\n      dup3\n        /* \"#utility.yul\":18041:18053   */\n      add\n        /* \"#utility.yul\":18034:18053   */\n      swap1\n      pop\n        /* \"#utility.yul\":17694:18059   */\n      swap2\n      swap1\n      pop\n      jump\t// out\n        /* \"#utility.yul\":18065:18484   */\n    tag_188:\n        /* \"#utility.yul\":18231:18235   */\n      0x00\n        /* \"#utility.yul\":18269:18271   */\n      0x20\n        /* \"#utility.yul\":18258:18267   */\n      dup3\n        /* \"#utility.yul\":18254:18272   */\n      add\n        /* \"#utility.yul\":18246:18272   */\n      swap1\n      pop\n        /* \"#utility.yul\":18318:18327   */\n      dup2\n        /* \"#utility.yul\":18312:18316   */\n      dup2\n        /* \"#utility.yul\":18308:18328   */\n      sub\n        /* \"#utility.yul\":18304:18305   */\n      0x00\n        /* \"#utility.yul\":18293:18302   */\n      dup4\n        /* \"#utility.yul\":18289:18306   */\n      add\n        /* \"#utility.yul\":18282:18329   */\n      mstore\n        /* \"#utility.yul\":18346:18477   */\n      tag_405\n        /* \"#utility.yul\":18472:18476   */\n      dup2\n        /* \"#utility.yul\":18346:18477   */\n      tag_247\n      jump\t// in\n    tag_405:\n        /* \"#utility.yul\":18338:18477   */\n      swap1\n      pop\n        /* \"#utility.yul\":18065:18484   */\n      swap2\n      swap1\n      pop\n      jump\t// out\n        /* \"#utility.yul\":18490:18684   */\n    tag_191:\n        /* \"#utility.yul\":18530:18534   */\n      0x00\n        /* \"#utility.yul\":18550:18570   */\n      tag_407\n        /* \"#utility.yul\":18568:18569   */\n      dup3\n        /* \"#utility.yul\":18550:18570   */\n      tag_211\n      jump\t// in\n    tag_407:\n        /* \"#utility.yul\":18545:18570   */\n      swap2\n      pop\n        /* \"#utility.yul\":18584:18604   */\n      tag_408\n        /* \"#utility.yul\":18602:18603   */\n      dup4\n        /* \"#utility.yul\":18584:18604   */\n      tag_211\n      jump\t// in\n    tag_408:\n        /* \"#utility.yul\":18579:18604   */\n      swap3\n      pop\n        /* \"#utility.yul\":18628:18629   */\n      dup3\n        /* \"#utility.yul\":18625:18626   */\n      dup3\n        /* \"#utility.yul\":18621:18630   */\n      sub\n        /* \"#utility.yul\":18613:18630   */\n      swap1\n      pop\n        /* \"#utility.yul\":18652:18653   */\n      dup2\n        /* \"#utility.yul\":18646:18650   */\n      dup2\n        /* \"#utility.yul\":18643:18654   */\n      gt\n        /* \"#utility.yul\":18640:18677   */\n      iszero\n      tag_409\n      jumpi\n        /* \"#utility.yul\":18657:18675   */\n      tag_410\n      tag_220\n      jump\t// in\n    tag_410:\n        /* \"#utility.yul\":18640:18677   */\n    tag_409:\n        /* \"#utility.yul\":18490:18684   */\n      swap3\n      swap2\n      pop\n      pop\n      jump\t// out\n\n    auxdata: 0xa2646970667358221220d3f2566199703270c1f491a69868fe236756416839daceb1e932022553510cee64736f6c63430008100033\n}\n",
				"bytecode": {
					"linkReferences": {},
					"object": "608060405234801561001057600080fd5b506115a4806100206000396000f3fe60806040526004361061002d5760003560e01c80632822697b146100aa5780635d4d3bcd146100d3576100a5565b366100a5576201000073ffffffffffffffffffffffffffffffffffffffff163373ffffffffffffffffffffffffffffffffffffffff16146100a3576040517f08c379a000000000000000000000000000000000000000000000000000000000815260040161009a90610ce7565b60405180910390fd5b005b600080fd5b3480156100b657600080fd5b506100d160048036038101906100cc9190610e0a565b610103565b005b6100ed60048036038101906100e89190610f01565b61041b565b6040516100fa9190610fb4565b60405180910390f35b600087896101119190610ffe565b90506000811461025a5760006201000073ffffffffffffffffffffffffffffffffffffffff16826040516024016101489190611041565b6040516020818303038152906040527ffcd5e7b3000000000000000000000000000000000000000000000000000000007bffffffffffffffffffffffffffffffffffffffffffffffffffffffff19166020820180517bffffffffffffffffffffffffffffffffffffffffffffffffffffffff83818316178352505050506040516101d291906110cd565b6000604051808303816000865af19150503d806000811461020f576040519150601f19603f3d011682016040523d82523d6000602084013e610214565b606091505b5050905080610258576040517f08c379a000000000000000000000000000000000000000000000000000000000815260040161024f90611130565b60405180910390fd5b505b60008b8b8b8b8b8b8b8b60405160200161027b9897969594939291906111bd565b6040516020818303038152906040528051906020012090506000806102a96102a28461044c565b8787610466565b915091506000801b81146102f2576040517f08c379a00000000000000000000000000000000000000000000000000000000081526004016102e990611281565b60405180910390fd5b6000801b8203610337576040517f08c379a000000000000000000000000000000000000000000000000000000000815260040161032e906112ed565b60405180910390fd5b60006201000073ffffffffffffffffffffffffffffffffffffffff1663312faf74846040518263ffffffff1660e01b81526004016103759190610fb4565b602060405180830381865afa158015610392573d6000803e3d6000fd5b505050506040513d601f19601f820116820180604052508101906103b69190611322565b90508a81116103fa576040517f08c379a00000000000000000000000000000000000000000000000000000000081526004016103f19061139b565b60405180910390fd5b5050505061040e8b8b8b8b8b8b8b8b610981565b5050505050505050505050565b6000803414610432576104316201000034610ac8565b5b610440878787878787610b79565b90509695505050505050565b60006331df76a46000528160205260406000209050919050565b600080610934565b60008190506080821061049d576020831161049d576008830260088103905060ff811b80199050808316925050505b92915050565b600080823560001a60f88110156104c65760bf81039250600184019150506104ff565b60f7810360048111156104d557fe5b6001850192508235600882026101000381811c915082820195506001860195508285019450505050505b915091565b6000806000833560001a6080811015610528576001935084925060019150506105ac565b60b88110156105475760808103935060018501925060019150506105ac565b60c08110156105895760b78103600481111561055f57fe5b6001860193508335600882026101000381811c9150819650828601955060019450505050506105ac565b60f881101561059e57600185019250506105ac565b60f781039350600185019250505b9193909250565b60008060008084935060405192506105ca846104a3565b818686378185209250848287018297505b80881015610610576105ec88610504565b8183019a50801561060857818360801b17808652602086019550505b5050506105db565b80881461061957fe5b6020878303049550505050509193509193565b60008160005260206000209050919050565b60008190506004830260001980821c90508083169250506020600285061561066557600390505b8161010003915080821b90508281179250505092915050565b60008260200282015162ffffff81168160801c601f8111156106ae576020810382019150813593505050506106c3565b600881602003028235945084811c9450505050505b92915050565b6000808360200283015162ffffff81168160801c9250601f8311156106fb57602083038101905080359350505061070f565b600883602003028135945084811c94505050505b9250929050565b6000806000806000869450843560001a6001860195506000805b8281101561083e5760008060006107468b6105b3565b9350935093509a508360008114610787576107827f54484153480000000000000000000000000000000000000000000000000000008b84610919565b61078b565b819a505b5081600281146107cb576011811461080a576107c67f4e4f4445000000000000000000000000000000000000000000000000000000006108e1565b61082f565b6000806107d96001876106c9565b91509150819b50600189038714600081146107f657869a50610802565b865160801c808a019950505b50505061082f565b6004860260fc03600f8e821c1661082181876106c9565b819d5060018a019950505050505b50505050600181019050610730565b50610849818961063e565b935050509295509295909350565b600080600083925060008060008060006108708a61062c565b61087a8982610716565b9550975095509850985081600081146108d25761089860008461067e565b96506108a56001846106c9565b9450975086861480600081146108c6576108bf868b61046e565b99506108cb565b600099505b50506108d3565b5b505050505050509250925092565b6308c379a060e01b60005260206004528060445260005b811561090f578160081b91506001810190506108f8565b8060245260646000fd5b8181146000810361092e5761092d846108e1565b5b50505050565b8361093f8682610857565b9350935090508385018114610978576109777f424f554e445300000000000000000000000000000000000000000000000000006108e1565b5b50935093915050565b8342116109c3576040517f08c379a00000000000000000000000000000000000000000000000000000000081526004016109ba90611407565b60405180910390fd5b600088888888888888886040516020016109e49897969594939291906111bd565b6040516020818303038152906040528051906020012090506000610a078261044c565b90506000610a1482610c78565b03610a54576040517f08c379a0000000000000000000000000000000000000000000000000000000008152600401610a4b90611473565b60405180910390fd5b610a61816000801b610c83565b60008789610a6f9190610ffe565b905060008114610a8457610a838b82610ac8565b5b7f6629230ca69c43f97674dd064896b819957583c8d20a870e4fb28b05c5d29f2983604051610ab39190610fb4565b60405180910390a15050505050505050505050565b60008273ffffffffffffffffffffffffffffffffffffffff1682604051610aee906114b9565b60006040518083038185875af1925050503d8060008114610b2b576040519150601f19603f3d011682016040523d82523d6000602084013e610b30565b606091505b5050905080610b74576040517f08c379a0000000000000000000000000000000000000000000000000000000008152600401610b6b9061151a565b60405180910390fd5b505050565b6000808634610b88919061153a565b90503388828989898989604051602001610ba99897969594939291906111bd565b6040516020818303038152906040528051906020012091506000610bcc8361044c565b90506000610bd982610c78565b14610c19576040517f08c379a0000000000000000000000000000000000000000000000000000000008152600401610c1090611473565b60405180910390fd5b610c2781600160001b610c83565b7f4d083d19fcc619dfa227d3294a08c9309c2c6f22e389d1fc386105b342058a43338a848b8b8b8b8b604051610c649897969594939291906111bd565b60405180910390a150509695505050505050565b600081549050919050565b8082555050565b600082825260208201905092915050565b7f4d53454400000000000000000000000000000000000000000000000000000000600082015250565b6000610cd1600483610c8a565b9150610cdc82610c9b565b602082019050919050565b60006020820190508181036000830152610d0081610cc4565b9050919050565b600080fd5b600080fd5b600073ffffffffffffffffffffffffffffffffffffffff82169050919050565b6000610d3c82610d11565b9050919050565b610d4c81610d31565b8114610d5757600080fd5b50565b600081359050610d6981610d43565b92915050565b6000819050919050565b610d8281610d6f565b8114610d8d57600080fd5b50565b600081359050610d9f81610d79565b92915050565b600080fd5b600080fd5b600080fd5b60008083601f840112610dca57610dc9610da5565b5b8235905067ffffffffffffffff811115610de757610de6610daa565b5b602083019150836001820283011115610e0357610e02610daf565b5b9250929050565b6000806000806000806000806000806101008b8d031215610e2e57610e2d610d07565b5b6000610e3c8d828e01610d5a565b9a50506020610e4d8d828e01610d5a565b9950506040610e5e8d828e01610d90565b9850506060610e6f8d828e01610d90565b9750506080610e808d828e01610d90565b96505060a0610e918d828e01610d90565b95505060c08b013567ffffffffffffffff811115610eb257610eb1610d0c565b5b610ebe8d828e01610db4565b945094505060e08b013567ffffffffffffffff811115610ee157610ee0610d0c565b5b610eed8d828e01610db4565b92509250509295989b9194979a5092959850565b60008060008060008060a08789031215610f1e57610f1d610d07565b5b6000610f2c89828a01610d5a565b9650506020610f3d89828a01610d90565b9550506040610f4e89828a01610d90565b9450506060610f5f89828a01610d90565b935050608087013567ffffffffffffffff811115610f8057610f7f610d0c565b5b610f8c89828a01610db4565b92509250509295509295509295565b6000819050919050565b610fae81610f9b565b82525050565b6000602082019050610fc96000830184610fa5565b92915050565b7f4e487b7100000000000000000000000000000000000000000000000000000000600052601160045260246000fd5b600061100982610d6f565b915061101483610d6f565b925082820190508082111561102c5761102b610fcf565b5b92915050565b61103b81610d6f565b82525050565b60006020820190506110566000830184611032565b92915050565b600081519050919050565b600081905092915050565b60005b83811015611090578082015181840152602081019050611075565b60008484015250505050565b60006110a78261105c565b6110b18185611067565b93506110c1818560208601611072565b80840191505092915050565b60006110d9828461109c565b915081905092915050565b7f5251455448000000000000000000000000000000000000000000000000000000600082015250565b600061111a600583610c8a565b9150611125826110e4565b602082019050919050565b600060208201905081810360008301526111498161110d565b9050919050565b61115981610d31565b82525050565b600082825260208201905092915050565b82818337600083830152505050565b6000601f19601f8301169050919050565b600061119c838561115f565b93506111a9838584611170565b6111b28361117f565b840190509392505050565b600060e0820190506111d2600083018b611150565b6111df602083018a611150565b6111ec6040830189611032565b6111f96060830188611032565b6112066080830187611032565b61121360a0830186611032565b81810360c0830152611226818486611190565b90509998505050505050505050565b7f444d56414c000000000000000000000000000000000000000000000000000000600082015250565b600061126b600583610c8a565b915061127682611235565b602082019050919050565b6000602082019050818103600083015261129a8161125e565b9050919050565b7f5354524f4f540000000000000000000000000000000000000000000000000000600082015250565b60006112d7600683610c8a565b91506112e2826112a1565b602082019050919050565b60006020820190508181036000830152611306816112ca565b9050919050565b60008151905061131c81610d79565b92915050565b60006020828403121561133857611337610d07565b5b60006113468482850161130d565b91505092915050565b7f444d545300000000000000000000000000000000000000000000000000000000600082015250565b6000611385600483610c8a565b91506113908261134f565b602082019050919050565b600060208201905081810360008301526113b481611378565b9050919050565b7f444d440000000000000000000000000000000000000000000000000000000000600082015250565b60006113f1600383610c8a565b91506113fc826113bb565b602082019050919050565b60006020820190508181036000830152611420816113e4565b9050919050565b7f444d480000000000000000000000000000000000000000000000000000000000600082015250565b600061145d600383610c8a565b915061146882611427565b602082019050919050565b6000602082019050818103600083015261148c81611450565b9050919050565b50565b60006114a3600083611067565b91506114ae82611493565b600082019050919050565b60006114c482611496565b9150819050919050565b7f5445544800000000000000000000000000000000000000000000000000000000600082015250565b6000611504600483610c8a565b915061150f826114ce565b602082019050919050565b60006020820190508181036000830152611533816114f7565b9050919050565b600061154582610d6f565b915061155083610d6f565b925082820390508181111561156857611567610fcf565b5b9291505056fea2646970667358221220d3f2566199703270c1f491a69868fe236756416839daceb1e932022553510cee64736f6c63430008100033",
					"opcodes": "PUSH1 0x80 PUSH1 0x40 MSTORE CALLVALUE DUP1 ISZERO PUSH2 0x10 JUMPI PUSH1 0x0 DUP1 REVERT JUMPDEST POP PUSH2 0x15A4 DUP1 PUSH2 0x20 PUSH1 0x0 CODECOPY PUSH1 0x0 RETURN INVALID PUSH1 0x80 PUSH1 0x40 MSTORE PUSH1 0x4 CALLDATASIZE LT PUSH2 0x2D JUMPI PUSH1 0x0 CALLDATALOAD PUSH1 0xE0 SHR DUP1 PUSH4 0x2822697B EQ PUSH2 0xAA JUMPI DUP1 PUSH4 0x5D4D3BCD EQ PUSH2 0xD3 JUMPI PUSH2 0xA5 JUMP JUMPDEST CALLDATASIZE PUSH2 0xA5 JUMPI PUSH3 0x10000 PUSH20 0xFFFFFFFFFFFFFFFFFFFFFFFFFFFFFFFFFFFFFFFF AND CALLER PUSH20 0xFFFFFFFFFFFFFFFFFFFFFFFFFFFFFFFFFFFFFFFF AND EQ PUSH2 0xA3 JUMPI PUSH1 0x40 MLOAD PUSH32 0x8C379A000000000000000000000000000000000000000000000000000000000 DUP2 MSTORE PUSH1 0x4 ADD PUSH2 0x9A SWAP1 PUSH2 0xCE7 JUMP JUMPDEST PUSH1 0x40 MLOAD DUP1 SWAP2 SUB SWAP1 REVERT JUMPDEST STOP JUMPDEST PUSH1 0x0 DUP1 REVERT JUMPDEST CALLVALUE DUP1 ISZERO PUSH2 0xB6 JUMPI PUSH1 0x0 DUP1 REVERT JUMPDEST POP PUSH2 0xD1 PUSH1 0x4 DUP1 CALLDATASIZE SUB DUP2 ADD SWAP1 PUSH2 0xCC SWAP2 SWAP1 PUSH2 0xE0A JUMP JUMPDEST PUSH2 0x103 JUMP JUMPDEST STOP JUMPDEST PUSH2 0xED PUSH1 0x4 DUP1 CALLDATASIZE SUB DUP2 ADD SWAP1 PUSH2 0xE8 SWAP2 SWAP1 PUSH2 0xF01 JUMP JUMPDEST PUSH2 0x41B JUMP JUMPDEST PUSH1 0x40 MLOAD PUSH2 0xFA SWAP2 SWAP1 PUSH2 0xFB4 JUMP JUMPDEST PUSH1 0x40 MLOAD DUP1 SWAP2 SUB SWAP1 RETURN JUMPDEST PUSH1 0x0 DUP8 DUP10 PUSH2 0x111 SWAP2 SWAP1 PUSH2 0xFFE JUMP JUMPDEST SWAP1 POP PUSH1 0x0 DUP2 EQ PUSH2 0x25A JUMPI PUSH1 0x0 PUSH3 0x10000 PUSH20 0xFFFFFFFFFFFFFFFFFFFFFFFFFFFFFFFFFFFFFFFF AND DUP3 PUSH1 0x40 MLOAD PUSH1 0x24 ADD PUSH2 0x148 SWAP2 SWAP1 PUSH2 0x1041 JUMP JUMPDEST PUSH1 0x40 MLOAD PUSH1 0x20 DUP2 DUP4 SUB SUB DUP2 MSTORE SWAP1 PUSH1 0x40 MSTORE PUSH32 0xFCD5E7B300000000000000000000000000000000000000000000000000000000 PUSH28 0xFFFFFFFFFFFFFFFFFFFFFFFFFFFFFFFFFFFFFFFFFFFFFFFFFFFFFFFF NOT AND PUSH1 0x20 DUP3 ADD DUP1 MLOAD PUSH28 0xFFFFFFFFFFFFFFFFFFFFFFFFFFFFFFFFFFFFFFFFFFFFFFFFFFFFFFFF DUP4 DUP2 DUP4 AND OR DUP4 MSTORE POP POP POP POP PUSH1 0x40 MLOAD PUSH2 0x1D2 SWAP2 SWAP1 PUSH2 0x10CD JUMP JUMPDEST PUSH1 0x0 PUSH1 0x40 MLOAD DUP1 DUP4 SUB DUP2 PUSH1 0x0 DUP7 GAS CALL SWAP2 POP POP RETURNDATASIZE DUP1 PUSH1 0x0 DUP2 EQ PUSH2 0x20F JUMPI PUSH1 0x40 MLOAD SWAP2 POP PUSH1 0x1F NOT PUSH1 0x3F RETURNDATASIZE ADD AND DUP3 ADD PUSH1 0x40 MSTORE RETURNDATASIZE DUP3 MSTORE RETURNDATASIZE PUSH1 0x0 PUSH1 0x20 DUP5 ADD RETURNDATACOPY PUSH2 0x214 JUMP JUMPDEST PUSH1 0x60 SWAP2 POP JUMPDEST POP POP SWAP1 POP DUP1 PUSH2 0x258 JUMPI PUSH1 0x40 MLOAD PUSH32 0x8C379A000000000000000000000000000000000000000000000000000000000 DUP2 MSTORE PUSH1 0x4 ADD PUSH2 0x24F SWAP1 PUSH2 0x1130 JUMP JUMPDEST PUSH1 0x40 MLOAD DUP1 SWAP2 SUB SWAP1 REVERT JUMPDEST POP JUMPDEST PUSH1 0x0 DUP12 DUP12 DUP12 DUP12 DUP12 DUP12 DUP12 DUP12 PUSH1 0x40 MLOAD PUSH1 0x20 ADD PUSH2 0x27B SWAP9 SWAP8 SWAP7 SWAP6 SWAP5 SWAP4 SWAP3 SWAP2 SWAP1 PUSH2 0x11BD JUMP JUMPDEST PUSH1 0x40 MLOAD PUSH1 0x20 DUP2 DUP4 SUB SUB DUP2 MSTORE SWAP1 PUSH1 0x40 MSTORE DUP1 MLOAD SWAP1 PUSH1 0x20 ADD KECCAK256 SWAP1 POP PUSH1 0x0 DUP1 PUSH2 0x2A9 PUSH2 0x2A2 DUP5 PUSH2 0x44C JUMP JUMPDEST DUP8 DUP8 PUSH2 0x466 JUMP JUMPDEST SWAP2 POP SWAP2 POP PUSH1 0x0 DUP1 SHL DUP2 EQ PUSH2 0x2F2 JUMPI PUSH1 0x40 MLOAD PUSH32 0x8C379A000000000000000000000000000000000000000000000000000000000 DUP2 MSTORE PUSH1 0x4 ADD PUSH2 0x2E9 SWAP1 PUSH2 0x1281 JUMP JUMPDEST PUSH1 0x40 MLOAD DUP1 SWAP2 SUB SWAP1 REVERT JUMPDEST PUSH1 0x0 DUP1 SHL DUP3 SUB PUSH2 0x337 JUMPI PUSH1 0x40 MLOAD PUSH32 0x8C379A000000000000000000000000000000000000000000000000000000000 DUP2 MSTORE PUSH1 0x4 ADD PUSH2 0x32E SWAP1 PUSH2 0x12ED JUMP JUMPDEST PUSH1 0x40 MLOAD DUP1 SWAP2 SUB SWAP1 REVERT JUMPDEST PUSH1 0x0 PUSH3 0x10000 PUSH20 0xFFFFFFFFFFFFFFFFFFFFFFFFFFFFFFFFFFFFFFFF AND PUSH4 0x312FAF74 DUP5 PUSH1 0x40 MLOAD DUP3 PUSH4 0xFFFFFFFF AND PUSH1 0xE0 SHL DUP2 MSTORE PUSH1 0x4 ADD PUSH2 0x375 SWAP2 SWAP1 PUSH2 0xFB4 JUMP JUMPDEST PUSH1 0x20 PUSH1 0x40 MLOAD DUP1 DUP4 SUB DUP2 DUP7 GAS STATICCALL ISZERO DUP1 ISZERO PUSH2 0x392 JUMPI RETURNDATASIZE PUSH1 0x0 DUP1 RETURNDATACOPY RETURNDATASIZE PUSH1 0x0 REVERT JUMPDEST POP POP POP POP PUSH1 0x40 MLOAD RETURNDATASIZE PUSH1 0x1F NOT PUSH1 0x1F DUP3 ADD AND DUP3 ADD DUP1 PUSH1 0x40 MSTORE POP DUP2 ADD SWAP1 PUSH2 0x3B6 SWAP2 SWAP1 PUSH2 0x1322 JUMP JUMPDEST SWAP1 POP DUP11 DUP2 GT PUSH2 0x3FA JUMPI PUSH1 0x40 MLOAD PUSH32 0x8C379A000000000000000000000000000000000000000000000000000000000 DUP2 MSTORE PUSH1 0x4 ADD PUSH2 0x3F1 SWAP1 PUSH2 0x139B JUMP JUMPDEST PUSH1 0x40 MLOAD DUP1 SWAP2 SUB SWAP1 REVERT JUMPDEST POP POP POP POP PUSH2 0x40E DUP12 DUP12 DUP12 DUP12 DUP12 DUP12 DUP12 DUP12 PUSH2 0x981 JUMP JUMPDEST POP POP POP POP POP POP POP POP POP POP POP JUMP JUMPDEST PUSH1 0x0 DUP1 CALLVALUE EQ PUSH2 0x432 JUMPI PUSH2 0x431 PUSH3 0x10000 CALLVALUE PUSH2 0xAC8 JUMP JUMPDEST JUMPDEST PUSH2 0x440 DUP8 DUP8 DUP8 DUP8 DUP8 DUP8 PUSH2 0xB79 JUMP JUMPDEST SWAP1 POP SWAP7 SWAP6 POP POP POP POP POP POP JUMP JUMPDEST PUSH1 0x0 PUSH4 0x31DF76A4 PUSH1 0x0 MSTORE DUP2 PUSH1 0x20 MSTORE PUSH1 0x40 PUSH1 0x0 KECCAK256 SWAP1 POP SWAP2 SWAP1 POP JUMP JUMPDEST PUSH1 0x0 DUP1 PUSH2 0x934 JUMP JUMPDEST PUSH1 0x0 DUP2 SWAP1 POP PUSH1 0x80 DUP3 LT PUSH2 0x49D JUMPI PUSH1 0x20 DUP4 GT PUSH2 0x49D JUMPI PUSH1 0x8 DUP4 MUL PUSH1 0x8 DUP2 SUB SWAP1 POP PUSH1 0xFF DUP2 SHL DUP1 NOT SWAP1 POP DUP1 DUP4 AND SWAP3 POP POP POP JUMPDEST SWAP3 SWAP2 POP POP JUMP JUMPDEST PUSH1 0x0 DUP1 DUP3 CALLDATALOAD PUSH1 0x0 BYTE PUSH1 0xF8 DUP2 LT ISZERO PUSH2 0x4C6 JUMPI PUSH1 0xBF DUP2 SUB SWAP3 POP PUSH1 0x1 DUP5 ADD SWAP2 POP POP PUSH2 0x4FF JUMP JUMPDEST PUSH1 0xF7 DUP2 SUB PUSH1 0x4 DUP2 GT ISZERO PUSH2 0x4D5 JUMPI INVALID JUMPDEST PUSH1 0x1 DUP6 ADD SWAP3 POP DUP3 CALLDATALOAD PUSH1 0x8 DUP3 MUL PUSH2 0x100 SUB DUP2 DUP2 SHR SWAP2 POP DUP3 DUP3 ADD SWAP6 POP PUSH1 0x1 DUP7 ADD SWAP6 POP DUP3 DUP6 ADD SWAP5 POP POP POP POP POP JUMPDEST SWAP2 POP SWAP2 JUMP JUMPDEST PUSH1 0x0 DUP1 PUSH1 0x0 DUP4 CALLDATALOAD PUSH1 0x0 BYTE PUSH1 0x80 DUP2 LT ISZERO PUSH2 0x528 JUMPI PUSH1 0x1 SWAP4 POP DUP5 SWAP3 POP PUSH1 0x1 SWAP2 POP POP PUSH2 0x5AC JUMP JUMPDEST PUSH1 0xB8 DUP2 LT ISZERO PUSH2 0x547 JUMPI PUSH1 0x80 DUP2 SUB SWAP4 POP PUSH1 0x1 DUP6 ADD SWAP3 POP PUSH1 0x1 SWAP2 POP POP PUSH2 0x5AC JUMP JUMPDEST PUSH1 0xC0 DUP2 LT ISZERO PUSH2 0x589 JUMPI PUSH1 0xB7 DUP2 SUB PUSH1 0x4 DUP2 GT ISZERO PUSH2 0x55F JUMPI INVALID JUMPDEST PUSH1 0x1 DUP7 ADD SWAP4 POP DUP4 CALLDATALOAD PUSH1 0x8 DUP3 MUL PUSH2 0x100 SUB DUP2 DUP2 SHR SWAP2 POP DUP2 SWAP7 POP DUP3 DUP7 ADD SWAP6 POP PUSH1 0x1 SWAP5 POP POP POP POP POP PUSH2 0x5AC JUMP JUMPDEST PUSH1 0xF8 DUP2 LT ISZERO PUSH2 0x59E JUMPI PUSH1 0x1 DUP6 ADD SWAP3 POP POP PUSH2 0x5AC JUMP JUMPDEST PUSH1 0xF7 DUP2 SUB SWAP4 POP PUSH1 0x1 DUP6 ADD SWAP3 POP POP JUMPDEST SWAP2 SWAP4 SWAP1 SWAP3 POP JUMP JUMPDEST PUSH1 0x0 DUP1 PUSH1 0x0 DUP1 DUP5 SWAP4 POP PUSH1 0x40 MLOAD SWAP3 POP PUSH2 0x5CA DUP5 PUSH2 0x4A3 JUMP JUMPDEST DUP2 DUP7 DUP7 CALLDATACOPY DUP2 DUP6 KECCAK256 SWAP3 POP DUP5 DUP3 DUP8 ADD DUP3 SWAP8 POP JUMPDEST DUP1 DUP9 LT ISZERO PUSH2 0x610 JUMPI PUSH2 0x5EC DUP9 PUSH2 0x504 JUMP JUMPDEST DUP2 DUP4 ADD SWAP11 POP DUP1 ISZERO PUSH2 0x608 JUMPI DUP2 DUP4 PUSH1 0x80 SHL OR DUP1 DUP7 MSTORE PUSH1 0x20 DUP7 ADD SWAP6 POP POP JUMPDEST POP POP POP PUSH2 0x5DB JUMP JUMPDEST DUP1 DUP9 EQ PUSH2 0x619 JUMPI INVALID JUMPDEST PUSH1 0x20 DUP8 DUP4 SUB DIV SWAP6 POP POP POP POP POP SWAP2 SWAP4 POP SWAP2 SWAP4 JUMP JUMPDEST PUSH1 0x0 DUP2 PUSH1 0x0 MSTORE PUSH1 0x20 PUSH1 0x0 KECCAK256 SWAP1 POP SWAP2 SWAP1 POP JUMP JUMPDEST PUSH1 0x0 DUP2 SWAP1 POP PUSH1 0x4 DUP4 MUL PUSH1 0x0 NOT DUP1 DUP3 SHR SWAP1 POP DUP1 DUP4 AND SWAP3 POP POP PUSH1 0x20 PUSH1 0x2 DUP6 MOD ISZERO PUSH2 0x665 JUMPI PUSH1 0x3 SWAP1 POP JUMPDEST DUP2 PUSH2 0x100 SUB SWAP2 POP DUP1 DUP3 SHL SWAP1 POP DUP3 DUP2 OR SWAP3 POP POP POP SWAP3 SWAP2 POP POP JUMP JUMPDEST PUSH1 0x0 DUP3 PUSH1 0x20 MUL DUP3 ADD MLOAD PUSH3 0xFFFFFF DUP2 AND DUP2 PUSH1 0x80 SHR PUSH1 0x1F DUP2 GT ISZERO PUSH2 0x6AE JUMPI PUSH1 0x20 DUP2 SUB DUP3 ADD SWAP2 POP DUP2 CALLDATALOAD SWAP4 POP POP POP POP PUSH2 0x6C3 JUMP JUMPDEST PUSH1 0x8 DUP2 PUSH1 0x20 SUB MUL DUP3 CALLDATALOAD SWAP5 POP DUP5 DUP2 SHR SWAP5 POP POP POP POP POP JUMPDEST SWAP3 SWAP2 POP POP JUMP JUMPDEST PUSH1 0x0 DUP1 DUP4 PUSH1 0x20 MUL DUP4 ADD MLOAD PUSH3 0xFFFFFF DUP2 AND DUP2 PUSH1 0x80 SHR SWAP3 POP PUSH1 0x1F DUP4 GT ISZERO PUSH2 0x6FB JUMPI PUSH1 0x20 DUP4 SUB DUP2 ADD SWAP1 POP DUP1 CALLDATALOAD SWAP4 POP POP POP PUSH2 0x70F JUMP JUMPDEST PUSH1 0x8 DUP4 PUSH1 0x20 SUB MUL DUP2 CALLDATALOAD SWAP5 POP DUP5 DUP2 SHR SWAP5 POP POP POP POP JUMPDEST SWAP3 POP SWAP3 SWAP1 POP JUMP JUMPDEST PUSH1 0x0 DUP1 PUSH1 0x0 DUP1 PUSH1 0x0 DUP7 SWAP5 POP DUP5 CALLDATALOAD PUSH1 0x0 BYTE PUSH1 0x1 DUP7 ADD SWAP6 POP PUSH1 0x0 DUP1 JUMPDEST DUP3 DUP2 LT ISZERO PUSH2 0x83E JUMPI PUSH1 0x0 DUP1 PUSH1 0x0 PUSH2 0x746 DUP12 PUSH2 0x5B3 JUMP JUMPDEST SWAP4 POP SWAP4 POP SWAP4 POP SWAP11 POP DUP4 PUSH1 0x0 DUP2 EQ PUSH2 0x787 JUMPI PUSH2 0x782 PUSH32 0x5448415348000000000000000000000000000000000000000000000000000000 DUP12 DUP5 PUSH2 0x919 JUMP JUMPDEST PUSH2 0x78B JUMP JUMPDEST DUP2 SWAP11 POP JUMPDEST POP DUP2 PUSH1 0x2 DUP2 EQ PUSH2 0x7CB JUMPI PUSH1 0x11 DUP2 EQ PUSH2 0x80A JUMPI PUSH2 0x7C6 PUSH32 0x4E4F444500000000000000000000000000000000000000000000000000000000 PUSH2 0x8E1 JUMP JUMPDEST PUSH2 0x82F JUMP JUMPDEST PUSH1 0x0 DUP1 PUSH2 0x7D9 PUSH1 0x1 DUP8 PUSH2 0x6C9 JUMP JUMPDEST SWAP2 POP SWAP2 POP DUP2 SWAP12 POP PUSH1 0x1 DUP10 SUB DUP8 EQ PUSH1 0x0 DUP2 EQ PUSH2 0x7F6 JUMPI DUP7 SWAP11 POP PUSH2 0x802 JUMP JUMPDEST DUP7 MLOAD PUSH1 0x80 SHR DUP1 DUP11 ADD SWAP10 POP POP JUMPDEST POP POP POP PUSH2 0x82F JUMP JUMPDEST PUSH1 0x4 DUP7 MUL PUSH1 0xFC SUB PUSH1 0xF DUP15 DUP3 SHR AND PUSH2 0x821 DUP2 DUP8 PUSH2 0x6C9 JUMP JUMPDEST DUP2 SWAP14 POP PUSH1 0x1 DUP11 ADD SWAP10 POP POP POP POP POP JUMPDEST POP POP POP POP PUSH1 0x1 DUP2 ADD SWAP1 POP PUSH2 0x730 JUMP JUMPDEST POP PUSH2 0x849 DUP2 DUP10 PUSH2 0x63E JUMP JUMPDEST SWAP4 POP POP POP SWAP3 SWAP6 POP SWAP3 SWAP6 SWAP1 SWAP4 POP JUMP JUMPDEST PUSH1 0x0 DUP1 PUSH1 0x0 DUP4 SWAP3 POP PUSH1 0x0 DUP1 PUSH1 0x0 DUP1 PUSH1 0x0 PUSH2 0x870 DUP11 PUSH2 0x62C JUMP JUMPDEST PUSH2 0x87A DUP10 DUP3 PUSH2 0x716 JUMP JUMPDEST SWAP6 POP SWAP8 POP SWAP6 POP SWAP9 POP SWAP9 POP DUP2 PUSH1 0x0 DUP2 EQ PUSH2 0x8D2 JUMPI PUSH2 0x898 PUSH1 0x0 DUP5 PUSH2 0x67E JUMP JUMPDEST SWAP7 POP PUSH2 0x8A5 PUSH1 0x1 DUP5 PUSH2 0x6C9 JUMP JUMPDEST SWAP5 POP SWAP8 POP DUP7 DUP7 EQ DUP1 PUSH1 0x0 DUP2 EQ PUSH2 0x8C6 JUMPI PUSH2 0x8BF DUP7 DUP12 PUSH2 0x46E JUMP JUMPDEST SWAP10 POP PUSH2 0x8CB JUMP JUMPDEST PUSH1 0x0 SWAP10 POP JUMPDEST POP POP PUSH2 0x8D3 JUMP JUMPDEST JUMPDEST POP POP POP POP POP POP POP SWAP3 POP SWAP3 POP SWAP3 JUMP JUMPDEST PUSH4 0x8C379A0 PUSH1 0xE0 SHL PUSH1 0x0 MSTORE PUSH1 0x20 PUSH1 0x4 MSTORE DUP1 PUSH1 0x44 MSTORE PUSH1 0x0 JUMPDEST DUP2 ISZERO PUSH2 0x90F JUMPI DUP2 PUSH1 0x8 SHL SWAP2 POP PUSH1 0x1 DUP2 ADD SWAP1 POP PUSH2 0x8F8 JUMP JUMPDEST DUP1 PUSH1 0x24 MSTORE PUSH1 0x64 PUSH1 0x0 REVERT JUMPDEST DUP2 DUP2 EQ PUSH1 0x0 DUP2 SUB PUSH2 0x92E JUMPI PUSH2 0x92D DUP5 PUSH2 0x8E1 JUMP JUMPDEST JUMPDEST POP POP POP POP JUMP JUMPDEST DUP4 PUSH2 0x93F DUP7 DUP3 PUSH2 0x857 JUMP JUMPDEST SWAP4 POP SWAP4 POP SWAP1 POP DUP4 DUP6 ADD DUP2 EQ PUSH2 0x978 JUMPI PUSH2 0x977 PUSH32 0x424F554E44530000000000000000000000000000000000000000000000000000 PUSH2 0x8E1 JUMP JUMPDEST JUMPDEST POP SWAP4 POP SWAP4 SWAP2 POP POP JUMP JUMPDEST DUP4 TIMESTAMP GT PUSH2 0x9C3 JUMPI PUSH1 0x40 MLOAD PUSH32 0x8C379A000000000000000000000000000000000000000000000000000000000 DUP2 MSTORE PUSH1 0x4 ADD PUSH2 0x9BA SWAP1 PUSH2 0x1407 JUMP JUMPDEST PUSH1 0x40 MLOAD DUP1 SWAP2 SUB SWAP1 REVERT JUMPDEST PUSH1 0x0 DUP9 DUP9 DUP9 DUP9 DUP9 DUP9 DUP9 DUP9 PUSH1 0x40 MLOAD PUSH1 0x20 ADD PUSH2 0x9E4 SWAP9 SWAP8 SWAP7 SWAP6 SWAP5 SWAP4 SWAP3 SWAP2 SWAP1 PUSH2 0x11BD JUMP JUMPDEST PUSH1 0x40 MLOAD PUSH1 0x20 DUP2 DUP4 SUB SUB DUP2 MSTORE SWAP1 PUSH1 0x40 MSTORE DUP1 MLOAD SWAP1 PUSH1 0x20 ADD KECCAK256 SWAP1 POP PUSH1 0x0 PUSH2 0xA07 DUP3 PUSH2 0x44C JUMP JUMPDEST SWAP1 POP PUSH1 0x0 PUSH2 0xA14 DUP3 PUSH2 0xC78 JUMP JUMPDEST SUB PUSH2 0xA54 JUMPI PUSH1 0x40 MLOAD PUSH32 0x8C379A000000000000000000000000000000000000000000000000000000000 DUP2 MSTORE PUSH1 0x4 ADD PUSH2 0xA4B SWAP1 PUSH2 0x1473 JUMP JUMPDEST PUSH1 0x40 MLOAD DUP1 SWAP2 SUB SWAP1 REVERT JUMPDEST PUSH2 0xA61 DUP2 PUSH1 0x0 DUP1 SHL PUSH2 0xC83 JUMP JUMPDEST PUSH1 0x0 DUP8 DUP10 PUSH2 0xA6F SWAP2 SWAP1 PUSH2 0xFFE JUMP JUMPDEST SWAP1 POP PUSH1 0x0 DUP2 EQ PUSH2 0xA84 JUMPI PUSH2 0xA83 DUP12 DUP3 PUSH2 0xAC8 JUMP JUMPDEST JUMPDEST PUSH32 0x6629230CA69C43F97674DD064896B819957583C8D20A870E4FB28B05C5D29F29 DUP4 PUSH1 0x40 MLOAD PUSH2 0xAB3 SWAP2 SWAP1 PUSH2 0xFB4 JUMP JUMPDEST PUSH1 0x40 MLOAD DUP1 SWAP2 SUB SWAP1 LOG1 POP POP POP POP POP POP POP POP POP POP POP JUMP JUMPDEST PUSH1 0x0 DUP3 PUSH20 0xFFFFFFFFFFFFFFFFFFFFFFFFFFFFFFFFFFFFFFFF AND DUP3 PUSH1 0x40 MLOAD PUSH2 0xAEE SWAP1 PUSH2 0x14B9 JUMP JUMPDEST PUSH1 0x0 PUSH1 0x40 MLOAD DUP1 DUP4 SUB DUP2 DUP6 DUP8 GAS CALL SWAP3 POP POP POP RETURNDATASIZE DUP1 PUSH1 0x0 DUP2 EQ PUSH2 0xB2B JUMPI PUSH1 0x40 MLOAD SWAP2 POP PUSH1 0x1F NOT PUSH1 0x3F RETURNDATASIZE ADD AND DUP3 ADD PUSH1 0x40 MSTORE RETURNDATASIZE DUP3 MSTORE RETURNDATASIZE PUSH1 0x0 PUSH1 0x20 DUP5 ADD RETURNDATACOPY PUSH2 0xB30 JUMP JUMPDEST PUSH1 0x60 SWAP2 POP JUMPDEST POP POP SWAP1 POP DUP1 PUSH2 0xB74 JUMPI PUSH1 0x40 MLOAD PUSH32 0x8C379A000000000000000000000000000000000000000000000000000000000 DUP2 MSTORE PUSH1 0x4 ADD PUSH2 0xB6B SWAP1 PUSH2 0x151A JUMP JUMPDEST PUSH1 0x40 MLOAD DUP1 SWAP2 SUB SWAP1 REVERT JUMPDEST POP POP POP JUMP JUMPDEST PUSH1 0x0 DUP1 DUP7 CALLVALUE PUSH2 0xB88 SWAP2 SWAP1 PUSH2 0x153A JUMP JUMPDEST SWAP1 POP CALLER DUP9 DUP3 DUP10 DUP10 DUP10 DUP10 DUP10 PUSH1 0x40 MLOAD PUSH1 0x20 ADD PUSH2 0xBA9 SWAP9 SWAP8 SWAP7 SWAP6 SWAP5 SWAP4 SWAP3 SWAP2 SWAP1 PUSH2 0x11BD JUMP JUMPDEST PUSH1 0x40 MLOAD PUSH1 0x20 DUP2 DUP4 SUB SUB DUP2 MSTORE SWAP1 PUSH1 0x40 MSTORE DUP1 MLOAD SWAP1 PUSH1 0x20 ADD KECCAK256 SWAP2 POP PUSH1 0x0 PUSH2 0xBCC DUP4 PUSH2 0x44C JUMP JUMPDEST SWAP1 POP PUSH1 0x0 PUSH2 0xBD9 DUP3 PUSH2 0xC78 JUMP JUMPDEST EQ PUSH2 0xC19 JUMPI PUSH1 0x40 MLOAD PUSH32 0x8C379A000000000000000000000000000000000000000000000000000000000 DUP2 MSTORE PUSH1 0x4 ADD PUSH2 0xC10 SWAP1 PUSH2 0x1473 JUMP JUMPDEST PUSH1 0x40 MLOAD DUP1 SWAP2 SUB SWAP1 REVERT JUMPDEST PUSH2 0xC27 DUP2 PUSH1 0x1 PUSH1 0x0 SHL PUSH2 0xC83 JUMP JUMPDEST PUSH32 0x4D083D19FCC619DFA227D3294A08C9309C2C6F22E389D1FC386105B342058A43 CALLER DUP11 DUP5 DUP12 DUP12 DUP12 DUP12 DUP12 PUSH1 0x40 MLOAD PUSH2 0xC64 SWAP9 SWAP8 SWAP7 SWAP6 SWAP5 SWAP4 SWAP3 SWAP2 SWAP1 PUSH2 0x11BD JUMP JUMPDEST PUSH1 0x40 MLOAD DUP1 SWAP2 SUB SWAP1 LOG1 POP POP SWAP7 SWAP6 POP POP POP POP POP POP JUMP JUMPDEST PUSH1 0x0 DUP2 SLOAD SWAP1 POP SWAP2 SWAP1 POP JUMP JUMPDEST DUP1 DUP3 SSTORE POP POP JUMP JUMPDEST PUSH1 0x0 DUP3 DUP3 MSTORE PUSH1 0x20 DUP3 ADD SWAP1 POP SWAP3 SWAP2 POP POP JUMP JUMPDEST PUSH32 0x4D53454400000000000000000000000000000000000000000000000000000000 PUSH1 0x0 DUP3 ADD MSTORE POP JUMP JUMPDEST PUSH1 0x0 PUSH2 0xCD1 PUSH1 0x4 DUP4 PUSH2 0xC8A JUMP JUMPDEST SWAP2 POP PUSH2 0xCDC DUP3 PUSH2 0xC9B JUMP JUMPDEST PUSH1 0x20 DUP3 ADD SWAP1 POP SWAP2 SWAP1 POP JUMP JUMPDEST PUSH1 0x0 PUSH1 0x20 DUP3 ADD SWAP1 POP DUP2 DUP2 SUB PUSH1 0x0 DUP4 ADD MSTORE PUSH2 0xD00 DUP2 PUSH2 0xCC4 JUMP JUMPDEST SWAP1 POP SWAP2 SWAP1 POP JUMP JUMPDEST PUSH1 0x0 DUP1 REVERT JUMPDEST PUSH1 0x0 DUP1 REVERT JUMPDEST PUSH1 0x0 PUSH20 0xFFFFFFFFFFFFFFFFFFFFFFFFFFFFFFFFFFFFFFFF DUP3 AND SWAP1 POP SWAP2 SWAP1 POP JUMP JUMPDEST PUSH1 0x0 PUSH2 0xD3C DUP3 PUSH2 0xD11 JUMP JUMPDEST SWAP1 POP SWAP2 SWAP1 POP JUMP JUMPDEST PUSH2 0xD4C DUP2 PUSH2 0xD31 JUMP JUMPDEST DUP2 EQ PUSH2 0xD57 JUMPI PUSH1 0x0 DUP1 REVERT JUMPDEST POP JUMP JUMPDEST PUSH1 0x0 DUP2 CALLDATALOAD SWAP1 POP PUSH2 0xD69 DUP2 PUSH2 0xD43 JUMP JUMPDEST SWAP3 SWAP2 POP POP JUMP JUMPDEST PUSH1 0x0 DUP2 SWAP1 POP SWAP2 SWAP1 POP JUMP JUMPDEST PUSH2 0xD82 DUP2 PUSH2 0xD6F JUMP JUMPDEST DUP2 EQ PUSH2 0xD8D JUMPI PUSH1 0x0 DUP1 REVERT JUMPDEST POP JUMP JUMPDEST PUSH1 0x0 DUP2 CALLDATALOAD SWAP1 POP PUSH2 0xD9F DUP2 PUSH2 0xD79 JUMP JUMPDEST SWAP3 SWAP2 POP POP JUMP JUMPDEST PUSH1 0x0 DUP1 REVERT JUMPDEST PUSH1 0x0 DUP1 REVERT JUMPDEST PUSH1 0x0 DUP1 REVERT JUMPDEST PUSH1 0x0 DUP1 DUP4 PUSH1 0x1F DUP5 ADD SLT PUSH2 0xDCA JUMPI PUSH2 0xDC9 PUSH2 0xDA5 JUMP JUMPDEST JUMPDEST DUP3 CALLDATALOAD SWAP1 POP PUSH8 0xFFFFFFFFFFFFFFFF DUP2 GT ISZERO PUSH2 0xDE7 JUMPI PUSH2 0xDE6 PUSH2 0xDAA JUMP JUMPDEST JUMPDEST PUSH1 0x20 DUP4 ADD SWAP2 POP DUP4 PUSH1 0x1 DUP3 MUL DUP4 ADD GT ISZERO PUSH2 0xE03 JUMPI PUSH2 0xE02 PUSH2 0xDAF JUMP JUMPDEST JUMPDEST SWAP3 POP SWAP3 SWAP1 POP JUMP JUMPDEST PUSH1 0x0 DUP1 PUSH1 0x0 DUP1 PUSH1 0x0 DUP1 PUSH1 0x0 DUP1 PUSH1 0x0 DUP1 PUSH2 0x100 DUP12 DUP14 SUB SLT ISZERO PUSH2 0xE2E JUMPI PUSH2 0xE2D PUSH2 0xD07 JUMP JUMPDEST JUMPDEST PUSH1 0x0 PUSH2 0xE3C DUP14 DUP3 DUP15 ADD PUSH2 0xD5A JUMP JUMPDEST SWAP11 POP POP PUSH1 0x20 PUSH2 0xE4D DUP14 DUP3 DUP15 ADD PUSH2 0xD5A JUMP JUMPDEST SWAP10 POP POP PUSH1 0x40 PUSH2 0xE5E DUP14 DUP3 DUP15 ADD PUSH2 0xD90 JUMP JUMPDEST SWAP9 POP POP PUSH1 0x60 PUSH2 0xE6F DUP14 DUP3 DUP15 ADD PUSH2 0xD90 JUMP JUMPDEST SWAP8 POP POP PUSH1 0x80 PUSH2 0xE80 DUP14 DUP3 DUP15 ADD PUSH2 0xD90 JUMP JUMPDEST SWAP7 POP POP PUSH1 0xA0 PUSH2 0xE91 DUP14 DUP3 DUP15 ADD PUSH2 0xD90 JUMP JUMPDEST SWAP6 POP POP PUSH1 0xC0 DUP12 ADD CALLDATALOAD PUSH8 0xFFFFFFFFFFFFFFFF DUP2 GT ISZERO PUSH2 0xEB2 JUMPI PUSH2 0xEB1 PUSH2 0xD0C JUMP JUMPDEST JUMPDEST PUSH2 0xEBE DUP14 DUP3 DUP15 ADD PUSH2 0xDB4 JUMP JUMPDEST SWAP5 POP SWAP5 POP POP PUSH1 0xE0 DUP12 ADD CALLDATALOAD PUSH8 0xFFFFFFFFFFFFFFFF DUP2 GT ISZERO PUSH2 0xEE1 JUMPI PUSH2 0xEE0 PUSH2 0xD0C JUMP JUMPDEST JUMPDEST PUSH2 0xEED DUP14 DUP3 DUP15 ADD PUSH2 0xDB4 JUMP JUMPDEST SWAP3 POP SWAP3 POP POP SWAP3 SWAP6 SWAP9 SWAP12 SWAP2 SWAP5 SWAP8 SWAP11 POP SWAP3 SWAP6 SWAP9 POP JUMP JUMPDEST PUSH1 0x0 DUP1 PUSH1 0x0 DUP1 PUSH1 0x0 DUP1 PUSH1 0xA0 DUP8 DUP10 SUB SLT ISZERO PUSH2 0xF1E JUMPI PUSH2 0xF1D PUSH2 0xD07 JUMP JUMPDEST JUMPDEST PUSH1 0x0 PUSH2 0xF2C DUP10 DUP3 DUP11 ADD PUSH2 0xD5A JUMP JUMPDEST SWAP7 POP POP PUSH1 0x20 PUSH2 0xF3D DUP10 DUP3 DUP11 ADD PUSH2 0xD90 JUMP JUMPDEST SWAP6 POP POP PUSH1 0x40 PUSH2 0xF4E DUP10 DUP3 DUP11 ADD PUSH2 0xD90 JUMP JUMPDEST SWAP5 POP POP PUSH1 0x60 PUSH2 0xF5F DUP10 DUP3 DUP11 ADD PUSH2 0xD90 JUMP JUMPDEST SWAP4 POP POP PUSH1 0x80 DUP8 ADD CALLDATALOAD PUSH8 0xFFFFFFFFFFFFFFFF DUP2 GT ISZERO PUSH2 0xF80 JUMPI PUSH2 0xF7F PUSH2 0xD0C JUMP JUMPDEST JUMPDEST PUSH2 0xF8C DUP10 DUP3 DUP11 ADD PUSH2 0xDB4 JUMP JUMPDEST SWAP3 POP SWAP3 POP POP SWAP3 SWAP6 POP SWAP3 SWAP6 POP SWAP3 SWAP6 JUMP JUMPDEST PUSH1 0x0 DUP2 SWAP1 POP SWAP2 SWAP1 POP JUMP JUMPDEST PUSH2 0xFAE DUP2 PUSH2 0xF9B JUMP JUMPDEST DUP3 MSTORE POP POP JUMP JUMPDEST PUSH1 0x0 PUSH1 0x20 DUP3 ADD SWAP1 POP PUSH2 0xFC9 PUSH1 0x0 DUP4 ADD DUP5 PUSH2 0xFA5 JUMP JUMPDEST SWAP3 SWAP2 POP POP JUMP JUMPDEST PUSH32 0x4E487B7100000000000000000000000000000000000000000000000000000000 PUSH1 0x0 MSTORE PUSH1 0x11 PUSH1 0x4 MSTORE PUSH1 0x24 PUSH1 0x0 REVERT JUMPDEST PUSH1 0x0 PUSH2 0x1009 DUP3 PUSH2 0xD6F JUMP JUMPDEST SWAP2 POP PUSH2 0x1014 DUP4 PUSH2 0xD6F JUMP JUMPDEST SWAP3 POP DUP3 DUP3 ADD SWAP1 POP DUP1 DUP3 GT ISZERO PUSH2 0x102C JUMPI PUSH2 0x102B PUSH2 0xFCF JUMP JUMPDEST JUMPDEST SWAP3 SWAP2 POP POP JUMP JUMPDEST PUSH2 0x103B DUP2 PUSH2 0xD6F JUMP JUMPDEST DUP3 MSTORE POP POP JUMP JUMPDEST PUSH1 0x0 PUSH1 0x20 DUP3 ADD SWAP1 POP PUSH2 0x1056 PUSH1 0x0 DUP4 ADD DUP5 PUSH2 0x1032 JUMP JUMPDEST SWAP3 SWAP2 POP POP JUMP JUMPDEST PUSH1 0x0 DUP2 MLOAD SWAP1 POP SWAP2 SWAP1 POP JUMP JUMPDEST PUSH1 0x0 DUP2 SWAP1 POP SWAP3 SWAP2 POP POP JUMP JUMPDEST PUSH1 0x0 JUMPDEST DUP4 DUP2 LT ISZERO PUSH2 0x1090 JUMPI DUP1 DUP3 ADD MLOAD DUP2 DUP5 ADD MSTORE PUSH1 0x20 DUP2 ADD SWAP1 POP PUSH2 0x1075 JUMP JUMPDEST PUSH1 0x0 DUP5 DUP5 ADD MSTORE POP POP POP POP JUMP JUMPDEST PUSH1 0x0 PUSH2 0x10A7 DUP3 PUSH2 0x105C JUMP JUMPDEST PUSH2 0x10B1 DUP2 DUP6 PUSH2 0x1067 JUMP JUMPDEST SWAP4 POP PUSH2 0x10C1 DUP2 DUP6 PUSH1 0x20 DUP7 ADD PUSH2 0x1072 JUMP JUMPDEST DUP1 DUP5 ADD SWAP2 POP POP SWAP3 SWAP2 POP POP JUMP JUMPDEST PUSH1 0x0 PUSH2 0x10D9 DUP3 DUP5 PUSH2 0x109C JUMP JUMPDEST SWAP2 POP DUP2 SWAP1 POP SWAP3 SWAP2 POP POP JUMP JUMPDEST PUSH32 0x5251455448000000000000000000000000000000000000000000000000000000 PUSH1 0x0 DUP3 ADD MSTORE POP JUMP JUMPDEST PUSH1 0x0 PUSH2 0x111A PUSH1 0x5 DUP4 PUSH2 0xC8A JUMP JUMPDEST SWAP2 POP PUSH2 0x1125 DUP3 PUSH2 0x10E4 JUMP JUMPDEST PUSH1 0x20 DUP3 ADD SWAP1 POP SWAP2 SWAP1 POP JUMP JUMPDEST PUSH1 0x0 PUSH1 0x20 DUP3 ADD SWAP1 POP DUP2 DUP2 SUB PUSH1 0x0 DUP4 ADD MSTORE PUSH2 0x1149 DUP2 PUSH2 0x110D JUMP JUMPDEST SWAP1 POP SWAP2 SWAP1 POP JUMP JUMPDEST PUSH2 0x1159 DUP2 PUSH2 0xD31 JUMP JUMPDEST DUP3 MSTORE POP POP JUMP JUMPDEST PUSH1 0x0 DUP3 DUP3 MSTORE PUSH1 0x20 DUP3 ADD SWAP1 POP SWAP3 SWAP2 POP POP JUMP JUMPDEST DUP3 DUP2 DUP4 CALLDATACOPY PUSH1 0x0 DUP4 DUP4 ADD MSTORE POP POP POP JUMP JUMPDEST PUSH1 0x0 PUSH1 0x1F NOT PUSH1 0x1F DUP4 ADD AND SWAP1 POP SWAP2 SWAP1 POP JUMP JUMPDEST PUSH1 0x0 PUSH2 0x119C DUP4 DUP6 PUSH2 0x115F JUMP JUMPDEST SWAP4 POP PUSH2 0x11A9 DUP4 DUP6 DUP5 PUSH2 0x1170 JUMP JUMPDEST PUSH2 0x11B2 DUP4 PUSH2 0x117F JUMP JUMPDEST DUP5 ADD SWAP1 POP SWAP4 SWAP3 POP POP POP JUMP JUMPDEST PUSH1 0x0 PUSH1 0xE0 DUP3 ADD SWAP1 POP PUSH2 0x11D2 PUSH1 0x0 DUP4 ADD DUP12 PUSH2 0x1150 JUMP JUMPDEST PUSH2 0x11DF PUSH1 0x20 DUP4 ADD DUP11 PUSH2 0x1150 JUMP JUMPDEST PUSH2 0x11EC PUSH1 0x40 DUP4 ADD DUP10 PUSH2 0x1032 JUMP JUMPDEST PUSH2 0x11F9 PUSH1 0x60 DUP4 ADD DUP9 PUSH2 0x1032 JUMP JUMPDEST PUSH2 0x1206 PUSH1 0x80 DUP4 ADD DUP8 PUSH2 0x1032 JUMP JUMPDEST PUSH2 0x1213 PUSH1 0xA0 DUP4 ADD DUP7 PUSH2 0x1032 JUMP JUMPDEST DUP2 DUP2 SUB PUSH1 0xC0 DUP4 ADD MSTORE PUSH2 0x1226 DUP2 DUP5 DUP7 PUSH2 0x1190 JUMP JUMPDEST SWAP1 POP SWAP10 SWAP9 POP POP POP POP POP POP POP POP POP JUMP JUMPDEST PUSH32 0x444D56414C000000000000000000000000000000000000000000000000000000 PUSH1 0x0 DUP3 ADD MSTORE POP JUMP JUMPDEST PUSH1 0x0 PUSH2 0x126B PUSH1 0x5 DUP4 PUSH2 0xC8A JUMP JUMPDEST SWAP2 POP PUSH2 0x1276 DUP3 PUSH2 0x1235 JUMP JUMPDEST PUSH1 0x20 DUP3 ADD SWAP1 POP SWAP2 SWAP1 POP JUMP JUMPDEST PUSH1 0x0 PUSH1 0x20 DUP3 ADD SWAP1 POP DUP2 DUP2 SUB PUSH1 0x0 DUP4 ADD MSTORE PUSH2 0x129A DUP2 PUSH2 0x125E JUMP JUMPDEST SWAP1 POP SWAP2 SWAP1 POP JUMP JUMPDEST PUSH32 0x5354524F4F540000000000000000000000000000000000000000000000000000 PUSH1 0x0 DUP3 ADD MSTORE POP JUMP JUMPDEST PUSH1 0x0 PUSH2 0x12D7 PUSH1 0x6 DUP4 PUSH2 0xC8A JUMP JUMPDEST SWAP2 POP PUSH2 0x12E2 DUP3 PUSH2 0x12A1 JUMP JUMPDEST PUSH1 0x20 DUP3 ADD SWAP1 POP SWAP2 SWAP1 POP JUMP JUMPDEST PUSH1 0x0 PUSH1 0x20 DUP3 ADD SWAP1 POP DUP2 DUP2 SUB PUSH1 0x0 DUP4 ADD MSTORE PUSH2 0x1306 DUP2 PUSH2 0x12CA JUMP JUMPDEST SWAP1 POP SWAP2 SWAP1 POP JUMP JUMPDEST PUSH1 0x0 DUP2 MLOAD SWAP1 POP PUSH2 0x131C DUP2 PUSH2 0xD79 JUMP JUMPDEST SWAP3 SWAP2 POP POP JUMP JUMPDEST PUSH1 0x0 PUSH1 0x20 DUP3 DUP5 SUB SLT ISZERO PUSH2 0x1338 JUMPI PUSH2 0x1337 PUSH2 0xD07 JUMP JUMPDEST JUMPDEST PUSH1 0x0 PUSH2 0x1346 DUP5 DUP3 DUP6 ADD PUSH2 0x130D JUMP JUMPDEST SWAP2 POP POP SWAP3 SWAP2 POP POP JUMP JUMPDEST PUSH32 0x444D545300000000000000000000000000000000000000000000000000000000 PUSH1 0x0 DUP3 ADD MSTORE POP JUMP JUMPDEST PUSH1 0x0 PUSH2 0x1385 PUSH1 0x4 DUP4 PUSH2 0xC8A JUMP JUMPDEST SWAP2 POP PUSH2 0x1390 DUP3 PUSH2 0x134F JUMP JUMPDEST PUSH1 0x20 DUP3 ADD SWAP1 POP SWAP2 SWAP1 POP JUMP JUMPDEST PUSH1 0x0 PUSH1 0x20 DUP3 ADD SWAP1 POP DUP2 DUP2 SUB PUSH1 0x0 DUP4 ADD MSTORE PUSH2 0x13B4 DUP2 PUSH2 0x1378 JUMP JUMPDEST SWAP1 POP SWAP2 SWAP1 POP JUMP JUMPDEST PUSH32 0x444D440000000000000000000000000000000000000000000000000000000000 PUSH1 0x0 DUP3 ADD MSTORE POP JUMP JUMPDEST PUSH1 0x0 PUSH2 0x13F1 PUSH1 0x3 DUP4 PUSH2 0xC8A JUMP JUMPDEST SWAP2 POP PUSH2 0x13FC DUP3 PUSH2 0x13BB JUMP JUMPDEST PUSH1 0x20 DUP3 ADD SWAP1 POP SWAP2 SWAP1 POP JUMP JUMPDEST PUSH1 0x0 PUSH1 0x20 DUP3 ADD SWAP1 POP DUP2 DUP2 SUB PUSH1 0x0 DUP4 ADD MSTORE PUSH2 0x1420 DUP2 PUSH2 0x13E4 JUMP JUMPDEST SWAP1 POP SWAP2 SWAP1 POP JUMP JUMPDEST PUSH32 0x444D480000000000000000000000000000000000000000000000000000000000 PUSH1 0x0 DUP3 ADD MSTORE POP JUMP JUMPDEST PUSH1 0x0 PUSH2 0x145D PUSH1 0x3 DUP4 PUSH2 0xC8A JUMP JUMPDEST SWAP2 POP PUSH2 0x1468 DUP3 PUSH2 0x1427 JUMP JUMPDEST PUSH1 0x20 DUP3 ADD SWAP1 POP SWAP2 SWAP1 POP JUMP JUMPDEST PUSH1 0x0 PUSH1 0x20 DUP3 ADD SWAP1 POP DUP2 DUP2 SUB PUSH1 0x0 DUP4 ADD MSTORE PUSH2 0x148C DUP2 PUSH2 0x1450 JUMP JUMPDEST SWAP1 POP SWAP2 SWAP1 POP JUMP JUMPDEST POP JUMP JUMPDEST PUSH1 0x0 PUSH2 0x14A3 PUSH1 0x0 DUP4 PUSH2 0x1067 JUMP JUMPDEST SWAP2 POP PUSH2 0x14AE DUP3 PUSH2 0x1493 JUMP JUMPDEST PUSH1 0x0 DUP3 ADD SWAP1 POP SWAP2 SWAP1 POP JUMP JUMPDEST PUSH1 0x0 PUSH2 0x14C4 DUP3 PUSH2 0x1496 JUMP JUMPDEST SWAP2 POP DUP2 SWAP1 POP SWAP2 SWAP1 POP JUMP JUMPDEST PUSH32 0x5445544800000000000000000000000000000000000000000000000000000000 PUSH1 0x0 DUP3 ADD MSTORE POP JUMP JUMPDEST PUSH1 0x0 PUSH2 0x1504 PUSH1 0x4 DUP4 PUSH2 0xC8A JUMP JUMPDEST SWAP2 POP PUSH2 0x150F DUP3 PUSH2 0x14CE JUMP JUMPDEST PUSH1 0x20 DUP3 ADD SWAP1 POP SWAP2 SWAP1 POP JUMP JUMPDEST PUSH1 0x0 PUSH1 0x20 DUP3 ADD SWAP1 POP DUP2 DUP2 SUB PUSH1 0x0 DUP4 ADD MSTORE PUSH2 0x1533 DUP2 PUSH2 0x14F7 JUMP JUMPDEST SWAP1 POP SWAP2 SWAP1 POP JUMP JUMPDEST PUSH1 0x0 PUSH2 0x1545 DUP3 PUSH2 0xD6F JUMP JUMPDEST SWAP2 POP PUSH2 0x1550 DUP4 PUSH2 0xD6F JUMP JUMPDEST SWAP3 POP DUP3 DUP3 SUB SWAP1 POP DUP2 DUP2 GT ISZERO PUSH2 0x1568 JUMPI PUSH2 0x1567 PUSH2 0xFCF JUMP JUMPDEST JUMPDEST SWAP3 SWAP2 POP POP JUMP INVALID LOG2 PUSH5 0x6970667358 0x22 SLT KECCAK256 0xD3 CALLCODE JUMP PUSH2 0x9970 ORIGIN PUSH17 0xC1F491A69868FE236756416839DACEB1E9 ORIGIN MUL 0x25 MSTORE8 MLOAD 0xC 0xEE PUSH5 0x736F6C6343 STOP ADDMOD LT STOP CALLER "
				},
				"gasEstimates": {
					"creation": {
						"codeDepositCost": "1108000",
						"executionCost": "1154",
						"totalCost": "1109154"
					},
					"external": {
						"dispatchMessage(address,uint256,uint256,uint256,bytes)": "infinite",
						"dropMessage(address,address,uint256,uint256,uint256,uint256,bytes,bytes)": "infinite"
					}
				},
				"methodIdentifiers": {
					"dispatchMessage(address,uint256,uint256,uint256,bytes)": "5d4d3bcd",
					"dropMessage(address,address,uint256,uint256,uint256,uint256,bytes,bytes)": "2822697b"
				}
			},
			"storageLayout": {
				"storage": [],
				"types": null
			},
			"userdoc": {
				"kind": "user",
				"methods": {
					"dispatchMessage(address,uint256,uint256,uint256,bytes)": {
						"notice": "Dispatch a message to the opposite chain."
					},
					"dropMessage(address,address,uint256,uint256,uint256,uint256,bytes,bytes)": {
						"notice": "Drops a expired message and returns ETH - if any to `from`."
					}
				},
				"version": 1
			}
		}
	}
}