{
	"contracts/Proxy.sol": {
		"Proxy": {
			"abi": [
				{
					"inputs": [
						{
							"internalType": "address",
							"name": "initialImplementation",
							"type": "address"
						}
					],
					"stateMutability": "nonpayable",
					"type": "constructor"
				},
				{
					"stateMutability": "payable",
					"type": "fallback"
				},
				{
					"inputs": [
						{
							"internalType": "address",
							"name": "to",
							"type": "address"
						}
					],
					"name": "upgrade",
					"outputs": [],
					"stateMutability": "nonpayable",
					"type": "function"
				}
			],
			"devdoc": {
				"kind": "dev",
				"methods": {},
				"version": 1
			},
			"evm": {
				"assembly": "    /* \"contracts/Proxy.sol\":90:1347  contract Proxy {... */\n  mstore(0x40, 0x80)\n    /* \"contracts/Proxy.sol\":109:300  constructor (address initialImplementation) {... */\n  callvalue\n  dup1\n  iszero\n  tag_1\n  jumpi\n  0x00\n  dup1\n  revert\ntag_1:\n  pop\n  mload(0x40)\n  sub(codesize, bytecodeSize)\n  dup1\n  bytecodeSize\n  dup4\n  codecopy\n  dup2\n  dup2\n  add\n  0x40\n  mstore\n  dup2\n  add\n  swap1\n  tag_2\n  swap2\n  swap1\n  tag_3\n  jump\t// in\ntag_2:\n    /* \"contracts/Proxy.sol\":268:289  initialImplementation */\n  dup1\n    /* \"contracts/Proxy.sol\":249:265  returndatasize() */\n  returndatasize\n    /* \"contracts/Proxy.sol\":245:266  not(returndatasize()) */\n  not\n    /* \"contracts/Proxy.sol\":238:290  sstore(not(returndatasize()), initialImplementation) */\n  sstore\n    /* \"contracts/Proxy.sol\":109:300  constructor (address initialImplementation) {... */\n  pop\n    /* \"contracts/Proxy.sol\":90:1347  contract Proxy {... */\n  jump(tag_6)\n    /* \"#utility.yul\":88:205   */\ntag_8:\n    /* \"#utility.yul\":197:198   */\n  0x00\n    /* \"#utility.yul\":194:195   */\n  dup1\n    /* \"#utility.yul\":187:199   */\n  revert\n    /* \"#utility.yul\":334:460   */\ntag_10:\n    /* \"#utility.yul\":371:378   */\n  0x00\n    /* \"#utility.yul\":411:453   */\n  0xffffffffffffffffffffffffffffffffffffffff\n    /* \"#utility.yul\":404:409   */\n  dup3\n    /* \"#utility.yul\":400:454   */\n  and\n    /* \"#utility.yul\":389:454   */\n  swap1\n  pop\n    /* \"#utility.yul\":334:460   */\n  swap2\n  swap1\n  pop\n  jump\t// out\n    /* \"#utility.yul\":466:562   */\ntag_11:\n    /* \"#utility.yul\":503:510   */\n  0x00\n    /* \"#utility.yul\":532:556   */\n  tag_20\n    /* \"#utility.yul\":550:555   */\n  dup3\n    /* \"#utility.yul\":532:556   */\n  tag_10\n  jump\t// in\ntag_20:\n    /* \"#utility.yul\":521:556   */\n  swap1\n  pop\n    /* \"#utility.yul\":466:562   */\n  swap2\n  swap1\n  pop\n  jump\t// out\n    /* \"#utility.yul\":568:690   */\ntag_12:\n    /* \"#utility.yul\":641:665   */\n  tag_22\n    /* \"#utility.yul\":659:664   */\n  dup2\n    /* \"#utility.yul\":641:665   */\n  tag_11\n  jump\t// in\ntag_22:\n    /* \"#utility.yul\":634:639   */\n  dup2\n    /* \"#utility.yul\":631:666   */\n  eq\n    /* \"#utility.yul\":621:684   */\n  tag_23\n  jumpi\n    /* \"#utility.yul\":680:681   */\n  0x00\n    /* \"#utility.yul\":677:678   */\n  dup1\n    /* \"#utility.yul\":670:682   */\n  revert\n    /* \"#utility.yul\":621:684   */\ntag_23:\n    /* \"#utility.yul\":568:690   */\n  pop\n  jump\t// out\n    /* \"#utility.yul\":696:839   */\ntag_13:\n    /* \"#utility.yul\":753:758   */\n  0x00\n    /* \"#utility.yul\":784:790   */\n  dup2\n    /* \"#utility.yul\":778:791   */\n  mload\n    /* \"#utility.yul\":769:791   */\n  swap1\n  pop\n    /* \"#utility.yul\":800:833   */\n  tag_25\n    /* \"#utility.yul\":827:832   */\n  dup2\n    /* \"#utility.yul\":800:833   */\n  tag_12\n  jump\t// in\ntag_25:\n    /* \"#utility.yul\":696:839   */\n  swap3\n  swap2\n  pop\n  pop\n  jump\t// out\n    /* \"#utility.yul\":845:1196   */\ntag_3:\n    /* \"#utility.yul\":915:921   */\n  0x00\n    /* \"#utility.yul\":964:966   */\n  0x20\n    /* \"#utility.yul\":952:961   */\n  dup3\n    /* \"#utility.yul\":943:950   */\n  dup5\n    /* \"#utility.yul\":939:962   */\n  sub\n    /* \"#utility.yul\":935:967   */\n  slt\n    /* \"#utility.yul\":932:1051   */\n  iszero\n  tag_27\n  jumpi\n    /* \"#utility.yul\":970:1049   */\n  tag_28\n  tag_8\n  jump\t// in\ntag_28:\n    /* \"#utility.yul\":932:1051   */\ntag_27:\n    /* \"#utility.yul\":1090:1091   */\n  0x00\n    /* \"#utility.yul\":1115:1179   */\n  tag_29\n    /* \"#utility.yul\":1171:1178   */\n  dup5\n    /* \"#utility.yul\":1162:1168   */\n  dup3\n    /* \"#utility.yul\":1151:1160   */\n  dup6\n    /* \"#utility.yul\":1147:1169   */\n  add\n    /* \"#utility.yul\":1115:1179   */\n  tag_13\n  jump\t// in\ntag_29:\n    /* \"#utility.yul\":1105:1179   */\n  swap2\n  pop\n    /* \"#utility.yul\":1061:1189   */\n  pop\n    /* \"#utility.yul\":845:1196   */\n  swap3\n  swap2\n  pop\n  pop\n  jump\t// out\n    /* \"contracts/Proxy.sol\":90:1347  contract Proxy {... */\ntag_6:\n  dataSize(sub_0)\n  dup1\n  dataOffset(sub_0)\n  0x00\n  codecopy\n  0x00\n  return\nstop\n\nsub_0: assembly {\n        /* \"contracts/Proxy.sol\":90:1347  contract Proxy {... */\n      mstore(0x40, 0x80)\n      jumpi(tag_1, lt(calldatasize, 0x04))\n      shr(0xe0, calldataload(0x00))\n      dup1\n      0x0900f010\n      eq\n      tag_3\n      jumpi\n      jump(tag_2)\n    tag_1:\n    tag_2:\n        /* \"contracts/Proxy.sol\":487:501  calldatasize() */\n      calldatasize\n        /* \"contracts/Proxy.sol\":469:485  returndatasize() */\n      returndatasize\n        /* \"contracts/Proxy.sol\":451:467  returndatasize() */\n      returndatasize\n        /* \"contracts/Proxy.sol\":438:502  calldatacopy(returndatasize(), returndatasize(), calldatasize()) */\n      calldatacopy\n        /* \"contracts/Proxy.sol\":568:584  returndatasize() */\n      returndatasize\n        /* \"contracts/Proxy.sol\":836:852  returndatasize() */\n      returndatasize\n        /* \"contracts/Proxy.sol\":810:826  returndatasize() */\n      returndatasize\n        /* \"contracts/Proxy.sol\":786:800  calldatasize() */\n      calldatasize\n        /* \"contracts/Proxy.sol\":760:776  returndatasize() */\n      returndatasize\n        /* \"contracts/Proxy.sol\":732:748  returndatasize() */\n      returndatasize\n        /* \"contracts/Proxy.sol\":728:749  not(returndatasize()) */\n      not\n        /* \"contracts/Proxy.sol\":722:750  sload(not(returndatasize())) */\n      sload\n        /* \"contracts/Proxy.sol\":707:712  gas() */\n      gas\n        /* \"contracts/Proxy.sol\":685:860  delegatecall(... */\n      delegatecall\n        /* \"contracts/Proxy.sol\":937:953  returndatasize() */\n      returndatasize\n        /* \"contracts/Proxy.sol\":931:935  zero */\n      dup3\n        /* \"contracts/Proxy.sol\":925:929  zero */\n      dup4\n        /* \"contracts/Proxy.sol\":910:954  returndatacopy(zero, zero, returndatasize()) */\n      returndatacopy\n        /* \"contracts/Proxy.sol\":1017:1024  success */\n      dup1\n        /* \"contracts/Proxy.sol\":1014:1073  if success {... */\n      iszero\n      tag_6\n      jumpi\n        /* \"contracts/Proxy.sol\":1048:1064  returndatasize() */\n      returndatasize\n        /* \"contracts/Proxy.sol\":1042:1046  zero */\n      dup3\n        /* \"contracts/Proxy.sol\":1035:1065  return(zero, returndatasize()) */\n      return\n        /* \"contracts/Proxy.sol\":1014:1073  if success {... */\n    tag_6:\n        /* \"contracts/Proxy.sol\":1114:1130  returndatasize() */\n      returndatasize\n        /* \"contracts/Proxy.sol\":1108:1112  zero */\n      dup3\n        /* \"contracts/Proxy.sol\":1101:1131  revert(zero, returndatasize()) */\n      revert\n        /* \"contracts/Proxy.sol\":1186:1345  function upgrade (address to) external {... */\n    tag_3:\n      callvalue\n      dup1\n      iszero\n      tag_7\n      jumpi\n      0x00\n      dup1\n      revert\n    tag_7:\n      pop\n      tag_8\n      0x04\n      dup1\n      calldatasize\n      sub\n      dup2\n      add\n      swap1\n      tag_9\n      swap2\n      swap1\n      tag_10\n      jump\t// in\n    tag_9:\n      tag_11\n      jump\t// in\n    tag_8:\n      stop\n    tag_11:\n        /* \"contracts/Proxy.sol\":1332:1334  to */\n      dup1\n        /* \"contracts/Proxy.sol\":1313:1329  returndatasize() */\n      returndatasize\n        /* \"contracts/Proxy.sol\":1309:1330  not(returndatasize()) */\n      not\n        /* \"contracts/Proxy.sol\":1302:1335  sstore(not(returndatasize()), to) */\n      sstore\n        /* \"contracts/Proxy.sol\":1186:1345  function upgrade (address to) external {... */\n      pop\n      jump\t// out\n        /* \"#utility.yul\":88:205   */\n    tag_14:\n        /* \"#utility.yul\":197:198   */\n      0x00\n        /* \"#utility.yul\":194:195   */\n      dup1\n        /* \"#utility.yul\":187:199   */\n      revert\n        /* \"#utility.yul\":334:460   */\n    tag_16:\n        /* \"#utility.yul\":371:378   */\n      0x00\n        /* \"#utility.yul\":411:453   */\n      0xffffffffffffffffffffffffffffffffffffffff\n        /* \"#utility.yul\":404:409   */\n      dup3\n        /* \"#utility.yul\":400:454   */\n      and\n        /* \"#utility.yul\":389:454   */\n      swap1\n      pop\n        /* \"#utility.yul\":334:460   */\n      swap2\n      swap1\n      pop\n      jump\t// out\n        /* \"#utility.yul\":466:562   */\n    tag_17:\n        /* \"#utility.yul\":503:510   */\n      0x00\n        /* \"#utility.yul\":532:556   */\n      tag_26\n        /* \"#utility.yul\":550:555   */\n      dup3\n        /* \"#utility.yul\":532:556   */\n      tag_16\n      jump\t// in\n    tag_26:\n        /* \"#utility.yul\":521:556   */\n      swap1\n      pop\n        /* \"#utility.yul\":466:562   */\n      swap2\n      swap1\n      pop\n      jump\t// out\n        /* \"#utility.yul\":568:690   */\n    tag_18:\n        /* \"#utility.yul\":641:665   */\n      tag_28\n        /* \"#utility.yul\":659:664   */\n      dup2\n        /* \"#utility.yul\":641:665   */\n      tag_17\n      jump\t// in\n    tag_28:\n        /* \"#utility.yul\":634:639   */\n      dup2\n        /* \"#utility.yul\":631:666   */\n      eq\n        /* \"#utility.yul\":621:684   */\n      tag_29\n      jumpi\n        /* \"#utility.yul\":680:681   */\n      0x00\n        /* \"#utility.yul\":677:678   */\n      dup1\n        /* \"#utility.yul\":670:682   */\n      revert\n        /* \"#utility.yul\":621:684   */\n    tag_29:\n        /* \"#utility.yul\":568:690   */\n      pop\n      jump\t// out\n        /* \"#utility.yul\":696:835   */\n    tag_19:\n        /* \"#utility.yul\":742:747   */\n      0x00\n        /* \"#utility.yul\":780:786   */\n      dup2\n        /* \"#utility.yul\":767:787   */\n      calldataload\n        /* \"#utility.yul\":758:787   */\n      swap1\n      pop\n        /* \"#utility.yul\":796:829   */\n      tag_31\n        /* \"#utility.yul\":823:828   */\n      dup2\n        /* \"#utility.yul\":796:829   */\n      tag_18\n      jump\t// in\n    tag_31:\n        /* \"#utility.yul\":696:835   */\n      swap3\n      swap2\n      pop\n      pop\n      jump\t// out\n        /* \"#utility.yul\":841:1170   */\n    tag_10:\n        /* \"#utility.yul\":900:906   */\n      0x00\n        /* \"#utility.yul\":949:951   */\n      0x20\n        /* \"#utility.yul\":937:946   */\n      dup3\n        /* \"#utility.yul\":928:935   */\n      dup5\n        /* \"#utility.yul\":924:947   */\n      sub\n        /* \"#utility.yul\":920:952   */\n      slt\n        /* \"#utility.yul\":917:1036   */\n      iszero\n      tag_33\n      jumpi\n        /* \"#utility.yul\":955:1034   */\n      tag_34\n      tag_14\n      jump\t// in\n    tag_34:\n        /* \"#utility.yul\":917:1036   */\n    tag_33:\n        /* \"#utility.yul\":1075:1076   */\n      0x00\n        /* \"#utility.yul\":1100:1153   */\n      tag_35\n        /* \"#utility.yul\":1145:1152   */\n      dup5\n        /* \"#utility.yul\":1136:1142   */\n      dup3\n        /* \"#utility.yul\":1125:1134   */\n      dup6\n        /* \"#utility.yul\":1121:1143   */\n      add\n        /* \"#utility.yul\":1100:1153   */\n      tag_19\n      jump\t// in\n    tag_35:\n        /* \"#utility.yul\":1090:1153   */\n      swap2\n      pop\n        /* \"#utility.yul\":1046:1163   */\n      pop\n        /* \"#utility.yul\":841:1170   */\n      swap3\n      swap2\n      pop\n      pop\n      jump\t// out\n\n    auxdata: 0xa26469706673582212204efb7771275cb41eca2c2cba4ddd8e3c6cfc4291c30bf8bb48bf28bc57d4f65264736f6c63430008120033\n}\n",
				"bytecode": {
					"linkReferences": {},
					"object": "608060405234801561001057600080fd5b506040516101ff3803806101ff8339818101604052810190610032919061009f565b803d1955506100cc565b600080fd5b600073ffffffffffffffffffffffffffffffffffffffff82169050919050565b600061006c82610041565b9050919050565b61007c81610061565b811461008757600080fd5b50565b60008151905061009981610073565b92915050565b6000602082840312156100b5576100b461003c565b5b60006100c38482850161008a565b91505092915050565b610124806100db6000396000f3fe608060405260043610601f5760003560e01c80630900f01014603f576020565b5b363d3d373d3d3d363d3d19545af43d82833e8015603b573d82f35b3d82fd5b348015604a57600080fd5b5060616004803603810190605d919060c6565b6063565b005b803d195550565b600080fd5b600073ffffffffffffffffffffffffffffffffffffffff82169050919050565b6000609882606f565b9050919050565b60a681608f565b811460b057600080fd5b50565b60008135905060c081609f565b92915050565b60006020828403121560d95760d8606a565b5b600060e58482850160b3565b9150509291505056fea26469706673582212204efb7771275cb41eca2c2cba4ddd8e3c6cfc4291c30bf8bb48bf28bc57d4f65264736f6c63430008120033",
					"opcodes": "PUSH1 0x80 PUSH1 0x40 MSTORE CALLVALUE DUP1 ISZERO PUSH2 0x10 JUMPI PUSH1 0x0 DUP1 REVERT JUMPDEST POP PUSH1 0x40 MLOAD PUSH2 0x1FF CODESIZE SUB DUP1 PUSH2 0x1FF DUP4 CODECOPY DUP2 DUP2 ADD PUSH1 0x40 MSTORE DUP2 ADD SWAP1 PUSH2 0x32 SWAP2 SWAP1 PUSH2 0x9F JUMP JUMPDEST DUP1 RETURNDATASIZE NOT SSTORE POP PUSH2 0xCC JUMP JUMPDEST PUSH1 0x0 DUP1 REVERT JUMPDEST PUSH1 0x0 PUSH20 0xFFFFFFFFFFFFFFFFFFFFFFFFFFFFFFFFFFFFFFFF DUP3 AND SWAP1 POP SWAP2 SWAP1 POP JUMP JUMPDEST PUSH1 0x0 PUSH2 0x6C DUP3 PUSH2 0x41 JUMP JUMPDEST SWAP1 POP SWAP2 SWAP1 POP JUMP JUMPDEST PUSH2 0x7C DUP2 PUSH2 0x61 JUMP JUMPDEST DUP2 EQ PUSH2 0x87 JUMPI PUSH1 0x0 DUP1 REVERT JUMPDEST POP JUMP JUMPDEST PUSH1 0x0 DUP2 MLOAD SWAP1 POP PUSH2 0x99 DUP2 PUSH2 0x73 JUMP JUMPDEST SWAP3 SWAP2 POP POP JUMP JUMPDEST PUSH1 0x0 PUSH1 0x20 DUP3 DUP5 SUB SLT ISZERO PUSH2 0xB5 JUMPI PUSH2 0xB4 PUSH2 0x3C JUMP JUMPDEST JUMPDEST PUSH1 0x0 PUSH2 0xC3 DUP5 DUP3 DUP6 ADD PUSH2 0x8A JUMP JUMPDEST SWAP2 POP POP SWAP3 SWAP2 POP POP JUMP JUMPDEST PUSH2 0x124 DUP1 PUSH2 0xDB PUSH1 0x0 CODECOPY PUSH1 0x0 RETURN INVALID PUSH1 0x80 PUSH1 0x40 MSTORE PUSH1 0x4 CALLDATASIZE LT PUSH1 0x1F JUMPI PUSH1 0x0 CALLDATALOAD PUSH1 0xE0 SHR DUP1 PUSH4 0x900F010 EQ PUSH1 0x3F JUMPI PUSH1 0x20 JUMP JUMPDEST JUMPDEST CALLDATASIZE RETURNDATASIZE RETURNDATASIZE CALLDATACOPY RETURNDATASIZE RETURNDATASIZE RETURNDATASIZE CALLDATASIZE RETURNDATASIZE RETURNDATASIZE NOT SLOAD GAS DELEGATECALL RETURNDATASIZE DUP3 DUP4 RETURNDATACOPY DUP1 ISZERO PUSH1 0x3B JUMPI RETURNDATASIZE DUP3 RETURN JUMPDEST RETURNDATASIZE DUP3 REVERT JUMPDEST CALLVALUE DUP1 ISZERO PUSH1 0x4A JUMPI PUSH1 0x0 DUP1 REVERT JUMPDEST POP PUSH1 0x61 PUSH1 0x4 DUP1 CALLDATASIZE SUB DUP2 ADD SWAP1 PUSH1 0x5D SWAP2 SWAP1 PUSH1 0xC6 JUMP JUMPDEST PUSH1 0x63 JUMP JUMPDEST STOP JUMPDEST DUP1 RETURNDATASIZE NOT SSTORE POP JUMP JUMPDEST PUSH1 0x0 DUP1 REVERT JUMPDEST PUSH1 0x0 PUSH20 0xFFFFFFFFFFFFFFFFFFFFFFFFFFFFFFFFFFFFFFFF DUP3 AND SWAP1 POP SWAP2 SWAP1 POP JUMP JUMPDEST PUSH1 0x0 PUSH1 0x98 DUP3 PUSH1 0x6F JUMP JUMPDEST SWAP1 POP SWAP2 SWAP1 POP JUMP JUMPDEST PUSH1 0xA6 DUP2 PUSH1 0x8F JUMP JUMPDEST DUP2 EQ PUSH1 0xB0 JUMPI PUSH1 0x0 DUP1 REVERT JUMPDEST POP JUMP JUMPDEST PUSH1 0x0 DUP2 CALLDATALOAD SWAP1 POP PUSH1 0xC0 DUP2 PUSH1 0x9F JUMP JUMPDEST SWAP3 SWAP2 POP POP JUMP JUMPDEST PUSH1 0x0 PUSH1 0x20 DUP3 DUP5 SUB SLT ISZERO PUSH1 0xD9 JUMPI PUSH1 0xD8 PUSH1 0x6A JUMP JUMPDEST JUMPDEST PUSH1 0x0 PUSH1 0xE5 DUP5 DUP3 DUP6 ADD PUSH1 0xB3 JUMP JUMPDEST SWAP2 POP POP SWAP3 SWAP2 POP POP JUMP INVALID LOG2 PUSH5 0x6970667358 0x22 SLT KECCAK256 0x4E 0xFB PUSH24 0x71275CB41ECA2C2CBA4DDD8E3C6CFC4291C30BF8BB48BF28 0xBC JUMPI 0xD4 0xF6 MSTORE PUSH5 0x736F6C6343 STOP ADDMOD SLT STOP CALLER "
				},
				"gasEstimates": {
					"creation": {
						"codeDepositCost": "58400",
						"executionCost": "infinite",
						"totalCost": "infinite"
					},
					"external": {
						"": "infinite",
						"upgrade(address)": "22541"
					}
				},
				"methodIdentifiers": {
					"upgrade(address)": "0900f010"
				}
			},
			"storageLayout": {
				"storage": [],
				"types": null
			},
			"userdoc": {
				"kind": "user",
				"methods": {
					"upgrade(address)": {
						"notice": "For testing purposes only."
					}
				},
				"notice": "Callforwarding proxy",
				"version": 1
			}
		}
	}
}