{
	"data": {
		"bytecode": {
			"linkReferences": {},
			"object": "608060405234801561001057600080fd5b50610d2e806100206000396000f3fe6080604052600436106100745760003560e01c80636e94aac51161004e5780636e94aac514610147578063738301ce146101675780638dfbfead1461017d578063fcd5e7b31461019d57600080fd5b8063312faf74146100bf5780633b1623fe146100ff57806349a435e21461012757600080fd5b366100ba573362020000146100b85760405162461bcd60e51b81526020600482015260056024820152644d5345445360d81b60448201526064015b60405180910390fd5b005b600080fd5b3480156100cb57600080fd5b506100ec6100da366004610ad0565b60009081526002602052604090205490565b6040519081526020015b60405180910390f35b34801561010b57600080fd5b506000546040516001600160a01b0390911681526020016100f6565b34801561013357600080fd5b506100b8610142366004610ae9565b6101bd565b34801561015357600080fd5b506100b8610162366004610b4d565b6101cb565b34801561017357600080fd5b506100ec60015481565b34801561018957600080fd5b506100b8610198366004610bd5565b610224565b3480156101a957600080fd5b506100b86101b8366004610ad0565b6103a7565b6101c56103ee565b60015550565b60008060006101da8787610425565b92509250925081837f9d70f54d5d379e4b92c497936411380303c56bfb08caed66b62c94380ad153db8360405161021391815260200190565b60405180910390a350505050505050565b6201ffff196001600160a01b038a16016102695760405162461bcd60e51b81526004016100af906020808252600490820152631513915160e21b604082015260600190565b60008a8a8a8a8a8a8a8a60405160200161028a989796959493929190610c90565b6040516020818303038152906040528051906020012090506000806102ca6102c3846331df76a460009081526020919091526040902090565b8686610689565b6000828152600260205260408120549294509092508190036103175760405162461bcd60e51b815260206004820152600660248201526514d51493d3d560d21b60448201526064016100af565b89811061034f5760405162461bcd60e51b81526004016100af90602080825260049082015263444d545360e01b604082015260600190565b600182146103875760405162461bcd60e51b8152602060048201526005602482015264111355905360da1b60448201526064016100af565b6103978e8e8e8e8e8e8e8e61092b565b5050505050505050505050505050565b3362020000146103e15760405162461bcd60e51b81526020600482015260056024820152644d5345445360d81b60448201526064016100af565b6103eb3382610a20565b50565b3233146104235760405162461bcd60e51b8152602060048201526003602482015262454f4160e81b60448201526064016100af565b565b600080600061063e565b6308c379a060e01b60005260206004528060445260005b811561045b5760089190911b90600101610446565b8060245260646000fd5b505050565b50505050565b92915050565b600080823560001a60f88110156104985760be19019360019390930192915050565b60f7810360048111156104a757fe5b60018581013560088302610100031c8201810196919095019094019392505050565b6000806000833560001a60808110156104ed57600193508492506001915050610564565b60b881101561050957607f190192505050600182810190610564565b60c08110156105425760b78103600481111561052157fe5b60018681013560088302610100031c95509086018101935091506105649050565b60f88110156105575760018501925050610564565b60f6190192506001840191505b9193909250565b604051819060008061057c84610476565b8186863781852090959092500184845b828710156105c15761059d876104c9565b9350808201985083156105ba57608082901b811783526020909201915b505061058c565b8287146105ca57fe5b60208682030494505050509193509193565b610100919091031b1792915050565b60008260200282015162ffffff81168160801c9150601f8211156106165701601f1901359050610470565b356020919091036008021c905092915050565b3560208390036008021c9250505b9250929050565b6106478561056b565b87890184146106625761066265424f554e445360d01b61042f565b955061067190506003826105eb565b935061067e600b826105eb565b925050509250925092565b6000806108f6565b806080811061047057602083116104705760ff60071960088502011b191692915050565b60405181906000806106c684610476565b8186863781852090959092500184845b828710156105c1576106e7876104c9565b93508082019850831561070457608082901b811783526020909201915b50506106d6565b6000196004830290811c821690602060018516156105dc57506003610100919091031b1792915050565b6000808360200283015162ffffff81168160801c9250601f831115610629578201601f19013592506106379050565b6001820160008080808635811a81805b8281101561084657600080600061078a8b6106b5565b9350935093509a5083600081146107b3576107ae640a89082a6960db1b8b846108e5565b6107b7565b819a505b505080600281146107df5760118114610818576107da634e4f444560e01b61042f565b61083b565b6000806107ed600186610735565b509a50505060001986018414801561080757839750610812565b835160801c95909501945b5061083b565b6004850260fc038c901c600f1661082f8185610735565b50995050600194909401935b505050600101610774565b50610851818961070b565b935050509295509295909350565b8060008080808080806108788a60009081526020902090565b6108828982610764565b955097509550985098505080600081146108d8576108a16000836105eb565b95506108ae600183610735565b93509650858514935083600081146108d1576108ca8489610691565b97506108d6565b600097505b505b5050505050509250925092565b8082148061046a5761046a8461042f565b83610901868261085f565b93509350905083850181146109225761092265424f554e445360d01b61042f565b50935093915050565b8342106109605760405162461bcd60e51b815260206004820152600360248201526211135160ea1b60448201526064016100af565b60008888888888888888604051602001610981989796959493929190610c90565b604051602081830303815290604052805190602001209050856000146109ab576109ab3287610a20565b600080546001600160a01b0319166001600160a01b038b161790556109d288888585610aac565b600080546001600160a01b03191690556040518181527ffa39010b12e169f2d7e9a76e381216416dbf5eb59db117ae979592ee9f3238859060200160405180910390a1505050505050505050565b6000826001600160a01b03168260405160006040518083038185875af1925050503d8060008114610a6d576040519150601f19603f3d011682016040523d82523d6000602084013e610a72565b606091505b50509050806104655760405162461bcd60e51b81526004016100af906020808252600490820152630a88aa8960e31b604082015260600190565b608081838237600080838387895af1610ac9573d6000803e3d6000fd5b5050505050565b600060208284031215610ae257600080fd5b5035919050565b60008060408385031215610afc57600080fd5b50508035926020909101359150565b60008083601f840112610b1d57600080fd5b50813567ffffffffffffffff811115610b3557600080fd5b60208301915083602082850101111561063757600080fd5b60008060008060408587031215610b6357600080fd5b843567ffffffffffffffff80821115610b7b57600080fd5b610b8788838901610b0b565b90965094506020870135915080821115610ba057600080fd5b50610bad87828801610b0b565b95989497509550505050565b80356001600160a01b0381168114610bd057600080fd5b919050565b6000806000806000806000806000806101008b8d031215610bf557600080fd5b610bfe8b610bb9565b9950610c0c60208c01610bb9565b985060408b0135975060608b0135965060808b0135955060a08b0135945060c08b013567ffffffffffffffff80821115610c4557600080fd5b610c518e838f01610b0b565b909650945060e08d0135915080821115610c6a57600080fd5b50610c778d828e01610b0b565b915080935050809150509295989b9194979a5092959850565b600060018060a01b03808b168352808a166020840152508760408301528660608301528560808301528460a083015260e060c08301528260e08301526101008385828501376000838501820152601f909301601f19169091019091019897505050505050505056fea2646970667358221220c1a22865ec596b17a93b7485523d44330706eca91d44348bce3b92c08448011d64736f6c63430008130033",
			"opcodes": "PUSH1 0x80 PUSH1 0x40 MSTORE CALLVALUE DUP1 ISZERO PUSH2 0x10 JUMPI PUSH1 0x0 DUP1 REVERT JUMPDEST POP PUSH2 0xD2E DUP1 PUSH2 0x20 PUSH1 0x0 CODECOPY PUSH1 0x0 RETURN INVALID PUSH1 0x80 PUSH1 0x40 MSTORE PUSH1 0x4 CALLDATASIZE LT PUSH2 0x74 JUMPI PUSH1 0x0 CALLDATALOAD PUSH1 0xE0 SHR DUP1 PUSH4 0x6E94AAC5 GT PUSH2 0x4E JUMPI DUP1 PUSH4 0x6E94AAC5 EQ PUSH2 0x147 JUMPI DUP1 PUSH4 0x738301CE EQ PUSH2 0x167 JUMPI DUP1 PUSH4 0x8DFBFEAD EQ PUSH2 0x17D JUMPI DUP1 PUSH4 0xFCD5E7B3 EQ PUSH2 0x19D JUMPI PUSH1 0x0 DUP1 REVERT JUMPDEST DUP1 PUSH4 0x312FAF74 EQ PUSH2 0xBF JUMPI DUP1 PUSH4 0x3B1623FE EQ PUSH2 0xFF JUMPI DUP1 PUSH4 0x49A435E2 EQ PUSH2 0x127 JUMPI PUSH1 0x0 DUP1 REVERT JUMPDEST CALLDATASIZE PUSH2 0xBA JUMPI CALLER PUSH3 0x20000 EQ PUSH2 0xB8 JUMPI PUSH1 0x40 MLOAD PUSH3 0x461BCD PUSH1 0xE5 SHL DUP2 MSTORE PUSH1 0x20 PUSH1 0x4 DUP3 ADD MSTORE PUSH1 0x5 PUSH1 0x24 DUP3 ADD MSTORE PUSH5 0x4D53454453 PUSH1 0xD8 SHL PUSH1 0x44 DUP3 ADD MSTORE PUSH1 0x64 ADD JUMPDEST PUSH1 0x40 MLOAD DUP1 SWAP2 SUB SWAP1 REVERT JUMPDEST STOP JUMPDEST PUSH1 0x0 DUP1 REVERT JUMPDEST CALLVALUE DUP1 ISZERO PUSH2 0xCB JUMPI PUSH1 0x0 DUP1 REVERT JUMPDEST POP PUSH2 0xEC PUSH2 0xDA CALLDATASIZE PUSH1 0x4 PUSH2 0xAD0 JUMP JUMPDEST PUSH1 0x0 SWAP1 DUP2 MSTORE PUSH1 0x2 PUSH1 0x20 MSTORE PUSH1 0x40 SWAP1 KECCAK256 SLOAD SWAP1 JUMP JUMPDEST PUSH1 0x40 MLOAD SWAP1 DUP2 MSTORE PUSH1 0x20 ADD JUMPDEST PUSH1 0x40 MLOAD DUP1 SWAP2 SUB SWAP1 RETURN JUMPDEST CALLVALUE DUP1 ISZERO PUSH2 0x10B JUMPI PUSH1 0x0 DUP1 REVERT JUMPDEST POP PUSH1 0x0 SLOAD PUSH1 0x40 MLOAD PUSH1 0x1 PUSH1 0x1 PUSH1 0xA0 SHL SUB SWAP1 SWAP2 AND DUP2 MSTORE PUSH1 0x20 ADD PUSH2 0xF6 JUMP JUMPDEST CALLVALUE DUP1 ISZERO PUSH2 0x133 JUMPI PUSH1 0x0 DUP1 REVERT JUMPDEST POP PUSH2 0xB8 PUSH2 0x142 CALLDATASIZE PUSH1 0x4 PUSH2 0xAE9 JUMP JUMPDEST PUSH2 0x1BD JUMP JUMPDEST CALLVALUE DUP1 ISZERO PUSH2 0x153 JUMPI PUSH1 0x0 DUP1 REVERT JUMPDEST POP PUSH2 0xB8 PUSH2 0x162 CALLDATASIZE PUSH1 0x4 PUSH2 0xB4D JUMP JUMPDEST PUSH2 0x1CB JUMP JUMPDEST CALLVALUE DUP1 ISZERO PUSH2 0x173 JUMPI PUSH1 0x0 DUP1 REVERT JUMPDEST POP PUSH2 0xEC PUSH1 0x1 SLOAD DUP2 JUMP JUMPDEST CALLVALUE DUP1 ISZERO PUSH2 0x189 JUMPI PUSH1 0x0 DUP1 REVERT JUMPDEST POP PUSH2 0xB8 PUSH2 0x198 CALLDATASIZE PUSH1 0x4 PUSH2 0xBD5 JUMP JUMPDEST PUSH2 0x224 JUMP JUMPDEST CALLVALUE DUP1 ISZERO PUSH2 0x1A9 JUMPI PUSH1 0x0 DUP1 REVERT JUMPDEST POP PUSH2 0xB8 PUSH2 0x1B8 CALLDATASIZE PUSH1 0x4 PUSH2 0xAD0 JUMP JUMPDEST PUSH2 0x3A7 JUMP JUMPDEST PUSH2 0x1C5 PUSH2 0x3EE JUMP JUMPDEST PUSH1 0x1 SSTORE POP JUMP JUMPDEST PUSH1 0x0 DUP1 PUSH1 0x0 PUSH2 0x1DA DUP8 DUP8 PUSH2 0x425 JUMP JUMPDEST SWAP3 POP SWAP3 POP SWAP3 POP DUP2 DUP4 PUSH32 0x9D70F54D5D379E4B92C497936411380303C56BFB08CAED66B62C94380AD153DB DUP4 PUSH1 0x40 MLOAD PUSH2 0x213 SWAP2 DUP2 MSTORE PUSH1 0x20 ADD SWAP1 JUMP JUMPDEST PUSH1 0x40 MLOAD DUP1 SWAP2 SUB SWAP1 LOG3 POP POP POP POP POP POP POP JUMP JUMPDEST PUSH3 0x1FFFF NOT PUSH1 0x1 PUSH1 0x1 PUSH1 0xA0 SHL SUB DUP11 AND ADD PUSH2 0x269 JUMPI PUSH1 0x40 MLOAD PUSH3 0x461BCD PUSH1 0xE5 SHL DUP2 MSTORE PUSH1 0x4 ADD PUSH2 0xAF SWAP1 PUSH1 0x20 DUP1 DUP3 MSTORE PUSH1 0x4 SWAP1 DUP3 ADD MSTORE PUSH4 0x15139151 PUSH1 0xE2 SHL PUSH1 0x40 DUP3 ADD MSTORE PUSH1 0x60 ADD SWAP1 JUMP JUMPDEST PUSH1 0x0 DUP11 DUP11 DUP11 DUP11 DUP11 DUP11 DUP11 DUP11 PUSH1 0x40 MLOAD PUSH1 0x20 ADD PUSH2 0x28A SWAP9 SWAP8 SWAP7 SWAP6 SWAP5 SWAP4 SWAP3 SWAP2 SWAP1 PUSH2 0xC90 JUMP JUMPDEST PUSH1 0x40 MLOAD PUSH1 0x20 DUP2 DUP4 SUB SUB DUP2 MSTORE SWAP1 PUSH1 0x40 MSTORE DUP1 MLOAD SWAP1 PUSH1 0x20 ADD KECCAK256 SWAP1 POP PUSH1 0x0 DUP1 PUSH2 0x2CA PUSH2 0x2C3 DUP5 PUSH4 0x31DF76A4 PUSH1 0x0 SWAP1 DUP2 MSTORE PUSH1 0x20 SWAP2 SWAP1 SWAP2 MSTORE PUSH1 0x40 SWAP1 KECCAK256 SWAP1 JUMP JUMPDEST DUP7 DUP7 PUSH2 0x689 JUMP JUMPDEST PUSH1 0x0 DUP3 DUP2 MSTORE PUSH1 0x2 PUSH1 0x20 MSTORE PUSH1 0x40 DUP2 KECCAK256 SLOAD SWAP3 SWAP5 POP SWAP1 SWAP3 POP DUP2 SWAP1 SUB PUSH2 0x317 JUMPI PUSH1 0x40 MLOAD PUSH3 0x461BCD PUSH1 0xE5 SHL DUP2 MSTORE PUSH1 0x20 PUSH1 0x4 DUP3 ADD MSTORE PUSH1 0x6 PUSH1 0x24 DUP3 ADD MSTORE PUSH6 0x14D51493D3D5 PUSH1 0xD2 SHL PUSH1 0x44 DUP3 ADD MSTORE PUSH1 0x64 ADD PUSH2 0xAF JUMP JUMPDEST DUP10 DUP2 LT PUSH2 0x34F JUMPI PUSH1 0x40 MLOAD PUSH3 0x461BCD PUSH1 0xE5 SHL DUP2 MSTORE PUSH1 0x4 ADD PUSH2 0xAF SWAP1 PUSH1 0x20 DUP1 DUP3 MSTORE PUSH1 0x4 SWAP1 DUP3 ADD MSTORE PUSH4 0x444D5453 PUSH1 0xE0 SHL PUSH1 0x40 DUP3 ADD MSTORE PUSH1 0x60 ADD SWAP1 JUMP JUMPDEST PUSH1 0x1 DUP3 EQ PUSH2 0x387 JUMPI PUSH1 0x40 MLOAD PUSH3 0x461BCD PUSH1 0xE5 SHL DUP2 MSTORE PUSH1 0x20 PUSH1 0x4 DUP3 ADD MSTORE PUSH1 0x5 PUSH1 0x24 DUP3 ADD MSTORE PUSH5 0x1113559053 PUSH1 0xDA SHL PUSH1 0x44 DUP3 ADD MSTORE PUSH1 0x64 ADD PUSH2 0xAF JUMP JUMPDEST PUSH2 0x397 DUP15 DUP15 DUP15 DUP15 DUP15 DUP15 DUP15 DUP15 PUSH2 0x92B JUMP JUMPDEST POP POP POP POP POP POP POP POP POP POP POP POP POP POP JUMP JUMPDEST CALLER PUSH3 0x20000 EQ PUSH2 0x3E1 JUMPI PUSH1 0x40 MLOAD PUSH3 0x461BCD PUSH1 0xE5 SHL DUP2 MSTORE PUSH1 0x20 PUSH1 0x4 DUP3 ADD MSTORE PUSH1 0x5 PUSH1 0x24 DUP3 ADD MSTORE PUSH5 0x4D53454453 PUSH1 0xD8 SHL PUSH1 0x44 DUP3 ADD MSTORE PUSH1 0x64 ADD PUSH2 0xAF JUMP JUMPDEST PUSH2 0x3EB CALLER DUP3 PUSH2 0xA20 JUMP JUMPDEST POP JUMP JUMPDEST ORIGIN CALLER EQ PUSH2 0x423 JUMPI PUSH1 0x40 MLOAD PUSH3 0x461BCD PUSH1 0xE5 SHL DUP2 MSTORE PUSH1 0x20 PUSH1 0x4 DUP3 ADD MSTORE PUSH1 0x3 PUSH1 0x24 DUP3 ADD MSTORE PUSH3 0x454F41 PUSH1 0xE8 SHL PUSH1 0x44 DUP3 ADD MSTORE PUSH1 0x64 ADD PUSH2 0xAF JUMP JUMPDEST JUMP JUMPDEST PUSH1 0x0 DUP1 PUSH1 0x0 PUSH2 0x63E JUMP JUMPDEST PUSH4 0x8C379A0 PUSH1 0xE0 SHL PUSH1 0x0 MSTORE PUSH1 0x20 PUSH1 0x4 MSTORE DUP1 PUSH1 0x44 MSTORE PUSH1 0x0 JUMPDEST DUP2 ISZERO PUSH2 0x45B JUMPI PUSH1 0x8 SWAP2 SWAP1 SWAP2 SHL SWAP1 PUSH1 0x1 ADD PUSH2 0x446 JUMP JUMPDEST DUP1 PUSH1 0x24 MSTORE PUSH1 0x64 PUSH1 0x0 REVERT JUMPDEST POP POP POP JUMP JUMPDEST POP POP POP POP JUMP JUMPDEST SWAP3 SWAP2 POP POP JUMP JUMPDEST PUSH1 0x0 DUP1 DUP3 CALLDATALOAD PUSH1 0x0 BYTE PUSH1 0xF8 DUP2 LT ISZERO PUSH2 0x498 JUMPI PUSH1 0xBE NOT ADD SWAP4 PUSH1 0x1 SWAP4 SWAP1 SWAP4 ADD SWAP3 SWAP2 POP POP JUMP JUMPDEST PUSH1 0xF7 DUP2 SUB PUSH1 0x4 DUP2 GT ISZERO PUSH2 0x4A7 JUMPI INVALID JUMPDEST PUSH1 0x1 DUP6 DUP2 ADD CALLDATALOAD PUSH1 0x8 DUP4 MUL PUSH2 0x100 SUB SHR DUP3 ADD DUP2 ADD SWAP7 SWAP2 SWAP1 SWAP6 ADD SWAP1 SWAP5 ADD SWAP4 SWAP3 POP POP POP JUMP JUMPDEST PUSH1 0x0 DUP1 PUSH1 0x0 DUP4 CALLDATALOAD PUSH1 0x0 BYTE PUSH1 0x80 DUP2 LT ISZERO PUSH2 0x4ED JUMPI PUSH1 0x1 SWAP4 POP DUP5 SWAP3 POP PUSH1 0x1 SWAP2 POP POP PUSH2 0x564 JUMP JUMPDEST PUSH1 0xB8 DUP2 LT ISZERO PUSH2 0x509 JUMPI PUSH1 0x7F NOT ADD SWAP3 POP POP POP PUSH1 0x1 DUP3 DUP2 ADD SWAP1 PUSH2 0x564 JUMP JUMPDEST PUSH1 0xC0 DUP2 LT ISZERO PUSH2 0x542 JUMPI PUSH1 0xB7 DUP2 SUB PUSH1 0x4 DUP2 GT ISZERO PUSH2 0x521 JUMPI INVALID JUMPDEST PUSH1 0x1 DUP7 DUP2 ADD CALLDATALOAD PUSH1 0x8 DUP4 MUL PUSH2 0x100 SUB SHR SWAP6 POP SWAP1 DUP7 ADD DUP2 ADD SWAP4 POP SWAP2 POP PUSH2 0x564 SWAP1 POP JUMP JUMPDEST PUSH1 0xF8 DUP2 LT ISZERO PUSH2 0x557 JUMPI PUSH1 0x1 DUP6 ADD SWAP3 POP POP PUSH2 0x564 JUMP JUMPDEST PUSH1 0xF6 NOT ADD SWAP3 POP PUSH1 0x1 DUP5 ADD SWAP2 POP JUMPDEST SWAP2 SWAP4 SWAP1 SWAP3 POP JUMP JUMPDEST PUSH1 0x40 MLOAD DUP2 SWAP1 PUSH1 0x0 DUP1 PUSH2 0x57C DUP5 PUSH2 0x476 JUMP JUMPDEST DUP2 DUP7 DUP7 CALLDATACOPY DUP2 DUP6 KECCAK256 SWAP1 SWAP6 SWAP1 SWAP3 POP ADD DUP5 DUP5 JUMPDEST DUP3 DUP8 LT ISZERO PUSH2 0x5C1 JUMPI PUSH2 0x59D DUP8 PUSH2 0x4C9 JUMP JUMPDEST SWAP4 POP DUP1 DUP3 ADD SWAP9 POP DUP4 ISZERO PUSH2 0x5BA JUMPI PUSH1 0x80 DUP3 SWAP1 SHL DUP2 OR DUP4 MSTORE PUSH1 0x20 SWAP1 SWAP3 ADD SWAP2 JUMPDEST POP POP PUSH2 0x58C JUMP JUMPDEST DUP3 DUP8 EQ PUSH2 0x5CA JUMPI INVALID JUMPDEST PUSH1 0x20 DUP7 DUP3 SUB DIV SWAP5 POP POP POP POP SWAP2 SWAP4 POP SWAP2 SWAP4 JUMP JUMPDEST PUSH2 0x100 SWAP2 SWAP1 SWAP2 SUB SHL OR SWAP3 SWAP2 POP POP JUMP JUMPDEST PUSH1 0x0 DUP3 PUSH1 0x20 MUL DUP3 ADD MLOAD PUSH3 0xFFFFFF DUP2 AND DUP2 PUSH1 0x80 SHR SWAP2 POP PUSH1 0x1F DUP3 GT ISZERO PUSH2 0x616 JUMPI ADD PUSH1 0x1F NOT ADD CALLDATALOAD SWAP1 POP PUSH2 0x470 JUMP JUMPDEST CALLDATALOAD PUSH1 0x20 SWAP2 SWAP1 SWAP2 SUB PUSH1 0x8 MUL SHR SWAP1 POP SWAP3 SWAP2 POP POP JUMP JUMPDEST CALLDATALOAD PUSH1 0x20 DUP4 SWAP1 SUB PUSH1 0x8 MUL SHR SWAP3 POP POP JUMPDEST SWAP3 POP SWAP3 SWAP1 POP JUMP JUMPDEST PUSH2 0x647 DUP6 PUSH2 0x56B JUMP JUMPDEST DUP8 DUP10 ADD DUP5 EQ PUSH2 0x662 JUMPI PUSH2 0x662 PUSH6 0x424F554E4453 PUSH1 0xD0 SHL PUSH2 0x42F JUMP JUMPDEST SWAP6 POP PUSH2 0x671 SWAP1 POP PUSH1 0x3 DUP3 PUSH2 0x5EB JUMP JUMPDEST SWAP4 POP PUSH2 0x67E PUSH1 0xB DUP3 PUSH2 0x5EB JUMP JUMPDEST SWAP3 POP POP POP SWAP3 POP SWAP3 POP SWAP3 JUMP JUMPDEST PUSH1 0x0 DUP1 PUSH2 0x8F6 JUMP JUMPDEST DUP1 PUSH1 0x80 DUP2 LT PUSH2 0x470 JUMPI PUSH1 0x20 DUP4 GT PUSH2 0x470 JUMPI PUSH1 0xFF PUSH1 0x7 NOT PUSH1 0x8 DUP6 MUL ADD SHL NOT AND SWAP3 SWAP2 POP POP JUMP JUMPDEST PUSH1 0x40 MLOAD DUP2 SWAP1 PUSH1 0x0 DUP1 PUSH2 0x6C6 DUP5 PUSH2 0x476 JUMP JUMPDEST DUP2 DUP7 DUP7 CALLDATACOPY DUP2 DUP6 KECCAK256 SWAP1 SWAP6 SWAP1 SWAP3 POP ADD DUP5 DUP5 JUMPDEST DUP3 DUP8 LT ISZERO PUSH2 0x5C1 JUMPI PUSH2 0x6E7 DUP8 PUSH2 0x4C9 JUMP JUMPDEST SWAP4 POP DUP1 DUP3 ADD SWAP9 POP DUP4 ISZERO PUSH2 0x704 JUMPI PUSH1 0x80 DUP3 SWAP1 SHL DUP2 OR DUP4 MSTORE PUSH1 0x20 SWAP1 SWAP3 ADD SWAP2 JUMPDEST POP POP PUSH2 0x6D6 JUMP JUMPDEST PUSH1 0x0 NOT PUSH1 0x4 DUP4 MUL SWAP1 DUP2 SHR DUP3 AND SWAP1 PUSH1 0x20 PUSH1 0x1 DUP6 AND ISZERO PUSH2 0x5DC JUMPI POP PUSH1 0x3 PUSH2 0x100 SWAP2 SWAP1 SWAP2 SUB SHL OR SWAP3 SWAP2 POP POP JUMP JUMPDEST PUSH1 0x0 DUP1 DUP4 PUSH1 0x20 MUL DUP4 ADD MLOAD PUSH3 0xFFFFFF DUP2 AND DUP2 PUSH1 0x80 SHR SWAP3 POP PUSH1 0x1F DUP4 GT ISZERO PUSH2 0x629 JUMPI DUP3 ADD PUSH1 0x1F NOT ADD CALLDATALOAD SWAP3 POP PUSH2 0x637 SWAP1 POP JUMP JUMPDEST PUSH1 0x1 DUP3 ADD PUSH1 0x0 DUP1 DUP1 DUP1 DUP7 CALLDATALOAD DUP2 BYTE DUP2 DUP1 JUMPDEST DUP3 DUP2 LT ISZERO PUSH2 0x846 JUMPI PUSH1 0x0 DUP1 PUSH1 0x0 PUSH2 0x78A DUP12 PUSH2 0x6B5 JUMP JUMPDEST SWAP4 POP SWAP4 POP SWAP4 POP SWAP11 POP DUP4 PUSH1 0x0 DUP2 EQ PUSH2 0x7B3 JUMPI PUSH2 0x7AE PUSH5 0xA89082A69 PUSH1 0xDB SHL DUP12 DUP5 PUSH2 0x8E5 JUMP JUMPDEST PUSH2 0x7B7 JUMP JUMPDEST DUP2 SWAP11 POP JUMPDEST POP POP DUP1 PUSH1 0x2 DUP2 EQ PUSH2 0x7DF JUMPI PUSH1 0x11 DUP2 EQ PUSH2 0x818 JUMPI PUSH2 0x7DA PUSH4 0x4E4F4445 PUSH1 0xE0 SHL PUSH2 0x42F JUMP JUMPDEST PUSH2 0x83B JUMP JUMPDEST PUSH1 0x0 DUP1 PUSH2 0x7ED PUSH1 0x1 DUP7 PUSH2 0x735 JUMP JUMPDEST POP SWAP11 POP POP POP PUSH1 0x0 NOT DUP7 ADD DUP5 EQ DUP1 ISZERO PUSH2 0x807 JUMPI DUP4 SWAP8 POP PUSH2 0x812 JUMP JUMPDEST DUP4 MLOAD PUSH1 0x80 SHR SWAP6 SWAP1 SWAP6 ADD SWAP5 JUMPDEST POP PUSH2 0x83B JUMP JUMPDEST PUSH1 0x4 DUP6 MUL PUSH1 0xFC SUB DUP13 SWAP1 SHR PUSH1 0xF AND PUSH2 0x82F DUP2 DUP6 PUSH2 0x735 JUMP JUMPDEST POP SWAP10 POP POP PUSH1 0x1 SWAP5 SWAP1 SWAP5 ADD SWAP4 JUMPDEST POP POP POP PUSH1 0x1 ADD PUSH2 0x774 JUMP JUMPDEST POP PUSH2 0x851 DUP2 DUP10 PUSH2 0x70B JUMP JUMPDEST SWAP4 POP POP POP SWAP3 SWAP6 POP SWAP3 SWAP6 SWAP1 SWAP4 POP JUMP JUMPDEST DUP1 PUSH1 0x0 DUP1 DUP1 DUP1 DUP1 DUP1 DUP1 PUSH2 0x878 DUP11 PUSH1 0x0 SWAP1 DUP2 MSTORE PUSH1 0x20 SWAP1 KECCAK256 SWAP1 JUMP JUMPDEST PUSH2 0x882 DUP10 DUP3 PUSH2 0x764 JUMP JUMPDEST SWAP6 POP SWAP8 POP SWAP6 POP SWAP9 POP SWAP9 POP POP DUP1 PUSH1 0x0 DUP2 EQ PUSH2 0x8D8 JUMPI PUSH2 0x8A1 PUSH1 0x0 DUP4 PUSH2 0x5EB JUMP JUMPDEST SWAP6 POP PUSH2 0x8AE PUSH1 0x1 DUP4 PUSH2 0x735 JUMP JUMPDEST SWAP4 POP SWAP7 POP DUP6 DUP6 EQ SWAP4 POP DUP4 PUSH1 0x0 DUP2 EQ PUSH2 0x8D1 JUMPI PUSH2 0x8CA DUP5 DUP10 PUSH2 0x691 JUMP JUMPDEST SWAP8 POP PUSH2 0x8D6 JUMP JUMPDEST PUSH1 0x0 SWAP8 POP JUMPDEST POP JUMPDEST POP POP POP POP POP POP SWAP3 POP SWAP3 POP SWAP3 JUMP JUMPDEST DUP1 DUP3 EQ DUP1 PUSH2 0x46A JUMPI PUSH2 0x46A DUP5 PUSH2 0x42F JUMP JUMPDEST DUP4 PUSH2 0x901 DUP7 DUP3 PUSH2 0x85F JUMP JUMPDEST SWAP4 POP SWAP4 POP SWAP1 POP DUP4 DUP6 ADD DUP2 EQ PUSH2 0x922 JUMPI PUSH2 0x922 PUSH6 0x424F554E4453 PUSH1 0xD0 SHL PUSH2 0x42F JUMP JUMPDEST POP SWAP4 POP SWAP4 SWAP2 POP POP JUMP JUMPDEST DUP4 TIMESTAMP LT PUSH2 0x960 JUMPI PUSH1 0x40 MLOAD PUSH3 0x461BCD PUSH1 0xE5 SHL DUP2 MSTORE PUSH1 0x20 PUSH1 0x4 DUP3 ADD MSTORE PUSH1 0x3 PUSH1 0x24 DUP3 ADD MSTORE PUSH3 0x111351 PUSH1 0xEA SHL PUSH1 0x44 DUP3 ADD MSTORE PUSH1 0x64 ADD PUSH2 0xAF JUMP JUMPDEST PUSH1 0x0 DUP9 DUP9 DUP9 DUP9 DUP9 DUP9 DUP9 DUP9 PUSH1 0x40 MLOAD PUSH1 0x20 ADD PUSH2 0x981 SWAP9 SWAP8 SWAP7 SWAP6 SWAP5 SWAP4 SWAP3 SWAP2 SWAP1 PUSH2 0xC90 JUMP JUMPDEST PUSH1 0x40 MLOAD PUSH1 0x20 DUP2 DUP4 SUB SUB DUP2 MSTORE SWAP1 PUSH1 0x40 MSTORE DUP1 MLOAD SWAP1 PUSH1 0x20 ADD KECCAK256 SWAP1 POP DUP6 PUSH1 0x0 EQ PUSH2 0x9AB JUMPI PUSH2 0x9AB ORIGIN DUP8 PUSH2 0xA20 JUMP JUMPDEST PUSH1 0x0 DUP1 SLOAD PUSH1 0x1 PUSH1 0x1 PUSH1 0xA0 SHL SUB NOT AND PUSH1 0x1 PUSH1 0x1 PUSH1 0xA0 SHL SUB DUP12 AND OR SWAP1 SSTORE PUSH2 0x9D2 DUP9 DUP9 DUP6 DUP6 PUSH2 0xAAC JUMP JUMPDEST PUSH1 0x0 DUP1 SLOAD PUSH1 0x1 PUSH1 0x1 PUSH1 0xA0 SHL SUB NOT AND SWAP1 SSTORE PUSH1 0x40 MLOAD DUP2 DUP2 MSTORE PUSH32 0xFA39010B12E169F2D7E9A76E381216416DBF5EB59DB117AE979592EE9F323885 SWAP1 PUSH1 0x20 ADD PUSH1 0x40 MLOAD DUP1 SWAP2 SUB SWAP1 LOG1 POP POP POP POP POP POP POP POP POP JUMP JUMPDEST PUSH1 0x0 DUP3 PUSH1 0x1 PUSH1 0x1 PUSH1 0xA0 SHL SUB AND DUP3 PUSH1 0x40 MLOAD PUSH1 0x0 PUSH1 0x40 MLOAD DUP1 DUP4 SUB DUP2 DUP6 DUP8 GAS CALL SWAP3 POP POP POP RETURNDATASIZE DUP1 PUSH1 0x0 DUP2 EQ PUSH2 0xA6D JUMPI PUSH1 0x40 MLOAD SWAP2 POP PUSH1 0x1F NOT PUSH1 0x3F RETURNDATASIZE ADD AND DUP3 ADD PUSH1 0x40 MSTORE RETURNDATASIZE DUP3 MSTORE RETURNDATASIZE PUSH1 0x0 PUSH1 0x20 DUP5 ADD RETURNDATACOPY PUSH2 0xA72 JUMP JUMPDEST PUSH1 0x60 SWAP2 POP JUMPDEST POP POP SWAP1 POP DUP1 PUSH2 0x465 JUMPI PUSH1 0x40 MLOAD PUSH3 0x461BCD PUSH1 0xE5 SHL DUP2 MSTORE PUSH1 0x4 ADD PUSH2 0xAF SWAP1 PUSH1 0x20 DUP1 DUP3 MSTORE PUSH1 0x4 SWAP1 DUP3 ADD MSTORE PUSH4 0xA88AA89 PUSH1 0xE3 SHL PUSH1 0x40 DUP3 ADD MSTORE PUSH1 0x60 ADD SWAP1 JUMP JUMPDEST PUSH1 0x80 DUP2 DUP4 DUP3 CALLDATACOPY PUSH1 0x0 DUP1 DUP4 DUP4 DUP8 DUP10 GAS CALL PUSH2 0xAC9 JUMPI RETURNDATASIZE PUSH1 0x0 DUP1 RETURNDATACOPY RETURNDATASIZE PUSH1 0x0 REVERT JUMPDEST POP POP POP POP POP JUMP JUMPDEST PUSH1 0x0 PUSH1 0x20 DUP3 DUP5 SUB SLT ISZERO PUSH2 0xAE2 JUMPI PUSH1 0x0 DUP1 REVERT JUMPDEST POP CALLDATALOAD SWAP2 SWAP1 POP JUMP JUMPDEST PUSH1 0x0 DUP1 PUSH1 0x40 DUP4 DUP6 SUB SLT ISZERO PUSH2 0xAFC JUMPI PUSH1 0x0 DUP1 REVERT JUMPDEST POP POP DUP1 CALLDATALOAD SWAP3 PUSH1 0x20 SWAP1 SWAP2 ADD CALLDATALOAD SWAP2 POP JUMP JUMPDEST PUSH1 0x0 DUP1 DUP4 PUSH1 0x1F DUP5 ADD SLT PUSH2 0xB1D JUMPI PUSH1 0x0 DUP1 REVERT JUMPDEST POP DUP2 CALLDATALOAD PUSH8 0xFFFFFFFFFFFFFFFF DUP2 GT ISZERO PUSH2 0xB35 JUMPI PUSH1 0x0 DUP1 REVERT JUMPDEST PUSH1 0x20 DUP4 ADD SWAP2 POP DUP4 PUSH1 0x20 DUP3 DUP6 ADD ADD GT ISZERO PUSH2 0x637 JUMPI PUSH1 0x0 DUP1 REVERT JUMPDEST PUSH1 0x0 DUP1 PUSH1 0x0 DUP1 PUSH1 0x40 DUP6 DUP8 SUB SLT ISZERO PUSH2 0xB63 JUMPI PUSH1 0x0 DUP1 REVERT JUMPDEST DUP5 CALLDATALOAD PUSH8 0xFFFFFFFFFFFFFFFF DUP1 DUP3 GT ISZERO PUSH2 0xB7B JUMPI PUSH1 0x0 DUP1 REVERT JUMPDEST PUSH2 0xB87 DUP9 DUP4 DUP10 ADD PUSH2 0xB0B JUMP JUMPDEST SWAP1 SWAP7 POP SWAP5 POP PUSH1 0x20 DUP8 ADD CALLDATALOAD SWAP2 POP DUP1 DUP3 GT ISZERO PUSH2 0xBA0 JUMPI PUSH1 0x0 DUP1 REVERT JUMPDEST POP PUSH2 0xBAD DUP8 DUP3 DUP9 ADD PUSH2 0xB0B JUMP JUMPDEST SWAP6 SWAP9 SWAP5 SWAP8 POP SWAP6 POP POP POP POP JUMP JUMPDEST DUP1 CALLDATALOAD PUSH1 0x1 PUSH1 0x1 PUSH1 0xA0 SHL SUB DUP2 AND DUP2 EQ PUSH2 0xBD0 JUMPI PUSH1 0x0 DUP1 REVERT JUMPDEST SWAP2 SWAP1 POP JUMP JUMPDEST PUSH1 0x0 DUP1 PUSH1 0x0 DUP1 PUSH1 0x0 DUP1 PUSH1 0x0 DUP1 PUSH1 0x0 DUP1 PUSH2 0x100 DUP12 DUP14 SUB SLT ISZERO PUSH2 0xBF5 JUMPI PUSH1 0x0 DUP1 REVERT JUMPDEST PUSH2 0xBFE DUP12 PUSH2 0xBB9 JUMP JUMPDEST SWAP10 POP PUSH2 0xC0C PUSH1 0x20 DUP13 ADD PUSH2 0xBB9 JUMP JUMPDEST SWAP9 POP PUSH1 0x40 DUP12 ADD CALLDATALOAD SWAP8 POP PUSH1 0x60 DUP12 ADD CALLDATALOAD SWAP7 POP PUSH1 0x80 DUP12 ADD CALLDATALOAD SWAP6 POP PUSH1 0xA0 DUP12 ADD CALLDATALOAD SWAP5 POP PUSH1 0xC0 DUP12 ADD CALLDATALOAD PUSH8 0xFFFFFFFFFFFFFFFF DUP1 DUP3 GT ISZERO PUSH2 0xC45 JUMPI PUSH1 0x0 DUP1 REVERT JUMPDEST PUSH2 0xC51 DUP15 DUP4 DUP16 ADD PUSH2 0xB0B JUMP JUMPDEST SWAP1 SWAP7 POP SWAP5 POP PUSH1 0xE0 DUP14 ADD CALLDATALOAD SWAP2 POP DUP1 DUP3 GT ISZERO PUSH2 0xC6A JUMPI PUSH1 0x0 DUP1 REVERT JUMPDEST POP PUSH2 0xC77 DUP14 DUP3 DUP15 ADD PUSH2 0xB0B JUMP JUMPDEST SWAP2 POP DUP1 SWAP4 POP POP DUP1 SWAP2 POP POP SWAP3 SWAP6 SWAP9 SWAP12 SWAP2 SWAP5 SWAP8 SWAP11 POP SWAP3 SWAP6 SWAP9 POP JUMP JUMPDEST PUSH1 0x0 PUSH1 0x1 DUP1 PUSH1 0xA0 SHL SUB DUP1 DUP12 AND DUP4 MSTORE DUP1 DUP11 AND PUSH1 0x20 DUP5 ADD MSTORE POP DUP8 PUSH1 0x40 DUP4 ADD MSTORE DUP7 PUSH1 0x60 DUP4 ADD MSTORE DUP6 PUSH1 0x80 DUP4 ADD MSTORE DUP5 PUSH1 0xA0 DUP4 ADD MSTORE PUSH1 0xE0 PUSH1 0xC0 DUP4 ADD MSTORE DUP3 PUSH1 0xE0 DUP4 ADD MSTORE PUSH2 0x100 DUP4 DUP6 DUP3 DUP6 ADD CALLDATACOPY PUSH1 0x0 DUP4 DUP6 ADD DUP3 ADD MSTORE PUSH1 0x1F SWAP1 SWAP4 ADD PUSH1 0x1F NOT AND SWAP1 SWAP2 ADD SWAP1 SWAP2 ADD SWAP9 SWAP8 POP POP POP POP POP POP POP POP JUMP INVALID LOG2 PUSH5 0x6970667358 0x22 SLT KECCAK256 0xC1 LOG2 0x28 PUSH6 0xEC596B17A93B PUSH21 0x85523D44330706ECA91D44348BCE3B92C08448011D PUSH5 0x736F6C6343 STOP ADDMOD SGT STOP CALLER "
		},
		"gasEstimates": {
			"creation": {
				"codeDepositCost": "674800",
				"executionCost": "708",
				"totalCost": "675508"
			},
			"external": {
				"deliverMessageWithProof(address,address,uint256,uint256,uint256,uint256,bytes,bytes)": "infinite",
				"getTimestampForStorageRoot(bytes32)": "2428",
				"importForeignBlock(uint256,bytes32)": "22439",
				"importForeignBridgeState(bytes,bytes)": "infinite",
				"lastKnownL1BlockHash()": "2306",
				"messageOrigin()": "2324",
				"requestETH(uint256)": "infinite"
			}
		},
		"methodIdentifiers": {
			"deliverMessageWithProof(address,address,uint256,uint256,uint256,uint256,bytes,bytes)": "8dfbfead",
			"getTimestampForStorageRoot(bytes32)": "312faf74",
			"importForeignBlock(uint256,bytes32)": "49a435e2",
			"importForeignBridgeState(bytes,bytes)": "6e94aac5",
			"lastKnownL1BlockHash()": "738301ce",
			"messageOrigin()": "3b1623fe",
			"requestETH(uint256)": "fcd5e7b3"
		}
	},
	"abi": [
		{
			"anonymous": false,
			"inputs": [
				{
					"indexed": false,
					"internalType": "bytes32",
					"name": "blockHash",
					"type": "bytes32"
				}
			],
			"name": "BlockFinalized",
			"type": "event"
		},
		{
			"anonymous": false,
			"inputs": [],
			"name": "BlockSubmitted",
			"type": "event"
		},
		{
			"anonymous": false,
			"inputs": [
				{
					"indexed": true,
					"internalType": "bytes32",
					"name": "blockHash",
					"type": "bytes32"
				},
				{
					"indexed": true,
					"internalType": "bytes32",
					"name": "stateRoot",
					"type": "bytes32"
				},
				{
					"indexed": false,
					"internalType": "uint256",
					"name": "timestamp",
					"type": "uint256"
				}
			],
			"name": "ForeignBridgeStateImported",
			"type": "event"
		},
		{
			"anonymous": false,
			"inputs": [
				{
					"indexed": false,
					"internalType": "bytes32",
					"name": "id",
					"type": "bytes32"
				}
			],
			"name": "MessageDelivered",
			"type": "event"
		},
		{
			"anonymous": false,
			"inputs": [
				{
					"indexed": false,
					"internalType": "address",
					"name": "from",
					"type": "address"
				},
				{
					"indexed": false,
					"internalType": "address",
					"name": "to",
					"type": "address"
				},
				{
					"indexed": false,
					"internalType": "uint256",
					"name": "value",
					"type": "uint256"
				},
				{
					"indexed": false,
					"internalType": "uint256",
					"name": "fee",
					"type": "uint256"
				},
				{
					"indexed": false,
					"internalType": "uint256",
					"name": "deadline",
					"type": "uint256"
				},
				{
					"indexed": false,
					"internalType": "uint256",
					"name": "nonce",
					"type": "uint256"
				},
				{
					"indexed": false,
					"internalType": "bytes",
					"name": "data",
					"type": "bytes"
				}
			],
			"name": "MessageDispatched",
			"type": "event"
		},
		{
			"anonymous": false,
			"inputs": [
				{
					"indexed": false,
					"internalType": "bytes32",
					"name": "id",
					"type": "bytes32"
				}
			],
			"name": "MessageDropped",
			"type": "event"
		},
		{
			"inputs": [
				{
					"internalType": "address",
					"name": "from",
					"type": "address"
				},
				{
					"internalType": "address",
					"name": "to",
					"type": "address"
				},
				{
					"internalType": "uint256",
					"name": "value",
					"type": "uint256"
				},
				{
					"internalType": "uint256",
					"name": "fee",
					"type": "uint256"
				},
				{
					"internalType": "uint256",
					"name": "deadline",
					"type": "uint256"
				},
				{
					"internalType": "uint256",
					"name": "nonce",
					"type": "uint256"
				},
				{
					"internalType": "bytes",
					"name": "data",
					"type": "bytes"
				},
				{
					"internalType": "bytes",
					"name": "storageProof",
					"type": "bytes"
				}
			],
			"name": "deliverMessageWithProof",
			"outputs": [],
			"stateMutability": "nonpayable",
			"type": "function"
		},
		{
			"inputs": [
				{
					"internalType": "bytes32",
					"name": "val",
					"type": "bytes32"
				}
			],
			"name": "getTimestampForStorageRoot",
			"outputs": [
				{
					"internalType": "uint256",
					"name": "",
					"type": "uint256"
				}
			],
			"stateMutability": "view",
			"type": "function"
		},
		{
			"inputs": [
				{
					"internalType": "uint256",
					"name": "",
					"type": "uint256"
				},
				{
					"internalType": "bytes32",
					"name": "blockHash",
					"type": "bytes32"
				}
			],
			"name": "importForeignBlock",
			"outputs": [],
			"stateMutability": "nonpayable",
			"type": "function"
		},
		{
			"inputs": [
				{
					"internalType": "bytes",
					"name": "blockHeader",
					"type": "bytes"
				},
				{
					"internalType": "bytes",
					"name": "accountProof",
					"type": "bytes"
				}
			],
			"name": "importForeignBridgeState",
			"outputs": [],
			"stateMutability": "nonpayable",
			"type": "function"
		},
		{
			"inputs": [],
			"name": "lastKnownL1BlockHash",
			"outputs": [
				{
					"internalType": "bytes32",
					"name": "",
					"type": "bytes32"
				}
			],
			"stateMutability": "view",
			"type": "function"
		},
		{
			"inputs": [],
			"name": "messageOrigin",
			"outputs": [
				{
					"internalType": "address",
					"name": "",
					"type": "address"
				}
			],
			"stateMutability": "view",
			"type": "function"
		},
		{
			"inputs": [
				{
					"internalType": "uint256",
					"name": "amount",
					"type": "uint256"
				}
			],
			"name": "requestETH",
			"outputs": [],
			"stateMutability": "nonpayable",
			"type": "function"
		},
		{
			"stateMutability": "payable",
			"type": "receive"
		}
	]
}