{
	"data": {
		"bytecode": {
			"linkReferences": {},
			"object": "608060405234801561001057600080fd5b50611f11806100206000396000f3fe6080604052600436106100595760003560e01c8063312faf74146100d65780633b1623fe1461011357806349a435e21461013e5780636e94aac5146101675780638dfbfead14610190578063fcd5e7b3146101b9576100d1565b366100d1576202000073ffffffffffffffffffffffffffffffffffffffff163373ffffffffffffffffffffffffffffffffffffffff16146100cf576040517f08c379a00000000000000000000000000000000000000000000000000000000081526004016100c69061160a565b60405180910390fd5b005b600080fd5b3480156100e257600080fd5b506100fd60048036038101906100f8919061166a565b6101e2565b60405161010a91906116b0565b60405180910390f35b34801561011f57600080fd5b506101286101ff565b604051610135919061170c565b60405180910390f35b34801561014a57600080fd5b5061016560048036038101906101609190611753565b610228565b005b34801561017357600080fd5b5061018e600480360381019061018991906117f8565b61023b565b005b34801561019c57600080fd5b506101b760048036038101906101b291906118a5565b610358565b005b3480156101c557600080fd5b506101e060048036038101906101db919061199c565b61051f565b005b600060026000838152602001908152602001600020549050919050565b60008060009054906101000a900473ffffffffffffffffffffffffffffffffffffffff16905090565b61023061059d565b806001819055505050565b600080600061024a878761060d565b9250925092506001548314610294576040517f08c379a000000000000000000000000000000000000000000000000000000000815260040161028b90611a15565b60405180910390fd5b6000806102b673936a70c0b28532aa22240dce21f89a8399d6ac6088886108b9565b915091508382146102fc576040517f08c379a00000000000000000000000000000000000000000000000000000000081526004016102f390611a81565b60405180910390fd5b82600260008381526020019081526020016000208190555083857f9d70f54d5d379e4b92c497936411380303c56bfb08caed66b62c94380ad153db8560405161034591906116b0565b60405180910390a3505050505050505050565b6202000073ffffffffffffffffffffffffffffffffffffffff168973ffffffffffffffffffffffffffffffffffffffff16036103c9576040517f08c379a00000000000000000000000000000000000000000000000000000000081526004016103c090611aed565b60405180910390fd5b60008a8a8a8a8a8a8a8a6040516020016103ea989796959493929190611b6b565b60405160208183030381529060405280519060200120905060008061041861041184610e46565b8686610e60565b9150915060006002600084815260200190815260200160002054905060008103610477576040517f08c379a000000000000000000000000000000000000000000000000000000000815260040161046e90611c2f565b60405180910390fd5b8981106104b9576040517f08c379a00000000000000000000000000000000000000000000000000000000081526004016104b090611c9b565b60405180910390fd5b600160001b82146104ff576040517f08c379a00000000000000000000000000000000000000000000000000000000081526004016104f690611d07565b60405180910390fd5b61050f8e8e8e8e8e8e8e8e61137b565b5050505050505050505050505050565b6202000073ffffffffffffffffffffffffffffffffffffffff163373ffffffffffffffffffffffffffffffffffffffff1614610590576040517f08c379a00000000000000000000000000000000000000000000000000000000081526004016105879061160a565b60405180910390fd5b61059a33826114d8565b50565b3373ffffffffffffffffffffffffffffffffffffffff163273ffffffffffffffffffffffffffffffffffffffff161461060b576040517f08c379a000000000000000000000000000000000000000000000000000000000815260040161060290611d73565b60405180910390fd5b565b6000806000610823565b6308c379a060e01b60005260206004528060445260005b8115610645578160081b915060018101905061062e565b8060245260646000fd5b600080823560001a60f88110156106725760bf81039250600184019150506106ab565b60f78103600481111561068157fe5b6001850192508235600882026101000381811c915082820195506001860195508285019450505050505b915091565b6000806000833560001a60808110156106d457600193508492506001915050610758565b60b88110156106f3576080810393506001850192506001915050610758565b60c08110156107355760b78103600481111561070b57fe5b6001860193508335600882026101000381811c915081965082860195506001945050505050610758565b60f881101561074a5760018501925050610758565b60f781039350600185019250505b9193909250565b60008060008084935060405192506107768461064f565b818686378185209250848287018297505b808810156107bc57610798886106b0565b8183019a5080156107b457818360801b17808652602086019550505b505050610787565b8088146107c557fe5b6020878303049550505050509193509193565b60008260200282015162ffffff81168160801c601f8111156108085760208103820191508135935050505061081d565b600881602003028235945084811c9450505050505b92915050565b61082c8561075f565b878901841461085f5761085e7f424f554e44530000000000000000000000000000000000000000000000000000610617565b5b60108214610891576108907f4954454d53000000000000000000000000000000000000000000000000000000610617565b5b80965061089f6003846107d8565b95506108ac600b846107d8565b9450505050509250925092565b600080610df9565b600080823560001a60f88110156108e45760bf810392506001840191505061091d565b60f7810360048111156108f357fe5b6001850192508235600882026101000381811c915082820195506001860195508285019450505050505b915091565b6000806000833560001a6080811015610946576001935084925060019150506109ca565b60b88110156109655760808103935060018501925060019150506109ca565b60c08110156109a75760b78103600481111561097d57fe5b6001860193508335600882026101000381811c9150819650828601955060019450505050506109ca565b60f88110156109bc57600185019250506109ca565b60f781039350600185019250505b9193909250565b60008060008084935060405192506109e8846108c1565b818686378185209250848287018297505b80881015610a2e57610a0a88610922565b8183019a508015610a2657818360801b17808652602086019550505b5050506109f9565b808814610a3757fe5b6020878303049550505050509193509193565b6000816000526014600c209050919050565b60008190506004830260001980821c905080831692505060206002850615610a8357600390505b8161010003915080821b90508281179250505092915050565b60008260200282015162ffffff81168160801c601f811115610acc57602081038201915081359350505050610ae1565b600881602003028235945084811c9450505050505b92915050565b6000808360200283015162ffffff81168160801c9250601f831115610b19576020830381019050803593505050610b2d565b600883602003028135945084811c94505050505b9250929050565b6000808360200283015162ffffff811692508060801c9150509250929050565b6000806000806000869450843560001a6001860195506000805b82811015610c7c576000806000610b848b6109d1565b9350935093509a508360008114610bc557610bc07f54484153480000000000000000000000000000000000000000000000000000008b84610dde565b610bc9565b819a505b508160028114610c095760118114610c4857610c047f4e4f444500000000000000000000000000000000000000000000000000000000610d8e565b610c6d565b600080610c17600187610ae7565b91509150819b5060018903871460008114610c3457869a50610c40565b865160801c808a019950505b505050610c6d565b6004860260fc03600f8e821c16610c5f8187610ae7565b819d5060018a019950505050505b50505050600181019050610b6e565b50610c878189610a5c565b935050509295509295909350565b6000806000839250600080600080600080610caf8b610a4a565b610cb98a82610b54565b95509850945099509950610ced7f41434c454146000000000000000000000000000000000000000000000000000083610dc6565b610cf8600083610a9c565b9650610d257f4143524f4f5400000000000000000000000000000000000000000000000000008888610dde565b610d30600183610b34565b6000610d3b836109d1565b9a50925095509250610d707f41434c4541464e0000000000000000000000000000000000000000000000000060048314610dc6565b610d7b600286610a9c565b9a50505050505050505050509250925092565b6308c379a060e01b60005260206004528060445260005b8115610dbc578160081b9150600181019050610da5565b8060245260646000fd5b8060008103610dd957610dd883610d8e565b5b505050565b81811460008103610df357610df284610d8e565b5b50505050565b83610e048682610c95565b9350935090508385018114610e3d57610e3c7f424f554e44530000000000000000000000000000000000000000000000000000610d8e565b5b50935093915050565b60006331df76a46000528160205260406000209050919050565b60008061132e565b600081905060808210610e975760208311610e97576008830260088103905060ff811b80199050808316925050505b92915050565b600080823560001a60f8811015610ec05760bf8103925060018401915050610ef9565b60f781036004811115610ecf57fe5b6001850192508235600882026101000381811c915082820195506001860195508285019450505050505b915091565b6000806000833560001a6080811015610f2257600193508492506001915050610fa6565b60b8811015610f41576080810393506001850192506001915050610fa6565b60c0811015610f835760b781036004811115610f5957fe5b6001860193508335600882026101000381811c915081965082860195506001945050505050610fa6565b60f8811015610f985760018501925050610fa6565b60f781039350600185019250505b9193909250565b6000806000808493506040519250610fc484610e9d565b818686378185209250848287018297505b8088101561100a57610fe688610efe565b8183019a50801561100257818360801b17808652602086019550505b505050610fd5565b80881461101357fe5b6020878303049550505050509193509193565b60008160005260206000209050919050565b60008190506004830260001980821c90508083169250506020600285061561105f57600390505b8161010003915080821b90508281179250505092915050565b60008260200282015162ffffff81168160801c601f8111156110a8576020810382019150813593505050506110bd565b600881602003028235945084811c9450505050505b92915050565b6000808360200283015162ffffff81168160801c9250601f8311156110f5576020830381019050803593505050611109565b600883602003028135945084811c94505050505b9250929050565b6000806000806000869450843560001a6001860195506000805b828110156112385760008060006111408b610fad565b9350935093509a5083600081146111815761117c7f54484153480000000000000000000000000000000000000000000000000000008b84611313565b611185565b819a505b5081600281146111c55760118114611204576111c07f4e4f4445000000000000000000000000000000000000000000000000000000006112db565b611229565b6000806111d36001876110c3565b91509150819b50600189038714600081146111f057869a506111fc565b865160801c808a019950505b505050611229565b6004860260fc03600f8e821c1661121b81876110c3565b819d5060018a019950505050505b5050505060018101905061112a565b506112438189611038565b935050509295509295909350565b6000806000839250600080600080600061126a8a611026565b6112748982611110565b9550975095509850985081600081146112cc57611292600084611078565b965061129f6001846110c3565b9450975086861480600081146112c0576112b9868b610e68565b99506112c5565b600099505b50506112cd565b5b505050505050509250925092565b6308c379a060e01b60005260206004528060445260005b8115611309578160081b91506001810190506112f2565b8060245260646000fd5b8181146000810361132857611327846112db565b5b50505050565b836113398682611251565b9350935090508385018114611372576113717f424f554e445300000000000000000000000000000000000000000000000000006112db565b5b50935093915050565b8342106113bd576040517f08c379a00000000000000000000000000000000000000000000000000000000081526004016113b490611ddf565b60405180910390fd5b600088888888888888886040516020016113de989796959493929190611b6b565b604051602081830303815290604052805190602001209050600086146114095761140832876114d8565b5b886000806101000a81548173ffffffffffffffffffffffffffffffffffffffff021916908373ffffffffffffffffffffffffffffffffffffffff16021790555061145588888585611589565b60008060006101000a81548173ffffffffffffffffffffffffffffffffffffffff021916908373ffffffffffffffffffffffffffffffffffffffff1602179055507ffa39010b12e169f2d7e9a76e381216416dbf5eb59db117ae979592ee9f323885816040516114c59190611e0e565b60405180910390a1505050505050505050565b60008273ffffffffffffffffffffffffffffffffffffffff16826040516114fe90611e5a565b60006040518083038185875af1925050503d806000811461153b576040519150601f19603f3d011682016040523d82523d6000602084013e611540565b606091505b5050905080611584576040517f08c379a000000000000000000000000000000000000000000000000000000000815260040161157b90611ebb565b60405180910390fd5b505050565b608081838237600080838387895af16115a6573d6000803e3d6000fd5b5050505050565b600082825260208201905092915050565b7f4d53454453000000000000000000000000000000000000000000000000000000600082015250565b60006115f46005836115ad565b91506115ff826115be565b602082019050919050565b60006020820190508181036000830152611623816115e7565b9050919050565b600080fd5b600080fd5b6000819050919050565b61164781611634565b811461165257600080fd5b50565b6000813590506116648161163e565b92915050565b6000602082840312156116805761167f61162a565b5b600061168e84828501611655565b91505092915050565b6000819050919050565b6116aa81611697565b82525050565b60006020820190506116c560008301846116a1565b92915050565b600073ffffffffffffffffffffffffffffffffffffffff82169050919050565b60006116f6826116cb565b9050919050565b611706816116eb565b82525050565b600060208201905061172160008301846116fd565b92915050565b61173081611697565b811461173b57600080fd5b50565b60008135905061174d81611727565b92915050565b6000806040838503121561176a5761176961162a565b5b60006117788582860161173e565b925050602061178985828601611655565b9150509250929050565b600080fd5b600080fd5b600080fd5b60008083601f8401126117b8576117b7611793565b5b8235905067ffffffffffffffff8111156117d5576117d4611798565b5b6020830191508360018202830111156117f1576117f061179d565b5b9250929050565b600080600080604085870312156118125761181161162a565b5b600085013567ffffffffffffffff8111156118305761182f61162f565b5b61183c878288016117a2565b9450945050602085013567ffffffffffffffff81111561185f5761185e61162f565b5b61186b878288016117a2565b925092505092959194509250565b611882816116eb565b811461188d57600080fd5b50565b60008135905061189f81611879565b92915050565b6000806000806000806000806000806101008b8d0312156118c9576118c861162a565b5b60006118d78d828e01611890565b9a505060206118e88d828e01611890565b99505060406118f98d828e0161173e565b985050606061190a8d828e0161173e565b975050608061191b8d828e0161173e565b96505060a061192c8d828e0161173e565b95505060c08b013567ffffffffffffffff81111561194d5761194c61162f565b5b6119598d828e016117a2565b945094505060e08b013567ffffffffffffffff81111561197c5761197b61162f565b5b6119888d828e016117a2565b92509250509295989b9194979a5092959850565b6000602082840312156119b2576119b161162a565b5b60006119c08482850161173e565b91505092915050565b7f4841534800000000000000000000000000000000000000000000000000000000600082015250565b60006119ff6004836115ad565b9150611a0a826119c9565b602082019050919050565b60006020820190508181036000830152611a2e816119f2565b9050919050565b7f444d524f4f540000000000000000000000000000000000000000000000000000600082015250565b6000611a6b6006836115ad565b9150611a7682611a35565b602082019050919050565b60006020820190508181036000830152611a9a81611a5e565b9050919050565b7f544e454400000000000000000000000000000000000000000000000000000000600082015250565b6000611ad76004836115ad565b9150611ae282611aa1565b602082019050919050565b60006020820190508181036000830152611b0681611aca565b9050919050565b600082825260208201905092915050565b82818337600083830152505050565b6000601f19601f8301169050919050565b6000611b4a8385611b0d565b9350611b57838584611b1e565b611b6083611b2d565b840190509392505050565b600060e082019050611b80600083018b6116fd565b611b8d602083018a6116fd565b611b9a60408301896116a1565b611ba760608301886116a1565b611bb460808301876116a1565b611bc160a08301866116a1565b81810360c0830152611bd4818486611b3e565b90509998505050505050505050565b7f5354524f4f540000000000000000000000000000000000000000000000000000600082015250565b6000611c196006836115ad565b9150611c2482611be3565b602082019050919050565b60006020820190508181036000830152611c4881611c0c565b9050919050565b7f444d545300000000000000000000000000000000000000000000000000000000600082015250565b6000611c856004836115ad565b9150611c9082611c4f565b602082019050919050565b60006020820190508181036000830152611cb481611c78565b9050919050565b7f444d56414c000000000000000000000000000000000000000000000000000000600082015250565b6000611cf16005836115ad565b9150611cfc82611cbb565b602082019050919050565b60006020820190508181036000830152611d2081611ce4565b9050919050565b7f454f410000000000000000000000000000000000000000000000000000000000600082015250565b6000611d5d6003836115ad565b9150611d6882611d27565b602082019050919050565b60006020820190508181036000830152611d8c81611d50565b9050919050565b7f444d440000000000000000000000000000000000000000000000000000000000600082015250565b6000611dc96003836115ad565b9150611dd482611d93565b602082019050919050565b60006020820190508181036000830152611df881611dbc565b9050919050565b611e0881611634565b82525050565b6000602082019050611e236000830184611dff565b92915050565b600081905092915050565b50565b6000611e44600083611e29565b9150611e4f82611e34565b600082019050919050565b6000611e6582611e37565b9150819050919050565b7f5445544800000000000000000000000000000000000000000000000000000000600082015250565b6000611ea56004836115ad565b9150611eb082611e6f565b602082019050919050565b60006020820190508181036000830152611ed481611e98565b905091905056fea2646970667358221220ae173640f9aa194281412ddca117d1050d5d4b1aaf7a7de154e7c9fe1c0934ba64736f6c63430008100033",
			"opcodes": "PUSH1 0x80 PUSH1 0x40 MSTORE CALLVALUE DUP1 ISZERO PUSH2 0x10 JUMPI PUSH1 0x0 DUP1 REVERT JUMPDEST POP PUSH2 0x1F11 DUP1 PUSH2 0x20 PUSH1 0x0 CODECOPY PUSH1 0x0 RETURN INVALID PUSH1 0x80 PUSH1 0x40 MSTORE PUSH1 0x4 CALLDATASIZE LT PUSH2 0x59 JUMPI PUSH1 0x0 CALLDATALOAD PUSH1 0xE0 SHR DUP1 PUSH4 0x312FAF74 EQ PUSH2 0xD6 JUMPI DUP1 PUSH4 0x3B1623FE EQ PUSH2 0x113 JUMPI DUP1 PUSH4 0x49A435E2 EQ PUSH2 0x13E JUMPI DUP1 PUSH4 0x6E94AAC5 EQ PUSH2 0x167 JUMPI DUP1 PUSH4 0x8DFBFEAD EQ PUSH2 0x190 JUMPI DUP1 PUSH4 0xFCD5E7B3 EQ PUSH2 0x1B9 JUMPI PUSH2 0xD1 JUMP JUMPDEST CALLDATASIZE PUSH2 0xD1 JUMPI PUSH3 0x20000 PUSH20 0xFFFFFFFFFFFFFFFFFFFFFFFFFFFFFFFFFFFFFFFF AND CALLER PUSH20 0xFFFFFFFFFFFFFFFFFFFFFFFFFFFFFFFFFFFFFFFF AND EQ PUSH2 0xCF JUMPI PUSH1 0x40 MLOAD PUSH32 0x8C379A000000000000000000000000000000000000000000000000000000000 DUP2 MSTORE PUSH1 0x4 ADD PUSH2 0xC6 SWAP1 PUSH2 0x160A JUMP JUMPDEST PUSH1 0x40 MLOAD DUP1 SWAP2 SUB SWAP1 REVERT JUMPDEST STOP JUMPDEST PUSH1 0x0 DUP1 REVERT JUMPDEST CALLVALUE DUP1 ISZERO PUSH2 0xE2 JUMPI PUSH1 0x0 DUP1 REVERT JUMPDEST POP PUSH2 0xFD PUSH1 0x4 DUP1 CALLDATASIZE SUB DUP2 ADD SWAP1 PUSH2 0xF8 SWAP2 SWAP1 PUSH2 0x166A JUMP JUMPDEST PUSH2 0x1E2 JUMP JUMPDEST PUSH1 0x40 MLOAD PUSH2 0x10A SWAP2 SWAP1 PUSH2 0x16B0 JUMP JUMPDEST PUSH1 0x40 MLOAD DUP1 SWAP2 SUB SWAP1 RETURN JUMPDEST CALLVALUE DUP1 ISZERO PUSH2 0x11F JUMPI PUSH1 0x0 DUP1 REVERT JUMPDEST POP PUSH2 0x128 PUSH2 0x1FF JUMP JUMPDEST PUSH1 0x40 MLOAD PUSH2 0x135 SWAP2 SWAP1 PUSH2 0x170C JUMP JUMPDEST PUSH1 0x40 MLOAD DUP1 SWAP2 SUB SWAP1 RETURN JUMPDEST CALLVALUE DUP1 ISZERO PUSH2 0x14A JUMPI PUSH1 0x0 DUP1 REVERT JUMPDEST POP PUSH2 0x165 PUSH1 0x4 DUP1 CALLDATASIZE SUB DUP2 ADD SWAP1 PUSH2 0x160 SWAP2 SWAP1 PUSH2 0x1753 JUMP JUMPDEST PUSH2 0x228 JUMP JUMPDEST STOP JUMPDEST CALLVALUE DUP1 ISZERO PUSH2 0x173 JUMPI PUSH1 0x0 DUP1 REVERT JUMPDEST POP PUSH2 0x18E PUSH1 0x4 DUP1 CALLDATASIZE SUB DUP2 ADD SWAP1 PUSH2 0x189 SWAP2 SWAP1 PUSH2 0x17F8 JUMP JUMPDEST PUSH2 0x23B JUMP JUMPDEST STOP JUMPDEST CALLVALUE DUP1 ISZERO PUSH2 0x19C JUMPI PUSH1 0x0 DUP1 REVERT JUMPDEST POP PUSH2 0x1B7 PUSH1 0x4 DUP1 CALLDATASIZE SUB DUP2 ADD SWAP1 PUSH2 0x1B2 SWAP2 SWAP1 PUSH2 0x18A5 JUMP JUMPDEST PUSH2 0x358 JUMP JUMPDEST STOP JUMPDEST CALLVALUE DUP1 ISZERO PUSH2 0x1C5 JUMPI PUSH1 0x0 DUP1 REVERT JUMPDEST POP PUSH2 0x1E0 PUSH1 0x4 DUP1 CALLDATASIZE SUB DUP2 ADD SWAP1 PUSH2 0x1DB SWAP2 SWAP1 PUSH2 0x199C JUMP JUMPDEST PUSH2 0x51F JUMP JUMPDEST STOP JUMPDEST PUSH1 0x0 PUSH1 0x2 PUSH1 0x0 DUP4 DUP2 MSTORE PUSH1 0x20 ADD SWAP1 DUP2 MSTORE PUSH1 0x20 ADD PUSH1 0x0 KECCAK256 SLOAD SWAP1 POP SWAP2 SWAP1 POP JUMP JUMPDEST PUSH1 0x0 DUP1 PUSH1 0x0 SWAP1 SLOAD SWAP1 PUSH2 0x100 EXP SWAP1 DIV PUSH20 0xFFFFFFFFFFFFFFFFFFFFFFFFFFFFFFFFFFFFFFFF AND SWAP1 POP SWAP1 JUMP JUMPDEST PUSH2 0x230 PUSH2 0x59D JUMP JUMPDEST DUP1 PUSH1 0x1 DUP2 SWAP1 SSTORE POP POP POP JUMP JUMPDEST PUSH1 0x0 DUP1 PUSH1 0x0 PUSH2 0x24A DUP8 DUP8 PUSH2 0x60D JUMP JUMPDEST SWAP3 POP SWAP3 POP SWAP3 POP PUSH1 0x1 SLOAD DUP4 EQ PUSH2 0x294 JUMPI PUSH1 0x40 MLOAD PUSH32 0x8C379A000000000000000000000000000000000000000000000000000000000 DUP2 MSTORE PUSH1 0x4 ADD PUSH2 0x28B SWAP1 PUSH2 0x1A15 JUMP JUMPDEST PUSH1 0x40 MLOAD DUP1 SWAP2 SUB SWAP1 REVERT JUMPDEST PUSH1 0x0 DUP1 PUSH2 0x2B6 PUSH20 0x936A70C0B28532AA22240DCE21F89A8399D6AC60 DUP9 DUP9 PUSH2 0x8B9 JUMP JUMPDEST SWAP2 POP SWAP2 POP DUP4 DUP3 EQ PUSH2 0x2FC JUMPI PUSH1 0x40 MLOAD PUSH32 0x8C379A000000000000000000000000000000000000000000000000000000000 DUP2 MSTORE PUSH1 0x4 ADD PUSH2 0x2F3 SWAP1 PUSH2 0x1A81 JUMP JUMPDEST PUSH1 0x40 MLOAD DUP1 SWAP2 SUB SWAP1 REVERT JUMPDEST DUP3 PUSH1 0x2 PUSH1 0x0 DUP4 DUP2 MSTORE PUSH1 0x20 ADD SWAP1 DUP2 MSTORE PUSH1 0x20 ADD PUSH1 0x0 KECCAK256 DUP2 SWAP1 SSTORE POP DUP4 DUP6 PUSH32 0x9D70F54D5D379E4B92C497936411380303C56BFB08CAED66B62C94380AD153DB DUP6 PUSH1 0x40 MLOAD PUSH2 0x345 SWAP2 SWAP1 PUSH2 0x16B0 JUMP JUMPDEST PUSH1 0x40 MLOAD DUP1 SWAP2 SUB SWAP1 LOG3 POP POP POP POP POP POP POP POP POP JUMP JUMPDEST PUSH3 0x20000 PUSH20 0xFFFFFFFFFFFFFFFFFFFFFFFFFFFFFFFFFFFFFFFF AND DUP10 PUSH20 0xFFFFFFFFFFFFFFFFFFFFFFFFFFFFFFFFFFFFFFFF AND SUB PUSH2 0x3C9 JUMPI PUSH1 0x40 MLOAD PUSH32 0x8C379A000000000000000000000000000000000000000000000000000000000 DUP2 MSTORE PUSH1 0x4 ADD PUSH2 0x3C0 SWAP1 PUSH2 0x1AED JUMP JUMPDEST PUSH1 0x40 MLOAD DUP1 SWAP2 SUB SWAP1 REVERT JUMPDEST PUSH1 0x0 DUP11 DUP11 DUP11 DUP11 DUP11 DUP11 DUP11 DUP11 PUSH1 0x40 MLOAD PUSH1 0x20 ADD PUSH2 0x3EA SWAP9 SWAP8 SWAP7 SWAP6 SWAP5 SWAP4 SWAP3 SWAP2 SWAP1 PUSH2 0x1B6B JUMP JUMPDEST PUSH1 0x40 MLOAD PUSH1 0x20 DUP2 DUP4 SUB SUB DUP2 MSTORE SWAP1 PUSH1 0x40 MSTORE DUP1 MLOAD SWAP1 PUSH1 0x20 ADD KECCAK256 SWAP1 POP PUSH1 0x0 DUP1 PUSH2 0x418 PUSH2 0x411 DUP5 PUSH2 0xE46 JUMP JUMPDEST DUP7 DUP7 PUSH2 0xE60 JUMP JUMPDEST SWAP2 POP SWAP2 POP PUSH1 0x0 PUSH1 0x2 PUSH1 0x0 DUP5 DUP2 MSTORE PUSH1 0x20 ADD SWAP1 DUP2 MSTORE PUSH1 0x20 ADD PUSH1 0x0 KECCAK256 SLOAD SWAP1 POP PUSH1 0x0 DUP2 SUB PUSH2 0x477 JUMPI PUSH1 0x40 MLOAD PUSH32 0x8C379A000000000000000000000000000000000000000000000000000000000 DUP2 MSTORE PUSH1 0x4 ADD PUSH2 0x46E SWAP1 PUSH2 0x1C2F JUMP JUMPDEST PUSH1 0x40 MLOAD DUP1 SWAP2 SUB SWAP1 REVERT JUMPDEST DUP10 DUP2 LT PUSH2 0x4B9 JUMPI PUSH1 0x40 MLOAD PUSH32 0x8C379A000000000000000000000000000000000000000000000000000000000 DUP2 MSTORE PUSH1 0x4 ADD PUSH2 0x4B0 SWAP1 PUSH2 0x1C9B JUMP JUMPDEST PUSH1 0x40 MLOAD DUP1 SWAP2 SUB SWAP1 REVERT JUMPDEST PUSH1 0x1 PUSH1 0x0 SHL DUP3 EQ PUSH2 0x4FF JUMPI PUSH1 0x40 MLOAD PUSH32 0x8C379A000000000000000000000000000000000000000000000000000000000 DUP2 MSTORE PUSH1 0x4 ADD PUSH2 0x4F6 SWAP1 PUSH2 0x1D07 JUMP JUMPDEST PUSH1 0x40 MLOAD DUP1 SWAP2 SUB SWAP1 REVERT JUMPDEST PUSH2 0x50F DUP15 DUP15 DUP15 DUP15 DUP15 DUP15 DUP15 DUP15 PUSH2 0x137B JUMP JUMPDEST POP POP POP POP POP POP POP POP POP POP POP POP POP POP JUMP JUMPDEST PUSH3 0x20000 PUSH20 0xFFFFFFFFFFFFFFFFFFFFFFFFFFFFFFFFFFFFFFFF AND CALLER PUSH20 0xFFFFFFFFFFFFFFFFFFFFFFFFFFFFFFFFFFFFFFFF AND EQ PUSH2 0x590 JUMPI PUSH1 0x40 MLOAD PUSH32 0x8C379A000000000000000000000000000000000000000000000000000000000 DUP2 MSTORE PUSH1 0x4 ADD PUSH2 0x587 SWAP1 PUSH2 0x160A JUMP JUMPDEST PUSH1 0x40 MLOAD DUP1 SWAP2 SUB SWAP1 REVERT JUMPDEST PUSH2 0x59A CALLER DUP3 PUSH2 0x14D8 JUMP JUMPDEST POP JUMP JUMPDEST CALLER PUSH20 0xFFFFFFFFFFFFFFFFFFFFFFFFFFFFFFFFFFFFFFFF AND ORIGIN PUSH20 0xFFFFFFFFFFFFFFFFFFFFFFFFFFFFFFFFFFFFFFFF AND EQ PUSH2 0x60B JUMPI PUSH1 0x40 MLOAD PUSH32 0x8C379A000000000000000000000000000000000000000000000000000000000 DUP2 MSTORE PUSH1 0x4 ADD PUSH2 0x602 SWAP1 PUSH2 0x1D73 JUMP JUMPDEST PUSH1 0x40 MLOAD DUP1 SWAP2 SUB SWAP1 REVERT JUMPDEST JUMP JUMPDEST PUSH1 0x0 DUP1 PUSH1 0x0 PUSH2 0x823 JUMP JUMPDEST PUSH4 0x8C379A0 PUSH1 0xE0 SHL PUSH1 0x0 MSTORE PUSH1 0x20 PUSH1 0x4 MSTORE DUP1 PUSH1 0x44 MSTORE PUSH1 0x0 JUMPDEST DUP2 ISZERO PUSH2 0x645 JUMPI DUP2 PUSH1 0x8 SHL SWAP2 POP PUSH1 0x1 DUP2 ADD SWAP1 POP PUSH2 0x62E JUMP JUMPDEST DUP1 PUSH1 0x24 MSTORE PUSH1 0x64 PUSH1 0x0 REVERT JUMPDEST PUSH1 0x0 DUP1 DUP3 CALLDATALOAD PUSH1 0x0 BYTE PUSH1 0xF8 DUP2 LT ISZERO PUSH2 0x672 JUMPI PUSH1 0xBF DUP2 SUB SWAP3 POP PUSH1 0x1 DUP5 ADD SWAP2 POP POP PUSH2 0x6AB JUMP JUMPDEST PUSH1 0xF7 DUP2 SUB PUSH1 0x4 DUP2 GT ISZERO PUSH2 0x681 JUMPI INVALID JUMPDEST PUSH1 0x1 DUP6 ADD SWAP3 POP DUP3 CALLDATALOAD PUSH1 0x8 DUP3 MUL PUSH2 0x100 SUB DUP2 DUP2 SHR SWAP2 POP DUP3 DUP3 ADD SWAP6 POP PUSH1 0x1 DUP7 ADD SWAP6 POP DUP3 DUP6 ADD SWAP5 POP POP POP POP POP JUMPDEST SWAP2 POP SWAP2 JUMP JUMPDEST PUSH1 0x0 DUP1 PUSH1 0x0 DUP4 CALLDATALOAD PUSH1 0x0 BYTE PUSH1 0x80 DUP2 LT ISZERO PUSH2 0x6D4 JUMPI PUSH1 0x1 SWAP4 POP DUP5 SWAP3 POP PUSH1 0x1 SWAP2 POP POP PUSH2 0x758 JUMP JUMPDEST PUSH1 0xB8 DUP2 LT ISZERO PUSH2 0x6F3 JUMPI PUSH1 0x80 DUP2 SUB SWAP4 POP PUSH1 0x1 DUP6 ADD SWAP3 POP PUSH1 0x1 SWAP2 POP POP PUSH2 0x758 JUMP JUMPDEST PUSH1 0xC0 DUP2 LT ISZERO PUSH2 0x735 JUMPI PUSH1 0xB7 DUP2 SUB PUSH1 0x4 DUP2 GT ISZERO PUSH2 0x70B JUMPI INVALID JUMPDEST PUSH1 0x1 DUP7 ADD SWAP4 POP DUP4 CALLDATALOAD PUSH1 0x8 DUP3 MUL PUSH2 0x100 SUB DUP2 DUP2 SHR SWAP2 POP DUP2 SWAP7 POP DUP3 DUP7 ADD SWAP6 POP PUSH1 0x1 SWAP5 POP POP POP POP POP PUSH2 0x758 JUMP JUMPDEST PUSH1 0xF8 DUP2 LT ISZERO PUSH2 0x74A JUMPI PUSH1 0x1 DUP6 ADD SWAP3 POP POP PUSH2 0x758 JUMP JUMPDEST PUSH1 0xF7 DUP2 SUB SWAP4 POP PUSH1 0x1 DUP6 ADD SWAP3 POP POP JUMPDEST SWAP2 SWAP4 SWAP1 SWAP3 POP JUMP JUMPDEST PUSH1 0x0 DUP1 PUSH1 0x0 DUP1 DUP5 SWAP4 POP PUSH1 0x40 MLOAD SWAP3 POP PUSH2 0x776 DUP5 PUSH2 0x64F JUMP JUMPDEST DUP2 DUP7 DUP7 CALLDATACOPY DUP2 DUP6 KECCAK256 SWAP3 POP DUP5 DUP3 DUP8 ADD DUP3 SWAP8 POP JUMPDEST DUP1 DUP9 LT ISZERO PUSH2 0x7BC JUMPI PUSH2 0x798 DUP9 PUSH2 0x6B0 JUMP JUMPDEST DUP2 DUP4 ADD SWAP11 POP DUP1 ISZERO PUSH2 0x7B4 JUMPI DUP2 DUP4 PUSH1 0x80 SHL OR DUP1 DUP7 MSTORE PUSH1 0x20 DUP7 ADD SWAP6 POP POP JUMPDEST POP POP POP PUSH2 0x787 JUMP JUMPDEST DUP1 DUP9 EQ PUSH2 0x7C5 JUMPI INVALID JUMPDEST PUSH1 0x20 DUP8 DUP4 SUB DIV SWAP6 POP POP POP POP POP SWAP2 SWAP4 POP SWAP2 SWAP4 JUMP JUMPDEST PUSH1 0x0 DUP3 PUSH1 0x20 MUL DUP3 ADD MLOAD PUSH3 0xFFFFFF DUP2 AND DUP2 PUSH1 0x80 SHR PUSH1 0x1F DUP2 GT ISZERO PUSH2 0x808 JUMPI PUSH1 0x20 DUP2 SUB DUP3 ADD SWAP2 POP DUP2 CALLDATALOAD SWAP4 POP POP POP POP PUSH2 0x81D JUMP JUMPDEST PUSH1 0x8 DUP2 PUSH1 0x20 SUB MUL DUP3 CALLDATALOAD SWAP5 POP DUP5 DUP2 SHR SWAP5 POP POP POP POP POP JUMPDEST SWAP3 SWAP2 POP POP JUMP JUMPDEST PUSH2 0x82C DUP6 PUSH2 0x75F JUMP JUMPDEST DUP8 DUP10 ADD DUP5 EQ PUSH2 0x85F JUMPI PUSH2 0x85E PUSH32 0x424F554E44530000000000000000000000000000000000000000000000000000 PUSH2 0x617 JUMP JUMPDEST JUMPDEST PUSH1 0x10 DUP3 EQ PUSH2 0x891 JUMPI PUSH2 0x890 PUSH32 0x4954454D53000000000000000000000000000000000000000000000000000000 PUSH2 0x617 JUMP JUMPDEST JUMPDEST DUP1 SWAP7 POP PUSH2 0x89F PUSH1 0x3 DUP5 PUSH2 0x7D8 JUMP JUMPDEST SWAP6 POP PUSH2 0x8AC PUSH1 0xB DUP5 PUSH2 0x7D8 JUMP JUMPDEST SWAP5 POP POP POP POP POP SWAP3 POP SWAP3 POP SWAP3 JUMP JUMPDEST PUSH1 0x0 DUP1 PUSH2 0xDF9 JUMP JUMPDEST PUSH1 0x0 DUP1 DUP3 CALLDATALOAD PUSH1 0x0 BYTE PUSH1 0xF8 DUP2 LT ISZERO PUSH2 0x8E4 JUMPI PUSH1 0xBF DUP2 SUB SWAP3 POP PUSH1 0x1 DUP5 ADD SWAP2 POP POP PUSH2 0x91D JUMP JUMPDEST PUSH1 0xF7 DUP2 SUB PUSH1 0x4 DUP2 GT ISZERO PUSH2 0x8F3 JUMPI INVALID JUMPDEST PUSH1 0x1 DUP6 ADD SWAP3 POP DUP3 CALLDATALOAD PUSH1 0x8 DUP3 MUL PUSH2 0x100 SUB DUP2 DUP2 SHR SWAP2 POP DUP3 DUP3 ADD SWAP6 POP PUSH1 0x1 DUP7 ADD SWAP6 POP DUP3 DUP6 ADD SWAP5 POP POP POP POP POP JUMPDEST SWAP2 POP SWAP2 JUMP JUMPDEST PUSH1 0x0 DUP1 PUSH1 0x0 DUP4 CALLDATALOAD PUSH1 0x0 BYTE PUSH1 0x80 DUP2 LT ISZERO PUSH2 0x946 JUMPI PUSH1 0x1 SWAP4 POP DUP5 SWAP3 POP PUSH1 0x1 SWAP2 POP POP PUSH2 0x9CA JUMP JUMPDEST PUSH1 0xB8 DUP2 LT ISZERO PUSH2 0x965 JUMPI PUSH1 0x80 DUP2 SUB SWAP4 POP PUSH1 0x1 DUP6 ADD SWAP3 POP PUSH1 0x1 SWAP2 POP POP PUSH2 0x9CA JUMP JUMPDEST PUSH1 0xC0 DUP2 LT ISZERO PUSH2 0x9A7 JUMPI PUSH1 0xB7 DUP2 SUB PUSH1 0x4 DUP2 GT ISZERO PUSH2 0x97D JUMPI INVALID JUMPDEST PUSH1 0x1 DUP7 ADD SWAP4 POP DUP4 CALLDATALOAD PUSH1 0x8 DUP3 MUL PUSH2 0x100 SUB DUP2 DUP2 SHR SWAP2 POP DUP2 SWAP7 POP DUP3 DUP7 ADD SWAP6 POP PUSH1 0x1 SWAP5 POP POP POP POP POP PUSH2 0x9CA JUMP JUMPDEST PUSH1 0xF8 DUP2 LT ISZERO PUSH2 0x9BC JUMPI PUSH1 0x1 DUP6 ADD SWAP3 POP POP PUSH2 0x9CA JUMP JUMPDEST PUSH1 0xF7 DUP2 SUB SWAP4 POP PUSH1 0x1 DUP6 ADD SWAP3 POP POP JUMPDEST SWAP2 SWAP4 SWAP1 SWAP3 POP JUMP JUMPDEST PUSH1 0x0 DUP1 PUSH1 0x0 DUP1 DUP5 SWAP4 POP PUSH1 0x40 MLOAD SWAP3 POP PUSH2 0x9E8 DUP5 PUSH2 0x8C1 JUMP JUMPDEST DUP2 DUP7 DUP7 CALLDATACOPY DUP2 DUP6 KECCAK256 SWAP3 POP DUP5 DUP3 DUP8 ADD DUP3 SWAP8 POP JUMPDEST DUP1 DUP9 LT ISZERO PUSH2 0xA2E JUMPI PUSH2 0xA0A DUP9 PUSH2 0x922 JUMP JUMPDEST DUP2 DUP4 ADD SWAP11 POP DUP1 ISZERO PUSH2 0xA26 JUMPI DUP2 DUP4 PUSH1 0x80 SHL OR DUP1 DUP7 MSTORE PUSH1 0x20 DUP7 ADD SWAP6 POP POP JUMPDEST POP POP POP PUSH2 0x9F9 JUMP JUMPDEST DUP1 DUP9 EQ PUSH2 0xA37 JUMPI INVALID JUMPDEST PUSH1 0x20 DUP8 DUP4 SUB DIV SWAP6 POP POP POP POP POP SWAP2 SWAP4 POP SWAP2 SWAP4 JUMP JUMPDEST PUSH1 0x0 DUP2 PUSH1 0x0 MSTORE PUSH1 0x14 PUSH1 0xC KECCAK256 SWAP1 POP SWAP2 SWAP1 POP JUMP JUMPDEST PUSH1 0x0 DUP2 SWAP1 POP PUSH1 0x4 DUP4 MUL PUSH1 0x0 NOT DUP1 DUP3 SHR SWAP1 POP DUP1 DUP4 AND SWAP3 POP POP PUSH1 0x20 PUSH1 0x2 DUP6 MOD ISZERO PUSH2 0xA83 JUMPI PUSH1 0x3 SWAP1 POP JUMPDEST DUP2 PUSH2 0x100 SUB SWAP2 POP DUP1 DUP3 SHL SWAP1 POP DUP3 DUP2 OR SWAP3 POP POP POP SWAP3 SWAP2 POP POP JUMP JUMPDEST PUSH1 0x0 DUP3 PUSH1 0x20 MUL DUP3 ADD MLOAD PUSH3 0xFFFFFF DUP2 AND DUP2 PUSH1 0x80 SHR PUSH1 0x1F DUP2 GT ISZERO PUSH2 0xACC JUMPI PUSH1 0x20 DUP2 SUB DUP3 ADD SWAP2 POP DUP2 CALLDATALOAD SWAP4 POP POP POP POP PUSH2 0xAE1 JUMP JUMPDEST PUSH1 0x8 DUP2 PUSH1 0x20 SUB MUL DUP3 CALLDATALOAD SWAP5 POP DUP5 DUP2 SHR SWAP5 POP POP POP POP POP JUMPDEST SWAP3 SWAP2 POP POP JUMP JUMPDEST PUSH1 0x0 DUP1 DUP4 PUSH1 0x20 MUL DUP4 ADD MLOAD PUSH3 0xFFFFFF DUP2 AND DUP2 PUSH1 0x80 SHR SWAP3 POP PUSH1 0x1F DUP4 GT ISZERO PUSH2 0xB19 JUMPI PUSH1 0x20 DUP4 SUB DUP2 ADD SWAP1 POP DUP1 CALLDATALOAD SWAP4 POP POP POP PUSH2 0xB2D JUMP JUMPDEST PUSH1 0x8 DUP4 PUSH1 0x20 SUB MUL DUP2 CALLDATALOAD SWAP5 POP DUP5 DUP2 SHR SWAP5 POP POP POP POP JUMPDEST SWAP3 POP SWAP3 SWAP1 POP JUMP JUMPDEST PUSH1 0x0 DUP1 DUP4 PUSH1 0x20 MUL DUP4 ADD MLOAD PUSH3 0xFFFFFF DUP2 AND SWAP3 POP DUP1 PUSH1 0x80 SHR SWAP2 POP POP SWAP3 POP SWAP3 SWAP1 POP JUMP JUMPDEST PUSH1 0x0 DUP1 PUSH1 0x0 DUP1 PUSH1 0x0 DUP7 SWAP5 POP DUP5 CALLDATALOAD PUSH1 0x0 BYTE PUSH1 0x1 DUP7 ADD SWAP6 POP PUSH1 0x0 DUP1 JUMPDEST DUP3 DUP2 LT ISZERO PUSH2 0xC7C JUMPI PUSH1 0x0 DUP1 PUSH1 0x0 PUSH2 0xB84 DUP12 PUSH2 0x9D1 JUMP JUMPDEST SWAP4 POP SWAP4 POP SWAP4 POP SWAP11 POP DUP4 PUSH1 0x0 DUP2 EQ PUSH2 0xBC5 JUMPI PUSH2 0xBC0 PUSH32 0x5448415348000000000000000000000000000000000000000000000000000000 DUP12 DUP5 PUSH2 0xDDE JUMP JUMPDEST PUSH2 0xBC9 JUMP JUMPDEST DUP2 SWAP11 POP JUMPDEST POP DUP2 PUSH1 0x2 DUP2 EQ PUSH2 0xC09 JUMPI PUSH1 0x11 DUP2 EQ PUSH2 0xC48 JUMPI PUSH2 0xC04 PUSH32 0x4E4F444500000000000000000000000000000000000000000000000000000000 PUSH2 0xD8E JUMP JUMPDEST PUSH2 0xC6D JUMP JUMPDEST PUSH1 0x0 DUP1 PUSH2 0xC17 PUSH1 0x1 DUP8 PUSH2 0xAE7 JUMP JUMPDEST SWAP2 POP SWAP2 POP DUP2 SWAP12 POP PUSH1 0x1 DUP10 SUB DUP8 EQ PUSH1 0x0 DUP2 EQ PUSH2 0xC34 JUMPI DUP7 SWAP11 POP PUSH2 0xC40 JUMP JUMPDEST DUP7 MLOAD PUSH1 0x80 SHR DUP1 DUP11 ADD SWAP10 POP POP JUMPDEST POP POP POP PUSH2 0xC6D JUMP JUMPDEST PUSH1 0x4 DUP7 MUL PUSH1 0xFC SUB PUSH1 0xF DUP15 DUP3 SHR AND PUSH2 0xC5F DUP2 DUP8 PUSH2 0xAE7 JUMP JUMPDEST DUP2 SWAP14 POP PUSH1 0x1 DUP11 ADD SWAP10 POP POP POP POP POP JUMPDEST POP POP POP POP PUSH1 0x1 DUP2 ADD SWAP1 POP PUSH2 0xB6E JUMP JUMPDEST POP PUSH2 0xC87 DUP2 DUP10 PUSH2 0xA5C JUMP JUMPDEST SWAP4 POP POP POP SWAP3 SWAP6 POP SWAP3 SWAP6 SWAP1 SWAP4 POP JUMP JUMPDEST PUSH1 0x0 DUP1 PUSH1 0x0 DUP4 SWAP3 POP PUSH1 0x0 DUP1 PUSH1 0x0 DUP1 PUSH1 0x0 DUP1 PUSH2 0xCAF DUP12 PUSH2 0xA4A JUMP JUMPDEST PUSH2 0xCB9 DUP11 DUP3 PUSH2 0xB54 JUMP JUMPDEST SWAP6 POP SWAP9 POP SWAP5 POP SWAP10 POP SWAP10 POP PUSH2 0xCED PUSH32 0x41434C4541460000000000000000000000000000000000000000000000000000 DUP4 PUSH2 0xDC6 JUMP JUMPDEST PUSH2 0xCF8 PUSH1 0x0 DUP4 PUSH2 0xA9C JUMP JUMPDEST SWAP7 POP PUSH2 0xD25 PUSH32 0x4143524F4F540000000000000000000000000000000000000000000000000000 DUP9 DUP9 PUSH2 0xDDE JUMP JUMPDEST PUSH2 0xD30 PUSH1 0x1 DUP4 PUSH2 0xB34 JUMP JUMPDEST PUSH1 0x0 PUSH2 0xD3B DUP4 PUSH2 0x9D1 JUMP JUMPDEST SWAP11 POP SWAP3 POP SWAP6 POP SWAP3 POP PUSH2 0xD70 PUSH32 0x41434C4541464E00000000000000000000000000000000000000000000000000 PUSH1 0x4 DUP4 EQ PUSH2 0xDC6 JUMP JUMPDEST PUSH2 0xD7B PUSH1 0x2 DUP7 PUSH2 0xA9C JUMP JUMPDEST SWAP11 POP POP POP POP POP POP POP POP POP POP POP SWAP3 POP SWAP3 POP SWAP3 JUMP JUMPDEST PUSH4 0x8C379A0 PUSH1 0xE0 SHL PUSH1 0x0 MSTORE PUSH1 0x20 PUSH1 0x4 MSTORE DUP1 PUSH1 0x44 MSTORE PUSH1 0x0 JUMPDEST DUP2 ISZERO PUSH2 0xDBC JUMPI DUP2 PUSH1 0x8 SHL SWAP2 POP PUSH1 0x1 DUP2 ADD SWAP1 POP PUSH2 0xDA5 JUMP JUMPDEST DUP1 PUSH1 0x24 MSTORE PUSH1 0x64 PUSH1 0x0 REVERT JUMPDEST DUP1 PUSH1 0x0 DUP2 SUB PUSH2 0xDD9 JUMPI PUSH2 0xDD8 DUP4 PUSH2 0xD8E JUMP JUMPDEST JUMPDEST POP POP POP JUMP JUMPDEST DUP2 DUP2 EQ PUSH1 0x0 DUP2 SUB PUSH2 0xDF3 JUMPI PUSH2 0xDF2 DUP5 PUSH2 0xD8E JUMP JUMPDEST JUMPDEST POP POP POP POP JUMP JUMPDEST DUP4 PUSH2 0xE04 DUP7 DUP3 PUSH2 0xC95 JUMP JUMPDEST SWAP4 POP SWAP4 POP SWAP1 POP DUP4 DUP6 ADD DUP2 EQ PUSH2 0xE3D JUMPI PUSH2 0xE3C PUSH32 0x424F554E44530000000000000000000000000000000000000000000000000000 PUSH2 0xD8E JUMP JUMPDEST JUMPDEST POP SWAP4 POP SWAP4 SWAP2 POP POP JUMP JUMPDEST PUSH1 0x0 PUSH4 0x31DF76A4 PUSH1 0x0 MSTORE DUP2 PUSH1 0x20 MSTORE PUSH1 0x40 PUSH1 0x0 KECCAK256 SWAP1 POP SWAP2 SWAP1 POP JUMP JUMPDEST PUSH1 0x0 DUP1 PUSH2 0x132E JUMP JUMPDEST PUSH1 0x0 DUP2 SWAP1 POP PUSH1 0x80 DUP3 LT PUSH2 0xE97 JUMPI PUSH1 0x20 DUP4 GT PUSH2 0xE97 JUMPI PUSH1 0x8 DUP4 MUL PUSH1 0x8 DUP2 SUB SWAP1 POP PUSH1 0xFF DUP2 SHL DUP1 NOT SWAP1 POP DUP1 DUP4 AND SWAP3 POP POP POP JUMPDEST SWAP3 SWAP2 POP POP JUMP JUMPDEST PUSH1 0x0 DUP1 DUP3 CALLDATALOAD PUSH1 0x0 BYTE PUSH1 0xF8 DUP2 LT ISZERO PUSH2 0xEC0 JUMPI PUSH1 0xBF DUP2 SUB SWAP3 POP PUSH1 0x1 DUP5 ADD SWAP2 POP POP PUSH2 0xEF9 JUMP JUMPDEST PUSH1 0xF7 DUP2 SUB PUSH1 0x4 DUP2 GT ISZERO PUSH2 0xECF JUMPI INVALID JUMPDEST PUSH1 0x1 DUP6 ADD SWAP3 POP DUP3 CALLDATALOAD PUSH1 0x8 DUP3 MUL PUSH2 0x100 SUB DUP2 DUP2 SHR SWAP2 POP DUP3 DUP3 ADD SWAP6 POP PUSH1 0x1 DUP7 ADD SWAP6 POP DUP3 DUP6 ADD SWAP5 POP POP POP POP POP JUMPDEST SWAP2 POP SWAP2 JUMP JUMPDEST PUSH1 0x0 DUP1 PUSH1 0x0 DUP4 CALLDATALOAD PUSH1 0x0 BYTE PUSH1 0x80 DUP2 LT ISZERO PUSH2 0xF22 JUMPI PUSH1 0x1 SWAP4 POP DUP5 SWAP3 POP PUSH1 0x1 SWAP2 POP POP PUSH2 0xFA6 JUMP JUMPDEST PUSH1 0xB8 DUP2 LT ISZERO PUSH2 0xF41 JUMPI PUSH1 0x80 DUP2 SUB SWAP4 POP PUSH1 0x1 DUP6 ADD SWAP3 POP PUSH1 0x1 SWAP2 POP POP PUSH2 0xFA6 JUMP JUMPDEST PUSH1 0xC0 DUP2 LT ISZERO PUSH2 0xF83 JUMPI PUSH1 0xB7 DUP2 SUB PUSH1 0x4 DUP2 GT ISZERO PUSH2 0xF59 JUMPI INVALID JUMPDEST PUSH1 0x1 DUP7 ADD SWAP4 POP DUP4 CALLDATALOAD PUSH1 0x8 DUP3 MUL PUSH2 0x100 SUB DUP2 DUP2 SHR SWAP2 POP DUP2 SWAP7 POP DUP3 DUP7 ADD SWAP6 POP PUSH1 0x1 SWAP5 POP POP POP POP POP PUSH2 0xFA6 JUMP JUMPDEST PUSH1 0xF8 DUP2 LT ISZERO PUSH2 0xF98 JUMPI PUSH1 0x1 DUP6 ADD SWAP3 POP POP PUSH2 0xFA6 JUMP JUMPDEST PUSH1 0xF7 DUP2 SUB SWAP4 POP PUSH1 0x1 DUP6 ADD SWAP3 POP POP JUMPDEST SWAP2 SWAP4 SWAP1 SWAP3 POP JUMP JUMPDEST PUSH1 0x0 DUP1 PUSH1 0x0 DUP1 DUP5 SWAP4 POP PUSH1 0x40 MLOAD SWAP3 POP PUSH2 0xFC4 DUP5 PUSH2 0xE9D JUMP JUMPDEST DUP2 DUP7 DUP7 CALLDATACOPY DUP2 DUP6 KECCAK256 SWAP3 POP DUP5 DUP3 DUP8 ADD DUP3 SWAP8 POP JUMPDEST DUP1 DUP9 LT ISZERO PUSH2 0x100A JUMPI PUSH2 0xFE6 DUP9 PUSH2 0xEFE JUMP JUMPDEST DUP2 DUP4 ADD SWAP11 POP DUP1 ISZERO PUSH2 0x1002 JUMPI DUP2 DUP4 PUSH1 0x80 SHL OR DUP1 DUP7 MSTORE PUSH1 0x20 DUP7 ADD SWAP6 POP POP JUMPDEST POP POP POP PUSH2 0xFD5 JUMP JUMPDEST DUP1 DUP9 EQ PUSH2 0x1013 JUMPI INVALID JUMPDEST PUSH1 0x20 DUP8 DUP4 SUB DIV SWAP6 POP POP POP POP POP SWAP2 SWAP4 POP SWAP2 SWAP4 JUMP JUMPDEST PUSH1 0x0 DUP2 PUSH1 0x0 MSTORE PUSH1 0x20 PUSH1 0x0 KECCAK256 SWAP1 POP SWAP2 SWAP1 POP JUMP JUMPDEST PUSH1 0x0 DUP2 SWAP1 POP PUSH1 0x4 DUP4 MUL PUSH1 0x0 NOT DUP1 DUP3 SHR SWAP1 POP DUP1 DUP4 AND SWAP3 POP POP PUSH1 0x20 PUSH1 0x2 DUP6 MOD ISZERO PUSH2 0x105F JUMPI PUSH1 0x3 SWAP1 POP JUMPDEST DUP2 PUSH2 0x100 SUB SWAP2 POP DUP1 DUP3 SHL SWAP1 POP DUP3 DUP2 OR SWAP3 POP POP POP SWAP3 SWAP2 POP POP JUMP JUMPDEST PUSH1 0x0 DUP3 PUSH1 0x20 MUL DUP3 ADD MLOAD PUSH3 0xFFFFFF DUP2 AND DUP2 PUSH1 0x80 SHR PUSH1 0x1F DUP2 GT ISZERO PUSH2 0x10A8 JUMPI PUSH1 0x20 DUP2 SUB DUP3 ADD SWAP2 POP DUP2 CALLDATALOAD SWAP4 POP POP POP POP PUSH2 0x10BD JUMP JUMPDEST PUSH1 0x8 DUP2 PUSH1 0x20 SUB MUL DUP3 CALLDATALOAD SWAP5 POP DUP5 DUP2 SHR SWAP5 POP POP POP POP POP JUMPDEST SWAP3 SWAP2 POP POP JUMP JUMPDEST PUSH1 0x0 DUP1 DUP4 PUSH1 0x20 MUL DUP4 ADD MLOAD PUSH3 0xFFFFFF DUP2 AND DUP2 PUSH1 0x80 SHR SWAP3 POP PUSH1 0x1F DUP4 GT ISZERO PUSH2 0x10F5 JUMPI PUSH1 0x20 DUP4 SUB DUP2 ADD SWAP1 POP DUP1 CALLDATALOAD SWAP4 POP POP POP PUSH2 0x1109 JUMP JUMPDEST PUSH1 0x8 DUP4 PUSH1 0x20 SUB MUL DUP2 CALLDATALOAD SWAP5 POP DUP5 DUP2 SHR SWAP5 POP POP POP POP JUMPDEST SWAP3 POP SWAP3 SWAP1 POP JUMP JUMPDEST PUSH1 0x0 DUP1 PUSH1 0x0 DUP1 PUSH1 0x0 DUP7 SWAP5 POP DUP5 CALLDATALOAD PUSH1 0x0 BYTE PUSH1 0x1 DUP7 ADD SWAP6 POP PUSH1 0x0 DUP1 JUMPDEST DUP3 DUP2 LT ISZERO PUSH2 0x1238 JUMPI PUSH1 0x0 DUP1 PUSH1 0x0 PUSH2 0x1140 DUP12 PUSH2 0xFAD JUMP JUMPDEST SWAP4 POP SWAP4 POP SWAP4 POP SWAP11 POP DUP4 PUSH1 0x0 DUP2 EQ PUSH2 0x1181 JUMPI PUSH2 0x117C PUSH32 0x5448415348000000000000000000000000000000000000000000000000000000 DUP12 DUP5 PUSH2 0x1313 JUMP JUMPDEST PUSH2 0x1185 JUMP JUMPDEST DUP2 SWAP11 POP JUMPDEST POP DUP2 PUSH1 0x2 DUP2 EQ PUSH2 0x11C5 JUMPI PUSH1 0x11 DUP2 EQ PUSH2 0x1204 JUMPI PUSH2 0x11C0 PUSH32 0x4E4F444500000000000000000000000000000000000000000000000000000000 PUSH2 0x12DB JUMP JUMPDEST PUSH2 0x1229 JUMP JUMPDEST PUSH1 0x0 DUP1 PUSH2 0x11D3 PUSH1 0x1 DUP8 PUSH2 0x10C3 JUMP JUMPDEST SWAP2 POP SWAP2 POP DUP2 SWAP12 POP PUSH1 0x1 DUP10 SUB DUP8 EQ PUSH1 0x0 DUP2 EQ PUSH2 0x11F0 JUMPI DUP7 SWAP11 POP PUSH2 0x11FC JUMP JUMPDEST DUP7 MLOAD PUSH1 0x80 SHR DUP1 DUP11 ADD SWAP10 POP POP JUMPDEST POP POP POP PUSH2 0x1229 JUMP JUMPDEST PUSH1 0x4 DUP7 MUL PUSH1 0xFC SUB PUSH1 0xF DUP15 DUP3 SHR AND PUSH2 0x121B DUP2 DUP8 PUSH2 0x10C3 JUMP JUMPDEST DUP2 SWAP14 POP PUSH1 0x1 DUP11 ADD SWAP10 POP POP POP POP POP JUMPDEST POP POP POP POP PUSH1 0x1 DUP2 ADD SWAP1 POP PUSH2 0x112A JUMP JUMPDEST POP PUSH2 0x1243 DUP2 DUP10 PUSH2 0x1038 JUMP JUMPDEST SWAP4 POP POP POP SWAP3 SWAP6 POP SWAP3 SWAP6 SWAP1 SWAP4 POP JUMP JUMPDEST PUSH1 0x0 DUP1 PUSH1 0x0 DUP4 SWAP3 POP PUSH1 0x0 DUP1 PUSH1 0x0 DUP1 PUSH1 0x0 PUSH2 0x126A DUP11 PUSH2 0x1026 JUMP JUMPDEST PUSH2 0x1274 DUP10 DUP3 PUSH2 0x1110 JUMP JUMPDEST SWAP6 POP SWAP8 POP SWAP6 POP SWAP9 POP SWAP9 POP DUP2 PUSH1 0x0 DUP2 EQ PUSH2 0x12CC JUMPI PUSH2 0x1292 PUSH1 0x0 DUP5 PUSH2 0x1078 JUMP JUMPDEST SWAP7 POP PUSH2 0x129F PUSH1 0x1 DUP5 PUSH2 0x10C3 JUMP JUMPDEST SWAP5 POP SWAP8 POP DUP7 DUP7 EQ DUP1 PUSH1 0x0 DUP2 EQ PUSH2 0x12C0 JUMPI PUSH2 0x12B9 DUP7 DUP12 PUSH2 0xE68 JUMP JUMPDEST SWAP10 POP PUSH2 0x12C5 JUMP JUMPDEST PUSH1 0x0 SWAP10 POP JUMPDEST POP POP PUSH2 0x12CD JUMP JUMPDEST JUMPDEST POP POP POP POP POP POP POP SWAP3 POP SWAP3 POP SWAP3 JUMP JUMPDEST PUSH4 0x8C379A0 PUSH1 0xE0 SHL PUSH1 0x0 MSTORE PUSH1 0x20 PUSH1 0x4 MSTORE DUP1 PUSH1 0x44 MSTORE PUSH1 0x0 JUMPDEST DUP2 ISZERO PUSH2 0x1309 JUMPI DUP2 PUSH1 0x8 SHL SWAP2 POP PUSH1 0x1 DUP2 ADD SWAP1 POP PUSH2 0x12F2 JUMP JUMPDEST DUP1 PUSH1 0x24 MSTORE PUSH1 0x64 PUSH1 0x0 REVERT JUMPDEST DUP2 DUP2 EQ PUSH1 0x0 DUP2 SUB PUSH2 0x1328 JUMPI PUSH2 0x1327 DUP5 PUSH2 0x12DB JUMP JUMPDEST JUMPDEST POP POP POP POP JUMP JUMPDEST DUP4 PUSH2 0x1339 DUP7 DUP3 PUSH2 0x1251 JUMP JUMPDEST SWAP4 POP SWAP4 POP SWAP1 POP DUP4 DUP6 ADD DUP2 EQ PUSH2 0x1372 JUMPI PUSH2 0x1371 PUSH32 0x424F554E44530000000000000000000000000000000000000000000000000000 PUSH2 0x12DB JUMP JUMPDEST JUMPDEST POP SWAP4 POP SWAP4 SWAP2 POP POP JUMP JUMPDEST DUP4 TIMESTAMP LT PUSH2 0x13BD JUMPI PUSH1 0x40 MLOAD PUSH32 0x8C379A000000000000000000000000000000000000000000000000000000000 DUP2 MSTORE PUSH1 0x4 ADD PUSH2 0x13B4 SWAP1 PUSH2 0x1DDF JUMP JUMPDEST PUSH1 0x40 MLOAD DUP1 SWAP2 SUB SWAP1 REVERT JUMPDEST PUSH1 0x0 DUP9 DUP9 DUP9 DUP9 DUP9 DUP9 DUP9 DUP9 PUSH1 0x40 MLOAD PUSH1 0x20 ADD PUSH2 0x13DE SWAP9 SWAP8 SWAP7 SWAP6 SWAP5 SWAP4 SWAP3 SWAP2 SWAP1 PUSH2 0x1B6B JUMP JUMPDEST PUSH1 0x40 MLOAD PUSH1 0x20 DUP2 DUP4 SUB SUB DUP2 MSTORE SWAP1 PUSH1 0x40 MSTORE DUP1 MLOAD SWAP1 PUSH1 0x20 ADD KECCAK256 SWAP1 POP PUSH1 0x0 DUP7 EQ PUSH2 0x1409 JUMPI PUSH2 0x1408 ORIGIN DUP8 PUSH2 0x14D8 JUMP JUMPDEST JUMPDEST DUP9 PUSH1 0x0 DUP1 PUSH2 0x100 EXP DUP2 SLOAD DUP2 PUSH20 0xFFFFFFFFFFFFFFFFFFFFFFFFFFFFFFFFFFFFFFFF MUL NOT AND SWAP1 DUP4 PUSH20 0xFFFFFFFFFFFFFFFFFFFFFFFFFFFFFFFFFFFFFFFF AND MUL OR SWAP1 SSTORE POP PUSH2 0x1455 DUP9 DUP9 DUP6 DUP6 PUSH2 0x1589 JUMP JUMPDEST PUSH1 0x0 DUP1 PUSH1 0x0 PUSH2 0x100 EXP DUP2 SLOAD DUP2 PUSH20 0xFFFFFFFFFFFFFFFFFFFFFFFFFFFFFFFFFFFFFFFF MUL NOT AND SWAP1 DUP4 PUSH20 0xFFFFFFFFFFFFFFFFFFFFFFFFFFFFFFFFFFFFFFFF AND MUL OR SWAP1 SSTORE POP PUSH32 0xFA39010B12E169F2D7E9A76E381216416DBF5EB59DB117AE979592EE9F323885 DUP2 PUSH1 0x40 MLOAD PUSH2 0x14C5 SWAP2 SWAP1 PUSH2 0x1E0E JUMP JUMPDEST PUSH1 0x40 MLOAD DUP1 SWAP2 SUB SWAP1 LOG1 POP POP POP POP POP POP POP POP POP JUMP JUMPDEST PUSH1 0x0 DUP3 PUSH20 0xFFFFFFFFFFFFFFFFFFFFFFFFFFFFFFFFFFFFFFFF AND DUP3 PUSH1 0x40 MLOAD PUSH2 0x14FE SWAP1 PUSH2 0x1E5A JUMP JUMPDEST PUSH1 0x0 PUSH1 0x40 MLOAD DUP1 DUP4 SUB DUP2 DUP6 DUP8 GAS CALL SWAP3 POP POP POP RETURNDATASIZE DUP1 PUSH1 0x0 DUP2 EQ PUSH2 0x153B JUMPI PUSH1 0x40 MLOAD SWAP2 POP PUSH1 0x1F NOT PUSH1 0x3F RETURNDATASIZE ADD AND DUP3 ADD PUSH1 0x40 MSTORE RETURNDATASIZE DUP3 MSTORE RETURNDATASIZE PUSH1 0x0 PUSH1 0x20 DUP5 ADD RETURNDATACOPY PUSH2 0x1540 JUMP JUMPDEST PUSH1 0x60 SWAP2 POP JUMPDEST POP POP SWAP1 POP DUP1 PUSH2 0x1584 JUMPI PUSH1 0x40 MLOAD PUSH32 0x8C379A000000000000000000000000000000000000000000000000000000000 DUP2 MSTORE PUSH1 0x4 ADD PUSH2 0x157B SWAP1 PUSH2 0x1EBB JUMP JUMPDEST PUSH1 0x40 MLOAD DUP1 SWAP2 SUB SWAP1 REVERT JUMPDEST POP POP POP JUMP JUMPDEST PUSH1 0x80 DUP2 DUP4 DUP3 CALLDATACOPY PUSH1 0x0 DUP1 DUP4 DUP4 DUP8 DUP10 GAS CALL PUSH2 0x15A6 JUMPI RETURNDATASIZE PUSH1 0x0 DUP1 RETURNDATACOPY RETURNDATASIZE PUSH1 0x0 REVERT JUMPDEST POP POP POP POP POP JUMP JUMPDEST PUSH1 0x0 DUP3 DUP3 MSTORE PUSH1 0x20 DUP3 ADD SWAP1 POP SWAP3 SWAP2 POP POP JUMP JUMPDEST PUSH32 0x4D53454453000000000000000000000000000000000000000000000000000000 PUSH1 0x0 DUP3 ADD MSTORE POP JUMP JUMPDEST PUSH1 0x0 PUSH2 0x15F4 PUSH1 0x5 DUP4 PUSH2 0x15AD JUMP JUMPDEST SWAP2 POP PUSH2 0x15FF DUP3 PUSH2 0x15BE JUMP JUMPDEST PUSH1 0x20 DUP3 ADD SWAP1 POP SWAP2 SWAP1 POP JUMP JUMPDEST PUSH1 0x0 PUSH1 0x20 DUP3 ADD SWAP1 POP DUP2 DUP2 SUB PUSH1 0x0 DUP4 ADD MSTORE PUSH2 0x1623 DUP2 PUSH2 0x15E7 JUMP JUMPDEST SWAP1 POP SWAP2 SWAP1 POP JUMP JUMPDEST PUSH1 0x0 DUP1 REVERT JUMPDEST PUSH1 0x0 DUP1 REVERT JUMPDEST PUSH1 0x0 DUP2 SWAP1 POP SWAP2 SWAP1 POP JUMP JUMPDEST PUSH2 0x1647 DUP2 PUSH2 0x1634 JUMP JUMPDEST DUP2 EQ PUSH2 0x1652 JUMPI PUSH1 0x0 DUP1 REVERT JUMPDEST POP JUMP JUMPDEST PUSH1 0x0 DUP2 CALLDATALOAD SWAP1 POP PUSH2 0x1664 DUP2 PUSH2 0x163E JUMP JUMPDEST SWAP3 SWAP2 POP POP JUMP JUMPDEST PUSH1 0x0 PUSH1 0x20 DUP3 DUP5 SUB SLT ISZERO PUSH2 0x1680 JUMPI PUSH2 0x167F PUSH2 0x162A JUMP JUMPDEST JUMPDEST PUSH1 0x0 PUSH2 0x168E DUP5 DUP3 DUP6 ADD PUSH2 0x1655 JUMP JUMPDEST SWAP2 POP POP SWAP3 SWAP2 POP POP JUMP JUMPDEST PUSH1 0x0 DUP2 SWAP1 POP SWAP2 SWAP1 POP JUMP JUMPDEST PUSH2 0x16AA DUP2 PUSH2 0x1697 JUMP JUMPDEST DUP3 MSTORE POP POP JUMP JUMPDEST PUSH1 0x0 PUSH1 0x20 DUP3 ADD SWAP1 POP PUSH2 0x16C5 PUSH1 0x0 DUP4 ADD DUP5 PUSH2 0x16A1 JUMP JUMPDEST SWAP3 SWAP2 POP POP JUMP JUMPDEST PUSH1 0x0 PUSH20 0xFFFFFFFFFFFFFFFFFFFFFFFFFFFFFFFFFFFFFFFF DUP3 AND SWAP1 POP SWAP2 SWAP1 POP JUMP JUMPDEST PUSH1 0x0 PUSH2 0x16F6 DUP3 PUSH2 0x16CB JUMP JUMPDEST SWAP1 POP SWAP2 SWAP1 POP JUMP JUMPDEST PUSH2 0x1706 DUP2 PUSH2 0x16EB JUMP JUMPDEST DUP3 MSTORE POP POP JUMP JUMPDEST PUSH1 0x0 PUSH1 0x20 DUP3 ADD SWAP1 POP PUSH2 0x1721 PUSH1 0x0 DUP4 ADD DUP5 PUSH2 0x16FD JUMP JUMPDEST SWAP3 SWAP2 POP POP JUMP JUMPDEST PUSH2 0x1730 DUP2 PUSH2 0x1697 JUMP JUMPDEST DUP2 EQ PUSH2 0x173B JUMPI PUSH1 0x0 DUP1 REVERT JUMPDEST POP JUMP JUMPDEST PUSH1 0x0 DUP2 CALLDATALOAD SWAP1 POP PUSH2 0x174D DUP2 PUSH2 0x1727 JUMP JUMPDEST SWAP3 SWAP2 POP POP JUMP JUMPDEST PUSH1 0x0 DUP1 PUSH1 0x40 DUP4 DUP6 SUB SLT ISZERO PUSH2 0x176A JUMPI PUSH2 0x1769 PUSH2 0x162A JUMP JUMPDEST JUMPDEST PUSH1 0x0 PUSH2 0x1778 DUP6 DUP3 DUP7 ADD PUSH2 0x173E JUMP JUMPDEST SWAP3 POP POP PUSH1 0x20 PUSH2 0x1789 DUP6 DUP3 DUP7 ADD PUSH2 0x1655 JUMP JUMPDEST SWAP2 POP POP SWAP3 POP SWAP3 SWAP1 POP JUMP JUMPDEST PUSH1 0x0 DUP1 REVERT JUMPDEST PUSH1 0x0 DUP1 REVERT JUMPDEST PUSH1 0x0 DUP1 REVERT JUMPDEST PUSH1 0x0 DUP1 DUP4 PUSH1 0x1F DUP5 ADD SLT PUSH2 0x17B8 JUMPI PUSH2 0x17B7 PUSH2 0x1793 JUMP JUMPDEST JUMPDEST DUP3 CALLDATALOAD SWAP1 POP PUSH8 0xFFFFFFFFFFFFFFFF DUP2 GT ISZERO PUSH2 0x17D5 JUMPI PUSH2 0x17D4 PUSH2 0x1798 JUMP JUMPDEST JUMPDEST PUSH1 0x20 DUP4 ADD SWAP2 POP DUP4 PUSH1 0x1 DUP3 MUL DUP4 ADD GT ISZERO PUSH2 0x17F1 JUMPI PUSH2 0x17F0 PUSH2 0x179D JUMP JUMPDEST JUMPDEST SWAP3 POP SWAP3 SWAP1 POP JUMP JUMPDEST PUSH1 0x0 DUP1 PUSH1 0x0 DUP1 PUSH1 0x40 DUP6 DUP8 SUB SLT ISZERO PUSH2 0x1812 JUMPI PUSH2 0x1811 PUSH2 0x162A JUMP JUMPDEST JUMPDEST PUSH1 0x0 DUP6 ADD CALLDATALOAD PUSH8 0xFFFFFFFFFFFFFFFF DUP2 GT ISZERO PUSH2 0x1830 JUMPI PUSH2 0x182F PUSH2 0x162F JUMP JUMPDEST JUMPDEST PUSH2 0x183C DUP8 DUP3 DUP9 ADD PUSH2 0x17A2 JUMP JUMPDEST SWAP5 POP SWAP5 POP POP PUSH1 0x20 DUP6 ADD CALLDATALOAD PUSH8 0xFFFFFFFFFFFFFFFF DUP2 GT ISZERO PUSH2 0x185F JUMPI PUSH2 0x185E PUSH2 0x162F JUMP JUMPDEST JUMPDEST PUSH2 0x186B DUP8 DUP3 DUP9 ADD PUSH2 0x17A2 JUMP JUMPDEST SWAP3 POP SWAP3 POP POP SWAP3 SWAP6 SWAP2 SWAP5 POP SWAP3 POP JUMP JUMPDEST PUSH2 0x1882 DUP2 PUSH2 0x16EB JUMP JUMPDEST DUP2 EQ PUSH2 0x188D JUMPI PUSH1 0x0 DUP1 REVERT JUMPDEST POP JUMP JUMPDEST PUSH1 0x0 DUP2 CALLDATALOAD SWAP1 POP PUSH2 0x189F DUP2 PUSH2 0x1879 JUMP JUMPDEST SWAP3 SWAP2 POP POP JUMP JUMPDEST PUSH1 0x0 DUP1 PUSH1 0x0 DUP1 PUSH1 0x0 DUP1 PUSH1 0x0 DUP1 PUSH1 0x0 DUP1 PUSH2 0x100 DUP12 DUP14 SUB SLT ISZERO PUSH2 0x18C9 JUMPI PUSH2 0x18C8 PUSH2 0x162A JUMP JUMPDEST JUMPDEST PUSH1 0x0 PUSH2 0x18D7 DUP14 DUP3 DUP15 ADD PUSH2 0x1890 JUMP JUMPDEST SWAP11 POP POP PUSH1 0x20 PUSH2 0x18E8 DUP14 DUP3 DUP15 ADD PUSH2 0x1890 JUMP JUMPDEST SWAP10 POP POP PUSH1 0x40 PUSH2 0x18F9 DUP14 DUP3 DUP15 ADD PUSH2 0x173E JUMP JUMPDEST SWAP9 POP POP PUSH1 0x60 PUSH2 0x190A DUP14 DUP3 DUP15 ADD PUSH2 0x173E JUMP JUMPDEST SWAP8 POP POP PUSH1 0x80 PUSH2 0x191B DUP14 DUP3 DUP15 ADD PUSH2 0x173E JUMP JUMPDEST SWAP7 POP POP PUSH1 0xA0 PUSH2 0x192C DUP14 DUP3 DUP15 ADD PUSH2 0x173E JUMP JUMPDEST SWAP6 POP POP PUSH1 0xC0 DUP12 ADD CALLDATALOAD PUSH8 0xFFFFFFFFFFFFFFFF DUP2 GT ISZERO PUSH2 0x194D JUMPI PUSH2 0x194C PUSH2 0x162F JUMP JUMPDEST JUMPDEST PUSH2 0x1959 DUP14 DUP3 DUP15 ADD PUSH2 0x17A2 JUMP JUMPDEST SWAP5 POP SWAP5 POP POP PUSH1 0xE0 DUP12 ADD CALLDATALOAD PUSH8 0xFFFFFFFFFFFFFFFF DUP2 GT ISZERO PUSH2 0x197C JUMPI PUSH2 0x197B PUSH2 0x162F JUMP JUMPDEST JUMPDEST PUSH2 0x1988 DUP14 DUP3 DUP15 ADD PUSH2 0x17A2 JUMP JUMPDEST SWAP3 POP SWAP3 POP POP SWAP3 SWAP6 SWAP9 SWAP12 SWAP2 SWAP5 SWAP8 SWAP11 POP SWAP3 SWAP6 SWAP9 POP JUMP JUMPDEST PUSH1 0x0 PUSH1 0x20 DUP3 DUP5 SUB SLT ISZERO PUSH2 0x19B2 JUMPI PUSH2 0x19B1 PUSH2 0x162A JUMP JUMPDEST JUMPDEST PUSH1 0x0 PUSH2 0x19C0 DUP5 DUP3 DUP6 ADD PUSH2 0x173E JUMP JUMPDEST SWAP2 POP POP SWAP3 SWAP2 POP POP JUMP JUMPDEST PUSH32 0x4841534800000000000000000000000000000000000000000000000000000000 PUSH1 0x0 DUP3 ADD MSTORE POP JUMP JUMPDEST PUSH1 0x0 PUSH2 0x19FF PUSH1 0x4 DUP4 PUSH2 0x15AD JUMP JUMPDEST SWAP2 POP PUSH2 0x1A0A DUP3 PUSH2 0x19C9 JUMP JUMPDEST PUSH1 0x20 DUP3 ADD SWAP1 POP SWAP2 SWAP1 POP JUMP JUMPDEST PUSH1 0x0 PUSH1 0x20 DUP3 ADD SWAP1 POP DUP2 DUP2 SUB PUSH1 0x0 DUP4 ADD MSTORE PUSH2 0x1A2E DUP2 PUSH2 0x19F2 JUMP JUMPDEST SWAP1 POP SWAP2 SWAP1 POP JUMP JUMPDEST PUSH32 0x444D524F4F540000000000000000000000000000000000000000000000000000 PUSH1 0x0 DUP3 ADD MSTORE POP JUMP JUMPDEST PUSH1 0x0 PUSH2 0x1A6B PUSH1 0x6 DUP4 PUSH2 0x15AD JUMP JUMPDEST SWAP2 POP PUSH2 0x1A76 DUP3 PUSH2 0x1A35 JUMP JUMPDEST PUSH1 0x20 DUP3 ADD SWAP1 POP SWAP2 SWAP1 POP JUMP JUMPDEST PUSH1 0x0 PUSH1 0x20 DUP3 ADD SWAP1 POP DUP2 DUP2 SUB PUSH1 0x0 DUP4 ADD MSTORE PUSH2 0x1A9A DUP2 PUSH2 0x1A5E JUMP JUMPDEST SWAP1 POP SWAP2 SWAP1 POP JUMP JUMPDEST PUSH32 0x544E454400000000000000000000000000000000000000000000000000000000 PUSH1 0x0 DUP3 ADD MSTORE POP JUMP JUMPDEST PUSH1 0x0 PUSH2 0x1AD7 PUSH1 0x4 DUP4 PUSH2 0x15AD JUMP JUMPDEST SWAP2 POP PUSH2 0x1AE2 DUP3 PUSH2 0x1AA1 JUMP JUMPDEST PUSH1 0x20 DUP3 ADD SWAP1 POP SWAP2 SWAP1 POP JUMP JUMPDEST PUSH1 0x0 PUSH1 0x20 DUP3 ADD SWAP1 POP DUP2 DUP2 SUB PUSH1 0x0 DUP4 ADD MSTORE PUSH2 0x1B06 DUP2 PUSH2 0x1ACA JUMP JUMPDEST SWAP1 POP SWAP2 SWAP1 POP JUMP JUMPDEST PUSH1 0x0 DUP3 DUP3 MSTORE PUSH1 0x20 DUP3 ADD SWAP1 POP SWAP3 SWAP2 POP POP JUMP JUMPDEST DUP3 DUP2 DUP4 CALLDATACOPY PUSH1 0x0 DUP4 DUP4 ADD MSTORE POP POP POP JUMP JUMPDEST PUSH1 0x0 PUSH1 0x1F NOT PUSH1 0x1F DUP4 ADD AND SWAP1 POP SWAP2 SWAP1 POP JUMP JUMPDEST PUSH1 0x0 PUSH2 0x1B4A DUP4 DUP6 PUSH2 0x1B0D JUMP JUMPDEST SWAP4 POP PUSH2 0x1B57 DUP4 DUP6 DUP5 PUSH2 0x1B1E JUMP JUMPDEST PUSH2 0x1B60 DUP4 PUSH2 0x1B2D JUMP JUMPDEST DUP5 ADD SWAP1 POP SWAP4 SWAP3 POP POP POP JUMP JUMPDEST PUSH1 0x0 PUSH1 0xE0 DUP3 ADD SWAP1 POP PUSH2 0x1B80 PUSH1 0x0 DUP4 ADD DUP12 PUSH2 0x16FD JUMP JUMPDEST PUSH2 0x1B8D PUSH1 0x20 DUP4 ADD DUP11 PUSH2 0x16FD JUMP JUMPDEST PUSH2 0x1B9A PUSH1 0x40 DUP4 ADD DUP10 PUSH2 0x16A1 JUMP JUMPDEST PUSH2 0x1BA7 PUSH1 0x60 DUP4 ADD DUP9 PUSH2 0x16A1 JUMP JUMPDEST PUSH2 0x1BB4 PUSH1 0x80 DUP4 ADD DUP8 PUSH2 0x16A1 JUMP JUMPDEST PUSH2 0x1BC1 PUSH1 0xA0 DUP4 ADD DUP7 PUSH2 0x16A1 JUMP JUMPDEST DUP2 DUP2 SUB PUSH1 0xC0 DUP4 ADD MSTORE PUSH2 0x1BD4 DUP2 DUP5 DUP7 PUSH2 0x1B3E JUMP JUMPDEST SWAP1 POP SWAP10 SWAP9 POP POP POP POP POP POP POP POP POP JUMP JUMPDEST PUSH32 0x5354524F4F540000000000000000000000000000000000000000000000000000 PUSH1 0x0 DUP3 ADD MSTORE POP JUMP JUMPDEST PUSH1 0x0 PUSH2 0x1C19 PUSH1 0x6 DUP4 PUSH2 0x15AD JUMP JUMPDEST SWAP2 POP PUSH2 0x1C24 DUP3 PUSH2 0x1BE3 JUMP JUMPDEST PUSH1 0x20 DUP3 ADD SWAP1 POP SWAP2 SWAP1 POP JUMP JUMPDEST PUSH1 0x0 PUSH1 0x20 DUP3 ADD SWAP1 POP DUP2 DUP2 SUB PUSH1 0x0 DUP4 ADD MSTORE PUSH2 0x1C48 DUP2 PUSH2 0x1C0C JUMP JUMPDEST SWAP1 POP SWAP2 SWAP1 POP JUMP JUMPDEST PUSH32 0x444D545300000000000000000000000000000000000000000000000000000000 PUSH1 0x0 DUP3 ADD MSTORE POP JUMP JUMPDEST PUSH1 0x0 PUSH2 0x1C85 PUSH1 0x4 DUP4 PUSH2 0x15AD JUMP JUMPDEST SWAP2 POP PUSH2 0x1C90 DUP3 PUSH2 0x1C4F JUMP JUMPDEST PUSH1 0x20 DUP3 ADD SWAP1 POP SWAP2 SWAP1 POP JUMP JUMPDEST PUSH1 0x0 PUSH1 0x20 DUP3 ADD SWAP1 POP DUP2 DUP2 SUB PUSH1 0x0 DUP4 ADD MSTORE PUSH2 0x1CB4 DUP2 PUSH2 0x1C78 JUMP JUMPDEST SWAP1 POP SWAP2 SWAP1 POP JUMP JUMPDEST PUSH32 0x444D56414C000000000000000000000000000000000000000000000000000000 PUSH1 0x0 DUP3 ADD MSTORE POP JUMP JUMPDEST PUSH1 0x0 PUSH2 0x1CF1 PUSH1 0x5 DUP4 PUSH2 0x15AD JUMP JUMPDEST SWAP2 POP PUSH2 0x1CFC DUP3 PUSH2 0x1CBB JUMP JUMPDEST PUSH1 0x20 DUP3 ADD SWAP1 POP SWAP2 SWAP1 POP JUMP JUMPDEST PUSH1 0x0 PUSH1 0x20 DUP3 ADD SWAP1 POP DUP2 DUP2 SUB PUSH1 0x0 DUP4 ADD MSTORE PUSH2 0x1D20 DUP2 PUSH2 0x1CE4 JUMP JUMPDEST SWAP1 POP SWAP2 SWAP1 POP JUMP JUMPDEST PUSH32 0x454F410000000000000000000000000000000000000000000000000000000000 PUSH1 0x0 DUP3 ADD MSTORE POP JUMP JUMPDEST PUSH1 0x0 PUSH2 0x1D5D PUSH1 0x3 DUP4 PUSH2 0x15AD JUMP JUMPDEST SWAP2 POP PUSH2 0x1D68 DUP3 PUSH2 0x1D27 JUMP JUMPDEST PUSH1 0x20 DUP3 ADD SWAP1 POP SWAP2 SWAP1 POP JUMP JUMPDEST PUSH1 0x0 PUSH1 0x20 DUP3 ADD SWAP1 POP DUP2 DUP2 SUB PUSH1 0x0 DUP4 ADD MSTORE PUSH2 0x1D8C DUP2 PUSH2 0x1D50 JUMP JUMPDEST SWAP1 POP SWAP2 SWAP1 POP JUMP JUMPDEST PUSH32 0x444D440000000000000000000000000000000000000000000000000000000000 PUSH1 0x0 DUP3 ADD MSTORE POP JUMP JUMPDEST PUSH1 0x0 PUSH2 0x1DC9 PUSH1 0x3 DUP4 PUSH2 0x15AD JUMP JUMPDEST SWAP2 POP PUSH2 0x1DD4 DUP3 PUSH2 0x1D93 JUMP JUMPDEST PUSH1 0x20 DUP3 ADD SWAP1 POP SWAP2 SWAP1 POP JUMP JUMPDEST PUSH1 0x0 PUSH1 0x20 DUP3 ADD SWAP1 POP DUP2 DUP2 SUB PUSH1 0x0 DUP4 ADD MSTORE PUSH2 0x1DF8 DUP2 PUSH2 0x1DBC JUMP JUMPDEST SWAP1 POP SWAP2 SWAP1 POP JUMP JUMPDEST PUSH2 0x1E08 DUP2 PUSH2 0x1634 JUMP JUMPDEST DUP3 MSTORE POP POP JUMP JUMPDEST PUSH1 0x0 PUSH1 0x20 DUP3 ADD SWAP1 POP PUSH2 0x1E23 PUSH1 0x0 DUP4 ADD DUP5 PUSH2 0x1DFF JUMP JUMPDEST SWAP3 SWAP2 POP POP JUMP JUMPDEST PUSH1 0x0 DUP2 SWAP1 POP SWAP3 SWAP2 POP POP JUMP JUMPDEST POP JUMP JUMPDEST PUSH1 0x0 PUSH2 0x1E44 PUSH1 0x0 DUP4 PUSH2 0x1E29 JUMP JUMPDEST SWAP2 POP PUSH2 0x1E4F DUP3 PUSH2 0x1E34 JUMP JUMPDEST PUSH1 0x0 DUP3 ADD SWAP1 POP SWAP2 SWAP1 POP JUMP JUMPDEST PUSH1 0x0 PUSH2 0x1E65 DUP3 PUSH2 0x1E37 JUMP JUMPDEST SWAP2 POP DUP2 SWAP1 POP SWAP2 SWAP1 POP JUMP JUMPDEST PUSH32 0x5445544800000000000000000000000000000000000000000000000000000000 PUSH1 0x0 DUP3 ADD MSTORE POP JUMP JUMPDEST PUSH1 0x0 PUSH2 0x1EA5 PUSH1 0x4 DUP4 PUSH2 0x15AD JUMP JUMPDEST SWAP2 POP PUSH2 0x1EB0 DUP3 PUSH2 0x1E6F JUMP JUMPDEST PUSH1 0x20 DUP3 ADD SWAP1 POP SWAP2 SWAP1 POP JUMP JUMPDEST PUSH1 0x0 PUSH1 0x20 DUP3 ADD SWAP1 POP DUP2 DUP2 SUB PUSH1 0x0 DUP4 ADD MSTORE PUSH2 0x1ED4 DUP2 PUSH2 0x1E98 JUMP JUMPDEST SWAP1 POP SWAP2 SWAP1 POP JUMP INVALID LOG2 PUSH5 0x6970667358 0x22 SLT KECCAK256 0xAE OR CALLDATASIZE BLOCKHASH 0xF9 0xAA NOT TIMESTAMP DUP2 COINBASE 0x2D 0xDC LOG1 OR 0xD1 SDIV 0xD 0x5D 0x4B BYTE 0xAF PUSH27 0x7DE154E7C9FE1C0934BA64736F6C63430008100033000000000000 "
		},
		"gasEstimates": {
			"creation": {
				"codeDepositCost": "1590600",
				"executionCost": "1666",
				"totalCost": "1592266"
			},
			"external": {
				"deliverMessageWithProof(address,address,uint256,uint256,uint256,uint256,bytes,bytes)": "infinite",
				"getTimestampForStorageRoot(bytes32)": "2758",
				"importForeignBlock(uint256,bytes32)": "22772",
				"importForeignBridgeState(bytes,bytes)": "infinite",
				"messageOrigin()": "2522",
				"requestETH(uint256)": "infinite"
			}
		},
		"methodIdentifiers": {
			"deliverMessageWithProof(address,address,uint256,uint256,uint256,uint256,bytes,bytes)": "8dfbfead",
			"getTimestampForStorageRoot(bytes32)": "312faf74",
			"importForeignBlock(uint256,bytes32)": "49a435e2",
			"importForeignBridgeState(bytes,bytes)": "6e94aac5",
			"messageOrigin()": "3b1623fe",
			"requestETH(uint256)": "fcd5e7b3"
		}
	},
	"abi": [
		{
			"anonymous": false,
			"inputs": [
				{
					"indexed": false,
					"internalType": "bytes32",
					"name": "blockHash",
					"type": "bytes32"
				}
			],
			"name": "BlockFinalized",
			"type": "event"
		},
		{
			"anonymous": false,
			"inputs": [],
			"name": "BlockSubmitted",
			"type": "event"
		},
		{
			"anonymous": false,
			"inputs": [
				{
					"indexed": true,
					"internalType": "bytes32",
					"name": "blockHash",
					"type": "bytes32"
				},
				{
					"indexed": true,
					"internalType": "bytes32",
					"name": "stateRoot",
					"type": "bytes32"
				},
				{
					"indexed": false,
					"internalType": "uint256",
					"name": "timestamp",
					"type": "uint256"
				}
			],
			"name": "ForeignBridgeStateImported",
			"type": "event"
		},
		{
			"anonymous": false,
			"inputs": [
				{
					"indexed": false,
					"internalType": "bytes32",
					"name": "id",
					"type": "bytes32"
				}
			],
			"name": "MessageDelivered",
			"type": "event"
		},
		{
			"anonymous": false,
			"inputs": [
				{
					"indexed": false,
					"internalType": "address",
					"name": "from",
					"type": "address"
				},
				{
					"indexed": false,
					"internalType": "address",
					"name": "to",
					"type": "address"
				},
				{
					"indexed": false,
					"internalType": "uint256",
					"name": "value",
					"type": "uint256"
				},
				{
					"indexed": false,
					"internalType": "uint256",
					"name": "fee",
					"type": "uint256"
				},
				{
					"indexed": false,
					"internalType": "uint256",
					"name": "deadline",
					"type": "uint256"
				},
				{
					"indexed": false,
					"internalType": "uint256",
					"name": "nonce",
					"type": "uint256"
				},
				{
					"indexed": false,
					"internalType": "bytes",
					"name": "data",
					"type": "bytes"
				}
			],
			"name": "MessageDispatched",
			"type": "event"
		},
		{
			"anonymous": false,
			"inputs": [
				{
					"indexed": false,
					"internalType": "bytes32",
					"name": "id",
					"type": "bytes32"
				}
			],
			"name": "MessageDropped",
			"type": "event"
		},
		{
			"inputs": [
				{
					"internalType": "address",
					"name": "from",
					"type": "address"
				},
				{
					"internalType": "address",
					"name": "to",
					"type": "address"
				},
				{
					"internalType": "uint256",
					"name": "value",
					"type": "uint256"
				},
				{
					"internalType": "uint256",
					"name": "fee",
					"type": "uint256"
				},
				{
					"internalType": "uint256",
					"name": "deadline",
					"type": "uint256"
				},
				{
					"internalType": "uint256",
					"name": "nonce",
					"type": "uint256"
				},
				{
					"internalType": "bytes",
					"name": "data",
					"type": "bytes"
				},
				{
					"internalType": "bytes",
					"name": "storageProof",
					"type": "bytes"
				}
			],
			"name": "deliverMessageWithProof",
			"outputs": [],
			"stateMutability": "nonpayable",
			"type": "function"
		},
		{
			"inputs": [
				{
					"internalType": "bytes32",
					"name": "val",
					"type": "bytes32"
				}
			],
			"name": "getTimestampForStorageRoot",
			"outputs": [
				{
					"internalType": "uint256",
					"name": "",
					"type": "uint256"
				}
			],
			"stateMutability": "view",
			"type": "function"
		},
		{
			"inputs": [
				{
					"internalType": "uint256",
					"name": "",
					"type": "uint256"
				},
				{
					"internalType": "bytes32",
					"name": "blockHash",
					"type": "bytes32"
				}
			],
			"name": "importForeignBlock",
			"outputs": [],
			"stateMutability": "nonpayable",
			"type": "function"
		},
		{
			"inputs": [
				{
					"internalType": "bytes",
					"name": "blockHeader",
					"type": "bytes"
				},
				{
					"internalType": "bytes",
					"name": "accountProof",
					"type": "bytes"
				}
			],
			"name": "importForeignBridgeState",
			"outputs": [],
			"stateMutability": "nonpayable",
			"type": "function"
		},
		{
			"inputs": [],
			"name": "messageOrigin",
			"outputs": [
				{
					"internalType": "address",
					"name": "",
					"type": "address"
				}
			],
			"stateMutability": "view",
			"type": "function"
		},
		{
			"inputs": [
				{
					"internalType": "uint256",
					"name": "amount",
					"type": "uint256"
				}
			],
			"name": "requestETH",
			"outputs": [],
			"stateMutability": "nonpayable",
			"type": "function"
		},
		{
			"stateMutability": "payable",
			"type": "receive"
		}
	]
}