{
	"data": {
		"bytecode": {
			"linkReferences": {},
			"object": "608060405234801561001057600080fd5b50611dc8806100206000396000f3fe6080604052600436106100a75760003560e01c80635d4d3bcd116100645780635d4d3bcd146101a5578063601333d1146101b85780636e94aac5146101e55780638dfbfead1461020557806394907e7e14610225578063d51073811461024557600080fd5b80631cdcf85a146100ac5780631d7161a2146100c35780632822697b14610103578063312faf74146101235780633b1623fe14610150578063594a90ba14610178575b600080fd5b3480156100b857600080fd5b506100c1610265565b005b3480156100cf57600080fd5b506100f06100de366004611a17565b60026020526000908152604090205481565b6040519081526020015b60405180910390f35b34801561010f57600080fd5b506100c161011e366004611a8e565b61029f565b34801561012f57600080fd5b506100f061013e366004611a17565b60009081526003602052604090205490565b34801561015c57600080fd5b506000546040516001600160a01b0390911681526020016100fa565b34801561018457600080fd5b50610198610193366004611b49565b6103a7565b6040516100fa9190611b8b565b6100f06101b3366004611bcf565b610400565b3480156101c457600080fd5b506100c16101d3366004611c40565b60009182526002602052604090912055565b3480156101f157600080fd5b506100c1610200366004611c62565b61041b565b34801561021157600080fd5b506100c1610220366004611a8e565b610594565b34801561023157600080fd5b506100c1610240366004611b49565b610690565b34801561025157600080fd5b506100c1610260366004611b49565b6107f0565b6004805b368110156100c157803560e01c60008184840182379181018301918080838180305af1610298573d81823e3d81fd5b5050610269565b60008a8a8a8a8a8a8a8a6040516020016102c0989796959493929190611cce565b6040516020818303038152906040528051906020012090506000806103006102f9846331df76a460009081526020919091526040902090565b86866108aa565b909250905080156103405760405162461bcd60e51b8152602060048201526005602482015264111355905360da1b60448201526064015b60405180910390fd5b6000828152600360205260409020548981116103875760405162461bcd60e51b815260040161033790602080825260049082015263444d545360e01b604082015260600190565b6103978e8e8e8e8e8e8e8e610d03565b5050505050505050505050505050565b60606000806103b68585610e1e565b5060008581526002602052604081205495975090955061cf55935091508190506103df85610f15565b915091506103f3828285878d8d6001610f7f565b9998505050505050505050565b6000610410878787878787611592565b979650505050505050565b6000806104288686610e1e565b9550505050925050600080610441620200008787611676565b60008681526002602052604081205492945090925081900361048d5760405162461bcd60e51b8152602060048201526005602482015264424c4f434b60d81b6044820152606401610337565b8083146104c55760405162461bcd60e51b815260206004820152600660248201526512509493d3d560d21b6044820152606401610337565b60008290036105015760405162461bcd60e51b8152602060048201526008602482015267125094d51493d3d560c21b6044820152606401610337565b8360000361053a5760405162461bcd60e51b8152600401610337906020808252600490820152634942545360e01b604082015260600190565b6000828152600360205260409081902085905551819086907f9d70f54d5d379e4b92c497936411380303c56bfb08caed66b62c94380ad153db906105819088815260200190565b60405180910390a3505050505050505050565b60008a8a8a8a8a8a8a8a6040516020016105b5989796959493929190611cce565b6040516020818303038152906040528051906020012090506000806105ee6102f9846331df76a460009081526020919091526040902090565b600082815260036020526040812054929450909250036106395760405162461bcd60e51b815260206004820152600660248201526511135493d3d560d21b6044820152606401610337565b600181146106715760405162461bcd60e51b8152602060048201526005602482015264111355905360da1b6044820152606401610337565b6106818d8d8d8d8d8d8d8d61183b565b50505050505050505050505050565b6101ff81116106cd5760405162461bcd60e51b8152602060048201526009602482015268282927a7a32fa622a760b91b6044820152606401610337565b8135600081815260016020526040902054610719565b6308c379a060e01b60005260206004528060445260005b811561070f5760089190911b906001016106fa565b8060245260646000fd5b60a06040518160608701823720818114610748576107486e0c6dedadad2e8dacadce840d0c2e6d608b1b6106e3565b50602084018035803b80610772576107726f7665726966696572206d697373696e6760801b6106e3565b5060608503604083019250604051818482376000808383865afa935050505080600081036107b5576107b56e1d995c9a599a595c8819985a5b1959608a1b6106e3565b50506040518281527f13a323bd8c6a1bee4a59d9f8a556a6b14ed08c656b9c36c57903c70865648cca9060200160405180910390a150505050565b6107f8611930565b6040517fcdf35dca8304861a13f78fcd9aa4cbe5bd689d13c643b4c875cccbfae3cbf67c90600090a16000806000806108318686610e1e565b5060008581526002602052604081205495995093975091955090935061cf559190508061085d85610f15565b915091506000610873838386888f8f6001610f7f565b80516020908102918101919091206000998a52600182526040808b2091909155600290915290972095909555505050505050505050565b600080610cce565b80608081106108d157602083116108d15760ff60071960088502011b19165b92915050565b600080823560001a60f88110156108f95760be19019360019390930192915050565b60f78103600481111561090857fe5b60018581013560088302610100031c8201810196919095019094019392505050565b6000806000833560001a608081101561094e576001935084925060019150506109c5565b60b881101561096a57607f1901925050506001828101906109c5565b60c08110156109a35760b78103600481111561098257fe5b60018681013560088302610100031c95509086018101935091506109c59050565b60f88110156109b857600185019250506109c5565b60f6190192506001840191505b9193909250565b60405181906000806109dd846108d7565b8186863781852090959092500184845b82871015610a22576109fe8761092a565b935080820198508315610a1b57608082901b811783526020909201915b50506109ed565b828714610a2b57fe5b60208682030494505050509193509193565b6000196004830290811c82169060206001851615610a59575060035b610100919091031b1792915050565b60008260200282015162ffffff81168160801c9150601f821115610a935701601f19013590506108d1565b356020919091036008021c905092915050565b6000808360200283015162ffffff81168160801c9250601f831115610ad5578201601f1901359250610ae39050565b3560208390036008021c9250505b9250929050565b6001820160008080808635811a81805b82811015610bcc576000806000610b108b6109cc565b9350935093509a508360008114610b3957610b34640a89082a6960db1b8b84610cb7565b610b3d565b819a505b50508060028114610b655760118114610b9e57610b60634e4f444560e01b6106e3565b610bc1565b600080610b73600186610aa6565b509a505050600019860184148015610b8d57839750610b98565b835160801c95909501945b50610bc1565b6004850260fc038c901c600f16610bb58185610aa6565b50995050600194909401935b505050600101610afa565b50610bd78189610a3d565b935050509295509295909350565b9550955091509450610c046620a1a622a0a32760c91b60048614610ca3565b610c0f600282610a68565b955050505050509250925092565b806000808080808080610c368a60009081526020902090565b610c408982610aea565b95509750955098509850508060008114610c9657610c5f600083610a68565b9550610c6c600183610aa6565b9350965085851493508360008114610c8f57610c8884896108b2565b9750610c94565b600097505b505b5050505050509250925092565b8080610cb257610cb2836106e3565b505050565b80821480610cc857610cc8846106e3565b50505050565b83610cd98682610c1d565b9350935090508385018114610cfa57610cfa65424f554e445360d01b6106e3565b50935093915050565b834211610d385760405162461bcd60e51b815260206004820152600360248201526211135160ea1b6044820152606401610337565b60008888888888888888604051602001610d59989796959493929190611cce565b60408051808303601f1901815291815281516020928301206331df76a46000908152928190529120805491925090600003610dbc5760405162461bcd60e51b81526020600482015260036024820152620889a960eb1b6044820152606401610337565b600081556000610dcc888a611d4c565b90508015610dde57610dde8b82611967565b6040518381527f6629230ca69c43f97674dd064896b819957583c8d20a870e4fb28b05c5d29f299060200160405180910390a15050505050505050505050565b600080600080600080610e82565b6040518190600080610e3d846108d7565b8186863781852090959092500184845b82871015610a2257610e5e8761092a565b935080820198508315610e7b57608082901b811783526020909201915b5050610e4d565b610e8b88610e2c565b610ea66a424c4f434b5f4954454d5360a81b600f8414610ca3565b8a8c019150610ec465424f554e445360d01b83861484871017610ca3565b9750610ed39050600082610a68565b9750610ee0600382610a68565b9550610eed600882610a68565b9450610efa600a82610a68565b9350610f07600b82610a68565b925050509295509295509295565b60008061f6188311610f2e575060039261290492509050565b620493e08311610f465750600e926201107692509050565b60405162461bcd60e51b815260206004820152600e60248201526d434952435549545f434f4e46494760901b6044820152606401610337565b6060611069565b6040518190600080610f97846108d7565b8186863781852090959092500184845b82871015610a2257610fb88761092a565b935080820198508315610fd557608082901b811783526020909201915b5050610fa7565b6000805b61010081101561101957600080516020611d738339815191526101008181850993505060ff84831c168181850893505050600801610fe0565b50919050565b6000600160005b61010081101561106257600080516020611d738339815191528083850993506001600160f81b0319821c85168181860894505050600801611026565b5050919050565b50604080516060819052600560a08201526101608082016020818152600082905261010a600a8d02600101600381028d01820192830280870190950190965260c0909401949290919086156110bd57803687375b50606051915060a03683376020600384029490940184020160408201529102606090910152838381016110ef82610f86565b5061110b6a424c4f434b5f4954454d5360a81b600f8314610ca3565b506000805160208101825252611133611125600283610a68565b600080516020810190915252565b611141611125600983610a68565b61114f611125600883610a68565b61115d611125600b83610a68565b61117361112561116e600784610a68565b61101f565b60008051602081018252526111908a600080516020810190915252565b89604086015261200082015b808310156111bc576111b16111258435610fdc565b60208301925061119c565b506111d06111cb600383610a68565b610fdc565b6111e281600080516020810190915252565b6060860152506111f188610fdc565b61120381600080516020810190915252565b60808501529150611221634441544160e01b82841483851017610ca3565b606080518490528051600080516020810182528181529190920151908101015260005b818310156114815760010161125883610f86565b6112706754585f4954454d5360c01b60098414610ca3565b606084019650923592611284600684610a68565b915061129f69151617d0d2105253925160b21b8e8414610ca3565b6112aa600084610a68565b915060016112d66112ba8461101f565b6060805160008051602081019091528a81529101519081010152565b506112e2600284610a68565b915060026112f26112ba8461101f565b506112fe600184610a68565b9150600361130e6112ba8461101f565b50606080516000805160208101909152878152910151908101018490526004915061133a600384610aa6565b6060805160008051602080820183528b825292840151908101019490945281518451918201909452888152920151901591810101819052935060069150611382600484610a68565b9350600791506113b06113948561101f565b6060805160008051602081019091528981529101519081010152565b60a083015162ffffff81169060801c60608051608001805183019052805160008051602081019091528981529101519081010181905294509250600891506000915060005b84811015611428578084013560001a61141a8160605160400180516020810190915252565b1592909201916001016113f5565b506060805160008051602081019091528781529101516004840284870360100201918101018190525070014551231950b75fc4402da1732fc9bebe1981069350600a92506114786113948561101f565b50505050611244565b611494634441544160e01b838514610ca3565b606051608001516114b6674d41585f4441544160c01b8c83148d841017610ca3565b505b8a8110156114f9576001908101905b600b8110156114f3576060805160008051602081018252858152919092015190810101526001016114c7565b506114b8565b61150f664d41585f54585360c81b8c8314610ca3565b50505060205160405103600080516020611d7383398151915281602051200680600084015260006020518381015b8181111561156d57601f19018051600080516020611d73833981519152808686099450808286089450505061153d565b50506020848101919091526000606052516040525050601f1901979650505050505050565b60008061159f8734611d5f565b905033888289898989896040516020016115c0989796959493929190611cce565b60408051808303601f1901815291815281516020928301206331df76a46000908152928190529120805491935090156116215760405162461bcd60e51b81526020600482015260036024820152620889a960eb1b6044820152606401610337565b600181557f4d083d19fcc619dfa227d3294a08c9309c2c6f22e389d1fc386105b342058a43338a848b8b8b8b8b604051611662989796959493929190611cce565b60405180910390a150509695505050505050565b600080611830565b604051819060008061168f846108d7565b8186863781852090959092500184845b82871015610a22576116b08761092a565b9350808201985083156116cd57608082901b811783526020909201915b505061169f565b6001820160008080808635811a81805b82811015610bcc5760008060006116fa8b61167e565b9350935093509a5083600081146117235761171e640a89082a6960db1b8b84610cb7565b611727565b819a505b5050806002811461174f57601181146117885761174a634e4f444560e01b6106e3565b6117ab565b60008061175d600186610aa6565b509a50505060001986018414801561177757839750611782565b835160801c95909501945b506117ab565b6004850260fc038c901c600f1661179f8185610aa6565b50995050600194909401935b5050506001016116e4565b8060008080808080806117ce8a6000526014600c2090565b6117d889826116d4565b95509750945098509850506117f66520a1a622a0a360d11b82610ca3565b611801600082610a68565b9450611817651050d493d3d560d21b8686610cb7565b602081015162ffffff16945060009350610be58561167e565b83610cd986826117b6565b8342106118705760405162461bcd60e51b815260206004820152600360248201526211135160ea1b6044820152606401610337565b60008888888888888888604051602001611891989796959493929190611cce565b604051602081830303815290604052805190602001209050856000146118bb576118bb3287611967565b600080546001600160a01b0319166001600160a01b038b161790556118e2888885856119f3565b600080546001600160a01b03191690556040518181527ffa39010b12e169f2d7e9a76e381216416dbf5eb59db117ae979592ee9f3238859060200160405180910390a1505050505050505050565b3233146119655760405162461bcd60e51b8152602060048201526003602482015262454f4160e81b6044820152606401610337565b565b6000826001600160a01b03168260405160006040518083038185875af1925050503d80600081146119b4576040519150601f19603f3d011682016040523d82523d6000602084013e6119b9565b606091505b5050905080610cb25760405162461bcd60e51b8152600401610337906020808252600490820152630a88aa8960e31b604082015260600190565b608081838237600080838387895af1611a10573d6000803e3d6000fd5b5050505050565b600060208284031215611a2957600080fd5b5035919050565b80356001600160a01b0381168114611a4757600080fd5b919050565b60008083601f840112611a5e57600080fd5b50813567ffffffffffffffff811115611a7657600080fd5b602083019150836020828501011115610ae357600080fd5b6000806000806000806000806000806101008b8d031215611aae57600080fd5b611ab78b611a30565b9950611ac560208c01611a30565b985060408b0135975060608b0135965060808b0135955060a08b0135945060c08b013567ffffffffffffffff80821115611afe57600080fd5b611b0a8e838f01611a4c565b909650945060e08d0135915080821115611b2357600080fd5b50611b308d828e01611a4c565b915080935050809150509295989b9194979a5092959850565b60008060208385031215611b5c57600080fd5b823567ffffffffffffffff811115611b7357600080fd5b611b7f85828601611a4c565b90969095509350505050565b6020808252825182820181905260009190848201906040850190845b81811015611bc357835183529284019291840191600101611ba7565b50909695505050505050565b60008060008060008060a08789031215611be857600080fd5b611bf187611a30565b9550602087013594506040870135935060608701359250608087013567ffffffffffffffff811115611c2257600080fd5b611c2e89828a01611a4c565b979a9699509497509295939492505050565b60008060408385031215611c5357600080fd5b50508035926020909101359150565b60008060008060408587031215611c7857600080fd5b843567ffffffffffffffff80821115611c9057600080fd5b611c9c88838901611a4c565b90965094506020870135915080821115611cb557600080fd5b50611cc287828801611a4c565b95989497509550505050565b600060018060a01b03808b168352808a166020840152508760408301528660608301528560808301528460a083015260e060c08301528260e08301526101008385828501376000838501820152601f909301601f191690910190910198975050505050505050565b634e487b7160e01b600052601160045260246000fd5b808201808211156108d1576108d1611d36565b818103818111156108d1576108d1611d3656fe30644e72e131a029b85045b68181585d2833e84879b9709143e1f593f0000001a264697066735822122025fd2738544a5ba4850628145c0f13c7c242d88a9fc0b209e2db1e37703ea02f64736f6c63430008120033",
			"opcodes": "PUSH1 0x80 PUSH1 0x40 MSTORE CALLVALUE DUP1 ISZERO PUSH2 0x10 JUMPI PUSH1 0x0 DUP1 REVERT JUMPDEST POP PUSH2 0x1DC8 DUP1 PUSH2 0x20 PUSH1 0x0 CODECOPY PUSH1 0x0 RETURN INVALID PUSH1 0x80 PUSH1 0x40 MSTORE PUSH1 0x4 CALLDATASIZE LT PUSH2 0xA7 JUMPI PUSH1 0x0 CALLDATALOAD PUSH1 0xE0 SHR DUP1 PUSH4 0x5D4D3BCD GT PUSH2 0x64 JUMPI DUP1 PUSH4 0x5D4D3BCD EQ PUSH2 0x1A5 JUMPI DUP1 PUSH4 0x601333D1 EQ PUSH2 0x1B8 JUMPI DUP1 PUSH4 0x6E94AAC5 EQ PUSH2 0x1E5 JUMPI DUP1 PUSH4 0x8DFBFEAD EQ PUSH2 0x205 JUMPI DUP1 PUSH4 0x94907E7E EQ PUSH2 0x225 JUMPI DUP1 PUSH4 0xD5107381 EQ PUSH2 0x245 JUMPI PUSH1 0x0 DUP1 REVERT JUMPDEST DUP1 PUSH4 0x1CDCF85A EQ PUSH2 0xAC JUMPI DUP1 PUSH4 0x1D7161A2 EQ PUSH2 0xC3 JUMPI DUP1 PUSH4 0x2822697B EQ PUSH2 0x103 JUMPI DUP1 PUSH4 0x312FAF74 EQ PUSH2 0x123 JUMPI DUP1 PUSH4 0x3B1623FE EQ PUSH2 0x150 JUMPI DUP1 PUSH4 0x594A90BA EQ PUSH2 0x178 JUMPI JUMPDEST PUSH1 0x0 DUP1 REVERT JUMPDEST CALLVALUE DUP1 ISZERO PUSH2 0xB8 JUMPI PUSH1 0x0 DUP1 REVERT JUMPDEST POP PUSH2 0xC1 PUSH2 0x265 JUMP JUMPDEST STOP JUMPDEST CALLVALUE DUP1 ISZERO PUSH2 0xCF JUMPI PUSH1 0x0 DUP1 REVERT JUMPDEST POP PUSH2 0xF0 PUSH2 0xDE CALLDATASIZE PUSH1 0x4 PUSH2 0x1A17 JUMP JUMPDEST PUSH1 0x2 PUSH1 0x20 MSTORE PUSH1 0x0 SWAP1 DUP2 MSTORE PUSH1 0x40 SWAP1 KECCAK256 SLOAD DUP2 JUMP JUMPDEST PUSH1 0x40 MLOAD SWAP1 DUP2 MSTORE PUSH1 0x20 ADD JUMPDEST PUSH1 0x40 MLOAD DUP1 SWAP2 SUB SWAP1 RETURN JUMPDEST CALLVALUE DUP1 ISZERO PUSH2 0x10F JUMPI PUSH1 0x0 DUP1 REVERT JUMPDEST POP PUSH2 0xC1 PUSH2 0x11E CALLDATASIZE PUSH1 0x4 PUSH2 0x1A8E JUMP JUMPDEST PUSH2 0x29F JUMP JUMPDEST CALLVALUE DUP1 ISZERO PUSH2 0x12F JUMPI PUSH1 0x0 DUP1 REVERT JUMPDEST POP PUSH2 0xF0 PUSH2 0x13E CALLDATASIZE PUSH1 0x4 PUSH2 0x1A17 JUMP JUMPDEST PUSH1 0x0 SWAP1 DUP2 MSTORE PUSH1 0x3 PUSH1 0x20 MSTORE PUSH1 0x40 SWAP1 KECCAK256 SLOAD SWAP1 JUMP JUMPDEST CALLVALUE DUP1 ISZERO PUSH2 0x15C JUMPI PUSH1 0x0 DUP1 REVERT JUMPDEST POP PUSH1 0x0 SLOAD PUSH1 0x40 MLOAD PUSH1 0x1 PUSH1 0x1 PUSH1 0xA0 SHL SUB SWAP1 SWAP2 AND DUP2 MSTORE PUSH1 0x20 ADD PUSH2 0xFA JUMP JUMPDEST CALLVALUE DUP1 ISZERO PUSH2 0x184 JUMPI PUSH1 0x0 DUP1 REVERT JUMPDEST POP PUSH2 0x198 PUSH2 0x193 CALLDATASIZE PUSH1 0x4 PUSH2 0x1B49 JUMP JUMPDEST PUSH2 0x3A7 JUMP JUMPDEST PUSH1 0x40 MLOAD PUSH2 0xFA SWAP2 SWAP1 PUSH2 0x1B8B JUMP JUMPDEST PUSH2 0xF0 PUSH2 0x1B3 CALLDATASIZE PUSH1 0x4 PUSH2 0x1BCF JUMP JUMPDEST PUSH2 0x400 JUMP JUMPDEST CALLVALUE DUP1 ISZERO PUSH2 0x1C4 JUMPI PUSH1 0x0 DUP1 REVERT JUMPDEST POP PUSH2 0xC1 PUSH2 0x1D3 CALLDATASIZE PUSH1 0x4 PUSH2 0x1C40 JUMP JUMPDEST PUSH1 0x0 SWAP2 DUP3 MSTORE PUSH1 0x2 PUSH1 0x20 MSTORE PUSH1 0x40 SWAP1 SWAP2 KECCAK256 SSTORE JUMP JUMPDEST CALLVALUE DUP1 ISZERO PUSH2 0x1F1 JUMPI PUSH1 0x0 DUP1 REVERT JUMPDEST POP PUSH2 0xC1 PUSH2 0x200 CALLDATASIZE PUSH1 0x4 PUSH2 0x1C62 JUMP JUMPDEST PUSH2 0x41B JUMP JUMPDEST CALLVALUE DUP1 ISZERO PUSH2 0x211 JUMPI PUSH1 0x0 DUP1 REVERT JUMPDEST POP PUSH2 0xC1 PUSH2 0x220 CALLDATASIZE PUSH1 0x4 PUSH2 0x1A8E JUMP JUMPDEST PUSH2 0x594 JUMP JUMPDEST CALLVALUE DUP1 ISZERO PUSH2 0x231 JUMPI PUSH1 0x0 DUP1 REVERT JUMPDEST POP PUSH2 0xC1 PUSH2 0x240 CALLDATASIZE PUSH1 0x4 PUSH2 0x1B49 JUMP JUMPDEST PUSH2 0x690 JUMP JUMPDEST CALLVALUE DUP1 ISZERO PUSH2 0x251 JUMPI PUSH1 0x0 DUP1 REVERT JUMPDEST POP PUSH2 0xC1 PUSH2 0x260 CALLDATASIZE PUSH1 0x4 PUSH2 0x1B49 JUMP JUMPDEST PUSH2 0x7F0 JUMP JUMPDEST PUSH1 0x4 DUP1 JUMPDEST CALLDATASIZE DUP2 LT ISZERO PUSH2 0xC1 JUMPI DUP1 CALLDATALOAD PUSH1 0xE0 SHR PUSH1 0x0 DUP2 DUP5 DUP5 ADD DUP3 CALLDATACOPY SWAP2 DUP2 ADD DUP4 ADD SWAP2 DUP1 DUP1 DUP4 DUP2 DUP1 ADDRESS GAS CALL PUSH2 0x298 JUMPI RETURNDATASIZE DUP2 DUP3 RETURNDATACOPY RETURNDATASIZE DUP2 REVERT JUMPDEST POP POP PUSH2 0x269 JUMP JUMPDEST PUSH1 0x0 DUP11 DUP11 DUP11 DUP11 DUP11 DUP11 DUP11 DUP11 PUSH1 0x40 MLOAD PUSH1 0x20 ADD PUSH2 0x2C0 SWAP9 SWAP8 SWAP7 SWAP6 SWAP5 SWAP4 SWAP3 SWAP2 SWAP1 PUSH2 0x1CCE JUMP JUMPDEST PUSH1 0x40 MLOAD PUSH1 0x20 DUP2 DUP4 SUB SUB DUP2 MSTORE SWAP1 PUSH1 0x40 MSTORE DUP1 MLOAD SWAP1 PUSH1 0x20 ADD KECCAK256 SWAP1 POP PUSH1 0x0 DUP1 PUSH2 0x300 PUSH2 0x2F9 DUP5 PUSH4 0x31DF76A4 PUSH1 0x0 SWAP1 DUP2 MSTORE PUSH1 0x20 SWAP2 SWAP1 SWAP2 MSTORE PUSH1 0x40 SWAP1 KECCAK256 SWAP1 JUMP JUMPDEST DUP7 DUP7 PUSH2 0x8AA JUMP JUMPDEST SWAP1 SWAP3 POP SWAP1 POP DUP1 ISZERO PUSH2 0x340 JUMPI PUSH1 0x40 MLOAD PUSH3 0x461BCD PUSH1 0xE5 SHL DUP2 MSTORE PUSH1 0x20 PUSH1 0x4 DUP3 ADD MSTORE PUSH1 0x5 PUSH1 0x24 DUP3 ADD MSTORE PUSH5 0x1113559053 PUSH1 0xDA SHL PUSH1 0x44 DUP3 ADD MSTORE PUSH1 0x64 ADD JUMPDEST PUSH1 0x40 MLOAD DUP1 SWAP2 SUB SWAP1 REVERT JUMPDEST PUSH1 0x0 DUP3 DUP2 MSTORE PUSH1 0x3 PUSH1 0x20 MSTORE PUSH1 0x40 SWAP1 KECCAK256 SLOAD DUP10 DUP2 GT PUSH2 0x387 JUMPI PUSH1 0x40 MLOAD PUSH3 0x461BCD PUSH1 0xE5 SHL DUP2 MSTORE PUSH1 0x4 ADD PUSH2 0x337 SWAP1 PUSH1 0x20 DUP1 DUP3 MSTORE PUSH1 0x4 SWAP1 DUP3 ADD MSTORE PUSH4 0x444D5453 PUSH1 0xE0 SHL PUSH1 0x40 DUP3 ADD MSTORE PUSH1 0x60 ADD SWAP1 JUMP JUMPDEST PUSH2 0x397 DUP15 DUP15 DUP15 DUP15 DUP15 DUP15 DUP15 DUP15 PUSH2 0xD03 JUMP JUMPDEST POP POP POP POP POP POP POP POP POP POP POP POP POP POP JUMP JUMPDEST PUSH1 0x60 PUSH1 0x0 DUP1 PUSH2 0x3B6 DUP6 DUP6 PUSH2 0xE1E JUMP JUMPDEST POP PUSH1 0x0 DUP6 DUP2 MSTORE PUSH1 0x2 PUSH1 0x20 MSTORE PUSH1 0x40 DUP2 KECCAK256 SLOAD SWAP6 SWAP8 POP SWAP1 SWAP6 POP PUSH2 0xCF55 SWAP4 POP SWAP2 POP DUP2 SWAP1 POP PUSH2 0x3DF DUP6 PUSH2 0xF15 JUMP JUMPDEST SWAP2 POP SWAP2 POP PUSH2 0x3F3 DUP3 DUP3 DUP6 DUP8 DUP14 DUP14 PUSH1 0x1 PUSH2 0xF7F JUMP JUMPDEST SWAP10 SWAP9 POP POP POP POP POP POP POP POP POP JUMP JUMPDEST PUSH1 0x0 PUSH2 0x410 DUP8 DUP8 DUP8 DUP8 DUP8 DUP8 PUSH2 0x1592 JUMP JUMPDEST SWAP8 SWAP7 POP POP POP POP POP POP POP JUMP JUMPDEST PUSH1 0x0 DUP1 PUSH2 0x428 DUP7 DUP7 PUSH2 0xE1E JUMP JUMPDEST SWAP6 POP POP POP POP SWAP3 POP POP PUSH1 0x0 DUP1 PUSH2 0x441 PUSH3 0x20000 DUP8 DUP8 PUSH2 0x1676 JUMP JUMPDEST PUSH1 0x0 DUP7 DUP2 MSTORE PUSH1 0x2 PUSH1 0x20 MSTORE PUSH1 0x40 DUP2 KECCAK256 SLOAD SWAP3 SWAP5 POP SWAP1 SWAP3 POP DUP2 SWAP1 SUB PUSH2 0x48D JUMPI PUSH1 0x40 MLOAD PUSH3 0x461BCD PUSH1 0xE5 SHL DUP2 MSTORE PUSH1 0x20 PUSH1 0x4 DUP3 ADD MSTORE PUSH1 0x5 PUSH1 0x24 DUP3 ADD MSTORE PUSH5 0x424C4F434B PUSH1 0xD8 SHL PUSH1 0x44 DUP3 ADD MSTORE PUSH1 0x64 ADD PUSH2 0x337 JUMP JUMPDEST DUP1 DUP4 EQ PUSH2 0x4C5 JUMPI PUSH1 0x40 MLOAD PUSH3 0x461BCD PUSH1 0xE5 SHL DUP2 MSTORE PUSH1 0x20 PUSH1 0x4 DUP3 ADD MSTORE PUSH1 0x6 PUSH1 0x24 DUP3 ADD MSTORE PUSH6 0x12509493D3D5 PUSH1 0xD2 SHL PUSH1 0x44 DUP3 ADD MSTORE PUSH1 0x64 ADD PUSH2 0x337 JUMP JUMPDEST PUSH1 0x0 DUP3 SWAP1 SUB PUSH2 0x501 JUMPI PUSH1 0x40 MLOAD PUSH3 0x461BCD PUSH1 0xE5 SHL DUP2 MSTORE PUSH1 0x20 PUSH1 0x4 DUP3 ADD MSTORE PUSH1 0x8 PUSH1 0x24 DUP3 ADD MSTORE PUSH8 0x125094D51493D3D5 PUSH1 0xC2 SHL PUSH1 0x44 DUP3 ADD MSTORE PUSH1 0x64 ADD PUSH2 0x337 JUMP JUMPDEST DUP4 PUSH1 0x0 SUB PUSH2 0x53A JUMPI PUSH1 0x40 MLOAD PUSH3 0x461BCD PUSH1 0xE5 SHL DUP2 MSTORE PUSH1 0x4 ADD PUSH2 0x337 SWAP1 PUSH1 0x20 DUP1 DUP3 MSTORE PUSH1 0x4 SWAP1 DUP3 ADD MSTORE PUSH4 0x49425453 PUSH1 0xE0 SHL PUSH1 0x40 DUP3 ADD MSTORE PUSH1 0x60 ADD SWAP1 JUMP JUMPDEST PUSH1 0x0 DUP3 DUP2 MSTORE PUSH1 0x3 PUSH1 0x20 MSTORE PUSH1 0x40 SWAP1 DUP2 SWAP1 KECCAK256 DUP6 SWAP1 SSTORE MLOAD DUP2 SWAP1 DUP7 SWAP1 PUSH32 0x9D70F54D5D379E4B92C497936411380303C56BFB08CAED66B62C94380AD153DB SWAP1 PUSH2 0x581 SWAP1 DUP9 DUP2 MSTORE PUSH1 0x20 ADD SWAP1 JUMP JUMPDEST PUSH1 0x40 MLOAD DUP1 SWAP2 SUB SWAP1 LOG3 POP POP POP POP POP POP POP POP POP JUMP JUMPDEST PUSH1 0x0 DUP11 DUP11 DUP11 DUP11 DUP11 DUP11 DUP11 DUP11 PUSH1 0x40 MLOAD PUSH1 0x20 ADD PUSH2 0x5B5 SWAP9 SWAP8 SWAP7 SWAP6 SWAP5 SWAP4 SWAP3 SWAP2 SWAP1 PUSH2 0x1CCE JUMP JUMPDEST PUSH1 0x40 MLOAD PUSH1 0x20 DUP2 DUP4 SUB SUB DUP2 MSTORE SWAP1 PUSH1 0x40 MSTORE DUP1 MLOAD SWAP1 PUSH1 0x20 ADD KECCAK256 SWAP1 POP PUSH1 0x0 DUP1 PUSH2 0x5EE PUSH2 0x2F9 DUP5 PUSH4 0x31DF76A4 PUSH1 0x0 SWAP1 DUP2 MSTORE PUSH1 0x20 SWAP2 SWAP1 SWAP2 MSTORE PUSH1 0x40 SWAP1 KECCAK256 SWAP1 JUMP JUMPDEST PUSH1 0x0 DUP3 DUP2 MSTORE PUSH1 0x3 PUSH1 0x20 MSTORE PUSH1 0x40 DUP2 KECCAK256 SLOAD SWAP3 SWAP5 POP SWAP1 SWAP3 POP SUB PUSH2 0x639 JUMPI PUSH1 0x40 MLOAD PUSH3 0x461BCD PUSH1 0xE5 SHL DUP2 MSTORE PUSH1 0x20 PUSH1 0x4 DUP3 ADD MSTORE PUSH1 0x6 PUSH1 0x24 DUP3 ADD MSTORE PUSH6 0x11135493D3D5 PUSH1 0xD2 SHL PUSH1 0x44 DUP3 ADD MSTORE PUSH1 0x64 ADD PUSH2 0x337 JUMP JUMPDEST PUSH1 0x1 DUP2 EQ PUSH2 0x671 JUMPI PUSH1 0x40 MLOAD PUSH3 0x461BCD PUSH1 0xE5 SHL DUP2 MSTORE PUSH1 0x20 PUSH1 0x4 DUP3 ADD MSTORE PUSH1 0x5 PUSH1 0x24 DUP3 ADD MSTORE PUSH5 0x1113559053 PUSH1 0xDA SHL PUSH1 0x44 DUP3 ADD MSTORE PUSH1 0x64 ADD PUSH2 0x337 JUMP JUMPDEST PUSH2 0x681 DUP14 DUP14 DUP14 DUP14 DUP14 DUP14 DUP14 DUP14 PUSH2 0x183B JUMP JUMPDEST POP POP POP POP POP POP POP POP POP POP POP POP POP JUMP JUMPDEST PUSH2 0x1FF DUP2 GT PUSH2 0x6CD JUMPI PUSH1 0x40 MLOAD PUSH3 0x461BCD PUSH1 0xE5 SHL DUP2 MSTORE PUSH1 0x20 PUSH1 0x4 DUP3 ADD MSTORE PUSH1 0x9 PUSH1 0x24 DUP3 ADD MSTORE PUSH9 0x282927A7A32FA622A7 PUSH1 0xB9 SHL PUSH1 0x44 DUP3 ADD MSTORE PUSH1 0x64 ADD PUSH2 0x337 JUMP JUMPDEST DUP2 CALLDATALOAD PUSH1 0x0 DUP2 DUP2 MSTORE PUSH1 0x1 PUSH1 0x20 MSTORE PUSH1 0x40 SWAP1 KECCAK256 SLOAD PUSH2 0x719 JUMP JUMPDEST PUSH4 0x8C379A0 PUSH1 0xE0 SHL PUSH1 0x0 MSTORE PUSH1 0x20 PUSH1 0x4 MSTORE DUP1 PUSH1 0x44 MSTORE PUSH1 0x0 JUMPDEST DUP2 ISZERO PUSH2 0x70F JUMPI PUSH1 0x8 SWAP2 SWAP1 SWAP2 SHL SWAP1 PUSH1 0x1 ADD PUSH2 0x6FA JUMP JUMPDEST DUP1 PUSH1 0x24 MSTORE PUSH1 0x64 PUSH1 0x0 REVERT JUMPDEST PUSH1 0xA0 PUSH1 0x40 MLOAD DUP2 PUSH1 0x60 DUP8 ADD DUP3 CALLDATACOPY KECCAK256 DUP2 DUP2 EQ PUSH2 0x748 JUMPI PUSH2 0x748 PUSH15 0xC6DEDADAD2E8DACADCE840D0C2E6D PUSH1 0x8B SHL PUSH2 0x6E3 JUMP JUMPDEST POP PUSH1 0x20 DUP5 ADD DUP1 CALLDATALOAD DUP1 EXTCODESIZE DUP1 PUSH2 0x772 JUMPI PUSH2 0x772 PUSH16 0x7665726966696572206D697373696E67 PUSH1 0x80 SHL PUSH2 0x6E3 JUMP JUMPDEST POP PUSH1 0x60 DUP6 SUB PUSH1 0x40 DUP4 ADD SWAP3 POP PUSH1 0x40 MLOAD DUP2 DUP5 DUP3 CALLDATACOPY PUSH1 0x0 DUP1 DUP4 DUP4 DUP7 GAS STATICCALL SWAP4 POP POP POP POP DUP1 PUSH1 0x0 DUP2 SUB PUSH2 0x7B5 JUMPI PUSH2 0x7B5 PUSH15 0x1D995C9A599A595C8819985A5B1959 PUSH1 0x8A SHL PUSH2 0x6E3 JUMP JUMPDEST POP POP PUSH1 0x40 MLOAD DUP3 DUP2 MSTORE PUSH32 0x13A323BD8C6A1BEE4A59D9F8A556A6B14ED08C656B9C36C57903C70865648CCA SWAP1 PUSH1 0x20 ADD PUSH1 0x40 MLOAD DUP1 SWAP2 SUB SWAP1 LOG1 POP POP POP POP JUMP JUMPDEST PUSH2 0x7F8 PUSH2 0x1930 JUMP JUMPDEST PUSH1 0x40 MLOAD PUSH32 0xCDF35DCA8304861A13F78FCD9AA4CBE5BD689D13C643B4C875CCCBFAE3CBF67C SWAP1 PUSH1 0x0 SWAP1 LOG1 PUSH1 0x0 DUP1 PUSH1 0x0 DUP1 PUSH2 0x831 DUP7 DUP7 PUSH2 0xE1E JUMP JUMPDEST POP PUSH1 0x0 DUP6 DUP2 MSTORE PUSH1 0x2 PUSH1 0x20 MSTORE PUSH1 0x40 DUP2 KECCAK256 SLOAD SWAP6 SWAP10 POP SWAP4 SWAP8 POP SWAP2 SWAP6 POP SWAP1 SWAP4 POP PUSH2 0xCF55 SWAP2 SWAP1 POP DUP1 PUSH2 0x85D DUP6 PUSH2 0xF15 JUMP JUMPDEST SWAP2 POP SWAP2 POP PUSH1 0x0 PUSH2 0x873 DUP4 DUP4 DUP7 DUP9 DUP16 DUP16 PUSH1 0x1 PUSH2 0xF7F JUMP JUMPDEST DUP1 MLOAD PUSH1 0x20 SWAP1 DUP2 MUL SWAP2 DUP2 ADD SWAP2 SWAP1 SWAP2 KECCAK256 PUSH1 0x0 SWAP10 DUP11 MSTORE PUSH1 0x1 DUP3 MSTORE PUSH1 0x40 DUP1 DUP12 KECCAK256 SWAP2 SWAP1 SWAP2 SSTORE PUSH1 0x2 SWAP1 SWAP2 MSTORE SWAP1 SWAP8 KECCAK256 SWAP6 SWAP1 SWAP6 SSTORE POP POP POP POP POP POP POP POP POP JUMP JUMPDEST PUSH1 0x0 DUP1 PUSH2 0xCCE JUMP JUMPDEST DUP1 PUSH1 0x80 DUP2 LT PUSH2 0x8D1 JUMPI PUSH1 0x20 DUP4 GT PUSH2 0x8D1 JUMPI PUSH1 0xFF PUSH1 0x7 NOT PUSH1 0x8 DUP6 MUL ADD SHL NOT AND JUMPDEST SWAP3 SWAP2 POP POP JUMP JUMPDEST PUSH1 0x0 DUP1 DUP3 CALLDATALOAD PUSH1 0x0 BYTE PUSH1 0xF8 DUP2 LT ISZERO PUSH2 0x8F9 JUMPI PUSH1 0xBE NOT ADD SWAP4 PUSH1 0x1 SWAP4 SWAP1 SWAP4 ADD SWAP3 SWAP2 POP POP JUMP JUMPDEST PUSH1 0xF7 DUP2 SUB PUSH1 0x4 DUP2 GT ISZERO PUSH2 0x908 JUMPI INVALID JUMPDEST PUSH1 0x1 DUP6 DUP2 ADD CALLDATALOAD PUSH1 0x8 DUP4 MUL PUSH2 0x100 SUB SHR DUP3 ADD DUP2 ADD SWAP7 SWAP2 SWAP1 SWAP6 ADD SWAP1 SWAP5 ADD SWAP4 SWAP3 POP POP POP JUMP JUMPDEST PUSH1 0x0 DUP1 PUSH1 0x0 DUP4 CALLDATALOAD PUSH1 0x0 BYTE PUSH1 0x80 DUP2 LT ISZERO PUSH2 0x94E JUMPI PUSH1 0x1 SWAP4 POP DUP5 SWAP3 POP PUSH1 0x1 SWAP2 POP POP PUSH2 0x9C5 JUMP JUMPDEST PUSH1 0xB8 DUP2 LT ISZERO PUSH2 0x96A JUMPI PUSH1 0x7F NOT ADD SWAP3 POP POP POP PUSH1 0x1 DUP3 DUP2 ADD SWAP1 PUSH2 0x9C5 JUMP JUMPDEST PUSH1 0xC0 DUP2 LT ISZERO PUSH2 0x9A3 JUMPI PUSH1 0xB7 DUP2 SUB PUSH1 0x4 DUP2 GT ISZERO PUSH2 0x982 JUMPI INVALID JUMPDEST PUSH1 0x1 DUP7 DUP2 ADD CALLDATALOAD PUSH1 0x8 DUP4 MUL PUSH2 0x100 SUB SHR SWAP6 POP SWAP1 DUP7 ADD DUP2 ADD SWAP4 POP SWAP2 POP PUSH2 0x9C5 SWAP1 POP JUMP JUMPDEST PUSH1 0xF8 DUP2 LT ISZERO PUSH2 0x9B8 JUMPI PUSH1 0x1 DUP6 ADD SWAP3 POP POP PUSH2 0x9C5 JUMP JUMPDEST PUSH1 0xF6 NOT ADD SWAP3 POP PUSH1 0x1 DUP5 ADD SWAP2 POP JUMPDEST SWAP2 SWAP4 SWAP1 SWAP3 POP JUMP JUMPDEST PUSH1 0x40 MLOAD DUP2 SWAP1 PUSH1 0x0 DUP1 PUSH2 0x9DD DUP5 PUSH2 0x8D7 JUMP JUMPDEST DUP2 DUP7 DUP7 CALLDATACOPY DUP2 DUP6 KECCAK256 SWAP1 SWAP6 SWAP1 SWAP3 POP ADD DUP5 DUP5 JUMPDEST DUP3 DUP8 LT ISZERO PUSH2 0xA22 JUMPI PUSH2 0x9FE DUP8 PUSH2 0x92A JUMP JUMPDEST SWAP4 POP DUP1 DUP3 ADD SWAP9 POP DUP4 ISZERO PUSH2 0xA1B JUMPI PUSH1 0x80 DUP3 SWAP1 SHL DUP2 OR DUP4 MSTORE PUSH1 0x20 SWAP1 SWAP3 ADD SWAP2 JUMPDEST POP POP PUSH2 0x9ED JUMP JUMPDEST DUP3 DUP8 EQ PUSH2 0xA2B JUMPI INVALID JUMPDEST PUSH1 0x20 DUP7 DUP3 SUB DIV SWAP5 POP POP POP POP SWAP2 SWAP4 POP SWAP2 SWAP4 JUMP JUMPDEST PUSH1 0x0 NOT PUSH1 0x4 DUP4 MUL SWAP1 DUP2 SHR DUP3 AND SWAP1 PUSH1 0x20 PUSH1 0x1 DUP6 AND ISZERO PUSH2 0xA59 JUMPI POP PUSH1 0x3 JUMPDEST PUSH2 0x100 SWAP2 SWAP1 SWAP2 SUB SHL OR SWAP3 SWAP2 POP POP JUMP JUMPDEST PUSH1 0x0 DUP3 PUSH1 0x20 MUL DUP3 ADD MLOAD PUSH3 0xFFFFFF DUP2 AND DUP2 PUSH1 0x80 SHR SWAP2 POP PUSH1 0x1F DUP3 GT ISZERO PUSH2 0xA93 JUMPI ADD PUSH1 0x1F NOT ADD CALLDATALOAD SWAP1 POP PUSH2 0x8D1 JUMP JUMPDEST CALLDATALOAD PUSH1 0x20 SWAP2 SWAP1 SWAP2 SUB PUSH1 0x8 MUL SHR SWAP1 POP SWAP3 SWAP2 POP POP JUMP JUMPDEST PUSH1 0x0 DUP1 DUP4 PUSH1 0x20 MUL DUP4 ADD MLOAD PUSH3 0xFFFFFF DUP2 AND DUP2 PUSH1 0x80 SHR SWAP3 POP PUSH1 0x1F DUP4 GT ISZERO PUSH2 0xAD5 JUMPI DUP3 ADD PUSH1 0x1F NOT ADD CALLDATALOAD SWAP3 POP PUSH2 0xAE3 SWAP1 POP JUMP JUMPDEST CALLDATALOAD PUSH1 0x20 DUP4 SWAP1 SUB PUSH1 0x8 MUL SHR SWAP3 POP POP JUMPDEST SWAP3 POP SWAP3 SWAP1 POP JUMP JUMPDEST PUSH1 0x1 DUP3 ADD PUSH1 0x0 DUP1 DUP1 DUP1 DUP7 CALLDATALOAD DUP2 BYTE DUP2 DUP1 JUMPDEST DUP3 DUP2 LT ISZERO PUSH2 0xBCC JUMPI PUSH1 0x0 DUP1 PUSH1 0x0 PUSH2 0xB10 DUP12 PUSH2 0x9CC JUMP JUMPDEST SWAP4 POP SWAP4 POP SWAP4 POP SWAP11 POP DUP4 PUSH1 0x0 DUP2 EQ PUSH2 0xB39 JUMPI PUSH2 0xB34 PUSH5 0xA89082A69 PUSH1 0xDB SHL DUP12 DUP5 PUSH2 0xCB7 JUMP JUMPDEST PUSH2 0xB3D JUMP JUMPDEST DUP2 SWAP11 POP JUMPDEST POP POP DUP1 PUSH1 0x2 DUP2 EQ PUSH2 0xB65 JUMPI PUSH1 0x11 DUP2 EQ PUSH2 0xB9E JUMPI PUSH2 0xB60 PUSH4 0x4E4F4445 PUSH1 0xE0 SHL PUSH2 0x6E3 JUMP JUMPDEST PUSH2 0xBC1 JUMP JUMPDEST PUSH1 0x0 DUP1 PUSH2 0xB73 PUSH1 0x1 DUP7 PUSH2 0xAA6 JUMP JUMPDEST POP SWAP11 POP POP POP PUSH1 0x0 NOT DUP7 ADD DUP5 EQ DUP1 ISZERO PUSH2 0xB8D JUMPI DUP4 SWAP8 POP PUSH2 0xB98 JUMP JUMPDEST DUP4 MLOAD PUSH1 0x80 SHR SWAP6 SWAP1 SWAP6 ADD SWAP5 JUMPDEST POP PUSH2 0xBC1 JUMP JUMPDEST PUSH1 0x4 DUP6 MUL PUSH1 0xFC SUB DUP13 SWAP1 SHR PUSH1 0xF AND PUSH2 0xBB5 DUP2 DUP6 PUSH2 0xAA6 JUMP JUMPDEST POP SWAP10 POP POP PUSH1 0x1 SWAP5 SWAP1 SWAP5 ADD SWAP4 JUMPDEST POP POP POP PUSH1 0x1 ADD PUSH2 0xAFA JUMP JUMPDEST POP PUSH2 0xBD7 DUP2 DUP10 PUSH2 0xA3D JUMP JUMPDEST SWAP4 POP POP POP SWAP3 SWAP6 POP SWAP3 SWAP6 SWAP1 SWAP4 POP JUMP JUMPDEST SWAP6 POP SWAP6 POP SWAP2 POP SWAP5 POP PUSH2 0xC04 PUSH7 0x20A1A622A0A327 PUSH1 0xC9 SHL PUSH1 0x4 DUP7 EQ PUSH2 0xCA3 JUMP JUMPDEST PUSH2 0xC0F PUSH1 0x2 DUP3 PUSH2 0xA68 JUMP JUMPDEST SWAP6 POP POP POP POP POP POP SWAP3 POP SWAP3 POP SWAP3 JUMP JUMPDEST DUP1 PUSH1 0x0 DUP1 DUP1 DUP1 DUP1 DUP1 DUP1 PUSH2 0xC36 DUP11 PUSH1 0x0 SWAP1 DUP2 MSTORE PUSH1 0x20 SWAP1 KECCAK256 SWAP1 JUMP JUMPDEST PUSH2 0xC40 DUP10 DUP3 PUSH2 0xAEA JUMP JUMPDEST SWAP6 POP SWAP8 POP SWAP6 POP SWAP9 POP SWAP9 POP POP DUP1 PUSH1 0x0 DUP2 EQ PUSH2 0xC96 JUMPI PUSH2 0xC5F PUSH1 0x0 DUP4 PUSH2 0xA68 JUMP JUMPDEST SWAP6 POP PUSH2 0xC6C PUSH1 0x1 DUP4 PUSH2 0xAA6 JUMP JUMPDEST SWAP4 POP SWAP7 POP DUP6 DUP6 EQ SWAP4 POP DUP4 PUSH1 0x0 DUP2 EQ PUSH2 0xC8F JUMPI PUSH2 0xC88 DUP5 DUP10 PUSH2 0x8B2 JUMP JUMPDEST SWAP8 POP PUSH2 0xC94 JUMP JUMPDEST PUSH1 0x0 SWAP8 POP JUMPDEST POP JUMPDEST POP POP POP POP POP POP SWAP3 POP SWAP3 POP SWAP3 JUMP JUMPDEST DUP1 DUP1 PUSH2 0xCB2 JUMPI PUSH2 0xCB2 DUP4 PUSH2 0x6E3 JUMP JUMPDEST POP POP POP JUMP JUMPDEST DUP1 DUP3 EQ DUP1 PUSH2 0xCC8 JUMPI PUSH2 0xCC8 DUP5 PUSH2 0x6E3 JUMP JUMPDEST POP POP POP POP JUMP JUMPDEST DUP4 PUSH2 0xCD9 DUP7 DUP3 PUSH2 0xC1D JUMP JUMPDEST SWAP4 POP SWAP4 POP SWAP1 POP DUP4 DUP6 ADD DUP2 EQ PUSH2 0xCFA JUMPI PUSH2 0xCFA PUSH6 0x424F554E4453 PUSH1 0xD0 SHL PUSH2 0x6E3 JUMP JUMPDEST POP SWAP4 POP SWAP4 SWAP2 POP POP JUMP JUMPDEST DUP4 TIMESTAMP GT PUSH2 0xD38 JUMPI PUSH1 0x40 MLOAD PUSH3 0x461BCD PUSH1 0xE5 SHL DUP2 MSTORE PUSH1 0x20 PUSH1 0x4 DUP3 ADD MSTORE PUSH1 0x3 PUSH1 0x24 DUP3 ADD MSTORE PUSH3 0x111351 PUSH1 0xEA SHL PUSH1 0x44 DUP3 ADD MSTORE PUSH1 0x64 ADD PUSH2 0x337 JUMP JUMPDEST PUSH1 0x0 DUP9 DUP9 DUP9 DUP9 DUP9 DUP9 DUP9 DUP9 PUSH1 0x40 MLOAD PUSH1 0x20 ADD PUSH2 0xD59 SWAP9 SWAP8 SWAP7 SWAP6 SWAP5 SWAP4 SWAP3 SWAP2 SWAP1 PUSH2 0x1CCE JUMP JUMPDEST PUSH1 0x40 DUP1 MLOAD DUP1 DUP4 SUB PUSH1 0x1F NOT ADD DUP2 MSTORE SWAP2 DUP2 MSTORE DUP2 MLOAD PUSH1 0x20 SWAP3 DUP4 ADD KECCAK256 PUSH4 0x31DF76A4 PUSH1 0x0 SWAP1 DUP2 MSTORE SWAP3 DUP2 SWAP1 MSTORE SWAP2 KECCAK256 DUP1 SLOAD SWAP2 SWAP3 POP SWAP1 PUSH1 0x0 SUB PUSH2 0xDBC JUMPI PUSH1 0x40 MLOAD PUSH3 0x461BCD PUSH1 0xE5 SHL DUP2 MSTORE PUSH1 0x20 PUSH1 0x4 DUP3 ADD MSTORE PUSH1 0x3 PUSH1 0x24 DUP3 ADD MSTORE PUSH3 0x889A9 PUSH1 0xEB SHL PUSH1 0x44 DUP3 ADD MSTORE PUSH1 0x64 ADD PUSH2 0x337 JUMP JUMPDEST PUSH1 0x0 DUP2 SSTORE PUSH1 0x0 PUSH2 0xDCC DUP9 DUP11 PUSH2 0x1D4C JUMP JUMPDEST SWAP1 POP DUP1 ISZERO PUSH2 0xDDE JUMPI PUSH2 0xDDE DUP12 DUP3 PUSH2 0x1967 JUMP JUMPDEST PUSH1 0x40 MLOAD DUP4 DUP2 MSTORE PUSH32 0x6629230CA69C43F97674DD064896B819957583C8D20A870E4FB28B05C5D29F29 SWAP1 PUSH1 0x20 ADD PUSH1 0x40 MLOAD DUP1 SWAP2 SUB SWAP1 LOG1 POP POP POP POP POP POP POP POP POP POP POP JUMP JUMPDEST PUSH1 0x0 DUP1 PUSH1 0x0 DUP1 PUSH1 0x0 DUP1 PUSH2 0xE82 JUMP JUMPDEST PUSH1 0x40 MLOAD DUP2 SWAP1 PUSH1 0x0 DUP1 PUSH2 0xE3D DUP5 PUSH2 0x8D7 JUMP JUMPDEST DUP2 DUP7 DUP7 CALLDATACOPY DUP2 DUP6 KECCAK256 SWAP1 SWAP6 SWAP1 SWAP3 POP ADD DUP5 DUP5 JUMPDEST DUP3 DUP8 LT ISZERO PUSH2 0xA22 JUMPI PUSH2 0xE5E DUP8 PUSH2 0x92A JUMP JUMPDEST SWAP4 POP DUP1 DUP3 ADD SWAP9 POP DUP4 ISZERO PUSH2 0xE7B JUMPI PUSH1 0x80 DUP3 SWAP1 SHL DUP2 OR DUP4 MSTORE PUSH1 0x20 SWAP1 SWAP3 ADD SWAP2 JUMPDEST POP POP PUSH2 0xE4D JUMP JUMPDEST PUSH2 0xE8B DUP9 PUSH2 0xE2C JUMP JUMPDEST PUSH2 0xEA6 PUSH11 0x424C4F434B5F4954454D53 PUSH1 0xA8 SHL PUSH1 0xF DUP5 EQ PUSH2 0xCA3 JUMP JUMPDEST DUP11 DUP13 ADD SWAP2 POP PUSH2 0xEC4 PUSH6 0x424F554E4453 PUSH1 0xD0 SHL DUP4 DUP7 EQ DUP5 DUP8 LT OR PUSH2 0xCA3 JUMP JUMPDEST SWAP8 POP PUSH2 0xED3 SWAP1 POP PUSH1 0x0 DUP3 PUSH2 0xA68 JUMP JUMPDEST SWAP8 POP PUSH2 0xEE0 PUSH1 0x3 DUP3 PUSH2 0xA68 JUMP JUMPDEST SWAP6 POP PUSH2 0xEED PUSH1 0x8 DUP3 PUSH2 0xA68 JUMP JUMPDEST SWAP5 POP PUSH2 0xEFA PUSH1 0xA DUP3 PUSH2 0xA68 JUMP JUMPDEST SWAP4 POP PUSH2 0xF07 PUSH1 0xB DUP3 PUSH2 0xA68 JUMP JUMPDEST SWAP3 POP POP POP SWAP3 SWAP6 POP SWAP3 SWAP6 POP SWAP3 SWAP6 JUMP JUMPDEST PUSH1 0x0 DUP1 PUSH2 0xF618 DUP4 GT PUSH2 0xF2E JUMPI POP PUSH1 0x3 SWAP3 PUSH2 0x2904 SWAP3 POP SWAP1 POP JUMP JUMPDEST PUSH3 0x493E0 DUP4 GT PUSH2 0xF46 JUMPI POP PUSH1 0xE SWAP3 PUSH3 0x11076 SWAP3 POP SWAP1 POP JUMP JUMPDEST PUSH1 0x40 MLOAD PUSH3 0x461BCD PUSH1 0xE5 SHL DUP2 MSTORE PUSH1 0x20 PUSH1 0x4 DUP3 ADD MSTORE PUSH1 0xE PUSH1 0x24 DUP3 ADD MSTORE PUSH14 0x434952435549545F434F4E464947 PUSH1 0x90 SHL PUSH1 0x44 DUP3 ADD MSTORE PUSH1 0x64 ADD PUSH2 0x337 JUMP JUMPDEST PUSH1 0x60 PUSH2 0x1069 JUMP JUMPDEST PUSH1 0x40 MLOAD DUP2 SWAP1 PUSH1 0x0 DUP1 PUSH2 0xF97 DUP5 PUSH2 0x8D7 JUMP JUMPDEST DUP2 DUP7 DUP7 CALLDATACOPY DUP2 DUP6 KECCAK256 SWAP1 SWAP6 SWAP1 SWAP3 POP ADD DUP5 DUP5 JUMPDEST DUP3 DUP8 LT ISZERO PUSH2 0xA22 JUMPI PUSH2 0xFB8 DUP8 PUSH2 0x92A JUMP JUMPDEST SWAP4 POP DUP1 DUP3 ADD SWAP9 POP DUP4 ISZERO PUSH2 0xFD5 JUMPI PUSH1 0x80 DUP3 SWAP1 SHL DUP2 OR DUP4 MSTORE PUSH1 0x20 SWAP1 SWAP3 ADD SWAP2 JUMPDEST POP POP PUSH2 0xFA7 JUMP JUMPDEST PUSH1 0x0 DUP1 JUMPDEST PUSH2 0x100 DUP2 LT ISZERO PUSH2 0x1019 JUMPI PUSH1 0x0 DUP1 MLOAD PUSH1 0x20 PUSH2 0x1D73 DUP4 CODECOPY DUP2 MLOAD SWAP2 MSTORE PUSH2 0x100 DUP2 DUP2 DUP6 MULMOD SWAP4 POP POP PUSH1 0xFF DUP5 DUP4 SHR AND DUP2 DUP2 DUP6 ADDMOD SWAP4 POP POP POP PUSH1 0x8 ADD PUSH2 0xFE0 JUMP JUMPDEST POP SWAP2 SWAP1 POP JUMP JUMPDEST PUSH1 0x0 PUSH1 0x1 PUSH1 0x0 JUMPDEST PUSH2 0x100 DUP2 LT ISZERO PUSH2 0x1062 JUMPI PUSH1 0x0 DUP1 MLOAD PUSH1 0x20 PUSH2 0x1D73 DUP4 CODECOPY DUP2 MLOAD SWAP2 MSTORE DUP1 DUP4 DUP6 MULMOD SWAP4 POP PUSH1 0x1 PUSH1 0x1 PUSH1 0xF8 SHL SUB NOT DUP3 SHR DUP6 AND DUP2 DUP2 DUP7 ADDMOD SWAP5 POP POP POP PUSH1 0x8 ADD PUSH2 0x1026 JUMP JUMPDEST POP POP SWAP2 SWAP1 POP JUMP JUMPDEST POP PUSH1 0x40 DUP1 MLOAD PUSH1 0x60 DUP2 SWAP1 MSTORE PUSH1 0x5 PUSH1 0xA0 DUP3 ADD MSTORE PUSH2 0x160 DUP1 DUP3 ADD PUSH1 0x20 DUP2 DUP2 MSTORE PUSH1 0x0 DUP3 SWAP1 MSTORE PUSH2 0x10A PUSH1 0xA DUP14 MUL PUSH1 0x1 ADD PUSH1 0x3 DUP2 MUL DUP14 ADD DUP3 ADD SWAP3 DUP4 MUL DUP1 DUP8 ADD SWAP1 SWAP6 ADD SWAP1 SWAP7 MSTORE PUSH1 0xC0 SWAP1 SWAP5 ADD SWAP5 SWAP3 SWAP1 SWAP2 SWAP1 DUP7 ISZERO PUSH2 0x10BD JUMPI DUP1 CALLDATASIZE DUP8 CALLDATACOPY JUMPDEST POP PUSH1 0x60 MLOAD SWAP2 POP PUSH1 0xA0 CALLDATASIZE DUP4 CALLDATACOPY PUSH1 0x20 PUSH1 0x3 DUP5 MUL SWAP5 SWAP1 SWAP5 ADD DUP5 MUL ADD PUSH1 0x40 DUP3 ADD MSTORE SWAP2 MUL PUSH1 0x60 SWAP1 SWAP2 ADD MSTORE DUP4 DUP4 DUP2 ADD PUSH2 0x10EF DUP3 PUSH2 0xF86 JUMP JUMPDEST POP PUSH2 0x110B PUSH11 0x424C4F434B5F4954454D53 PUSH1 0xA8 SHL PUSH1 0xF DUP4 EQ PUSH2 0xCA3 JUMP JUMPDEST POP PUSH1 0x0 DUP1 MLOAD PUSH1 0x20 DUP2 ADD DUP3 MSTORE MSTORE PUSH2 0x1133 PUSH2 0x1125 PUSH1 0x2 DUP4 PUSH2 0xA68 JUMP JUMPDEST PUSH1 0x0 DUP1 MLOAD PUSH1 0x20 DUP2 ADD SWAP1 SWAP2 MSTORE MSTORE JUMP JUMPDEST PUSH2 0x1141 PUSH2 0x1125 PUSH1 0x9 DUP4 PUSH2 0xA68 JUMP JUMPDEST PUSH2 0x114F PUSH2 0x1125 PUSH1 0x8 DUP4 PUSH2 0xA68 JUMP JUMPDEST PUSH2 0x115D PUSH2 0x1125 PUSH1 0xB DUP4 PUSH2 0xA68 JUMP JUMPDEST PUSH2 0x1173 PUSH2 0x1125 PUSH2 0x116E PUSH1 0x7 DUP5 PUSH2 0xA68 JUMP JUMPDEST PUSH2 0x101F JUMP JUMPDEST PUSH1 0x0 DUP1 MLOAD PUSH1 0x20 DUP2 ADD DUP3 MSTORE MSTORE PUSH2 0x1190 DUP11 PUSH1 0x0 DUP1 MLOAD PUSH1 0x20 DUP2 ADD SWAP1 SWAP2 MSTORE MSTORE JUMP JUMPDEST DUP10 PUSH1 0x40 DUP7 ADD MSTORE PUSH2 0x2000 DUP3 ADD JUMPDEST DUP1 DUP4 LT ISZERO PUSH2 0x11BC JUMPI PUSH2 0x11B1 PUSH2 0x1125 DUP5 CALLDATALOAD PUSH2 0xFDC JUMP JUMPDEST PUSH1 0x20 DUP4 ADD SWAP3 POP PUSH2 0x119C JUMP JUMPDEST POP PUSH2 0x11D0 PUSH2 0x11CB PUSH1 0x3 DUP4 PUSH2 0xA68 JUMP JUMPDEST PUSH2 0xFDC JUMP JUMPDEST PUSH2 0x11E2 DUP2 PUSH1 0x0 DUP1 MLOAD PUSH1 0x20 DUP2 ADD SWAP1 SWAP2 MSTORE MSTORE JUMP JUMPDEST PUSH1 0x60 DUP7 ADD MSTORE POP PUSH2 0x11F1 DUP9 PUSH2 0xFDC JUMP JUMPDEST PUSH2 0x1203 DUP2 PUSH1 0x0 DUP1 MLOAD PUSH1 0x20 DUP2 ADD SWAP1 SWAP2 MSTORE MSTORE JUMP JUMPDEST PUSH1 0x80 DUP6 ADD MSTORE SWAP2 POP PUSH2 0x1221 PUSH4 0x44415441 PUSH1 0xE0 SHL DUP3 DUP5 EQ DUP4 DUP6 LT OR PUSH2 0xCA3 JUMP JUMPDEST PUSH1 0x60 DUP1 MLOAD DUP5 SWAP1 MSTORE DUP1 MLOAD PUSH1 0x0 DUP1 MLOAD PUSH1 0x20 DUP2 ADD DUP3 MSTORE DUP2 DUP2 MSTORE SWAP2 SWAP1 SWAP3 ADD MLOAD SWAP1 DUP2 ADD ADD MSTORE PUSH1 0x0 JUMPDEST DUP2 DUP4 LT ISZERO PUSH2 0x1481 JUMPI PUSH1 0x1 ADD PUSH2 0x1258 DUP4 PUSH2 0xF86 JUMP JUMPDEST PUSH2 0x1270 PUSH8 0x54585F4954454D53 PUSH1 0xC0 SHL PUSH1 0x9 DUP5 EQ PUSH2 0xCA3 JUMP JUMPDEST PUSH1 0x60 DUP5 ADD SWAP7 POP SWAP3 CALLDATALOAD SWAP3 PUSH2 0x1284 PUSH1 0x6 DUP5 PUSH2 0xA68 JUMP JUMPDEST SWAP2 POP PUSH2 0x129F PUSH10 0x151617D0D21052539251 PUSH1 0xB2 SHL DUP15 DUP5 EQ PUSH2 0xCA3 JUMP JUMPDEST PUSH2 0x12AA PUSH1 0x0 DUP5 PUSH2 0xA68 JUMP JUMPDEST SWAP2 POP PUSH1 0x1 PUSH2 0x12D6 PUSH2 0x12BA DUP5 PUSH2 0x101F JUMP JUMPDEST PUSH1 0x60 DUP1 MLOAD PUSH1 0x0 DUP1 MLOAD PUSH1 0x20 DUP2 ADD SWAP1 SWAP2 MSTORE DUP11 DUP2 MSTORE SWAP2 ADD MLOAD SWAP1 DUP2 ADD ADD MSTORE JUMP JUMPDEST POP PUSH2 0x12E2 PUSH1 0x2 DUP5 PUSH2 0xA68 JUMP JUMPDEST SWAP2 POP PUSH1 0x2 PUSH2 0x12F2 PUSH2 0x12BA DUP5 PUSH2 0x101F JUMP JUMPDEST POP PUSH2 0x12FE PUSH1 0x1 DUP5 PUSH2 0xA68 JUMP JUMPDEST SWAP2 POP PUSH1 0x3 PUSH2 0x130E PUSH2 0x12BA DUP5 PUSH2 0x101F JUMP JUMPDEST POP PUSH1 0x60 DUP1 MLOAD PUSH1 0x0 DUP1 MLOAD PUSH1 0x20 DUP2 ADD SWAP1 SWAP2 MSTORE DUP8 DUP2 MSTORE SWAP2 ADD MLOAD SWAP1 DUP2 ADD ADD DUP5 SWAP1 MSTORE PUSH1 0x4 SWAP2 POP PUSH2 0x133A PUSH1 0x3 DUP5 PUSH2 0xAA6 JUMP JUMPDEST PUSH1 0x60 DUP1 MLOAD PUSH1 0x0 DUP1 MLOAD PUSH1 0x20 DUP1 DUP3 ADD DUP4 MSTORE DUP12 DUP3 MSTORE SWAP3 DUP5 ADD MLOAD SWAP1 DUP2 ADD ADD SWAP5 SWAP1 SWAP5 MSTORE DUP2 MLOAD DUP5 MLOAD SWAP2 DUP3 ADD SWAP1 SWAP5 MSTORE DUP9 DUP2 MSTORE SWAP3 ADD MLOAD SWAP1 ISZERO SWAP2 DUP2 ADD ADD DUP2 SWAP1 MSTORE SWAP4 POP PUSH1 0x6 SWAP2 POP PUSH2 0x1382 PUSH1 0x4 DUP5 PUSH2 0xA68 JUMP JUMPDEST SWAP4 POP PUSH1 0x7 SWAP2 POP PUSH2 0x13B0 PUSH2 0x1394 DUP6 PUSH2 0x101F JUMP JUMPDEST PUSH1 0x60 DUP1 MLOAD PUSH1 0x0 DUP1 MLOAD PUSH1 0x20 DUP2 ADD SWAP1 SWAP2 MSTORE DUP10 DUP2 MSTORE SWAP2 ADD MLOAD SWAP1 DUP2 ADD ADD MSTORE JUMP JUMPDEST PUSH1 0xA0 DUP4 ADD MLOAD PUSH3 0xFFFFFF DUP2 AND SWAP1 PUSH1 0x80 SHR PUSH1 0x60 DUP1 MLOAD PUSH1 0x80 ADD DUP1 MLOAD DUP4 ADD SWAP1 MSTORE DUP1 MLOAD PUSH1 0x0 DUP1 MLOAD PUSH1 0x20 DUP2 ADD SWAP1 SWAP2 MSTORE DUP10 DUP2 MSTORE SWAP2 ADD MLOAD SWAP1 DUP2 ADD ADD DUP2 SWAP1 MSTORE SWAP5 POP SWAP3 POP PUSH1 0x8 SWAP2 POP PUSH1 0x0 SWAP2 POP PUSH1 0x0 JUMPDEST DUP5 DUP2 LT ISZERO PUSH2 0x1428 JUMPI DUP1 DUP5 ADD CALLDATALOAD PUSH1 0x0 BYTE PUSH2 0x141A DUP2 PUSH1 0x60 MLOAD PUSH1 0x40 ADD DUP1 MLOAD PUSH1 0x20 DUP2 ADD SWAP1 SWAP2 MSTORE MSTORE JUMP JUMPDEST ISZERO SWAP3 SWAP1 SWAP3 ADD SWAP2 PUSH1 0x1 ADD PUSH2 0x13F5 JUMP JUMPDEST POP PUSH1 0x60 DUP1 MLOAD PUSH1 0x0 DUP1 MLOAD PUSH1 0x20 DUP2 ADD SWAP1 SWAP2 MSTORE DUP8 DUP2 MSTORE SWAP2 ADD MLOAD PUSH1 0x4 DUP5 MUL DUP5 DUP8 SUB PUSH1 0x10 MUL ADD SWAP2 DUP2 ADD ADD DUP2 SWAP1 MSTORE POP PUSH17 0x14551231950B75FC4402DA1732FC9BEBE NOT DUP2 MOD SWAP4 POP PUSH1 0xA SWAP3 POP PUSH2 0x1478 PUSH2 0x1394 DUP6 PUSH2 0x101F JUMP JUMPDEST POP POP POP POP PUSH2 0x1244 JUMP JUMPDEST PUSH2 0x1494 PUSH4 0x44415441 PUSH1 0xE0 SHL DUP4 DUP6 EQ PUSH2 0xCA3 JUMP JUMPDEST PUSH1 0x60 MLOAD PUSH1 0x80 ADD MLOAD PUSH2 0x14B6 PUSH8 0x4D41585F44415441 PUSH1 0xC0 SHL DUP13 DUP4 EQ DUP14 DUP5 LT OR PUSH2 0xCA3 JUMP JUMPDEST POP JUMPDEST DUP11 DUP2 LT ISZERO PUSH2 0x14F9 JUMPI PUSH1 0x1 SWAP1 DUP2 ADD SWAP1 JUMPDEST PUSH1 0xB DUP2 LT ISZERO PUSH2 0x14F3 JUMPI PUSH1 0x60 DUP1 MLOAD PUSH1 0x0 DUP1 MLOAD PUSH1 0x20 DUP2 ADD DUP3 MSTORE DUP6 DUP2 MSTORE SWAP2 SWAP1 SWAP3 ADD MLOAD SWAP1 DUP2 ADD ADD MSTORE PUSH1 0x1 ADD PUSH2 0x14C7 JUMP JUMPDEST POP PUSH2 0x14B8 JUMP JUMPDEST PUSH2 0x150F PUSH7 0x4D41585F545853 PUSH1 0xC8 SHL DUP13 DUP4 EQ PUSH2 0xCA3 JUMP JUMPDEST POP POP POP PUSH1 0x20 MLOAD PUSH1 0x40 MLOAD SUB PUSH1 0x0 DUP1 MLOAD PUSH1 0x20 PUSH2 0x1D73 DUP4 CODECOPY DUP2 MLOAD SWAP2 MSTORE DUP2 PUSH1 0x20 MLOAD KECCAK256 MOD DUP1 PUSH1 0x0 DUP5 ADD MSTORE PUSH1 0x0 PUSH1 0x20 MLOAD DUP4 DUP2 ADD JUMPDEST DUP2 DUP2 GT ISZERO PUSH2 0x156D JUMPI PUSH1 0x1F NOT ADD DUP1 MLOAD PUSH1 0x0 DUP1 MLOAD PUSH1 0x20 PUSH2 0x1D73 DUP4 CODECOPY DUP2 MLOAD SWAP2 MSTORE DUP1 DUP7 DUP7 MULMOD SWAP5 POP DUP1 DUP3 DUP7 ADDMOD SWAP5 POP POP POP PUSH2 0x153D JUMP JUMPDEST POP POP PUSH1 0x20 DUP5 DUP2 ADD SWAP2 SWAP1 SWAP2 MSTORE PUSH1 0x0 PUSH1 0x60 MSTORE MLOAD PUSH1 0x40 MSTORE POP POP PUSH1 0x1F NOT ADD SWAP8 SWAP7 POP POP POP POP POP POP POP JUMP JUMPDEST PUSH1 0x0 DUP1 PUSH2 0x159F DUP8 CALLVALUE PUSH2 0x1D5F JUMP JUMPDEST SWAP1 POP CALLER DUP9 DUP3 DUP10 DUP10 DUP10 DUP10 DUP10 PUSH1 0x40 MLOAD PUSH1 0x20 ADD PUSH2 0x15C0 SWAP9 SWAP8 SWAP7 SWAP6 SWAP5 SWAP4 SWAP3 SWAP2 SWAP1 PUSH2 0x1CCE JUMP JUMPDEST PUSH1 0x40 DUP1 MLOAD DUP1 DUP4 SUB PUSH1 0x1F NOT ADD DUP2 MSTORE SWAP2 DUP2 MSTORE DUP2 MLOAD PUSH1 0x20 SWAP3 DUP4 ADD KECCAK256 PUSH4 0x31DF76A4 PUSH1 0x0 SWAP1 DUP2 MSTORE SWAP3 DUP2 SWAP1 MSTORE SWAP2 KECCAK256 DUP1 SLOAD SWAP2 SWAP4 POP SWAP1 ISZERO PUSH2 0x1621 JUMPI PUSH1 0x40 MLOAD PUSH3 0x461BCD PUSH1 0xE5 SHL DUP2 MSTORE PUSH1 0x20 PUSH1 0x4 DUP3 ADD MSTORE PUSH1 0x3 PUSH1 0x24 DUP3 ADD MSTORE PUSH3 0x889A9 PUSH1 0xEB SHL PUSH1 0x44 DUP3 ADD MSTORE PUSH1 0x64 ADD PUSH2 0x337 JUMP JUMPDEST PUSH1 0x1 DUP2 SSTORE PUSH32 0x4D083D19FCC619DFA227D3294A08C9309C2C6F22E389D1FC386105B342058A43 CALLER DUP11 DUP5 DUP12 DUP12 DUP12 DUP12 DUP12 PUSH1 0x40 MLOAD PUSH2 0x1662 SWAP9 SWAP8 SWAP7 SWAP6 SWAP5 SWAP4 SWAP3 SWAP2 SWAP1 PUSH2 0x1CCE JUMP JUMPDEST PUSH1 0x40 MLOAD DUP1 SWAP2 SUB SWAP1 LOG1 POP POP SWAP7 SWAP6 POP POP POP POP POP POP JUMP JUMPDEST PUSH1 0x0 DUP1 PUSH2 0x1830 JUMP JUMPDEST PUSH1 0x40 MLOAD DUP2 SWAP1 PUSH1 0x0 DUP1 PUSH2 0x168F DUP5 PUSH2 0x8D7 JUMP JUMPDEST DUP2 DUP7 DUP7 CALLDATACOPY DUP2 DUP6 KECCAK256 SWAP1 SWAP6 SWAP1 SWAP3 POP ADD DUP5 DUP5 JUMPDEST DUP3 DUP8 LT ISZERO PUSH2 0xA22 JUMPI PUSH2 0x16B0 DUP8 PUSH2 0x92A JUMP JUMPDEST SWAP4 POP DUP1 DUP3 ADD SWAP9 POP DUP4 ISZERO PUSH2 0x16CD JUMPI PUSH1 0x80 DUP3 SWAP1 SHL DUP2 OR DUP4 MSTORE PUSH1 0x20 SWAP1 SWAP3 ADD SWAP2 JUMPDEST POP POP PUSH2 0x169F JUMP JUMPDEST PUSH1 0x1 DUP3 ADD PUSH1 0x0 DUP1 DUP1 DUP1 DUP7 CALLDATALOAD DUP2 BYTE DUP2 DUP1 JUMPDEST DUP3 DUP2 LT ISZERO PUSH2 0xBCC JUMPI PUSH1 0x0 DUP1 PUSH1 0x0 PUSH2 0x16FA DUP12 PUSH2 0x167E JUMP JUMPDEST SWAP4 POP SWAP4 POP SWAP4 POP SWAP11 POP DUP4 PUSH1 0x0 DUP2 EQ PUSH2 0x1723 JUMPI PUSH2 0x171E PUSH5 0xA89082A69 PUSH1 0xDB SHL DUP12 DUP5 PUSH2 0xCB7 JUMP JUMPDEST PUSH2 0x1727 JUMP JUMPDEST DUP2 SWAP11 POP JUMPDEST POP POP DUP1 PUSH1 0x2 DUP2 EQ PUSH2 0x174F JUMPI PUSH1 0x11 DUP2 EQ PUSH2 0x1788 JUMPI PUSH2 0x174A PUSH4 0x4E4F4445 PUSH1 0xE0 SHL PUSH2 0x6E3 JUMP JUMPDEST PUSH2 0x17AB JUMP JUMPDEST PUSH1 0x0 DUP1 PUSH2 0x175D PUSH1 0x1 DUP7 PUSH2 0xAA6 JUMP JUMPDEST POP SWAP11 POP POP POP PUSH1 0x0 NOT DUP7 ADD DUP5 EQ DUP1 ISZERO PUSH2 0x1777 JUMPI DUP4 SWAP8 POP PUSH2 0x1782 JUMP JUMPDEST DUP4 MLOAD PUSH1 0x80 SHR SWAP6 SWAP1 SWAP6 ADD SWAP5 JUMPDEST POP PUSH2 0x17AB JUMP JUMPDEST PUSH1 0x4 DUP6 MUL PUSH1 0xFC SUB DUP13 SWAP1 SHR PUSH1 0xF AND PUSH2 0x179F DUP2 DUP6 PUSH2 0xAA6 JUMP JUMPDEST POP SWAP10 POP POP PUSH1 0x1 SWAP5 SWAP1 SWAP5 ADD SWAP4 JUMPDEST POP POP POP PUSH1 0x1 ADD PUSH2 0x16E4 JUMP JUMPDEST DUP1 PUSH1 0x0 DUP1 DUP1 DUP1 DUP1 DUP1 DUP1 PUSH2 0x17CE DUP11 PUSH1 0x0 MSTORE PUSH1 0x14 PUSH1 0xC KECCAK256 SWAP1 JUMP JUMPDEST PUSH2 0x17D8 DUP10 DUP3 PUSH2 0x16D4 JUMP JUMPDEST SWAP6 POP SWAP8 POP SWAP5 POP SWAP9 POP SWAP9 POP POP PUSH2 0x17F6 PUSH6 0x20A1A622A0A3 PUSH1 0xD1 SHL DUP3 PUSH2 0xCA3 JUMP JUMPDEST PUSH2 0x1801 PUSH1 0x0 DUP3 PUSH2 0xA68 JUMP JUMPDEST SWAP5 POP PUSH2 0x1817 PUSH6 0x1050D493D3D5 PUSH1 0xD2 SHL DUP7 DUP7 PUSH2 0xCB7 JUMP JUMPDEST PUSH1 0x20 DUP2 ADD MLOAD PUSH3 0xFFFFFF AND SWAP5 POP PUSH1 0x0 SWAP4 POP PUSH2 0xBE5 DUP6 PUSH2 0x167E JUMP JUMPDEST DUP4 PUSH2 0xCD9 DUP7 DUP3 PUSH2 0x17B6 JUMP JUMPDEST DUP4 TIMESTAMP LT PUSH2 0x1870 JUMPI PUSH1 0x40 MLOAD PUSH3 0x461BCD PUSH1 0xE5 SHL DUP2 MSTORE PUSH1 0x20 PUSH1 0x4 DUP3 ADD MSTORE PUSH1 0x3 PUSH1 0x24 DUP3 ADD MSTORE PUSH3 0x111351 PUSH1 0xEA SHL PUSH1 0x44 DUP3 ADD MSTORE PUSH1 0x64 ADD PUSH2 0x337 JUMP JUMPDEST PUSH1 0x0 DUP9 DUP9 DUP9 DUP9 DUP9 DUP9 DUP9 DUP9 PUSH1 0x40 MLOAD PUSH1 0x20 ADD PUSH2 0x1891 SWAP9 SWAP8 SWAP7 SWAP6 SWAP5 SWAP4 SWAP3 SWAP2 SWAP1 PUSH2 0x1CCE JUMP JUMPDEST PUSH1 0x40 MLOAD PUSH1 0x20 DUP2 DUP4 SUB SUB DUP2 MSTORE SWAP1 PUSH1 0x40 MSTORE DUP1 MLOAD SWAP1 PUSH1 0x20 ADD KECCAK256 SWAP1 POP DUP6 PUSH1 0x0 EQ PUSH2 0x18BB JUMPI PUSH2 0x18BB ORIGIN DUP8 PUSH2 0x1967 JUMP JUMPDEST PUSH1 0x0 DUP1 SLOAD PUSH1 0x1 PUSH1 0x1 PUSH1 0xA0 SHL SUB NOT AND PUSH1 0x1 PUSH1 0x1 PUSH1 0xA0 SHL SUB DUP12 AND OR SWAP1 SSTORE PUSH2 0x18E2 DUP9 DUP9 DUP6 DUP6 PUSH2 0x19F3 JUMP JUMPDEST PUSH1 0x0 DUP1 SLOAD PUSH1 0x1 PUSH1 0x1 PUSH1 0xA0 SHL SUB NOT AND SWAP1 SSTORE PUSH1 0x40 MLOAD DUP2 DUP2 MSTORE PUSH32 0xFA39010B12E169F2D7E9A76E381216416DBF5EB59DB117AE979592EE9F323885 SWAP1 PUSH1 0x20 ADD PUSH1 0x40 MLOAD DUP1 SWAP2 SUB SWAP1 LOG1 POP POP POP POP POP POP POP POP POP JUMP JUMPDEST ORIGIN CALLER EQ PUSH2 0x1965 JUMPI PUSH1 0x40 MLOAD PUSH3 0x461BCD PUSH1 0xE5 SHL DUP2 MSTORE PUSH1 0x20 PUSH1 0x4 DUP3 ADD MSTORE PUSH1 0x3 PUSH1 0x24 DUP3 ADD MSTORE PUSH3 0x454F41 PUSH1 0xE8 SHL PUSH1 0x44 DUP3 ADD MSTORE PUSH1 0x64 ADD PUSH2 0x337 JUMP JUMPDEST JUMP JUMPDEST PUSH1 0x0 DUP3 PUSH1 0x1 PUSH1 0x1 PUSH1 0xA0 SHL SUB AND DUP3 PUSH1 0x40 MLOAD PUSH1 0x0 PUSH1 0x40 MLOAD DUP1 DUP4 SUB DUP2 DUP6 DUP8 GAS CALL SWAP3 POP POP POP RETURNDATASIZE DUP1 PUSH1 0x0 DUP2 EQ PUSH2 0x19B4 JUMPI PUSH1 0x40 MLOAD SWAP2 POP PUSH1 0x1F NOT PUSH1 0x3F RETURNDATASIZE ADD AND DUP3 ADD PUSH1 0x40 MSTORE RETURNDATASIZE DUP3 MSTORE RETURNDATASIZE PUSH1 0x0 PUSH1 0x20 DUP5 ADD RETURNDATACOPY PUSH2 0x19B9 JUMP JUMPDEST PUSH1 0x60 SWAP2 POP JUMPDEST POP POP SWAP1 POP DUP1 PUSH2 0xCB2 JUMPI PUSH1 0x40 MLOAD PUSH3 0x461BCD PUSH1 0xE5 SHL DUP2 MSTORE PUSH1 0x4 ADD PUSH2 0x337 SWAP1 PUSH1 0x20 DUP1 DUP3 MSTORE PUSH1 0x4 SWAP1 DUP3 ADD MSTORE PUSH4 0xA88AA89 PUSH1 0xE3 SHL PUSH1 0x40 DUP3 ADD MSTORE PUSH1 0x60 ADD SWAP1 JUMP JUMPDEST PUSH1 0x80 DUP2 DUP4 DUP3 CALLDATACOPY PUSH1 0x0 DUP1 DUP4 DUP4 DUP8 DUP10 GAS CALL PUSH2 0x1A10 JUMPI RETURNDATASIZE PUSH1 0x0 DUP1 RETURNDATACOPY RETURNDATASIZE PUSH1 0x0 REVERT JUMPDEST POP POP POP POP POP JUMP JUMPDEST PUSH1 0x0 PUSH1 0x20 DUP3 DUP5 SUB SLT ISZERO PUSH2 0x1A29 JUMPI PUSH1 0x0 DUP1 REVERT JUMPDEST POP CALLDATALOAD SWAP2 SWAP1 POP JUMP JUMPDEST DUP1 CALLDATALOAD PUSH1 0x1 PUSH1 0x1 PUSH1 0xA0 SHL SUB DUP2 AND DUP2 EQ PUSH2 0x1A47 JUMPI PUSH1 0x0 DUP1 REVERT JUMPDEST SWAP2 SWAP1 POP JUMP JUMPDEST PUSH1 0x0 DUP1 DUP4 PUSH1 0x1F DUP5 ADD SLT PUSH2 0x1A5E JUMPI PUSH1 0x0 DUP1 REVERT JUMPDEST POP DUP2 CALLDATALOAD PUSH8 0xFFFFFFFFFFFFFFFF DUP2 GT ISZERO PUSH2 0x1A76 JUMPI PUSH1 0x0 DUP1 REVERT JUMPDEST PUSH1 0x20 DUP4 ADD SWAP2 POP DUP4 PUSH1 0x20 DUP3 DUP6 ADD ADD GT ISZERO PUSH2 0xAE3 JUMPI PUSH1 0x0 DUP1 REVERT JUMPDEST PUSH1 0x0 DUP1 PUSH1 0x0 DUP1 PUSH1 0x0 DUP1 PUSH1 0x0 DUP1 PUSH1 0x0 DUP1 PUSH2 0x100 DUP12 DUP14 SUB SLT ISZERO PUSH2 0x1AAE JUMPI PUSH1 0x0 DUP1 REVERT JUMPDEST PUSH2 0x1AB7 DUP12 PUSH2 0x1A30 JUMP JUMPDEST SWAP10 POP PUSH2 0x1AC5 PUSH1 0x20 DUP13 ADD PUSH2 0x1A30 JUMP JUMPDEST SWAP9 POP PUSH1 0x40 DUP12 ADD CALLDATALOAD SWAP8 POP PUSH1 0x60 DUP12 ADD CALLDATALOAD SWAP7 POP PUSH1 0x80 DUP12 ADD CALLDATALOAD SWAP6 POP PUSH1 0xA0 DUP12 ADD CALLDATALOAD SWAP5 POP PUSH1 0xC0 DUP12 ADD CALLDATALOAD PUSH8 0xFFFFFFFFFFFFFFFF DUP1 DUP3 GT ISZERO PUSH2 0x1AFE JUMPI PUSH1 0x0 DUP1 REVERT JUMPDEST PUSH2 0x1B0A DUP15 DUP4 DUP16 ADD PUSH2 0x1A4C JUMP JUMPDEST SWAP1 SWAP7 POP SWAP5 POP PUSH1 0xE0 DUP14 ADD CALLDATALOAD SWAP2 POP DUP1 DUP3 GT ISZERO PUSH2 0x1B23 JUMPI PUSH1 0x0 DUP1 REVERT JUMPDEST POP PUSH2 0x1B30 DUP14 DUP3 DUP15 ADD PUSH2 0x1A4C JUMP JUMPDEST SWAP2 POP DUP1 SWAP4 POP POP DUP1 SWAP2 POP POP SWAP3 SWAP6 SWAP9 SWAP12 SWAP2 SWAP5 SWAP8 SWAP11 POP SWAP3 SWAP6 SWAP9 POP JUMP JUMPDEST PUSH1 0x0 DUP1 PUSH1 0x20 DUP4 DUP6 SUB SLT ISZERO PUSH2 0x1B5C JUMPI PUSH1 0x0 DUP1 REVERT JUMPDEST DUP3 CALLDATALOAD PUSH8 0xFFFFFFFFFFFFFFFF DUP2 GT ISZERO PUSH2 0x1B73 JUMPI PUSH1 0x0 DUP1 REVERT JUMPDEST PUSH2 0x1B7F DUP6 DUP3 DUP7 ADD PUSH2 0x1A4C JUMP JUMPDEST SWAP1 SWAP7 SWAP1 SWAP6 POP SWAP4 POP POP POP POP JUMP JUMPDEST PUSH1 0x20 DUP1 DUP3 MSTORE DUP3 MLOAD DUP3 DUP3 ADD DUP2 SWAP1 MSTORE PUSH1 0x0 SWAP2 SWAP1 DUP5 DUP3 ADD SWAP1 PUSH1 0x40 DUP6 ADD SWAP1 DUP5 JUMPDEST DUP2 DUP2 LT ISZERO PUSH2 0x1BC3 JUMPI DUP4 MLOAD DUP4 MSTORE SWAP3 DUP5 ADD SWAP3 SWAP2 DUP5 ADD SWAP2 PUSH1 0x1 ADD PUSH2 0x1BA7 JUMP JUMPDEST POP SWAP1 SWAP7 SWAP6 POP POP POP POP POP POP JUMP JUMPDEST PUSH1 0x0 DUP1 PUSH1 0x0 DUP1 PUSH1 0x0 DUP1 PUSH1 0xA0 DUP8 DUP10 SUB SLT ISZERO PUSH2 0x1BE8 JUMPI PUSH1 0x0 DUP1 REVERT JUMPDEST PUSH2 0x1BF1 DUP8 PUSH2 0x1A30 JUMP JUMPDEST SWAP6 POP PUSH1 0x20 DUP8 ADD CALLDATALOAD SWAP5 POP PUSH1 0x40 DUP8 ADD CALLDATALOAD SWAP4 POP PUSH1 0x60 DUP8 ADD CALLDATALOAD SWAP3 POP PUSH1 0x80 DUP8 ADD CALLDATALOAD PUSH8 0xFFFFFFFFFFFFFFFF DUP2 GT ISZERO PUSH2 0x1C22 JUMPI PUSH1 0x0 DUP1 REVERT JUMPDEST PUSH2 0x1C2E DUP10 DUP3 DUP11 ADD PUSH2 0x1A4C JUMP JUMPDEST SWAP8 SWAP11 SWAP7 SWAP10 POP SWAP5 SWAP8 POP SWAP3 SWAP6 SWAP4 SWAP5 SWAP3 POP POP POP JUMP JUMPDEST PUSH1 0x0 DUP1 PUSH1 0x40 DUP4 DUP6 SUB SLT ISZERO PUSH2 0x1C53 JUMPI PUSH1 0x0 DUP1 REVERT JUMPDEST POP POP DUP1 CALLDATALOAD SWAP3 PUSH1 0x20 SWAP1 SWAP2 ADD CALLDATALOAD SWAP2 POP JUMP JUMPDEST PUSH1 0x0 DUP1 PUSH1 0x0 DUP1 PUSH1 0x40 DUP6 DUP8 SUB SLT ISZERO PUSH2 0x1C78 JUMPI PUSH1 0x0 DUP1 REVERT JUMPDEST DUP5 CALLDATALOAD PUSH8 0xFFFFFFFFFFFFFFFF DUP1 DUP3 GT ISZERO PUSH2 0x1C90 JUMPI PUSH1 0x0 DUP1 REVERT JUMPDEST PUSH2 0x1C9C DUP9 DUP4 DUP10 ADD PUSH2 0x1A4C JUMP JUMPDEST SWAP1 SWAP7 POP SWAP5 POP PUSH1 0x20 DUP8 ADD CALLDATALOAD SWAP2 POP DUP1 DUP3 GT ISZERO PUSH2 0x1CB5 JUMPI PUSH1 0x0 DUP1 REVERT JUMPDEST POP PUSH2 0x1CC2 DUP8 DUP3 DUP9 ADD PUSH2 0x1A4C JUMP JUMPDEST SWAP6 SWAP9 SWAP5 SWAP8 POP SWAP6 POP POP POP POP JUMP JUMPDEST PUSH1 0x0 PUSH1 0x1 DUP1 PUSH1 0xA0 SHL SUB DUP1 DUP12 AND DUP4 MSTORE DUP1 DUP11 AND PUSH1 0x20 DUP5 ADD MSTORE POP DUP8 PUSH1 0x40 DUP4 ADD MSTORE DUP7 PUSH1 0x60 DUP4 ADD MSTORE DUP6 PUSH1 0x80 DUP4 ADD MSTORE DUP5 PUSH1 0xA0 DUP4 ADD MSTORE PUSH1 0xE0 PUSH1 0xC0 DUP4 ADD MSTORE DUP3 PUSH1 0xE0 DUP4 ADD MSTORE PUSH2 0x100 DUP4 DUP6 DUP3 DUP6 ADD CALLDATACOPY PUSH1 0x0 DUP4 DUP6 ADD DUP3 ADD MSTORE PUSH1 0x1F SWAP1 SWAP4 ADD PUSH1 0x1F NOT AND SWAP1 SWAP2 ADD SWAP1 SWAP2 ADD SWAP9 SWAP8 POP POP POP POP POP POP POP POP JUMP JUMPDEST PUSH4 0x4E487B71 PUSH1 0xE0 SHL PUSH1 0x0 MSTORE PUSH1 0x11 PUSH1 0x4 MSTORE PUSH1 0x24 PUSH1 0x0 REVERT JUMPDEST DUP1 DUP3 ADD DUP1 DUP3 GT ISZERO PUSH2 0x8D1 JUMPI PUSH2 0x8D1 PUSH2 0x1D36 JUMP JUMPDEST DUP2 DUP2 SUB DUP2 DUP2 GT ISZERO PUSH2 0x8D1 JUMPI PUSH2 0x8D1 PUSH2 0x1D36 JUMP INVALID ADDRESS PUSH5 0x4E72E131A0 0x29 0xB8 POP GASLIMIT 0xB6 DUP2 DUP2 PC 0x5D 0x28 CALLER 0xE8 BASEFEE PUSH26 0xB9709143E1F593F0000001A264697066735822122025FD273854 0x4A JUMPDEST LOG4 DUP6 MOD 0x28 EQ 0x5C 0xF SGT 0xC7 0xC2 TIMESTAMP 0xD8 DUP11 SWAP16 0xC0 0xB2 MULMOD 0xE2 0xDB 0x1E CALLDATACOPY PUSH17 0x3EA02F64736F6C63430008120033000000 "
		},
		"gasEstimates": {
			"creation": {
				"codeDepositCost": "1524800",
				"executionCost": "1596",
				"totalCost": "1526396"
			},
			"external": {
				"buildCommitment(bytes)": "infinite",
				"deliverMessageWithProof(address,address,uint256,uint256,uint256,uint256,bytes,bytes)": "infinite",
				"dispatchMessage(address,uint256,uint256,uint256,bytes)": "infinite",
				"dropMessage(address,address,uint256,uint256,uint256,uint256,bytes,bytes)": "infinite",
				"finalizeBlock(bytes)": "infinite",
				"getTimestampForStorageRoot(bytes32)": "2494",
				"importForeignBridgeState(bytes,bytes)": "infinite",
				"initGenesis(bytes32,bytes32)": "22426",
				"messageOrigin()": "2390",
				"multicall()": "infinite",
				"stateRoots(bytes32)": "2450",
				"submitBlock(bytes)": "infinite"
			}
		},
		"methodIdentifiers": {
			"buildCommitment(bytes)": "594a90ba",
			"deliverMessageWithProof(address,address,uint256,uint256,uint256,uint256,bytes,bytes)": "8dfbfead",
			"dispatchMessage(address,uint256,uint256,uint256,bytes)": "5d4d3bcd",
			"dropMessage(address,address,uint256,uint256,uint256,uint256,bytes,bytes)": "2822697b",
			"finalizeBlock(bytes)": "94907e7e",
			"getTimestampForStorageRoot(bytes32)": "312faf74",
			"importForeignBridgeState(bytes,bytes)": "6e94aac5",
			"initGenesis(bytes32,bytes32)": "601333d1",
			"messageOrigin()": "3b1623fe",
			"multicall()": "1cdcf85a",
			"stateRoots(bytes32)": "1d7161a2",
			"submitBlock(bytes)": "d5107381"
		}
	},
	"abi": [
		{
			"anonymous": false,
			"inputs": [
				{
					"indexed": false,
					"internalType": "bytes32",
					"name": "blockHash",
					"type": "bytes32"
				}
			],
			"name": "BlockFinalized",
			"type": "event"
		},
		{
			"anonymous": false,
			"inputs": [],
			"name": "BlockSubmitted",
			"type": "event"
		},
		{
			"anonymous": false,
			"inputs": [
				{
					"indexed": true,
					"internalType": "bytes32",
					"name": "blockHash",
					"type": "bytes32"
				},
				{
					"indexed": true,
					"internalType": "bytes32",
					"name": "stateRoot",
					"type": "bytes32"
				},
				{
					"indexed": false,
					"internalType": "uint256",
					"name": "timestamp",
					"type": "uint256"
				}
			],
			"name": "ForeignBridgeStateImported",
			"type": "event"
		},
		{
			"anonymous": false,
			"inputs": [
				{
					"indexed": false,
					"internalType": "bytes32",
					"name": "id",
					"type": "bytes32"
				}
			],
			"name": "MessageDelivered",
			"type": "event"
		},
		{
			"anonymous": false,
			"inputs": [
				{
					"indexed": false,
					"internalType": "address",
					"name": "from",
					"type": "address"
				},
				{
					"indexed": false,
					"internalType": "address",
					"name": "to",
					"type": "address"
				},
				{
					"indexed": false,
					"internalType": "uint256",
					"name": "value",
					"type": "uint256"
				},
				{
					"indexed": false,
					"internalType": "uint256",
					"name": "fee",
					"type": "uint256"
				},
				{
					"indexed": false,
					"internalType": "uint256",
					"name": "deadline",
					"type": "uint256"
				},
				{
					"indexed": false,
					"internalType": "uint256",
					"name": "nonce",
					"type": "uint256"
				},
				{
					"indexed": false,
					"internalType": "bytes",
					"name": "data",
					"type": "bytes"
				}
			],
			"name": "MessageDispatched",
			"type": "event"
		},
		{
			"anonymous": false,
			"inputs": [
				{
					"indexed": false,
					"internalType": "bytes32",
					"name": "id",
					"type": "bytes32"
				}
			],
			"name": "MessageDropped",
			"type": "event"
		},
		{
			"inputs": [
				{
					"internalType": "bytes",
					"name": "witness",
					"type": "bytes"
				}
			],
			"name": "buildCommitment",
			"outputs": [
				{
					"internalType": "uint256[]",
					"name": "result",
					"type": "uint256[]"
				}
			],
			"stateMutability": "view",
			"type": "function"
		},
		{
			"inputs": [
				{
					"internalType": "address",
					"name": "from",
					"type": "address"
				},
				{
					"internalType": "address",
					"name": "to",
					"type": "address"
				},
				{
					"internalType": "uint256",
					"name": "value",
					"type": "uint256"
				},
				{
					"internalType": "uint256",
					"name": "fee",
					"type": "uint256"
				},
				{
					"internalType": "uint256",
					"name": "deadline",
					"type": "uint256"
				},
				{
					"internalType": "uint256",
					"name": "nonce",
					"type": "uint256"
				},
				{
					"internalType": "bytes",
					"name": "data",
					"type": "bytes"
				},
				{
					"internalType": "bytes",
					"name": "proof",
					"type": "bytes"
				}
			],
			"name": "deliverMessageWithProof",
			"outputs": [],
			"stateMutability": "nonpayable",
			"type": "function"
		},
		{
			"inputs": [
				{
					"internalType": "address",
					"name": "to",
					"type": "address"
				},
				{
					"internalType": "uint256",
					"name": "fee",
					"type": "uint256"
				},
				{
					"internalType": "uint256",
					"name": "deadline",
					"type": "uint256"
				},
				{
					"internalType": "uint256",
					"name": "nonce",
					"type": "uint256"
				},
				{
					"internalType": "bytes",
					"name": "data",
					"type": "bytes"
				}
			],
			"name": "dispatchMessage",
			"outputs": [
				{
					"internalType": "bytes32",
					"name": "messageHash",
					"type": "bytes32"
				}
			],
			"stateMutability": "payable",
			"type": "function"
		},
		{
			"inputs": [
				{
					"internalType": "address",
					"name": "from",
					"type": "address"
				},
				{
					"internalType": "address",
					"name": "to",
					"type": "address"
				},
				{
					"internalType": "uint256",
					"name": "value",
					"type": "uint256"
				},
				{
					"internalType": "uint256",
					"name": "fee",
					"type": "uint256"
				},
				{
					"internalType": "uint256",
					"name": "deadline",
					"type": "uint256"
				},
				{
					"internalType": "uint256",
					"name": "nonce",
					"type": "uint256"
				},
				{
					"internalType": "bytes",
					"name": "data",
					"type": "bytes"
				},
				{
					"internalType": "bytes",
					"name": "proof",
					"type": "bytes"
				}
			],
			"name": "dropMessage",
			"outputs": [],
			"stateMutability": "nonpayable",
			"type": "function"
		},
		{
			"inputs": [
				{
					"internalType": "bytes",
					"name": "proof",
					"type": "bytes"
				}
			],
			"name": "finalizeBlock",
			"outputs": [],
			"stateMutability": "nonpayable",
			"type": "function"
		},
		{
			"inputs": [
				{
					"internalType": "bytes32",
					"name": "val",
					"type": "bytes32"
				}
			],
			"name": "getTimestampForStorageRoot",
			"outputs": [
				{
					"internalType": "uint256",
					"name": "",
					"type": "uint256"
				}
			],
			"stateMutability": "view",
			"type": "function"
		},
		{
			"inputs": [
				{
					"internalType": "bytes",
					"name": "blockHeader",
					"type": "bytes"
				},
				{
					"internalType": "bytes",
					"name": "accountProof",
					"type": "bytes"
				}
			],
			"name": "importForeignBridgeState",
			"outputs": [],
			"stateMutability": "nonpayable",
			"type": "function"
		},
		{
			"inputs": [
				{
					"internalType": "bytes32",
					"name": "_blockHash",
					"type": "bytes32"
				},
				{
					"internalType": "bytes32",
					"name": "_stateRoot",
					"type": "bytes32"
				}
			],
			"name": "initGenesis",
			"outputs": [],
			"stateMutability": "nonpayable",
			"type": "function"
		},
		{
			"inputs": [],
			"name": "messageOrigin",
			"outputs": [
				{
					"internalType": "address",
					"name": "",
					"type": "address"
				}
			],
			"stateMutability": "view",
			"type": "function"
		},
		{
			"inputs": [],
			"name": "multicall",
			"outputs": [],
			"stateMutability": "nonpayable",
			"type": "function"
		},
		{
			"inputs": [
				{
					"internalType": "bytes32",
					"name": "",
					"type": "bytes32"
				}
			],
			"name": "stateRoots",
			"outputs": [
				{
					"internalType": "bytes32",
					"name": "",
					"type": "bytes32"
				}
			],
			"stateMutability": "view",
			"type": "function"
		},
		{
			"inputs": [
				{
					"internalType": "bytes",
					"name": "witness",
					"type": "bytes"
				}
			],
			"name": "submitBlock",
			"outputs": [],
			"stateMutability": "nonpayable",
			"type": "function"
		}
	]
}