{
	"data": {
		"bytecode": {
			"linkReferences": {},
			"object": "608060405234801561001057600080fd5b506115a4806100206000396000f3fe60806040526004361061002d5760003560e01c80632822697b146100aa5780635d4d3bcd146100d3576100a5565b366100a5576201000073ffffffffffffffffffffffffffffffffffffffff163373ffffffffffffffffffffffffffffffffffffffff16146100a3576040517f08c379a000000000000000000000000000000000000000000000000000000000815260040161009a90610ce7565b60405180910390fd5b005b600080fd5b3480156100b657600080fd5b506100d160048036038101906100cc9190610e0a565b610103565b005b6100ed60048036038101906100e89190610f01565b61041b565b6040516100fa9190610fb4565b60405180910390f35b600087896101119190610ffe565b90506000811461025a5760006201000073ffffffffffffffffffffffffffffffffffffffff16826040516024016101489190611041565b6040516020818303038152906040527ffcd5e7b3000000000000000000000000000000000000000000000000000000007bffffffffffffffffffffffffffffffffffffffffffffffffffffffff19166020820180517bffffffffffffffffffffffffffffffffffffffffffffffffffffffff83818316178352505050506040516101d291906110cd565b6000604051808303816000865af19150503d806000811461020f576040519150601f19603f3d011682016040523d82523d6000602084013e610214565b606091505b5050905080610258576040517f08c379a000000000000000000000000000000000000000000000000000000000815260040161024f90611130565b60405180910390fd5b505b60008b8b8b8b8b8b8b8b60405160200161027b9897969594939291906111bd565b6040516020818303038152906040528051906020012090506000806102a96102a28461044c565b8787610466565b915091506000801b81146102f2576040517f08c379a00000000000000000000000000000000000000000000000000000000081526004016102e990611281565b60405180910390fd5b6000801b8203610337576040517f08c379a000000000000000000000000000000000000000000000000000000000815260040161032e906112ed565b60405180910390fd5b60006201000073ffffffffffffffffffffffffffffffffffffffff1663312faf74846040518263ffffffff1660e01b81526004016103759190610fb4565b602060405180830381865afa158015610392573d6000803e3d6000fd5b505050506040513d601f19601f820116820180604052508101906103b69190611322565b90508a81116103fa576040517f08c379a00000000000000000000000000000000000000000000000000000000081526004016103f19061139b565b60405180910390fd5b5050505061040e8b8b8b8b8b8b8b8b610981565b5050505050505050505050565b6000803414610432576104316201000034610ac8565b5b610440878787878787610b79565b90509695505050505050565b60006331df76a46000528160205260406000209050919050565b600080610934565b60008190506080821061049d576020831161049d576008830260088103905060ff811b80199050808316925050505b92915050565b600080823560001a60f88110156104c65760bf81039250600184019150506104ff565b60f7810360048111156104d557fe5b6001850192508235600882026101000381811c915082820195506001860195508285019450505050505b915091565b6000806000833560001a6080811015610528576001935084925060019150506105ac565b60b88110156105475760808103935060018501925060019150506105ac565b60c08110156105895760b78103600481111561055f57fe5b6001860193508335600882026101000381811c9150819650828601955060019450505050506105ac565b60f881101561059e57600185019250506105ac565b60f781039350600185019250505b9193909250565b60008060008084935060405192506105ca846104a3565b818686378185209250848287018297505b80881015610610576105ec88610504565b8183019a50801561060857818360801b17808652602086019550505b5050506105db565b80881461061957fe5b6020878303049550505050509193509193565b60008160005260206000209050919050565b60008190506004830260001980821c90508083169250506020600285061561066557600390505b8161010003915080821b90508281179250505092915050565b60008260200282015162ffffff81168160801c601f8111156106ae576020810382019150813593505050506106c3565b600881602003028235945084811c9450505050505b92915050565b6000808360200283015162ffffff81168160801c9250601f8311156106fb57602083038101905080359350505061070f565b600883602003028135945084811c94505050505b9250929050565b6000806000806000869450843560001a6001860195506000805b8281101561083e5760008060006107468b6105b3565b9350935093509a508360008114610787576107827f54484153480000000000000000000000000000000000000000000000000000008b84610919565b61078b565b819a505b5081600281146107cb576011811461080a576107c67f4e4f4445000000000000000000000000000000000000000000000000000000006108e1565b61082f565b6000806107d96001876106c9565b91509150819b50600189038714600081146107f657869a50610802565b865160801c808a019950505b50505061082f565b6004860260fc03600f8e821c1661082181876106c9565b819d5060018a019950505050505b50505050600181019050610730565b50610849818961063e565b935050509295509295909350565b600080600083925060008060008060006108708a61062c565b61087a8982610716565b9550975095509850985081600081146108d25761089860008461067e565b96506108a56001846106c9565b9450975086861480600081146108c6576108bf868b61046e565b99506108cb565b600099505b50506108d3565b5b505050505050509250925092565b6308c379a060e01b60005260206004528060445260005b811561090f578160081b91506001810190506108f8565b8060245260646000fd5b8181146000810361092e5761092d846108e1565b5b50505050565b8361093f8682610857565b9350935090508385018114610978576109777f424f554e445300000000000000000000000000000000000000000000000000006108e1565b5b50935093915050565b8342116109c3576040517f08c379a00000000000000000000000000000000000000000000000000000000081526004016109ba90611407565b60405180910390fd5b600088888888888888886040516020016109e49897969594939291906111bd565b6040516020818303038152906040528051906020012090506000610a078261044c565b90506000610a1482610c78565b03610a54576040517f08c379a0000000000000000000000000000000000000000000000000000000008152600401610a4b90611473565b60405180910390fd5b610a61816000801b610c83565b60008789610a6f9190610ffe565b905060008114610a8457610a838b82610ac8565b5b7f6629230ca69c43f97674dd064896b819957583c8d20a870e4fb28b05c5d29f2983604051610ab39190610fb4565b60405180910390a15050505050505050505050565b60008273ffffffffffffffffffffffffffffffffffffffff1682604051610aee906114b9565b60006040518083038185875af1925050503d8060008114610b2b576040519150601f19603f3d011682016040523d82523d6000602084013e610b30565b606091505b5050905080610b74576040517f08c379a0000000000000000000000000000000000000000000000000000000008152600401610b6b9061151a565b60405180910390fd5b505050565b6000808634610b88919061153a565b90503388828989898989604051602001610ba99897969594939291906111bd565b6040516020818303038152906040528051906020012091506000610bcc8361044c565b90506000610bd982610c78565b14610c19576040517f08c379a0000000000000000000000000000000000000000000000000000000008152600401610c1090611473565b60405180910390fd5b610c2781600160001b610c83565b7f4d083d19fcc619dfa227d3294a08c9309c2c6f22e389d1fc386105b342058a43338a848b8b8b8b8b604051610c649897969594939291906111bd565b60405180910390a150509695505050505050565b600081549050919050565b8082555050565b600082825260208201905092915050565b7f4d53454400000000000000000000000000000000000000000000000000000000600082015250565b6000610cd1600483610c8a565b9150610cdc82610c9b565b602082019050919050565b60006020820190508181036000830152610d0081610cc4565b9050919050565b600080fd5b600080fd5b600073ffffffffffffffffffffffffffffffffffffffff82169050919050565b6000610d3c82610d11565b9050919050565b610d4c81610d31565b8114610d5757600080fd5b50565b600081359050610d6981610d43565b92915050565b6000819050919050565b610d8281610d6f565b8114610d8d57600080fd5b50565b600081359050610d9f81610d79565b92915050565b600080fd5b600080fd5b600080fd5b60008083601f840112610dca57610dc9610da5565b5b8235905067ffffffffffffffff811115610de757610de6610daa565b5b602083019150836001820283011115610e0357610e02610daf565b5b9250929050565b6000806000806000806000806000806101008b8d031215610e2e57610e2d610d07565b5b6000610e3c8d828e01610d5a565b9a50506020610e4d8d828e01610d5a565b9950506040610e5e8d828e01610d90565b9850506060610e6f8d828e01610d90565b9750506080610e808d828e01610d90565b96505060a0610e918d828e01610d90565b95505060c08b013567ffffffffffffffff811115610eb257610eb1610d0c565b5b610ebe8d828e01610db4565b945094505060e08b013567ffffffffffffffff811115610ee157610ee0610d0c565b5b610eed8d828e01610db4565b92509250509295989b9194979a5092959850565b60008060008060008060a08789031215610f1e57610f1d610d07565b5b6000610f2c89828a01610d5a565b9650506020610f3d89828a01610d90565b9550506040610f4e89828a01610d90565b9450506060610f5f89828a01610d90565b935050608087013567ffffffffffffffff811115610f8057610f7f610d0c565b5b610f8c89828a01610db4565b92509250509295509295509295565b6000819050919050565b610fae81610f9b565b82525050565b6000602082019050610fc96000830184610fa5565b92915050565b7f4e487b7100000000000000000000000000000000000000000000000000000000600052601160045260246000fd5b600061100982610d6f565b915061101483610d6f565b925082820190508082111561102c5761102b610fcf565b5b92915050565b61103b81610d6f565b82525050565b60006020820190506110566000830184611032565b92915050565b600081519050919050565b600081905092915050565b60005b83811015611090578082015181840152602081019050611075565b60008484015250505050565b60006110a78261105c565b6110b18185611067565b93506110c1818560208601611072565b80840191505092915050565b60006110d9828461109c565b915081905092915050565b7f5251455448000000000000000000000000000000000000000000000000000000600082015250565b600061111a600583610c8a565b9150611125826110e4565b602082019050919050565b600060208201905081810360008301526111498161110d565b9050919050565b61115981610d31565b82525050565b600082825260208201905092915050565b82818337600083830152505050565b6000601f19601f8301169050919050565b600061119c838561115f565b93506111a9838584611170565b6111b28361117f565b840190509392505050565b600060e0820190506111d2600083018b611150565b6111df602083018a611150565b6111ec6040830189611032565b6111f96060830188611032565b6112066080830187611032565b61121360a0830186611032565b81810360c0830152611226818486611190565b90509998505050505050505050565b7f444d56414c000000000000000000000000000000000000000000000000000000600082015250565b600061126b600583610c8a565b915061127682611235565b602082019050919050565b6000602082019050818103600083015261129a8161125e565b9050919050565b7f5354524f4f540000000000000000000000000000000000000000000000000000600082015250565b60006112d7600683610c8a565b91506112e2826112a1565b602082019050919050565b60006020820190508181036000830152611306816112ca565b9050919050565b60008151905061131c81610d79565b92915050565b60006020828403121561133857611337610d07565b5b60006113468482850161130d565b91505092915050565b7f444d545300000000000000000000000000000000000000000000000000000000600082015250565b6000611385600483610c8a565b91506113908261134f565b602082019050919050565b600060208201905081810360008301526113b481611378565b9050919050565b7f444d440000000000000000000000000000000000000000000000000000000000600082015250565b60006113f1600383610c8a565b91506113fc826113bb565b602082019050919050565b60006020820190508181036000830152611420816113e4565b9050919050565b7f444d480000000000000000000000000000000000000000000000000000000000600082015250565b600061145d600383610c8a565b915061146882611427565b602082019050919050565b6000602082019050818103600083015261148c81611450565b9050919050565b50565b60006114a3600083611067565b91506114ae82611493565b600082019050919050565b60006114c482611496565b9150819050919050565b7f5445544800000000000000000000000000000000000000000000000000000000600082015250565b6000611504600483610c8a565b915061150f826114ce565b602082019050919050565b60006020820190508181036000830152611533816114f7565b9050919050565b600061154582610d6f565b915061155083610d6f565b925082820390508181111561156857611567610fcf565b5b9291505056fea2646970667358221220d3f2566199703270c1f491a69868fe236756416839daceb1e932022553510cee64736f6c63430008100033",
			"opcodes": "PUSH1 0x80 PUSH1 0x40 MSTORE CALLVALUE DUP1 ISZERO PUSH2 0x10 JUMPI PUSH1 0x0 DUP1 REVERT JUMPDEST POP PUSH2 0x15A4 DUP1 PUSH2 0x20 PUSH1 0x0 CODECOPY PUSH1 0x0 RETURN INVALID PUSH1 0x80 PUSH1 0x40 MSTORE PUSH1 0x4 CALLDATASIZE LT PUSH2 0x2D JUMPI PUSH1 0x0 CALLDATALOAD PUSH1 0xE0 SHR DUP1 PUSH4 0x2822697B EQ PUSH2 0xAA JUMPI DUP1 PUSH4 0x5D4D3BCD EQ PUSH2 0xD3 JUMPI PUSH2 0xA5 JUMP JUMPDEST CALLDATASIZE PUSH2 0xA5 JUMPI PUSH3 0x10000 PUSH20 0xFFFFFFFFFFFFFFFFFFFFFFFFFFFFFFFFFFFFFFFF AND CALLER PUSH20 0xFFFFFFFFFFFFFFFFFFFFFFFFFFFFFFFFFFFFFFFF AND EQ PUSH2 0xA3 JUMPI PUSH1 0x40 MLOAD PUSH32 0x8C379A000000000000000000000000000000000000000000000000000000000 DUP2 MSTORE PUSH1 0x4 ADD PUSH2 0x9A SWAP1 PUSH2 0xCE7 JUMP JUMPDEST PUSH1 0x40 MLOAD DUP1 SWAP2 SUB SWAP1 REVERT JUMPDEST STOP JUMPDEST PUSH1 0x0 DUP1 REVERT JUMPDEST CALLVALUE DUP1 ISZERO PUSH2 0xB6 JUMPI PUSH1 0x0 DUP1 REVERT JUMPDEST POP PUSH2 0xD1 PUSH1 0x4 DUP1 CALLDATASIZE SUB DUP2 ADD SWAP1 PUSH2 0xCC SWAP2 SWAP1 PUSH2 0xE0A JUMP JUMPDEST PUSH2 0x103 JUMP JUMPDEST STOP JUMPDEST PUSH2 0xED PUSH1 0x4 DUP1 CALLDATASIZE SUB DUP2 ADD SWAP1 PUSH2 0xE8 SWAP2 SWAP1 PUSH2 0xF01 JUMP JUMPDEST PUSH2 0x41B JUMP JUMPDEST PUSH1 0x40 MLOAD PUSH2 0xFA SWAP2 SWAP1 PUSH2 0xFB4 JUMP JUMPDEST PUSH1 0x40 MLOAD DUP1 SWAP2 SUB SWAP1 RETURN JUMPDEST PUSH1 0x0 DUP8 DUP10 PUSH2 0x111 SWAP2 SWAP1 PUSH2 0xFFE JUMP JUMPDEST SWAP1 POP PUSH1 0x0 DUP2 EQ PUSH2 0x25A JUMPI PUSH1 0x0 PUSH3 0x10000 PUSH20 0xFFFFFFFFFFFFFFFFFFFFFFFFFFFFFFFFFFFFFFFF AND DUP3 PUSH1 0x40 MLOAD PUSH1 0x24 ADD PUSH2 0x148 SWAP2 SWAP1 PUSH2 0x1041 JUMP JUMPDEST PUSH1 0x40 MLOAD PUSH1 0x20 DUP2 DUP4 SUB SUB DUP2 MSTORE SWAP1 PUSH1 0x40 MSTORE PUSH32 0xFCD5E7B300000000000000000000000000000000000000000000000000000000 PUSH28 0xFFFFFFFFFFFFFFFFFFFFFFFFFFFFFFFFFFFFFFFFFFFFFFFFFFFFFFFF NOT AND PUSH1 0x20 DUP3 ADD DUP1 MLOAD PUSH28 0xFFFFFFFFFFFFFFFFFFFFFFFFFFFFFFFFFFFFFFFFFFFFFFFFFFFFFFFF DUP4 DUP2 DUP4 AND OR DUP4 MSTORE POP POP POP POP PUSH1 0x40 MLOAD PUSH2 0x1D2 SWAP2 SWAP1 PUSH2 0x10CD JUMP JUMPDEST PUSH1 0x0 PUSH1 0x40 MLOAD DUP1 DUP4 SUB DUP2 PUSH1 0x0 DUP7 GAS CALL SWAP2 POP POP RETURNDATASIZE DUP1 PUSH1 0x0 DUP2 EQ PUSH2 0x20F JUMPI PUSH1 0x40 MLOAD SWAP2 POP PUSH1 0x1F NOT PUSH1 0x3F RETURNDATASIZE ADD AND DUP3 ADD PUSH1 0x40 MSTORE RETURNDATASIZE DUP3 MSTORE RETURNDATASIZE PUSH1 0x0 PUSH1 0x20 DUP5 ADD RETURNDATACOPY PUSH2 0x214 JUMP JUMPDEST PUSH1 0x60 SWAP2 POP JUMPDEST POP POP SWAP1 POP DUP1 PUSH2 0x258 JUMPI PUSH1 0x40 MLOAD PUSH32 0x8C379A000000000000000000000000000000000000000000000000000000000 DUP2 MSTORE PUSH1 0x4 ADD PUSH2 0x24F SWAP1 PUSH2 0x1130 JUMP JUMPDEST PUSH1 0x40 MLOAD DUP1 SWAP2 SUB SWAP1 REVERT JUMPDEST POP JUMPDEST PUSH1 0x0 DUP12 DUP12 DUP12 DUP12 DUP12 DUP12 DUP12 DUP12 PUSH1 0x40 MLOAD PUSH1 0x20 ADD PUSH2 0x27B SWAP9 SWAP8 SWAP7 SWAP6 SWAP5 SWAP4 SWAP3 SWAP2 SWAP1 PUSH2 0x11BD JUMP JUMPDEST PUSH1 0x40 MLOAD PUSH1 0x20 DUP2 DUP4 SUB SUB DUP2 MSTORE SWAP1 PUSH1 0x40 MSTORE DUP1 MLOAD SWAP1 PUSH1 0x20 ADD KECCAK256 SWAP1 POP PUSH1 0x0 DUP1 PUSH2 0x2A9 PUSH2 0x2A2 DUP5 PUSH2 0x44C JUMP JUMPDEST DUP8 DUP8 PUSH2 0x466 JUMP JUMPDEST SWAP2 POP SWAP2 POP PUSH1 0x0 DUP1 SHL DUP2 EQ PUSH2 0x2F2 JUMPI PUSH1 0x40 MLOAD PUSH32 0x8C379A000000000000000000000000000000000000000000000000000000000 DUP2 MSTORE PUSH1 0x4 ADD PUSH2 0x2E9 SWAP1 PUSH2 0x1281 JUMP JUMPDEST PUSH1 0x40 MLOAD DUP1 SWAP2 SUB SWAP1 REVERT JUMPDEST PUSH1 0x0 DUP1 SHL DUP3 SUB PUSH2 0x337 JUMPI PUSH1 0x40 MLOAD PUSH32 0x8C379A000000000000000000000000000000000000000000000000000000000 DUP2 MSTORE PUSH1 0x4 ADD PUSH2 0x32E SWAP1 PUSH2 0x12ED JUMP JUMPDEST PUSH1 0x40 MLOAD DUP1 SWAP2 SUB SWAP1 REVERT JUMPDEST PUSH1 0x0 PUSH3 0x10000 PUSH20 0xFFFFFFFFFFFFFFFFFFFFFFFFFFFFFFFFFFFFFFFF AND PUSH4 0x312FAF74 DUP5 PUSH1 0x40 MLOAD DUP3 PUSH4 0xFFFFFFFF AND PUSH1 0xE0 SHL DUP2 MSTORE PUSH1 0x4 ADD PUSH2 0x375 SWAP2 SWAP1 PUSH2 0xFB4 JUMP JUMPDEST PUSH1 0x20 PUSH1 0x40 MLOAD DUP1 DUP4 SUB DUP2 DUP7 GAS STATICCALL ISZERO DUP1 ISZERO PUSH2 0x392 JUMPI RETURNDATASIZE PUSH1 0x0 DUP1 RETURNDATACOPY RETURNDATASIZE PUSH1 0x0 REVERT JUMPDEST POP POP POP POP PUSH1 0x40 MLOAD RETURNDATASIZE PUSH1 0x1F NOT PUSH1 0x1F DUP3 ADD AND DUP3 ADD DUP1 PUSH1 0x40 MSTORE POP DUP2 ADD SWAP1 PUSH2 0x3B6 SWAP2 SWAP1 PUSH2 0x1322 JUMP JUMPDEST SWAP1 POP DUP11 DUP2 GT PUSH2 0x3FA JUMPI PUSH1 0x40 MLOAD PUSH32 0x8C379A000000000000000000000000000000000000000000000000000000000 DUP2 MSTORE PUSH1 0x4 ADD PUSH2 0x3F1 SWAP1 PUSH2 0x139B JUMP JUMPDEST PUSH1 0x40 MLOAD DUP1 SWAP2 SUB SWAP1 REVERT JUMPDEST POP POP POP POP PUSH2 0x40E DUP12 DUP12 DUP12 DUP12 DUP12 DUP12 DUP12 DUP12 PUSH2 0x981 JUMP JUMPDEST POP POP POP POP POP POP POP POP POP POP POP JUMP JUMPDEST PUSH1 0x0 DUP1 CALLVALUE EQ PUSH2 0x432 JUMPI PUSH2 0x431 PUSH3 0x10000 CALLVALUE PUSH2 0xAC8 JUMP JUMPDEST JUMPDEST PUSH2 0x440 DUP8 DUP8 DUP8 DUP8 DUP8 DUP8 PUSH2 0xB79 JUMP JUMPDEST SWAP1 POP SWAP7 SWAP6 POP POP POP POP POP POP JUMP JUMPDEST PUSH1 0x0 PUSH4 0x31DF76A4 PUSH1 0x0 MSTORE DUP2 PUSH1 0x20 MSTORE PUSH1 0x40 PUSH1 0x0 KECCAK256 SWAP1 POP SWAP2 SWAP1 POP JUMP JUMPDEST PUSH1 0x0 DUP1 PUSH2 0x934 JUMP JUMPDEST PUSH1 0x0 DUP2 SWAP1 POP PUSH1 0x80 DUP3 LT PUSH2 0x49D JUMPI PUSH1 0x20 DUP4 GT PUSH2 0x49D JUMPI PUSH1 0x8 DUP4 MUL PUSH1 0x8 DUP2 SUB SWAP1 POP PUSH1 0xFF DUP2 SHL DUP1 NOT SWAP1 POP DUP1 DUP4 AND SWAP3 POP POP POP JUMPDEST SWAP3 SWAP2 POP POP JUMP JUMPDEST PUSH1 0x0 DUP1 DUP3 CALLDATALOAD PUSH1 0x0 BYTE PUSH1 0xF8 DUP2 LT ISZERO PUSH2 0x4C6 JUMPI PUSH1 0xBF DUP2 SUB SWAP3 POP PUSH1 0x1 DUP5 ADD SWAP2 POP POP PUSH2 0x4FF JUMP JUMPDEST PUSH1 0xF7 DUP2 SUB PUSH1 0x4 DUP2 GT ISZERO PUSH2 0x4D5 JUMPI INVALID JUMPDEST PUSH1 0x1 DUP6 ADD SWAP3 POP DUP3 CALLDATALOAD PUSH1 0x8 DUP3 MUL PUSH2 0x100 SUB DUP2 DUP2 SHR SWAP2 POP DUP3 DUP3 ADD SWAP6 POP PUSH1 0x1 DUP7 ADD SWAP6 POP DUP3 DUP6 ADD SWAP5 POP POP POP POP POP JUMPDEST SWAP2 POP SWAP2 JUMP JUMPDEST PUSH1 0x0 DUP1 PUSH1 0x0 DUP4 CALLDATALOAD PUSH1 0x0 BYTE PUSH1 0x80 DUP2 LT ISZERO PUSH2 0x528 JUMPI PUSH1 0x1 SWAP4 POP DUP5 SWAP3 POP PUSH1 0x1 SWAP2 POP POP PUSH2 0x5AC JUMP JUMPDEST PUSH1 0xB8 DUP2 LT ISZERO PUSH2 0x547 JUMPI PUSH1 0x80 DUP2 SUB SWAP4 POP PUSH1 0x1 DUP6 ADD SWAP3 POP PUSH1 0x1 SWAP2 POP POP PUSH2 0x5AC JUMP JUMPDEST PUSH1 0xC0 DUP2 LT ISZERO PUSH2 0x589 JUMPI PUSH1 0xB7 DUP2 SUB PUSH1 0x4 DUP2 GT ISZERO PUSH2 0x55F JUMPI INVALID JUMPDEST PUSH1 0x1 DUP7 ADD SWAP4 POP DUP4 CALLDATALOAD PUSH1 0x8 DUP3 MUL PUSH2 0x100 SUB DUP2 DUP2 SHR SWAP2 POP DUP2 SWAP7 POP DUP3 DUP7 ADD SWAP6 POP PUSH1 0x1 SWAP5 POP POP POP POP POP PUSH2 0x5AC JUMP JUMPDEST PUSH1 0xF8 DUP2 LT ISZERO PUSH2 0x59E JUMPI PUSH1 0x1 DUP6 ADD SWAP3 POP POP PUSH2 0x5AC JUMP JUMPDEST PUSH1 0xF7 DUP2 SUB SWAP4 POP PUSH1 0x1 DUP6 ADD SWAP3 POP POP JUMPDEST SWAP2 SWAP4 SWAP1 SWAP3 POP JUMP JUMPDEST PUSH1 0x0 DUP1 PUSH1 0x0 DUP1 DUP5 SWAP4 POP PUSH1 0x40 MLOAD SWAP3 POP PUSH2 0x5CA DUP5 PUSH2 0x4A3 JUMP JUMPDEST DUP2 DUP7 DUP7 CALLDATACOPY DUP2 DUP6 KECCAK256 SWAP3 POP DUP5 DUP3 DUP8 ADD DUP3 SWAP8 POP JUMPDEST DUP1 DUP9 LT ISZERO PUSH2 0x610 JUMPI PUSH2 0x5EC DUP9 PUSH2 0x504 JUMP JUMPDEST DUP2 DUP4 ADD SWAP11 POP DUP1 ISZERO PUSH2 0x608 JUMPI DUP2 DUP4 PUSH1 0x80 SHL OR DUP1 DUP7 MSTORE PUSH1 0x20 DUP7 ADD SWAP6 POP POP JUMPDEST POP POP POP PUSH2 0x5DB JUMP JUMPDEST DUP1 DUP9 EQ PUSH2 0x619 JUMPI INVALID JUMPDEST PUSH1 0x20 DUP8 DUP4 SUB DIV SWAP6 POP POP POP POP POP SWAP2 SWAP4 POP SWAP2 SWAP4 JUMP JUMPDEST PUSH1 0x0 DUP2 PUSH1 0x0 MSTORE PUSH1 0x20 PUSH1 0x0 KECCAK256 SWAP1 POP SWAP2 SWAP1 POP JUMP JUMPDEST PUSH1 0x0 DUP2 SWAP1 POP PUSH1 0x4 DUP4 MUL PUSH1 0x0 NOT DUP1 DUP3 SHR SWAP1 POP DUP1 DUP4 AND SWAP3 POP POP PUSH1 0x20 PUSH1 0x2 DUP6 MOD ISZERO PUSH2 0x665 JUMPI PUSH1 0x3 SWAP1 POP JUMPDEST DUP2 PUSH2 0x100 SUB SWAP2 POP DUP1 DUP3 SHL SWAP1 POP DUP3 DUP2 OR SWAP3 POP POP POP SWAP3 SWAP2 POP POP JUMP JUMPDEST PUSH1 0x0 DUP3 PUSH1 0x20 MUL DUP3 ADD MLOAD PUSH3 0xFFFFFF DUP2 AND DUP2 PUSH1 0x80 SHR PUSH1 0x1F DUP2 GT ISZERO PUSH2 0x6AE JUMPI PUSH1 0x20 DUP2 SUB DUP3 ADD SWAP2 POP DUP2 CALLDATALOAD SWAP4 POP POP POP POP PUSH2 0x6C3 JUMP JUMPDEST PUSH1 0x8 DUP2 PUSH1 0x20 SUB MUL DUP3 CALLDATALOAD SWAP5 POP DUP5 DUP2 SHR SWAP5 POP POP POP POP POP JUMPDEST SWAP3 SWAP2 POP POP JUMP JUMPDEST PUSH1 0x0 DUP1 DUP4 PUSH1 0x20 MUL DUP4 ADD MLOAD PUSH3 0xFFFFFF DUP2 AND DUP2 PUSH1 0x80 SHR SWAP3 POP PUSH1 0x1F DUP4 GT ISZERO PUSH2 0x6FB JUMPI PUSH1 0x20 DUP4 SUB DUP2 ADD SWAP1 POP DUP1 CALLDATALOAD SWAP4 POP POP POP PUSH2 0x70F JUMP JUMPDEST PUSH1 0x8 DUP4 PUSH1 0x20 SUB MUL DUP2 CALLDATALOAD SWAP5 POP DUP5 DUP2 SHR SWAP5 POP POP POP POP JUMPDEST SWAP3 POP SWAP3 SWAP1 POP JUMP JUMPDEST PUSH1 0x0 DUP1 PUSH1 0x0 DUP1 PUSH1 0x0 DUP7 SWAP5 POP DUP5 CALLDATALOAD PUSH1 0x0 BYTE PUSH1 0x1 DUP7 ADD SWAP6 POP PUSH1 0x0 DUP1 JUMPDEST DUP3 DUP2 LT ISZERO PUSH2 0x83E JUMPI PUSH1 0x0 DUP1 PUSH1 0x0 PUSH2 0x746 DUP12 PUSH2 0x5B3 JUMP JUMPDEST SWAP4 POP SWAP4 POP SWAP4 POP SWAP11 POP DUP4 PUSH1 0x0 DUP2 EQ PUSH2 0x787 JUMPI PUSH2 0x782 PUSH32 0x5448415348000000000000000000000000000000000000000000000000000000 DUP12 DUP5 PUSH2 0x919 JUMP JUMPDEST PUSH2 0x78B JUMP JUMPDEST DUP2 SWAP11 POP JUMPDEST POP DUP2 PUSH1 0x2 DUP2 EQ PUSH2 0x7CB JUMPI PUSH1 0x11 DUP2 EQ PUSH2 0x80A JUMPI PUSH2 0x7C6 PUSH32 0x4E4F444500000000000000000000000000000000000000000000000000000000 PUSH2 0x8E1 JUMP JUMPDEST PUSH2 0x82F JUMP JUMPDEST PUSH1 0x0 DUP1 PUSH2 0x7D9 PUSH1 0x1 DUP8 PUSH2 0x6C9 JUMP JUMPDEST SWAP2 POP SWAP2 POP DUP2 SWAP12 POP PUSH1 0x1 DUP10 SUB DUP8 EQ PUSH1 0x0 DUP2 EQ PUSH2 0x7F6 JUMPI DUP7 SWAP11 POP PUSH2 0x802 JUMP JUMPDEST DUP7 MLOAD PUSH1 0x80 SHR DUP1 DUP11 ADD SWAP10 POP POP JUMPDEST POP POP POP PUSH2 0x82F JUMP JUMPDEST PUSH1 0x4 DUP7 MUL PUSH1 0xFC SUB PUSH1 0xF DUP15 DUP3 SHR AND PUSH2 0x821 DUP2 DUP8 PUSH2 0x6C9 JUMP JUMPDEST DUP2 SWAP14 POP PUSH1 0x1 DUP11 ADD SWAP10 POP POP POP POP POP JUMPDEST POP POP POP POP PUSH1 0x1 DUP2 ADD SWAP1 POP PUSH2 0x730 JUMP JUMPDEST POP PUSH2 0x849 DUP2 DUP10 PUSH2 0x63E JUMP JUMPDEST SWAP4 POP POP POP SWAP3 SWAP6 POP SWAP3 SWAP6 SWAP1 SWAP4 POP JUMP JUMPDEST PUSH1 0x0 DUP1 PUSH1 0x0 DUP4 SWAP3 POP PUSH1 0x0 DUP1 PUSH1 0x0 DUP1 PUSH1 0x0 PUSH2 0x870 DUP11 PUSH2 0x62C JUMP JUMPDEST PUSH2 0x87A DUP10 DUP3 PUSH2 0x716 JUMP JUMPDEST SWAP6 POP SWAP8 POP SWAP6 POP SWAP9 POP SWAP9 POP DUP2 PUSH1 0x0 DUP2 EQ PUSH2 0x8D2 JUMPI PUSH2 0x898 PUSH1 0x0 DUP5 PUSH2 0x67E JUMP JUMPDEST SWAP7 POP PUSH2 0x8A5 PUSH1 0x1 DUP5 PUSH2 0x6C9 JUMP JUMPDEST SWAP5 POP SWAP8 POP DUP7 DUP7 EQ DUP1 PUSH1 0x0 DUP2 EQ PUSH2 0x8C6 JUMPI PUSH2 0x8BF DUP7 DUP12 PUSH2 0x46E JUMP JUMPDEST SWAP10 POP PUSH2 0x8CB JUMP JUMPDEST PUSH1 0x0 SWAP10 POP JUMPDEST POP POP PUSH2 0x8D3 JUMP JUMPDEST JUMPDEST POP POP POP POP POP POP POP SWAP3 POP SWAP3 POP SWAP3 JUMP JUMPDEST PUSH4 0x8C379A0 PUSH1 0xE0 SHL PUSH1 0x0 MSTORE PUSH1 0x20 PUSH1 0x4 MSTORE DUP1 PUSH1 0x44 MSTORE PUSH1 0x0 JUMPDEST DUP2 ISZERO PUSH2 0x90F JUMPI DUP2 PUSH1 0x8 SHL SWAP2 POP PUSH1 0x1 DUP2 ADD SWAP1 POP PUSH2 0x8F8 JUMP JUMPDEST DUP1 PUSH1 0x24 MSTORE PUSH1 0x64 PUSH1 0x0 REVERT JUMPDEST DUP2 DUP2 EQ PUSH1 0x0 DUP2 SUB PUSH2 0x92E JUMPI PUSH2 0x92D DUP5 PUSH2 0x8E1 JUMP JUMPDEST JUMPDEST POP POP POP POP JUMP JUMPDEST DUP4 PUSH2 0x93F DUP7 DUP3 PUSH2 0x857 JUMP JUMPDEST SWAP4 POP SWAP4 POP SWAP1 POP DUP4 DUP6 ADD DUP2 EQ PUSH2 0x978 JUMPI PUSH2 0x977 PUSH32 0x424F554E44530000000000000000000000000000000000000000000000000000 PUSH2 0x8E1 JUMP JUMPDEST JUMPDEST POP SWAP4 POP SWAP4 SWAP2 POP POP JUMP JUMPDEST DUP4 TIMESTAMP GT PUSH2 0x9C3 JUMPI PUSH1 0x40 MLOAD PUSH32 0x8C379A000000000000000000000000000000000000000000000000000000000 DUP2 MSTORE PUSH1 0x4 ADD PUSH2 0x9BA SWAP1 PUSH2 0x1407 JUMP JUMPDEST PUSH1 0x40 MLOAD DUP1 SWAP2 SUB SWAP1 REVERT JUMPDEST PUSH1 0x0 DUP9 DUP9 DUP9 DUP9 DUP9 DUP9 DUP9 DUP9 PUSH1 0x40 MLOAD PUSH1 0x20 ADD PUSH2 0x9E4 SWAP9 SWAP8 SWAP7 SWAP6 SWAP5 SWAP4 SWAP3 SWAP2 SWAP1 PUSH2 0x11BD JUMP JUMPDEST PUSH1 0x40 MLOAD PUSH1 0x20 DUP2 DUP4 SUB SUB DUP2 MSTORE SWAP1 PUSH1 0x40 MSTORE DUP1 MLOAD SWAP1 PUSH1 0x20 ADD KECCAK256 SWAP1 POP PUSH1 0x0 PUSH2 0xA07 DUP3 PUSH2 0x44C JUMP JUMPDEST SWAP1 POP PUSH1 0x0 PUSH2 0xA14 DUP3 PUSH2 0xC78 JUMP JUMPDEST SUB PUSH2 0xA54 JUMPI PUSH1 0x40 MLOAD PUSH32 0x8C379A000000000000000000000000000000000000000000000000000000000 DUP2 MSTORE PUSH1 0x4 ADD PUSH2 0xA4B SWAP1 PUSH2 0x1473 JUMP JUMPDEST PUSH1 0x40 MLOAD DUP1 SWAP2 SUB SWAP1 REVERT JUMPDEST PUSH2 0xA61 DUP2 PUSH1 0x0 DUP1 SHL PUSH2 0xC83 JUMP JUMPDEST PUSH1 0x0 DUP8 DUP10 PUSH2 0xA6F SWAP2 SWAP1 PUSH2 0xFFE JUMP JUMPDEST SWAP1 POP PUSH1 0x0 DUP2 EQ PUSH2 0xA84 JUMPI PUSH2 0xA83 DUP12 DUP3 PUSH2 0xAC8 JUMP JUMPDEST JUMPDEST PUSH32 0x6629230CA69C43F97674DD064896B819957583C8D20A870E4FB28B05C5D29F29 DUP4 PUSH1 0x40 MLOAD PUSH2 0xAB3 SWAP2 SWAP1 PUSH2 0xFB4 JUMP JUMPDEST PUSH1 0x40 MLOAD DUP1 SWAP2 SUB SWAP1 LOG1 POP POP POP POP POP POP POP POP POP POP POP JUMP JUMPDEST PUSH1 0x0 DUP3 PUSH20 0xFFFFFFFFFFFFFFFFFFFFFFFFFFFFFFFFFFFFFFFF AND DUP3 PUSH1 0x40 MLOAD PUSH2 0xAEE SWAP1 PUSH2 0x14B9 JUMP JUMPDEST PUSH1 0x0 PUSH1 0x40 MLOAD DUP1 DUP4 SUB DUP2 DUP6 DUP8 GAS CALL SWAP3 POP POP POP RETURNDATASIZE DUP1 PUSH1 0x0 DUP2 EQ PUSH2 0xB2B JUMPI PUSH1 0x40 MLOAD SWAP2 POP PUSH1 0x1F NOT PUSH1 0x3F RETURNDATASIZE ADD AND DUP3 ADD PUSH1 0x40 MSTORE RETURNDATASIZE DUP3 MSTORE RETURNDATASIZE PUSH1 0x0 PUSH1 0x20 DUP5 ADD RETURNDATACOPY PUSH2 0xB30 JUMP JUMPDEST PUSH1 0x60 SWAP2 POP JUMPDEST POP POP SWAP1 POP DUP1 PUSH2 0xB74 JUMPI PUSH1 0x40 MLOAD PUSH32 0x8C379A000000000000000000000000000000000000000000000000000000000 DUP2 MSTORE PUSH1 0x4 ADD PUSH2 0xB6B SWAP1 PUSH2 0x151A JUMP JUMPDEST PUSH1 0x40 MLOAD DUP1 SWAP2 SUB SWAP1 REVERT JUMPDEST POP POP POP JUMP JUMPDEST PUSH1 0x0 DUP1 DUP7 CALLVALUE PUSH2 0xB88 SWAP2 SWAP1 PUSH2 0x153A JUMP JUMPDEST SWAP1 POP CALLER DUP9 DUP3 DUP10 DUP10 DUP10 DUP10 DUP10 PUSH1 0x40 MLOAD PUSH1 0x20 ADD PUSH2 0xBA9 SWAP9 SWAP8 SWAP7 SWAP6 SWAP5 SWAP4 SWAP3 SWAP2 SWAP1 PUSH2 0x11BD JUMP JUMPDEST PUSH1 0x40 MLOAD PUSH1 0x20 DUP2 DUP4 SUB SUB DUP2 MSTORE SWAP1 PUSH1 0x40 MSTORE DUP1 MLOAD SWAP1 PUSH1 0x20 ADD KECCAK256 SWAP2 POP PUSH1 0x0 PUSH2 0xBCC DUP4 PUSH2 0x44C JUMP JUMPDEST SWAP1 POP PUSH1 0x0 PUSH2 0xBD9 DUP3 PUSH2 0xC78 JUMP JUMPDEST EQ PUSH2 0xC19 JUMPI PUSH1 0x40 MLOAD PUSH32 0x8C379A000000000000000000000000000000000000000000000000000000000 DUP2 MSTORE PUSH1 0x4 ADD PUSH2 0xC10 SWAP1 PUSH2 0x1473 JUMP JUMPDEST PUSH1 0x40 MLOAD DUP1 SWAP2 SUB SWAP1 REVERT JUMPDEST PUSH2 0xC27 DUP2 PUSH1 0x1 PUSH1 0x0 SHL PUSH2 0xC83 JUMP JUMPDEST PUSH32 0x4D083D19FCC619DFA227D3294A08C9309C2C6F22E389D1FC386105B342058A43 CALLER DUP11 DUP5 DUP12 DUP12 DUP12 DUP12 DUP12 PUSH1 0x40 MLOAD PUSH2 0xC64 SWAP9 SWAP8 SWAP7 SWAP6 SWAP5 SWAP4 SWAP3 SWAP2 SWAP1 PUSH2 0x11BD JUMP JUMPDEST PUSH1 0x40 MLOAD DUP1 SWAP2 SUB SWAP1 LOG1 POP POP SWAP7 SWAP6 POP POP POP POP POP POP JUMP JUMPDEST PUSH1 0x0 DUP2 SLOAD SWAP1 POP SWAP2 SWAP1 POP JUMP JUMPDEST DUP1 DUP3 SSTORE POP POP JUMP JUMPDEST PUSH1 0x0 DUP3 DUP3 MSTORE PUSH1 0x20 DUP3 ADD SWAP1 POP SWAP3 SWAP2 POP POP JUMP JUMPDEST PUSH32 0x4D53454400000000000000000000000000000000000000000000000000000000 PUSH1 0x0 DUP3 ADD MSTORE POP JUMP JUMPDEST PUSH1 0x0 PUSH2 0xCD1 PUSH1 0x4 DUP4 PUSH2 0xC8A JUMP JUMPDEST SWAP2 POP PUSH2 0xCDC DUP3 PUSH2 0xC9B JUMP JUMPDEST PUSH1 0x20 DUP3 ADD SWAP1 POP SWAP2 SWAP1 POP JUMP JUMPDEST PUSH1 0x0 PUSH1 0x20 DUP3 ADD SWAP1 POP DUP2 DUP2 SUB PUSH1 0x0 DUP4 ADD MSTORE PUSH2 0xD00 DUP2 PUSH2 0xCC4 JUMP JUMPDEST SWAP1 POP SWAP2 SWAP1 POP JUMP JUMPDEST PUSH1 0x0 DUP1 REVERT JUMPDEST PUSH1 0x0 DUP1 REVERT JUMPDEST PUSH1 0x0 PUSH20 0xFFFFFFFFFFFFFFFFFFFFFFFFFFFFFFFFFFFFFFFF DUP3 AND SWAP1 POP SWAP2 SWAP1 POP JUMP JUMPDEST PUSH1 0x0 PUSH2 0xD3C DUP3 PUSH2 0xD11 JUMP JUMPDEST SWAP1 POP SWAP2 SWAP1 POP JUMP JUMPDEST PUSH2 0xD4C DUP2 PUSH2 0xD31 JUMP JUMPDEST DUP2 EQ PUSH2 0xD57 JUMPI PUSH1 0x0 DUP1 REVERT JUMPDEST POP JUMP JUMPDEST PUSH1 0x0 DUP2 CALLDATALOAD SWAP1 POP PUSH2 0xD69 DUP2 PUSH2 0xD43 JUMP JUMPDEST SWAP3 SWAP2 POP POP JUMP JUMPDEST PUSH1 0x0 DUP2 SWAP1 POP SWAP2 SWAP1 POP JUMP JUMPDEST PUSH2 0xD82 DUP2 PUSH2 0xD6F JUMP JUMPDEST DUP2 EQ PUSH2 0xD8D JUMPI PUSH1 0x0 DUP1 REVERT JUMPDEST POP JUMP JUMPDEST PUSH1 0x0 DUP2 CALLDATALOAD SWAP1 POP PUSH2 0xD9F DUP2 PUSH2 0xD79 JUMP JUMPDEST SWAP3 SWAP2 POP POP JUMP JUMPDEST PUSH1 0x0 DUP1 REVERT JUMPDEST PUSH1 0x0 DUP1 REVERT JUMPDEST PUSH1 0x0 DUP1 REVERT JUMPDEST PUSH1 0x0 DUP1 DUP4 PUSH1 0x1F DUP5 ADD SLT PUSH2 0xDCA JUMPI PUSH2 0xDC9 PUSH2 0xDA5 JUMP JUMPDEST JUMPDEST DUP3 CALLDATALOAD SWAP1 POP PUSH8 0xFFFFFFFFFFFFFFFF DUP2 GT ISZERO PUSH2 0xDE7 JUMPI PUSH2 0xDE6 PUSH2 0xDAA JUMP JUMPDEST JUMPDEST PUSH1 0x20 DUP4 ADD SWAP2 POP DUP4 PUSH1 0x1 DUP3 MUL DUP4 ADD GT ISZERO PUSH2 0xE03 JUMPI PUSH2 0xE02 PUSH2 0xDAF JUMP JUMPDEST JUMPDEST SWAP3 POP SWAP3 SWAP1 POP JUMP JUMPDEST PUSH1 0x0 DUP1 PUSH1 0x0 DUP1 PUSH1 0x0 DUP1 PUSH1 0x0 DUP1 PUSH1 0x0 DUP1 PUSH2 0x100 DUP12 DUP14 SUB SLT ISZERO PUSH2 0xE2E JUMPI PUSH2 0xE2D PUSH2 0xD07 JUMP JUMPDEST JUMPDEST PUSH1 0x0 PUSH2 0xE3C DUP14 DUP3 DUP15 ADD PUSH2 0xD5A JUMP JUMPDEST SWAP11 POP POP PUSH1 0x20 PUSH2 0xE4D DUP14 DUP3 DUP15 ADD PUSH2 0xD5A JUMP JUMPDEST SWAP10 POP POP PUSH1 0x40 PUSH2 0xE5E DUP14 DUP3 DUP15 ADD PUSH2 0xD90 JUMP JUMPDEST SWAP9 POP POP PUSH1 0x60 PUSH2 0xE6F DUP14 DUP3 DUP15 ADD PUSH2 0xD90 JUMP JUMPDEST SWAP8 POP POP PUSH1 0x80 PUSH2 0xE80 DUP14 DUP3 DUP15 ADD PUSH2 0xD90 JUMP JUMPDEST SWAP7 POP POP PUSH1 0xA0 PUSH2 0xE91 DUP14 DUP3 DUP15 ADD PUSH2 0xD90 JUMP JUMPDEST SWAP6 POP POP PUSH1 0xC0 DUP12 ADD CALLDATALOAD PUSH8 0xFFFFFFFFFFFFFFFF DUP2 GT ISZERO PUSH2 0xEB2 JUMPI PUSH2 0xEB1 PUSH2 0xD0C JUMP JUMPDEST JUMPDEST PUSH2 0xEBE DUP14 DUP3 DUP15 ADD PUSH2 0xDB4 JUMP JUMPDEST SWAP5 POP SWAP5 POP POP PUSH1 0xE0 DUP12 ADD CALLDATALOAD PUSH8 0xFFFFFFFFFFFFFFFF DUP2 GT ISZERO PUSH2 0xEE1 JUMPI PUSH2 0xEE0 PUSH2 0xD0C JUMP JUMPDEST JUMPDEST PUSH2 0xEED DUP14 DUP3 DUP15 ADD PUSH2 0xDB4 JUMP JUMPDEST SWAP3 POP SWAP3 POP POP SWAP3 SWAP6 SWAP9 SWAP12 SWAP2 SWAP5 SWAP8 SWAP11 POP SWAP3 SWAP6 SWAP9 POP JUMP JUMPDEST PUSH1 0x0 DUP1 PUSH1 0x0 DUP1 PUSH1 0x0 DUP1 PUSH1 0xA0 DUP8 DUP10 SUB SLT ISZERO PUSH2 0xF1E JUMPI PUSH2 0xF1D PUSH2 0xD07 JUMP JUMPDEST JUMPDEST PUSH1 0x0 PUSH2 0xF2C DUP10 DUP3 DUP11 ADD PUSH2 0xD5A JUMP JUMPDEST SWAP7 POP POP PUSH1 0x20 PUSH2 0xF3D DUP10 DUP3 DUP11 ADD PUSH2 0xD90 JUMP JUMPDEST SWAP6 POP POP PUSH1 0x40 PUSH2 0xF4E DUP10 DUP3 DUP11 ADD PUSH2 0xD90 JUMP JUMPDEST SWAP5 POP POP PUSH1 0x60 PUSH2 0xF5F DUP10 DUP3 DUP11 ADD PUSH2 0xD90 JUMP JUMPDEST SWAP4 POP POP PUSH1 0x80 DUP8 ADD CALLDATALOAD PUSH8 0xFFFFFFFFFFFFFFFF DUP2 GT ISZERO PUSH2 0xF80 JUMPI PUSH2 0xF7F PUSH2 0xD0C JUMP JUMPDEST JUMPDEST PUSH2 0xF8C DUP10 DUP3 DUP11 ADD PUSH2 0xDB4 JUMP JUMPDEST SWAP3 POP SWAP3 POP POP SWAP3 SWAP6 POP SWAP3 SWAP6 POP SWAP3 SWAP6 JUMP JUMPDEST PUSH1 0x0 DUP2 SWAP1 POP SWAP2 SWAP1 POP JUMP JUMPDEST PUSH2 0xFAE DUP2 PUSH2 0xF9B JUMP JUMPDEST DUP3 MSTORE POP POP JUMP JUMPDEST PUSH1 0x0 PUSH1 0x20 DUP3 ADD SWAP1 POP PUSH2 0xFC9 PUSH1 0x0 DUP4 ADD DUP5 PUSH2 0xFA5 JUMP JUMPDEST SWAP3 SWAP2 POP POP JUMP JUMPDEST PUSH32 0x4E487B7100000000000000000000000000000000000000000000000000000000 PUSH1 0x0 MSTORE PUSH1 0x11 PUSH1 0x4 MSTORE PUSH1 0x24 PUSH1 0x0 REVERT JUMPDEST PUSH1 0x0 PUSH2 0x1009 DUP3 PUSH2 0xD6F JUMP JUMPDEST SWAP2 POP PUSH2 0x1014 DUP4 PUSH2 0xD6F JUMP JUMPDEST SWAP3 POP DUP3 DUP3 ADD SWAP1 POP DUP1 DUP3 GT ISZERO PUSH2 0x102C JUMPI PUSH2 0x102B PUSH2 0xFCF JUMP JUMPDEST JUMPDEST SWAP3 SWAP2 POP POP JUMP JUMPDEST PUSH2 0x103B DUP2 PUSH2 0xD6F JUMP JUMPDEST DUP3 MSTORE POP POP JUMP JUMPDEST PUSH1 0x0 PUSH1 0x20 DUP3 ADD SWAP1 POP PUSH2 0x1056 PUSH1 0x0 DUP4 ADD DUP5 PUSH2 0x1032 JUMP JUMPDEST SWAP3 SWAP2 POP POP JUMP JUMPDEST PUSH1 0x0 DUP2 MLOAD SWAP1 POP SWAP2 SWAP1 POP JUMP JUMPDEST PUSH1 0x0 DUP2 SWAP1 POP SWAP3 SWAP2 POP POP JUMP JUMPDEST PUSH1 0x0 JUMPDEST DUP4 DUP2 LT ISZERO PUSH2 0x1090 JUMPI DUP1 DUP3 ADD MLOAD DUP2 DUP5 ADD MSTORE PUSH1 0x20 DUP2 ADD SWAP1 POP PUSH2 0x1075 JUMP JUMPDEST PUSH1 0x0 DUP5 DUP5 ADD MSTORE POP POP POP POP JUMP JUMPDEST PUSH1 0x0 PUSH2 0x10A7 DUP3 PUSH2 0x105C JUMP JUMPDEST PUSH2 0x10B1 DUP2 DUP6 PUSH2 0x1067 JUMP JUMPDEST SWAP4 POP PUSH2 0x10C1 DUP2 DUP6 PUSH1 0x20 DUP7 ADD PUSH2 0x1072 JUMP JUMPDEST DUP1 DUP5 ADD SWAP2 POP POP SWAP3 SWAP2 POP POP JUMP JUMPDEST PUSH1 0x0 PUSH2 0x10D9 DUP3 DUP5 PUSH2 0x109C JUMP JUMPDEST SWAP2 POP DUP2 SWAP1 POP SWAP3 SWAP2 POP POP JUMP JUMPDEST PUSH32 0x5251455448000000000000000000000000000000000000000000000000000000 PUSH1 0x0 DUP3 ADD MSTORE POP JUMP JUMPDEST PUSH1 0x0 PUSH2 0x111A PUSH1 0x5 DUP4 PUSH2 0xC8A JUMP JUMPDEST SWAP2 POP PUSH2 0x1125 DUP3 PUSH2 0x10E4 JUMP JUMPDEST PUSH1 0x20 DUP3 ADD SWAP1 POP SWAP2 SWAP1 POP JUMP JUMPDEST PUSH1 0x0 PUSH1 0x20 DUP3 ADD SWAP1 POP DUP2 DUP2 SUB PUSH1 0x0 DUP4 ADD MSTORE PUSH2 0x1149 DUP2 PUSH2 0x110D JUMP JUMPDEST SWAP1 POP SWAP2 SWAP1 POP JUMP JUMPDEST PUSH2 0x1159 DUP2 PUSH2 0xD31 JUMP JUMPDEST DUP3 MSTORE POP POP JUMP JUMPDEST PUSH1 0x0 DUP3 DUP3 MSTORE PUSH1 0x20 DUP3 ADD SWAP1 POP SWAP3 SWAP2 POP POP JUMP JUMPDEST DUP3 DUP2 DUP4 CALLDATACOPY PUSH1 0x0 DUP4 DUP4 ADD MSTORE POP POP POP JUMP JUMPDEST PUSH1 0x0 PUSH1 0x1F NOT PUSH1 0x1F DUP4 ADD AND SWAP1 POP SWAP2 SWAP1 POP JUMP JUMPDEST PUSH1 0x0 PUSH2 0x119C DUP4 DUP6 PUSH2 0x115F JUMP JUMPDEST SWAP4 POP PUSH2 0x11A9 DUP4 DUP6 DUP5 PUSH2 0x1170 JUMP JUMPDEST PUSH2 0x11B2 DUP4 PUSH2 0x117F JUMP JUMPDEST DUP5 ADD SWAP1 POP SWAP4 SWAP3 POP POP POP JUMP JUMPDEST PUSH1 0x0 PUSH1 0xE0 DUP3 ADD SWAP1 POP PUSH2 0x11D2 PUSH1 0x0 DUP4 ADD DUP12 PUSH2 0x1150 JUMP JUMPDEST PUSH2 0x11DF PUSH1 0x20 DUP4 ADD DUP11 PUSH2 0x1150 JUMP JUMPDEST PUSH2 0x11EC PUSH1 0x40 DUP4 ADD DUP10 PUSH2 0x1032 JUMP JUMPDEST PUSH2 0x11F9 PUSH1 0x60 DUP4 ADD DUP9 PUSH2 0x1032 JUMP JUMPDEST PUSH2 0x1206 PUSH1 0x80 DUP4 ADD DUP8 PUSH2 0x1032 JUMP JUMPDEST PUSH2 0x1213 PUSH1 0xA0 DUP4 ADD DUP7 PUSH2 0x1032 JUMP JUMPDEST DUP2 DUP2 SUB PUSH1 0xC0 DUP4 ADD MSTORE PUSH2 0x1226 DUP2 DUP5 DUP7 PUSH2 0x1190 JUMP JUMPDEST SWAP1 POP SWAP10 SWAP9 POP POP POP POP POP POP POP POP POP JUMP JUMPDEST PUSH32 0x444D56414C000000000000000000000000000000000000000000000000000000 PUSH1 0x0 DUP3 ADD MSTORE POP JUMP JUMPDEST PUSH1 0x0 PUSH2 0x126B PUSH1 0x5 DUP4 PUSH2 0xC8A JUMP JUMPDEST SWAP2 POP PUSH2 0x1276 DUP3 PUSH2 0x1235 JUMP JUMPDEST PUSH1 0x20 DUP3 ADD SWAP1 POP SWAP2 SWAP1 POP JUMP JUMPDEST PUSH1 0x0 PUSH1 0x20 DUP3 ADD SWAP1 POP DUP2 DUP2 SUB PUSH1 0x0 DUP4 ADD MSTORE PUSH2 0x129A DUP2 PUSH2 0x125E JUMP JUMPDEST SWAP1 POP SWAP2 SWAP1 POP JUMP JUMPDEST PUSH32 0x5354524F4F540000000000000000000000000000000000000000000000000000 PUSH1 0x0 DUP3 ADD MSTORE POP JUMP JUMPDEST PUSH1 0x0 PUSH2 0x12D7 PUSH1 0x6 DUP4 PUSH2 0xC8A JUMP JUMPDEST SWAP2 POP PUSH2 0x12E2 DUP3 PUSH2 0x12A1 JUMP JUMPDEST PUSH1 0x20 DUP3 ADD SWAP1 POP SWAP2 SWAP1 POP JUMP JUMPDEST PUSH1 0x0 PUSH1 0x20 DUP3 ADD SWAP1 POP DUP2 DUP2 SUB PUSH1 0x0 DUP4 ADD MSTORE PUSH2 0x1306 DUP2 PUSH2 0x12CA JUMP JUMPDEST SWAP1 POP SWAP2 SWAP1 POP JUMP JUMPDEST PUSH1 0x0 DUP2 MLOAD SWAP1 POP PUSH2 0x131C DUP2 PUSH2 0xD79 JUMP JUMPDEST SWAP3 SWAP2 POP POP JUMP JUMPDEST PUSH1 0x0 PUSH1 0x20 DUP3 DUP5 SUB SLT ISZERO PUSH2 0x1338 JUMPI PUSH2 0x1337 PUSH2 0xD07 JUMP JUMPDEST JUMPDEST PUSH1 0x0 PUSH2 0x1346 DUP5 DUP3 DUP6 ADD PUSH2 0x130D JUMP JUMPDEST SWAP2 POP POP SWAP3 SWAP2 POP POP JUMP JUMPDEST PUSH32 0x444D545300000000000000000000000000000000000000000000000000000000 PUSH1 0x0 DUP3 ADD MSTORE POP JUMP JUMPDEST PUSH1 0x0 PUSH2 0x1385 PUSH1 0x4 DUP4 PUSH2 0xC8A JUMP JUMPDEST SWAP2 POP PUSH2 0x1390 DUP3 PUSH2 0x134F JUMP JUMPDEST PUSH1 0x20 DUP3 ADD SWAP1 POP SWAP2 SWAP1 POP JUMP JUMPDEST PUSH1 0x0 PUSH1 0x20 DUP3 ADD SWAP1 POP DUP2 DUP2 SUB PUSH1 0x0 DUP4 ADD MSTORE PUSH2 0x13B4 DUP2 PUSH2 0x1378 JUMP JUMPDEST SWAP1 POP SWAP2 SWAP1 POP JUMP JUMPDEST PUSH32 0x444D440000000000000000000000000000000000000000000000000000000000 PUSH1 0x0 DUP3 ADD MSTORE POP JUMP JUMPDEST PUSH1 0x0 PUSH2 0x13F1 PUSH1 0x3 DUP4 PUSH2 0xC8A JUMP JUMPDEST SWAP2 POP PUSH2 0x13FC DUP3 PUSH2 0x13BB JUMP JUMPDEST PUSH1 0x20 DUP3 ADD SWAP1 POP SWAP2 SWAP1 POP JUMP JUMPDEST PUSH1 0x0 PUSH1 0x20 DUP3 ADD SWAP1 POP DUP2 DUP2 SUB PUSH1 0x0 DUP4 ADD MSTORE PUSH2 0x1420 DUP2 PUSH2 0x13E4 JUMP JUMPDEST SWAP1 POP SWAP2 SWAP1 POP JUMP JUMPDEST PUSH32 0x444D480000000000000000000000000000000000000000000000000000000000 PUSH1 0x0 DUP3 ADD MSTORE POP JUMP JUMPDEST PUSH1 0x0 PUSH2 0x145D PUSH1 0x3 DUP4 PUSH2 0xC8A JUMP JUMPDEST SWAP2 POP PUSH2 0x1468 DUP3 PUSH2 0x1427 JUMP JUMPDEST PUSH1 0x20 DUP3 ADD SWAP1 POP SWAP2 SWAP1 POP JUMP JUMPDEST PUSH1 0x0 PUSH1 0x20 DUP3 ADD SWAP1 POP DUP2 DUP2 SUB PUSH1 0x0 DUP4 ADD MSTORE PUSH2 0x148C DUP2 PUSH2 0x1450 JUMP JUMPDEST SWAP1 POP SWAP2 SWAP1 POP JUMP JUMPDEST POP JUMP JUMPDEST PUSH1 0x0 PUSH2 0x14A3 PUSH1 0x0 DUP4 PUSH2 0x1067 JUMP JUMPDEST SWAP2 POP PUSH2 0x14AE DUP3 PUSH2 0x1493 JUMP JUMPDEST PUSH1 0x0 DUP3 ADD SWAP1 POP SWAP2 SWAP1 POP JUMP JUMPDEST PUSH1 0x0 PUSH2 0x14C4 DUP3 PUSH2 0x1496 JUMP JUMPDEST SWAP2 POP DUP2 SWAP1 POP SWAP2 SWAP1 POP JUMP JUMPDEST PUSH32 0x5445544800000000000000000000000000000000000000000000000000000000 PUSH1 0x0 DUP3 ADD MSTORE POP JUMP JUMPDEST PUSH1 0x0 PUSH2 0x1504 PUSH1 0x4 DUP4 PUSH2 0xC8A JUMP JUMPDEST SWAP2 POP PUSH2 0x150F DUP3 PUSH2 0x14CE JUMP JUMPDEST PUSH1 0x20 DUP3 ADD SWAP1 POP SWAP2 SWAP1 POP JUMP JUMPDEST PUSH1 0x0 PUSH1 0x20 DUP3 ADD SWAP1 POP DUP2 DUP2 SUB PUSH1 0x0 DUP4 ADD MSTORE PUSH2 0x1533 DUP2 PUSH2 0x14F7 JUMP JUMPDEST SWAP1 POP SWAP2 SWAP1 POP JUMP JUMPDEST PUSH1 0x0 PUSH2 0x1545 DUP3 PUSH2 0xD6F JUMP JUMPDEST SWAP2 POP PUSH2 0x1550 DUP4 PUSH2 0xD6F JUMP JUMPDEST SWAP3 POP DUP3 DUP3 SUB SWAP1 POP DUP2 DUP2 GT ISZERO PUSH2 0x1568 JUMPI PUSH2 0x1567 PUSH2 0xFCF JUMP JUMPDEST JUMPDEST SWAP3 SWAP2 POP POP JUMP INVALID LOG2 PUSH5 0x6970667358 0x22 SLT KECCAK256 0xD3 CALLCODE JUMP PUSH2 0x9970 ORIGIN PUSH17 0xC1F491A69868FE236756416839DACEB1E9 ORIGIN MUL 0x25 MSTORE8 MLOAD 0xC 0xEE PUSH5 0x736F6C6343 STOP ADDMOD LT STOP CALLER "
		},
		"gasEstimates": {
			"creation": {
				"codeDepositCost": "1108000",
				"executionCost": "1154",
				"totalCost": "1109154"
			},
			"external": {
				"dispatchMessage(address,uint256,uint256,uint256,bytes)": "infinite",
				"dropMessage(address,address,uint256,uint256,uint256,uint256,bytes,bytes)": "infinite"
			}
		},
		"methodIdentifiers": {
			"dispatchMessage(address,uint256,uint256,uint256,bytes)": "5d4d3bcd",
			"dropMessage(address,address,uint256,uint256,uint256,uint256,bytes,bytes)": "2822697b"
		}
	},
	"abi": [
		{
			"anonymous": false,
			"inputs": [
				{
					"indexed": false,
					"internalType": "bytes32",
					"name": "blockHash",
					"type": "bytes32"
				}
			],
			"name": "BlockFinalized",
			"type": "event"
		},
		{
			"anonymous": false,
			"inputs": [],
			"name": "BlockSubmitted",
			"type": "event"
		},
		{
			"anonymous": false,
			"inputs": [
				{
					"indexed": false,
					"internalType": "bytes32",
					"name": "id",
					"type": "bytes32"
				}
			],
			"name": "MessageDelivered",
			"type": "event"
		},
		{
			"anonymous": false,
			"inputs": [
				{
					"indexed": false,
					"internalType": "address",
					"name": "from",
					"type": "address"
				},
				{
					"indexed": false,
					"internalType": "address",
					"name": "to",
					"type": "address"
				},
				{
					"indexed": false,
					"internalType": "uint256",
					"name": "value",
					"type": "uint256"
				},
				{
					"indexed": false,
					"internalType": "uint256",
					"name": "fee",
					"type": "uint256"
				},
				{
					"indexed": false,
					"internalType": "uint256",
					"name": "deadline",
					"type": "uint256"
				},
				{
					"indexed": false,
					"internalType": "uint256",
					"name": "nonce",
					"type": "uint256"
				},
				{
					"indexed": false,
					"internalType": "bytes",
					"name": "data",
					"type": "bytes"
				}
			],
			"name": "MessageDispatched",
			"type": "event"
		},
		{
			"anonymous": false,
			"inputs": [
				{
					"indexed": false,
					"internalType": "bytes32",
					"name": "id",
					"type": "bytes32"
				}
			],
			"name": "MessageDropped",
			"type": "event"
		},
		{
			"inputs": [
				{
					"internalType": "address",
					"name": "to",
					"type": "address"
				},
				{
					"internalType": "uint256",
					"name": "fee",
					"type": "uint256"
				},
				{
					"internalType": "uint256",
					"name": "deadline",
					"type": "uint256"
				},
				{
					"internalType": "uint256",
					"name": "nonce",
					"type": "uint256"
				},
				{
					"internalType": "bytes",
					"name": "data",
					"type": "bytes"
				}
			],
			"name": "dispatchMessage",
			"outputs": [
				{
					"internalType": "bytes32",
					"name": "messageHash",
					"type": "bytes32"
				}
			],
			"stateMutability": "payable",
			"type": "function"
		},
		{
			"inputs": [
				{
					"internalType": "address",
					"name": "from",
					"type": "address"
				},
				{
					"internalType": "address",
					"name": "to",
					"type": "address"
				},
				{
					"internalType": "uint256",
					"name": "value",
					"type": "uint256"
				},
				{
					"internalType": "uint256",
					"name": "fee",
					"type": "uint256"
				},
				{
					"internalType": "uint256",
					"name": "deadline",
					"type": "uint256"
				},
				{
					"internalType": "uint256",
					"name": "nonce",
					"type": "uint256"
				},
				{
					"internalType": "bytes",
					"name": "data",
					"type": "bytes"
				},
				{
					"internalType": "bytes",
					"name": "proof",
					"type": "bytes"
				}
			],
			"name": "dropMessage",
			"outputs": [],
			"stateMutability": "nonpayable",
			"type": "function"
		},
		{
			"stateMutability": "payable",
			"type": "receive"
		}
	]
}